:020000040800F2
:1000000000040020B9030008BB030008BB0300087C
:10001000BB030008BB030008BB030008BB030008C8
:10002000BB030008BB030008BB030008714A0008BB
:10003000BB030008BB030008BB030008BB030008A8
:10004000BB030008BB030008BB030008BB03000898
:10005000BB030008BB030008BB030008BB03000888
:10006000BB030008BB030008BB030008911A00088B
:10007000D11A0008111B0008511B0008911B000831
:10008000D11B0008111C000891160008BB030008D2
:10009000BB030008BB030008BB030008BB03000848
:1000A000BB030008BB030008BB030008BB03000838
:1000B000A1120008BB030008BB030008BB03000833
:1000C000BB030008BB030008BB030008512F000856
:1000D000C12F000841120008BB030008BB03000841
:1000E000BB030008BB030008BB030008BB030008F8
:1000F000BB030008BB030008BB030008511C000839
:10010000C1110008BB030008BB0300083130000820
:10011000BB03000871120008BB030008BB03000802
:10012000911C0008D11C0008111D0008511D000879
:10013000911D0008BB030008BB030008BB030008B7
:10014000BB030008BB030008BB030008BB03000897
:10015000D11D0008111E0008511E0008BB03000835
:10016000BB030008BB030008BB030008BB03000877
:10017000BB030008BB030008BB030008BB03000867
:10018000BB030008BB030008BB030008BB03000857
:10019000BB030008A130000811310008BB030008B0
:1001A000BB030008BB030008BB030008BB03000837
:1001B000BB030008BB030008BB030008BB03000827
:1001C000BB030008BB030008BB030008BB03000817
:1001D000BB030008A1260008BB030008BB030008FE
:1001E000BB030008BB030008BB030008BB030008F7
:1001F000BB030008BB030008BB030008BB030008E7
:10020000BB030008BB030008BB030008BB030008D6
:10021000BB030008BB030008BB030008BB030008C6
:10022000BB030008BB030008BB030008BB030008B6
:10023000BB030008BB030008BB030008BB030008A6
:10024000BB0300084117000881170008C117000808
:10025000011800084118000881180008C11800089A
:1002600001190008BB030008BB030008BB0300081A
:10027000BB030008BB030008BB030008BB03000866
:10028000BB030008BB030008BB030008BB03000856
:10029000BB030008BB030008BB030008BB03000846
:1002A000BB030008BB030008BB030008BB03000836
:1002B000BB030008BB030008BB030008BB03000826
:1002C000BB030008BB030008BB030008BB03000816
:1002D000BB030008BB030008BB030008BB03000806
:1002E00072B6264880F30888254880F30988254897
:1002F00025490860022080F31488BFF36F8F00F057
:100300000FF903F0FDFA4FF0553020491B4A914296
:100310003CBF41F8040BFAE71D49194A91423CBF22
:1003200041F8040BFAE71B491B4A1C4B9A423EBF9B
:1003300051F8040B42F8040BF8E700201849194A59
:1003400091423CBF41F8040BFAE700F039F900F0A4
:1003500027F9154C154DAC4203DA54F8041B8847B5
:10036000F9E704F0EDFB124C124DAC4203DA54F8FD
:10037000041B8847F9E700F01BB9000000040020C7
:10038000000800200000000808ED00E00000002048
:1003900000040020A85900080000002404000024E4
:1003A00008000024A8150024E0020008E00200086C
:1003B000E0020008E002000892E700F000F8FEE723
:1003C0002DE9F04FC1F80CD0D0F80CD0BDE8F08F7B
:1003D000002383F311882846A047002004F070F81A
:1003E000FEE703F025FF00DFFEE70000844641EA58
:1003F000000313F003036DD1403A41D351F8043B9D
:1004000040F8043B51F8043B40F8043B51F8043BEE
:1004100040F8043B51F8043B40F8043B51F8043BDE
:1004200040F8043B51F8043B40F8043B51F8043BCE
:1004300040F8043B51F8043B40F8043B51F8043BBE
:1004400040F8043B51F8043B40F8043B51F8043BAE
:1004500040F8043B51F8043B40F8043B51F8043B9E
:1004600040F8043B51F8043B40F8043B51F8043B8E
:1004700040F8043B51F8043B40F8043B403ABDD2FD
:10048000303211D351F8043B40F8043B51F8043B9F
:1004900040F8043B51F8043B40F8043B51F8043B5E
:1004A00040F8043B103AEDD20C3205D351F8043B2E
:1004B00040F8043B043AF9D2043208D0D2071CBFFA
:1004C00011F8013B00F8013B01D30B880380604623
:1004D000704700BF082A13D38B078DD010F0030399
:1004E0008AD0C3F10403D21ADB071CBF11F8013B09
:1004F00000F8013B80D331F8023B20F8023B7BE758
:10050000043AD9D3013A11F8013B00F8013BF9D282
:100510000B7803704B7843708B788370604670471C
:1005200010B5BFF34F8FBFF36F8F1C480022C0F888
:100530005022BFF34F8FBFF36F8F436943F40033F3
:100540004361BFF34F8FBFF36F8FC0F88420BFF3B9
:100550004F8FD0F8803043F6E074C3F34E3CC3F3C2
:10056000C90E4FEA4C1C0CEA0401734641EA83723F
:10057000013BC0F860225A1CF8D1ACF1200C1CF1F0
:10058000200FF0D1BFF34F8F436943F480334361B1
:10059000BFF34F8FBFF36F8F10BD00BF00ED00E0C2
:1005A000704700BF000000000000000000000000D5
:1005B000FEE700BF00000000000000000000000097
:1005C000F8B52B4D2B4F2C4905F170042B482C4AC4
:1005D00088420DD2043A034652F8046F43F8046B84
:1005E0008B42F9D34B1E1B1A23F003030433184428
:1005F000B84207D2013F00213F1A27F0030204321C
:1006000004F022FEA54205D0D5E90420D5E906175D
:100610001035DDE71B480023C0F88430BFF34F8F4F
:10062000D0F8805043F6E076C5F34E34C5F3C905E3
:10063000640104EA06012B4641EA8372013BC0F8DB
:100640006C225A1CF8D1203C14F1200FF1D1BFF3D9
:100650004F8FBFF36F8FBFF34F8FBFF36F8F0023A9
:10066000C0F85032BFF34F8FBFF36F8FF8BD00BF9C
:10067000EC520008A8150024A8150024A815002491
:10068000AC59000800ED00E0000000000000000090
:1006900008B500F02DFE01F0F3FC00F0D9F900F0F0
:1006A0003FFA00F075FA00F0A3FA00F0E9F900F063
:1006B0006FFD03F045FABDE8084000F001B800BF47
:1006C00002F0EEBF0000000000000000000000008B
:1006D0004FF08043586A704700000000000000009F
:1006E0004FF080430021022258631961DA6070479D
:1006F0004FF080430022DA60704700BF0000000026
:100700004FF0804358637047000000000000000075
:10071000F8B51546826804460B46AA4200D28568A1
:10072000A1692669761AB54218D30AD82A4618460E
:10073000FFF75CFEE268A3682846A2615B1BA3602A
:10074000F8BDAF1B32461846FFF750FE3A4630441C
:10075000E168FFF74BFEE2683A44ECE72A461846A8
:10076000FFF744FEA2692A44E5E700BF000000004D
:10077000836893422DE9F04104460F4612D2856802
:10078000D4E90460361AB54212D318D82A4639463D
:10079000FFF72CFEE268A368284662615B1BA3603A
:1007A000BDE8F081D4E904601546361AB542ECD2B2
:1007B0002A463946FFF71AFE62692A44EBE7A5EBA1
:1007C000060832463946FFF711FE4246B919E0687D
:1007D000FFF70CFEE2684244DDE700BF00000000C6
:1007E00010B40A440024C361019B8460C16010BC42
:1007F00002610362C0E90000C0E90511704700BF53
:10080000D0E90532934211D0826810B501325C1CE8
:10081000826044611970D0E904329A4201D3C368FE
:100820004361002103F0F4FE002010BD8268002A1D
:10083000EAD04FF0FF3070470000000000000000D9
:1008400070B5302305460E4683F3118803E003F0AC
:10085000C7FE002819DBAC6831462846002CF6D0CC
:10086000AB68A969013B4A1CAB602B69AA619A423B
:100870000C7801D3EB68AB61EB690BB12846984764
:10088000002383F31188204670BD84F3118870BD66
:100890002DE9F04F83B09A46C6693027019287F35D
:1008A0001188CAB183460D46DDF804904FF0000868
:1008B0004A4629465846FFF72BFF0446584694B14E
:1008C00006B1B04788F31188A9EB0409254487F3E2
:1008D0001188B9F1000FEBD10198002383F311883F
:1008E00003B0BDE8F08F514603F07AFE0028DFD058
:1008F000019BA3EB0900002383F3118803B0BDE83B
:10090000F08F00BF000000000000000000000000A9
:1009100010B4C3618C18019B0461826010BCC1607B
:100920000362C0E90000C0E9051170470000000043
:10093000F8B5302304460F46164683F3118803E0CA
:1009400003F04EFE002819DBA56831462046002D35
:10095000F6D06269A368511C013B6161A360177006
:10096000D4E904329A4201D3E3686361E3690BB1CD
:1009700020469847002080F31188F8BD85F3118840
:10098000F8BD00BF000000000000000000000000F3
:10099000D0E905239A4210D08268591C013210B563
:1009A000816182601C780369994201D3C3688361C5
:1009B000002103F02DFE204610BD8268002AEBD0F6
:1009C0004FF0FF30704700BF000000000000000043
:1009D0002DE9F04F83B09A46C6693027019287F31C
:1009E0001188CAB183460D46DDF804904FF0000827
:1009F0004A4629465846FFF7BBFE0446584694B17E
:100A000006B1B04788F31188A9EB0409254487F3A0
:100A10001188B9F1000FEBD10198002383F31188FD
:100A200003B0BDE8F08F514603F0DAFD0028DFD0B7
:100A3000019BA3EB0900002383F3118803B0BDE8F9
:100A4000F08F00BF00000000000000000000000068
:100A500000F0AEBD0000000000000000000000003B
:100A600003460022012118305A611970C3E901229E
:100A7000C3E9032203F01CBE0000000000000000D8
:100A8000704700BF000000000000000000000000F0
:100A90000C30FFF7FDBE00BF0000000000000000AA
:100AA0004FF0FF330C30FFF7F3BE00BF0000000033
:100AB0003030FFF78DBF00BF0000000000000000D5
:100AC0004FF0FF333030FFF783BF00BF000000005E
:100AD0000C30FFF7B5BE00BF0000000000000000B2
:100AE0004FF0FF310C30FFF7ABBE00BF000000003D
:100AF0003030FFF71DBF00BF000000000000000005
:100B00004FF0FF323030FFF713BF00BF000000008E
:100B1000012914BF6FF0130000207047000000008F
:100B200002F016BE000000000000000000000000FF
:100B300003460349012243F8041B027243607047D5
:100B40006C530008000000000000000000000000DE
:100B500038B5436904460D463BB1294604F10C0003
:100B6000FFF74EFE00280BDB38BD0421084403F0DC
:100B700057FE294604F10C00FFF742FE0028F3DA85
:100B8000201D4FF40061BDE8384003F049BE00BFAE
:100B900002F0F6BA000000000000000000000000B3
:100BA0000346002201210C301970C3E9012203F031
:100BB0007FBD00BF0000000000000000000000003A
:100BC00010B53023044683F31188416002F050FBD6
:100BD0000023984214BF01220222227083F311885D
:100BE00010BD00BF00000000000000000000000079
:100BF00001F01EBB0000000000000000000000002B
:100C000001234022002110B5044600F8303B04F0D7
:100C10001BFB0023C4E9013310BD00BF000000002E
:100C200070B5022300250446242203702946C0F82B
:100C300088500C3040F8045C04F006FB204684F831
:100C4000705001F005FB63681B6823B129462046FC
:100C5000BDE87040184770BD0000000000000000B3
:100C60000378052B0DD00521426880F88C30017087
:100C7000136810B504460BB1042198470023A36004
:100C800010BD7047000000000000000000000000E0
:100C90000178052900D0704790F88CC0426880F830
:100CA00000C01368002BF6D0184700BF00000000FA
:100CB00070B590F87030044613B1002380F870309E
:100CC00004F18002204601F063FB63689B6853B324
:100CD0002046984738B3A56F94F88030B4F8862042
:100CE000AA422CBF2A46A267190600F1DA80002A20
:100CF00000F08D801522302384F8702083F3118852
:100D000062892046E36842F001029B696281D4E96E
:100D10001D51002419609D6021465C6001F048FB74
:100D200084F3118870BD94F8803013F06006184683
:100D30001CD194F8812003F07F0545EA022540F29A
:100D40000232954200F0518140D8B5F5807F00F025
:100D500008811DD9B5F5817F00F01281B5F5407F7E
:100D600004D194F88230012B00F0D380002120467A
:100D700001F096FE0021204601F082FE63681B68A8
:100D800013B1062120469847062384F8703070BDC1
:100D9000012D61D0022D51D194F98430204694F870
:100DA0008410002B01F00F01C0F2AC8001F0D0FAEA
:100DB000012800F0AC800228D8D19A4902230022F1
:100DC000C4E91D13E26794F8803087E7B5F5006F3A
:100DD00000F0038147D9B5F5106F39D12378042B82
:100DE00000F0A18094F882304BB10421626884F84D
:100DF0008B302170136813B10221204698470023DD
:100E000094F88000C4E91D33E367030663D40B2222
:100E1000302384F8702083F3118822890025E36849
:100E2000204642F0010229465B6922819D60C3E9A8
:100E3000005501F055FB85F3118870BD002D95D14B
:100E4000022204F18801E56761671546A26745E75C
:100E500040F60242954289D1022573490022C4E935
:100E60001D15E2673AE7B5F5A06F00F09F80A5F584
:100E7000C065012D3FF67AAF61682046B4F8843032
:100E80004D6894F8822094F88310A84700283FF416
:100E90006DAF94F88030D0E90052E667C4E91D25B3
:100EA0001CE7C2B10922302384F8702083F3118833
:100EB00022892046E36842F001025B692281D4E97D
:100EC0001D51002419609D6021465C6001F008FB03
:100ED00084F3118870BD1422302384F8702083F3CA
:100EE000118862890025E368204642F00102294604
:100EF0009B6962819D60C3E9005501F059FA85F351
:100F0000118870BD01F034FA01287FF454AF4749CD
:100F100054E7B4F88830E66743F00203C4E91D667D
:100F2000A4F8883071E7302383F31188A368202266
:100F3000314604F1100003F00113A36004F084F9BA
:100F4000204601F0FDF986F311880321636884F8D7
:100F50008B6021701B68002B3FF444AF20469847FC
:100F600040E794F88230012B7FF400AFB4F888306A
:100F7000E66723F00203C4E91D66A4F8883044E75D
:100F800094F88230002B7FF4F1AE94F8843013F0A3
:100F90000F0106D01E06204639D401F091FD94F8C9
:100FA00080000023C4E91D33E3672EE7B4F88030E6
:100FB000B3F5A06FF5D194F88230204684F88A30DA
:100FC00001F0AEF963681B6813B101212046984710
:100FD000032394F880002370E3E7012204F18B01DE
:100FE000E6671546C4E91D1278E694F88230002BB6
:100FF0007FF4BCAE94F8843013F00F01D1D01D06FD
:10100000204609D401F03CFD94F88000C9E701F0C6
:1010100067FD94F88000C4E701F042FD94F8800079
:10102000BFE700BF945300089C5300089853000882
:1010300038B590F870300446152B27D8DFE803F058
:101040002726262626262726260B1038262626265D
:10105000262626262727856FB0F886309D422ED378
:101060001422302384F8702083F3118862890025CC
:10107000E368204642F0010229469B6962819D6037
:10108000C3E9005501F094F985F3118838BD0021BA
:1010900001F006FD0021204601F0F2FC63681B68A8
:1010A00013B1062120469847062384F8703038BDD6
:1010B000C36F03B19847002384F8703038BDC3680C
:1010C0001B8AB5FBF3F203FB1255002DC8D1302368
:1010D00083F3118802892946C36842F001025B69E3
:1010E00002819D60C3E9005501F0FAF985F311888A
:1010F0000A2384F8703038BD0000000000000000B2
:1011000038B590F870300446152B21D8DFE803F08D
:1011100021202020202021202021212120202020CA
:1011200020202020320B0B22302380F8702083F304
:10113000118802890025C36842F0010229465B69D3
:1011400002819D60C3E9005501F0CAF985F3118859
:1011500038BD002101F0A4FC0021204601F090FCE4
:1011600063681B6813B1062120469847062384F85C
:10117000703038BDC3689B695B68002BE8D1C36FD2
:1011800003B19847002384F8703038BD0000000098
:1011900000F006B8000000000000000000000000A1
:1011A000034B1A781AB90121024A19705A60704724
:1011B0000800002440410052000000000000000030
:1011C00010B5054C204602F08BFD204602F0A0FD34
:1011D000BDE8104003F08CBCA053000800000000E4
:1011E0000A4A09014FEA501C0123C9B200B500F0B8
:1011F0001F0E104403FA0EF380F8001302EB8C016B
:10120000C1F8803142F82C305DF804FB00E100E0C9
:1012100000F01F0C0122084B002102FA0CF24FEAE9
:10122000501C184403EB8C03C3F88020C3F88021C2
:1012300080F80013704700BF00E100E000000000EC
:1012400010B5074C204602F04BFD064802F0D0FADC
:10125000204602F05DFDBDE8104003F049BC00BF30
:10126000C4530008F0020024000000000000000049
:1012700010B5074C204602F033FD064802F0B8FADC
:10128000204602F045FDBDE8104003F031BC00BF30
:10129000B8530008500300240000000000000000C4
:1012A00010B5064C204602F01BFD02F029FA20463C
:1012B00002F02EFDBDE8104003F01ABCAC5300084C
:1012C00008B509217A20FFF78BFF07211C20FFF7C3
:1012D00087FF0C212520FFF783FF0C213520BDE877
:1012E0000840FFF77DBF00BF0000000000000000C5
:1012F00038B5364B00224FF0FF31354CD3F8800023
:10130000344D60F00040C3F88000D3F8800000F056
:101310000040C3F88000D3F88000D3F88400C3F8FD
:101320008410D3F88400C3F88420D3F88400D86FE5
:101330002043D867DC6F28482C40DC67DC6FD3F88B
:1013400088402043C3F88800D3F88800C0F30A001F
:10135000C3F88800D3F88800D3F89000C3F8901041
:10136000D3F89000C3F89020D3F89000D3F89400FD
:10137000C3F89410D3F89400C3F89420D3F89400E1
:10138000D3F89800C3F89810D3F89800C3F89820C1
:10139000D3F89800D3F88C00C3F88C10D3F88C00E5
:1013A000C3F88C20D3F88C00D3F89C00C3F89C10B1
:1013B000D3F89C10C3F89C20D3F89C3000F0C0FAFE
:1013C00000F066FDBDE83840FFF77ABF00440258E0
:1013D000FFEFFF7F0010008000F8FFFF000000001B
:1013E000654B02206549664A10B40124C1F80841E2
:1013F000D3F8F4100143C3F8F410D3F81C110143DF
:10140000C3F81C11D3F81C31D06053689904FCD583
:101410005C4901235C4C0020116093604FF4404311
:101420005749D460106193618B699B04FCD50B68AC
:10143000514A43F480730B60136F03F44073B3F5A8
:10144000007F04D04FF480310023116713674A49AD
:101450000B6843F001030B600B685C07FCD50023AD
:10146000454A0B61136913F03803FBD14FF08040FC
:10147000012446491460506045485367D1621061A9
:1014800013683D4943F4803313600B689803FCD51F
:101490000A68394B42F480520A601A689204FCD5FB
:1014A00000223C483C4944F6F05498625A63196360
:1014B0003A49DC633A4899633A495A641864D962F4
:1014C00019682D4A41F0A8511960136803F0285398
:1014D000B3F1285FF9D148244FF4886340204FF4DA
:1014E000803194614FF08054D3614FF4E003106277
:1014F0004FF44030D16414652B4953653223906515
:101500000B600B6803F00F03022BFAD11A4A136920
:1015100043F003031361136903F03803182BFAD166
:10152000D2F8DC3010BC43F00053C2F8DC30D2F803
:10153000043143F00053C2F80431D2F80431D2F838
:10154000DC3043F08043C2F8DC30D2F8043143F0A1
:101550008043C2F80431D2F80431D2F8DC3043F0D1
:101560000043C2F8DC30D2F8043143F00043C2F843
:101570000431D2F804317047004402580080005111
:101580000048025800C000F0020000010000FF0106
:1015900000881008525090019F0209016112010B4E
:1015A0001F07050799036B0100200052000000008F
:1015B00070B51E4C00261E4D2046FFF751FA1D4AFD
:1015C0001D4B05211220C4E90A25C4E90C63FFF76D
:1015D00007FE1A4BD3F8D82042F02002C3F8D820D7
:1015E000D3F8002142F02002C3F80021D3F80021F3
:1015F000D3F8802042F02002C3F88020D3F8802066
:1016000022F02002C3F88020D3F88020AE60D3F807
:10161000D82022F02002C3F8D820D3F8002122F0ED
:101620002002C3F80021D3F8003170BD100000245F
:101630000023024000200240162C02000044025801
:10164000104B98420DD0826A9368590706D593686B
:1016500043F0100393609368DB06FCD40023D3614E
:101660007047016B0A68136823F01F031360136847
:10167000DB07FCD491F80CC03D234A6803FA0CF355
:101680001360E0E7100000240000000000000000EC
:1016900070B5264802F024FB254D264A2E691368B2
:1016A000136066B313F0100406D02C78A4F1030481
:1016B000B4FA84F464096400180648BF44F00404D2
:1016C000D90523D59A0544F0080401D544F0100447
:1016D0001748FFF7B5FFF3681BB3052221462A70B0
:1016E00098472B78052B1CD0302383F311884FF0BB
:1016F000FF31114802F064FF002383F311880B4887
:1017000002F006FBBDE8704003F0F2B99B05DDD4A2
:10171000002CDDD1054802F0FBFABDE8704003F073
:10172000E7B9022200232A702B61DDE7D0530008BD
:1017300010000024002002402400002400000000CB
:101740000A4808B502F0CCFA094B0A481968426801
:1017500001F00E0159600AB180689047034802F019
:10176000D7FABDE8084003F0C3B900BF3054000801
:10177000005402584800002400000000000000004F
:101780000B4810B502F0ACFA0A4B0B481968C26856
:10179000090901F00E010C015C600AB10069904773
:1017A000034802F0B5FABDE8104003F0A1B900BF4C
:1017B000245400080054025848000024000000008F
:1017C0000B4810B502F08CFA0A4B0B4819684269B5
:1017D000090A01F00E010C025C600AB180699047B1
:1017E000034802F095FABDE8104003F081B900BF4C
:1017F000185400080054025848000024000000005B
:101800000B4810B502F06CFA0A4B0B481968C26914
:10181000090B01F00E010C035C600AB1006A9047ED
:10182000034802F075FABDE8104003F061B900BF4B
:101830000C54000800540258480000240000000026
:101840000B4810B502F04CFA0A4B0B481968426A73
:10185000090C01F00E010C045C600AB1806A90472B
:10186000034802F055FABDE8104003F041B900BF4B
:1018700000540008005402584800002400000000F2
:101880000B4810B502F02CFA0A4B0B481968C26AD3
:10189000090D01F00E010C055C600AB1006B904768
:1018A000034802F035FABDE8104003F021B900BF4B
:1018B000F4530008005402584800002400000000BF
:1018C0000B4810B502F00CFA0A4B0B481968426B32
:1018D000090E01F00E010C065C600AB1806B9047A6
:1018E000034802F015FABDE8104003F001B900BF4B
:1018F000E85300080054025848000024000000008B
:101900000B4810B502F0ECF90A4B0B481968C26B92
:10191000090F01F00E010C075C600AB1006C9047E2
:10192000034802F0F5F9BDE8104003F0E1B800BF4C
:10193000DC53000800540258480000240000000056
:101940000B4800220B4B0146026003F1A00C0A4831
:1019500001E053F8140C143302604A60634541F807
:10196000082FF6D1054B4FF0FF325A60704700BF89
:1019700048000024545400080854025800540258E7
:101980000728F8B5044606D9082815D101204FF0DC
:10199000070C002402E00120A446A040204E356838
:1019A00005420CD04FF0010E01E0054207D0013492
:1019B000A4450EFA04F0F8D200252846F8BD0543E8
:1019C000184F356006EBC40604EB8405C6E9012315
:1019D000154BA60007EB8505D3F8E00040F4001096
:1019E000C3F8E000D3F8080140F40010C3F8080180
:1019F000D3F8083112B1687CFFF7F2FB33190E22DD
:101A0000002007EB830157F823404B68097A8A408E
:101A1000196821F00F011960626018602846F8BD4E
:101A2000480000243C540008004402580000000014
:101A300010B50446407CFFF7EBFB0F49237C0120E7
:101A40000A680024984001EBC30322EA0002C3E9BC
:101A50000144D3B20A6073B9084BD3F8E02022F4F2
:101A60000012C3F8E020D3F8082122F40012C3F8D2
:101A70000821D3F8083110BD480000240044025862
:101A8000C3681960704700BF00000000000000003C
:101A90000A4808B502F024F9094B0A481968426857
:101AA00001F03D0199600AB180689047034802F057
:101AB0002FF9BDE8084003F01BB800BF30550008FF
:101AC000000002408C000024000000000000000024
:101AD0000B4810B502F004F90A4B0B481968C268AC
:101AE000890901F03D018C019C600AB100699047B1
:101AF000034802F00DF9BDE8104002F0F9BF00BF45
:101B000024550008000002408C0000240000000062
:101B10000B4810B502F0E4F80A4B0B48196842690B
:101B2000090C01F03D010C049C600AB180699047EA
:101B3000034802F0EDF8BDE8104002F0D9BF00BF45
:101B400018550008000002408C000024000000002E
:101B50000B4810B502F0C4F80A4B0B481968C2696B
:101B6000890D01F03D018C059C600AB1006A904727
:101B7000034802F0CDF8BDE8104002F0B9BF00BF45
:101B80000C550008000002408C00002400000000FA
:101B90000A4808B502F0A4F8094B0A485968426A95
:101BA00001F03D01D9600AB1806A9047034802F014
:101BB000AFF8BDE8084002F09BBF00BF0055000829
:101BC000000002408C000024000000000000000023
:101BD0000B4810B502F084F80A4B0B485968C26AEA
:101BE000890901F03D018C01DC600AB1006B90476E
:101BF000034802F08DF8BDE8104002F079BF00BF45
:101C0000F4540008000002408C0000240000000092
:101C10000B4810B502F064F80A4B0B485968426B48
:101C2000090C01F03D010C04DC600AB1806B9047A7
:101C3000034802F06DF8BDE8104002F059BF00BF44
:101C400090550008000002408C00002400000000B5
:101C50000B4810B502F044F80A4B0B485968C26BA8
:101C6000890D01F03D018C05DC600AB1006C9047E4
:101C7000034802F04DF8BDE8104002F039BF00BF44
:101C800084550008000002408C0000240000000081
:101C90000A4808B502F024F8094B0A481968426C52
:101CA00001F03D0199600AB1806C9047034802F051
:101CB0002FF8BDE8084002F01BBF00BF78550008B0
:101CC000000402408C00002400000000000000001E
:101CD0000B4810B502F004F80A4B0B481968C26CA7
:101CE000890901F03D018C019C600AB1006D9047AB
:101CF000034802F00DF8BDE8104002F0F9BE00BF45
:101D00006C550008000402408C0000240000000014
:101D10000B4810B501F0E4FF0A4B0B481968426DFF
:101D2000090C01F03D010C049C600AB1806D9047E4
:101D3000034801F0EDFFBDE8104002F0D9BE00BF3E
:101D400060550008000402408C00002400000000E0
:101D50000B4810B501F0C4FF0A4B0B481968C26D5F
:101D6000890D01F03D018C059C600AB1006E904721
:101D7000034801F0CDFFBDE8104002F0B9BE00BF3E
:101D800054550008000402408C00002400000000AC
:101D90000A4808B501F0A4FF094B0A485968426E89
:101DA00001F03D01D9600AB1806E9047034801F00F
:101DB000AFFFBDE8084002F09BBE00BF48550008D9
:101DC000000402408C00002400000000000000001D
:101DD0000B4810B501F084FF0A4B0B485968C26EDE
:101DE000890901F03D018C01DC600AB1006F904768
:101DF000034801F08DFFBDE8104002F079BE00BF3E
:101E00003C550008000402408C0000240000000043
:101E10000B4810B501F064FF0A4B0B485968426F3C
:101E2000090C01F03D010C04DC600AB1806F9047A1
:101E3000034801F06DFFBDE8104002F059BE00BF3D
:101E4000E8540008000402408C0000240000000058
:101E50000B4810B501F044FF0A4B0B485968C26F9C
:101E6000890D01F03D018C05DC6012B1D0F88000D5
:101E70009047034801F04CFFBDE8104002F038BE27
:101E8000DC540008000402408C0000240000000024
:101E900000220D4830B40D4C13460D4D226001E078
:101EA00055F8330004EB830102330260202B4A60B3
:101EB000F6D14FF0FF330749074A8B60CB60936040
:101EC000D36030BC704700BF100002408C0000247B
:101ED0009C55000800000240000402400000000081
:101EE000F8B5122820D8DFE800F00A0A0A0A0A0A20
:101EF0000A0A0A0A0A0A0A0A0A0A6F7479004FF0E3
:101F0000010C05460CFA00FC374E346814EA0C0F3D
:101F10000DD04FF0010E02E014EA0C0F07D0013093
:101F2000A8420EFA00FCF7D900252846F8BD44EA7D
:101F30000C04346006EBC0062C4CC6E901235FFAA2
:101F40008CF3060104EB001573B1294BD3F8D800CC
:101F500040F00100C3F8D800D3F8000140F00100C0
:101F6000C3F80001D3F800311CF47F4F1CD1A059F5
:101F7000036823F01F030360036813F00103FBD120
:101F800034443D26212794F80CC006FA0CF6D4F808
:101F900004C0CCF8006003604761002AC5D0A07B74
:101FA000FFF71EF92846F8BD114BD3F8D80040F0D2
:101FB0000200C3F8D800D3F8000140F00200C3F8D3
:101FC0000001D3F80031D2E74FF0010C0F250020BB
:101FD0009AE74FF0010C0725002095E74FF0800CA1
:101FE0000F25072090E700BF8C0000249C550008B7
:101FF0000044025800000000000000000000000043
:1020000010B50446807BFFF703F91649607B012277
:102010000B68824023EA0203DAB20B6072B9124AFB
:10202000D2F8D81021F00101C2F8D810D2F800116E
:1020300021F00101C2F80011D2F8002113F47F4F02
:102040000ED1094BD3F8D82022F00202C3F8D820D1
:10205000D3F8002122F00202C3F80021D3F80031A6
:1020600010BD00BF8C000024004402580000000096
:1020700083681960704700BF000000000000000086
:10208000704700BF000000000000000000000000DA
:102090002DE9F04F02F00309C2F34114C2F38006A8
:1020A000C2F3C105C2F3C317CE4600224FF00F0B97
:1020B000A04616E00368072A0AEA030343EA0E0370
:1020C00003604AD8036A23EA040343EA0C03036269
:1020D000490840D076000132AD004FEA88084FEA47
:1020E0008E0ECB07F4D501244368B9F1020F04FA30
:1020F00002F423EA04034FF0030443EA06034360B7
:102100004FEA420304FA03F3846824EA03046FEA03
:10211000030A44EA05048460C46824EA030C02F05C
:1021200007044CEA08034FEA8404C36007FA04FC7E
:102130000BFA04F4BED1072A16D8036A23EA040373
:1021400043EA0C030362036849080AEA030343EA0B
:102150000E030360BED1BDE8F08F436A23EA040397
:1021600043EA0C034362B3E7436A23EA040343EA06
:102170000C034362E7E700BF00000000000000001E
:10218000124A0023F0B5D2E924414FF0010E02F1CA
:10219000080C8E685CF8040F03F110020EFA03F1CC
:1021A0005D1C87690EFA02F227B1D4F81C783A4315
:1021B000C4F81C28426922B1D4F81C281143C4F881
:1021C0001C189E422B46E5D1F0BD00BF1001002433
:1021D00070B400224FF0FF348E6800EB421102F120
:1021E000010CD1F800590B46002D05DAD1F8005941
:1021F00045F08045C1F80059D1F8005B002D05DAA3
:10220000D1F8005B45F08045C1F8005BB242C3F8ED
:1022100008496246C3F8084BDFD14FF0011370BC88
:10222000C0F81C38704700BF00000000000000002C
:1022300010B5044C2046FEF7E3FC034A034BC4E907
:10224000242310BD1001002400000840CC560008D3
:10225000F8B52023D0F8905007462B612C6914F074
:102260002004FBD112204FF0006601F0B9FCD7F832
:1022700094C04FF001134FF0FF31DCF80800C5F8AF
:102280003448C5F81C3805EB4413844204F10104BA
:10229000C3F80069C3F8006BC3F80819C3F8081B3A
:1022A000F1D1DCF800301021D7F89020C7F8983031
:1022B0006B621161146914F01004FBD1122001F05B
:1022C0008FFCD5F80028124B22F4FE621149C5F8A4
:1022D0000028AA6913430922AB61C5F81028D7F872
:1022E0009830C5F81428F9604FF0C0410A4AC5F883
:1022F000101B03F1100143F48013C5F8002BC5F83F
:102300001049C5F80029C7F89810AB62F8BD00BFA6
:1023100010000C00A85600084080001000000000CB
:10232000D0F8902090F88A10D2F8003823F4FE6399
:1023300043EA0113C2F80038704700BF00000000F4
:102340000346D0E924010A68C3F89820FFF740BF8C
:102350005831D0F8903049015B5813F4004004D054
:1023600013F4001F0CBF0220012070470000000082
:102370004831D0F8903049015B5813F4004004D044
:1023800013F4001F0CBF0220012070470000000062
:1023900000EB8100C3681B6A19685B6811605360B9
:1023A000704700BF000000000000000000000000B7
:1023B00000EB8103DA68936910B41C68DC6009B92A
:1023C000402C25D8538A1268D0F8900002F0030CF4
:1023D0005A1E2244BCF1010FB2FBF3F202FB03F3DD
:1023E00003F1030323F0030343EAC24300EB41126A
:1023F00043F0C043C2F8103B0DD009B200EB4110CE
:1024000010BCD0F8003B43F00443C0F8003B7047D9
:1024100040241C60D6E7D0F8083800EB411209B21E
:1024200013F4807FD2F8003B14BF43F0805343F095
:102430000053C2F8003BE1E700000000000000008C
:102440002DE9F041244F0446D7F8906006EB401385
:10245000D3F8085B2807C3F8085B03D5D6F814380F
:10246000190731D4EA072DD5D6F81438DB0729D55A
:1024700007EB8403D9688A6954B9488A5368B3FB67
:10248000F0F500FB15331BB91068D36898420DD3E3
:1024900001227B89CD68A24023EA02037B818DB1B2
:1024A00021462B460C48BDE8F04118471B1A5460E2
:1024B0003021136081F3118807482146FFF778FF28
:1024C00084F31188BDE8F08107EB84032146384688
:1024D000DB685B689847C5E7100100240000000036
:1024E00000EB810310B4DC6862691368D360F3B950
:1024F000D0F890204FF4002002EB4113C3F81009EC
:10250000236803F00303012B2AD008B202EB40102A
:102510000123D0F800498B4044F00444C0F800493E
:10252000D2F8341810BC0B43C2F83438704709B9DC
:10253000402B26D8B4F810C0D0F890200CF1FF3012
:102540001844B0FBFCF043EAC04302EB411043F0F7
:102550000053C0F81039236803F00303012BD4D1D2
:10256000D2F8083808B213F4807F02EB4113D3F895
:10257000004914BF44F0805444F00054C3F80049AB
:10258000C4E740231360D5E700000000000000000E
:102590002DE9F84FDFF8049104464FEA401BD9F8C3
:1025A000906006EB4013D3F80859E907C3F80859BF
:1025B00003D5D6F81038DA070CD42B0608D54FF01F
:1025C0000108D6F8343808FA04F813EA080F18D1CD
:1025D000BDE8F88F09EB8003D9684B691868DA68A1
:1025E00090424AD30122B9F808308F68A24023EA0A
:1025F0000203A9F80830002FDFD021464846B8472B
:10260000DBE709EB8403DB685E69D6E90075AF425E
:1026100041D90134D9F890A0B3F81090E4B20AEB94
:102620000B0E0AEB0430A7EB050CDEF81839CC458D
:102630009BB228BFCC46BCEB830FC9D8B468BCF1B1
:10264000040F236803600BD9ACF10501234621F088
:1026500003010431214453F8042F99420260FAD156
:1026600065446444BD42C6E90154DCD3DAF8343829
:1026700023EA0803CAF83438AAE7121A00271A60B6
:102680005F60302383F3118821464846FFF728FF17
:1026900087F3118891E7D9F890A0E7E710010024AB
:1026A0002DE9F84FB24E4FF04009B24801F018FB47
:1026B000D6F890706EE0290500F18E80AA040CD542
:1026C000D7F8083813F0060FFB6823F470530CBFDB
:1026D00043F4105343F4A053FB602B070ED57468EA
:1026E000E368002B00F076813378052B00F07A81C7
:1026F000FFF746FDE3680BB130469847EC0273D410
:10270000A80200F1B4802B03D7F818481AD5E003CB
:1027100000F13C81A10300F13581620300F12E81BB
:10272000230300F12081E00200F11981A10200F1F0
:102730001281620200F10B81230200F10481E001A9
:1027400000F1F98069031AD5E20700F13F81A30780
:1027500000F13881600700F13181210700F12A8101
:10276000E20600F12381A30600F11C81600600F15E
:102770001581210600F10E81E20500F1E080EB06F3
:1027800000F1A2807C4B1D4200F0CE80B9F101091E
:1027900000F0CA807D69BB691D4015F480587D61D9
:1027A00040F05F81002D86DAD7F8003E980705D00B
:1027B000D7F8003E23F00303C7F8003EFFF7E0FC24
:1027C000D7F80438304623F00103C7F80438FEF781
:1027D0005FFA29057FF572AFD6E92401FFF7F8FC0F
:1027E0003046FEF73DFA69E70021D6F890B04FF089
:1027F000010A0C4608E00134D6F89430E4B29B6834
:102800009C4221463FF67CAF0BEB4412D2F80039D4
:1028100003F44023B3F5802FEDD1D2F80039002B1B
:10282000E9DAD2F8003943F09043C2F80039D2F81F
:102830000039002BFBDB8901D6F8902041F0200104
:10284000116113699906FCD4122001F0C9F933898A
:1028500006EB84020AFA04F1D26823EA01039268C3
:102860003381002AC7D0214630469047C3E7D6F8C7
:1028700090A000244FF0010B07E00134D6F894300B
:10288000E4B29B689C423FF63EAF0AEB4412D2F89A
:10289000003B03F44023B3F5802FEED1D2F8003B88
:1028A00006EB84010BFA04F2002BE6DA738930465A
:1028B000D1F80CC0214623EA0203DCF80C20738116
:1028C000002ADAD09047D8E7D6F890100B6A03F4C4
:1028D000F010C3F30A1203F00F03B0F5802F00F0DD
:1028E0008C80B0F5402F7FF44DAF06EB8303DB689F
:1028F000186A002A3FF446AF01F58054002313F014
:10290000030F014601D1D4F80080072B03F1010326
:1029100004D801F8018B4FEA182808469A42EED1F4
:10292000154B1D427FF432AF124801F0F1F9BDE8BA
:10293000F84F02F0DDB80820FFF782FD02E708201B
:10294000FFF726FE1BE70720FFF77AFDF7E60620D4
:10295000FFF776FDF0E60520FFF772FDE9E60420BB
:10296000FFF76EFDE2E60320FFF76AFDDBE600BF3E
:10297000100100249C560008300000040220FFF7DC
:102980005FFDCDE60120FFF75BFDC6E60020FFF707
:1029900057FDBFE60720FFF7FBFDEDE60620FFF73A
:1029A000F7FDE6E60520FFF7F3FDDFE60420FFF77D
:1029B000EFFDD8E60320FFF7EBFDD1E60220FFF79D
:1029C000E7FDCAE60120FFF7E3FDC3E60020FFF7BD
:1029D000DFFDBCE6BB6923F00803BB613378052B40
:1029E0007FF486AED7F8003E304623F00303C7F8E5
:1029F000003EFEF74DF974687AE6981C06EB8003FA
:102A00005B68D3F818C0DCE90043A4EB030EDCF8E4
:102A10000840D2B101F5805C002313F0030F21467A
:102A200001D1DCF800809E4503F1010304D901F8CF
:102A3000018B4FEA18280C469A42EED106EB800330
:102A40005B68D3F818C0DCE90134724504D2144441
:102A50001A44CCE9012495E674447344CCE901346A
:102A600090E60548FEF7DCF8044801F051F9BDE8AE
:102A7000F84F02F03DB800BF100100249C5600083A
:102A8000D0F8903003EB4111D1F8003B43F4001330
:102A9000C1F8003B704700BF0000000000000000CC
:102AA000D0F8903003EB4111D1F8003943F4001312
:102AB000C1F80039704700BF0000000000000000AE
:102AC000D0F8903003EB4111D1F8003B23F4001310
:102AD000C1F8003B704700BF00000000000000008C
:102AE000D0F8903003EB4111D1F8003923F40013F2
:102AF000C1F80039704700BF00000000000000006E
:102B00000022124B0A604A60426910B4134040240C
:102B100042780C6143F440434FF0FF348C618B608A
:102B200042B1836910BC23F4C023CB6040F201138F
:102B30000B6070478269064B10BC134043F0015391
:102B4000CB6040F201130B60704700BF1F3EFFFFD8
:102B5000FFFFB9DF000000000000000000000000DF
:102B600090F8203010B4002B34D0836AD3E90041B0
:102B70000A6822F00F020A60197A0E23426A03FAE9
:102B800001F161605468216821F00F012160117A20
:102B900012688B405360474B98423AD0464B98425C
:102BA0004BD0464B98425CD0454B98426DD0454B3C
:102BB000984251D1444BD3F89C2042F02002C3F8F4
:102BC0009C20D3F89C2022F02002C3F89C20D3F84C
:102BD0009C3041E0846A2268136823F01F0313606D
:102BE0001368D907FCD4227B3D23416A9340646873
:102BF0000A682360136823F01F0313601368DB0760
:102C0000FCD40C7B3D234A68A3401360294B9842B7
:102C1000C4D12D4BC169D3F89820406842F480524A
:102C200010BCC3F89820D3F8982022F48052C3F83F
:102C30009820D3F89830FFF763BF234BD3F8902048
:102C400042F48042C3F89020D3F8902022F48042CE
:102C5000C3F89020D3F89030C16910BC4068FFF7EA
:102C60004FBF194BC169D3F89020406842F400422D
:102C700010BCC3F89020D3F8902022F40042C3F88F
:102C80009020D3F89030FFF73BBF0F4BC169D3F8CA
:102C90009820406842F4801210BCC3F89820D3F802
:102CA000982022F48012C3F89820D3F89830FFF7C8
:102CB00027BF00BFC4010024000200243C020024FE
:102CC00078020024B40200240044025800000000EE
:102CD00043685B7810B5002B50D190F82030014646
:102CE000DBB1836AD3E90040026822F00F02026080
:102CF0000E22187ACB69824062605A6912F4604FE2
:102D0000FBD1496AD1E90040026822F00F0202605B
:102D10000E22097A8A40626024E0806A02681368A1
:102D200023F01F0313601368DB07FCD490F80CC07A
:102D30003D22406802FA0CF2CB6902605A6912F433
:102D4000604FFBD1486A01680A6822F01F020A60DE
:102D50000A68D407FCD490F80CC03D22416802FAFE
:102D60000CF20A601A6842F480621A601A689205CE
:102D7000FCD44FF0FF3200209A6110BDFFF7F0FE47
:102D8000002010BD00000000000000000000000056
:102D900010B504460B4800F00BFF2046FFF7E0FE9D
:102DA00063689B680BB120469847302383F31188F2
:102DB0006FF0120104F1080001F002FC002383F31C
:102DC000118810BDD8560008000000000000000067
:102DD0000B0700D47047FFF7DBBF00BF0000000007
:102DE00011F00C0F00D17047FFF7D2BF00000000B8
:102DF00011F00C0F70B50D4604462DD1666833787E
:102E000093B1EA0603D573686BB120469847AB06C9
:102E100009D563685B6833B1042220462270984765
:102E20002378042B30D070BD2046FFF751FF736824
:102E30006BB304222046227098472378042B26D0B7
:102E4000302383F31188002104F1080001F0B8FB5E
:102E5000002383F3118870BD0E4800F0A9FE2046C0
:102E6000FFF77EFE63689B680BB1204698473023CE
:102E700083F311886FF0120104F1080001F0A0FB48
:102E8000002383F31188B9E70323237070BD022365
:102E90002370D5E7D85600080000000000000000AD
:102EA00070B50D46090704462DD46668337893B192
:102EB0006A0703D573686BB120469847AB0709D5FD
:102EC00063685B6833B104222046227098472378F8
:102ED000042B30D070BD2046FFF7FAFE73686BB349
:102EE00004222046227098472378042B26D03023D2
:102EF00083F31188002104F1080001F061FB002335
:102F000083F3118870BD0F4800F052FE2046FFF792
:102F100027FE63689B680BB120469847302383F3F4
:102F200011886FF0120104F1080001F049FB002341
:102F300083F31188B9E70323237070BD0223237044
:102F4000D5E700BFD85600080000000000000000D0
:102F500010B5164C164800F0C3FEE26953691169BA
:102F60000B4093615B0606D4114800F0D1FEBDE82A
:102F7000104001F0BDBD2046FFF7F2FD63689B687D
:102F80000BB120469847302383F311886FF012016C
:102F9000084801F015FB002383F31188044800F072
:102FA000B7FEBDE8104001F0A3BD00BFC40100247E
:102FB00014570008CC0100240000000000000000AD
:102FC00010B5164C164800F08BFEE2695369116982
:102FD0000B4093615B0606D4114800F099FEBDE8F2
:102FE000104001F085BD2046FFF7BAFD63689B687D
:102FF0000BB120469847302383F311886FF01201FC
:10300000084801F0DDFA002383F31188044800F03A
:103010007FFEBDE8104001F06BBD00BF0002002440
:10302000085700080802002400000000000000000B
:1030300010B5164C164800F053FEE2695369116949
:103040000B4093615B0606D4114800F061FEBDE8B9
:10305000104001F04DBD2046FFF782FD63689B687C
:103060000BB120469847302383F311886FF012018B
:10307000084801F0A5FA002383F31188044800F002
:1030800047FEBDE8104001F033BD00BF3C02002404
:10309000FC5600084402002400000000000000006C
:1030A00010B5164C164800F01BFEE2695369116911
:1030B0000B4093615B0606D4114800F029FEBDE881
:1030C000104001F015BD2046FFF74AFD63689B687C
:1030D0000BB120469847302383F311886FF012011B
:1030E000084801F06DFA002383F31188044800F0CA
:1030F0000FFEBDE8104001F0FBBC00BF78020024C9
:10310000F0560008800200240000000000000000CB
:1031100010B5164C164800F0E3FDE26953691169D9
:103120000B4093615B0606D4114800F0F1FDBDE849
:10313000104001F0DDBC2046FFF712FD63689B687C
:103140000BB120469847302383F311886FF01201AA
:10315000084801F035FA002383F31188044800F091
:10316000D7FDBDE8104001F0C3BC00BFB40200248D
:10317000E4560008BC02002400000000000000002B
:103180002DE9F0412D4D0024DFF8B48028462D4F65
:10319000FDF706FD2C4B85F820400A21EB6123202A
:1031A0006C622F63294EC5E90A48294DFEF718F8CD
:1031B0002846FDF7F5FC274B85F820400A21EB61F6
:1031C00024206C622F63C5E90A48234DFEF708F8F6
:1031D0002846FDF7E5FC214B0A213320EB6185F8F9
:1031E00020406C622F63C5E90A48FDF7F9FF3046BD
:1031F000FDF7D6FC1A4D1B4B0A21552086F82040BE
:10320000F36174623763C6E90A48FDF7E9FF2846AF
:10321000FDF7C6FC0123144941F20A0285F820306B
:1032200041F21803E96156206C620A212B63C5E95B
:103230000A42BDE8F041FDF7D3BF00BFC40100243E
:103240001600010046000100003001407802002411
:1032500000020024003800403C020024003C0040F2
:10326000B402002400500140001400580000000087
:1032700010B503784FF0FF320446012B826320D053
:10328000406894F82020436903F01F030133002AAB
:1032900077D1082BE26A00F29980236B22F4F04286
:1032A00023F4F0430178002900F08B8042F484720B
:1032B00043F48473E169C4E90B23FFF721FC002088
:1032C00010BDC94B984200F0A280C84B984200F054
:1032D0001281C74B984200F0D480C64B984200F050
:1032E0004281C54B984240F075810346C34A0A218A
:1032F0000820FEF745FB6062002800F0718123463C
:10330000BF4A0A210820FEF73BFBA062002800F01C
:1033100064810B21606AFEF7B3FB0C21A06AFEF703
:10332000AFFBB84BD3F8F42042F02002C3F8F420EE
:10333000D3F81C2142F02002C3F81C21D3F81C2131
:10334000D3F89C2042F02002C3F89C20D3F89C20A4
:1033500022F02002C3F89C20D3F89C30E26994F854
:10336000203002F1300160682032002B44D0636AC3
:103370005B6899604369A16A03F01F0349680133E0
:103380008A60082BE26A10D8236B22F4706223F45F
:103390007063017821B142F0240243F0240389E7ED
:1033A00022F0240223F0240384E7102B236B22F461
:1033B000706223F470631AD842F4A06243F4A063ED
:1033C000E7E722F4847223F4847373E7102B236BF2
:1033D00022F4F04223F4F04304D842F4205243F4A0
:1033E00020535FE742F4A04243F4A0435AE742F47B
:1033F000206243F42063CCE7636A1B689960A16A8A
:103400004369096803F01F038A60013341E70346FB
:103410007D4A0A211020FEF763FD6062002800F05B
:10342000DF802346794A0A211020FEF759FDA06269
:10343000002800F0ED802521606AFEF719FE2621A4
:10344000A06AFEF715FE6F4BD3F8F02042F48052CD
:10345000C3F8F020D3F8182142F48052C3F81821A1
:10346000D3F81821D3F8982042F48052C3F898205A
:10347000D3F8982022F48052C3F89820D3F89830DB
:103480006CE70346604A0A211020FEF729FD6062BE
:10349000002800F0A58023465C4A0A211020FEF790
:1034A0001FFDA062002800F0B3803D21606AFEF796
:1034B000DFFD3E21A06AFEF7DBFD524BD3F8E8208A
:1034C00042F40042C3F8E820D3F8102142F400424D
:1034D000C3F81021D3F81021D3F8902042F4004211
:1034E000C3F89020D3F8902022F40042C3F8902033
:1034F000D3F8903032E70346434A0A211020FEF702
:10350000EFFC606200286BD02346404A0A2110205D
:10351000FEF7E6FCA06200287AD02721606AFEF759
:10352000A7FD2821A06AFEF7A3FD364BD3F8E820BB
:1035300042F48042C3F8E820D3F8102142F48042DC
:10354000C3F81021D3F81021D3F8902042F4804220
:10355000C3F89020D3F8902022F48042C3F8902042
:10356000D3F89030FAE60346274A0A211020FEF7E6
:10357000B7FC6062A0B32346244A0A211020FEF75C
:10358000AFFCA062002843D05521606AFEF770FDB1
:103590005621A06AFEF76CFD1A4BD3F8F02042F4D6
:1035A0008012C3F8F020D3F8182142F48012C3F837
:1035B0001821D3F81821D3F8982042F48012C3F8C8
:1035C0009820D3F8982022F48012C3F89820D3F8DA
:1035D0009830C3E66FF0140010BD606AFEF728FA59
:1035E0006FF0100010BD00BFC401002400020024D1
:1035F0003C02002478020024B4020024A12E00081A
:10360000D12D000800440258F12D0008E12D0008DA
:10361000606AFEF7F5FC6FF0100010BD00000000BE
:10362000C36910B49A68446802F01F0C64780CF106
:10363000010C1CB91A6842F400721A605A699207A8
:10364000FCD5BCF1080F18D8C9B283F82010C269A4
:103650005169CC07FCD5416893F830304C78D8B22A
:1036600034B9136843F48063136013689B05FCD47A
:103670004FF0FF3310BC93617047BCF1100F08D8B6
:1036800089B219845A69D107FCD5188E1A4680B2BE
:10369000E6E719625A69D207FCD5186B1A46DFE7CC
:1036A000124A4FF080430021D2F8E80040F00100B8
:1036B00030B4C2F8E80044F61F65D2F810010C4C93
:1036C00040F00100C2F810010120D2F81021E26B95
:1036D0000243E2634FF0FF329D62DA6299615963FF
:1036E000D96059605861186030BC70470044025876
:1036F0000010005C0000000000000000000000005E
:103700004FF0804208B51169D3680B40D9B29B07CE
:103710006FEA0101116100D408BD302383F31188E1
:1037200000F056FA002383F3118808BD0000000062
:10373000024A136843F0C003136070470010014051
:10374000024A136843F0C003136070470050004002
:1037500070B5194D82B0194C2846194EFDF7E8F99D
:1037600005F10C000023102216490095FDF738F8EA
:103770001022154905F13000144B0095FDF7C8F8EB
:10378000134B2046C5E91536FDF7D2F904F10C00BC
:10379000002310220F490094FDF722F80E4B10224F
:1037A0000E4904F130000094FDF7B2F80C4BC4E967
:1037B000153602B070BD00BFF00200245003002493
:1037C00000E1F505B0030024D003002431370008E0
:1037D00000100140C003002441370008E00300242A
:1037E0000050004000000000000000000000000049
:1037F0002DE9F047456D0646EC6922072C6256D14B
:10380000E20548D4A00610D54FF03008002788F311
:1038100011886B6A304696F85C101940FDF798F9EC
:1038200087F31188EC69A306F1D4D5F800A01AF04B
:10383000800F1DD021061BD506F1300830274FF030
:10384000000905E0A86289F31188EC6922060FD50A
:1038500087F311884046FDF79BF80028F2DA08212B
:10386000301D00F0DDFF2AF0800A002383F3118869
:103870001AF0400F0BD0630609D5302383F311886B
:10388000D6E911239A422DD0002383F31188C5F87D
:1038900000A0BDE8F087302383F311884FF48061E6
:1038A000301D00F0BDFF002383F31188AAE7C4F3A5
:1038B000C001E3074FF030034FEA012148BF41F058
:1038C0002001A70748BF41F04001600748BF41F011
:1038D000800183F31188301D00F0A2FF002383F3E1
:1038E00011888DE7B36B002BCED01021301D2AF04C
:1038F000400A00F095FFC7E700000000000000004C
:103900006C4A40F2FF700023D2F88810014330B4B3
:10391000C2F88810684CD2F88810684D0C4068498D
:10392000C2F88840D2F88840D2F8E0400443C2F898
:10393000E040D2F8084104436248C2F808418024BC
:10394000D2F808214FF4C0424B608D60CB604A61D1
:103950000A225D4D0A625D4A4A625D4A0A605D4A1A
:10396000436082605C4AC360446102625B4A4262B7
:103970005B4A02605B48C1F80438C1F808084FF49C
:103980008030594AC1F80C084FF40060C1F814089F
:103990004FF00610C1F82038C1F824085348C1F888
:1039A000000840205249536091601021D160514974
:1039B00050611162504951625049116002F58062B4
:1039C0004F49536091600421D36051614D491162A8
:1039D0004FF0CC31516201F15E41A1F50811A1F621
:1039E000F24111604849C2F80434C2F80814C2F820
:1039F0000C34C2F814044548C2F820546FF4D5754D
:103A0000C2F82404A0F109504149A0F50930284426
:103A100044F6F045C2F8000402F540623D484B60B0
:103A200088604FF48060CB6048613B4808623B4847
:103A30004862A0F1D550A0F5D410A0F272500860F1
:103A400053609560D3605461354C36481462364DEE
:103A5000364C536214604FF0FF3443608560A5F12B
:103A6000AB45C360A5F5DD154361A5F67C75056220
:103A70002F4D43620560C1F8043CC1F8083CC1F811
:103A80000C3CC1F8143CC1F8203CC1F8243CC1F8FE
:103A9000004CC2F8043CC2F8083CC2F80C3CC2F826
:103AA000143CC2F8203CC2F8243CC2F8004C30BCA4
:103AB000FDF796BC0044025800F8FFFF1714FD3FC5
:103AC0000000025800040258CCCCCC5070A70A0069
:103AD000D6D7A8EAC04F00FF00606600000088CC7F
:103AE000BF7AFFAA00004307000C0258FFFF7EF2D6
:103AF0003FD07FF0CC060050CC0C00CCEA9F6AAFE0
:103B00001FC0FFFFCC0000C0FFDFDFFF55C0CCCCE3
:103B1000001802583F1FDFFFCC0CCC005C5055C58D
:103B200000CCC00000200258CCFF4500AF7BFFFF57
:103B3000BBAA71FF000000000000000000000000B0
:103B4000704700BF000000000000000000000000FF
:103B500030B587B0114D00230122684604242A7035
:103B6000C5E9013300F064FD684600F071FD684668
:103B700000F076FD013CF7D1009BAB6000F080FEC9
:103B800000F0C6FE00F044FF0549064800F098FB2F
:103B900002232B7084F3118807B030BDB00D0024D0
:103BA00024570008F003002400000000000000007B
:103BB00008B5044672B600F0C3F80349034B03226C
:103BC000C1F884401A70FEE7F0030024B00D002411
:103BD00000F0A6B900000000000000000000000096
:103BE000034A516853685B1A9842FBD8704700BF7C
:103BF000001000E0000000000000000000000000D5
:103C0000024A536B03435363704700BFF003002421
:103C100038B50C4CD4F88C50FCF75AFDD4F88C30E5
:103C200004F50961084A686050681A6860F31F2249
:103C300043F8102B04F190028B4228BF1346C4F8BE
:103C40008C3038BDF0030024001000E000000000BC
:103C500002460749002342F8081B426000EB0312AA
:103C60000133117A802B6FF302011172F6D1704784
:103C7000FFFF8000000000000000000000000000C6
:103C8000094BB3F88820D20700D5704790F824205C
:103C900010B4D3F88C40D30043F00103C4E902010F
:103CA000237010BCFFF7B4BFF00300240000000035
:103CB0000A4BB3F88820920700D5704710B491F8EA
:103CC0002420D3F88C40D300896A43F00203C4E96E
:103CD0000201237010BCFFF79BBF00BFF00300245C
:103CE0000A4AB2F8883010B513F0040400D010BDB1
:103CF000302383F311880321D2F88C301970986037
:103D0000FFF786FF84F3118810BD00BFF003002485
:103D10000A4AB2F8883010B513F0040400D010BD80
:103D2000302383F311880421D2F88C301970986005
:103D3000FFF76EFF84F3118810BD00BFF00300246D
:103D4000064BB3F88820120700D57047D3F88C30A3
:103D5000052298601A70FFF75BBF00BFF0030024D4
:103D6000F8B51446144D03460E4605F11002022C18
:103D7000E9614FF00207846038BF022442602A697B
:103D80000260506008192B61FCF7AAFCFCF7A0FC4C
:103D9000821B0346A24207D2022F00D8F8BD0120A1
:103DA000BDE8F840FFF72CBF7C1C301927461E46A3
:103DB000FCF7A6FCEAE700BFF003002400000000C7
:103DC0002DE9F843DFF89C9007460E46FCF780FC8F
:103DD0004B46804653F8105F9D4237D0D9F81C40BF
:103DE000AB68041B341928BF3446A34215D89C4243
:103DF00004D92D68E41AAB68A342FAD36B684FF07C
:103E0000FF32BC60C7E900531F60AB686F601B1BCB
:103E1000AB60C9F81820BDE8F883022E4FF0020508
:103E200038BF022608EB0600FCF76AFCFCF750FCE2
:103E3000A0EB0808464510D9022D03D8D9F8105038
:103E4000AB68D4E70120FFF7DBFEF7E73246014617
:103E50003846BDE8F843FFF783BF013580462E465C
:103E6000E0E700BFF00300240000000000000000B5
:103E700003610023C2604361FFF7A2BF000000009E
:103E800070B5234C236998420DD00368D0E9012115
:103E900013605A609A680A4400219A604FF0FF3319
:103EA0000160A36170BD02682346002143F8102F12
:103EB0005360016022699A4221D0936881680B4463
:103EC0009360FCF705FCE56923690446421B9B6887
:103ED0009342E7D91D4402262D1AB54238BF354614
:103EE0006019FCF70DFCFCF7F3FB041BA5420AD993
:103EF000022ED7D90120BDE87040FFF781BEBDE892
:103F00007040FCF7F5BB013604463546E8E700BFD4
:103F1000F00300240000000000000000000000008A
:103F20002DE9F84F3C4E00274FF0300906F11008FC
:103F300009E087F31188D4E903312046984789F3D3
:103F400011886369ABB93469FCF7C2FBF3690546B4
:103F5000A268C11A8A422CD89D18D4E90010F561D4
:103F600001604860276033694345E2D1FCF7C0FB3C
:103F7000DFE7FCF7ADFB6369A0EB050B82465B4511
:103F80002FD3316941453DD08A68934204D90968ED
:103F90009B1A8A689A42FAD34A68A360C4E900125D
:103FA00014608A684C60D21A4FF0FF338A60B361A4
:103FB000C9E73169414512D013440227F0611B1A49
:103FC000BB421E46A36038BF3E46A819FCF798FBCB
:103FD000FCF77EFB451BAE4210D9022F09D8BDE885
:103FE000F88F0220FFF70CFE3169414512D05B4685
:103FF000CAE70120BDE8F84FFFF702BE01370546CA
:104000003E46E2E72B441A1A51462046BDE8F84FD7
:10401000FFF7A6BE0022F7E7F0030024000000002F
:1040200010B530230C4683F3118891F824300C2B03
:1040300010D8DFE803F02B0F0F270B070F0B0F0F24
:104040000F0F0B008A6A936801339360D4E9003242
:1040500013605A604FF0FF312046A162FFF710FE57
:104060000022A369A16884F824201B689A688A4208
:10407000FBD25A6800212360626014605C6081F3A7
:10408000118810BD8B6A00221A60E3E7002383F3D6
:10409000118810BD000000000000000000000000BA
:1040A00010B50446816AFFF7EBFD0022A369A16801
:1040B00084F824201B689A688A42FBD25A682046FA
:1040C0002360626014605C6010BD00BF00000000EF
:1040D00038B50B4B01211C68DD6885F824002046AB
:1040E000226853601A6084F824102946DC60FFF7C8
:1040F000DFFD29462046BDE83840FCF761B900BF26
:10410000F003002400000000000000000000000098
:10411000F0B54B1C1C4C87B00546E6681FD03346F3
:104120001A4A6846FFF7A4FEE768012287F8245080
:10413000394625682B6828465C6085F82420236072
:10414000E560FFF7B5FD39462846FCF739F9009BD5
:1041500013B16846FFF794FEB06A07B0F0BD276858
:10416000012286F8240031463B6838465C6087F8B7
:1041700024202360E760FFF79BFD38463146FCF7BB
:104180001FF9B06A07B0F0BDF00300242140000819
:1041900070B51C4E05468268F4688162A3689A4235
:1041A0001FD9A16A2046FFF76BFD0022A369A16811
:1041B00084F824201B689A688A42FBD85A682146F2
:1041C0002846C4E90032146001225C6085F824208E
:1041D000F560FFF76DFD21462846BDE87040FCF70D
:1041E000EFB8FFF74DFD0022AB69A96885F82420E0
:1041F0001B689A688A42FBD25A68C5E9003215608A
:104200005D6070BDF00300240000000000000000AD
:10421000044B1A68DB6890689B68984294BF002042
:1042200001207047F003002400000000000000009F
:1042300038B5134B01211D68DC682A68204653609D
:104240001A6085F82410A16ADD60FFF719FD0022CD
:10425000A369A16884F824201B689A688A42FBD865
:104260005A68214623602846626014605C60FFF74C
:104270001FFD21462846BDE83840FCF7A1B800BF25
:10428000F003002400000000000000000000000017
:10429000044B1A68DB6892689B689A4201D9FFF761
:1042A000C7BF7047F00300240000000000000000BA
:1042B000FEE700BF0000000000000000000000005A
:1042C00070B5214B0025044686B081630E46056318
:1042D000586000F0DDFB04F1100304F12802A56032
:1042E0006563C4E904334FF0FF33C4E90A22C4E92B
:1042F0000635C4E90044FCF7EBF92B46024604F10D
:104300008800C4E90823C4F88450FFF7A1FC04F135
:104310003C0180230D4A204600F022F8012203468A
:10432000716803926846E36083F82420084A1962A2
:104330000092084B05950493D6E90312CDE90112CA
:1043400000F076F806B070BDB00D002448570008A4
:1043500038570008B14200080000000000000000CB
:1043600010B400248B60CA6101F110028C63886173
:10437000C1E90F43022401238C8400F1280481F851
:104380002630C36AC1E904431A6001F12C0401F12B
:104390003003C26208464B63C1E90B4310BC70474F
:1043A00070B5D0E90234456800211D4A4FF0020E75
:1043B00043F8285C4FF0010C05691A4E43F86C5C19
:1043C000456943F84C6C43F8685C0568A3F1380014
:1043D00003F8231C03F824EC03F822CC43F8404CE8
:1043E00043F8084CD46A43F82C5CA3F16C0543F8FD
:1043F000344C43F83C5C02F1280543F8302C43F878
:10440000385C43E904112060A3F11801A3F11C04F6
:10441000D062A3F1480043F8141C43E9074170BD82
:10442000F0030024D1030008000000000000000099
:1044300008B5FFF7B5FFBDE80840FFF731BE00BF84
:1044400038B5302484F311884839002544181849B8
:10445000A2602264A4F1240244F8041CE260012258
:10446000049984F8262044F8243C44F8201C0221B6
:10447000104B114AA18404F11001206203F12800BD
:10448000E261DA6A206104F12C006261A361E563F4
:10449000A563116004F13002D9622946E06220462A
:1044A000C4E90C22FFF774FE85F31188204638BD5D
:1044B000D1030008F003002440570008000000006A
:1044C00038B5302383F31188124BDC6804F12C05D6
:1044D000E36AA0629D4207D194F8263083B10F2091
:1044E000BDE83840FFF7F4BD1A681846E262FFF7EE
:1044F000D7FDE36AAB42F7D194F82630002BEED11A
:1045000094F825309B07EAD1D4E9043213605A604D
:10451000E5E700BFF00300240000000000000000F9
:1045200038B51E4B30220446DB6882F3118890F8C0
:1045300024200F2A05D0C26A09201A60E362FFF71F
:10454000C7FDA56A002282F31188302383F3118806
:1045500094F82630013B84F82630636A03F0FF1399
:104560000F2B03D082F31188284638BDD4E90431DB
:104570000B60596082F3118894F8253003F003032F
:10458000012B06D0022BEFD1216A606C00F028FAD3
:10459000EAE7206A00F0CCF9E6E700BFF003002468
:1045A00008B50146302383F311880820FFF7B0FDDA
:1045B000002383F3118808BD000000000000000004
:1045C0000346006820B100221A608162FFF768BDCF
:1045D000704700BF00000000000000000000000065
:1045E000084AD26851B1034610B4446810600420F0
:1045F0005460226010BC5A60FFF78ABD4FF0FF3054
:10460000704700BFF003002400000000000000001D
:1046100003460068834205D002681A6053608162D5
:10462000FFF73EBD704700BF000000000000000023
:1046300030B40023002400254FF0FF32C0E90445C8
:10464000C0E9002330BCC0E902337047000000001D
:10465000014B5B6883607047001000E000000000C1
:104660000E4A0F4B81685B6810B4946802691B1B8B
:10467000C4685B1A41690134D218026141F100013A
:10468000426841619342026888BF43609342C0E937
:10469000023438BF036010BC704700BFB00D002467
:1046A000001000E00000000000000000000000001A
:1046B0000023C0E900008360704700BF00000000D5
:1046C00070B52F4B04468068DD6830B3AA688368F4
:1046D000934207D290F824308260062B36D0072B05
:1046E00020D09BB1234603E09968AA68914202D387
:1046F0001B689C42F8D15A6806202B606A601560DE
:104700005D60AC62BDE87040FFF7E2BCD0E900320A
:1047100013605A60FFF7C4FCE4E7EB6BC4E9025393
:10472000EC6370BD866AD0E9003213605A6033468C
:1047300003E099688268914202D31B689E42F8D1D7
:104740005A68C0E9003210605860CBE7866AD0E949
:10475000003213605A60334603E0996882689142E0
:1047600002D31B689E42F8D15A6803604260106011
:104770005860B068AA6883689342ABD3B2E700BFC1
:10478000F003002400000000000000000000000012
:1047900008B5302383F31188FFF792FF002383F3DA
:1047A000118808BD000000000000000000000000AB
:1047B000174A302310B5D46883F311880268C368A0
:1047C0008242E3631DD00146206C4BB11A689342CC
:1047D00003D09268904238BF1046DB68002BF5D1B9
:1047E000A0600868C26B03680B605960C1E90202EF
:1047F000C163FFF755FCFFF74BFD002383F31188DE
:1048000010BD00239360002383F3118810BD00BF07
:10481000F003002400000000000000000000000081
:10482000F8B50468A04221D007460D46002604E0F2
:104830000B2A1CD02468A74218D0E3682B43E360FE
:1048400015B123691D42F5D0D4E90103816B90F8BD
:1048500024200B430A2A8363EAD1826A1342E9D0F7
:104860008662FFF71DFC2468A742E6D1F8BD826A84
:104870009A43DFD1F4E700BF000000000000000011
:10488000024B0349034AC3E900127047BC0D0024E0
:10489000A81500240000082400000000000000000B
:1048A000084B494210B45C68201A08401968821A03
:1048B0008A4204D3A24202D810BC5A60704700203A
:1048C00010BC7047BC0D0024000000000000000078
:1048D000302310B483F311880B4B49425C68201AD3
:1048E00008401968821A8A4207D3944205D35A6055
:1048F000002383F3118810BC70470020002383F34A
:10490000118810BC704700BFBC0D002400000000DF
:10491000044B0022044903F10C009A60C3E9001221
:10492000FFF7C6BEC40D0024D148000800000000F7
:10493000F8B550E90273A0F10804064607333D1D9F
:104940000C37DB0840F8043C3846FFF721FF2B46C4
:10495000A3421A6805D39D4203D01346A3421A68A6
:10496000F9D20AB19442F8D246F8082C56F8042C31
:104970001C60013256F8081C04EBC20081420AD0C8
:1049800059684A1C03EBC202944211D03846BDE874
:10499000F840FFF70DBF486810440A6846F8040C59
:1049A000596846F8082C4A1C03EBC2029442EDD128
:1049B00056E902020132186038460A445A60BDE8DE
:1049C000F840FFF7F5BE00BF000000000000000047
:1049D00010B40024C0E90223C0E9004110BC7047B4
:1049E000302383F31188026800230A60016083F397
:1049F0001188704700000000000000000000000067
:104A00000022FFF74DBF00BF0000000000000000C3
:104A100038B5124C124D2046FFF74AFE04F1100142
:104A20002B460422216114216018FFF7D1FF04F105
:104A3000240004F128012B460422C4E909011C21A9
:104A400004F12C00FFF7C4FF04F13C0104F1400223
:104A500004F14403C4E90F12636438BDE00D00247F
:104A6000014A0008000000000000000000000000F3
:104A7000EFF30983203383F30988002383F311883C
:104A8000704700BF000000000000000000000000B0
:104A90004FF0300C00B58CF3118862B60E4B4FF618
:104AA000FF0E0E49D8680E4A00EA0E0001430D4879
:104AB000D960D3F8FC1041F08071C3F8FC10C2F843
:104AC000B00F2020116841F001011160D87783F800
:104AD00022C05DF804FB00BF00ED00E00003FA0512
:104AE000001000E055CEACC5000000000000000042
:104AF000302383F311880D4B5B6813F4006302D1FC
:104B000083F31188704710B5EFF309844FF0807379
:104B1000203CE36184F30988FFF77AFB10B1044B72
:104B2000A36110BD034BA36110BD00BF00ED00E009
:104B3000E3030008E6030008000000000000000096
:104B40002DE9F84F3A4FFBF7A3FDDFF8E880FEF7B9
:104B5000FFFF07F17F0500F0C3FA6FF01F04D8F8DC
:104B60000010A5F18000002381EA413181EA514122
:104B700081EA411101F07F02403A42F3C40213443A
:104B80005BB2A342B8BF2346202BA8BF202300F866
:104B9000013F8542E8D1C7F10106DFF89CB0C8F8B3
:104BA000001000F0EDF900215A46244C084600F0B0
:104BB00077FA06EB040914F901AF0122CAF11F01CB
:104BC000484600F0C5F80122CAF12001484600F02D
:104BD000BFF80122CAF12101484600F0B9F8AC4201
:104BE000E7D117497F22481E00F0B2FAD8F800201A
:104BF00097F97E406FF01F0182EA42324FF4A570B0
:104C000082EA524282EA421202F07F03C8F8002090
:104C1000403B43F3C40323445BB28B42B8BF0B4613
:104C2000202BA8BF202387F87F30FFF7B9FCB8E717
:104C3000280E00240000002474570008270E0024CA
:104C4000290E002400000000000000000000000009
:104C50002DE9F84F244D0027DFF890B0244E254B66
:104C60001B78FB40DB0734D504244FF40069DFF8E0
:104C7000888007F1B0013046A5F1800AA8F81A90A3
:104C8000ABF81A40FEF7CCFCABF818400021A8F8AE
:104C90001A903046ABF81A40FEF7C2FCABF8184049
:104CA0001021A8F81A903046ABF81A40FEF7B8FC6D
:104CB000A046114BABF81840A3F81890ABF81A8037
:104CC00030461AF8011FFEF7ABFCABF81840AA45B6
:104CD000F4D101378035082FC1D10023074A054997
:104CE00013700B70BDE8F88F270F002400100258D6
:104CF00078020024AC120024000C0258AD120024EB
:104D000038B50D4C0D49E36893F82520D961520759
:104D10000DD40B4D2B780BB1FFF79AFF4FF4A57014
:104D2000FFF73EFCE36893F825305B07F2D50020DF
:104D3000BDE83840FFF7C4BBF003002480570008EB
:104D4000AD12002400000000000000000000000080
:104D50007F2821D83F291FD84FEAE10C012301F019
:104D6000070100EBCC108B400D4900B5DBB211F808
:104D700000E092B143EA0E039E450B540AD0012293
:104D8000084B0948197802FA0CFC02704CEA010C35
:104D900083F800C05DF804FB70472EEA0303EBE7DD
:104DA000A80E0024AC120024AD1200240000000064
:104DB0002DE9F843654C0122654E04212046DFF8B9
:104DC0009481FDF765F901224FF400613046FDF74B
:104DD0005FF9402104254FF40067894601224046CF
:104DE000FDF756F9258340F29A2280214046378309
:104DF000A8F81890FDF74CF940F29A224FF4807110
:104E00004046FDF745F940F29A224FF400714046C2
:104E1000FDF73EF950495148FBF7D2FE4FF4FA70C6
:104E2000A8F81A90FFF7BCFB4FF4FA70A8F8189096
:104E3000FFF7B6FBAE21778348486583FEF7F0FBAA
:104E40002583D521778345486583FEF7E9FB2583D4
:104E50008021778341486583FEF7E2FB2583A82103
:104E600077833E486583FEF7DBFB25833F2177830D
:104E70003A486583FEF7D4FB2583D32177833748EF
:104E80006583FEF7CDFB2583002177833348658357
:104E9000FEF7C6FB25834946778330486583FEF7D6
:104EA000BFFB25838D2177832C486583FEF7B8FBF4
:104EB00025831421778329486583FEF7B1FB258379
:104EC0002021778325486583FEF7AAFB25830021EF
:104ED000778322486583FEF7A3FB2583A12177838F
:104EE0001E486583FEF79CFB2583C82177831B48FA
:104EF0006583FEF795FB2583DA2177831748658361
:104F0000FEF78EFB25831221778314486583FEF715
:104F100087FB2583AF21778310486583FEF780FBED
:104F20004FF4806200210E48258300F08DF90D4B6F
:104F300001200D4AFF2118701B7811700BB1FFF78B
:104F400087FE0A4B0A4A1A60BDE8F883001002582F
:104F5000000C0258001402588857000878020024F8
:104F6000A80E0024AD120024AC120024A8120024C4
:104F7000BC57000800000000000000000000000016
:104F80004FF480620021054808B500F05DF904493E
:104F90000120044BFF2208701A7008BDA80E0024DF
:104FA000AD120024AC12002400000000000000003C
:104FB000374B2DE9F04F0F4683B019680190002957
:104FC0005DD08B7993425DD8CB79934238BF3F2235
:104FD00000920B79002B52D00026DFF8B880012513
:104FE000B146B246CB68494600989847284B1968A5
:104FF0004E79002E3CD0019B002209EB030C264B7E
:10500000934693F80090134603E00132D3B29E42D8
:1050100028D920FA03F4E407F7D53B44BCF17F0F0D
:105020004FEAE304F1D83F2B03F007030CEBC41E57
:1050300005FA04F405FA03F3E7DC18F80E6049EA10
:1050400004043343DBB29E4208F80E301DD0134BEC
:1050500001324E795FFA84F91D70D3B24FF0010B23
:105060009E42D6D8BBF1000F02D00B4B83F80090C4
:105070000AF1010A0B795FFA8AF94B45B2D803B0FD
:10508000BDE8F08F3F230093A3E74E79BDE700BF53
:10509000A8120024A80E0024AC120024AD12002493
:1050A000F8B50D4B1B68AAB1A3B11E7915461B7A42
:1050B00012781E44F6B26AB104460F4608E0204654
:1050C00039463444FFF774FF15F8012FE4B20AB1F2
:1050D0002306F4D5F8BD00BFA8120024000000008C
:1050E00010B50E4C82B0206848B190F824300F2BD8
:1050F00001D002B010BDFFF713FA00232360FFF7C1
:1051000057FE0020064B80224FF43C71009005486A
:10511000FFF796F9206002B010BD00BFB012002466
:10512000014D0008B812002400000000000000003B
:105130002038C3B25E2B07D8042905D800EB8000C5
:10514000024B0344585C704700207047CC5700085E
:1051500088420DD98B1883420AD900EB020CBAB1F0
:10516000624613F801CD02F801CD9942F9D170479A
:105170000F2A0ED8034602F1FF3C4AB10CF1010C94
:10518000013B8C4411F8012B03F8012F6145F9D143
:10519000704740EA01039B0750D1A2F1100370B59C
:1051A00001F1200C23F00F0501F1100E00F11004A5
:1051B000AC441B095EF8105C44F8105C5EF80C5CB3
:1051C00044F80C5C5EF8085C44F8085C5EF8045C2B
:1051D00044F8045C0EF1100EE64504F11004E9D128
:1051E000013312F00C0F01EB031102F00F0400EB7E
:1051F000031327D0043C24F003064FEA940C1E440A
:105200001C1F8E465EF8045B44F8045FB442F9D17B
:105210000CF1010402F0030203EB840301EB8401AF
:1052200002F1FF3C4AB10CF1010C013B8C4411F836
:10523000012B03F8012F6145F9D170BD02F1FF3C4C
:1052400003469BE72246EBE7830730B548D0541E60
:10525000002A3FD0CAB2034601E0013C3AD303F82A
:10526000012B9D07F9D1032C2DD9CDB245EA052597
:105270000F2C45EA054536D9A4F1100222F00F0C97
:1052800003F1200EE6444FEA121C03F1100242E93A
:10529000045542E9025510327245F8D10CF1010271
:1052A00014F00C0F03EB021204F00F0C13D0ACF14E
:1052B000040323F003030433134442F8045B9342D2
:1052C000FBD10CF003042CB1C9B21C4403F8011B40
:1052D0009C42FBD130BD64461346002CF4D1F9E763
:0C52E00003461446BFE71A46A446E0E768
:1052EC00AC590008A8150024A8150024A815002402
:1052FC00AC59000800000030000000300000003005
:10530C00AC590008000000300000003000000030F4
:10531C00AC590008000004300000043000000430D8
:10532C00AC590008000000380000003800000038BC
:10533C00AC590008000800200008002000080020DC
:10534C00AC59000800000000000000000000000044
:10535C00AC5900080000803800008038000080380C
:10536C0000000000C10A0008A10A0008010B000897
:10537C00E10A0008F10A0008D10A0008B10A000885
:10538C00910A0008110B0008000000000100000049
:10539C0000000000566563746F72313030000000FD
:1053AC00566563746F72423000000000566563747A
:1053BC006F72313134000000566563746F7244347F
:1053CC0000000000566563746F72383800000000EE
:1053DC00566563746F723236300000005665637424
:1053EC006F72323543000000566563746F7232354C
:1053FC0038000000566563746F723235340000005B
:10540C00566563746F7232353000000056656374F4
:10541C006F72323443000000566563746F7232341D
:10542C0038000000566563746F723234340000002B
:10543C00005402580854025800000000005802584A
:10544C0000810000005402581C5402580400000053
:10545C00045802580182000000540258305402587B
:10546C00080000000858025802830000005402583B
:10547C00445402580C0000000C58025803840000DD
:10548C00005402585854025810000000105802588A
:10549C0004850000005402586C540258140000009B
:1054AC0014580258058600000054025880540258C3
:1054BC0018000000185802580687000000540258C3
:1054CC00945402581C0000001C5802580788000015
:1054DC00566563746F72313538000000566563741D
:1054EC006F72313534000000566563746F7238305A
:1054FC0000000000566563746F72374300000000B3
:10550C00566563746F72373800000000566563741B
:10551C006F72373400000000566563746F72373059
:10552C0000000000566563746F7236430000000083
:10553C00566563746F7231353000000056656374C4
:10554C006F72313330000000566563746F72313204
:10555C0043000000566563746F72313238000000EE
:10556C00566563746F723132340000005665637493
:10557C006F72313230000000566563746F724643AF
:10558C0000000000566563746F7238340000000030
:10559C0010000240080002400008024000000B000E
:1055AC0028000240080002400408024006010C00DA
:1055BC0040000240080002400808024010020D00A2
:1055CC0058000240080002400C08024016030E006E
:1055DC00700002400C0002401008024000040F0052
:1055EC00880002400C00024014080240060510001E
:1055FC00A00002400C0002401808024010061100E6
:10560C00B80002400C0002401C08024016072F0094
:10561C001004024008040240200802400008380030
:10562C0028040240080402402408024006093900FC
:10563C00400402400804024028080240100A3A00C4
:10564C0058040240080402402C080240160B3B0090
:10565C00700402400C04024030080240000C3C0074
:10566C00880402400C04024034080240060D440039
:10567C00A00402400C04024038080240100E450001
:10568C00B80402400C0402403C080240160F4600CD
:10569C00566563746F7231443400000000000000E2
:1056AC00B10C000831100008011100084000400046
:1056BC00AC010024AC01002401000000BC0100245A
:1056CC00800000004001000008000000444D412013
:1056DC006661696C75726500566563746F723139F9
:1056EC0038000000566563746F7231393400000065
:1056FC00566563746F7231304300000056656374F5
:10570C006F72443000000000566563746F7243433F
:10571C00000000006330000020570008000000006B
:10572C0000000000800C0024B00D002469646C653E
:10573C00000000006E6F6E616D6500006D61696E3A
:10574C00002C0538040448080C10141C20242526B1
:10575C000000000000002404010004000000000010
:10576C00000C0010283034004E4F4953452057414F
:10577C0056450000446973706C61790000000000AC
:10578C00000000000000000000000000000000000D
:10579C0007000040000040043578385F656C656B8D
:1057AC0074726F6E00000000347836003578370064
:1057BC00B85700080507207E010000003151000891
:1057CC00000000000000005F00000007000700144C
:1057DC007F147F14242A7F2A12231308646236490B
:1057EC005522500005030000001C224100004122FC
:1057FC001C0014083E081408083E0808005030002D
:10580C000008080808080060600000201008040266
:10581C003E5149453E00427F40004261514946217C
:10582C0041454B311814127F1027454545393C4AE8
:10583C004949300171090503364949493606494938
:10584C00291E00363600000056360000081422418E
:10585C0000141414141400412214080201510906F6
:10586C00324979413E7E1111117E7F494949363EBC
:10587C00414141227F4141221C7F494949417F09D5
:10588C000909013E4149497A7F0808087F00417F98
:10589C0041002040413F017F081422417F4040409D
:1058AC00407F020C027F7F0408107F3E4141413E45
:1058BC007F090909063E4151215E7F091929464697
:1058CC004949493101017F01013F4040403F1F20C0
:1058DC0040201F3F4038403F631408146307087092
:1058EC0008076151494543007F41410002040810FB
:1058FC00200041417F00040201020440404040402E
:10590C00000102040020545454787F484444383831
:10591C0044444420384444487F3854545418087E36
:10592C000901020C5252523E7F0804047800447D57
:10593C0040002040443D007F1028440000417F403F
:10594C00007C041804787C080404783844444438F7
:10595C007C14141408081414187C7C0804040848DB
:10596C0054545420043F4440203C4040207C1C2094
:10597C0040201C3C4030403C44281028440C5050E3
:10598C00503C4464544C44000836410000007F00F5
:0C599C0000004136080008040810080054
:0459A80078563412E7
:04000005080003B933
:00000001FF
