:020000040800F2
:1000000000040020B9030008BB030008BB0300087C
:10001000BB030008BB030008BB030008BB030008C8
:10002000BB030008BB030008BB030008C150000865
:10003000BB030008BB030008BB030008BB030008A8
:10004000BB030008BB030008BB030008BB03000898
:10005000BB030008BB030008BB030008BB03000888
:10006000BB030008BB030008BB03000841240008D1
:1000700081240008C124000801250008412500084A
:1000800081250008C125000851210008BB03000894
:10009000BB030008BB030008BB030008BB03000848
:1000A000BB030008BB030008BB030008BB03000838
:1000B000611D0008BB030008BB030008BB03000868
:1000C000BB030008BB030008BB030008E13B0008BA
:1000D000513C0008011D0008BB030008BB030008D9
:1000E000BB030008BB030008BB030008BB030008F8
:1000F000BB030008BB030008BB030008012600087F
:10010000B1170008D11C0008BB030008C13C00085F
:10011000BB030008311D0008BB030008BB03000837
:100120004126000881260008C12600080127000892
:1001300041270008BB030008BB030008BB030008FD
:10014000BB030008BB030008BB030008BB03000897
:1001500081270008C127000801280008BB03000808
:10016000BB030008BB030008BB030008BB03000877
:10017000BB030008BB030008BB030008BB03000867
:10018000BB030008BB030008BB030008BB03000857
:10019000BB030008313D0008A13D0008BB03000877
:1001A000BB030008BB030008BB030008BB03000837
:1001B000BB030008BB030008BB030008BB03000827
:1001C000BB030008BB030008BB030008BB03000817
:1001D000BB030008C12D0008BB030008BB030008D7
:1001E000BB030008BB030008BB030008BB030008F7
:1001F000BB030008BB030008BB030008BB030008E7
:10020000BB030008BB030008BB030008BB030008D6
:10021000BB030008BB030008BB030008BB030008C6
:10022000BB030008BB030008BB030008BB030008B6
:10023000BB030008BB030008BB030008BB030008A6
:10024000BB030008012200084122000881220008A7
:10025000C12200080123000841230008812300086F
:10026000C1230008BB030008BB030008BB03000850
:10027000BB030008BB030008BB030008BB03000866
:10028000BB030008BB030008BB030008BB03000856
:10029000BB030008BB030008BB030008BB03000846
:1002A000BB030008BB030008BB030008BB03000836
:1002B000BB030008BB030008BB030008BB03000826
:1002C000BB030008BB030008BB030008BB03000816
:1002D000BB030008BB030008BB030008BB03000806
:1002E00072B6264880F30888254880F30988254897
:1002F00025490860022080F31488BFF36F8F00F057
:100300000FF904F00DF84FF0553020491B4A914287
:100310003CBF41F8040BFAE71D49194A91423CBF22
:1003200041F8040BFAE71B491B4A1C4B9A423EBF9B
:1003300051F8040B42F8040BF8E700201849194A59
:1003400091423CBF41F8040BFAE700F039F900F0A4
:1003500027F9154C154DAC4203DA54F8041B8847B5
:10036000F9E704F015FF124C124DAC4203DA54F8D1
:10037000041B8847F9E700F01BB9000000040020C7
:10038000000800200000000808ED00E00000002048
:1003900000040020685B0008000000240000002426
:1003A000000000247C0E0024E0020008E0020008A7
:1003B000E0020008E002000892E700F000F8FEE723
:1003C0002DE9F04FC1F80CD0D0F80CD0BDE8F08F7B
:1003D000002383F311882846A047002004F0D8FCAE
:1003E000FEE704F0DDFB00DFFEE70000844641EAA3
:1003F000000313F003036DD1403A41D351F8043B9D
:1004000040F8043B51F8043B40F8043B51F8043BEE
:1004100040F8043B51F8043B40F8043B51F8043BDE
:1004200040F8043B51F8043B40F8043B51F8043BCE
:1004300040F8043B51F8043B40F8043B51F8043BBE
:1004400040F8043B51F8043B40F8043B51F8043BAE
:1004500040F8043B51F8043B40F8043B51F8043B9E
:1004600040F8043B51F8043B40F8043B51F8043B8E
:1004700040F8043B51F8043B40F8043B403ABDD2FD
:10048000303211D351F8043B40F8043B51F8043B9F
:1004900040F8043B51F8043B40F8043B51F8043B5E
:1004A00040F8043B103AEDD20C3205D351F8043B2E
:1004B00040F8043B043AF9D2043208D0D2071CBFFA
:1004C00011F8013B00F8013B01D30B880380604623
:1004D000704700BF082A13D38B078DD010F0030399
:1004E0008AD0C3F10403D21ADB071CBF11F8013B09
:1004F00000F8013B80D331F8023B20F8023B7BE758
:10050000043AD9D3013A11F8013B00F8013BF9D282
:100510000B7803704B7843708B788370604670471C
:1005200010B5BFF34F8FBFF36F8F1C480022C0F888
:100530005022BFF34F8FBFF36F8F436943F40033F3
:100540004361BFF34F8FBFF36F8FC0F88420BFF3B9
:100550004F8FD0F8803043F6E074C3F34E3CC3F3C2
:10056000C90E4FEA4C1C0CEA0401734641EA83723F
:10057000013BC0F860225A1CF8D1ACF1200C1CF1F0
:10058000200FF0D1BFF34F8F436943F480334361B1
:10059000BFF34F8FBFF36F8F10BD00BF00ED00E0C2
:1005A000704700BF000000000000000000000000D5
:1005B000FEE700BF00000000000000000000000097
:1005C000F8B52B4D2B4F2C4905F170042B482C4AC4
:1005D00088420DD2043A034652F8046F43F8046B84
:1005E0008B42F9D34B1E1B1A23F003030433184428
:1005F000B84207D2013F00213F1A27F0030204321C
:1006000004F02EFFA54205D0D5E90420D5E9061750
:100610001035DDE71B480023C0F88430BFF34F8F4F
:10062000D0F8805043F6E076C5F34E34C5F3C905E3
:10063000640104EA06012B4641EA8372013BC0F8DB
:100640006C225A1CF8D1203C14F1200FF1D1BFF3D9
:100650004F8FBFF36F8FBFF34F8FBFF36F8F0023A9
:10066000C0F85032BFF34F8FBFF36F8FF8BD00BF9C
:10067000045500087C0E00247C0E00247C0E00240F
:10068000685B000800ED00E00000000000000000D2
:1006900008B501F08DFB02F0FBF800F031FA00F034
:1006A00017FD00F095FC00F05BFD00F071FD01F01E
:1006B0003FF803F05DFFBDE8084000F001B800BF5F
:1006C00003F01EBC0000000000000000000000005D
:1006D0004FF08043586A704700000000000000009F
:1006E0004FF080430021022258631961DA6070479D
:1006F0004FF080430022DA60704700BF0000000026
:100700004FF0804358637047000000000000000075
:10071000F8B51546826804460B46AA4200D28568A1
:10072000A1692669761AB54218D30AD82A4618460E
:10073000FFF75CFEE268A3682846A2615B1BA3602A
:10074000F8BDAF1B32461846FFF750FE3A4630441C
:10075000E168FFF74BFEE2683A44ECE72A461846A8
:10076000FFF744FEA2692A44E5E700BF000000004D
:10077000836893422DE9F04104460F4612D2856802
:10078000D4E90460361AB54212D318D82A4639463D
:10079000FFF72CFEE268A368284662615B1BA3603A
:1007A000BDE8F081D4E904601546361AB542ECD2B2
:1007B0002A463946FFF71AFE62692A44EBE7A5EBA1
:1007C000060832463946FFF711FE4246B919E0687D
:1007D000FFF70CFEE2684244DDE700BF00000000C6
:1007E00010B40A440024C361019B8460C16010BC42
:1007F00002610362C0E90000C0E90511704700BF53
:10080000D0E90532934211D0826810B501325C1CE8
:10081000826044611970D0E904329A4201D3C368FE
:100820004361002104F02CFB002010BD8268002AE7
:10083000EAD04FF0FF3070470000000000000000D9
:1008400070B5302305460E4683F3118803E004F0AB
:10085000FFFA002819DBAC6831462846002CF6D098
:10086000AB68A969013B4A1CAB602B69AA619A423B
:100870000C7801D3EB68AB61EB690BB12846984764
:10088000002383F31188204670BD84F3118870BD66
:100890002DE9F04F83B09A46C6693027019287F35D
:1008A0001188CAB183460D46DDF804904FF0000868
:1008B0004A4629465846FFF72BFF0446584694B14E
:1008C00006B1B04788F31188A9EB0409254487F3E2
:1008D0001188B9F1000FEBD10198002383F311883F
:1008E00003B0BDE8F08F514604F0B2FA0028DFD023
:1008F000019BA3EB0900002383F3118803B0BDE83B
:10090000F08F00BF000000000000000000000000A9
:1009100010B4C3618C18019B0461826010BCC1607B
:100920000362C0E90000C0E9051170470000000043
:10093000F8B5302304460F46164683F3118803E0CA
:1009400004F086FA002819DBA56831462046002D00
:10095000F6D06269A368511C013B6161A360177006
:10096000D4E904329A4201D3E3686361E3690BB1CD
:1009700020469847002080F31188F8BD85F3118840
:10098000F8BD00BF000000000000000000000000F3
:10099000D0E905239A4210D08268591C013210B563
:1009A000816182601C780369994201D3C3688361C5
:1009B000002104F065FA204610BD8268002AEBD0C1
:1009C0004FF0FF30704700BF000000000000000043
:1009D0002DE9F04F83B09A46C6693027019287F31C
:1009E0001188CAB183460D46DDF804904FF0000827
:1009F0004A4629465846FFF7BBFE0446584694B17E
:100A000006B1B04788F31188A9EB0409254487F3A0
:100A10001188B9F1000FEBD10198002383F31188FD
:100A200003B0BDE8F08F514604F012FA0028DFD081
:100A3000019BA3EB0900002383F3118803B0BDE8F9
:100A4000F08F00BF00000000000000000000000068
:100A500001F01F0C012349090CF1010CB1EB521FED
:100A600003FA0CF310B503F1FF334FEA521402F00E
:100A70001F0E05D850F82400184020FA0EF010BDC3
:100A800050F8211050F8242003EA0100CEF1200193
:100A900022FA0EF38840184310BD00BF000000008A
:100AA000C3689B0F08D08368C288180400F47C10C8
:100AB0001043013080027047826840F6FC73416841
:100AC00003EA8200C2F30342C1F3C23340EA9170E9
:100AD000093A02330130984090407047000000000E
:100AE00090F8D63090F8D7101B0490F8D42090F8E6
:100AF000D50003EB0163134403EB0020704700BFF4
:100B000001F0B6BA00000000000000000000000084
:100B100003460022012118305A611970C3E90122ED
:100B2000C3E9032204F0FCB900000000000000004B
:100B30000379052B06D1826A4FF400730020C1E9C6
:100B400000327047012070470000000000000000E4
:100B500070B5124E82B004460D4611E002F0C0FCA2
:100B600003460A20BBB9019AC2F343213242A1F1E4
:100B700005020FD104290ED0022A0BD804F038F94F
:100B800001AB0D212046A26B002DE7D102F090FCB5
:100B90000346E6E70123184602B070BD08E0FFFDFA
:100BA00003F1FF3C10B58C44D0F828E00446F4452E
:100BB00005D9436B012043F08003636310BD4FF000
:100BC000060C80F804C002F0BBFE0523237110BDA3
:100BD00003F1FF3C10B58C44D0F828E00446F445FE
:100BE00005D9436B012043F08003636310BD4FF0D0
:100BF000070C80F804C002F0CBFE0523237110BD62
:100C000038B50579052D01D0012038BD08230446EB
:100C1000037102F0E5FE257138BD00BF0000000041
:100C200038B5302383F311880379022B10D00422C6
:100C300004460023027183F311880121FFF788FF26
:100C40000546204602F004FC02232846237138BDE5
:100C5000002585F31188284638BD00BF000000003C
:100C600003232DE9F041037184B0044602F088FBB0
:100C700000222046114602F00BFC03AB4FF4D57264
:100C80000821204602F02CFCE8B9039B0122C3F3A3
:100C900003232263934209D02046012502F0D8FBAA
:100CA00002232846237104B0BDE8F081024603AB5D
:100CB0003721204602F014FC0028EDD1039AA64B00
:100CC00013408BB1E8E703AB00223721204602F046
:100CD00007FC002835D1039B9F4A1A408ABB114666
:100CE0002046226302F0D4FB236B03F00F03022B98
:100CF00029D09A4F64259A4ADFF85C82012B18BFED
:100D0000174610E0039E16EA080FC5D102F0D0FB8B
:100D100003466420002BBFD1039B002B28DB013D41
:100D2000BAD004F065F803AB00223721204602F068
:100D3000D7FB064603AB3A4629212046002EE1D0D8
:100D4000AAE7022323636425864E06E0039B002B5B
:100D50000EDB013DA0D004F04BF803AB324601217D
:100D6000204602F0A5FB03466420002BEED093E75B
:100D70005A0003D5236B43F01003236304F10803E7
:100D800000220221204602F0C3FB002884D1024643
:100D900004F138030321204602F0A2FB00287FF46F
:100DA0007BAF04F11806A26B09212046334602F0FE
:100DB000AFFB00287FF470AF02ABA26B0721204687
:100DC00002F08EFB054600287FF466AF236B03F02C
:100DD0000F03022B65D07E227F213046E76BFFF7A1
:100DE00037FE70B10623402239462046009502F0B6
:100DF000AFFB00287FF450AFBB895BBA9B0700F1C3
:100E000094800021204602F0E3FA00212046FFF7FB
:100E10009FFE054600287FF43FAF236B03F00F03CE
:100E2000022B6BD03046FFF73BFEA06202AB4FF4C3
:100E300000721021204602F053FB054600287FF483
:100E40002BAF029B444E33427FF426AF236B13F04B
:100E50000E0F03F00F0233D1E36A1978F9B10129BB
:100E60007FF41AAF204602F0FBFA03ABA26B3721E6
:100E7000204602F035FB00287FF40EAF039B33427F
:100E80007FF40AAF03AB02220621204602F028FBC2
:100E900000287FF401AF039B33427FF4FDAE0523AE
:100EA000FFE603AB304A0621204602F019FB00287A
:100EB000A7D1039B28491940B1FA81F14909A1E75B
:100EC000022A7FF4E9AEE36A1978012941D00229A8
:100ED0003DD00029E3D0254E204602F0C1FA03ABF5
:100EE00032460621204602F0FBFA00287FF4D4AEF9
:100EF000039A194B1340002BD1D0CDE67E227F21DF
:100F00003046FFF7A5FD01288CD9E66B08234FF486
:100F1000007220463146009502F01AFB00287FF44B
:100F2000BBAE3046FFF7DCFD7FE7114B4022394670
:100F300020460093062302F00BFB00287FF4ACAEA2
:100F4000397C01F00F010F3918BF01215AE7094E12
:100F5000C2E7094EC0E700BF08E0FFFD0080FF5078
:100F6000000010800080FFC00001B9030000B7033B
:100F7000F1FFFF800002B7030001B703000000008B
:100F800030B5104D83B0044603E0022A16D803F0B2
:100F90002FFF01ABA26B0D21204602F0A1FA034600
:100FA0000A2043B9019AC2F343212A42A1F1050262
:100FB00004D10429E9D1184603B030BD01231846F5
:100FC00003B030BD08E0FFFD00000000000000009D
:100FD00002F086B9000000000000000000000000E0
:100FE000002304490122016002714363C0E90A330E
:100FF000704700BF8455000800000000000000009A
:1010000010B53023044683F31188C16202F088F9D9
:1010100002230020237180F3118810BD000000001E
:101020003022034682F311880022406B5A6382F318
:101030001188704700000000000000000000000060
:101040000C30FFF725BC00BF0000000000000000CE
:101050004FF0FF330C30FFF71BBC00BF0000000057
:101060003030FFF7B5BC00BF0000000000000000FA
:101070004FF0FF333030FFF7ABBC00BF0000000083
:101080000C30FFF7DDBB00BF0000000000000000D7
:101090004FF0FF310C30FFF7D3BB00BF0000000062
:1010A0003030FFF745BC00BF00000000000000002A
:1010B0004FF0FF323030FFF73BBC00BF00000000B4
:1010C000012914BF6FF013000020704700000000DA
:1010D00002F06EBF000000000000000000000000F1
:1010E00003460349012243F8041B02724360704720
:1010F000A8550008000000000000000000000000EB
:1011000010B53023044683F3118802F0A1FF0223B7
:101110000020237280F3118810BD00BF0000000082
:1011200038B5436904460D463BB1294604F10C002D
:10113000FFF766FB00280BDB38BD0421084403F0F1
:10114000F7FE294604F10C00FFF75AFB0028F3DAFA
:10115000201D4FF40061BDE8384003F0E9BE00BF38
:1011600002F056BE00000000000000000000000079
:101170000346002201210C301970C3E9012203F05B
:10118000CFBE00BF00000000000000000000000013
:1011900001F0DEBB000000000000000000000000C5
:1011A00001234022002110B5044600F8303B04F032
:1011B00057F90023C4E9013310BD00BF000000004F
:1011C00070B5022300250446242203702946C0F886
:1011D00088500C3040F8045C04F042F9204684F852
:1011E000705001F0C5FB63681B6823B12946204697
:1011F000BDE87040184770BD00000000000000000E
:101200000378052B0DD00521426880F88C300170E1
:10121000136810B504460BB1042198470023A3605E
:1012200010BD70470000000000000000000000003A
:101230000178052900D0704790F88CC0426880F88A
:1012400000C01368002BF6D0184700BF0000000054
:1012500070B590F87030044613B1002380F87030F8
:1012600004F18002204601F023FC63689B6853B3BD
:101270002046984738B3A56F94F88030B4F886209C
:10128000AA422CBF2A46A267190600F1DA80002A7A
:1012900000F08D801522302384F8702083F31188AC
:1012A00062892046E36842F001029B696281D4E9C9
:1012B0001D51002419609D6021465C6001F008FC0E
:1012C00084F3118870BD94F8803013F060061846DE
:1012D0001CD194F8812003F07F0545EA022540F2F5
:1012E0000232954200F0518140D8B5F5807F00F080
:1012F00008811DD9B5F5817F00F01281B5F5407FD9
:1013000004D194F88230012B00F0D38000212046D4
:1013100001F056FF0021204601F042FF63681B6880
:1013200013B1062120469847062384F8703070BD1B
:10133000012D61D0022D51D194F98430204694F8CA
:101340008410002B01F00F01C0F2AC8001F090FB83
:10135000012800F0AC800228D8D19A49022300224B
:10136000C4E91D13E26794F8803087E7B5F5006F94
:1013700000F0038147D9B5F5106F39D12378042BDC
:1013800000F0A18094F882304BB10421626884F8A7
:101390008B302170136813B1022120469847002337
:1013A00094F88000C4E91D33E367030663D40B227D
:1013B000302384F8702083F3118822890025E368A4
:1013C000204642F0010229465B6922819D60C3E903
:1013D000005501F015FC85F3118870BD002D95D1E5
:1013E000022204F18801E56761671546A26745E7B7
:1013F00040F60242954289D1022573490022C4E990
:101400001D15E2673AE7B5F5A06F00F09F80A5F5DE
:10141000C065012D3FF67AAF61682046B4F884308C
:101420004D6894F8822094F88310A84700283FF470
:101430006DAF94F88030D0E90052E667C4E91D250D
:101440001CE7C2B10922302384F8702083F311888D
:1014500022892046E36842F001025B692281D4E9D7
:101460001D51002419609D6021465C6001F0C8FB9D
:1014700084F3118870BD1422302384F8702083F324
:10148000118862890025E368204642F0010229465E
:101490009B6962819D60C3E9005501F019FB85F3EA
:1014A000118870BD01F0F4FA01287FF454AF474968
:1014B00054E7B4F88830E66743F00203C4E91D66D8
:1014C000A4F8883071E7302383F31188A3682022C1
:1014D000314604F1100003F00113A36003F0C0FFD4
:1014E000204601F0BDFA86F311880321636884F871
:1014F0008B6021701B68002B3FF444AF2046984757
:1015000040E794F88230012B7FF400AFB4F88830C4
:10151000E66723F00203C4E91D66A4F8883044E7B7
:1015200094F88230002B7FF4F1AE94F8843013F0FD
:101530000F0106D01E06204639D401F051FE94F862
:1015400080000023C4E91D33E3672EE7B4F8803040
:10155000B3F5A06FF5D194F88230204684F88A3034
:1015600001F06EFA63681B6813B1012120469847A9
:10157000032394F880002370E3E7012204F18B0138
:10158000E6671546C4E91D1278E694F88230002B10
:101590007FF4BCAE94F8843013F00F01D1D01D0657
:1015A000204609D401F0FCFD94F88000C9E701F061
:1015B00027FE94F88000C4E701F002FE94F8800052
:1015C000BFE700BFD0550008D8550008D455000823
:1015D00038B590F870300446152B27D8DFE803F0B3
:1015E0002726262626262726260B103826262626B8
:1015F000262626262727856FB0F886309D422ED3D3
:101600001422302384F8702083F311886289002526
:10161000E368204642F0010229469B6962819D6091
:10162000C3E9005501F054FA85F3118838BD002153
:1016300001F0C6FD0021204601F0B2FD63681B6881
:1016400013B1062120469847062384F8703038BD30
:10165000C36F03B19847002384F8703038BDC36866
:101660001B8AB5FBF3F203FB1255002DC8D13023C2
:1016700083F3118802892946C36842F001025B693D
:1016800002819D60C3E9005501F0BAFA85F3118823
:101690000A2384F8703038BD00000000000000000C
:1016A00038B590F870300446152B21D8DFE803F0E8
:1016B0002120202020202120202121212020202025
:1016C00020202020320B0B22302380F8702083F35F
:1016D000118802890025C36842F0010229465B692E
:1016E00002819D60C3E9005501F08AFA85F31188F3
:1016F00038BD002101F064FD0021204601F050FDBD
:1017000063681B6813B1062120469847062384F8B6
:10171000703038BDC3689B695B68002BE8D1C36F2C
:1017200003B19847002384F8703038BD00000000F2
:1017300000F006B8000000000000000000000000FB
:10174000034B1A781AB90121024A19705A6070477E
:101750000000002440410052000000000000000092
:101760000378012B00D070470F4B984202D0022320
:10177000037070470D4BDA6F42F48052DA67DA6F0C
:1017800022F48052DA67DA6FD3F8D42042F4805220
:10179000C3F8D420D3F8FC2022F48052C3F8FC20F4
:1017A000D3F8FC30E3E700BF0000002400440258F7
:1017B00010B5054C204602F09BFF204602F0B0FF1A
:1017C000BDE8104003F0BCBCDC5500080000000080
:1017D00008B5FFF7B5FF034A034B012152681970A2
:1017E0005A6008BD000000243804002400000000F6
:1017F0000C4B10B51A7882B00446012A0CD0302365
:1018000083F31188204602F053FD02220023227048
:1018100083F3118802B010BD18460191FFF7A0FFB5
:101820000199ECE700000024000000000000000027
:101830000B462DE9F04F0E4687B013F8011B0192BD
:10184000002900F00F8204464FF000090CE02268E6
:10185000204609F101091E46D2689047334613F825
:10186000011B002900F0DF802529F0D172782D2A94
:1018700000F0C5804FF0000E19782B2900F0BB80D6
:101880000025302900F0B38020272A294DD159782E
:101890009E1CDDF804A02E295AF8042B5BD00020F2
:1018A00001F0DF034C2B63D116F8011B002900F077
:1018B000BA80A1F14403342B00F2B980DFE813F0C1
:1018C000A001B700B700B700B700A001B700B7008C
:1018D000B700B700B7003601E700B700B700B700A0
:1018E000B700C601B700B700E700B700B700B70000
:1018F000B700B700B700B700B700B700B70059018D
:10190000A001B700B700B700B700A001B700B7004B
:10191000B700B700B7003601E700B700B7003901DC
:10192000B700C601B700B700E7005E1C00297AD0F7
:10193000002205E016F8011B03EB4002002972D0DB
:10194000A1F1300302EB8200DBB2092BF2D92E2980
:10195000DDF804A0A3D13178002964D02A2952D11E
:10196000717802365AF8040B01F0DF034C2B9BD040
:10197000A1F14103A1F1440CDBB2BCF1340F56D804
:10198000DFE81CF00901550055005500550009011C
:1019900055005500550055005500D40085005500F0
:1019A000550055005500640155005500850055004F
:1019B000550055005500550055005500550055007F
:1019C0005500F70009015500550055005500090163
:1019D00055005500550055005500D40085005500B0
:1019E0005500D700550064015500550085000133AE
:1019F0000F46197849E759780125013341E7B31CAF
:101A00004FF0010E38E701360020A1F1300300EB62
:101A1000800CDBB2092B3FF643AF16F8011B03EB3A
:101A20004C000029F1D1484607B0BDE8F08F013ADB
:101A30008DF80C10CDF804A022EAE27BBEF1000F75
:101A400040F0A580002A75460DF10C0ACBF1000B81
:101A500053DC002D0DDB05F10108D044236820463E
:101A60001AF8011BDB689847C245F7D109F1010953
:101A7000A944BBF1000F3FF4F1AE5D46236839463F
:101A80002046DB689847013DF8D1D944E6E64FF09F
:101A90001008534653F8040B01930DF1170300E0AF
:101AA0002B4684465D1EB0FBF8F008FB10CA0AF115
:101AB00030013929C8BF0AF13701C445C9B203F85A
:101AC000011CEDD20DF117000DF11708451B18464A
:101AD00003AB9C4601E010F8011B40450CF8011BCC
:101AE000F9D1521B9A46013D22EAE27BBEF1000F7A
:101AF000AFD1002ACBF1000BABDD9AF800102B29F7
:101B000018BF2D2902D1302F00F09680D8462368C7
:101B100039462046DB68984718F10108F7D1002DB7
:101B2000A9EB0B09FFF69AAEC34694E74FF00808FD
:101B3000AFE7534653F804AB0193BAF1000F00F03E
:101B400088809AF80010002868D1002969D047F6EB
:101B5000FE70514601E0C54205D411F8013FAAEBE1
:101B60000105002BF7D1A1EB0A012027521A4D1EC7
:101B7000BAE75AF8043B013A202722EAE27BCDF883
:101B800004A08DF80C30BEF1000F3FF45BAF0025D0
:101B90000DF10C0A5FE7192B32D9534653F8040BA9
:101BA0000028019332DB002D59D02B230DF10D0CB1
:101BB0008DF80C3003AB0CF10B0A55462C49A1FBF8
:101BC00000818046C908B8F1090F01EB810B084676
:101BD000A8EB4B0101F13001C9B205F8011DEDDCA4
:101BE000AAEB0500604401E015F8011F0CF8011B89
:101BF0008445F9D1ACEB03059A46521B013D73E7CE
:101C00005AF8040B0028CDF804A0CCDA2D2340426A
:101C10000DF10D0C8DF80C3003ABCCE709B1013898
:101C200097D522EAE27BBEF1000F03D1002ACBF167
:101C3000000B19DC20271CE7226820460AF1010A64
:101C400009F10109D268013D90475FE74FF00A08AA
:101C50001FE7DFF820A000283FF479AFDFE703ABF0
:101C60009C46A8E78946DEE620274FF0FF354DE782
:101C7000CDCCCCCCE85500080000000000000000EE
:101C80000EB400B582B003AA52F8041B0192FFF70C
:101C9000CFFD02B05DF804EB03B070470000000018
:101CA0000A4A09014FEA501C0123C9B200B500F0ED
:101CB0001F0E104403FA0EF380F8001302EB8C01A0
:101CC000C1F8803142F82C305DF804FB00E100E0FF
:101CD00010B5074C204602F00BFD064801F088FEC7
:101CE000204602F01DFDBDE8104003F029BA00BFF8
:101CF00014560008BC010024000000000000000091
:101D000010B5074C204602F0F3FC064802F048FAF2
:101D1000204602F005FDBDE8104003F011BA00BFF7
:101D200008560008380300240000000000000000EE
:101D300010B5074C204602F0DBFC064802F030FAF2
:101D4000204602F0EDFCBDE8104003F0F9B900BFF9
:101D5000FC5500089803002400000000000000006B
:101D600010B5064C204602F0C3FC02F0F9F82046FC
:101D700002F0D6FCBDE8104003F0E2B9F0550008CF
:101D800008B509217A20FFF78BFF09213120FFF7E1
:101D900087FF07211C20FFF783FF0C212520FFF779
:101DA0007FFF0C213520BDE80840FFF779BF00BF59
:101DB00038B5364B00224FF0FF31354CD3F8800058
:101DC000344D60F00040C3F88000D3F8800000F08C
:101DD0000040C3F88000D3F88000D3F88400C3F833
:101DE0008410D3F88400C3F88420D3F88400D86F1B
:101DF0002043D867DC6F28482C40DC67DC6FD3F8C1
:101E000088402043C3F88800D3F88800C0F30A0054
:101E1000C3F88800D3F88800D3F89000C3F8901076
:101E2000D3F89000C3F89020D3F89000D3F8940032
:101E3000C3F89410D3F89400C3F89420D3F8940016
:101E4000D3F89800C3F89810D3F89800C3F89820F6
:101E5000D3F89800D3F88C00C3F88C10D3F88C001A
:101E6000C3F88C20D3F88C00D3F89C00C3F89C10E6
:101E7000D3F89C10C3F89C20D3F89C3000F0C0FA33
:101E800000F0DEFCBDE83840FFF77ABF004402589E
:101E9000FFEFFF7F0010008000F8FFFF0000000050
:101EA000654B02206549664A10B40124C1F8084117
:101EB000D3F8F4100143C3F8F410D3F81C11014314
:101EC000C3F81C11D3F81C31D06053689904FCD5B9
:101ED0005C4901235C4C0020116093604FF4404347
:101EE0005749D460106193618B699B04FCD50B68E2
:101EF000514A43F480730B60136F03F44073B3F5DE
:101F0000007F04D04FF480310023116713674A49E2
:101F10000B6843F001030B600B685C07FCD50023E2
:101F2000454A0B61136913F03803FBD14FF0804031
:101F3000012446491460506045485367D1621061DE
:101F400013683D4943F4803313600B689803FCD554
:101F50000A68394B42F480520A601A689204FCD530
:101F600000223C483C4944F6F05498625A63196395
:101F70003A49DC633A4899633A495A641864D96229
:101F800019682D4A41F0A8511960136803F02853CD
:101F9000B3F1285FF9D148244FF4886340204FF40F
:101FA000803194614FF08054D3614FF4E0031062AC
:101FB0004FF44030D16414652B495365322390654A
:101FC0000B600B6803F00F03022BFAD11A4A136956
:101FD00043F003031361136903F03803182BFAD19C
:101FE000D2F8DC3010BC43F00053C2F8DC30D2F839
:101FF000043143F00053C2F80431D2F80431D2F86E
:10200000DC3043F08043C2F8DC30D2F8043143F0D6
:102010008043C2F80431D2F80431D2F8DC3043F006
:102020000043C2F8DC30D2F8043143F00043C2F878
:102030000431D2F804317047004402580080005146
:102040000048025800C000F0020000010000FF013B
:1020500000881008525090019F0209016112010B83
:102060001F07050799036B010020005200000000C4
:1020700070B51E4C00261E4D2046FEF749FD1D4A38
:102080001D4B05211220C4E90A25C4E90C63FFF7A2
:1020900007FE1A4BD3F8D82042F02002C3F8D8200C
:1020A000D3F8002142F02002C3F80021D3F8002128
:1020B000D3F8802042F02002C3F88020D3F880209B
:1020C00022F02002C3F88020D3F88020AE60D3F83D
:1020D000D82022F02002C3F8D820D3F8002122F023
:1020E0002002C3F80021D3F8003170BD080000249D
:1020F0000023024000200240162C02000044025837
:10210000104B98420DD0826A9368590706D59368A0
:1021100043F0100393609368DB06FCD40023D36183
:102120007047016B0A68136823F01F03136013687C
:10213000DB07FCD491F80CC03D234A6803FA0CF38A
:102140001360E0E708000024000000000000000029
:1021500070B5264802F0CCFA254D264A2E69136840
:10216000136066B313F0100406D02C78A4F10304B6
:10217000B4FA84F464096400180648BF44F0040407
:10218000D90523D59A0544F0080401D544F010047C
:102190001748FFF7B5FFF3681BB3052221462A70E5
:1021A00098472B78052B1CD0302383F311884FF0F0
:1021B000FF31114802F03CFE002383F311880B48E5
:1021C00002F0AEFABDE8704002F0BABF9B05DDD464
:1021D000002CDDD1054802F0A3FABDE8704002F002
:1021E000AFBF022200232A702B61DDE720560008D2
:1021F00008000024002002401C0000240000000011
:102200000A4808B502F074FA094B0A48196842688E
:1022100001F00E0159600AB180689047034802F04E
:102220007FFABDE8084002F08BBF00BF805600086F
:10223000005402584000002400000000000000008C
:102240000B4810B502F054FA0A4B0B481968C268E3
:10225000090901F00E010C015C600AB100699047A8
:10226000034802F05DFABDE8104002F069BF00BF0C
:10227000745600080054025840000024000000007A
:102280000B4810B502F034FA0A4B0B481968426942
:10229000090A01F00E010C025C600AB180699047E6
:1022A000034802F03DFABDE8104002F049BF00BF0C
:1022B0006856000800540258400000240000000046
:1022C0000B4810B502F014FA0A4B0B481968C269A2
:1022D000090B01F00E010C035C600AB1006A904723
:1022E000034802F01DFABDE8104002F029BF00BF0C
:1022F0005C56000800540258400000240000000012
:102300000B4810B502F0F4F90A4B0B481968426A01
:10231000090C01F00E010C045C600AB1806A904760
:10232000034802F0FDF9BDE8104002F009BF00BF0C
:1023300050560008005402584000002400000000DD
:102340000B4810B502F0D4F90A4B0B481968C26A61
:10235000090D01F00E010C055C600AB1006B90479D
:10236000034802F0DDF9BDE8104002F0E9BE00BF0D
:1023700044560008005402584000002400000000A9
:102380000B4810B502F0B4F90A4B0B481968426BC0
:10239000090E01F00E010C065C600AB1806B9047DB
:1023A000034802F0BDF9BDE8104002F0C9BE00BF0D
:1023B0003856000800540258400000240000000075
:1023C0000B4810B502F094F90A4B0B481968C26B20
:1023D000090F01F00E010C075C600AB1006C904718
:1023E000034802F09DF9BDE8104002F0A9BE00BF0D
:1023F0002C56000800540258400000240000000041
:102400000B4800220B4B0146026003F1A00C0A4866
:1024100001E053F8140C143302604A60634541F83C
:10242000082FF6D1054B4FF0FF325A60704700BFBE
:1024300040000024A45600080854025800540258D2
:102440000A4808B502F054F9094B0A48196842686D
:1024500001F03D0199600AB180689047034802F09D
:102460005FF9BDE8084002F06BBE00BF805700086E
:102470000000024084000024000000000000000072
:102480000B4810B502F034F90A4B0B481968C268C2
:10249000890901F03D018C019C600AB100699047F7
:1024A000034802F03DF9BDE8104002F049BE00BF0C
:1024B000745700080000024084000024000000005F
:1024C0000B4810B502F014F90A4B0B481968426921
:1024D000090C01F03D010C049C600AB18069904731
:1024E000034802F01DF9BDE8104002F029BE00BF0C
:1024F000685700080000024084000024000000002B
:102500000B4810B502F0F4F80A4B0B481968C26981
:10251000890D01F03D018C059C600AB1006A90476D
:10252000034802F0FDF8BDE8104002F009BE00BF0C
:102530005C570008000002408400002400000000F6
:102540000A4808B502F0D4F8094B0A485968426AAB
:1025500001F03D01D9600AB1806A9047034802F05A
:10256000DFF8BDE8084002F0EBBD00BF505700089F
:102570000000024084000024000000000000000071
:102580000B4810B502F0B4F80A4B0B485968C26A00
:10259000890901F03D018C01DC600AB1006B9047B4
:1025A000034802F0BDF8BDE8104002F0C9BD00BF0D
:1025B000445700080000024084000024000000008E
:1025C0000B4810B502F094F80A4B0B485968426B5F
:1025D000090C01F03D010C04DC600AB1806B9047EE
:1025E000034802F09DF8BDE8104002F0A9BD00BF0D
:1025F000E0570008000002408400002400000000B2
:102600000B4810B502F074F80A4B0B485968C26BBE
:10261000890D01F03D018C05DC600AB1006C90472A
:10262000034802F07DF8BDE8104002F089BD00BF0C
:10263000D45700080000024084000024000000007D
:102640000A4808B502F054F8094B0A481968426C68
:1026500001F03D0199600AB1806C9047034802F097
:102660005FF8BDE8084002F06BBD00BFC857000826
:10267000000402408400002400000000000000006C
:102680000B4810B502F034F80A4B0B481968C26CBD
:10269000890901F03D018C019C600AB1006D9047F1
:1026A000034802F03DF8BDE8104002F049BD00BF0C
:1026B000BC57000800040240840000240000000011
:1026C0000B4810B502F014F80A4B0B481968426D1C
:1026D000090C01F03D010C049C600AB1806D90472B
:1026E000034802F01DF8BDE8104002F029BD00BF0C
:1026F000B0570008000402408400002400000000DD
:102700000B4810B501F0F4FF0A4B0B481968C26D75
:10271000890D01F03D018C059C600AB1006E904767
:10272000034801F0FDFFBDE8104002F009BD00BF05
:10273000A4570008000402408400002400000000A8
:102740000A4808B501F0D4FF094B0A485968426E9F
:1027500001F03D01D9600AB1806E9047034801F055
:10276000DFFFBDE8084002F0EBBC00BF985700084F
:10277000000402408400002400000000000000006B
:102780000B4810B501F0B4FF0A4B0B485968C26EF4
:10279000890901F03D018C01DC600AB1006F9047AE
:1027A000034801F0BDFFBDE8104002F0C9BC00BF06
:1027B0008C57000800040240840000240000000040
:1027C0000B4810B501F094FF0A4B0B485968426F53
:1027D000090C01F03D010C04DC600AB1806F9047E8
:1027E000034801F09DFFBDE8104002F0A9BC00BF06
:1027F0003857000800040240840000240000000054
:102800000B4810B501F074FF0A4B0B485968C26FB2
:10281000890D01F03D018C05DC6012B1D0F880001B
:102820009047034801F07CFFBDE8104002F088BCEF
:102830002C5700080004024084000024000000001F
:1028400000220D4830B40D4C13460D4D226001E0BE
:1028500055F8330004EB830102330260202B4A60F9
:10286000F6D14FF0FF330749074A8B60CB60936086
:10287000D36030BC704700BF1000024084000024C9
:10288000EC57000800000240000402400000000075
:10289000704700BF000000000000000000000000C2
:1028A000124A0023F0B5D2E924414FF0010E02F1A3
:1028B000080C8E685CF8040F03F110020EFA03F1A5
:1028C0005D1C87690EFA02F227B1D4F81C783A43EE
:1028D000C4F81C28426922B1D4F81C281143C4F85A
:1028E0001C189E422B46E5D1F0BD00BF0801002414
:1028F00070B400224FF0FF348E6800EB421102F1F9
:10290000010CD1F800590B46002D05DAD1F8005919
:1029100045F08045C1F80059D1F8005B002D05DA7B
:10292000D1F8005B45F08045C1F8005BB242C3F8C6
:1029300008496246C3F8084BDFD14FF0011370BC61
:10294000C0F81C38704700BF000000000000000005
:1029500010B5044C2046FEF723FC034A034BC4E9A0
:10296000242310BD08010024000008401C59000861
:10297000F8B52023D0F8905007462B612C6914F04D
:102980002004FBD112204FF0006601F031FED7F891
:1029900094C04FF001134FF0FF31DCF80800C5F888
:1029A0003448C5F81C3805EB4413844204F1010493
:1029B000C3F80069C3F8006BC3F80819C3F8081B13
:1029C000F1D1DCF800301021D7F89020C7F898300A
:1029D0006B621161146914F01004FBD1122001F034
:1029E00007FED5F80028124B22F4FE621149C5F803
:1029F0000028AA6913430922AB61C5F81028D7F84B
:102A00009830C5F81428F9604FF0C0410A4AC5F85B
:102A1000101B03F1100143F48013C5F8002BC5F817
:102A20001049C5F80029C7F89810AB62F8BD00BF7F
:102A300010000C00F8580008408000100000000052
:102A4000D0F8902090F88A10D2F8003823F4FE6372
:102A500043EA0113C2F80038704700BF00000000CD
:102A60000346D0E924010A68C3F89820FFF740BF65
:102A70005831D0F8903049015B5813F4004004D02D
:102A800013F4001F0CBF022001207047000000005B
:102A90004831D0F8903049015B5813F4004004D01D
:102AA00013F4001F0CBF022001207047000000003B
:102AB00000EB8100C3681B6A19685B681160536092
:102AC000704700BF00000000000000000000000090
:102AD00000EB8103DA68936910B41C68DC6009B903
:102AE000402C25D8538A1268D0F8900002F0030CCD
:102AF0005A1E2244BCF1010FB2FBF3F202FB03F3B6
:102B000003F1030323F0030343EAC24300EB411242
:102B100043F0C043C2F8103B0DD009B200EB4110A6
:102B200010BCD0F8003B43F00443C0F8003B7047B2
:102B300040241C60D6E7D0F8083800EB411209B2F7
:102B400013F4807FD2F8003B14BF43F0805343F06E
:102B50000053C2F8003BE1E7000000000000000065
:102B60002DE9F041244F0446D7F8906006EB40135E
:102B7000D3F8085B2807C3F8085B03D5D6F81438E8
:102B8000190731D4EA072DD5D6F81438DB0729D533
:102B900007EB8403D9688A6954B9488A5368B3FB40
:102BA000F0F500FB15331BB91068D36898420DD3BC
:102BB00001227B89CD68A24023EA02037B818DB18B
:102BC00021462B460C48BDE8F04118471B1A5460BB
:102BD0003021136081F3118807482146FFF778FF01
:102BE00084F31188BDE8F08107EB84032146384661
:102BF000DB685B689847C5E7080100240000000017
:102C000000EB810310B4DC6862691368D360F3B928
:102C1000D0F890204FF4002002EB4113C3F81009C4
:102C2000236803F00303012B2AD008B202EB401003
:102C30000123D0F800498B4044F00444C0F8004917
:102C4000D2F8341810BC0B43C2F83438704709B9B5
:102C5000402B26D8B4F810C0D0F890200CF1FF30EB
:102C60001844B0FBFCF043EAC04302EB411043F0D0
:102C70000053C0F81039236803F00303012BD4D1AB
:102C8000D2F8083808B213F4807F02EB4113D3F86E
:102C9000004914BF44F0805444F00054C3F8004984
:102CA000C4E740231360D5E70000000000000000E7
:102CB0002DE9F84FDFF8049104464FEA401BD9F89C
:102CC000906006EB4013D3F80859E907C3F8085998
:102CD00003D5D6F81038DA070CD42B0608D54FF0F8
:102CE0000108D6F8343808FA04F813EA080F18D1A6
:102CF000BDE8F88F09EB8003D9684B691868DA687A
:102D000090424AD30122B9F808308F68A24023EAE2
:102D10000203A9F80830002FDFD021464846B84703
:102D2000DBE709EB8403DB685E69D6E90075AF4237
:102D300041D90134D9F890A0B3F81090E4B20AEB6D
:102D40000B0E0AEB0430A7EB050CDEF81839CC4566
:102D50009BB228BFCC46BCEB830FC9D8B468BCF18A
:102D6000040F236803600BD9ACF10501234621F061
:102D700003010431214453F8042F99420260FAD12F
:102D800065446444BD42C6E90154DCD3DAF8343802
:102D900023EA0803CAF83438AAE7121A00271A608F
:102DA0005F60302383F3118821464846FFF728FFF0
:102DB00087F3118891E7D9F890A0E7E7080100248C
:102DC0002DE9F84FB24E4FF04009B24801F090FCA7
:102DD000D6F890706EE0290500F18E80AA040CD51B
:102DE000D7F8083813F0060FFB6823F470530CBFB4
:102DF00043F4105343F4A053FB602B070ED57468C3
:102E0000E368002B00F076813378052B00F07A819F
:102E1000FFF746FDE3680BB130469847EC0273D4E8
:102E2000A80200F1B4802B03D7F818481AD5E003A4
:102E300000F13C81A10300F13581620300F12E8194
:102E4000230300F12081E00200F11981A10200F1C9
:102E50001281620200F10B81230200F10481E00182
:102E600000F1F98069031AD5E20700F13F81A30759
:102E700000F13881600700F13181210700F12A81DA
:102E8000E20600F12381A30600F11C81600600F137
:102E90001581210600F10E81E20500F1E080EB06CC
:102EA00000F1A2807C4B1D4200F0CE80B9F10109F7
:102EB00000F0CA807D69BB691D4015F480587D61B2
:102EC00040F05F81002D86DAD7F8003E980705D0E4
:102ED000D7F8003E23F00303C7F8003EFFF7E0FCFD
:102EE000D7F80438304623F00103C7F80438FEF75A
:102EF0009FF929057FF572AFD6E92401FFF7F8FCA9
:102F00003046FEF77DF969E70021D6F890B04FF022
:102F1000010A0C4608E00134D6F89430E4B29B680C
:102F20009C4221463FF67CAF0BEB4412D2F80039AD
:102F300003F44023B3F5802FEDD1D2F80039002BF4
:102F4000E9DAD2F8003943F09043C2F80039D2F8F8
:102F50000039002BFBDB8901D6F8902041F02001DD
:102F6000116113699906FCD4122001F041FB3389E9
:102F700006EB84020AFA04F1D26823EA010392689C
:102F80003381002AC7D0214630469047C3E7D6F8A0
:102F900090A000244FF0010B07E00134D6F89430E4
:102FA000E4B29B689C423FF63EAF0AEB4412D2F873
:102FB000003B03F44023B3F5802FEED1D2F8003B61
:102FC00006EB84010BFA04F2002BE6DA7389304633
:102FD000D1F80CC0214623EA0203DCF80C207381EF
:102FE000002ADAD09047D8E7D6F890100B6A03F49D
:102FF000F010C3F30A1203F00F03B0F5802F00F0B6
:103000008C80B0F5402F7FF44DAF06EB8303DB6877
:10301000186A002A3FF446AF01F58054002313F0EC
:10302000030F014601D1D4F80080072B03F10103FF
:1030300004D801F8018B4FEA182808469A42EED1CD
:10304000154B1D427FF432AF124801F069FBBDE819
:10305000F84F02F075B80820FFF782FD02E708205C
:10306000FFF726FE1BE70720FFF77AFDF7E60620AD
:10307000FFF776FDF0E60520FFF772FDE9E6042094
:10308000FFF76EFDE2E60320FFF76AFDDBE600BF17
:1030900008010024EC580008300000040220FFF76B
:1030A0005FFDCDE60120FFF75BFDC6E60020FFF7E0
:1030B00057FDBFE60720FFF7FBFDEDE60620FFF713
:1030C000F7FDE6E60520FFF7F3FDDFE60420FFF756
:1030D000EFFDD8E60320FFF7EBFDD1E60220FFF776
:1030E000E7FDCAE60120FFF7E3FDC3E60020FFF796
:1030F000DFFDBCE6BB6923F00803BB613378052B19
:103100007FF486AED7F8003E304623F00303C7F8BD
:10311000003EFEF78DF874687AE6981C06EB800393
:103120005B68D3F818C0DCE90043A4EB030EDCF8BD
:103130000840D2B101F5805C002313F0030F214653
:1031400001D1DCF800809E4503F1010304D901F8A8
:10315000018B4FEA18280C469A42EED106EB800309
:103160005B68D3F818C0DCE90134724504D214441A
:103170001A44CCE9012495E674447344CCE9013443
:1031800090E60548FEF71CF8044801F0C9FABDE8CE
:10319000F84F01F0D5BF00BF08010024EC5800082B
:1031A000D0F8903003EB4111D1F8003B43F4001309
:1031B000C1F8003B704700BF0000000000000000A5
:1031C000D0F8903003EB4111D1F8003943F40013EB
:1031D000C1F80039704700BF000000000000000087
:1031E000D0F8903003EB4111D1F8003B23F40013E9
:1031F000C1F8003B704700BF000000000000000065
:10320000D0F8903003EB4111D1F8003923F40013CA
:10321000C1F80039704700BF000000000000000046
:1032200001F001038A0748BF43F002034A0748BF81
:1032300043F008030A0748BF43F00403CA0648BF27
:1032400043F010038A06426B48BF43F020031A4341
:103250004263704700000000000000000000000012
:10326000F8B5302305460F46164683F31188446CA3
:10327000E36BA3B900232365E363E362606B10F49F
:10328000807008D04FF0FF32A26383F31188012FC2
:103290000CD81846F8BD80F311880120F8BD4FF016
:1032A000FF31403001F0B4FD6C6CE3E76A6C41F231
:1032B0000C119360D160516B11F04503FBD0936307
:1032C00011F0050303D1526918463260F8BD284653
:1032D000FFF7A6FF0120F8BD00000000000000007D
:1032E00010B5074C2046FDF77BFE064B0020064933
:1032F000064AA164E263C4E91003054BE36410BD10
:10330000BC0100240070005235116F02000404302B
:103310000006043000000000000000000000000073
:10332000C36A83B10379012B02D1104B98420DD0AF
:10333000436C00224FF0FF311A65DA621A605A605E
:103340005A62996370470A4BC362EBE7094BD3F8A3
:10335000D42042F48032C3F8D420D3F8FC2042F4C5
:103360008032C3F8FC20D3F8FC30E1E7BC01002434
:103370002859000800440258000000000000000026
:103380000D4BD0E9112110B4994212D90B4BC46AEC
:103390000B440B4861681B0AA0FB030301EB1313EA
:1033A00053606420136810BC43F00303136001F002
:1033B0001FBDC36A5B68F3E7801A0600FF340C0088
:1033C000598B4F01000000000000000000000000C9
:1033D0000129164B816C30B4446C17D0144A6568CF
:1033E000914203EA05030ED9124AC56A0A441248FB
:1033F0006968A0FB020201EB1262134343F480539D
:10340000636030BC7047C26A5268F6E70B4A656871
:10341000914203EA0503F6D9094AC56A0A440648F7
:103420006968A0FB020201EB5262E6E700ECFFFFD5
:1034300040787D017FF0FA02893BE65580F0FA0280
:10344000FFE0F505000000000000000000000000A3
:103450000022436C5A601A60704700BF00000000F1
:10346000426C0129536823F4404307D0022901D05C
:1034700011B1704743F400435360704743F48043F5
:1034800053607047000000000000000000000000D2
:10349000406C41F480518260C160436B1B06FCD5D7
:1034A00080238363704700BF00000000000000001D
:1034B00010B541F48851446CA260E160616B11F079
:1034C0004502FBD0A26311F0040203D161691046EA
:1034D000196010BDFFF7A4FE012010BD0000000020
:1034E00010B541F48851446CA260E160616B11F049
:1034F0004502FBD0A26311F0050203D161691046B9
:10350000196010BDFFF78CFE012010BD0000000007
:1035100010B541F49851446CA260E160616B11F008
:103520004502FBD0A26311F03F0209D1216A104687
:103530001960E2695A60A2699A606269DA6010BD36
:10354000FFF76EFE012010BD00000000000000002B
:103550002DE9F843164698460F4637490546D0E907
:1035600011245368C3F3090301335B00B4FBF3F484
:10357000A1FB041442F21073A40903FB04F4546287
:10358000FDF7FEFC00282ED16C6C012248F4885314
:103590008146A76522654FF0FF32E86CA2634FF4C5
:1035A0009572E26342F20702A662E262089AA260A2
:1035B000E360616B11F04503FBD011F0050FA363CD
:1035C00029D162691D4B0260134073B1616B002306
:1035D0004FF001092846A1632365E362FFF720FE4F
:1035E0004846BDE8F8836C6CF0E7302383F311881C
:1035F0006B6CDA6BBAB900221A65DA63DA62596B5E
:1036000011F480710BD04FF0FF31996382F3118870
:103610004846BDE8F8832846FFF702FED6E781F367
:1036200011886C6CD2E74FF0FF3105F1400001F0DA
:10363000EFFB6B6CDFE700BFD34D621008E0FFFDCE
:103640002DE9F84316469846DFF860C10D4642F270
:1036500010710746D0E911245368C3F309030133FD
:103660005B00B4FBF3F4ACFB04C4A40901FB04F459
:103670005462FDF785FC814610B14846BDE8F883E9
:103680007C6C0123A66523654FF0FF33FE6CA363BA
:103690004FF49573E3634FEA4823A3623B6BDB0669
:1036A00058BF6D02B8F1010FA56024D941F2121381
:1036B000E360616B11F04503FBD011F0050FA363CC
:1036C0003FD163693A4D33601D40002D3CD142F239
:1036D0009303324641463846E362FFF7C1FD0028B6
:1036E000CBD07C6C3846FE6C616BA1632565E562CE
:1036F000FFF796FD30E041F21113E360616B11F0CA
:103700004503FBD011F0050FA36339D16369284D40
:1037100033601D40002D36D142F2930332464146BC
:103720003846E362FFF79CFD03460028A5D07A6C7B
:1037300038469946516B91631565D562FFF770FD68
:103740009BE73846FFF76CFD616B00233846A163A9
:103750002365E362FFF764FD002241F20C13A260CF
:10376000E360616B11F04503FBD011F0050FA3631B
:1037700016D163694FF0010933604846BDE8F8830C
:103780003846FFF74DFD616B00234FF001093846C5
:10379000A1632365E362FFF743FD4846BDE8F88374
:1037A00038464FF00109FFF73BFD66E7D34D621045
:1037B00008E0FFFD00000000000000000000000025
:1037C0002DE9F84316469846DFF860C10D4642F2EF
:1037D00010710746D0E911245368C3F3090301337C
:1037E0005B00B4FBF3F4ACFB04C4A40901FB04F4D8
:1037F0005462FDF7C5FB814610B14846BDE8F88329
:103800007C6C0123A66523654FF0FF33FE6CA36338
:103810004FF48D73E3634FEA4823A3623B6BDB06EF
:1038200058BF6D02B8F1010FA56024D941F21913F8
:10383000E360616B11F04503FBD011F0050FA3634A
:103840003FD163693A4D33601D40002D3CD142F2B7
:103850009103324641463846E362FFF701FD0028F6
:10386000CBD07C6C3846FE6C616BA1632565E5624C
:10387000FFF7D6FC30E041F21813E360616B11F002
:103880004503FBD011F0050FA36339D16369284DBF
:1038900033601D40002D36D142F29103324641463D
:1038A0003846E362FFF7DCFC03460028A5D07A6CBB
:1038B00038469946516B91631565D562FFF7B0FCA8
:1038C0009BE73846FFF7ACFC616B00233846A163E9
:1038D0002365E362FFF7A4FC002241F20C13A2600F
:1038E000E360616B11F04503FBD011F0050FA3639A
:1038F00016D163694FF0010933604846BDE8F8838B
:103900003846FFF78DFC616B00234FF00109384604
:10391000A1632365E362FFF783FC4846BDE8F883B3
:1039200038464FF00109FFF77BFC66E7D34D621084
:1039300008E0FFFD000000000000000000000000A3
:1039400012F0030F22D02DE9F0411F46D3B10646F5
:1039500015460C460F4404E0F16BFCF747FDA74207
:1039600010D021460123F26B3046FFF769FE4FF479
:1039700000720346013428461544002BECD018464B
:10398000BDE8F08100231846BDE8F081FFF758BE7E
:1039900012F0030F1FD02DE9F0411F46C3B10646B8
:1039A00015460C460F4401E0A74211D04FF40072B7
:1039B0002946F06B1544FCF719FD21460123F26BF3
:1039C00030460134FFF7FCFE0028EDD0BDE8F08161
:1039D0000020BDE8F081FFF7F3BE00BF000000004B
:1039E0000020704700000000000000000000000000
:1039F000302310B583F311880024436C40302146F6
:103A0000DC6301F015FA84F3118810BD000000009A
:103A10000022124B0A604A60426910B413404024ED
:103A200042780C6143F440434FF0FF348C618B606B
:103A300042B1836910BC23F4C023CB6040F2011370
:103A40000B6070478269064B10BC134043F0015372
:103A5000CB6040F201130B60704700BF1F3EFFFFB9
:103A6000FFFFB9DF000000000000000000000000C0
:103A700090F8203010B4002B34D0836AD3E9004191
:103A80000A6822F00F020A60197A0E23426A03FACA
:103A900001F161605468216821F00F012160117A01
:103AA00012688B405360474B98423AD0464B98423D
:103AB0004BD0464B98425CD0454B98426DD0454B1D
:103AC000984251D1444BD3F89C2042F02002C3F8D5
:103AD0009C20D3F89C2022F02002C3F89C20D3F82D
:103AE0009C3041E0846A2268136823F01F0313604E
:103AF0001368D907FCD4227B3D23416A9340646854
:103B00000A682360136823F01F0313601368DB0740
:103B1000FCD40C7B3D234A68A3401360294B984298
:103B2000C4D12D4BC169D3F89820406842F480522B
:103B300010BCC3F89820D3F8982022F48052C3F820
:103B40009820D3F89830FFF763BF234BD3F8902029
:103B500042F48042C3F89020D3F8902022F48042AF
:103B6000C3F89020D3F89030C16910BC4068FFF7CB
:103B70004FBF194BC169D3F89020406842F400420E
:103B800010BCC3F89020D3F8902022F40042C3F870
:103B90009020D3F89030FFF73BBF0F4BC169D3F8AB
:103BA0009820406842F4801210BCC3F89820D3F8E3
:103BB000982022F48012C3F89820D3F89830FFF7A9
:103BC00027BF00BF0C020024480200248402002406
:103BD000C0020024FC02002400440258000000003F
:103BE00010B5164C164800F083FDE269536911695F
:103BF0000B4093615B0606D4114800F091FDBDE8CF
:103C0000104001F09DBA2046FFF732FF63689B68C1
:103C10000BB120469847302383F311886FF01201CF
:103C2000084801F005F9002383F31188044800F0E7
:103C300077FDBDE8104001F083BA00BF0C020024FC
:103C40006059000814020024000000000000000079
:103C500010B5164C164800F04BFDE2695369116926
:103C60000B4093615B0606D4114800F059FDBDE896
:103C7000104001F065BA2046FFF7FAFE63689B68C2
:103C80000BB120469847302383F311886FF012015F
:103C9000084801F0CDF8002383F31188044800F0B0
:103CA0003FFDBDE8104001F04BBA00BF48020024C0
:103CB00054590008500200240000000000000000D9
:103CC00010B5164C164800F013FDE26953691169EE
:103CD0000B4093615B0606D4114800F021FDBDE85E
:103CE000104001F02DBA2046FFF7C2FE63689B68C2
:103CF0000BB120469847302383F311886FF01201EF
:103D0000084801F095F8002383F31188044800F077
:103D100007FDBDE8104001F013BA00BF8402002483
:103D2000485900088C020024000000000000000038
:103D300010B5164C164800F0DBFCE26953691169B6
:103D40000B4093615B0606D4114800F0E9FCBDE826
:103D5000104001F0F5B92046FFF78AFE63689B68C2
:103D60000BB120469847302383F311886FF012017E
:103D7000084801F05DF8002383F31188044800F03F
:103D8000CFFCBDE8104001F0DBB900BFC002002449
:103D90003C590008C8020024000000000000000098
:103DA00010B5164C164800F0A3FCE269536911697E
:103DB0000B4093615B0606D4114800F0B1FCBDE8EE
:103DC000104001F0BDB92046FFF752FE63689B68C2
:103DD0000BB120469847302383F311886FF012010E
:103DE000084801F025F8002383F31188044800F007
:103DF00097FCBDE8104001F0A3B900BFFC0200240D
:103E000030590008040300240000000000000000F6
:103E10002DE9F0412D4D0024DFF8B48028462D4FC8
:103E2000FDF7A6F92C4B85F820400A21EB612320F1
:103E30006C622F63294EC5E90A48294DFDF730FF12
:103E40002846FDF795F9274B85F820400A21EB61BC
:103E500024206C622F63C5E90A48234DFDF720FF3B
:103E60002846FDF785F9214B0A213320EB6185F8BF
:103E700020406C622F63C5E90A48FDF711FF304608
:103E8000FDF776F91A4D1B4B0A21552086F8204084
:103E9000F36174623763C6E90A48FDF701FF2846FB
:103EA000FDF766F90123144941F20A0285F8203032
:103EB00041F21803E96156206C620A212B63C5E9BF
:103EC0000A42BDE8F041FDF7EBBE00BF0C02002442
:103ED000160001004600010000300140C00200242D
:103EE000480200240038004084020024003C0040C6
:103EF000FC020024005001400014005800000000A3
:103F0000124A4FF080430021D2F8E80040F001004F
:103F100030B4C2F8E80044F61F65D2F810010C4C2A
:103F200040F00100C2F810010120D2F81021E26B2C
:103F30000243E2634FF0FF329D62DA629961596396
:103F4000D96059605861186030BC7047004402580D
:103F50000010005C000000000000000000000000F5
:103F60004FF0804208B51169D3680B40D9B29B0766
:103F70006FEA0101116100D408BD302383F3118879
:103F800000F02EFB002383F3118808BD0000000021
:103F9000024A136843F0C0031360704700100140E9
:103FA000024A136843F0C00313607047005000409A
:103FB00070B5194D82B0194C2846194EFDF790F88E
:103FC00005F10C000023102216490095FCF708FCAF
:103FD0001022154905F13000144B0095FCF798FCB0
:103FE000134B2046C5E91536FDF77AF804F10C00AD
:103FF000002310220F490094FCF7F2FB0E4B102215
:104000000E4904F130000094FCF782FC0C4BC4E92B
:10401000153602B070BD00BF380300249803002499
:1040200000E1F505F803002418040024913F00087E
:104030000010014008040024A13F000828040024C7
:1040400000500040000000000000000000000000E0
:104050002DE9F041002936D0037A40F22D16D1E93E
:1040600000C2D1E90275012B46EA02064FEA5C0361
:1040700047F0400745F0010502F4004E02F480616C
:1040800045D0846D2344446DB3FBFCF3BEF1000FB7
:1040900005D023F0070C03F0070343EA4C03E36069
:1040A0004FF0FF336760A5602660236209B312F00A
:1040B00010224AD0B2F1805F14BFFF233F2380F863
:1040C0005C30BDE8F081057A012D17D0836D402466
:1040D0002C4903F59643426DA1FB031340F22D11C9
:1040E0001B0BD3600123546093604FF0FF331160CA
:1040F0001362FF2380F85C30BDE8F08140F22D169A
:1041000040278E460A464FF496434FF4164C1E4CF9
:10411000A0421FD01D4CA042B3D11D4CD4F8E88062
:1041200048F48018C4F8E880D4F8108148F4801866
:10413000C4F81081D4F81041846D2344446DB3FB5E
:10414000FCF3BEF1000FA4D1A9E77F2380F85C3017
:10415000BDE8F0810E4CD4F8F08048F01008C4F8A7
:10416000F080D4F8188148F01008C4F81881D4F809
:104170001841846D2344446DB3FBFCF3BEF1000F82
:1041800087D18CE7B5814E1B3803002498030024A7
:104190000044025800000000000000000000000081
:1041A0002DE9F047456D0646EC6922072C6256D191
:1041B000E20548D4A00610D54FF03008002788F358
:1041C00011886B6A304696F85C101940FCF7A8FF1E
:1041D00087F31188EC69A306F1D4D5F800A01AF092
:1041E000800F1DD021061BD506F1300830274FF077
:1041F000000905E0A86289F31188EC6922060FD551
:1042000087F311884046FCF7C3FB0028F2DA082147
:10421000301D00F08DFE2AF0800A002383F3118800
:104220001AF0400F0BD0630609D5302383F31188B1
:10423000D6E911239A422DD0002383F31188C5F8C3
:1042400000A0BDE8F087302383F311884FF480612C
:10425000301D00F06DFE002383F31188AAE7C4F33C
:10426000C001E3074FF030034FEA012148BF41F09E
:104270002001A70748BF41F04001600748BF41F057
:10428000800183F31188301D00F052FE002383F378
:1042900011888DE7B36B002BCED01021301D2AF092
:1042A000400A00F045FEC7E70000000000000000E3
:1042B00070B543680C460868134A4968134D6E6828
:1042C00018609960586044F62060D960136843F024
:1042D000004313601123336100F08AF9A3680C488E
:1042E000E66803F4F071034043F6FE706A6841F03B
:1042F00013011224304043F0140314611161116161
:104300001361506170BD00BF0040005238040024AA
:1043100000FE3F0000000000000000000000000060
:104320006A4A40F2FF700023D2F88810014330B48B
:10433000C2F88810664CD2F88810664D0C40664969
:10434000C2F88840D2F88840D2F8E0400443C2F86E
:10435000E040D2F8084104436048C2F80841802494
:10436000D2F808214FF4C0424B608D60CB604A61A7
:104370000A225B4D0A625B4A4A625B4A0A605B4AF8
:10438000436082605A4AC36044610262594A426291
:10439000594A02605948C1F80438C1F80808584819
:1043A000C1F80C38C1F81438C1F82038C1F8240815
:1043B0005448554AC1F80008402054495360916060
:1043C0005349D3605061116201F1F8415162514982
:1043D000116002F580625049536091600421D360FE
:1043E00051614E4911624FF0CC31516201F15E4191
:1043F000A1F50811A1F6F24111604949C2F804344F
:10440000C2F80814C2F80C34C2F814044548C2F8C3
:1044100020546FF4D575C2F82404A0F10950424924
:10442000A0F50930284444F6F045C2F8000402F52E
:1044300040623E484B6088604FF48060CB604861CA
:104440003B4808623B484862A0F1D550A0F5D41023
:10445000A0F27250086053609560D3605461364C8E
:1044600036481462364D374C536214604FF0FF34B7
:1044700043608560A5F1AB45C360A5F5DD154361DB
:10448000A5F67C750562304D43620560C1F8043CB9
:10449000C1F8083CC1F80C3CC1F8143CC1F8203C00
:1044A000C1F8243CC1F8004CC2F8043CC2F8083CF6
:1044B000C2F80C3CC2F8143CC2F8203CC2F8243CC0
:1044C000C2F8004C30BCFDF7EBBC00BF0044025802
:1044D00000F8FFFF1714FD3F0000025800040258C7
:1044E000CCCCCC5070A70A00D6D7A8EAC04F00FFAA
:1044F00000606600000088CCBF7AFFAA0000FF07BA
:10450000CCCC0C00FFFFAAF2000C02583FD07FF089
:10451000CC0C0050EA9F6AAF1FC0FFFFCC0000C068
:10452000FFDFDFFF55C0CCCC001802583F1FDFFF74
:10453000CC0CCC005C5055C500CCC000002002580B
:10454000CCFF4500AF7BFFFFBBAA71FF000000005E
:104550000120704700000000000000000000000083
:104560000020704700000000000000000000000074
:10457000704700BF000000000000000000000000C5
:1045800030B587B0114D00230122684604242A70FB
:10459000C5E9013300F084FC684600F091FC6846F0
:1045A00000F096FC013CF7D1009BAB6000F0F0FC02
:1045B00000F036FD00F054FD0549064800F028FBE8
:1045C00002232B7084F3118807B030BD000E002445
:1045D00070590008400400240000000000000000A2
:1045E00000F096B90000000000000000000000008C
:1045F000034A516853685B1A9842FBD8704700BF62
:10460000001000E0000000000000000000000000BA
:10461000024A536B03435363704700BF40040024B6
:1046200038B50C4CD4F88C50FCF752F8D4F88C30D8
:1046300004F50961084A686050681A6860F31F222F
:1046400043F8102B04F190028B4228BF1346C4F8A4
:104650008C3038BD40040024001000E00000000051
:1046600002460749002342F8081B426000EB031290
:104670000133117A802B6FF302011172F6D170476A
:10468000FFFF8000000000000000000000000000AC
:10469000094BB3F88820D20700D5704790F8242042
:1046A00010B4D3F88C40D30043F00103C4E90201F5
:1046B000237010BCFFF7B4BF4004002400000000CA
:1046C0000A4BB3F88820920700D5704710B491F8D0
:1046D0002420D3F88C40D300896A43F00203C4E954
:1046E0000201237010BCFFF79BBF00BF40040024F1
:1046F0000A4AB2F8883010B513F0040400D010BD97
:10470000302383F311880321D2F88C30197098601C
:10471000FFF786FF84F3118810BD00BF400400241A
:104720000A4AB2F8883010B513F0040400D010BD66
:10473000302383F311880421D2F88C3019709860EB
:10474000FFF76EFF84F3118810BD00BF4004002402
:10475000F8B51446144D03460E4605F11002022C1E
:10476000E9614FF00207846038BF022442602A6981
:104770000260506008192B61FBF7B2FFFBF7A8FF3E
:10478000821B0346A24207D2022F00D8F8BD0120A7
:10479000BDE8F840FFF73CBF7C1C301927461E4699
:1047A000FBF7AEFFEAE700BF400400240000000072
:1047B0002DE9F843DFF89C9007460E46FBF788FF8B
:1047C0004B46804653F8105F9D4237D0D9F81C40C5
:1047D000AB68041B341928BF3446A34215D89C4249
:1047E00004D92D68E41AAB68A342FAD36B684FF082
:1047F000FF32BC60C7E900531F60AB686F601B1BD2
:10480000AB60C9F81820BDE8F883022E4FF002050E
:1048100038BF022608EB0600FBF772FFFBF758FFD4
:10482000A0EB0808464510D9022D03D8D9F810503E
:10483000AB68D4E70120FFF7EBFEF7E7324601460D
:104840003846BDE8F843FFF783BF013580462E4662
:10485000E0E700BF4004002400000000000000006A
:1048600003610023C2604361FFF7A2BF00000000A4
:1048700070B5234C236998420DD00368D0E901211B
:1048800013605A609A680A4400219A604FF0FF331F
:104890000160A36170BD02682346002143F8102F18
:1048A0005360016022699A4221D0936881680B4469
:1048B0009360FBF70DFFE56923690446421B9B6883
:1048C0009342E7D91D4402262D1AB54238BF35461A
:1048D0006019FBF715FFFBF7FBFE041BA5420AD985
:1048E000022ED7D90120BDE87040FFF791BEBDE888
:1048F0007040FBF7FDBE013604463546E8E700BFD1
:10490000400400240000000000000000000000003F
:104910002DE9F84F3C4E00274FF0300906F1100802
:1049200009E087F31188D4E903312046984789F3D9
:1049300011886369ABB93469FBF7CAFEF3690546B0
:10494000A268C11A8A422CD89D18D4E90010F561DA
:1049500001604860276033694345E2D1FBF7C8FE38
:10496000DFE7FBF7B5FE6369A0EB050B82465B450D
:104970002FD3316941453DD08A68934204D90968F3
:104980009B1A8A689A42FAD34A68A360C4E9001263
:1049900014608A684C60D21A4FF0FF338A60B361AA
:1049A000C9E73169414512D013440227F0611B1A4F
:1049B000BB421E46A36038BF3E46A819FBF7A0FEC7
:1049C000FBF786FE451BAE4210D9022F09D8BDE881
:1049D000F88F0220FFF71CFE3169414512D05B467B
:1049E000CAE70120BDE8F84FFFF712BE01370546C0
:1049F0003E46E2E72B441A1A51462046BDE8F84FDE
:104A0000FFF7A6BE0022F7E74004002400000000E4
:104A100010B530230C4683F3118891F824300C2B09
:104A200010D8DFE803F02B0F0F270B070F0B0F0F2A
:104A30000F0F0B008A6A936801339360D4E9003248
:104A400013605A604FF0FF312046A162FFF720FE4D
:104A50000022A369A16884F824201B689A688A420E
:104A6000FBD25A6800212360626014605C6081F3AD
:104A7000118810BD8B6A00221A60E3E7002383F3DC
:104A8000118810BD000000000000000000000000C0
:104A900010B50446816AFFF7FBFD0022A369A168F7
:104AA00084F824201B689A688A42FBD25A68204600
:104AB0002360626014605C6010BD00BF00000000F5
:104AC00038B50B4B01211C68DD6885F824002046B1
:104AD000226853601A6084F824102946DC60FFF7CE
:104AE000EFFD29462046BDE83840FBF769BC00BF12
:104AF000400400240000000000000000000000004E
:104B0000F0B54B1C1C4C87B00546E6681FD03346F9
:104B10001A4A6846FFF7A4FEE768012287F8245086
:104B2000394625682B6828465C6085F82420236078
:104B3000E560FFF7C5FD39462846FBF741FC009BC1
:104B400013B16846FFF794FEB06A07B0F0BD27685E
:104B5000012286F8240031463B6838465C6087F8BD
:104B600024202360E760FFF7ABFD38463146FBF7B2
:104B700027FCB06A07B0F0BD40040024114A0008C9
:104B8000044B1A68DB6890689B68984294BF0020C9
:104B900001207047400400240000000000000000D5
:104BA00038B5134B01211D68DC682A682046536024
:104BB0001A6085F82410A16ADD60FFF769FD002204
:104BC000A369A16884F824201B689A688A42FBD8EC
:104BD0005A68214623602846626014605C60FFF7D3
:104BE0006FFD21462846BDE83840FBF7E9BB00BF12
:104BF000400400240000000000000000000000004D
:104C0000FEE700BF00000000000000000000000000
:104C100070B5214B0025044686B081630E460563BE
:104C2000586000F05DFA04F1100304F12802A56059
:104C30006563C4E904334FF0FF33C4E90A22C4E9D1
:104C40000635C4E90044FBF743FD2B46024604F158
:104C50008800C4E90823C4F88450FFF701FD04F17B
:104C60003C0180230D4A204600F022F80122034631
:104C7000716803926846E36083F82420084A196249
:104C80000092084B05950493D6E90312CDE9011271
:104C900000F076F806B070BD000E00248C590008B4
:104CA00084590008014C00080000000000000000CA
:104CB00010B400248B60CA6101F110028C6388611A
:104CC000C1E90F43022401238C8400F1280481F8F8
:104CD0002630C36AC1E904431A6001F12C0401F1D2
:104CE0003003C26208464B63C1E90B4310BC7047F6
:104CF00070B5D0E90234456800211D4A4FF0020E1C
:104D000043F8285C4FF0010C05691A4E43F86C5CBF
:104D1000456943F84C6C43F8685C0568A3F13800BA
:104D200003F8231C03F824EC03F822CC43F8404C8E
:104D300043F8084CD46A43F82C5CA3F16C0543F8A3
:104D4000344C43F83C5C02F1280543F8302C43F81E
:104D5000385C43E904112060A3F11801A3F11C049D
:104D6000D062A3F1480043F8141C43E9074170BD29
:104D700040040024D10300080000000000000000EF
:104D800008B5FFF7B5FFBDE80840FFF781BE00BFDB
:104D900038B5302383F31188124BDC6804F12C05FD
:104DA000E36AA0629D4207D194F8263083B10F20B8
:104DB000BDE83840FFF784BE1A681846E262FFF784
:104DC00067FEE36AAB42F7D194F82630002BEED1B0
:104DD00094F825309B07EAD1D4E9043213605A6075
:104DE000E5E700BF400400240000000000000000D0
:104DF00008B50146302383F311880820FFF780FEB1
:104E0000002383F3118808BD0000000000000000AB
:104E1000054A0346D26821B1026003209362FFF77E
:104E20006FBE4FF0FF3070474004002400000000C8
:104E30000346006820B100221A608162FFF728BE95
:104E4000704700BF000000000000000000000000EC
:104E5000084AD26851B1034610B444681060042077
:104E60005460226010BC5A60FFF74ABE4FF0FF301A
:104E7000704700BF40040024000000000000000054
:104E800003460068834205D002681A60536081625D
:104E9000FFF7FEBD704700BF0000000000000000EB
:104EA00030B40023002400254FF0FF32C0E9044550
:104EB000C0E9002330BCC0E90233704700000000A5
:104EC000014B5B6883607047001000E00000000049
:104ED0000E4A0F4B81685B6810B4946802691B1B13
:104EE000C4685B1A41690134D218026141F10001C2
:104EF000426841619342026888BF43609342C0E9BF
:104F0000023438BF036010BC704700BF000E00249D
:104F1000001000E0000000000000000000000000A1
:104F20000023C0E900008360704700BF000000005C
:104F3000F8B50468A04221D007460D46002604E0DB
:104F40000B2A1CD02468A74218D0E3682B43E360E7
:104F500015B123691D42F5D0D4E90103816B90F8A6
:104F600024200B430A2A8363EAD1826A1342E9D0E0
:104F70008662FFF78DFD2468A742E6D1F8BD826AFC
:104F80009A43DFD1F4E700BF0000000000000000FA
:104F9000024B0349034AC3E9001270470C0E002478
:104FA000800E002400000824000000000000000023
:104FB000084B494210B45C68201A08401968821AEC
:104FC0008A4204D3A24202D810BC5A607047002023
:104FD00010BC70470C0E0024000000000000000010
:104FE000302310B483F311880B4B49425C68201ABC
:104FF00008401968821A8A4207D3944205D35A603E
:10500000002383F3118810BC70470020002383F332
:10501000118810BC704700BF0C0E00240000000077
:10502000044B0022044903F10C009A60C3E900120A
:10503000FFF776BF140E0024E14F000800000000C7
:1050400010B40024C0E90223C0E9004110BC70473D
:105050000022FFF7ADBF00BF00000000000000000D
:1050600038B5124C124D2046FFF75AFF04F11001DB
:105070002B460422216114216018FFF7E1FF04F19F
:10508000240004F128012B460422C4E909011C2153
:1050900004F12C00FFF7D4FF04F13C0104F14002BD
:1050A00004F14403C4E90F12636438BD300E0024D8
:1050B0005150000800000000000000000000000047
:1050C000EFF30983203383F30988002383F31188E6
:1050D000704700BF0000000000000000000000005A
:1050E0004FF0300C00B58CF3118862B60E4B4FF6C2
:1050F000FF0E0E49D8680E4A00EA0E0001430D4823
:10510000D960D3F8FC1041F08071C3F8FC10C2F8EC
:10511000B00F2020116841F001011160D87783F8A9
:1051200022C05DF804FB00BF00ED00E00003FA05BB
:10513000001000E055CEACC50000000000000000EB
:10514000302383F311880D4B5B6813F4006302D1A5
:1051500083F31188704710B5EFF309844FF0807323
:10516000203CE36184F30988FFF70AFD10B1044B8A
:10517000A36110BD034BA36110BD00BF00ED00E0B3
:10518000E3030008E6030008000000000000000040
:1051900038B5FBF77DFAFFF7F3F960496048FBF794
:1051A000AFFF00F0F5F840B95E495D48FCF768FDD7
:1051B00042F21070FFF71CFEFAE75B495848FCF713
:1051C0005FFD5A495648FCF75BFD00F029F9584944
:1051D0005348FCF755FD5749002000F031F90020F5
:1051E00000F036F9544B0246984208D053494C48D7
:1051F000FCF746FD42F21070FFF7FAFDFAE750495E
:105200004748FCF73DFD4F494548FCF739FD4E4BFB
:10521000002203F8012F0132B2F5007FF9D10021FD
:105220004A4800F01DF94A493D48FCF729FD002194
:105230004848FBF7E5FE48493948FCF721FD454859
:10524000FBF70EFD044660B14248FBF7E9FE434917
:1052500002463348FCF714FD42F21070FFF7C8FD18
:10526000FAE73F492E48FCF70BFD3E492C48FCF776
:1052700007FD214601233C4A3648FBF7A9FC0446BA
:1052800010BB3A492648FCF7FBFC304A0123214673
:105290003048FBF785FC024618BB2C4BA3F5007188
:1052A00003E00132B2F5007F28D013F801CB11F8EA
:1052B000010B8445F5D02E491948FCF7E1FC42F278
:1052C0001070FFF795FDFAE72248FBF7A9FE294980
:1052D00002461348FCF7D4FC42F21070FFF788FD39
:1052E000FAE71C48FBF79CFE234902460C48FCF7F2
:1052F000C7FC42F21070FFF77BFDFAE7084C1F492C
:1053000020461F4DFCF7BCFC29462046FCF7B8FCA4
:1053100042F21070FFF76CFDF6E700BF485B000833
:1053200038030024B8590008CC590008D85900089F
:10533000E85900084433221122114433045A00086A
:10534000245A0008345A0008FFFF033000020430DA
:10535000645A0008BC010024745A0008845A0008EA
:10536000A45A0008B45A000800000430E45A0008A7
:10537000145B0008C85A0008F85A0008305B00089F
:10538000405B00080000000000000000000000007A
:105390001D4B187898BB1D49012230B41C4C1A7063
:1053A000091B1F2929D920292AD0082220235B0084
:1053B00001329942FBD842F40022164B012000250D
:1053C000596A21F4803159624FF04041C3F894503A
:1053D000C3F89800C3F89C100F49C3F8A01003212C
:1053E000C3F898100521C3F89C40C3F8A020C3F867
:1053F00094105A6A42F480325A6230BC7047704747
:105400004FF00812D9E700BF780E002404060430DC
:105410000000043000ED00E0300008000000000053
:1054200008B5FCF7D5F903490348BDE80840FCF787
:10543000DFB900BF585B00083804002400000000FA
:1054400080004FEA314100F140400160704700BFE9
:10545000800000F1404000684FEA3040704700BFD4
:10546000830730B548D0541E002A3FD0CAB2034645
:1054700001E0013C3AD303F8012B9D07F9D1032C3D
:105480002DD9CDB245EA05250F2C45EA054536D97B
:10549000A4F1100222F00F0C03F1200EE6444FEAB3
:1054A000121C03F1100242E9045542E90255103280
:1054B0007245F8D10CF1010214F00C0F03EB02124B
:1054C00004F00F0C13D0ACF1040323F003030433F6
:1054D000134442F8045B9342FBD10CF003042CB15B
:1054E000C9B21C4403F8011B9C42FBD130BD644689
:1054F0001346002CF4D1F9E703461446BFE71A46D9
:04550000A446E0E7F6
:10550400685B00087C0E00247C0E00247C0E0024C2
:10551400685B00080000003000000030000000302C
:10552400685B00080000003000000030000000301C
:10553400685B0008040604300406043004060430E2
:10554400685B0008000000380000003800000038E4
:10555400685B000800080020000800200008002004
:10556400685B00080000000000000000000000006C
:10557400685B000800008038000080380000803834
:10558400000000005145000861450008610C000856
:10559400210C0008A10B0008D10B0008010C000825
:1055A400310B0008000000007110000851100008C1
:1055B400B110000891100008A11000088110000823
:1055C4006110000841100008C1100008000000002C
:1055D4000100000000000000566563746F723130F2
:1055E40030000000286E756C6C29000056656374E9
:1055F4006F72423000000000566563746F7231317F
:1056040034000000566563746F7244340000000077
:10561400566563746F7231303400000056656374EC
:105624006F72383800000000566563746F7232364A
:1056340030000000566563746F7232354300000019
:10564400566563746F7232353800000056656374B2
:105654006F72323534000000566563746F723235F0
:1056640030000000566563746F72323443000000EA
:10567400566563746F723234380000005665637483
:105684006F72323434000000005402580854025837
:105694000000000000580258008100000054025825
:1056A4001C540258040000000458025801820000EF
:1056B4000054025830540258080000000858025898
:1056C4000283000000540258445402580C000000A5
:1056D4000C580258038400000054025858540258CD
:1056E40010000000105802580485000000540258AD
:1056F4006C54025814000000145802580586000027
:1057040000540258805402581800000018580258D7
:105714000687000000540258945402581C000000EC
:105724001C58025807880000566563746F7231353F
:1057340038000000566563746F7231353400000020
:10574400566563746F7238300000000056656374E8
:105754006F72374300000000566563746F72373808
:1057640000000000566563746F7237340000000057
:10577400566563746F7237300000000056656374B9
:105784006F72364300000000566563746F723135E2
:1057940030000000566563746F72313330000000CE
:1057A400566563746F72313243000000566563744A
:1057B4006F72313238000000566563746F72313293
:1057C40034000000566563746F723132300000009B
:1057D400566563746F724643000000005665637437
:1057E4006F723834000000001000024008000240CC
:1057F4000008024000000B0028000240080002409C
:105804000408024006010C00400002400800024067
:105814000808024010020D0058000240080002402F
:105824000C08024016030E00700002400C000240F7
:105834001008024000040F00880002400C000240DF
:105844001408024006051000A00002400C000240AB
:105854001808024010061100B80002400C00024073
:105864001C08024016072F001004024008040240DE
:1058740020080240000838002804024008040240BE
:10588400240802400609390040040240080402408A
:1058940028080240100A3A00580402400804024052
:1058A4002C080240160B3B00700402400C0402401A
:1058B40030080240000C3C00880402400C04024002
:1058C40034080240060D4400A00402400C040240C7
:1058D40038080240100E4500B80402400C0402408F
:1058E4003C080240160F4600566563746F723144DB
:1058F400340000000000000051120008D115000817
:10590400A116000840004000A4010024A4010024C2
:1059140001000000B40100248000000040010000E8
:1059240008000000010000000000000056656374D8
:105934006F72313938000000566563746F72313903
:1059440034000000566563746F7231304300000008
:10595400566563746F7244300000000056656374CA
:105964006F72434300000000633000006C5900086C
:105974000000000000000000D00C0024000E0024F1
:1059840069646C65000000006D61696E002C053867
:10599400040448080C10141C2024252600000000D0
:1059A400000024040100040000000000000C0010AA
:1059B400283034004D505520696E697420464149A1
:1059C4004C45440D0A0000004D5055204F4B0D0A24
:1059D40000000000534452414D20696E69742E2E1C
:1059E4002E0D0A00534452414D2074657374207780
:1059F400726974652F726561642E2E2E0D0A000083
:105A0400534452414D2074657374204641494C45BA
:105A1400443A2030782530386C580D0A00000000D4
:105A2400534452414D2074657374204F4B0D0A004A
:105A34000D0A3D3D3D2053444D4D433120544553C3
:105A44005420284837202B2053444D4D4376322090
:105A54002B204D505529203D3D3D0D0A00000000EE
:105A640073646353746172742E2E2E0D0A00000049
:105A7400736463436F6E6E6563742E2E2E0D0A007D
:105A8400736463436F6E6E656374204641494C458D
:105A9400443A2030782530386C580D0A0000000054
:105AA400736463436F6E6E656374204F4B0D0A001D
:105AB40057726974696E67204C4241302E2E2E0D48
:105AC4000A00000073646357726974652046414993
