:020000040800F2
:1000000000040020B9030008BB030008BB0300087C
:10001000BB030008BB030008BB030008BB030008C8
:10002000BB030008BB030008BB030008C142000873
:10003000BB030008BB030008BB030008BB030008A8
:10004000BB030008BB030008BB030008BB03000898
:10005000BB030008BB030008BB030008BB03000888
:10006000BB030008BB030008BB030008611E0008B7
:10007000A11E0008E11E0008211F0008611F0008E2
:10008000A11F0008E11F0008711B0008BB03000846
:10009000BB030008BB030008BB030008BB03000848
:1000A000BB030008BB030008BB030008BB03000838
:1000B00081170008BB030008BB030008BB0300084E
:1000C000BB030008BB030008BB030008112E000897
:1000D000812E000821170008BB030008BB0300089D
:1000E000BB030008BB030008BB030008BB030008F8
:1000F000BB030008BB030008BB0300082120000865
:1001000001120008BB030008BB030008F12E000821
:10011000BB03000851170008BB030008BB0300081D
:1001200061200008A1200008E1200008212100082A
:1001300061210008BB030008BB030008BB030008E3
:10014000BB030008BB030008BB030008BB03000897
:10015000A1210008E121000821220008BB030008BA
:10016000BB030008BB030008BB030008BB03000877
:10017000BB030008BB030008BB030008BB03000867
:10018000BB030008BB030008BB030008BB03000857
:10019000BB030008612F0008D12F0008BB03000833
:1001A000BB030008BB030008BB030008BB03000837
:1001B000BB030008BB030008BB030008BB03000827
:1001C000BB030008BB030008BB030008BB03000817
:1001D000BB030008E1270008BB030008BB030008BD
:1001E000BB030008BB030008BB030008BB030008F7
:1001F000BB030008BB030008BB030008BB030008E7
:10020000BB030008BB030008BB030008BB030008D6
:10021000BB030008BB030008BB030008BB030008C6
:10022000BB030008BB030008BB030008BB030008B6
:10023000BB030008BB030008BB030008BB030008A6
:10024000BB030008211C0008611C0008A11C000859
:10025000E11C0008211D0008611D0008A11D000807
:10026000E11D0008BB030008BB030008BB03000836
:10027000BB030008BB030008BB030008BB03000866
:10028000BB030008BB030008BB030008BB03000856
:10029000BB030008BB030008BB030008BB03000846
:1002A000BB030008BB030008BB030008BB03000836
:1002B000BB030008BB030008BB030008BB03000826
:1002C000BB030008BB030008BB030008BB03000816
:1002D000BB030008BB030008BB030008BB03000806
:1002E00072B6264880F30888254880F30988254897
:1002F00025490860022080F31488BFF36F8F00F057
:100300000FF903F025F94FF0553020491B4A91426F
:100310003CBF41F8040BFAE71D49194A91423CBF22
:1003200041F8040BFAE71B491B4A1C4B9A423EBF9B
:1003300051F8040B42F8040BF8E700201849194A59
:1003400091423CBF41F8040BFAE700F039F900F0A4
:1003500027F9154C154DAC4203DA54F8041B8847B5
:10036000F9E704F015F8124C124DAC4203DA54F8D8
:10037000041B8847F9E700F01BB9000000040020C7
:10038000000800200000000808ED00E00000002048
:1003900000040020784A0008000000240000002427
:1003A00000000024280E0024E0020008E0020008FB
:1003B000E0020008E002000892E700F000F8FEE723
:1003C0002DE9F04FC1F80CD0D0F80CD0BDE8F08F7B
:1003D000002383F311882846A047002003F0E8FD9E
:1003E000FEE703F0EDFC00DFFEE70000844641EA93
:1003F000000313F003036DD1403A41D351F8043B9D
:1004000040F8043B51F8043B40F8043B51F8043BEE
:1004100040F8043B51F8043B40F8043B51F8043BDE
:1004200040F8043B51F8043B40F8043B51F8043BCE
:1004300040F8043B51F8043B40F8043B51F8043BBE
:1004400040F8043B51F8043B40F8043B51F8043BAE
:1004500040F8043B51F8043B40F8043B51F8043B9E
:1004600040F8043B51F8043B40F8043B51F8043B8E
:1004700040F8043B51F8043B40F8043B403ABDD2FD
:10048000303211D351F8043B40F8043B51F8043B9F
:1004900040F8043B51F8043B40F8043B51F8043B5E
:1004A00040F8043B103AEDD20C3205D351F8043B2E
:1004B00040F8043B043AF9D2043208D0D2071CBFFA
:1004C00011F8013B00F8013B01D30B880380604623
:1004D000704700BF082A13D38B078DD010F0030399
:1004E0008AD0C3F10403D21ADB071CBF11F8013B09
:1004F00000F8013B80D331F8023B20F8023B7BE758
:10050000043AD9D3013A11F8013B00F8013BF9D282
:100510000B7803704B7843708B788370604670471C
:1005200010B5BFF34F8FBFF36F8F1C480022C0F888
:100530005022BFF34F8FBFF36F8F436943F40033F3
:100540004361BFF34F8FBFF36F8FC0F88420BFF3B9
:100550004F8FD0F8803043F6E074C3F34E3CC3F3C2
:10056000C90E4FEA4C1C0CEA0401734641EA83723F
:10057000013BC0F860225A1CF8D1ACF1200C1CF1F0
:10058000200FF0D1BFF34F8F436943F480334361B1
:10059000BFF34F8FBFF36F8F10BD00BF00ED00E0C2
:1005A000704700BF000000000000000000000000D5
:1005B000FEE700BF00000000000000000000000097
:1005C000F8B52B4D2B4F2C4905F170042B482C4AC4
:1005D00088420DD2043A034652F8046F43F8046B84
:1005E0008B42F9D34B1E1B1A23F003030433184428
:1005F000B84207D2013F00213F1A27F0030204321C
:1006000003F046FFA54205D0D5E90420D5E9061739
:100610001035DDE71B480023C0F88430BFF34F8F4F
:10062000D0F8805043F6E076C5F34E34C5F3C905E3
:10063000640104EA06012B4641EA8372013BC0F8DB
:100640006C225A1CF8D1203C14F1200FF1D1BFF3D9
:100650004F8FBFF36F8FBFF34F8FBFF36F8F0023A9
:10066000C0F85032BFF34F8FBFF36F8FF8BD00BF9C
:1006700048450008280E0024280E0024280E0024D7
:10068000784A000800ED00E00000000000000000D3
:1006900008B501F09DF801F00BFE00F0D9F900F06B
:1006A0003FFA00F085FA00F09BFA00F0E9F900F05B
:1006B00067FD03F06DF8BDE8084000F001B800BF29
:1006C00002F036BD00000000000000000000000045
:1006D0004FF08043586A704700000000000000009F
:1006E0004FF080430021022258631961DA6070479D
:1006F0004FF080430022DA60704700BF0000000026
:100700004FF0804358637047000000000000000075
:10071000F8B51546826804460B46AA4200D28568A1
:10072000A1692669761AB54218D30AD82A4618460E
:10073000FFF75CFEE268A3682846A2615B1BA3602A
:10074000F8BDAF1B32461846FFF750FE3A4630441C
:10075000E168FFF74BFEE2683A44ECE72A461846A8
:10076000FFF744FEA2692A44E5E700BF000000004D
:10077000836893422DE9F04104460F4612D2856802
:10078000D4E90460361AB54212D318D82A4639463D
:10079000FFF72CFEE268A368284662615B1BA3603A
:1007A000BDE8F081D4E904601546361AB542ECD2B2
:1007B0002A463946FFF71AFE62692A44EBE7A5EBA1
:1007C000060832463946FFF711FE4246B919E0687D
:1007D000FFF70CFEE2684244DDE700BF00000000C6
:1007E00010B40A440024C361019B8460C16010BC42
:1007F00002610362C0E90000C0E90511704700BF53
:10080000D0E90532934211D0826810B501325C1CE8
:10081000826044611970D0E904329A4201D3C368FE
:100820004361002103F02CFC002010BD8268002AE7
:10083000EAD04FF0FF3070470000000000000000D9
:1008400070B5302305460E4683F3118803E003F0AC
:10085000FFFB002819DBAC6831462846002CF6D097
:10086000AB68A969013B4A1CAB602B69AA619A423B
:100870000C7801D3EB68AB61EB690BB12846984764
:10088000002383F31188204670BD84F3118870BD66
:100890002DE9F04F83B09A46C6693027019287F35D
:1008A0001188CAB183460D46DDF804904FF0000868
:1008B0004A4629465846FFF72BFF0446584694B14E
:1008C00006B1B04788F31188A9EB0409254487F3E2
:1008D0001188B9F1000FEBD10198002383F311883F
:1008E00003B0BDE8F08F514603F0B2FB0028DFD023
:1008F000019BA3EB0900002383F3118803B0BDE83B
:10090000F08F00BF000000000000000000000000A9
:1009100010B4C3618C18019B0461826010BCC1607B
:100920000362C0E90000C0E9051170470000000043
:10093000F8B5302304460F46164683F3118803E0CA
:1009400003F086FB002819DBA56831462046002D00
:10095000F6D06269A368511C013B6161A360177006
:10096000D4E904329A4201D3E3686361E3690BB1CD
:1009700020469847002080F31188F8BD85F3118840
:10098000F8BD00BF000000000000000000000000F3
:10099000D0E905239A4210D08268591C013210B563
:1009A000816182601C780369994201D3C3688361C5
:1009B000002103F065FB204610BD8268002AEBD0C1
:1009C0004FF0FF30704700BF000000000000000043
:1009D0002DE9F04F83B09A46C6693027019287F31C
:1009E0001188CAB183460D46DDF804904FF0000827
:1009F0004A4629465846FFF7BBFE0446584694B17E
:100A000006B1B04788F31188A9EB0409254487F3A0
:100A10001188B9F1000FEBD10198002383F31188FD
:100A200003B0BDE8F08F514603F012FB0028DFD081
:100A3000019BA3EB0900002383F3118803B0BDE8F9
:100A4000F08F00BF00000000000000000000000068
:100A500001F01EB8000000000000000000000000CF
:100A600003460022012118305A611970C3E901229E
:100A7000C3E9032203F054BB0000000000000000A3
:100A8000704700BF000000000000000000000000F0
:100A90000C30FFF7FDBE00BF0000000000000000AA
:100AA0004FF0FF330C30FFF7F3BE00BF0000000033
:100AB0003030FFF78DBF00BF0000000000000000D5
:100AC0004FF0FF333030FFF783BF00BF000000005E
:100AD0000C30FFF7B5BE00BF0000000000000000B2
:100AE0004FF0FF310C30FFF7ABBE00BF000000003D
:100AF0003030FFF71DBF00BF000000000000000005
:100B00004FF0FF323030FFF713BF00BF000000008E
:100B1000012914BF6FF0130000207047000000008F
:100B200002F05EBB000000000000000000000000BA
:100B300003460349012243F8041B027243607047D5
:100B4000C845000800000000000000000000000090
:100B500010B53023044683F3118802F091FB022381
:100B60000020237280F3118810BD00BF0000000038
:100B700038B5436904460D463BB1294604F10C00E3
:100B8000FFF73EFE00280BDB38BD0421084403F0CC
:100B9000CFFA294604F10C00FFF732FE0028F3DA01
:100BA000201D4FF40061BDE8384003F0C1BA00BF1A
:100BB00002F046BA00000000000000000000000043
:100BC0000346002201210C301970C3E9012203F011
:100BD000A7BA00BF000000000000000000000000F5
:100BE00001F0C6BB00000000000000000000000093
:100BF00001234022002110B5044600F8303B03F0E9
:100C000047FC0023C4E9013310BD00BF0000000011
:100C100070B5022300250446242203702946C0F83B
:100C200088500C3040F8045C03F032FC204684F815
:100C3000705001F0ADFB63681B6823B12946204664
:100C4000BDE87040184770BD0000000000000000C3
:100C50000378052B0DD00521426880F88C30017097
:100C6000136810B504460BB1042198470023A36014
:100C700010BD7047000000000000000000000000F0
:100C80000178052900D0704790F88CC0426880F840
:100C900000C01368002BF6D0184700BF000000000A
:100CA00070B590F87030044613B1002380F87030AE
:100CB00004F18002204601F00BFC63689B6853B38B
:100CC0002046984738B3A56F94F88030B4F8862052
:100CD000AA422CBF2A46A267190600F1DA80002A30
:100CE00000F08D801522302384F8702083F3118862
:100CF00062892046E36842F001029B696281D4E97F
:100D00001D51002419609D6021465C6001F0F0FBDC
:100D100084F3118870BD94F8803013F06006184693
:100D20001CD194F8812003F07F0545EA022540F2AA
:100D30000232954200F0518140D8B5F5807F00F035
:100D400008811DD9B5F5817F00F01281B5F5407F8E
:100D500004D194F88230012B00F0D380002120468A
:100D600001F03EFF0021204601F02AFF63681B6866
:100D700013B1062120469847062384F8703070BDD1
:100D8000012D61D0022D51D194F98430204694F880
:100D90008410002B01F00F01C0F2AC8001F078FB51
:100DA000012800F0AC800228D8D19A490223002201
:100DB000C4E91D13E26794F8803087E7B5F5006F4A
:100DC00000F0038147D9B5F5106F39D12378042B92
:100DD00000F0A18094F882304BB10421626884F85D
:100DE0008B302170136813B10221204698470023ED
:100DF00094F88000C4E91D33E367030663D40B2233
:100E0000302384F8702083F3118822890025E36859
:100E1000204642F0010229465B6922819D60C3E9B8
:100E2000005501F0FDFB85F3118870BD002D95D1B3
:100E3000022204F18801E56761671546A26745E76C
:100E400040F60242954289D1022573490022C4E945
:100E50001D15E2673AE7B5F5A06F00F09F80A5F594
:100E6000C065012D3FF67AAF61682046B4F8843042
:100E70004D6894F8822094F88310A84700283FF426
:100E80006DAF94F88030D0E90052E667C4E91D25C3
:100E90001CE7C2B10922302384F8702083F3118843
:100EA00022892046E36842F001025B692281D4E98D
:100EB0001D51002419609D6021465C6001F0B0FB6B
:100EC00084F3118870BD1422302384F8702083F3DA
:100ED000118862890025E368204642F00102294614
:100EE0009B6962819D60C3E9005501F001FB85F3B8
:100EF000118870BD01F0DCFA01287FF454AF474936
:100F000054E7B4F88830E66743F00203C4E91D668D
:100F1000A4F8883071E7302383F31188A368202276
:100F2000314604F1100003F00113A36003F0B0FA9E
:100F3000204601F0A5FA86F311880321636884F83E
:100F40008B6021701B68002B3FF444AF204698470C
:100F500040E794F88230012B7FF400AFB4F888307A
:100F6000E66723F00203C4E91D66A4F8883044E76D
:100F700094F88230002B7FF4F1AE94F8843013F0B3
:100F80000F0106D01E06204639D401F039FE94F830
:100F900080000023C4E91D33E3672EE7B4F88030F6
:100FA000B3F5A06FF5D194F88230204684F88A30EA
:100FB00001F056FA63681B6813B101212046984777
:100FC000032394F880002370E3E7012204F18B01EE
:100FD000E6671546C4E91D1278E694F88230002BC6
:100FE0007FF4BCAE94F8843013F00F01D1D01D060D
:100FF000204609D401F0E4FD94F88000C9E701F02F
:101000000FFE94F88000C4E701F0EAFD94F8800038
:10101000BFE700BFF0450008F8450008F4450008A8
:1010200038B590F870300446152B27D8DFE803F068
:101030002726262626262726260B1038262626266D
:10104000262626262727856FB0F886309D422ED388
:101050001422302384F8702083F3118862890025DC
:10106000E368204642F0010229469B6962819D6047
:10107000C3E9005501F03CFA85F3118838BD002121
:1010800001F0AEFD0021204601F09AFD63681B6867
:1010900013B1062120469847062384F8703038BDE6
:1010A000C36F03B19847002384F8703038BDC3681C
:1010B0001B8AB5FBF3F203FB1255002DC8D1302378
:1010C00083F3118802892946C36842F001025B69F3
:1010D00002819D60C3E9005501F0A2FA85F31188F1
:1010E0000A2384F8703038BD0000000000000000C2
:1010F00038B590F870300446152B21D8DFE803F09E
:1011000021202020202021202021212120202020DA
:1011100020202020320B0B22302380F8702083F314
:10112000118802890025C36842F0010229465B69E3
:1011300002819D60C3E9005501F072FA85F31188C0
:1011400038BD002101F04CFD0021204601F038FDA2
:1011500063681B6813B1062120469847062384F86C
:10116000703038BDC3689B695B68002BE8D1C36FE2
:1011700003B19847002384F8703038BD00000000A8
:1011800000F006B8000000000000000000000000B1
:10119000034B1A781AB90121024A19705A60704734
:1011A0000000002440410052000000000000000048
:1011B0000378012B00D070470F4B984202D00223D6
:1011C000037070470D4BDA6F42F48052DA67DA6FC2
:1011D00022F48052DA67DA6FD3F8D42042F48052D6
:1011E000C3F8D420D3F8FC2022F48052C3F8FC20AA
:1011F000D3F8FC30E3E700BF0000002400440258AD
:1012000010B5054C204602F083FB204602F098FB07
:10121000BDE8104003F094B8FC4500080000000051
:1012200008B5FFF7B5FF034A034B01215268197057
:101230005A6008BD00000024E803002400000000FC
:101240000C4B10B51A7882B00446012A0CD030231A
:1012500083F31188204602F043F902220023227012
:1012600083F3118802B010BD18460191FFF7A0FF6B
:101270000199ECE7000000240000000000000000DD
:101280000B462DE9F04F0E4687B013F8011B019273
:10129000002900F00F8204464FF000090CE022689C
:1012A000204609F101091E46D2689047334613F8DB
:1012B000011B002900F0DF802529F0D172782D2A4A
:1012C00000F0C5804FF0000E19782B2900F0BB808C
:1012D0000025302900F0B38020272A294DD15978E4
:1012E0009E1CDDF804A02E295AF8042B5BD00020A8
:1012F00001F0DF034C2B63D116F8011B002900F02D
:10130000BA80A1F14403342B00F2B980DFE813F076
:10131000A001B700B700B700B700A001B700B70041
:10132000B700B700B7003601E700B700B700B70055
:10133000B700C601B700B700E700B700B700B700B5
:10134000B700B700B700B700B700B700B700590142
:10135000A001B700B700B700B700A001B700B70001
:10136000B700B700B7003601E700B700B700390192
:10137000B700C601B700B700E7005E1C00297AD0AD
:10138000002205E016F8011B03EB4002002972D091
:10139000A1F1300302EB8200DBB2092BF2D92E2936
:1013A000DDF804A0A3D13178002964D02A2952D1D4
:1013B000717802365AF8040B01F0DF034C2B9BD0F6
:1013C000A1F14103A1F1440CDBB2BCF1340F56D8BA
:1013D000DFE81CF0090155005500550055000901D2
:1013E00055005500550055005500D40085005500A6
:1013F0005500550055006401550055008500550005
:101400005500550055005500550055005500550034
:101410005500F70009015500550055005500090118
:1014200055005500550055005500D4008500550065
:101430005500D70055006401550055008500013363
:101440000F46197849E759780125013341E7B31C64
:101450004FF0010E38E701360020A1F1300300EB18
:10146000800CDBB2092B3FF643AF16F8011B03EBF0
:101470004C000029F1D1484607B0BDE8F08F013A91
:101480008DF80C10CDF804A022EAE27BBEF1000F2B
:1014900040F0A580002A75460DF10C0ACBF1000B37
:1014A00053DC002D0DDB05F10108D04423682046F4
:1014B0001AF8011BDB689847C245F7D109F1010909
:1014C000A944BBF1000F3FF4F1AE5D4623683946F5
:1014D0002046DB689847013DF8D1D944E6E64FF055
:1014E0001008534653F8040B01930DF1170300E065
:1014F0002B4684465D1EB0FBF8F008FB10CA0AF1CB
:1015000030013929C8BF0AF13701C445C9B203F80F
:10151000011CEDD20DF117000DF11708451B1846FF
:1015200003AB9C4601E010F8011B40450CF8011B81
:10153000F9D1521B9A46013D22EAE27BBEF1000F2F
:10154000AFD1002ACBF1000BABDD9AF800102B29AC
:1015500018BF2D2902D1302F00F09680D84623687D
:1015600039462046DB68984718F10108F7D1002D6D
:10157000A9EB0B09FFF69AAEC34694E74FF00808B3
:10158000AFE7534653F804AB0193BAF1000F00F0F4
:1015900088809AF80010002868D1002969D047F6A1
:1015A000FE70514601E0C54205D411F8013FAAEB97
:1015B0000105002BF7D1A1EB0A012027521A4D1E7D
:1015C000BAE75AF8043B013A202722EAE27BCDF839
:1015D00004A08DF80C30BEF1000F3FF45BAF002586
:1015E0000DF10C0A5FE7192B32D9534653F8040B5F
:1015F0000028019332DB002D59D02B230DF10D0C67
:101600008DF80C3003AB0CF10B0A55462C49A1FBAD
:1016100000818046C908B8F1090F01EB810B08462B
:10162000A8EB4B0101F13001C9B205F8011DEDDC59
:10163000AAEB0500604401E015F8011F0CF8011B3E
:101640008445F9D1ACEB03059A46521B013D73E783
:101650005AF8040B0028CDF804A0CCDA2D23404220
:101660000DF10D0C8DF80C3003ABCCE709B101384E
:1016700097D522EAE27BBEF1000F03D1002ACBF11D
:10168000000B19DC20271CE7226820460AF1010A1A
:1016900009F10109D268013D90475FE74FF00A0860
:1016A0001FE7DFF820A000283FF479AFDFE703ABA6
:1016B0009C46A8E78946DEE620274FF0FF354DE738
:1016C000CDCCCCCC08460008000000000000000093
:1016D0000EB400B582B003AA52F8041B0192FFF7C2
:1016E000CFFD02B05DF804EB03B0704700000000CE
:1016F0000A4A09014FEA501C0123C9B200B500F0A3
:101700001F0E104403FA0EF380F8001302EB8C0155
:10171000C1F8803142F82C305DF804FB00E100E0B4
:1017200010B5074C204602F0F3F8064801F050FED1
:10173000204602F005F9BDE8104002F001BE00BFEE
:1017400028460008E8020024000000000000000015
:1017500010B5074C204602F0DBF8064801F038FED1
:10176000204602F0EDF8BDE8104002F0E9BD00BFF0
:101770001C46000848030024000000000000000090
:1017800010B5064C204602F0C3F801F001FD2046DA
:1017900002F0D6F8BDE8104002F0D2BD10460008B5
:1017A00008B509217A20FFF7A3FF07211C20FFF7C6
:1017B0009FFF0C212520FFF79BFF0C213520BDE862
:1017C0000840FFF795BF00BF0000000000000000C8
:1017D00038B5364B00224FF0FF31354CD3F880003E
:1017E000344D60F00040C3F88000D3F8800000F072
:1017F0000040C3F88000D3F88000D3F88400C3F819
:101800008410D3F88400C3F88420D3F88400D86F00
:101810002043D867DC6F28482C40DC67DC6FD3F8A6
:1018200088402043C3F88800D3F88800C0F30A003A
:10183000C3F88800D3F88800D3F89000C3F890105C
:10184000D3F89000C3F89020D3F89000D3F8940018
:10185000C3F89410D3F89400C3F89420D3F89400FC
:10186000D3F89800C3F89810D3F89800C3F89820DC
:10187000D3F89800D3F88C00C3F88C10D3F88C0000
:10188000C3F88C20D3F88C00D3F89C00C3F89C10CC
:10189000D3F89C10C3F89C20D3F89C3000F0C0FA19
:1018A00000F0DEFCBDE83840FFF77ABF0044025884
:1018B000FFEFFF7F0010008000F8FFFF0000000036
:1018C000654B02206549664A10B40124C1F80841FD
:1018D000D3F8F4100143C3F8F410D3F81C110143FA
:1018E000C3F81C11D3F81C31D06053689904FCD59F
:1018F0005C4901235C4C0020116093604FF440432D
:101900005749D460106193618B699B04FCD50B68C7
:10191000514A43F480730B60136F03F44073B3F5C3
:10192000007F04D04FF480310023116713674A49C8
:101930000B6843F001030B600B685C07FCD50023C8
:10194000454A0B61136913F03803FBD14FF0804017
:10195000012446491460506045485367D1621061C4
:1019600013683D4943F4803313600B689803FCD53A
:101970000A68394B42F480520A601A689204FCD516
:1019800000223C483C4944F6F05498625A6319637B
:101990003A49DC633A4899633A495A641864D9620F
:1019A00019682D4A41F0A8511960136803F02853B3
:1019B000B3F1285FF9D148244FF4886340204FF4F5
:1019C000803194614FF08054D3614FF4E003106292
:1019D0004FF44030D16414652B4953653223906530
:1019E0000B600B6803F00F03022BFAD11A4A13693C
:1019F00043F003031361136903F03803182BFAD182
:101A0000D2F8DC3010BC43F00053C2F8DC30D2F81E
:101A1000043143F00053C2F80431D2F80431D2F853
:101A2000DC3043F08043C2F8DC30D2F8043143F0BC
:101A30008043C2F80431D2F80431D2F8DC3043F0EC
:101A40000043C2F8DC30D2F8043143F00043C2F85E
:101A50000431D2F80431704700440258008000512C
:101A60000048025800C000F0020000010000FF0121
:101A700000881008525090019F0209016112010B69
:101A80001F07050799036B010020005200000000AA
:101A900070B51E4C00261E4D2046FEF7E1FF1D4A84
:101AA0001D4B05211220C4E90A25C4E90C63FFF788
:101AB0001FFE1A4BD3F8D82042F02002C3F8D820DA
:101AC000D3F8002142F02002C3F80021D3F800210E
:101AD000D3F8802042F02002C3F88020D3F8802081
:101AE00022F02002C3F88020D3F88020AE60D3F823
:101AF000D82022F02002C3F8D820D3F8002122F009
:101B00002002C3F80021D3F8003170BD0800002482
:101B10000023024000200240162C0200004402581C
:101B2000104B98420DD0826A9368590706D5936886
:101B300043F0100393609368DB06FCD40023D36169
:101B40007047016B0A68136823F01F031360136862
:101B5000DB07FCD491F80CC03D234A6803FA0CF370
:101B60001360E0E70800002400000000000000000F
:101B700070B5264801F0CCFE254D264A2E69136823
:101B8000136066B313F0100406D02C78A4F103049C
:101B9000B4FA84F464096400180648BF44F00404ED
:101BA000D90523D59A0544F0080401D544F0100462
:101BB0001748FFF7B5FFF3681BB3052221462A70CB
:101BC00098472B78052B1CD0302383F311884FF0D6
:101BD000FF31114802F02CFA002383F311880B48DF
:101BE00001F0AEFEBDE8704002F0AABB9B05DDD45B
:101BF000002CDDD1054801F0A3FEBDE8704002F0E5
:101C00009FBB022200232A702B61DDE734460008C7
:101C100008000024002002401C00002400000000F6
:101C20000A4808B501F074FE094B0A481968426871
:101C300001F00E0159600AB180689047034801F035
:101C40007FFEBDE8084002F07BBB00BF9446000861
:101C50000054025840000024000000000000000072
:101C60000B4810B501F054FE0A4B0B481968C268C6
:101C7000090901F00E010C015C600AB1006990478E
:101C8000034801F05DFEBDE8104002F059BB00BF03
:101C9000884600080054025840000024000000005C
:101CA0000B4810B501F034FE0A4B0B481968426925
:101CB000090A01F00E010C025C600AB180699047CC
:101CC000034801F03DFEBDE8104002F039BB00BF03
:101CD0007C46000800540258400000240000000028
:101CE0000B4810B501F014FE0A4B0B481968C26985
:101CF000090B01F00E010C035C600AB1006A904709
:101D0000034801F01DFEBDE8104002F019BB00BF02
:101D100070460008005402584000002400000000F3
:101D20000B4810B501F0F4FD0A4B0B481968426AE4
:101D3000090C01F00E010C045C600AB1806A904746
:101D4000034801F0FDFDBDE8104002F0F9BA00BF04
:101D500064460008005402584000002400000000BF
:101D60000B4810B501F0D4FD0A4B0B481968C26A44
:101D7000090D01F00E010C055C600AB1006B904783
:101D8000034801F0DDFDBDE8104002F0D9BA00BF04
:101D9000584600080054025840000024000000008B
:101DA0000B4810B501F0B4FD0A4B0B481968426BA3
:101DB000090E01F00E010C065C600AB1806B9047C1
:101DC000034801F0BDFDBDE8104002F0B9BA00BF04
:101DD0004C46000800540258400000240000000057
:101DE0000B4810B501F094FD0A4B0B481968C26B03
:101DF000090F01F00E010C075C600AB1006C9047FE
:101E0000034801F09DFDBDE8104002F099BA00BF03
:101E10004046000800540258400000240000000022
:101E20000B4800220B4B0146026003F1A00C0A484C
:101E300001E053F8140C143302604A60634541F822
:101E4000082FF6D1054B4FF0FF325A60704700BFA4
:101E500040000024B84600080854025800540258B4
:101E60000A4808B501F054FD094B0A481968426850
:101E700001F03D0199600AB180689047034801F084
:101E80005FFDBDE8084002F05BBA00BF9447000860
:101E90000000024084000024000000000000000058
:101EA0000B4810B501F034FD0A4B0B481968C268A5
:101EB000890901F03D018C019C600AB100699047DD
:101EC000034801F03DFDBDE8104002F039BA00BF03
:101ED0008847000800000240840000240000000041
:101EE0000B4810B501F014FD0A4B0B481968426904
:101EF000090C01F03D010C049C600AB18069904717
:101F0000034801F01DFDBDE8104002F019BA00BF02
:101F10007C4700080000024084000024000000000C
:101F20000B4810B501F0F4FC0A4B0B481968C26964
:101F3000890D01F03D018C059C600AB1006A904753
:101F4000034801F0FDFCBDE8104002F0F9B900BF04
:101F500070470008000002408400002400000000D8
:101F60000A4808B501F0D4FC094B0A485968426A8E
:101F700001F03D01D9600AB1806A9047034801F041
:101F8000DFFCBDE8084002F0DBB900BF6447000891
:101F90000000024084000024000000000000000057
:101FA0000B4810B501F0B4FC0A4B0B485968C26AE3
:101FB000890901F03D018C01DC600AB1006B90479A
:101FC000034801F0BDFCBDE8104002F0B9B900BF04
:101FD0005847000800000240840000240000000070
:101FE0000B4810B501F094FC0A4B0B485968426B42
:101FF000090C01F03D010C04DC600AB1806B9047D4
:10200000034801F09DFCBDE8104002F099B900BF03
:10201000F447000800000240840000240000000093
:102020000B4810B501F074FC0A4B0B485968C26BA1
:10203000890D01F03D018C05DC600AB1006C904710
:10204000034801F07DFCBDE8104002F079B900BF03
:10205000E84700080000024084000024000000005F
:102060000A4808B501F054FC094B0A481968426C4B
:1020700001F03D0199600AB1806C9047034801F07E
:102080005FFCBDE8084002F05BB900BFDC47000818
:102090000004024084000024000000000000000052
:1020A0000B4810B501F034FC0A4B0B481968C26CA0
:1020B000890901F03D018C019C600AB1006D9047D7
:1020C000034801F03DFCBDE8104002F039B900BF03
:1020D000D0470008000402408400002400000000F3
:1020E0000B4810B501F014FC0A4B0B481968426DFF
:1020F000090C01F03D010C049C600AB1806D904711
:10210000034801F01DFCBDE8104002F019B900BF02
:10211000C4470008000402408400002400000000BE
:102120000B4810B501F0F4FB0A4B0B481968C26D5F
:10213000890D01F03D018C059C600AB1006E90474D
:10214000034801F0FDFBBDE8104002F0F9B800BF04
:10215000B84700080004024084000024000000008A
:102160000A4808B501F0D4FB094B0A485968426E89
:1021700001F03D01D9600AB1806E9047034801F03B
:10218000DFFBBDE8084002F0DBB800BFAC47000849
:102190000004024084000024000000000000000051
:1021A0000B4810B501F0B4FB0A4B0B485968C26EDE
:1021B000890901F03D018C01DC600AB1006F904794
:1021C000034801F0BDFBBDE8104002F0B9B800BF04
:1021D000A047000800040240840000240000000022
:1021E0000B4810B501F094FB0A4B0B485968426F3D
:1021F000090C01F03D010C04DC600AB1806F9047CE
:10220000034801F09DFBBDE8104002F099B800BF03
:102210004C47000800040240840000240000000035
:102220000B4810B501F074FB0A4B0B485968C26F9C
:10223000890D01F03D018C05DC6012B1D0F8800001
:102240009047034801F07CFBBDE8104002F078B8ED
:102250004047000800040240840000240000000001
:1022600000220D4830B40D4C13460D4D226001E0A4
:1022700055F8330004EB830102330260202B4A60DF
:10228000F6D14FF0FF330749074A8B60CB6093606C
:10229000D36030BC704700BF1000024084000024AF
:1022A0000048000800000240000402400000000056
:1022B000704700BF000000000000000000000000A8
:1022C000124A0023F0B5D2E924414FF0010E02F189
:1022D000080C8E685CF8040F03F110020EFA03F18B
:1022E0005D1C87690EFA02F227B1D4F81C783A43D4
:1022F000C4F81C28426922B1D4F81C281143C4F840
:102300001C189E422B46E5D1F0BD00BF08010024F9
:1023100070B400224FF0FF348E6800EB421102F1DE
:10232000010CD1F800590B46002D05DAD1F80059FF
:1023300045F08045C1F80059D1F8005B002D05DA61
:10234000D1F8005B45F08045C1F8005BB242C3F8AC
:1023500008496246C3F8084BDFD14FF0011370BC47
:10236000C0F81C38704700BF0000000000000000EB
:1023700010B5044C2046FEF73BFC034A034BC4E96E
:10238000242310BD08010024000008403049000843
:10239000F8B52023D0F8905007462B612C6914F033
:1023A0002004FBD112204FF0006601F031FAD7F87B
:1023B00094C04FF001134FF0FF31DCF80800C5F86E
:1023C0003448C5F81C3805EB4413844204F1010479
:1023D000C3F80069C3F8006BC3F80819C3F8081BF9
:1023E000F1D1DCF800301021D7F89020C7F89830F0
:1023F0006B621161146914F01004FBD1122001F01A
:1024000007FAD5F80028124B22F4FE621149C5F8EC
:102410000028AA6913430922AB61C5F81028D7F830
:102420009830C5F81428F9604FF0C0410A4AC5F841
:10243000101B03F1100143F48013C5F8002BC5F8FD
:102440001049C5F80029C7F89810AB62F8BD00BF65
:1024500010000C000C490008408000100000000033
:10246000D0F8902090F88A10D2F8003823F4FE6358
:1024700043EA0113C2F80038704700BF00000000B3
:102480000346D0E924010A68C3F89820FFF740BF4B
:102490005831D0F8903049015B5813F4004004D013
:1024A00013F4001F0CBF0220012070470000000041
:1024B0004831D0F8903049015B5813F4004004D003
:1024C00013F4001F0CBF0220012070470000000021
:1024D00000EB8100C3681B6A19685B681160536078
:1024E000704700BF00000000000000000000000076
:1024F00000EB8103DA68936910B41C68DC6009B9E9
:10250000402C25D8538A1268D0F8900002F0030CB2
:102510005A1E2244BCF1010FB2FBF3F202FB03F39B
:1025200003F1030323F0030343EAC24300EB411228
:1025300043F0C043C2F8103B0DD009B200EB41108C
:1025400010BCD0F8003B43F00443C0F8003B704798
:1025500040241C60D6E7D0F8083800EB411209B2DD
:1025600013F4807FD2F8003B14BF43F0805343F054
:102570000053C2F8003BE1E700000000000000004B
:102580002DE9F041244F0446D7F8906006EB401344
:10259000D3F8085B2807C3F8085B03D5D6F81438CE
:1025A000190731D4EA072DD5D6F81438DB0729D519
:1025B00007EB8403D9688A6954B9488A5368B3FB26
:1025C000F0F500FB15331BB91068D36898420DD3A2
:1025D00001227B89CD68A24023EA02037B818DB171
:1025E00021462B460C48BDE8F04118471B1A5460A1
:1025F0003021136081F3118807482146FFF778FFE7
:1026000084F31188BDE8F08107EB84032146384646
:10261000DB685B689847C5E70801002400000000FC
:1026200000EB810310B4DC6862691368D360F3B90E
:10263000D0F890204FF4002002EB4113C3F81009AA
:10264000236803F00303012B2AD008B202EB4010E9
:102650000123D0F800498B4044F00444C0F80049FD
:10266000D2F8341810BC0B43C2F83438704709B99B
:10267000402B26D8B4F810C0D0F890200CF1FF30D1
:102680001844B0FBFCF043EAC04302EB411043F0B6
:102690000053C0F81039236803F00303012BD4D191
:1026A000D2F8083808B213F4807F02EB4113D3F854
:1026B000004914BF44F0805444F00054C3F800496A
:1026C000C4E740231360D5E70000000000000000CD
:1026D0002DE9F84FDFF8049104464FEA401BD9F882
:1026E000906006EB4013D3F80859E907C3F808597E
:1026F00003D5D6F81038DA070CD42B0608D54FF0DE
:102700000108D6F8343808FA04F813EA080F18D18B
:10271000BDE8F88F09EB8003D9684B691868DA685F
:1027200090424AD30122B9F808308F68A24023EAC8
:102730000203A9F80830002FDFD021464846B847E9
:10274000DBE709EB8403DB685E69D6E90075AF421D
:1027500041D90134D9F890A0B3F81090E4B20AEB53
:102760000B0E0AEB0430A7EB050CDEF81839CC454C
:102770009BB228BFCC46BCEB830FC9D8B468BCF170
:10278000040F236803600BD9ACF10501234621F047
:1027900003010431214453F8042F99420260FAD115
:1027A00065446444BD42C6E90154DCD3DAF83438E8
:1027B00023EA0803CAF83438AAE7121A00271A6075
:1027C0005F60302383F3118821464846FFF728FFD6
:1027D00087F3118891E7D9F890A0E7E70801002472
:1027E0002DE9F84FB24E4FF04009B24801F090F891
:1027F000D6F890706EE0290500F18E80AA040CD501
:10280000D7F8083813F0060FFB6823F470530CBF99
:1028100043F4105343F4A053FB602B070ED57468A8
:10282000E368002B00F076813378052B00F07A8185
:10283000FFF746FDE3680BB130469847EC0273D4CE
:10284000A80200F1B4802B03D7F818481AD5E0038A
:1028500000F13C81A10300F13581620300F12E817A
:10286000230300F12081E00200F11981A10200F1AF
:102870001281620200F10B81230200F10481E00168
:1028800000F1F98069031AD5E20700F13F81A3073F
:1028900000F13881600700F13181210700F12A81C0
:1028A000E20600F12381A30600F11C81600600F11D
:1028B0001581210600F10E81E20500F1E080EB06B2
:1028C00000F1A2807C4B1D4200F0CE80B9F10109DD
:1028D00000F0CA807D69BB691D4015F480587D6198
:1028E00040F05F81002D86DAD7F8003E980705D0CA
:1028F000D7F8003E23F00303C7F8003EFFF7E0FCE3
:10290000D7F80438304623F00103C7F80438FEF73F
:10291000B7F929057FF572AFD6E92401FFF7F8FC76
:102920003046FEF795F969E70021D6F890B04FF0F0
:10293000010A0C4608E00134D6F89430E4B29B68F2
:102940009C4221463FF67CAF0BEB4412D2F8003993
:1029500003F44023B3F5802FEDD1D2F80039002BDA
:10296000E9DAD2F8003943F09043C2F80039D2F8DE
:102970000039002BFBDB8901D6F8902041F02001C3
:10298000116113699906FCD4122000F041FF3389CC
:1029900006EB84020AFA04F1D26823EA0103926882
:1029A0003381002AC7D0214630469047C3E7D6F886
:1029B00090A000244FF0010B07E00134D6F89430CA
:1029C000E4B29B689C423FF63EAF0AEB4412D2F859
:1029D000003B03F44023B3F5802FEED1D2F8003B47
:1029E00006EB84010BFA04F2002BE6DA7389304619
:1029F000D1F80CC0214623EA0203DCF80C207381D5
:102A0000002ADAD09047D8E7D6F890100B6A03F482
:102A1000F010C3F30A1203F00F03B0F5802F00F09B
:102A20008C80B0F5402F7FF44DAF06EB8303DB685D
:102A3000186A002A3FF446AF01F58054002313F0D2
:102A4000030F014601D1D4F80080072B03F10103E5
:102A500004D801F8018B4FEA182808469A42EED1B3
:102A6000154B1D427FF432AF124800F069FFBDE8FC
:102A7000F84F01F065BC0820FFF782FD02E708204F
:102A8000FFF726FE1BE70720FFF77AFDF7E6062093
:102A9000FFF776FDF0E60520FFF772FDE9E604207A
:102AA000FFF76EFDE2E60320FFF76AFDDBE600BFFD
:102AB0000801002400490008300000040220FFF74C
:102AC0005FFDCDE60120FFF75BFDC6E60020FFF7C6
:102AD00057FDBFE60720FFF7FBFDEDE60620FFF7F9
:102AE000F7FDE6E60520FFF7F3FDDFE60420FFF73C
:102AF000EFFDD8E60320FFF7EBFDD1E60220FFF75C
:102B0000E7FDCAE60120FFF7E3FDC3E60020FFF77B
:102B1000DFFDBCE6BB6923F00803BB613378052BFE
:102B20007FF486AED7F8003E304623F00303C7F8A3
:102B3000003EFEF7A5F874687AE6981C06EB800361
:102B40005B68D3F818C0DCE90043A4EB030EDCF8A3
:102B50000840D2B101F5805C002313F0030F214639
:102B600001D1DCF800809E4503F1010304D901F88E
:102B7000018B4FEA18280C469A42EED106EB8003EF
:102B80005B68D3F818C0DCE90134724504D2144400
:102B90001A44CCE9012495E674447344CCE9013429
:102BA00090E60548FEF734F8044800F0C9FEBDE899
:102BB000F84F01F0C5BB00BF080100240049000820
:102BC000D0F8903003EB4111D1F8003B43F40013EF
:102BD000C1F8003B704700BF00000000000000008B
:102BE000D0F8903003EB4111D1F8003943F40013D1
:102BF000C1F80039704700BF00000000000000006D
:102C0000D0F8903003EB4111D1F8003B23F40013CE
:102C1000C1F8003B704700BF00000000000000004A
:102C2000D0F8903003EB4111D1F8003923F40013B0
:102C3000C1F80039704700BF00000000000000002C
:102C40000022124B0A604A60426910B413404024CB
:102C500042780C6143F440434FF0FF348C618B6049
:102C600042B1836910BC23F4C023CB6040F201134E
:102C70000B6070478269064B10BC134043F0015350
:102C8000CB6040F201130B60704700BF1F3EFFFF97
:102C9000FFFFB9DF0000000000000000000000009E
:102CA00090F8203010B4002B34D0836AD3E900416F
:102CB0000A6822F00F020A60197A0E23426A03FAA8
:102CC00001F161605468216821F00F012160117ADF
:102CD00012688B405360474B98423AD0464B98421B
:102CE0004BD0464B98425CD0454B98426DD0454BFB
:102CF000984251D1444BD3F89C2042F02002C3F8B3
:102D00009C20D3F89C2022F02002C3F89C20D3F80A
:102D10009C3041E0846A2268136823F01F0313602B
:102D20001368D907FCD4227B3D23416A9340646831
:102D30000A682360136823F01F0313601368DB071E
:102D4000FCD40C7B3D234A68A3401360294B984276
:102D5000C4D12D4BC169D3F89820406842F4805209
:102D600010BCC3F89820D3F8982022F48052C3F8FE
:102D70009820D3F89830FFF763BF234BD3F8902007
:102D800042F48042C3F89020D3F8902022F480428D
:102D9000C3F89020D3F89030C16910BC4068FFF7A9
:102DA0004FBF194BC169D3F89020406842F40042EC
:102DB00010BCC3F89020D3F8902022F40042C3F84E
:102DC0009020D3F89030FFF73BBF0F4BC169D3F889
:102DD0009820406842F4801210BCC3F89820D3F8C1
:102DE000982022F48012C3F89820D3F89830FFF787
:102DF00027BF00BFBC010024F801002434020024D6
:102E000070020024AC0200240044025800000000BC
:102E100010B5164C164800F07BFDE2695369116944
:102E20000B4093615B0606D4114800F089FDBDE8B4
:102E3000104001F085BA2046FFF732FF63689B68B7
:102E40000BB120469847302383F311886FF01201AD
:102E5000084801F0EDF8002383F31188044800F0DE
:102E60006FFDBDE8104001F06BBA00BFBC0100244B
:102E70006C490008C40100240000000000000000AC
:102E800010B5164C164800F043FDE269536911690C
:102E90000B4093615B0606D4114800F051FDBDE87C
:102EA000104001F04DBA2046FFF7FAFE63689B68B8
:102EB0000BB120469847302383F311886FF012013D
:102EC000084801F0B5F8002383F31188044800F0A6
:102ED00037FDBDE8104001F033BA00BFF80100240F
:102EE000604900080002002400000000000000000B
:102EF00010B5164C164800F00BFDE26953691169D4
:102F00000B4093615B0606D4114800F019FDBDE843
:102F1000104001F015BA2046FFF7C2FE63689B68B7
:102F20000BB120469847302383F311886FF01201CC
:102F3000084801F07DF8002383F31188044800F06D
:102F4000FFFCBDE8104001F0FBB900BF34020024D3
:102F5000544900083C02002400000000000000006A
:102F600010B5164C164800F0D3FCE269536911699C
:102F70000B4093615B0606D4114800F0E1FCBDE80C
:102F8000104001F0DDB92046FFF78AFE63689B68B8
:102F90000BB120469847302383F311886FF012015C
:102FA000084801F045F8002383F31188044800F035
:102FB000C7FCBDE8104001F0C3B900BF7002002497
:102FC00048490008780200240000000000000000CA
:102FD00010B5164C164800F09BFCE2695369116964
:102FE0000B4093615B0606D4114800F0A9FCBDE8D4
:102FF000104001F0A5B92046FFF752FE63689B68B8
:103000000BB120469847302383F311886FF01201EB
:10301000084801F00DF8002383F31188044800F0FC
:103020008FFCBDE8104001F08BB900BFAC0200245A
:103030003C490008B4020024000000000000000029
:103040002DE9F0412D4D0024DFF8B48028462D4FA6
:10305000FDF7B6FD2C4B85F820400A21EB612320BB
:103060006C622F63294EC5E90A48294DFEF740FBE3
:103070002846FDF7A5FD274B85F820400A21EB6186
:1030800024206C622F63C5E90A48234DFEF730FB0C
:103090002846FDF795FD214B0A213320EB6185F889
:1030A00020406C622F63C5E90A48FEF721FB3046D9
:1030B000FDF786FD1A4D1B4B0A21552086F820404E
:1030C000F36174623763C6E90A48FEF711FB2846CC
:1030D000FDF776FD0123144941F20A0285F82030FC
:1030E00041F21803E96156206C620A212B63C5E99D
:1030F0000A42BDE8F041FEF7FBBA00BFBC01002464
:10310000160001004600010000300140700200245A
:10311000F80100240038004034020024003C004044
:10312000AC020024005001400014005800000000D0
:10313000124A4FF080430021D2F8E80040F001002D
:1031400030B4C2F8E80044F61F65D2F810010C4C08
:1031500040F00100C2F810010120D2F81021E26B0A
:103160000243E2634FF0FF329D62DA629961596374
:10317000D96059605861186030BC704700440258EB
:103180000010005C000000000000000000000000D3
:103190004FF0804208B51169D3680B40D9B29B0744
:1031A0006FEA0101116100D408BD302383F3118857
:1031B00000F026FB002383F3118808BD0000000007
:1031C000024A136843F0C0031360704700100140C7
:1031D000024A136843F0C003136070470050004078
:1031E00070B5194D82B0194C2846194EFDF7A0FC58
:1031F00005F10C000023102216490095FDF7F0FAA6
:103200001022154905F13000144B0095FDF780FBA5
:10321000134B2046C5E91536FDF78AFC04F10C0076
:10322000002310220F490094FDF7DAFA0E4B10220A
:103230000E4904F130000094FDF76AFB0C4BC4E921
:10324000153602B070BD00BFE80200244803002418
:1032500000E1F505A8030024C8030024C1310008DB
:1032600000100140B8030024D1310008D803002425
:1032700000500040000000000000000000000000BE
:103280002DE9F041002936D0037A40F22D16D1E91C
:1032900000C2D1E90275012B46EA02064FEA5C033F
:1032A00047F0400745F0010502F4004E02F480614A
:1032B00045D0846D2344446DB3FBFCF3BEF1000F95
:1032C00005D023F0070C03F0070343EA4C03E36047
:1032D0004FF0FF336760A5602660236209B312F0E8
:1032E00010224AD0B2F1805F14BFFF233F2380F841
:1032F0005C30BDE8F081057A012D17D0836D402444
:103300002C4903F59643426DA1FB031340F22D11A6
:103310001B0BD3600123546093604FF0FF331160A7
:103320001362FF2380F85C30BDE8F08140F22D1677
:1033300040278E460A464FF496434FF4164C1E4CD7
:10334000A0421FD01D4CA042B3D11D4CD4F8E88040
:1033500048F48018C4F8E880D4F8108148F4801844
:10336000C4F81081D4F81041846D2344446DB3FB3C
:10337000FCF3BEF1000FA4D1A9E77F2380F85C30F5
:10338000BDE8F0810E4CD4F8F08048F01008C4F885
:10339000F080D4F8188148F01008C4F81881D4F8E7
:1033A0001841846D2344446DB3FBFCF3BEF1000F60
:1033B00087D18CE7B5814E1BE80200244803002426
:1033C000004402580000000000000000000000005F
:1033D0002DE9F047456D0646EC6922072C6256D16F
:1033E000E20548D4A00610D54FF03008002788F336
:1033F00011886B6A304696F85C101940FDF7B8FBEF
:1034000087F31188EC69A306F1D4D5F800A01AF06F
:10341000800F1DD021061BD506F1300830274FF054
:10342000000905E0A86289F31188EC6922060FD52E
:1034300087F311884046FDF7ABFA0028F2DA08213D
:10344000301D00F075FE2AF0800A002383F31188F6
:103450001AF0400F0BD0630609D5302383F311888F
:10346000D6E911239A422DD0002383F31188C5F8A1
:1034700000A0BDE8F087302383F311884FF480610A
:10348000301D00F055FE002383F31188AAE7C4F332
:10349000C001E3074FF030034FEA012148BF41F07C
:1034A0002001A70748BF41F04001600748BF41F035
:1034B000800183F31188301D00F03AFE002383F36E
:1034C00011888DE7B36B002BCED01021301D2AF070
:1034D000400A00F02DFEC7E70000000000000000D9
:1034E00070B543680C460868134A4968134D6E6806
:1034F00018609960586044F62060D960136843F002
:10350000004313601123336100F082F9A3680C4873
:10351000E66803F4F071034043F6FE706A6841F018
:1035200013011224304043F014031461116111613E
:103530001361506170BD00BF00400052E8030024D9
:1035400000FE3F000000000000000000000000003E
:103550006C4A40F2FF700023D2F88810014330B467
:10356000C2F88810684CD2F88810684D0C40684941
:10357000C2F88840D2F88840D2F8E0400443C2F84C
:10358000E040D2F8084104436248C2F80841802470
:10359000D2F808214FF4C0424B608D60CB604A6185
:1035A0000A225D4D0A625D4A4A625D4A0A605D4ACE
:1035B000436082605C4AC360446102625B4A42626B
:1035C0005B4A02605B48C1F80438C1F808084FF450
:1035D0008030594AC1F80C084FF40060C1F8140853
:1035E0004FF00610C1F82038C1F824085348C1F83C
:1035F000000840205249536091601021D160514928
:1036000050611162504951625049116002F5806267
:103610004F49536091600421D36051614D4911625B
:103620004FF0CC31516201F15E41A1F50811A1F6D4
:10363000F24111604849C2F80434C2F80814C2F8D3
:103640000C34C2F814044548C2F820546FF4D57500
:10365000C2F82404A0F109504149A0F509302844DA
:1036600044F6F045C2F8000402F540623D484B6064
:1036700088604FF48060CB6048613B4808623B48FB
:103680004862A0F1D550A0F5D410A0F272500860A5
:1036900053609560D3605461354C36481462364DA2
:1036A000364C536214604FF0FF3443608560A5F1DF
:1036B000AB45C360A5F5DD154361A5F67C750562D4
:1036C0002F4D43620560C1F8043CC1F8083CC1F8C5
:1036D0000C3CC1F8143CC1F8203CC1F8243CC1F8B2
:1036E000004CC2F8043CC2F8083CC2F80C3CC2F8DA
:1036F000143CC2F8203CC2F8243CC2F8004C30BC58
:10370000FEF7DEB80044025800F8FFFF1714FD3F33
:103710000000025800040258CCCCCC5070A70A001C
:10372000D6D7A8EAC04F00FF00606600000088CC32
:10373000BF7AFFAA00004307000C0258FFFF7EF289
:103740003FD07FF0CC060050CC0C00CCEA9F6AAF93
:103750001FC0FFFFCC0000C0FFDFDFFF55C0CCCC97
:10376000001802583F1FDFFFCC0CCC005C5055C541
:1037700000CCC00000200258CCFF4500AF7BFFFF0B
:10378000BBAA71FF00000000000000000000000064
:10379000704700BF000000000000000000000000B3
:1037A00030B587B0114D00230122684604242A70E9
:1037B000C5E9013300F074FC684600F081FC6846FE
:1037C00000F086FC013CF7D1009BAB6000F0E0FC10
:1037D00000F026FD00F044FD0549064800F028FBF6
:1037E00002232B7084F3118807B030BDB00D002484
:1037F0007C490008F00300240000000000000000E5
:1038000000F096B900000000000000000000000079
:10381000034A516853685B1A9842FBD8704700BF4F
:10382000001000E0000000000000000000000000A8
:10383000024A536B03435363704700BFF0030024F5
:1038400038B50C4CD4F88C50FCF742FFD4F88C30CF
:1038500004F50961084A686050681A6860F31F221D
:1038600043F8102B04F190028B4228BF1346C4F892
:103870008C3038BDF0030024001000E00000000090
:1038800002460749002342F8081B426000EB03127E
:103890000133117A802B6FF302011172F6D1704758
:1038A000FFFF80000000000000000000000000009A
:1038B000094BB3F88820D20700D5704790F8242030
:1038C00010B4D3F88C40D30043F00103C4E90201E3
:1038D000237010BCFFF7B4BFF00300240000000009
:1038E0000A4BB3F88820920700D5704710B491F8BE
:1038F0002420D3F88C40D300896A43F00203C4E942
:103900000201237010BCFFF79BBF00BFF00300242F
:103910000A4AB2F8883010B513F0040400D010BD84
:10392000302383F311880321D2F88C30197098600A
:10393000FFF786FF84F3118810BD00BFF003002459
:103940000A4AB2F8883010B513F0040400D010BD54
:10395000302383F311880421D2F88C3019709860D9
:10396000FFF76EFF84F3118810BD00BFF003002441
:10397000F8B51446144D03460E4605F11002022C0C
:10398000E9614FF00207846038BF022442602A696F
:103990000260506008192B61FCF7A2FEFCF798FE4C
:1039A000821B0346A24207D2022F00D8F8BD012095
:1039B000BDE8F840FFF73CBF7C1C301927461E4687
:1039C000FCF79EFEEAE700BFF003002400000000C1
:1039D0002DE9F843DFF89C9007460E46FCF778FE89
:1039E0004B46804653F8105F9D4237D0D9F81C40B3
:1039F000AB68041B341928BF3446A34215D89C4237
:103A000004D92D68E41AAB68A342FAD36B684FF06F
:103A1000FF32BC60C7E900531F60AB686F601B1BBF
:103A2000AB60C9F81820BDE8F883022E4FF00205FC
:103A300038BF022608EB0600FCF762FEFCF748FEE2
:103A4000A0EB0808464510D9022D03D8D9F810502C
:103A5000AB68D4E70120FFF7EBFEF7E732460146FB
:103A60003846BDE8F843FFF783BF013580462E4650
:103A7000E0E700BFF00300240000000000000000A9
:103A800003610023C2604361FFF7A2BF0000000092
:103A900070B5234C236998420DD00368D0E9012109
:103AA00013605A609A680A4400219A604FF0FF330D
:103AB0000160A36170BD02682346002143F8102F06
:103AC0005360016022699A4221D0936881680B4457
:103AD0009360FCF7FDFDE56923690446421B9B6882
:103AE0009342E7D91D4402262D1AB54238BF354608
:103AF0006019FCF705FEFCF7EBFD041BA5420AD993
:103B0000022ED7D90120BDE87040FFF791BEBDE875
:103B10007040FCF7EDBD013604463546E8E700BFCE
:103B2000F00300240000000000000000000000007E
:103B30002DE9F84F3C4E00274FF0300906F11008F0
:103B400009E087F31188D4E903312046984789F3C7
:103B500011886369ABB93469FCF7BAFDF3690546AE
:103B6000A268C11A8A422CD89D18D4E90010F561C8
:103B700001604860276033694345E2D1FCF7B8FD36
:103B8000DFE7FCF7A5FD6369A0EB050B82465B450B
:103B90002FD3316941453DD08A68934204D90968E1
:103BA0009B1A8A689A42FAD34A68A360C4E9001251
:103BB00014608A684C60D21A4FF0FF338A60B36198
:103BC000C9E73169414512D013440227F0611B1A3D
:103BD000BB421E46A36038BF3E46A819FCF790FDC5
:103BE000FCF776FD451BAE4210D9022F09D8BDE87F
:103BF000F88F0220FFF71CFE3169414512D05B4669
:103C0000CAE70120BDE8F84FFFF712BE01370546AD
:103C10003E46E2E72B441A1A51462046BDE8F84FCB
:103C2000FFF7A6BE0022F7E7F00300240000000023
:103C300010B530230C4683F3118891F824300C2BF7
:103C400010D8DFE803F02B0F0F270B070F0B0F0F18
:103C50000F0F0B008A6A936801339360D4E9003236
:103C600013605A604FF0FF312046A162FFF720FE3B
:103C70000022A369A16884F824201B689A688A42FC
:103C8000FBD25A6800212360626014605C6081F39B
:103C9000118810BD8B6A00221A60E3E7002383F3CA
:103CA000118810BD000000000000000000000000AE
:103CB00010B50446816AFFF7FBFD0022A369A168E5
:103CC00084F824201B689A688A42FBD25A682046EE
:103CD0002360626014605C6010BD00BF00000000E3
:103CE00038B50B4B01211C68DD6885F8240020469F
:103CF000226853601A6084F824102946DC60FFF7BC
:103D0000EFFD29462046BDE83840FCF759BB00BF0F
:103D1000F00300240000000000000000000000008C
:103D2000F0B54B1C1C4C87B00546E6681FD03346E7
:103D30001A4A6846FFF7A4FEE768012287F8245074
:103D4000394625682B6828465C6085F82420236066
:103D5000E560FFF7C5FD39462846FCF731FB009BBF
:103D600013B16846FFF794FEB06A07B0F0BD27684C
:103D7000012286F8240031463B6838465C6087F8AB
:103D800024202360E760FFF7ABFD38463146FCF79F
:103D900017FBB06A07B0F0BDF0030024313C000807
:103DA000044B1A68DB6890689B68984294BF0020B7
:103DB00001207047F0030024000000000000000014
:103DC00038B5134B01211D68DC682A682046536012
:103DD0001A6085F82410A16ADD60FFF769FD0022F2
:103DE000A369A16884F824201B689A688A42FBD8DA
:103DF0005A68214623602846626014605C60FFF7C1
:103E00006FFD21462846BDE83840FCF7D9BA00BF0F
:103E1000F00300240000000000000000000000008B
:103E2000FEE700BF000000000000000000000000EE
:103E300070B5214B0025044686B081630E460563AC
:103E4000586000F04DFA04F1100304F12802A56057
:103E50006563C4E904334FF0FF33C4E90A22C4E9BF
:103E60000635C4E90044FCF733FC2B46024604F156
:103E70008800C4E90823C4F88450FFF701FD04F169
:103E80003C0180230D4A204600F022F8012203461F
:103E9000716803926846E36083F82420084A196237
:103EA0000092084B05950493D6E90312CDE901125F
:103EB00000F076F806B070BDB00D002498490008F7
:103EC00090490008213E00080000000000000000AA
:103ED00010B400248B60CA6101F110028C63886108
:103EE000C1E90F43022401238C8400F1280481F8E6
:103EF0002630C36AC1E904431A6001F12C0401F1C0
:103F00003003C26208464B63C1E90B4310BC7047E3
:103F100070B5D0E90234456800211D4A4FF0020E09
:103F200043F8285C4FF0010C05691A4E43F86C5CAD
:103F3000456943F84C6C43F8685C0568A3F13800A8
:103F400003F8231C03F824EC03F822CC43F8404C7C
:103F500043F8084CD46A43F82C5CA3F16C0543F891
:103F6000344C43F83C5C02F1280543F8302C43F80C
:103F7000385C43E904112060A3F11801A3F11C048B
:103F8000D062A3F1480043F8141C43E9074170BD17
:103F9000F0030024D103000800000000000000002E
:103FA00008B5FFF7B5FFBDE80840FFF781BE00BFC9
:103FB00038B5302383F31188124BDC6804F12C05EB
:103FC000E36AA0629D4207D194F8263083B10F20A6
:103FD000BDE83840FFF784BE1A681846E262FFF772
:103FE00067FEE36AAB42F7D194F82630002BEED19E
:103FF00094F825309B07EAD1D4E9043213605A6063
:10400000E5E700BFF003002400000000000000000E
:1040100008B50146302383F311880820FFF780FE9E
:10402000002383F3118808BD000000000000000099
:104030000346006820B100221A608162FFF738BE93
:10404000704700BF000000000000000000000000FA
:10405000084AD26851B1034610B444681060042085
:104060005460226010BC5A60FFF75ABE4FF0FF3018
:10407000704700BFF00300240000000000000000B3
:1040800003460068834205D002681A60536081626B
:10409000FFF70EBE704700BF0000000000000000E8
:1040A00030B40023002400254FF0FF32C0E904455E
:1040B000C0E9002330BCC0E90233704700000000B3
:1040C000014B5B6883607047001000E00000000057
:1040D0000E4A0F4B81685B6810B4946802691B1B21
:1040E000C4685B1A41690134D218026141F10001D0
:1040F000426841619342026888BF43609342C0E9CD
:10410000023438BF036010BC704700BFB00D0024FC
:10411000001000E0000000000000000000000000AF
:104120000023C0E900008360704700BF000000006A
:10413000F8B50468A04221D007460D46002604E0E9
:104140000B2A1CD02468A74218D0E3682B43E360F5
:1041500015B123691D42F5D0D4E90103816B90F8B4
:1041600024200B430A2A8363EAD1826A1342E9D0EE
:104170008662FFF79DFD2468A742E6D1F8BD826AFA
:104180009A43DFD1F4E700BF000000000000000008
:10419000024B0349034AC3E900127047BC0D0024D7
:1041A000280E002400000824000000000000000089
:1041B000084B494210B45C68201A08401968821AFA
:1041C0008A4204D3A24202D810BC5A607047002031
:1041D00010BC7047BC0D002400000000000000006F
:1041E000302310B483F311880B4B49425C68201ACA
:1041F00008401968821A8A4207D3944205D35A604C
:10420000002383F3118810BC70470020002383F340
:10421000118810BC704700BFBC0D002400000000D6
:10422000044B0022044903F10C009A60C3E9001218
:10423000FFF776BFC40D0024E14100080000000034
:1042400010B40024C0E90223C0E9004110BC70474B
:104250000022FFF7ADBF00BF00000000000000001B
:1042600038B5124C124D2046FFF75AFF04F11001E9
:104270002B460422216114216018FFF7E1FF04F1AD
:10428000240004F128012B460422C4E909011C2161
:1042900004F12C00FFF7D4FF04F13C0104F14002CB
:1042A00004F14403C4E90F12636438BDE00D002437
:1042B0005142000800000000000000000000000063
:1042C000EFF30983203383F30988002383F31188F4
:1042D000704700BF00000000000000000000000068
:1042E0004FF0300C00B58CF3118862B60E4B4FF6D0
:1042F000FF0E0E49D8680E4A00EA0E0001430D4831
:10430000D960D3F8FC1041F08071C3F8FC10C2F8FA
:10431000B00F2020116841F001011160D87783F8B7
:1043200022C05DF804FB00BF00ED00E00003FA05C9
:10433000001000E055CEACC50000000000000000F9
:10434000302383F311880D4B5B6813F4006302D1B3
:1043500083F31188704710B5EFF309844FF0807331
:10436000203CE36184F30988FFF71AFD10B1044B88
:10437000A36110BD034BA36110BD00BF00ED00E0C1
:10438000E3030008E603000800000000000000004E
:104390002DE9F04786B0234DFCF77AF90026FFF7A8
:1043A000FFF92149214801ACFCF7D2FB20491F4805
:1043B000FDF78EF91F491D48FDF78AF9DFF878A04F
:1043C00000F046F81D491948FDF782F9174FDFF84C
:1043D00070900FCD0FC42B6823603246514638468B
:1043E00001AC0DF11808FDF773F954F8045B304681
:1043F000294600F03DF8304600F042F82A460346D0
:1044000049463846FDF764F94445EED10136082E99
:10441000E3D10C490548FDF75BF942F21070FFF754
:10442000F7FDFAE734450008584A0008E80200247E
:10443000C4490008EC490008104A0008FC4900087B
:10444000244A0008404A0008000000000000000064
:1044500008B5FCF7E5FE03490348BDE80840FCF752
:10446000EFBE00BF684A0008E80300240000000017
:1044700080004FEA314100F140400160704700BFC9
:10448000800000F1404000684FEA3040704700BFB4
:10449000830730B548D0541E002A3FD0CAB2034625
:1044A00001E0013C3AD303F8012B9D07F9D1032C1D
:1044B0002DD9CDB245EA05250F2C45EA054536D95B
:1044C000A4F1100222F00F0C03F1200EE6444FEA93
:1044D000121C03F1100242E9045542E90255103260
:1044E0007245F8D10CF1010214F00C0F03EB02122B
:1044F00004F00F0C13D0ACF1040323F003030433D6
:10450000134442F8045B9342FBD10CF003042CB13A
:10451000C9B21C4403F8011B9C42FBD130BD644668
:104520001346002CF4D1F9E703461446BFE71A46B8
:04453000A446E0E7D6
:1045340000000000FFFFFFFF44332211A5A5A5A53D
:104544005A5A5A5A784A0008280E0024280E002481
:10455400280E0024784A00080000003000000030D3
:1045640000000030784A00080000003000000030ED
:1045740000000030784A00080000043000000430D5
:1045840000000430784A00080000003800000038B9
:1045940000000038784A00080008002000080020C5
:1045A40000080020784A0008000000000000000015
:1045B40000000000784A00080000803800008038BD
:1045C4000000803800000000C10A0008A10A0008A9
:1045D400010B0008E10A0008F10A0008D10A0008EA
:1045E400B10A0008910A0008110B0008000000003D
:1045F4000100000000000000566563746F723130E2
:1046040030000000286E756C6C29000056656374D8
:104614006F72423000000000566563746F7231316E
:1046240034000000566563746F7244340000000067
:10463400566563746F723838000000005665637401
:104644006F72323630000000566563746F72323513
:1046540043000000566563746F7232353800000001
:10466400566563746F7232353400000056656374A6
:104674006F72323530000000566563746F723234E5
:1046840043000000566563746F72323438000000D2
:10469400566563746F72323434000000005402585B
:1046A400085402580000000000580258008100001D
:1046B400005402581C5402580400000004580258C4
:1046C40001820000005402583054025808000000CF
:1046D40008580258028300000054025844540258F7
:1046E4000C0000000C5802580384000000540258C7
:1046F4005854025810000000105802580485000055
:10470400005402586C540258140000001458025803
:104714000586000000540258805402581800000016
:10472400185802580687000000540258945402583E
:104734001C0000001C58025807880000566563746A
:104744006F72313538000000566563746F7231350D
:1047540034000000566563746F7238300000000046
:10476400566563746F7237430000000056656374C6
:104774006F72373800000000566563746F72373407
:1047840000000000566563746F723730000000004B
:10479400566563746F723643000000005665637497
:1047A4006F72313530000000566563746F723133B7
:1047B40030000000566563746F72313243000000AC
:1047C400566563746F723132380000005665637445
:1047D4006F72313234000000566563746F72313287
:1047E40030000000566563746F7246430000000099
:1047F400566563746F723834000000001000024084
:10480400080002400008024000000B00280002409B
:10481400080002400408024006010C004000024067
:10482400080002400808024010020D00580002402F
:10483400080002400C08024016030E0070000240FB
:104844000C0002401008024000040F0088000240DF
:104854000C0002401408024006051000A0000240AB
:104864000C0002401808024010061100B800024073
:104874000C0002401C08024016072F0010040240DE
:1048840008040240200802400008380028040240BE
:10489400080402402408024006093900400402408A
:1048A4000804024028080240100A3A005804024052
:1048B400080402402C080240160B3B00700402401E
:1048C4000C04024030080240000C3C008804024002
:1048D4000C04024034080240060D4400A0040240C7
:1048E4000C04024038080240100E4500B80402408F
:1048F4000C0402403C080240160F460056656374DF
:104904006F7231443400000000000000A10C000864
:1049140021100008F110000840004000A401002408
:10492400A401002401000000B40100248000000060
:104934004001000008000000566563746F7231394D
:1049440038000000566563746F723139340000001A
:10495400566563746F7231304300000056656374AA
:104964006F72443000000000566563746F724343F5
:1049740000000000633000007849000800000000D7
:1049840000000000800C0024B00D002469646C65F4
:10499400000000006D61696E002C053804044808AD
:1049A4000C10141C20242526000000000000240400
:1049B4000100040000000000000C00102830340046
:1049C4000D0A3D3D3D20534452414D205241572054
:1049D4004F42534552564154494F4E205445535427
:1049E400203D3D3D0D0A0000496E69742053445238
:1049F400414D2E2E2E0D0A00534452414D20696E16
:104A0400697420646F6E650D0A0000000D0A2D2D77
:104A140020494E44455820256C75202D2D0D0A0043
:104A2400573A2030782530386C582020523A2030BC
:104A3400782530386C580D0A000000000D0A3D3D01
:104A44003D20454E44204F462054455354203D3D7F
:104A54003D0D0A0000C2010000000000000000003B
:104A64000000000059090000616411010000000009
:044A74001A0600001E
:04000005080003B933
:00000001FF
