:020000040800F2
:1000000000040020B9030008BB030008BB0300087C
:10001000BB030008BB030008BB030008BB030008C8
:10002000BB030008BB030008BB03000819840008D9
:10003000BB030008BB030008BB030008BB030008A8
:10004000BB030008BB030008BB030008BB03000898
:10005000BB030008BB030008BB030008BB03000888
:10006000BB030008BB030008BB030008753700088A
:10007000C5370008193800086D380008C138000875
:10008000113900086539000879330008BB030008FE
:10009000BB030008BB030008BB030008BB03000848
:1000A000BB030008BB030008BB030008BB03000838
:1000B000B5290008BB030008BB030008BB03000808
:1000C000BB030008D1400008154100082563000863
:1000D0004D630008CD280008BB030008BB030008DF
:1000E000BB030008BB030008BB030008BB030008F8
:1000F000BB030008BB030008BB030008B9390008B4
:100100004127000889280008BB0300087563000820
:10011000BB03000829290008BB030008BB03000833
:100120000D3A00085D3A0008B13A0008053B0008A6
:10013000593B0008BB030008BB030008BB030008D1
:10014000BB030008BB030008BB030008BB03000897
:10015000A93B0008FD3B0008513C0008BB03000818
:10016000BB030008BB030008BB030008BB03000877
:10017000BB030008BB030008BB030008BB03000867
:10018000BB030008BB030008BB030008BB03000857
:10019000BB0300089D630008C5630008BB0300089B
:1001A000BB030008BB030008BB030008BB03000837
:1001B000BB030008BB030008BB030008BB03000827
:1001C000BB030008BB030008BB030008BB03000817
:1001D000BB030008D14D0008BB030008BB030008A7
:1001E000BB030008BB030008BB030008BB030008F7
:1001F000BB030008BB030008BB030008BB030008E7
:10020000BB030008BB030008BB030008BB030008D6
:10021000BB030008BB030008BB030008BB030008C6
:10022000BB030008BB030008BB030008BB030008B6
:10023000BB030008BB030008BB030008BB030008A6
:10024000BB0300086D340008BD34000811350008F8
:1002500065350008B93500080D360008613600081C
:10026000B5360008BB030008BB030008BB03000849
:10027000BB030008BB030008BB030008BB03000866
:10028000BB030008BB030008BB030008BB03000856
:10029000BB030008BB030008BB030008BB03000846
:1002A000BB030008BB030008BB030008BB03000836
:1002B000BB030008BB030008BB030008BB03000826
:1002C000BB030008BB030008BB030008BB03000816
:1002D000BB030008BB030008BB030008BB03000806
:1002E00072B6264880F30888254880F30988254897
:1002F00025490860022080F31488BFF36F8F00F057
:10030000C9F906F02BFC4FF0553020491B4A9142A9
:100310003CBF41F8040BFAE71D49194A91423CBF22
:1003200041F8040BFAE71B491B4A1C4B9A423EBF9B
:1003300051F8040B42F8040BF8E700201849194A59
:1003400091423CBF41F8040BFAE700F0B5F900F028
:10035000A9F9154C154DAC4203DA54F8041B884733
:10036000F9E708F0EFF8124C124DAC4203DA54F8FA
:10037000041B8847F9E700F09BB900000004002047
:10038000000800200000000808ED00E00000002048
:1003900000040020B48B00080000002400000024AA
:1003A00000000024AC0E0024E0020008E002000877
:1003B000E0020008E002000892E700F000F8FEE723
:1003C0002DE9F04FC1F80CD0D0F80CD0BDE8F08F7B
:1003D000002383F311882846A047002007F008FD7A
:1003E000FEE707F09DFA00DFFEE70000844641EAE1
:1003F000000313F003036DD1403A41D351F8043B9D
:1004000040F8043B51F8043B40F8043B51F8043BEE
:1004100040F8043B51F8043B40F8043B51F8043BDE
:1004200040F8043B51F8043B40F8043B51F8043BCE
:1004300040F8043B51F8043B40F8043B51F8043BBE
:1004400040F8043B51F8043B40F8043B51F8043BAE
:1004500040F8043B51F8043B40F8043B51F8043B9E
:1004600040F8043B51F8043B40F8043B51F8043B8E
:1004700040F8043B51F8043B40F8043B403ABDD2FD
:10048000303211D351F8043B40F8043B51F8043B9F
:1004900040F8043B51F8043B40F8043B51F8043B5E
:1004A00040F8043B103AEDD20C3205D351F8043B2E
:1004B00040F8043B043AF9D2043208D0D2071CBFFA
:1004C00011F8013B00F8013B01D30B880380604623
:1004D000704700BF082A13D38B078DD010F0030399
:1004E0008AD0C3F10403D21ADB071CBF11F8013B09
:1004F00000F8013B80D331F8023B20F8023B7BE758
:10050000043AD9D3013A11F8013B00F8013BF9D282
:100510000B7803704B7843708B788370604670471C
:1005200080B400AFBFF34F8F00BFBFF36F8F00BF2A
:100530000C4B0022C3F85022BFF34F8F00BFBFF314
:100540006F8F00BF074B5B69064A43F4003353616A
:10055000BFF34F8F00BFBFF36F8F00BF00BFBD461B
:1005600080BC704700ED00E080B400AFBFF34F8F58
:1005700000BFBFF36F8F00BF064B0022C3F85022AD
:10058000BFF34F8F00BFBFF36F8F00BF00BFBD46EB
:1005900080BC704700ED00E080B485B000AF1F4B19
:1005A0000022C3F88420BFF34F8F00BF1B4BD3F84A
:1005B00080307B607B685B0BC3F30E03FB607B6862
:1005C000DB08C3F30903BB60FB685A0143F6E07321
:1005D0001340BA68920711491343C1F86032BB68EF
:1005E0005A1EBA60002BEFD1FB685A1EFA60002B2E
:1005F000E5D1BFF34F8F00BF084B5B69074A43F457
:1006000080335361BFF34F8F00BFBFF36F8F00BFC5
:1006100000BF1437BD4680BC704700BF00ED00E04E
:1006200080B485B000AF1A4B0022C3F88420BFF31A
:100630004F8F00BF164BD3F880307B607B685B0B1D
:10064000C3F30E03FB607B68DB08C3F30903BB60E5
:10065000FB685A0143F6E0731340BA6892070C49ED
:100660001343C1F86C32BB685A1EBA60002BEFD13D
:10067000FB685A1EFA60002BE5D1BFF34F8F00BF15
:10068000BFF36F8F00BF00BF1437BD4680BC7047FB
:1006900000ED00E080B500AFFFF742FFFFF77CFF01
:1006A00000BF80BD80B400AF00BFBD4680BC7047B6
:1006B00080B400AFFEE7000080B584B000AF194BF6
:1006C000FB60FB681B68BB60FB685B687B6009E0E4
:1006D000BB681A687B681A607B6804337B60BB6800
:1006E0000433BB60FB689B687A689A42F0D305E0EC
:1006F0007B6800221A607B6804337B60FB68DB68E0
:100700007A689A42F4D3FB681033FB60FB68064AB0
:100710009342D6D3FFF784FFFFF726FF00BF1037C1
:10072000BD4680BDC88500084886000880B400AF7B
:1007300000BFBD4680BC704780B500AFFFF7F6FF35
:1007400002F098FB03F0EAFA00F0F9FB00F027FC56
:1007500001F014FA00F05CFF01F05CFA01F0E2FC39
:1007600001F0D4FF06F016FA00F037F800BF80BDA4
:1007700080B400AF4FF080435B6A1846BD4680BC32
:10078000704780B483B000AF78604FF080427B68E0
:1007900053634FF0804300221A614FF080430222DE
:1007A000DA6000BF0C37BD4680BC704780B400AF34
:1007B0004FF080430022DA6000BFBD4680BC704726
:1007C00080B483B000AF78604FF080427B685363A1
:1007D00000BF0C37BD4680BC704780B500AF05F048
:1007E00005FF00BF80BD80B500AFFFF7C1FF034626
:1007F000184680BD80B582B000AF78607868FFF79A
:10080000C0FF00BF0837BD4680BD80B500AFFFF711
:10081000CDFF00BF80BD80B582B000AF7860786842
:10082000FFF7CEFF00BF0837BD4680BD80B483B060
:1008300000AF78607B687A681A607B687A685A6073
:1008400000BF0C37BD4680BC704780B483B000AF9A
:1008500030237B607B6883F3118800BF00BF00BF3B
:100860000C37BD4680BC704780B483B000AF002316
:100870007B607B6883F3118800BF00BF00BF0C372B
:10088000BD4680BC704780B582B000AF78607B68A1
:100890001846FFF7CBFF00BF0837BD4680BD80B5C7
:1008A00000AFFFF7D2FF00BF80BD80B500AFFFF7FC
:1008B000DBFF00BF80BD80B582B000AF7860786894
:1008C000FFF7E1FF00BF0837BD4680BD80B582B0AD
:1008D00000AF786039603968786807F01EFB03461E
:1008E00018460837BD4680BD80B582B000AF78603D
:1008F00039603968786807F031FB00BF0837BD46BA
:1009000080BD80B586B000AFF860B9607A60FB68E2
:100910009B687A689A4202D9FB689B687B60FB6897
:100920001A69FB689B69D31A7B617A687B699A4272
:100930000DD2FB689B697A681946B868FFF756FDC7
:10094000FB689A697B681A44FB689A612BE07A68B5
:100950007B699A421CD9FB689B697A691946B86819
:10096000FFF744FDBA687B691344BB607A687B6912
:10097000D31A3B61FB68DB683A691946B868FFF730
:1009800035FDFB68DA683B691A44FB689A610AE046
:10099000FB689B697A681946B868FFF727FDFB6812
:1009A000DA68FB689A61FB689A687B68D21AFB6810
:1009B0009A607B6818461837BD4680BD80B586B002
:1009C00000AFF860B9607A60FB689B687A689A4209
:1009D00002D9FB689B687B60FB681A69FB685B69EE
:1009E000D31A7B617A687B699A420DD2FB685B6996
:1009F0007A68B9681846FFF7F9FCFB685A697B68A2
:100A00001A44FB685A612BE07A687B699A421CD9C8
:100A1000FB685B697A69B9681846FFF7E7FCBA6852
:100A20007B691344BB607A687B69D31A3B61FB68BE
:100A3000DB683A69B9681846FFF7D8FCFB68DA68E2
:100A40003B691A44FB685A610AE0FB685B697A6893
:100A5000B9681846FFF7CAFCFB68DA68FB685A6198
:100A6000FB689A687B68D21AFB689A607B681846B4
:100A70001837BD4680BD80B584B000AFF860B9605E
:100A80007A603B60FB681846FFF715FFFB680022A1
:100A90009A60FB68BA68DA60FB68BA689A61FB68BA
:100AA000BA685A61BA687B681A44FB681A61FB68C5
:100AB0003A68DA61FB68BA691A6200BF1037BD464E
:100AC00080BD80B582B000AF78600B46FB707B685C
:100AD0005A697B689B699A4205D17B689B68002BA9
:100AE00001D0012300E0002303F00103DBB283F017
:100AF0000103DBB2002B1CD07B689B685A1C7B680F
:100B00009A607B685B69591C7A685161FA781A703F
:100B10007B685A697B681B699A4203D37B68DA68F1
:100B20007B685A617B6800211846FFF7DDFE0023D1
:100B300001E04FF0FF3318460837BD4680BD80B551
:100B400084B000AF78603960FFF7A9FE0CE07B68E5
:100B500039681846FFF7BAFEB860BB68002B03DAA5
:100B6000FFF7A3FEBB6824E07B689B68002BEED0F8
:100B70007B689B685A1E7B689A607B689B69591CDE
:100B80007A6891611B78FB737B689A697B681B6943
:100B90009A4203D37B68DA687B689A617B68DB6979
:100BA000002B03D07B68DB6978689847FFF77DFEF0
:100BB000FB7B18461037BD4680BD80B588B000AFBE
:100BC000F860B9607A603B60FB68DB69FB617B6859
:100BD000BB61FFF764FE24E07A68B968F868FFF744
:100BE00090FE78617B69002B09D1FB683968184653
:100BF000FFF76CFE38613B69002B12D014E0FB69F3
:100C0000002B02D0FB69F8689847FFF74EFE7A6820
:100C10007B69D31A7B60BA687B691344BB60FFF7BA
:100C20003EFE7B68002BD7D1FFF73FFEBA697B6899
:100C3000D31A18462037BD4680BD80B584B000AFBA
:100C4000F860B9607A603B60FB681846FFF733FED6
:100C5000FB687A689A60FB68BA68DA60FB68BA6811
:100C60009A61FB68BA685A61BA687B681A44FB6883
:100C70001A61FB683A68DA61FB68BA691A6200BFF8
:100C80001037BD4680BD80B586B000AFF8600B461A
:100C90007A60FB72FFF703FE0CE0FB687968184688
:100CA000FFF714FE78617B69002B03DAFFF7FDFD87
:100CB0007B6924E0FB689B68002BEED0FB689B6897
:100CC0005A1EFB689A60FB685B69591CFA6851619F
:100CD000FA7A1A70FB685A69FB681B699A4203D357
:100CE000FB68DA68FB685A61FB68DB69002B03D09C
:100CF000FB68DB69F8689847FFF7D7FD00231846C3
:100D00001837BD4680BD80B584B000AF78607B6881
:100D10005A697B689B699A4205D17B689B68002B66
:100D200001D0012300E0002303F00103DBB283F0D4
:100D30000103DBB2002B1CD07B689B685A1C7B68CC
:100D40009A607B689B69591C7A6891611B78FB7378
:100D50007B689A697B681B699A4203D37B68DA686F
:100D60007B689A617B6800211846FFF7BDFDFB7B1D
:100D700001E04FF0FF3318461037BD4680BD80B507
:100D800088B000AFF860B9607A603B60FB68DB69EF
:100D9000FB617B68BB61FFF782FD24E07A68B9687C
:100DA000F868FFF70BFE78617B69002B09D1FB68BF
:100DB00039681846FFF78AFD38613B69002B12D06D
:100DC00014E0FB69002B02D0FB69F8689847FFF735
:100DD0006CFD7A687B69D31A7B60BA687B691344BF
:100DE000BB60FFF75CFD7B68002BD7D1FFF75DFD93
:100DF000BA697B68D31A18462037BD4680BD80B4D7
:100E000089B000AFF860B9607A607B685B097B618C
:100E10007B6803F01F033B61BB685B09FB61BB6838
:100E200003F01F030133012202FA03F3013BBB610C
:100E30007A69FB699A4214D27B699B00FA68134471
:100E40001A683B69DA40FB699B00F9680B44196832
:100E5000BB6919403B69C3F1200301FA03F3134353
:100E600009E07B699B00FA6813441A68BB691A4061
:100E70003B6922FA03F318462437BD4680BC70470D
:100E800080B586B000AF78607E227F217868FFF75A
:100E9000B6FF0346002B04D0012B1ED000BF002359
:100EA00023E03E2249217868FFF7A9FF78612F22CD
:100EB00031217868FFF7A3FF386150225321786809
:100EC000FFF79DFFF8607B695A1C3B6902339A402B
:100ED000FB68093B02FA03F307E0302245217868FA
:100EE000FFF78DFF034601339B0218461837BD46B6
:100EF00080BD80B483B000AF78607B68D7331B7847
:100F00001A067B68D6331B781B041A447B68D533DA
:100F10001B781B0213447A68D432127813441846A3
:100F20000C37BD4680BC704780B582B000AF78609A
:100F3000786807F0B4F800BF0837BD4680BD80B5BB
:100F400000AF02F039FA00BF80BD80B582B000AFBB
:100F500078607B6801221A707B6800225A607B6887
:100F600000229A607B680022DA607B6800221A61A6
:100F70007B6800225A617B6818331846FFF7D4FF5C
:100F800000BF0837BD4680BD80B582B000AF786035
:100F9000786807F084F800BF0837BD4680BD80B58B
:100FA00000AF03F0D9F800BF80BD80B582B000AFBC
:100FB00078607B6801221A707B6800225A607B6827
:100FC0000C331846FFF7E0FF00BF0837BD4680BD71
:100FD00080B483B000AF30237B607B6883F31188DB
:100FE00000BF00BF00BF0C37BD4680BC704780B457
:100FF00083B000AF00237B607B6883F3118800BF60
:1010000000BF00BF0C37BD4680BC704780B500AF45
:10101000FFF7DEFF00BF80BD80B500AFFFF7E7FF41
:1010200000BF80BD80B582B000AF7860786806F000
:101030002AFF00BF0837BD4680BD000080B584B0E0
:1010400000AF786007F10C034FF4D572082178687F
:1010500004F052FD034683F00103DBB2002B1BD0EA
:101060007B6801221A63FB681B0A03F00F03012B44
:1010700001D001232CE007F10C030022372178680E
:1010800004F03AFD0346002B04D1FA68124B1340DA
:10109000002B1CD001231BE007F10C030022372199
:1010A000786804F029FD0346002B04D1FA680A4B46
:1010B0001340002B03D07B6802221A6307E07B6891
:1010C00000221A6300220021786804F0BCFC00238F
:1010D00018461037BD4680BD08E0FFFD80B586B0DC
:1010E00000AF7860184B3B6100237B6107F10C0374
:1010F0003A690121786804F0C8FC0346002B01D04E
:1011000001231CE0FB68002B0BDAFB6803F0804333
:10111000002B12D07B681B6B43F010027B681A63B4
:101120000BE07B6901337B617B69632B01D9012370
:1011300005E06420FFF776FFD8E700BF00231846DC
:101140001837BD4680BD00BF0080FFC080B586B0A7
:1011500000AF78607B681B6B03F00F03012B02D19B
:10116000224B3B6101E0224B3B6100237B6107F195
:101170000C0300223721786804F0BEFC0346002BE4
:1011800004D1FA681B4B1340002B01D0012328E047
:1011900007F10C033A692921786804F076FC0346CC
:1011A000002B01D001231CE0FB68002B0BDAFB684D
:1011B00003F08043002B12D07B681B6B43F01002BE
:1011C0007B681A630BE07B6901337B617B69632B6E
:1011D00001D9012305E06420FFF724FFC7E700BF22
:1011E000002318461837BD4680BD00BF0080FF5061
:1011F0000000108008E0FFFD80B485B000AFB9604A
:101200007A603B600346FB73FB7B1A06BB681B04DA
:101210001A437B681B021A433B6813431846143772
:10122000BD4680BC704780B485B000AF03463A60CD
:10123000FB710B46BB716FF07F43FB60BB799B007A
:101240000F2202FA03F3DB43FA681340FB60BB7919
:101250009B003A6802FA03F3FA681343FB60FB79D8
:10126000DA07FB68134318461437BD4680BC704745
:1012700080B485B000AF03463960FB71FB79C3F1E0
:1012800006035B00FB603A68FB6813441B781B0293
:101290001AB2FB68013339680B441B781BB2134345
:1012A0001BB29BB218461437BD4680BC704780B451
:1012B00085B000AF03463960FB713B680E331B7885
:1012C0001A043B680F331B781B0213433A68103231
:1012D00012781343FB60FB799B00FA6822FA03F350
:1012E00003F00F03BB60BB680F2B01D0002300E0AD
:1012F000012318461437BD4680BC704780B588B0BE
:1013000002AF7860396040237B617B68DB6B3B61B7
:101310003B6800221A707B6818337E227F211846B2
:10132000FFF76DFD0346002B04D13B6800221A70C5
:1013300000233AE00023009306237A69396978682C
:1013400004F05EFC0346002B01D001232DE0396937
:101350000020FFF78DFF034603F00203022B23D189
:10136000012200210120FFF75EFFF860FB68009377
:1013700006237A693969786804F042FC0346002B39
:1013800001D0012311E039690020FFF790FF0346E7
:1013900083F00103DBB2002B03D03B6801221A70FB
:1013A00002E03B6800221A70002318461837BD4639
:1013B00080BD000080B584B000AF786039603B68C4
:1013C00000221A7000230122B9210320FFF714FF25
:1013D000F86007F10803FA680621786804F08CFBCE
:1013E000034683F00103DBB2002B07D0BA68064B3B
:1013F0001340002B02D13B6801221A7000231846CB
:101400001037BD4680BD00BF08E0FFFD80B582B04B
:1014100000AF786039607B681B6B03F00F03022B11
:1014200005D139687868FFF7C5FF034604E03968DD
:101430007868FFF763FF034618460837BD4680BD4E
:1014400080B584B000AF78607B68DB6A1B78002BC6
:1014500001D100232EE07B68DB6A1B78012B26D1AB
:101460000121786804F0C1FA7B689A6B07F10C03DC
:101470003721786804F040FB0346002B04D1FA685A
:101480000E4B1340002B01D0012313E007F10C0396
:1014900002220621786804F02FFB0346002B04D1BA
:1014A000FA68064B1340002B03D0012302E001230E
:1014B00000E0002318461037BD4680BD08E0FFFD60
:1014C00080B584B000AF786000230022B7210320EC
:1014D000FFF792FEF8607B68DB6A1B78022B10D066
:1014E000022B16DC002B02D0012B02D011E00023CE
:1014F00029E000230122B7210320FFF77DFEF860D9
:1015000008E000230222B7210320FFF775FEF860F0
:1015100000E000BF7B68DB6A1B781946786804F03E
:1015200064FA07F10803FA680621786804F0E4FA1F
:101530000346002B04D1BA68054B1340002B01D0A1
:10154000012300E0002318461037BD4680BD00BFD0
:1015500008E0FFFD80B584B000AF78600B46FB70FB
:10156000FB78002B0AD07B689A6B07F108030D21EA
:10157000786804F0C1FA0346FB7309E07B689A6B54
:1015800007F108030D21786804F07FFA0346FB7326
:10159000FB7B002B04D1BA680F4B1340002B01D00A
:1015A000012314E0BB685B0A03F00F03042B05D092
:1015B000042B09D3053B022B06D801E0002306E0EB
:1015C0000A20FFF72FFD01E0012300E0C8E71846DD
:1015D0001037BD4680BD00BF08E0FFFD80B582B07A
:1015E00000AF786001217868FFF7B4FF0346184622
:1015F0000837BD4680BD80B582B000AF786000215D
:101600007868FFF7A7FF034618460837BD4680BD38
:1016100080B500AF04F02AF900BF80BD80B483B06C
:1016200000AF78607B68094A1A607B6801221A71F2
:101630007B6800225A637B680022DA627B680022A2
:101640009A6200BF0C37BD4680BC704748860008D0
:1016500080B584B000AF78603960FFF7D7FC7B6855
:101660003A68DA62786804F021F97B6802221A711C
:101670000023FB60FFF7D0FCFB6818461037BD461F
:1016800080BD000080B588B002AF78600023FB7396
:101690007B6803221A71786804F042F90022002165
:1016A000786804F0D0F97868FFF7C8FC0346002B8F
:1016B00040F0BA807B681B6B03F00F03022B06D14E
:1016C0007868FFF70BFD0346002B07D0C1E0786870
:1016D000FFF73CFD0346002B40F0A8807B680833F1
:1016E00000220221786804F03EFA0346002B40F005
:1016F0009F807B68383300220321786804F0FCF96E
:101700000346002B40F096807B689A6B7B68183309
:101710000921786804F027FA0346002B40F08C80FA
:101720007B689A6B07F110030721786804F0E4F9ED
:101730000346002B40F0828007F10F0319467868BA
:10174000FFF764FE0346002B7AD1FB7B19467868CD
:1017500004F004F97868FFF74EFF0346002B71D1BF
:101760007B681B6B03F00F03022B28D17B681833B7
:101770007E227F211846FFF742FB0346012B15D935
:101780007B68DB6B7B610023009308234FF40072BE
:101790007969786804F034FA0346002B54D17869EB
:1017A000FFF7A7FB02467B689A6210E07B6818335C
:1017B0001846FFF765FB02467B689A6207E07B6884
:1017C00018331846FFF75CFB02467B689A6207F104
:1017D00010034FF400721021786804F08DF903466D
:1017E000002B33D13A69204B1340002B2ED17B685C
:1017F0001B6B03F00F03012B02D9022B07D028E04B
:101800007868FFF71DFE0346002B07D021E07868BB
:10181000FFF756FE0346002B1AD100E000BF7B689D
:1018200005221A7100231BE000BF12E000BF10E088
:1018300000BF0EE000BF0CE000BF0AE000BF08E000
:1018400000BF06E000BF04E000BF02E000BF00E010
:1018500000BF786804F0B8F87B6802221A7101238F
:1018600018461837BD4680BD08E0FFFD80B582B040
:1018700000AF7860FFF7CAFB7B681B79022B03D1AE
:10188000FFF7CAFB002319E07B6804221A71FFF7F7
:10189000C3FB7868FFF7A2FE0346002B07D07868E9
:1018A00004F092F87B6802221A71012306E078683E
:1018B00004F08AF87B6802221A7100231846083760
:1018C000BD4680BD80B586B000AFF860B9607A6073
:1018D0003B60BA683B6813445A1EFB689B6A9A4295
:1018E00007D9FB685B6B43F08002FB685A630123F6
:1018F0000EE0FB6806221A713B687A68B968F868DE
:1019000004F09AFA0346FB75FB6805221A71FB7D09
:1019100018461837BD4680BD80B586B000AFF86068
:10192000B9607A603B60BA683B6813445A1EFB6832
:101930009B6A9A4207D9FB685B6B43F08002FB68A5
:101940005A6301230EE0FB6807221A713B687A682C
:10195000B968F86804F0AEFA0346FB75FB68052227
:101960001A71FB7D18461837BD4680BD80B584B01E
:1019700000AF78607B681B79052B01D001230BE059
:101980007B6808221A71786804F0D2FA0346FB7368
:101990007B6805221A71FB7B18461037BD4680BD57
:1019A00080B483B000AF786039607B681B79052B09
:1019B00001D0012308E07B689A6A3B685A603B6863
:1019C0004FF400721A60002318460C37BD4680BCE5
:1019D000704780B483B000AF78607B687A681A6023
:1019E00000BF0C37BD4680BC704780B582B000AFE9
:1019F00078607868FFF7EDFF00BF0837BD4680BD0F
:101A000080B582B000AF786039603968786806F0D8
:101A100084FB00BF0837BD4680BD80B584B000AFF1
:101A2000F860B9607A60FB6803F130004FF0FF3373
:101A30007A68B968FFF7A3F9034618461037BD4620
:101A400080BD80B584B000AFF860B9607A60FB6893
:101A500003F10C004FF0FF337A68B968FFF7ADF877
:101A6000034618461037BD4680BD80B582B000AF32
:101A700078600B46FB707B683033F9784FF0FF32AB
:101A80001846FFF700F9034618460837BD4680BDE3
:101A900080B582B000AF78607B680C334FF0FF31C7
:101AA0001846FFF74CF8034618460837BD4680BD78
:101AB00080B584B000AFF8600B467A60FB72FB68BB
:101AC0003033F97A7A681846FFF7DDF8034618468E
:101AD0001037BD4680BD80B582B000AF78603960F8
:101AE0007B680C3339681846FFF729F80346184617
:101AF0000837BD4680BD80B584B000AFF860B960DE
:101B00007A603B60FB6803F130003B687A68B96833
:101B1000FFF735F9034618461037BD4680BD80B53E
:101B200084B000AFF860B9607A603B60FB6803F195
:101B30000C003B687A68B968FFF73FF8034618461F
:101B40001037BD4680BD80B487B000AFF860B96083
:101B50007A60FB687B61BB68002B03D0BB68012BFC
:101B600003D105E06FF0130303E06FF0130300E00F
:101B7000002318461C37BD4680BC704780B500AFB7
:101B800004F01EFE00BF80BD80B582B000AF78605B
:101B90007B68074A1A607B6804331846FFF725FF05
:101BA0007B6801221A7200BF0837BD4680BD00BFA6
:101BB0006C86000880B582B000AF78600B46FB7081
:101BC0007B685B69002B05D17B68043304211846D0
:101BD000FFF716FF7B680C33FA7811461846FEF7BC
:101BE00070FF0346002B06DA7B6804334FF4006174
:101BF0001846FFF705FF00BF0837BD4680BD80B51A
:101C000082B000AF7860786806F049FA00BF083704
:101C1000BD4680BD80B500AF04F0E8FB00BF80BDCD
:101C200080B582B000AF78607B6801221A707B6853
:101C300000225A607B6800229A607B680C33184649
:101C4000FFF7DDFF00BF0837BD4680BD80B483B01D
:101C500000AF30237B607B6883F3118800BF00BF37
:101C600000BF00BF0C37BD4680BC704780B483B056
:101C700000AF00237B607B6883F3118800BF00BF47
:101C800000BF00BF0C37BD4680BC704780B500AFB9
:101C9000FFF7DCFF00BF80BD80B500AFFFF7E6FFB8
:101CA00000BF80BD80B485B000AF78607B685A1CEF
:101CB0007A601B78FB817B681B781B021AB2B7F92C
:101CC0000E3013431BB2FB81FB8918461437BD4607
:101CD00080BC704780B582B000AF78607B6893F8B5
:101CE00082207B6883F88A20786803F037F97B6864
:101CF0005B681B68002B05D07B685B681B68012153
:101D0000786898477B6803221A7000BF0837BD4681
:101D100080BD0000F0B585B000AF78607B6893F8B7
:101D2000803003F07F027B6893F881301B021343FD
:101D300040F60242934200F0208140F60242934274
:101D400000F2E481B3F5106F00F0D680B3F5106FA8
:101D500000F2DC81B3F5006F00F0C180B3F5006FD5
:101D600000F2D48140F20162934200F2CF81B3F5D8
:101D7000C06F80F08E80B3F5A06F72D0B3F5A06F06
:101D800000F2C48140F20232934200F08B8140F2B3
:101D90000232934200F2BA81B3F5407F46D0B3F5E8
:101DA000407F00F2B381B3F5817F00F04781B3F546
:101DB000817F00F2AB81B3F5807F1CD0B3F5807FCB
:101DC00000F2A481022B00F0E380022B00F29E813E
:101DD000002B03D0012B00F0D08097E17B6803F14A
:101DE00088027B685A677B6802229A677B680022B8
:101DF000DA6701238BE17B6893F88230012B13D1E2
:101E00007B68B3F8883023F002039AB27B68A3F8AA
:101E100088207B6800225A677B6800229A677B686B
:101E20000022DA67012372E1002370E17B6893F8F6
:101E30008230012B13D17B68B3F8883043F0020362
:101E40009AB27B68A3F888207B6800225A677B6877
:101E500000229A677B680022DA67012357E100239A
:101E600055E17B6893F88030002B07D17B6893F8AD
:101E70008130052B02D17868FFF72CFF7B680022A8
:101E80005A677B6800229A677B680022DA67012321
:101E90003DE17B685B685C687B6893F883507B6896
:101EA00093F882607B6884331846FFF7FBFE034695
:101EB000324629467868A047F860FB68002B01D1BC
:101EC000002324E1FB685A687B685A67FB681A683C
:101ED0007B689A677B680022DA67012317E17B68D9
:101EE00003F18B027B685A677B6801229A677B68E3
:101EF0000022DA6701230AE17B681B78042B18D1E2
:101F0000FFF7C4FE786800F03DF9FFF7C5FE7B6877
:101F1000002283F88B207B6803221A707B685B6841
:101F20001B68002B05D07B685B681B680321786801
:101F300098477B6893F88230002B13D07B6893F826
:101F400082207B6883F88B207B6804221A707B6870
:101F50005B681B68002B05D07B685B681B680221EF
:101F6000786898477B6800225A677B6800229A67E6
:101F70007B680022DA670123C9E07B68664A5A67FA
:101F80007B6802229A677B680022DA670123BEE041
:101F90007B6893F884305BB2002B27DA7B6893F878
:101FA000843003F00F03DBB21946786803F021F8A0
:101FB0000346012B02D0022B0BD015E07B68574A59
:101FC0005A677B6802229A677B680022DA670123DE
:101FD0009DE07B68524A5A677B6802229A677B6859
:101FE0000022DA67012392E0002390E07B6893F8F7
:101FF000843003F00F03DBB21946786802F0D6FF95
:102000000346012B02D0022B0BD015E07B68434A1C
:102010005A677B6802229A677B680022DA6701238D
:1020200075E07B683E4A5A677B6802229A677B6844
:102030000022DA6701236AE0002368E07B6893F8F6
:102040008230002B01D0002361E07B6893F884305C
:1020500003F00F03002B1AD07B6893F884305BB237
:10206000002B0ADA7B6893F8843003F00F03DBB2AD
:102070001946786803F09CF909E07B6893F884308E
:1020800003F00F03DBB21946786803F074F97B683C
:1020900000225A677B6800229A677B680022DA6711
:1020A000012334E07B6893F88230002B01D00023B9
:1020B0002DE07B6893F8843003F00F03002B1AD0D7
:1020C0007B6893F884305BB2002B0ADA7B6893F864
:1020D000843003F00F03DBB21946786803F02EF961
:1020E00009E07B6893F8843003F00F03DBB21946F4
:1020F000786803F006F97B6800225A677B68002243
:102100009A677B680022DA67012300E00023184603
:102110001437BD46F0BD00BF948600089C860008B9
:102120009886000880B500AF02F066FE00BF80BD53
:1021300080B485B000AF78607B6801221A707B683C
:1021400000225A600023FB600EE07B68FA680C32C4
:10215000002143F822107B68FA681432002143F80A
:102160002210FB680133FB60FB68072BEDD97B680D
:1021700000221A817B6800225A8100BF1437BD46B5
:1021800080BC704780B584B000AF78607B681B89E5
:1021900003F001039AB27B681A817B685B8903F0C4
:1021A00001039AB27B685A810123FB6009E07A68D7
:1021B000FB6802339B00134400225A60FB68013322
:1021C000FB60FB68082BF2D9786802F0E1FE00BFE3
:1021D0001037BD4680BD80B586B000AFF8607A602C
:1021E0003B600B46FB72FB685A89FB7A012101FABE
:1021F00003F39BB213439AB2FB685A81FB7AFA68E5
:1022000002339B0013445B689B697B617B697A683E
:102210009A607B693A681A607B6900225A60FB7A8F
:102220001946F86802F01FFF00BF1837BD4680BD91
:1022300080B586B000AFF8607A603B600B46FB72F9
:10224000FB681A89FB7A012101FA03F39BB213435D
:102250009AB2FB681A81FB7AFA6802339B00134436
:102260005B685B697B617B697A689A607B693A68C5
:102270001A607B6900225A60FB7A1946F86802F0FE
:1022800091FF00BF1837BD4680BD80B584B000AF58
:1022900078607B6802221A707B680022A3F888208D
:1022A0007B68002283F88A207B68002283F88B20D9
:1022B0007B6800221A817B6800225A810023FB6020
:1022C00009E07A68FB6802339B00134400225A60DD
:1022D000FB680133FB60FB68082BF2D97B680022A6
:1022E00083F87020786802F09DFD7B685B681B684E
:1022F000002B05D07B685B681B68002178689847D5
:1023000000BF1037BD4680BD80B582B000AF786099
:102310007B681B78052B18D07B681A787B6883F85C
:102320008C207B6805221A707B685B681B68002B19
:1023300005D07B685B681B680421786898477B68D8
:1023400000221A817B6800225A8100BF0837BD46EF
:1023500080BD80B582B000AF78607B681B78052BAC
:102360000FD17B6893F88C207B681A707B685B6860
:102370001B68002B05D07B685B681B6805217868AB
:10238000984700BF0837BD4680BD80B584B000AF18
:1023900078600B46FB707B6893F87030002B03D09D
:1023A0007B68002283F870207B6803F18002FB7851
:1023B0001946786802F040FE7B685B689B68002BDA
:1023C0000AD07B685B689B6878689847034683F00F
:1023D0000103DBB2002B27D07B6893F8803003F039
:1023E0006003002B08D17868FFF794FC034683F064
:1023F0000103DBB2002B17D00021786802F09EFFAA
:102400000021786802F07DFF7B685B681B68002B09
:1024100005D07B685B681B680621786898477B68F5
:10242000062283F870205BE07B6886331846FFF74E
:1024300039FC0346FB607B689B6FFA689A4202D2C4
:102440007B68FA689A677B6893F880305BB2002BF0
:1024500023DA7B689B6F002B10D07B68092283F8FE
:102460007020FFF713FC7B685A6F7B689B6F00211D
:102470007868FFF7DDFEFFF70FFC31E07B68142280
:1024800083F87020FFF702FC002300220021786807
:10249000FFF7A1FEFFF700FC22E07B689B6F002B9B
:1024A00010D07B68152283F87020FFF7EFFB7B6864
:1024B0005A6F7B689B6F00217868FFF78CFEFFF7EF
:1024C000EBFB0DE07B680B2283F87020FFF7DEFB4F
:1024D0000023002200217868FFF7AAFEFFF7DCFB4B
:1024E0001037BD4680BD000080B584B000AF786075
:1024F0000B46FB707B6893F87030152B00F28B80D5
:1025000001A252F823F000BFE725000817260008B3
:1025100017260008172600081726000817260008A7
:10252000E72500081726000817260008612500087F
:10253000AF250008CD25000817260008172600083B
:102540001726000817260008172600081726000877
:102550001726000817260008E7250008E7250008C9
:102560007B6886331846FFF79DFB0346FB607B685C
:102570009B6FFA689A421AD97B689B6F7A68D26817
:10258000128AB3FBF2F101FB02F29B1A002B0ED16F
:10259000FFF77CFB0023002200217868FFF748FE4C
:1025A000FFF77AFB7B680A2283F8702033E07B68B0
:1025B000142283F87020FFF769FB0023002200211A
:1025C0007868FFF708FEFFF767FB24E07B68DB6FA6
:1025D000002B03D07B68DB6F786898477B6800220C
:1025E00083F8702017E00021786802F0A7FE002130
:1025F000786802F086FE7B685B681B68002B05D05C
:102600007B685B681B680621786898477B680622B0
:1026100083F8702000BF1037BD4680BD80B582B002
:1026200000AF78600B46FB707B6893F87030152B19
:1026300069D801A252F823F0D52600080727000820
:1026400007270008072700080727000807270008B2
:10265000D52600080727000807270008D526000808
:10266000D5260008D52600080727000807270008F8
:102670000727000807270008072700080727000882
:102680000727000807270008AF2600089126000842
:102690007B680B2283F87020FFF7F8FA00230022F2
:1026A00000217868FFF7C4FDFFF7F6FA2BE07B689E
:1026B000DB689B695B68002B24D17B68DB6F002B98
:1026C00003D07B68DB6F786898477B68002283F8CB
:1026D000702018E00021786802F030FE0021786850
:1026E00002F00FFE7B685B681B68002B05D07B68DF
:1026F0005B681B680621786898477B68062283F828
:10270000702000E000BF0837BD4680BD80B500AF37
:1027100000F002F800BF80BD80B400AF064B1B780C
:10272000002B05D1044B01221A70034B034A5A6057
:1027300000BFBD4680BC70470000002440410052ED
:1027400080B500AF044804F0BFFB034804F0F6FB7B
:1027500005F0B4FE00BF80BDA086000880B483B041
:1027600000AF786039603B68DBB2124A1B01D9B216
:102770007B68134403F540730A461A707B6803F0C4
:102780001F020C497B685B09012000FA02F26033EA
:1027900041F823207B6803F01F0206497B685B0930
:1027A000012000FA02F241F8232000BF0C37BD4699
:1027B00080BC704700E100E080B400AF00BFBD46C0
:1027C00080BC704780B400AF00BFBD4680BC70477E
:1027D00080B400AF00BFBD4680BC704780B400AF7E
:1027E00000BFBD4680BC704780B400AF00BFBD468F
:1027F00080BC704780B400AF00BFBD4680BC70474E
:1028000080B400AF00BFBD4680BC704780B400AF4D
:1028100000BFBD4680BC704780B400AF00BFBD465E
:1028200080BC704780B400AF00BFBD4680BC70471D
:1028300080B400AF00BFBD4680BC704780B400AF1D
:1028400000BFBD4680BC704780B400AF00BFBD462E
:1028500080BC704780B400AF00BFBD4680BC7047ED
:1028600080B400AF00BFBD4680BC704780B400AFED
:1028700000BFBD4680BC704780B500AF0921312044
:10288000FFF76CFF00BF80BD80B500AF064804F0C5
:102890001BFB064803F056FB034804F04FFB05F012
:1028A0000DFE00BF80BD00BFAC860008F80100240B
:1028B00080B400AF00BFBD4680BC704780B500AF9C
:1028C0000C212520FFF74AFF00BF80BD80B500AF77
:1028D000064804F0F9FA064803F0C8FF034804F07C
:1028E0002DFB05F0EBFD00BF80BD00BFB8860008E2
:1028F0007403002480B400AF00BFBD4680BC7047A5
:1029000080B400AF00BFBD4680BC704780B400AF4C
:1029100000BFBD4680BC704780B500AF0C2135209C
:10292000FFF71CFF00BF80BD80B500AF064804F074
:10293000CBFA064803F09AFF034804F0FFFA05F0CB
:10294000BDFD00BF80BD00BFC4860008D4030024C5
:1029500080B400AF00BFBD4680BC704780B400AFFC
:1029600000BFBD4680BC704780B400AF00BFBD460D
:1029700080BC704780B400AF00BFBD4680BC7047CC
:1029800080B400AF00BFBD4680BC704780B400AFCC
:1029900000BFBD4680BC704780B400AF00BFBD46DD
:1029A00080BC704780B500AF07211C20FFF7D6FE22
:1029B00000BF80BD80B500AF054804F085FA03F084
:1029C00047FE034804F0BAFA05F078FD00BF80BD69
:1029D000D086000880B400AF00BFBD4680BC704701
:1029E00080B400AF00BFBD4680BC704780B400AF6C
:1029F00000BFBD4680BC704780B400AF00BFBD467D
:102A000080BC704780B400AF00BFBD4680BC70473B
:102A100080B400AF00BFBD4680BC704780B400AF3B
:102A200000BFBD4680BC704780B400AF00BFBD464C
:102A300080BC704780B400AF00BFBD4680BC70470B
:102A400080B500AFFFF7B8FEFFF7BCFEFFF7C0FE92
:102A5000FFF7C4FEFFF7C8FEFFF7CCFEFFF7D0FE7E
:102A6000FFF7D4FEFFF7D8FEFFF7DCFEFFF7E0FE2E
:102A7000FFF7E4FEFFF7E8FEFFF7ECFEFFF7F0FEDE
:102A800009217A20FFF76AFEFFF7F0FEFFF7F4FE58
:102A9000FFF70EFFFFF780FFFFF784FFFFF79AFFB6
:102AA000FFF79EFFFFF7A2FFFFF7A6FFFFF7AAFFC2
:102AB000FFF7AEFFFFF7B2FFFFF7B6FFFFF7BAFF72
:102AC000FFF7FCFEFFF716FFFFF71AFFFFF71EFFE9
:102AD000FFF722FFFFF73CFFFFF740FFFFF744FF40
:102AE000FFF748FFFFF74CFFFFF750FF00BF80BD27
:102AF00080B483B000AF78600C4BD3F890200B49C2
:102B00007B681343C1F89030084BD3F890207B6862
:102B1000DB4306491340C1F89030044BD3F89030A2
:102B200000BF0C37BD4680BC704700BF0044025850
:102B300080B483B000AF78600C4BD3F894200B497D
:102B40007B681343C1F89430084BD3F894207B681A
:102B5000DB4306491340C1F89430044BD3F894305A
:102B600000BF0C37BD4680BC704700BF0044025810
:102B700080B483B000AF78600C4BD3F898200B4939
:102B80007B681343C1F89830084BD3F898207B68D2
:102B9000DB4306491340C1F89830044BD3F8983012
:102BA00000BF0C37BD4680BC704700BF00440258D0
:102BB00080B483B000AF78600C4BD3F88C200B4905
:102BC0007B681343C1F88C30084BD3F88C207B68AA
:102BD000DB4306491340C1F88C30044BD3F88C30EA
:102BE00000BF0C37BD4680BC704700BF0044025890
:102BF00080B483B000AF78600C4BD3F89C200B49B5
:102C00007B681343C1F89C30084BD3F89C207B6849
:102C1000DB4306491340C1F89C30044BD3F89C3089
:102C200000BF0C37BD4680BC704700BF004402584F
:102C300080B483B000AF78600C4BD3F880200B4990
:102C40007B681343C1F88030084BD3F880207B6841
:102C5000DB4306491340C1F88030044BD3F8803081
:102C600000BF0C37BD4680BC704700BF004402580F
:102C700080B483B000AF78600C4BD3F884200B494C
:102C80007B681343C1F88430084BD3F884207B68F9
:102C9000DB4306491340C1F88430044BD3F8843039
:102CA00000BF0C37BD4680BC704700BF00440258CF
:102CB00080B483B000AF7860094BDA6F08497B6855
:102CC0001343CB67064BDA6F7B68DB430449134041
:102CD000CB67034BDB6F00BF0C37BD4680BC704732
:102CE0000044025880B483B000AF78600C4BD3F836
:102CF00088200B497B681343C1F88830084BD3F810
:102D000088207B68DB4306491340C1F88830044BB8
:102D1000D3F8883000BF0C37BD4680BC704700BF79
:102D20000044025880B483B000AF78600B46FB705B
:102D3000124BD3F8F42011497B681343C1F8F430E7
:102D4000FB78002B08D00D4BD3F81C210B497B6876
:102D50001343C1F81C3108E0084BD3F81C217B68F1
:102D6000DB4306491340C1F81C31044BD3F81C3136
:102D700000BF0C37BD4680BC704700BF00440258FE
:102D800080B483B000AF78600B46FB70124BD3F871
:102D9000DC2011497B681343C1F8DC30FB78002B41
:102DA00008D00D4BD3F804210B497B681343C1F8BD
:102DB000043108E0084BD3F804217B68DB43064963
:102DC0001340C1F80431044BD3F8043100BF0C3771
:102DD000BD4680BC704700BF0044025880B400AFBD
:102DE0000B4B1B680A4A43F480731360094B1B6F3B
:102DF00003F44073B3F5007F06D0064B4FF48032E6
:102E00001A67044B00221A6700BFBD4680BC70479A
:102E1000004802580044025880B400AF124B02220E
:102E2000DA6000BF104B5B6803F40053002BF9D04D
:102E30000D4B0E4A1A600C4B01229A600A4B0C4A49
:102E4000DA60094B00221A61074B4FF440429A6145
:102E500000BF054B9B6903F40053002BF9D000BF62
:102E600000BFBD4680BC70470048025800C000F05B
:102E70000200000180B500AF6FF00040FFF7D8FE00
:102E80004FF0FF30FFF7F4FE1048FFF711FF104836
:102E9000FFF728FF4FF0FF30FFF72AFE4FF0FF301B
:102EA000FFF746FE4FF0FF30FFF762FE4FF0FF30B6
:102EB000FFF77EFE4FF0FF30FFF79AFE00F024FC94
:102EC00000F0F2FEFFF7BCFD00BF80BDFFEFFF7F0B
:102ED00000F8FFFF80B584B000AF7E4B01221A607E
:102EE00001210220FFF71EFFFFF796FFFFF776FF95
:102EF000794B1B68784A43F00103136000BF764B9F
:102F00001B6803F00403002BF9D0734B00221A61F5
:102F100000BF714B1B6903F03803002BF9D16E4BD6
:102F200001221A606C4B4FF080425A606A4B0022BB
:102F30005A67694B694ADA62694BFB60FB6843F484
:102F40000043FB60644AFB681361634B1B68624A81
:102F500043F48033136000BF5F4B1B6803F40033FE
:102F6000002BF9D05C4B1B685B4A43F48053136021
:102F700000BF594B1B6803F40053002BF9D000230A
:102F8000BB6000237B6000233B60534B554A9A6231
:102F900040F299333B60504B00225A634E4B524AE9
:102FA0001A63BB6843F08073BB607B6843F00073B7
:102FB0007B603B6843F480333B603B6843F4003301
:102FC0003B603B6843F480233B60434B44F6F05244
:102FD000DA63414B454A9A63BB6843F08063BB6048
:102FE0007B6843F000637B603B6843F400233B60F5
:102FF0003B6843F480133B603B6843F400133B6041
:10300000354B00225A64344B394A1A64BB6843F08A
:103010008053BB607B6843F000537B603B6843F4A4
:1030200080033B603B6843F080733B602A4A3B6807
:10303000D362294B1A682849BB6813430B6000BF51
:10304000254B1A687B6813407A689A42F8D1224B64
:1030500048229A61204B4FF48862DA611E4B40226D
:103060001A621D4B4FF48032DA641B4B214A1A65F9
:10307000194B4FF4E0025A65174B4FF440329A65F2
:103080001D4B32221A6000BF1B4B1B6803F00F035D
:10309000022BF9D1104B1B690F4A43F00303136154
:1030A00000BF0D4B1B6903F03803182BF9D1012128
:1030B0004FF00050FFF764FE01214FF08040FFF712
:1030C0005FFE01214FF00040FFF75AFE00BF1037AE
:1030D000BD4680BD08810051004402580000FF0138
:1030E00000081008525090019F0209016112010B63
:1030F0001F070507400000100020005280B483B075
:1031000000AF30237B607B6883F3118800BF00BF72
:1031100000BF00BF0C37BD4680BC704780B483B091
:1031200000AF00237B607B6883F3118800BF00BF82
:1031300000BF00BF0C37BD4680BC704780B500AFF4
:10314000FFF7DCFF00BF80BD80B500AFFFF7E6FFF3
:1031500000BF80BD80B582B000AF7860396039684B
:10316000786804F0C1FE00BF0837BD4680BD00008E
:1031700080B483B000AF78600C4BD3F880200B494B
:103180007B681343C1F88030084BD3F880207B68FC
:10319000DB4306491340C1F88030044BD3F880303C
:1031A00000BF0C37BD4680BC704700BF00440258CA
:1031B00080B483B000AF78600B46FB70124BD3F83D
:1031C000D82011497B681343C1F8D830FB78002B15
:1031D00008D00D4BD3F800210B497B681343C1F88D
:1031E000003108E0084BD3F800217B68DB43064937
:1031F0001340C1F80031044BD3F8003100BF0C3745
:10320000BD4680BC704700BF0044025880B483B004
:1032100000AF78600C4BD3F8D8207B68DB430A49B9
:103220001340C1F8D830084BD3F800217B68DB434A
:1032300005491340C1F80031034BD3F8003100BFFA
:103240000C37BD4680BC70470044025880B582B040
:1032500000AF78607868FFF78BFF00BF0837BD4686
:1032600080BD80B483B000AF78607B689B6A9B6848
:1032700003F00403002B0FD07B689B6A9A687B687D
:103280009B6A42F010029A6000BF7B689B6A9B6851
:1032900003F01003002BF8D17B689B6A0022DA61EF
:1032A00000BF0C37BD4680BC704780B584B000AF0E
:1032B000786039607B681B69002B59D00023FB6064
:1032C0003B6803F01003002B07D07B681B78032BAF
:1032D00003D1FB6843F00203FB603B6803F080030B
:1032E000002B03D0FB6843F00403FB603B6803F44E
:1032F0008073002B03D0FB6843F00803FB603B683E
:1033000003F40073002B03D0FB6843F01003FB6051
:10331000FB68002B2CD0786800F07AF87B681B697A
:10332000DB68002B13D07B6805221A707B681B6951
:10333000DB68F968786898477B681B78052B0CD1A7
:103340007B6802221A707B6800221A6105E07B68A4
:1033500002221A707B6800221A61FFF7EFFE7B6879
:1033600014334FF0FF311846FFF7F4FEFFF7ECFE81
:1033700000BF1037BD4680BD80B582B000AF0B489E
:1033800003F0A2FD0A4B1B687B60094A7B6813604F
:1033900079680848FFF789FF044803F0CFFD05F07E
:1033A0008DF800BF0837BD4680BD00BFDC86000831
:1033B000002002400800002480B500AF1048FDF74F
:1033C000C4FD0F4B0F4ADA620D4B0F4A9A620C4B49
:1033D00000221A630A4B0D4A5A6305211220FFF797
:1033E000BDF901212020FFF7E3FE2020FFF72EFF8B
:1033F000044B00229A602020FFF708FF00BF80BD29
:10340000080000240023024000200240162C020085
:1034100080B582B000AF78607B68134A93421BD1BD
:103420007B681B6B1B681A687B681B6B1B6822F030
:103430001F021A607B681B6B1B681B6803F001038B
:10344000002BF7D17B681B6B1B7B19467B681B6BC2
:103450005B683D228A401A607868FFF702FF00BF70
:103460000837BD4680BD00BF0800002480B582B08B
:1034700000AF0F4803F028FD0E4B1B6803F00E034E
:103480007B600C4A7B6853600B4B5B68002B06D05B
:10349000094B5B68084A9268796810469847044867
:1034A00003F04CFD05F00AF800BF0837BD4680BDAB
:1034B00088870008005402584000002480B582B07C
:1034C00000AF104803F000FD0F4B1B681B0903F011
:1034D0000E037B600C4A7B681B0153600B4BDB685F
:1034E000002B06D0094BDB68084A12697968104640
:1034F0009847044803F022FD04F0E0FF00BF0837BE
:10350000BD4680BD94870008005402584000002446
:1035100080B582B000AF104803F0D6FC0F4B1B689B
:103520001B0A03F00E037B600C4A7B681B0253608E
:103530000B4B5B69002B06D0094B5B69084A92690B
:10354000796810469847044803F0F8FC04F0B6FF89
:1035500000BF0837BD4680BDA08700080054025850
:103560004000002480B582B000AF104803F0ACFCEE
:103570000F4B1B681B0B03F00E037B600C4A7B6830
:103580001B0353600B4BDB69002B06D0094BDB6937
:10359000084A126A796810469847044803F0CEFC3E
:1035A00004F08CFF00BF0837BD4680BDAC87000823
:1035B000005402584000002480B582B000AF10488B
:1035C00003F082FC0F4B1B681B0C03F00E037B60A7
:1035D0000C4A7B681B0453600B4B5B6A002B06D0C4
:1035E000094B5B6A084A926A796810469847044812
:1035F00003F0A4FC04F062FF00BF0837BD4680BDA5
:10360000B8870008005402584000002480B582B0FA
:1036100000AF104803F058FC0F4B1B681B0D03F064
:103620000E037B600C4A7B681B0553600B4BDB6A07
:10363000002B06D0094BDB6A084A126B79681046EA
:103640009847044803F07AFC04F038FF00BF0837BD
:10365000BD4680BDC48700080054025840000024C5
:1036600080B582B000AF104803F02EFC0F4B1B68F2
:103670001B0E03F00E037B600C4A7B681B06536035
:103680000B4B5B6B002B06D0094B5B6B084A926BB4
:10369000796810469847044803F050FC04F00EFF88
:1036A00000BF0837BD4680BDD087000800540258CF
:1036B0004000002480B582B000AF104803F004FC45
:1036C0000F4B1B681B0F03F00E037B600C4A7B68DB
:1036D0001B0753600B4BDB6B002B06D0094BDB6BDE
:1036E000084A126C796810469847044803F026FC93
:1036F00004F0E4FE00BF0837BD4680BDDC8700084B
:10370000005402584000002480B483B000AF164B30
:1037100000221A6000237B6019E014497A6813467E
:103720009B0013449B000B4404331B6800221A6067
:103730000D4A7B68DB00134400225A600A4A7B680A
:10374000DB00134400229A607B6801337B607B6856
:10375000072BE2D9064B4FF0FF325A6000BF0C37FF
:10376000BD4680BC704700BF40000024E8860008CA
:103770000054025880B582B000AF0F4803F0A4FB9C
:103780000E4B1B6803F03D037B600C4A7B68936023
:103790000B4B5B68002B06D0094B5B68084A9268AC
:1037A000796810469847044803F0C8FB04F086FE89
:1037B00000BF0837BD4680BDE88800080000024011
:1037C0008400002480B582B000AF104803F07CFB79
:1037D0000F4B1B689B0903F03D037B600C4A7B6821
:1037E0009B0193600B4BDB68002B06D0094BDB6819
:1037F000084A1269796810469847044803F09EFB0E
:1038000004F05CFE00BF0837BD4680BDF4880008A8
:10381000000002408400002480B582B000AF104850
:1038200003F052FB0F4B1B681B0C03F03D037B6046
:103830000C4A7B681B0493600B4B5B69002B06D022
:10384000094B5B69084A92697968104698470448B1
:1038500003F074FB04F032FE00BF0837BD4680BDA4
:1038600000890008000002408400002480B582B076
:1038700000AF104803F028FB0F4B1B689B0D03F0B3
:103880003D037B600C4A7B689B0593600B4BDB69B7
:10389000002B06D0094BDB69084A126A796810468A
:1038A0009847044803F04AFB04F008FE00BF0837BD
:1038B000BD4680BD0C890008000002408400002441
:1038C00080B582B000AF0F4803F0FEFA0E4B5B6884
:1038D00003F03D037B600C4A7B68D3600B4B5B6A53
:1038E000002B06D0094B5B6A084A926A7968104639
:1038F0009847044803F022FB04F0E0FD00BF0837BE
:10390000BD4680BD188900080000024084000024E4
:1039100080B582B000AF104803F0D6FA0F4B5B6859
:103920009B0903F03D037B600C4A7B689B01D360DD
:103930000B4BDB6A002B06D0094BDB6A084A126B83
:10394000796810469847044803F0F8FA04F0B6FD89
:1039500000BF0837BD4680BD248900080000024032
:103960008400002480B582B000AF104803F0ACFAA8
:103970000F4B5B681B0C03F03D037B600C4A7B68BC
:103980001B04D3600B4B5B6B002B06D0094B5B6BAE
:10399000084A926B796810469847044803F0CEFABB
:1039A00004F08CFD00BF0837BD4680BD308900089B
:1039B000000002408400002480B582B000AF1048AF
:1039C00003F082FA0F4B5B689B0D03F03D037B60B5
:1039D0000C4A7B689B05D3600B4BDB6B002B06D03E
:1039E000094BDB6B084A126C79681046984704480B
:1039F00003F0A4FA04F062FD00BF0837BD4680BDA5
:103A00003C890008000002408400002480B582B098
:103A100000AF0F4803F058FA0E4B1B6803F03D034C
:103A20007B600C4A7B6893600B4B5B6C002B06D071
:103A3000094B5B6C084A926C7968104698470448B9
:103A400003F07CFA04F03AFD00BF0837BD4680BDA4
:103A500048890008000402408400002480B582B038
:103A600000AF104803F030FA0F4B1B689B0903F0BE
:103A70003D037B600C4A7B689B0193600B4BDB6CC6
:103A8000002B06D0094BDB6C084A126D7968104692
:103A90009847044803F052FA04F010FD00BF0837BD
:103AA000BD4680BD54890008000402408400002403
:103AB00080B582B000AF104803F006FA0F4B1B68C8
:103AC0001B0C03F03D037B600C4A7B681B04936076
:103AD0000B4B5B6D002B06D0094B5B6D084A926D5A
:103AE000796810469847044803F028FA04F0E6FC89
:103AF00000BF0837BD4680BD608900080004024051
:103B00008400002480B582B000AF104803F0DCF9D7
:103B10000F4B1B689B0D03F03D037B600C4A7B68D9
:103B20009B0593600B4BDB6D002B06D0094BDB6DC7
:103B3000084A126E796810469847044803F0FEF967
:103B400004F0BCFC00BF0837BD4680BD6C8900088E
:103B5000000402408400002480B582B000AF0F480A
:103B600003F0B2F90E4B5B6803F03D037B600C4A37
:103B70007B68D3600B4B5B6E002B06D0094B5B6EF2
:103B8000084A926E796810469847044803F0D6F9BF
:103B900004F094FC00BF0837BD4680BD788900085A
:103BA000000402408400002480B582B000AF1048B9
:103BB00003F08AF90F4B5B689B0903F03D037B60C0
:103BC0000C4A7B689B01D3600B4BDB6E002B06D04D
:103BD000094BDB6E084A126F796810469847044813
:103BE00003F0ACF904F06AFC00BF0837BD4680BDA5
:103BF00084890008000402408400002480B582B05B
:103C000000AF104803F060F90F4B5B681B0C03F02A
:103C10003D037B600C4A7B681B04D3600B4B5B6FDE
:103C2000002B06D0094B5B6F084A926F79681046EB
:103C30009847044803F082F904F040FC00BF0837BD
:103C4000BD4680BD90890008000402408400002425
:103C500080B582B000AF114803F036F9104B5B68B5
:103C60009B0D03F03D037B600D4A7B689B05D36091
:103C70000C4BDB6F002B07D00A4BDB6F094AD2F8E5
:103C80008020796810469847044803F057F904F0FB
:103C900015FC00BF0837BD4680BD00BF9C890008E9
:103CA000000402408400002480B483B000AF174BAE
:103CB00000221A6000237B600FE0154A7B681B011D
:103CC00013441B6800221A60104A7B68DB0013440F
:103CD00000225A607B6801337B607B680F2BECD934
:103CE0000C4B4FF0FF329A600A4B4FF0FF32DA6014
:103CF000094B4FF0FF329A60074B4FF0FF32DA600A
:103D000000BF0C37BD4680BC704700BF8400002454
:103D1000E8870008000002400004024080B400AFC1
:103D200000BFBD4680BC704780B483B000AF302375
:103D30007B607B6883F3118800BF00BF00BF00BFBA
:103D40000C37BD4680BC704780B483B000AF002301
:103D50007B607B6883F3118800BF00BF00BF00BF9A
:103D60000C37BD4680BC704780B500AFFFF7DCFF65
:103D700000BF80BD80B500AFFFF7E6FF00BF80BD8C
:103D800080B582B000AF786039603968786804F037
:103D9000ABF800BF0837BD4680BD80B483B000AF2C
:103DA00078607B681B6B1B685B6818460C37BD46E8
:103DB00080BC704780B483B000AF78607B685B6B79
:103DC0001B685B6818460C37BD4680BC704780B4E2
:103DD00083B000AF78607B681B6B1B681A687B68D8
:103DE0001B6B1B6842F001021A6000BF0C37BD4616
:103DF00080BC704780B483B000AF78607B681B6B79
:103E00001B681A687B681B6B1B6822F01F021A6014
:103E10007B681B6B1B681B6803F00103002BF7D149
:103E20007B681B6B1B7B19467B681B6B5B683D22A9
:103E30008A401A6000BF0C37BD4680BC704780B412
:103E400083B000AF78607B685B6B1B681A687B6827
:103E50005B6B1B6822F01F021A607B685B6B1B6840
:103E60001B6803F00103002BF7D17B685B6B1B7BA6
:103E700019467B685B6B5B683D228A401A6000BF15
:103E80000C37BD4680BC704780B586B000AF786007
:103E90007B689B6BFB607868FFF77FFF38613B694D
:103EA000FF2B05D9FF233B614FF080737B6101E05D
:103EB00000237B61FB685A68094B13407A6852689B
:103EC00092681A433B691B041A437B69134343F40A
:103ED0008062FB685A6000BF1837BD4680BD00BFD6
:103EE000FFFF00FE80B586B000AF78607B689B6BFB
:103EF000FB607868FFF75EFF38613B69FF2B05D9EF
:103F0000FF233B614FF080737B6101E000237B6105
:103F1000FB685A68084B13407A68526892681A43E3
:103F20003B691B041A437B691A43FB685A6000BF54
:103F30001837BD4680BD00BFFFFF00FE80B584B0CE
:103F400000AF786039607B689B6BFB603B6803F077
:103F50001003002B23D07868FFF74CFF7868FFF739
:103F60006EFF7B689B6843F004027B689A60FB6885
:103F70005B6843F48042FB685A60FB681B6823F06F
:103F80004602FB681A60FFF7EFFE7B681C336FF098
:103F900001011846FFF7F4FEFFF7ECFE4BE03B682B
:103FA00003F08003002B0BD07B681B78032B03D11D
:103FB0007868FFF797FF3EE07868FFF765FF3AE023
:103FC0003B6803F04003002B35D07B681B78032B44
:103FD00018D17868FFF733FF7868FFF7DEFE0346F5
:103FE000002B12D07868FFF74FFF7868FFF7EFFEDD
:103FF000FB685B6843F40052FB685A607B680422EC
:104000001A7018E07868FFF7F5FEFB685B6843F408
:104010008042FB685A60FB681B6823F04002FB6823
:104020001A60FFF7A1FE7B681C3300211846FFF7DA
:10403000A7FEFFF79FFE1037BD4680BD80B582B05A
:1040400000AF786039607868FFF7D4FE7868FFF7D2
:10405000F6FE3B6803F48073002B05D07B689B68F9
:1040600043F001027B689A603B6803F40073002B05
:1040700005D07B689B6843F002027B689A603B68CE
:1040800003F48063002B05D07B689B6843F0080233
:104090007B689A603B6803F48053002B05D07B68F3
:1040A0009B6843F020027B689A607B689B68002BCA
:1040B0000AD0FFF759FE7B681C336FF001011846E8
:1040C000FFF75EFEFFF756FE00BF0837BD4680BD16
:1040D00080B582B000AF0D4B9B6B9B697B600C4839
:1040E00002F0F2FE094B9B6B7A6802F0FE02DA6185
:1040F00079680648FFF722FF054802F01FFF04F029
:10410000DDF900BF0837BD4680BD00BF08010024AF
:10411000A889000880B582B000AF0D4B9B6B9B69EE
:104120007B600C4802F0D0FE094B9B6B7A6802F46E
:104130007C52DA6179680648FFF780FF054802F093
:10414000FDFE04F0BBF900BF0837BD4680BD00BFCF
:1041500008010024B489000880B500AF0C48FCF7C2
:1041600024FF0B4B0022DA61094B0A4A9A63084B81
:1041700000221A63064B00225A6305212120FEF714
:10418000EDFA05212220FEF7E9FA00BF80BD00BF4D
:10419000080100240058004080B483B000AF3023F1
:1041A0007B607B6883F3118800BF00BF00BF00BF46
:1041B0000C37BD4680BC704780B483B000AF00238D
:1041C0007B607B6883F3118800BF00BF00BF00BF26
:1041D0000C37BD4680BC704780B500AFFFF7DCFFF1
:1041E00000BF80BD80B500AFFFF7E6FF00BF80BD18
:1041F00080B582B000AF7860786802F05BFD00BFE8
:104200000837BD4680BD80B485B000AF78607B685C
:10421000D3F89030BB600023FB6040E0BA68FB68D5
:1042200048335B0113441B68002B0DDABA68FB6846
:1042300048335B0113441B6843F08042B968FB6854
:1042400048335B010B441A60BA68FB6858335B0162
:1042500013441B68002B0DDABA68FB6858335B0106
:1042600013441B6843F08042B968FB6858335B0114
:104270000B441A60BA68FB685B01134403F6081329
:104280004FF0FF321A60BA68FB685B01134403F613
:1042900008334FF0FF321A60FB680133FB607B6824
:1042A000D3F894309B68FA689A42B7D9BB684FF04C
:1042B0000112C3F81C2800BF1437BD4680BC7047EC
:1042C00080B485B000AF78607B68D3F89030BB6075
:1042D0000023FB602BE07A68FB6802339B001344E9
:1042E0005B689B69002B0BD0BB68D3F81C28FB686C
:1042F0001033012101FA03F31A43BB68C3F81C28E9
:104300007A68FB6802339B0013445B685B69002B8F
:104310000AD0BB68D3F81C280121FB6801FA03F31B
:104320001A43BB68C3F81C28FB680133FB607B6839
:10433000D3F894309B68FA689A42CCD900BF00BF8A
:104340001437BD4680BC704780B584B000AF78603C
:104350007B68D3F89030FB60FB6810221A6100BFC5
:10436000FB681B6903F01003002BF9D11220FFF743
:104370003FFF00BF1037BD4680BD80B584B000AFA1
:10438000786039607B68D3F89030FB603B689B01B4
:1043900043F02002FB681A6100BFFB681B6903F051
:1043A0002003002BF9D11220FFF722FF00BF1037A6
:1043B000BD4680BD80B483B000AF78607B68D3F821
:1043C00094301A687B68C3F8982000BF0C37BD464C
:1043D00080BC704780B485B000AF786039607B687E
:1043E000D3F89830FB607B68D3F898203B681A4478
:1043F0007B68C3F89820FB6818461437BD4680BC1C
:10440000704780B485B000AFF860B9607A60BB686F
:104410001A68FB681A607B68042B06D97B68043B2A
:104420007B60BB680433BB60F1E700BF00BF14379B
:10443000BD4680BC704780B487B000AFF860B960FB
:104440007A603B6000237B6100233B6117E03B699E
:1044500003F00303002B02D1FB681B687B613A6900
:104460003B689A4208D2BB685A1CBA607A69D2B2D9
:104470001A707B691B0A7B613B6901333B613A69B6
:104480007B689A42E3D300BF00BF1C37BD4680BCA7
:10449000704780B586B000AF78607B68D3F8903005
:1044A0001B6A7B617B691B09C3F30A033B617B6960
:1044B00003F00F03FB607B6903F4F013B3F5402FA7
:1044C0001BD0B3F5402F00F29A80B3F5002F00F017
:1044D0009880B3F5002F00F29280B3F5C02F00F062
:1044E0009280B3F5C02F00F28A80B3F5003F00F050
:1044F0008C80B3F5802F11D081E07B68D3F89030A9
:1045000003F580507A68FB6802339B0013445B68B4
:10451000196A08233A69FFF78EFF77E07A68FB682B
:1045200002339B0013445B689B691A687968FB68D7
:1045300002339B000B445B689B695B68D31ABB60CA
:104540007B68D3F8903003F580507A68FB680233BB
:104550009B0013445B689B699968BB683A69FFF7E5
:104560006AFF3A69BB689A4224D27A68FB680233D0
:104570009B0013445B689B6999687A68FB68023307
:104580009B0013445B689B693A690A449A607A68A5
:10459000FB6802339B0013445B689B6959687A6827
:1045A000FB6802339B0013445B689B693A690A44C9
:1045B0005A602BE07A68FB6802339B0013445B6807
:1045C0009B6999687A68FB6802339B0013445B68B7
:1045D0009B69BA680A449A607A68FB6802339B0058
:1045E00013445B689B6959687A68FB6802339B00D7
:1045F00013445B689B69BA680A445A6006E000BFCE
:1046000004E000BF02E000BF00E000BF00BF1837B9
:10461000BD4680BD80B584B000AF78600B46FB70AE
:10462000FB787A6802339B0013445B685B695A68C5
:10463000FB78796802339B000B445B685B691B68FD
:104640009A4211D37B68D3F89030D3F83418FB78B2
:10465000012202FA03F3DA437B68D3F890300A4070
:10466000C3F8342801236CE0FB787A6802339B009E
:1046700013445B685B691A68FB78796802339B00B6
:104680000B445B685B695B68D31AFB60FB787A68F4
:1046900002339B0013445B681B8A1A46FB689342F3
:1046A00007D9FB787A6802339B0013445B681B8A46
:1046B000FB607B68D3F89020FB785B01134403F622
:1046C00018131B689BB29B00FA689A4201D9002319
:1046D00037E07B68D3F89020FB7801331B03D018B8
:1046E000FB787A6802339B0013445B685B699B68C4
:1046F000FA681946FFF785FEFB787A6802339B005B
:1047000013445B685B699968FB787A6802339B00A5
:1047100013445B685B69FA680A449A60FB787A68BC
:1047200002339B0013445B685B695968FB787A68C5
:1047300002339B0013445B685B69FA680A445A6061
:104740006EE718461037BD4680BD80B586B000AF15
:1047500078600B46FB707B68D3F890307B61FB7808
:104760007A695B01134403F608131B683B61FB780D
:104770007A695B01134403F608133A691A603B69CE
:1047800003F00103002B4BD07B69D3F8103803F002
:104790000103002B44D0FB787A6802339B0013445A
:1047A0005B685B69FB60FB681A68FB68DB689A42C0
:1047B00013D2FB68DA68FB681B68D21AFB681A60C0
:1047C000FB6800225A60FFF707FDFB7819467868FE
:1047D00000F0E8FCFFF706FD22E07B681B891AB2B7
:1047E000FB78012101FA03F31BB2DB431BB2134038
:1047F0001BB29AB27B681A81FB787A6802339B00FD
:1048000013445B689B68002B0AD0FB787A680233FC
:104810009B0013445B689B68FA7811467868984758
:104820003B6903F08003002B0ED07B69D3F834285A
:10483000FB78012101FA03F31340002B04D0FB782D
:1048400019467868FFF7E6FE00BF1837BD4680BD01
:1048500080B586B000AF78600B46FB707B68D3F8FC
:1048600090307B61FB787A695B01134403F608336F
:104870001B683B61FB787A695B01134403F60833DC
:104880003A691A603B6903F00803002B11D07B6979
:10489000D3F8143803F00803002B0AD0FB787A68A9
:1048A00002339B0013445B685B68FA7811467868B2
:1048B00098473B6903F00103002B5ED07B69D3F876
:1048C000143803F00103002B57D0FB787A680233C9
:1048D0009B0013445B689B69FB60FB78002B29D12C
:1048E000FB685A68FB78796802339B000B445B686D
:1048F0005B8AB2FBF3F101FB03F3D31A002B19D14E
:10490000FB681A68FB68DB689A4213D2FB68DA68B6
:10491000FB681B68D21AFB681A60FB6800225A60A9
:10492000FFF75AFCFB781946786800F09CFBFFF70C
:1049300059FC22E07B685B891AB2FB78012101FAFD
:1049400003F31BB2DB431BB213401BB29AB27B686A
:104950005A81FB787A6802339B0013445B68DB68FA
:10496000002B0AD0FB787A6802339B0013445B6803
:10497000DB68FA781146786898471837BD4680BDDD
:1049800080B584B000AF78607B68D3F89030BB60AE
:104990000023FB7354E0FB7BBA6848335B0113448C
:1049A0001B6803F44023B3F5802F46D1FB7BBA6824
:1049B00048335B0113441B68002B3EDAFB7BBA686B
:1049C00048335B0113441A68FB7B42F09042B9689C
:1049D00048335B010B441A6000BFFB7BBA68483365
:1049E0005B0113441B68002BF7DBFB7B19467868DF
:1049F000FFF7C3FC7B681B891AB2FB7B012101FA1C
:104A000003F31BB2DB431BB213401BB29AB27B68A9
:104A10001A81FB7B7A6802339B0013445B689B68B6
:104A2000002B0AD0FB7B7A6802339B0013445B683F
:104A30009B68FA7B114678689847FB7B0133FB73D0
:104A4000FA7B7B68D3F894309B689A42A3D900BF65
:104A500000BF1037BD4680BD80B584B000AF786020
:104A60007B68D3F89030BB600023FB7338E0FB7B9E
:104A7000BA6858335B0113441B6803F44023B3F551
:104A8000802F2AD1FB7BBA6858335B0113441B6823
:104A9000002B22DA7B685B891AB2FB7B012101FAC9
:104AA00003F31BB2DB431BB213401BB29AB27B6809
:104AB0005A81FB7B7A6802339B0013445B68DB6896
:104AC000002B0AD0FB7B7A6802339B0013445B689F
:104AD000DB68FA7B114678689847FB7B0133FB73F0
:104AE000FA7B7B68D3F894309B689A42BFD900BFA9
:104AF00000BF1037BD4680BD80B586B000AF78607E
:104B00007B68D3F890303B6140237B613B695B69F4
:104B1000FB603B699B69FA681340FB603B69FA687C
:104B20005A61FB6803F48053002B03D07868FDF7CB
:104B3000ACFB47E1FB68002B1CDA3B69D3F8003E75
:104B400003F00303002B07D03B69D3F8003E23F0AA
:104B500003023B69C3F8002E7868FFF7B1FB3B699D
:104B6000D3F8043823F001023B69C3F804287868BD
:104B7000FDF7EFFBFB6803F40063002B05D07868BA
:104B8000FFF741FB7868FDF7BFFBFB6803F40053B8
:104B9000002B17D03B69D3F8083803F00603002B2D
:104BA00008D13B69DB6823F4705343F410523B692E
:104BB000DA6007E03B69DB6823F4705343F4A052EA
:104BC0003B69DA60FB6803F00803002B26D07B68A2
:104BD0005B68DB68002B05D13B699B6923F0080209
:104BE0003B699A617B681B78052B0AD13B69D3F836
:104BF000003E23F003023B69C3F8002E7868FDF7FE
:104C0000A8FB7868FFF75CFB7B685B68DB68002BC0
:104C100004D07B685B68DB6878689847FB6803F4BE
:104C20008013002B02D07868FFF7AAFEFB6803F41C
:104C30000013002B02D07868FFF70EFF3B69D3F812
:104C40001838BB60FB6803F40023002B50D0BB680E
:104C500003F48033002B03D000217868FFF7F8FDC0
:104C6000BB6803F40033002B03D001217868FFF701
:104C7000EFFDBB6803F48023002B03D0022178688A
:104C8000FFF7E6FDBB6803F40023002B03D00321EC
:104C90007868FFF7DDFDBB6803F48013002B03D0B9
:104CA00004217868FFF7D4FDBB6803F40013002BE0
:104CB00003D005217868FFF7CBFDBB6803F48003C0
:104CC000002B03D006217868FFF7C2FDBB6803F410
:104CD0000003002B03D007217868FFF7B9FDBB68FC
:104CE00003F08073002B03D008217868FFF7B0FD34
:104CF000FB6803F48023002B50D0BB6803F0010352
:104D0000002B03D000217868FFF71FFDBB6803F07C
:104D10000203002B03D001217868FFF716FDBB6862
:104D200003F00403002B03D002217868FFF70DFD88
:104D3000BB6803F00803002B03D003217868FFF75A
:104D400004FDBB6803F01003002B03D00421786836
:104D5000FFF7FBFCBB6803F02003002B03D0052109
:104D60007868FFF7F2FCBB6803F04003002B03D028
:104D700006217868FFF7E9FCBB6803F08003002B8D
:104D800003D007217868FFF7E0FCBB6803F4807369
:104D9000002B03D008217868FFF7D7FCFB6803F0ED
:104DA0001003002B02D07868FFF773FBFA68074BFB
:104DB0001340002B06D07B69013B7B617B69002B94
:104DC00000D0A3E61837BD4680BD00BF3000000408
:104DD00080B500AF064802F077F80648FFF78CFE72
:104DE000034802F0ABF803F069FB00BF80BD00BFD1
:104DF000F08900084401002480B500AF0648FDF7A3
:104E000097F9054B054AC3F89020034B044AC3F8B1
:104E1000942000BF80BD00BF440100240000084072
:104E2000E489000890B585B000AF78607B68D3F85E
:104E30009030BB6000217868FFF79FFABB680022C2
:104E4000C3F83428BB684FF00112C3F81C280023B4
:104E5000FB6024E0BA68FB6848335B0113444FF001
:104E600000621A60BA68FB6858335B0113444FF064
:104E700000621A60BA68FB685B01134403F608130A
:104E80004FF0FF321A60BA68FB685B01134403F607
:104E900008334FF0FF321A60FB680133FB607B6818
:104EA000D3F894309B68FA689A42D3D97868FFF7B0
:104EB00081FA7B68D3F894301A68BB685A627868C4
:104EC000FFF742FABB68D3F8003823F4FE62BB68F0
:104ED000C3F80028BB689A691D4B1343BA689361F5
:104EE000BB680922C3F81028BB680922C3F814283C
:104EF0007B68184ADA60BB684FF0C042C3F8102BD9
:104F000040231A46144B1343BA68C2F8003BBB68EF
:104F10000022C3F8102940231A460F4B1343BA68E6
:104F2000C2F8003940239B089BB21B041C46402357
:104F30009B089BB219467868FFF74CFA034644EA8F
:104F40000302BB689A6200BF1437BD4690BD00BF24
:104F500010000C00C08900080080001080B485B0EB
:104F600000AF78607B68D3F89030FB60FB68D3F8C3
:104F7000003823F4FE637A6892F88A2012011A43FB
:104F8000FB68C3F8002800BF1437BD4680BC7047DB
:104F900080B582B000AF78607868FFF70BFA786868
:104FA000FFF731F900BF0837BD4680BD80B485B03A
:104FB00000AF78600B46FB707B68D3F89020FB78DD
:104FC00058335B0113441B68FB60FB6803F4004328
:104FD000002B01D1002307E0FB6803F40013002B32
:104FE00001D0012300E0022318461437BD4680BCDF
:104FF000704780B485B000AF78600B46FB707B686B
:10500000D3F89020FB7848335B0113441B68FB60A6
:10501000FB6803F40043002B01D1002307E0FB6889
:1050200003F40013002B01D0012300E002231846F3
:105030001437BD4680BC704780B584B000AFF860BF
:105040000B467A60FB72FB7AFA6802339B001344CA
:105050005B681B6A082219467868FBF7C7F900BF2E
:105060001037BD4680BD80B487B000AF78600B4676
:10507000FB70FB787A6802339B0013445B689B6982
:105080007B617B691A687B69DA60FB78002B06D14B
:105090007B691B68402B02D97B6940221A607B69BF
:1050A0001A68FB78796802339B000B445B685B8A63
:1050B00013445A1EFB78796802339B000B445B68EB
:1050C0005B8AB2FBF3F33B61FB787A6802339B00A7
:1050D00013445B685B8A1A463B6902FB03F30333A4
:1050E00023F00303FB603B69DA04FB681A437B6827
:1050F000D3F89010FB7842F0C0425B010B4403F5FB
:1051000031631A60FB787A6802339B0013445B6852
:105110001B6803F00303012B2DD17B68D3F890307B
:10512000D3F8083803F48073002B12D07B68D3F8CF
:105130009020FB7858335B0113441A687B68D3F8DE
:105140009010FB7842F0805258335B010B441A6098
:1051500011E07B68D3F89020FB7858335B0113444F
:105160001A687B68D3F89010FB7842F000525833ED
:105170005B010B441A607B68D3F89020FB785833AE
:105180005B0113441A687B68D3F89010FB7842F0F7
:10519000044258335B010B441A6000BF1C37BD4604
:1051A00080BC704780B485B000AF78600B46FB7060
:1051B000FB787A6802339B0013445B685B69FB6091
:1051C000FB681A68FB68DA60FB681B68002B0BD170
:1051D0007B68D3F89020FB785B01134403F51163DF
:1051E0004FF400221A602EE0FB78002B06D1FB68FA
:1051F0001B68402B02D9FB6840221A60FB681A68C2
:10520000FB78796802339B000B445B681B8A13446C
:105210005A1EFB78796802339B000B445B681B8A3B
:10522000B2FBF3F3BB60BB68DA04FB681B681A438C
:105230007B68D3F89010FB7842F000525B010B447E
:1052400003F511631A60FB787A6802339B001344FC
:105250005B681B6803F00303012B2DD17B68D3F837
:105260009030D3F8083803F48073002B12D07B6899
:10527000D3F89020FB7848335B0113441A687B68AD
:10528000D3F89010FB7842F0805248335B010B4416
:105290001A6011E07B68D3F89020FB7848335B01FB
:1052A00013441A687B68D3F89010FB7842F00052E0
:1052B00048335B010B441A607B68D3F89020FB787D
:1052C00048335B0113441A687B68D3F89010FB786D
:1052D00042F0044248335B010B441A607B68D3F808
:1052E0009030D3F83418FB7801229A407B68D3F8C9
:1052F00090300A43C3F8342800BF1437BD4680BC41
:10530000704780B483B000AF78600B46FB707B6859
:10531000D3F89020FB7858335B0113441A687B68FC
:10532000D3F89010FB7842F4001258335B010B4421
:105330001A6000BF0C37BD4680BC704780B483B094
:1053400000AF78600B46FB707B68D3F89020FB7849
:1053500048335B0113441A687B68D3F89010FB78DC
:1053600042F4001248335B010B441A6000BF0C3753
:10537000BD4680BC704780B483B000AF78600B46F8
:10538000FB707B68D3F89020FB7858335B011344A3
:105390001A687B68D3F89010FB7822F40012583317
:1053A0005B010B441A6000BF0C37BD4680BC7047E0
:1053B00080B483B000AF78600B46FB707B68D3F895
:1053C0009020FB7848335B0113441A687B68D3F85C
:1053D0009010FB7822F4001248335B010B441A60F2
:1053E00000BF0C37BD4680BC704780B483B000AFAF
:1053F00030237B607B6883F3118800BF00BF00BF50
:105400000C37BD4680BC704780B483B000AF00232A
:105410007B607B6883F3118800BF00BF00BF0C373F
:10542000BD4680BC704780B483B000AF30237B6042
:105430007B6883F3118800BF00BF00BF00BF0C373B
:10544000BD4680BC704780B483B000AF00237B6052
:105450007B6883F3118800BF00BF00BF00BF0C371B
:10546000BD4680BC704780B500AFFFF7BEFF00BFF0
:1054700080BD80B500AFFFF7C7FF00BF80BD80B51E
:1054800000AFFFF7D0FF00BF80BD80B500AFFFF7D2
:10549000DAFF00BF80BD80B582B000AF7860786869
:1054A00002F0F1FC00BF0837BD4680BD80B582B078
:1054B00000AF78604FF0FF31786802F0F3FC0346EC
:1054C00018460837BD4680BD80B582B000AF786011
:1054D00039603968786802F007FD00BF0837BD46BB
:1054E00080BD000080B483B000AF78600B46FB70D5
:1054F000124BD3F8D42011497B681343C1F8D43040
:10550000FB78002B08D00D4BD3F8FC200B497B68AF
:105510001343C1F8FC3008E0084BD3F8FC207B684B
:10552000DB4306491340C1F8FC30044BD3F8FC3090
:1055300000BF0C37BD4680BC704700BF0044025816
:1055400080B483B000AF786039607B689B6C3A6848
:105550009A4203D37B68DB6A5B680DE07B68DB6A99
:105560005A687B68996C3B685B000B44591E3B682A
:105570005B00B1FBF3F3134418460C37BD4680BC07
:105580007047000080B588B000AFF860B9607A60FD
:10559000FB685B6CFA68FA6142F21072BA61FA69F0
:1055A000526C5268C2F3090201327A61FA69916C55
:1055B0007A695200B1FBF2F21749A1FB021292097B
:1055C000B96901FB02F25A62F868FCF707F8034672
:1055D000002B01D001231BE0FB685B6CBA689A6565
:1055E000FB685B6C01221A65FB685B6C4FF0FF3255
:1055F0009A63FB685B6C4FF49572DA63FB685B6CD3
:105600007A689A62FB685B6C42F20702DA620023F6
:1056100018462037BD4680BDD34D621080B584B09A
:1056200000AFF860B9607A603B60FB681B6B03F009
:105630001003002B02D1BB685B02BB607B68012BAF
:1056400010D93B68BA681221F86800F055FA034691
:10565000002B05D13B681A680D4B1340002B12D06C
:10566000012311E03B68BA681121F86800F044FAA0
:105670000346002B05D13B681A68054B1340002BED
:1056800001D0012300E0002318461037BD4680BD3D
:1056900008E0FFFD80B584B000AFF860B9607A60C3
:1056A0003B60FB681B6B03F01003002B02D1BB684F
:1056B0005B02BB607B68012B10D93B68BA6819217B
:1056C000F86800F019FA0346002B05D13B681A6808
:1056D0000D4B1340002B12D0012311E03B68BA6838
:1056E0001821F86800F008FA0346002B05D13B6842
:1056F0001A68054B1340002B01D0012300E0002362
:1057000018461037BD4680BD08E0FFFD80B584B067
:1057100000AFF860B9607A60FFF7A5FEFB685B6CCC
:10572000DB6B002B04D0FB6840331846FFF7BEFE4E
:10573000FB685B6C00221A65FB685B6C0022DA6315
:10574000FB685B6C0022DA62FB685B6C5B6B03F4EA
:105750008073002B03D1FFF78CFE012312E0FB685E
:105760005B6C4FF0FF329A63FFF783FEBB68012B3F
:1057700007D97B6800220C21F86800F0BDF90346C8
:1057800000E0002318461037BD4680BD80B485B0C8
:1057900000AF786039600023FB603B6803F00103D1
:1057A000002B03D0FB6843F00103FB603B6803F070
:1057B0000203002B03D0FB6843F00203FB603B684D
:1057C00003F00403002B03D0FB6843F00803FB60E5
:1057D0003B6803F00803002B03D0FB6843F004038D
:1057E000FB603B6803F01003002B03D0FB6843F021
:1057F0001003FB603B6803F02003002B03D0FB6821
:1058000043F02003FB607B685A6BFB681A437B689C
:105810005A6300BF1437BD4680BC704780B586B060
:1058200000AFF860B9607A60FB685B6C5B6B7B61B2
:10583000FB685B6C7A699A63FB685B6C00221A6593
:10584000FB685B6C0022DA627969F868FFF79EFFFB
:10585000BB68012B05D97B6800220C21F86800F099
:105860004BF900BF1837BD4680BD000080B500AFC2
:105870000948FBF7D3FE084B00221A64064B074A7F
:105880005A64054B064A9A64034B064ADA63024B94
:10589000054ADA6400BF80BDF801002400700052A0
:1058A00035116F02000004300002043080B582B070
:1058B00000AF78607B68DB6A002B02D17B68164AF8
:1058C000DA627B681B79012B08D17B68134A93420B
:1058D00004D101214FF48030FFF704FE7B685B6C3C
:1058E00000221A657B685B6C0022DA627B685B6C65
:1058F00000221A607B685B6C00225A607B685B6CDC
:1059000000225A627B685B6C4FF0FF329A6300BFE3
:105910000837BD4680BD00BFFC890008F80100249F
:1059200090B583B000AF78607B685C6C0A4978689A
:10593000FFF706FE034663607B685B6C1A687B6852
:105940005B6C42F003021A606420FFF7A4FD00BF05
:105950000C37BD4690BD00BF801A060090B583B0DD
:1059600000AF78600B46FB70FB78012B11D17B6890
:105970005B6C5B68114C1C4011497868FFF7E0FDD7
:10598000034644EA03027B685B6C42F480525A602F
:1059900010E07B685B6C5B68084C1C4009497868C8
:1059A000FFF7CEFD034644EA03027B685B6C42F4DA
:1059B00080525A6000BF0C37BD4690BD00ECFFFF1F
:1059C00080F0FA0240787D0180B483B000AF786047
:1059D0007B685B6C00225A607B685B6C00221A60FB
:1059E00000BF0C37BD4680BC704780B485B000AFA7
:1059F00078600B46FB707B685B6C5B6823F440430C
:105A0000FB60FB78022B12D0022B17DC002B02D09C
:105A1000012B05D012E07B685B6CFA685A600DE0E0
:105A20007B685B6CFA6842F480425A6006E07B68EF
:105A30005B6CFA6842F400425A6000BF00BF143742
:105A4000BD4680BC704780B485B000AFF8600B469F
:105A50007A60FB72FB685B6C7A689A60FA7AFB6822
:105A60005B6C42F48052DA6000BFFB685B6C5B6B7E
:105A700003F08003002BF8D0FB685B6C80229A63F4
:105A800000BF1437BD4680BC704780B586B000AFFC
:105A9000F8607A603B600B46FB72FB685B6C7A686F
:105AA0009A60FA7AFB685B6C42F48852DA6000BF55
:105AB000FB685B6C5B6B7B617B6903F04503002BD0
:105AC000F6D0FB685B6C7A6902F045029A637B69E9
:105AD00003F00403002B05D07969F868FFF756FE40
