:020000040800F2
:1000000000040020B9030008BB030008BB0300087C
:10001000BB030008BB030008BB030008BB030008C8
:10002000BB030008BB030008BB03000831500008F5
:10003000BB030008BB030008BB030008BB030008A8
:10004000BB030008BB030008BB030008BB03000898
:10005000BB030008BB030008BB030008BB03000888
:10006000BB030008BB030008BB0300080123000812
:100070004123000881230008C1230008012400084F
:10008000412400088124000811200008BB03000857
:10009000BB030008BB030008BB030008BB03000848
:1000A000BB030008BB030008BB030008BB03000838
:1000B000211C0008BB030008BB030008BB030008A9
:1000C000BB030008BB030008BB030008413A00085B
:1000D000B13A0008C11B0008BB030008BB030008BD
:1000E000BB030008BB030008BB030008BB030008F8
:1000F000BB030008BB030008BB030008C1240008C1
:10010000BB030008911B0008BB030008213B00084B
:10011000BB030008F11B0008BB030008BB03000879
:10012000012500084125000881250008C125000897
:1001300001260008BB030008BB030008BB0300083E
:10014000BB030008BB030008BB030008BB03000897
:100150004126000881260008C1260008BB030008CC
:10016000BB030008BB030008BB030008BB03000877
:10017000BB030008BB030008BB030008BB03000867
:10018000BB030008BB030008BB030008BB03000857
:10019000BB030008913B0008013C0008BB030008BA
:1001A000BB030008BB030008BB030008BB03000837
:1001B000BB030008BB030008BB030008BB03000827
:1001C000BB030008BB030008BB030008BB03000817
:1001D000BB030008812C0008BB030008BB03000818
:1001E000BB030008BB030008BB030008BB030008F7
:1001F000BB030008BB030008BB030008BB030008E7
:10020000BB030008BB030008BB030008BB030008D6
:10021000BB030008BB030008BB030008BB030008C6
:10022000BB030008BB030008BB030008BB030008B6
:10023000BB030008BB030008BB030008BB030008A6
:10024000BB030008C120000801210008412100086B
:1002500081210008C1210008012200084122000874
:1002600081220008BB030008BB030008BB03000891
:10027000BB030008BB030008BB030008BB03000866
:10028000BB030008BB030008BB030008BB03000856
:10029000BB030008BB030008BB030008BB03000846
:1002A000BB030008BB030008BB030008BB03000836
:1002B000BB030008BB030008BB030008BB03000826
:1002C000BB030008BB030008BB030008BB03000816
:1002D000BB030008BB030008BB030008BB03000806
:1002E00072B6264880F30888254880F30988254897
:1002F00025490860022080F31488BFF36F8F00F057
:100300000FF903F005FF4FF0553020491B4A914289
:100310003CBF41F8040BFAE71D49194A91423CBF22
:1003200041F8040BFAE71B491B4A1C4B9A423EBF9B
:1003300051F8040B42F8040BF8E700201849194A59
:1003400091423CBF41F8040BFAE700F039F900F0A4
:1003500027F9154C154DAC4203DA54F8041B8847B5
:10036000F9E704F0CDFE124C124DAC4203DA54F81A
:10037000041B8847F9E700F01BB9000000040020C7
:10038000000800200000000808ED00E00000002048
:1003900000040020BC6800080000002410000024B5
:1003A000100000249C0E0024E0020008E002000877
:1003B000E0020008E002000892E700F000F8FEE723
:1003C0002DE9F04FC1F80CD0D0F80CD0BDE8F08F7B
:1003D000002383F311882846A047002004F0E0FBA7
:1003E000FEE704F0D5FA00DFFEE70000844641EAAC
:1003F000000313F003036DD1403A41D351F8043B9D
:1004000040F8043B51F8043B40F8043B51F8043BEE
:1004100040F8043B51F8043B40F8043B51F8043BDE
:1004200040F8043B51F8043B40F8043B51F8043BCE
:1004300040F8043B51F8043B40F8043B51F8043BBE
:1004400040F8043B51F8043B40F8043B51F8043BAE
:1004500040F8043B51F8043B40F8043B51F8043B9E
:1004600040F8043B51F8043B40F8043B51F8043B8E
:1004700040F8043B51F8043B40F8043B403ABDD2FD
:10048000303211D351F8043B40F8043B51F8043B9F
:1004900040F8043B51F8043B40F8043B51F8043B5E
:1004A00040F8043B103AEDD20C3205D351F8043B2E
:1004B00040F8043B043AF9D2043208D0D2071CBFFA
:1004C00011F8013B00F8013B01D30B880380604623
:1004D000704700BF082A13D38B078DD010F0030399
:1004E0008AD0C3F10403D21ADB071CBF11F8013B09
:1004F00000F8013B80D331F8023B20F8023B7BE758
:10050000043AD9D3013A11F8013B00F8013BF9D282
:100510000B7803704B7843708B788370604670471C
:1005200010B5BFF34F8FBFF36F8F1C480022C0F888
:100530005022BFF34F8FBFF36F8F436943F40033F3
:100540004361BFF34F8FBFF36F8FC0F88420BFF3B9
:100550004F8FD0F8803043F6E074C3F34E3CC3F3C2
:10056000C90E4FEA4C1C0CEA0401734641EA83723F
:10057000013BC0F860225A1CF8D1ACF1200C1CF1F0
:10058000200FF0D1BFF34F8F436943F480334361B1
:10059000BFF34F8FBFF36F8F10BD00BF00ED00E0C2
:1005A000704700BF000000000000000000000000D5
:1005B000FEE700BF00000000000000000000000097
:1005C000F8B52B4D2B4F2C4905F170042B482C4AC4
:1005D00088420DD2043A034652F8046F43F8046B84
:1005E0008B42F9D34B1E1B1A23F003030433184428
:1005F000B84207D2013F00213F1A27F0030204321C
:1006000005F022FBA54205D0D5E90420D5E906175F
:100610001035DDE71B480023C0F88430BFF34F8F4F
:10062000D0F8805043F6E076C5F34E34C5F3C905E3
:10063000640104EA06012B4641EA8372013BC0F8DB
:100640006C225A1CF8D1203C14F1200FF1D1BFF3D9
:100650004F8FBFF36F8FBFF34F8FBFF36F8F0023A9
:10066000C0F85032BFF34F8FBFF36F8FF8BD00BF9C
:10067000EC5C00089C0E00249C0E00249C0E0024C0
:10068000CC68000800ED00E0000000000000000061
:1006900008B501F0EDFA02F05BF800F031FA00F075
:1006A000F7FC00F095FC00F03BFD00F051FD03F07D
:1006B00057FEBDE8084000F003B800BF000000008E
:1006C00003F04EBB0000000000000000000000002E
:1006D0004FF08043586A704700000000000000009F
:1006E0004FF080430021022258631961DA6070479D
:1006F0004FF080430022DA60704700BF0000000026
:100700004FF0804358637047000000000000000075
:10071000F8B51546826804460B46AA4200D28568A1
:10072000A1692669761AB54218D30AD82A4618460E
:10073000FFF75CFEE268A3682846A2615B1BA3602A
:10074000F8BDAF1B32461846FFF750FE3A4630441C
:10075000E168FFF74BFEE2683A44ECE72A461846A8
:10076000FFF744FEA2692A44E5E700BF000000004D
:10077000836893422DE9F04104460F4612D2856802
:10078000D4E90460361AB54212D318D82A4639463D
:10079000FFF72CFEE268A368284662615B1BA3603A
:1007A000BDE8F081D4E904601546361AB542ECD2B2
:1007B0002A463946FFF71AFE62692A44EBE7A5EBA1
:1007C000060832463946FFF711FE4246B919E0687D
:1007D000FFF70CFEE2684244DDE700BF00000000C6
:1007E00010B40A440024C361019B8460C16010BC42
:1007F00002610362C0E90000C0E90511704700BF53
:10080000D0E90532934211D0826810B501325C1CE8
:10081000826044611970D0E904329A4201D3C368FE
:100820004361002104F034FA002010BD8268002AE0
:10083000EAD04FF0FF3070470000000000000000D9
:1008400070B5302305460E4683F3118803E004F0AB
:1008500007FA002819DBAC6831462846002CF6D090
:10086000AB68A969013B4A1CAB602B69AA619A423B
:100870000C7801D3EB68AB61EB690BB12846984764
:10088000002383F31188204670BD84F3118870BD66
:100890002DE9F04F83B09A46C6693027019287F35D
:1008A0001188CAB183460D46DDF804904FF0000868
:1008B0004A4629465846FFF72BFF0446584694B14E
:1008C00006B1B04788F31188A9EB0409254487F3E2
:1008D0001188B9F1000FEBD10198002383F311883F
:1008E00003B0BDE8F08F514604F0BAF90028DFD01C
:1008F000019BA3EB0900002383F3118803B0BDE83B
:10090000F08F00BF000000000000000000000000A9
:1009100010B4C3618C18019B0461826010BCC1607B
:100920000362C0E90000C0E9051170470000000043
:10093000F8B5302304460F46164683F3118803E0CA
:1009400004F08EF9002819DBA56831462046002DF9
:10095000F6D06269A368511C013B6161A360177006
:10096000D4E904329A4201D3E3686361E3690BB1CD
:1009700020469847002080F31188F8BD85F3118840
:10098000F8BD00BF000000000000000000000000F3
:10099000D0E905239A4210D08268591C013210B563
:1009A000816182601C780369994201D3C3688361C5
:1009B000002104F06DF9204610BD8268002AEBD0BA
:1009C0004FF0FF30704700BF000000000000000043
:1009D0002DE9F04F83B09A46C6693027019287F31C
:1009E0001188CAB183460D46DDF804904FF0000827
:1009F0004A4629465846FFF7BBFE0446584694B17E
:100A000006B1B04788F31188A9EB0409254487F3A0
:100A10001188B9F1000FEBD10198002383F31188FD
:100A200003B0BDE8F08F514604F01AF90028DFD07A
:100A3000019BA3EB0900002383F3118803B0BDE8F9
:100A4000F08F00BF00000000000000000000000068
:100A500001F01F0C012349090CF1010CB1EB521FED
:100A600003FA0CF310B503F1FF334FEA521402F00E
:100A70001F0E05D850F82400184020FA0EF010BDC3
:100A800050F8211050F8242003EA0100CEF1200193
:100A900022FA0EF38840184310BD00BF000000008A
:100AA000C3689B0F08D08368C288180400F47C10C8
:100AB0001043013080027047826840F6FC73416841
:100AC00003EA8200C2F30342C1F3C23340EA9170E9
:100AD000093A02330130984090407047000000000E
:100AE00090F8D63090F8D7101B0490F8D42090F8E6
:100AF000D50003EB0163134403EB0020704700BFF4
:100B000001F016BA00000000000000000000000024
:100B100003460022012118305A611970C3E90122ED
:100B2000C3E9032204F004B9000000000000000043
:100B30000379052B06D1826A4FF400730020C1E9C6
:100B400000327047012070470000000000000000E4
:100B500070B5124E82B004460D4611E002F0F0FB73
:100B600003460A20BBB9019AC2F343213242A1F1E4
:100B700005020FD104290ED0022A0BD804F040F848
:100B800001AB0D212046A26B002DE7D102F0C0FB86
:100B90000346E6E70123184602B070BD08E0FFFDFA
:100BA00003F1FF3C10B58C44D0F828E00446F4452E
:100BB00005D9436B012043F08003636310BD4FF000
:100BC000060C80F804C002F0EBFD0523237110BD74
:100BD00003F1FF3C10B58C44D0F828E00446F445FE
:100BE00005D9436B012043F08003636310BD4FF0D0
:100BF000070C80F804C002F0FBFD0523237110BD33
:100C000038B50579052D01D0012038BD08230446EB
:100C1000037102F015FE257138BD00BF0000000011
:100C200038B5302383F311880379022B10D00422C6
:100C300004460023027183F311880121FFF788FF26
:100C40000546204602F034FB02232846237138BDB6
:100C5000002585F31188284638BD00BF000000003C
:100C600003232DE9F041037184B0044602F0B8FA81
:100C700000222046114602F03BFB03AB4FF4D57235
:100C80000821204602F05CFBE8B9039B0122C3F374
:100C900003232263934209D02046012502F008FB7A
:100CA00002232846237104B0BDE8F081024603AB5D
:100CB0003721204602F044FB0028EDD1039AA64BD1
:100CC00013408BB1E8E703AB00223721204602F046
:100CD00037FB002835D1039B9F4A1A408ABB114637
:100CE0002046226302F004FB236B03F00F03022B68
:100CF00029D09A4F64259A4ADFF85C82012B18BFED
:100D0000174610E0039E16EA080FC5D102F000FB5B
:100D100003466420002BBFD1039B002B28DB013D41
:100D2000BAD003F06DFF03AB00223721204602F05A
:100D300007FB064603AB3A4629212046002EE1D0A8
:100D4000AAE7022323636425864E06E0039B002B5B
:100D50000EDB013DA0D003F053FF03AB324601216F
:100D6000204602F0D5FA03466420002BEED093E72C
:100D70005A0003D5236B43F01003236304F10803E7
:100D800000220221204602F0F3FA002884D1024614
:100D900004F138030321204602F0D2FA00287FF440
:100DA0007BAF04F11806A26B09212046334602F0FE
:100DB000DFFA00287FF470AF02ABA26B0721204658
:100DC00002F0BEFA054600287FF466AF236B03F0FD
:100DD0000F03022B65D07E227F213046E76BFFF7A1
:100DE00037FE70B10623402239462046009502F0B6
:100DF000DFFA00287FF450AFBB895BBA9B0700F194
:100E000094800021204602F013FA00212046FFF7CB
:100E10009FFE054600287FF43FAF236B03F00F03CE
:100E2000022B6BD03046FFF73BFEA06202AB4FF4C3
:100E300000721021204602F083FA054600287FF454
:100E40002BAF029B444E33427FF426AF236B13F04B
:100E50000E0F03F00F0233D1E36A1978F9B10129BB
:100E60007FF41AAF204602F02BFA03ABA26B3721B6
:100E7000204602F065FA00287FF40EAF039B334250
:100E80007FF40AAF03AB02220621204602F058FA93
:100E900000287FF401AF039B33427FF4FDAE0523AE
:100EA000FFE603AB304A0621204602F049FA00284B
:100EB000A7D1039B28491940B1FA81F14909A1E75B
:100EC000022A7FF4E9AEE36A1978012941D00229A8
:100ED0003DD00029E3D0254E204602F0F1F903ABC6
:100EE00032460621204602F02BFA00287FF4D4AEC9
:100EF000039A194B1340002BD1D0CDE67E227F21DF
:100F00003046FFF7A5FD01288CD9E66B08234FF486
:100F1000007220463146009502F04AFA00287FF41C
:100F2000BBAE3046FFF7DCFD7FE7114B4022394670
:100F300020460093062302F03BFA00287FF4ACAE73
:100F4000397C01F00F010F3918BF01215AE7094E12
:100F5000C2E7094EC0E700BF08E0FFFD0080FF5078
:100F6000000010800080FFC00001B9030000B7033B
:100F7000F1FFFF800002B7030001B703000000008B
:100F800030B5104D83B0044603E0022A16D803F0B2
:100F900037FE01ABA26B0D21204602F0D1F90346CA
:100FA0000A2043B9019AC2F343212A42A1F1050262
:100FB00004D10429E9D1184603B030BD01231846F5
:100FC00003B030BD08E0FFFD00000000000000009D
:100FD00002F0E6B800000000000000000000000081
:100FE000002304490122016002714363C0E90A330E
:100FF000704700BF6C5D00080000000000000000AA
:101000000C30FFF745BC00BF0000000000000000EE
:101010004FF0FF330C30FFF73BBC00BF0000000077
:101020003030FFF7D5BC00BF00000000000000001A
:101030004FF0FF333030FFF7CBBC00BF00000000A3
:101040000C30FFF7FDBB00BF0000000000000000F7
:101050004FF0FF310C30FFF7F3BB00BF0000000082
:101060003030FFF765BC00BF00000000000000004A
:101070004FF0FF323030FFF75BBC00BF00000000D4
:10108000012914BF6FF0130000207047000000001A
:1010900002F0BEBE000000000000000000000000E2
:1010A00003460349012243F8041B02724360704760
:1010B000905D00080000000000000000000000003B
:1010C00010B53023044683F3118802F0F1FE0223A9
:1010D0000020237280F3118810BD00BF00000000C3
:1010E00038B5436904460D463BB1294604F10C006E
:1010F000FFF786FB00280BDB38BD0421084403F012
:10110000CFFE294604F10C00FFF77AFB0028F3DA42
:10111000201D4FF40061BDE8384003F0C1BE00BFA0
:1011200002F0A6BD0000000000000000000000006A
:101130000346002201210C301970C3E9012203F09B
:10114000F7BD00BF0000000000000000000000002C
:1011500001F05EBB00000000000000000000000085
:1011600001234022002110B5044600F8303B04F072
:101170006BFD0023C4E9013310BD00BF0000000077
:1011800070B5022300250446242203702946C0F8C6
:1011900088500C3040F8045C04F056FD204684F87A
:1011A000705001F045FB63681B6823B12946204657
:1011B000BDE87040184770BD00000000000000004E
:1011C0000378052B0DD00521426880F88C30017022
:1011D000136810B504460BB1042198470023A3609F
:1011E00010BD70470000000000000000000000007B
:1011F0000178052900D0704790F88CC0426880F8CB
:1012000000C01368002BF6D0184700BF0000000094
:1012100070B590F87030044613B1002380F8703038
:1012200004F18002204601F0A3FB63689B6853B37E
:101230002046984738B3A56F94F88030B4F88620DC
:10124000AA422CBF2A46A267190600F1DA80002ABA
:1012500000F08D801522302384F8702083F31188EC
:1012600062892046E36842F001029B696281D4E909
:101270001D51002419609D6021465C6001F088FBCF
:1012800084F3118870BD94F8803013F0600618461E
:101290001CD194F8812003F07F0545EA022540F235
:1012A0000232954200F0518140D8B5F5807F00F0C0
:1012B00008811DD9B5F5817F00F01281B5F5407F19
:1012C00004D194F88230012B00F0D3800021204615
:1012D00001F0D6FE0021204601F0C2FE63681B68C3
:1012E00013B1062120469847062384F8703070BD5C
:1012F000012D61D0022D51D194F98430204694F80B
:101300008410002B01F00F01C0F2AC8001F010FB43
:10131000012800F0AC800228D8D19A49022300228B
:10132000C4E91D13E26794F8803087E7B5F5006FD4
:1013300000F0038147D9B5F5106F39D12378042B1C
:1013400000F0A18094F882304BB10421626884F8E7
:101350008B302170136813B1022120469847002377
:1013600094F88000C4E91D33E367030663D40B22BD
:10137000302384F8702083F3118822890025E368E4
:10138000204642F0010229465B6922819D60C3E943
:10139000005501F095FB85F3118870BD002D95D1A6
:1013A000022204F18801E56761671546A26745E7F7
:1013B00040F60242954289D1022573490022C4E9D0
:1013C0001D15E2673AE7B5F5A06F00F09F80A5F51F
:1013D000C065012D3FF67AAF61682046B4F88430CD
:1013E0004D6894F8822094F88310A84700283FF4B1
:1013F0006DAF94F88030D0E90052E667C4E91D254E
:101400001CE7C2B10922302384F8702083F31188CD
:1014100022892046E36842F001025B692281D4E917
:101420001D51002419609D6021465C6001F048FB5D
:1014300084F3118870BD1422302384F8702083F364
:10144000118862890025E368204642F0010229469E
:101450009B6962819D60C3E9005501F099FA85F3AB
:10146000118870BD01F074FA01287FF454AF474928
:1014700054E7B4F88830E66743F00203C4E91D6618
:10148000A4F8883071E7302383F31188A368202201
:10149000314604F1100003F00113A36004F0D4FB03
:1014A000204601F03DFA86F311880321636884F831
:1014B0008B6021701B68002B3FF444AF2046984797
:1014C00040E794F88230012B7FF400AFB4F8883005
:1014D000E66723F00203C4E91D66A4F8883044E7F8
:1014E00094F88230002B7FF4F1AE94F8843013F03E
:1014F0000F0106D01E06204639D401F0D1FD94F824
:1015000080000023C4E91D33E3672EE7B4F8803080
:10151000B3F5A06FF5D194F88230204684F88A3074
:1015200001F0EEF963681B6813B10121204698476A
:10153000032394F880002370E3E7012204F18B0178
:10154000E6671546C4E91D1278E694F88230002B50
:101550007FF4BCAE94F8843013F00F01D1D01D0697
:10156000204609D401F07CFD94F88000C9E701F021
:10157000A7FD94F88000C4E701F082FD94F8800094
:10158000BFE700BFB85D0008C05D0008BC5D000893
:1015900038B590F870300446152B27D8DFE803F0F3
:1015A0002726262626262726260B103826262626F8
:1015B000262626262727856FB0F886309D422ED313
:1015C0001422302384F8702083F311886289002567
:1015D000E368204642F0010229469B6962819D60D2
:1015E000C3E9005501F0D4F985F3118838BD002115
:1015F00001F046FD0021204601F032FD63681B68C2
:1016000013B1062120469847062384F8703038BD70
:10161000C36F03B19847002384F8703038BDC368A6
:101620001B8AB5FBF3F203FB1255002DC8D1302302
:1016300083F3118802892946C36842F001025B697D
:1016400002819D60C3E9005501F03AFA85F31188E3
:101650000A2384F8703038BD00000000000000004C
:1016600038B590F870300446152B21D8DFE803F028
:101670002120202020202120202121212020202065
:1016800020202020320B0B22302380F8702083F39F
:10169000118802890025C36842F0010229465B696E
:1016A00002819D60C3E9005501F00AFA85F31188B3
:1016B00038BD002101F0E4FC0021204601F0D0FCFF
:1016C00063681B6813B1062120469847062384F8F7
:1016D000703038BDC3689B695B68002BE8D1C36F6D
:1016E00003B19847002384F8703038BD0000000033
:1016F0000B462DE9F04F0E4687B013F8011B0192FF
:10170000002900F00F8204464FF000090CE0226827
:10171000204609F101091E46D2689047334613F866
:10172000011B002900F0DF802529F0D172782D2AD5
:1017300000F0C5804FF0000E19782B2900F0BB8017
:101740000025302900F0B38020272A294DD159786F
:101750009E1CDDF804A02E295AF8042B5BD0002033
:1017600001F0DF034C2B63D116F8011B002900F0B8
:10177000BA80A1F14403342B00F2B980DFE813F002
:10178000A001B700B700B700B700A001B700B700CD
:10179000B700B700B7003601E700B700B700B700E1
:1017A000B700C601B700B700E700B700B700B70041
:1017B000B700B700B700B700B700B700B7005901CE
:1017C000A001B700B700B700B700A001B700B7008D
:1017D000B700B700B7003601E700B700B70039011E
:1017E000B700C601B700B700E7005E1C00297AD039
:1017F000002205E016F8011B03EB4002002972D01D
:10180000A1F1300302EB8200DBB2092BF2D92E29C1
:10181000DDF804A0A3D13178002964D02A2952D15F
:10182000717802365AF8040B01F0DF034C2B9BD081
:10183000A1F14103A1F1440CDBB2BCF1340F56D845
:10184000DFE81CF00901550055005500550009015D
:1018500055005500550055005500D4008500550031
:101860005500550055006401550055008500550090
:1018700055005500550055005500550055005500C0
:101880005500F700090155005500550055000901A4
:1018900055005500550055005500D40085005500F1
:1018A0005500D700550064015500550085000133EF
:1018B0000F46197849E759780125013341E7B31CF0
:1018C0004FF0010E38E701360020A1F1300300EBA4
:1018D000800CDBB2092B3FF643AF16F8011B03EB7C
:1018E0004C000029F1D1484607B0BDE8F08F013A1D
:1018F0008DF80C10CDF804A022EAE27BBEF1000FB7
:1019000040F0A580002A75460DF10C0ACBF1000BC2
:1019100053DC002D0DDB05F10108D044236820467F
:101920001AF8011BDB689847C245F7D109F1010994
:10193000A944BBF1000F3FF4F1AE5D462368394680
:101940002046DB689847013DF8D1D944E6E64FF0E0
:101950001008534653F8040B01930DF1170300E0F0
:101960002B4684465D1EB0FBF8F008FB10CA0AF156
:1019700030013929C8BF0AF13701C445C9B203F89B
:10198000011CEDD20DF117000DF11708451B18468B
:1019900003AB9C4601E010F8011B40450CF8011B0D
:1019A000F9D1521B9A46013D22EAE27BBEF1000FBB
:1019B000AFD1002ACBF1000BABDD9AF800102B2938
:1019C00018BF2D2902D1302F00F09680D846236809
:1019D00039462046DB68984718F10108F7D1002DF9
:1019E000A9EB0B09FFF69AAEC34694E74FF008083F
:1019F000AFE7534653F804AB0193BAF1000F00F080
:101A000088809AF80010002868D1002969D047F62C
:101A1000FE70514601E0C54205D411F8013FAAEB22
:101A20000105002BF7D1A1EB0A012027521A4D1E08
:101A3000BAE75AF8043B013A202722EAE27BCDF8C4
:101A400004A08DF80C30BEF1000F3FF45BAF002511
:101A50000DF10C0A5FE7192B32D9534653F8040BEA
:101A60000028019332DB002D59D02B230DF10D0CF2
:101A70008DF80C3003AB0CF10B0A55462C49A1FB39
:101A800000818046C908B8F1090F01EB810B0846B7
:101A9000A8EB4B0101F13001C9B205F8011DEDDCE5
:101AA000AAEB0500604401E015F8011F0CF8011BCA
:101AB0008445F9D1ACEB03059A46521B013D73E70F
:101AC0005AF8040B0028CDF804A0CCDA2D234042AC
:101AD0000DF10D0C8DF80C3003ABCCE709B10138DA
:101AE00097D522EAE27BBEF1000F03D1002ACBF1A9
:101AF000000B19DC20271CE7226820460AF1010AA6
:101B000009F10109D268013D90475FE74FF00A08EB
:101B10001FE7DFF820A000283FF479AFDFE703AB31
:101B20009C46A8E78946DEE620274FF0FF354DE7C3
:101B3000CDCCCCCCC45D000800000000000000004B
:101B40000EB400B582B003AA52F8041B0192FFF74D
:101B5000CFFD02B05DF804EB03B070470000000059
:101B60000A4A09014FEA501C0123C9B200B500F02E
:101B70001F0E104403FA0EF380F8001302EB8C01E1
:101B8000C1F8803142F82C305DF804FB00E100E040
:101B900010B5074C204602F0A3FC064801F058FEA1
:101BA000204602F0B5FCBDE8104003F081BA00BF4A
:101BB000F05D0008C40100240000000000000000E7
:101BC00010B5074C204602F08BFC064802F018FACC
:101BD000204602F09DFCBDE8104003F069BA00BF4A
:101BE000E45D000840030024000000000000000045
:101BF00010B5074C204602F073FC064802F000FACC
:101C0000204602F085FCBDE8104003F051BA00BF49
:101C1000D85D0008A00300240000000000000000C0
:101C200010B5064C204602F05BFC02F0C9F82046D5
:101C300002F06EFCBDE8104003F03ABACC5D00083B
:101C400008B509217A20FFF78BFF09213120FFF722
:101C500087FF07211C20FFF783FF0C212520FFF7BA
:101C60007FFF0C213520BDE80840FFF779BF00BF9A
:101C700038B5364B00224FF0FF31354CD3F8800099
:101C8000344D60F00040C3F88000D3F8800000F0CD
:101C90000040C3F88000D3F88000D3F88400C3F874
:101CA0008410D3F88400C3F88420D3F88400D86F5C
:101CB0002043D867DC6F28482C40DC67DC6FD3F802
:101CC00088402043C3F88800D3F88800C0F30A0096
:101CD000C3F88800D3F88800D3F89000C3F89010B8
:101CE000D3F89000C3F89020D3F89000D3F8940074
:101CF000C3F89410D3F89400C3F89420D3F8940058
:101D0000D3F89800C3F89810D3F89800C3F8982037
:101D1000D3F89800D3F88C00C3F88C10D3F88C005B
:101D2000C3F88C20D3F88C00D3F89C00C3F89C1027
:101D3000D3F89C10C3F89C20D3F89C3000F0C0FA74
:101D400000F0DEFCBDE83840FFF77ABF00440258DF
:101D5000FFEFFF7F0010008000F8FFFF0000000091
:101D6000664B02206649674A10B40124C1F8084155
:101D7000D3F8F4100143C3F8F410D3F81C11014355
:101D8000C3F81C11D3F81C31D06053689904FCD5FA
:101D90005D4901235D4C0020116093604FF4404386
:101DA0005849D460106193618B699B04FCD50B6822
:101DB000524A43F480730B60136F03F44073B3F51E
:101DC000007F04D04FF480310023116713674B4923
:101DD0000B6843F001030B600B685C07FCD5002324
:101DE000464A0B61136913F03803FBD14FF0804072
:101DF000012447491460506046485367D16210611E
:101E000013683E4943F4803313600B689803FCD594
:101E10000A683A4B42F480520A601A689204FCD570
:101E200000223D483D4944F6F05498625A631963D4
:101E3000A1F5FE21DC633E393948996339495A647A
:101E40001864D96219682D4A41F0A85119601368C5
:101E500003F02853B3F1285FF9D148244FF4886385
:101E60004020002194614FF08054D3614FF4E0038F
:101E700010624FF44030D16414652B49536532230E
:101E800090650B600B6803F00F03022BFAD11B4A1D
:101E9000136943F003031361136903F03803182B2C
:101EA000FAD1D2F8DC3010BC43F00053C2F8DC3079
:101EB000D2F8043143F00053C2F80431D2F80431AF
:101EC000D2F8DC3043F08043C2F8DC30D2F8043181
:101ED00043F08043C2F80431D2F80431D2F8DC3048
:101EE00043F00043C2F8DC30D2F8043143F0004341
:101EF000C2F80431D2F80431704700BF00440258E0
:101F0000008000510048025800C000F002000001AB
:101F10000000FF0100881008525090019F02090143
:101F20001F07050799034B01002000520000000025
:101F300070B51E4C00261E4D2046FEF7E9FD1D4AD9
:101F40001D4B05211220C4E90A25C4E90C63FFF7E3
:101F500007FE1A4BD3F8D82042F02002C3F8D8204D
:101F6000D3F8002142F02002C3F80021D3F8002169
:101F7000D3F8802042F02002C3F88020D3F88020DC
:101F800022F02002C3F88020D3F88020AE60D3F87E
:101F9000D82022F02002C3F8D820D3F8002122F064
:101FA0002002C3F80021D3F8003170BD10000024D6
:101FB0000023024000200240162C02000044025878
:101FC000104B98420DD0826A9368590706D59368E2
:101FD00043F0100393609368DB06FCD40023D361C5
:101FE0007047016B0A68136823F01F0313601368BE
:101FF000DB07FCD491F80CC03D234A6803FA0CF3CC
:102000001360E0E710000024000000000000000062
:1020100070B5264802F064FA254D264A2E691368E9
:10202000136066B313F0100406D02C78A4F10304F7
:10203000B4FA84F464096400180648BF44F0040448
:10204000D90523D59A0544F0080401D544F01004BD
:102050001748FFF7B5FFF3681BB3052221462A7026
:1020600098472B78052B1CD0302383F311884FF031
:10207000FF31114802F0E4FD002383F311880B487F
:1020800002F046FABDE8704003F012B89B05DDD4BB
:10209000002CDDD1054802F03BFABDE8704003F0AA
:1020A00007B8022200232A702B61DDE7FC5D0008DF
:1020B0001000002400200240240000240000000042
:1020C0000A4808B502F00CFA094B0A481968426838
:1020D00001F00E0159600AB180689047034802F090
:1020E00017FABDE8084002F0E3BF00BF5C5E0008DD
:1020F00000540258480000240000000000000000C6
:102100000B4810B502F0ECF90A4B0B481968C2688D
:10211000090901F00E010C015C600AB100699047E9
:10212000034802F0F5F9BDE8104002F0C1BF00BF5E
:10213000505E0008005402584800002400000000CF
:102140000B4810B502F0CCF90A4B0B4819684269EC
:10215000090A01F00E010C025C600AB18069904727
:10216000034802F0D5F9BDE8104002F0A1BF00BF5E
:10217000445E00080054025848000024000000009B
:102180000B4810B502F0ACF90A4B0B481968C2694C
:10219000090B01F00E010C035C600AB1006A904764
:1021A000034802F0B5F9BDE8104002F081BF00BF5E
:1021B000385E000800540258480000240000000067
:1021C0000B4810B502F08CF90A4B0B481968426AAB
:1021D000090C01F00E010C045C600AB1806A9047A2
:1021E000034802F095F9BDE8104002F061BF00BF5E
:1021F0002C5E000800540258480000240000000033
:102200000B4810B502F06CF90A4B0B481968C26A0A
:10221000090D01F00E010C055C600AB1006B9047DE
:10222000034802F075F9BDE8104002F041BF00BF5D
:10223000205E0008005402584800002400000000FE
:102240000B4810B502F04CF90A4B0B481968426B69
:10225000090E01F00E010C065C600AB1806B90471C
:10226000034802F055F9BDE8104002F021BF00BF5D
:10227000145E0008005402584800002400000000CA
:102280000B4810B502F02CF90A4B0B481968C26BC9
:10229000090F01F00E010C075C600AB1006C904759
:1022A000034802F035F9BDE8104002F001BF00BF5D
:1022B000085E000800540258480000240000000096
:1022C0000B4800220B4B0146026003F1A00C0A48A8
:1022D00001E053F8140C143302604A60634541F87E
:1022E000082FF6D1054B4FF0FF325A60704700BF00
:1022F00048000024805E0008085402580054025828
:102300000A4808B502F0ECF8094B0A481968426817
:1023100001F03D0199600AB180689047034802F0DE
:10232000F7F8BDE8084002F0C3BE00BF5C5F0008DC
:10233000000002408C0000240000000000000000AB
:102340000B4810B502F0CCF80A4B0B481968C2686C
:10235000890901F03D018C019C600AB10069904738
:10236000034802F0D5F8BDE8104002F0A1BE00BF5E
:10237000505F0008000002408C00002400000000B4
:102380000B4810B502F0ACF80A4B0B4819684269CB
:10239000090C01F03D010C049C600AB18069904772
:1023A000034802F0B5F8BDE8104002F081BE00BF5E
:1023B000445F0008000002408C0000240000000080
:1023C0000B4810B502F08CF80A4B0B481968C2692B
:1023D000890D01F03D018C059C600AB1006A9047AF
:1023E000034802F095F8BDE8104002F061BE00BF5E
:1023F000385F0008000002408C000024000000004C
:102400000A4808B502F06CF8094B0A485968426A54
:1024100001F03D01D9600AB1806A9047034802F09B
:1024200077F8BDE8084002F043BE00BF2C5F00080B
:10243000000002408C0000240000000000000000AA
:102440000B4810B502F04CF80A4B0B485968C26AA9
:10245000890901F03D018C01DC600AB1006B9047F5
:10246000034802F055F8BDE8104002F021BE00BF5D
:10247000205F0008000002408C00002400000000E3
:102480000B4810B502F02CF80A4B0B485968426B08
:10249000090C01F03D010C04DC600AB1806B90472F
:1024A000034802F035F8BDE8104002F001BE00BF5D
:1024B000BC5F0008000002408C0000240000000007
:1024C0000B4810B502F00CF80A4B0B485968C26B68
:1024D000890D01F03D018C05DC600AB1006C90476C
:1024E000034802F015F8BDE8104002F0E1BD00BF5E
:1024F000B05F0008000002408C00002400000000D3
:102500000A4808B501F0ECFF094B0A481968426C0B
:1025100001F03D0199600AB1806C9047034801F0D9
:10252000F7FFBDE8084002F0C3BD00BFA45F00088C
:10253000000402408C0000240000000000000000A5
:102540000B4810B501F0CCFF0A4B0B481968C26C60
:10255000890901F03D018C019C600AB1006D904732
:10256000034801F0D5FFBDE8104002F0A1BD00BF57
:10257000985F0008000402408C0000240000000066
:102580000B4810B501F0ACFF0A4B0B481968426DBF
:10259000090C01F03D010C049C600AB1806D90476C
:1025A000034801F0B5FFBDE8104002F081BD00BF57
:1025B0008C5F0008000402408C0000240000000032
:1025C0000B4810B501F08CFF0A4B0B481968C26D1F
:1025D000890D01F03D018C059C600AB1006E9047A9
:1025E000034801F095FFBDE8104002F061BD00BF57
:1025F000805F0008000402408C00002400000000FE
:102600000A4808B501F06CFF094B0A485968426E48
:1026100001F03D01D9600AB1806E9047034801F096
:1026200077FFBDE8084002F043BD00BF745F0008BB
:10263000000402408C0000240000000000000000A4
:102640000B4810B501F04CFF0A4B0B485968C26E9D
:10265000890901F03D018C01DC600AB1006F9047EF
:10266000034801F055FFBDE8104002F021BD00BF56
:10267000685F0008000402408C0000240000000095
:102680000B4810B501F02CFF0A4B0B485968426FFC
:10269000090C01F03D010C04DC600AB1806F904729
:1026A000034801F035FFBDE8104002F001BD00BF56
:1026B000145F0008000402408C00002400000000A9
:1026C0000B4810B501F00CFF0A4B0B485968C26F5C
:1026D000890D01F03D018C05DC6012B1D0F880005D
:1026E0009047034801F014FFBDE8104002F0E0BC41
:1026F000085F0008000402408C0000240000000075
:1027000000220D4830B40D4C13460D4D226001E0FF
:1027100055F8330004EB830102330260202B4A603A
:10272000F6D14FF0FF330749074A8B60CB609360C7
:10273000D36030BC704700BF100002408C00002402
:10274000C85F0008000002400004024000000000D2
:10275000704700BF00000000000000000000000003
:10276000124A0023F0B5D2E924414FF0010E02F1E4
:10277000080C8E685CF8040F03F110020EFA03F1E6
:102780005D1C87690EFA02F227B1D4F81C783A432F
:10279000C4F81C28426922B1D4F81C281143C4F89B
:1027A0001C189E422B46E5D1F0BD00BF100100244D
:1027B00070B400224FF0FF348E6800EB421102F13A
:1027C000010CD1F800590B46002D05DAD1F800595B
:1027D00045F08045C1F80059D1F8005B002D05DABD
:1027E000D1F8005B45F08045C1F8005BB242C3F808
:1027F00008496246C3F8084BDFD14FF0011370BCA3
:10280000C0F81C38704700BF000000000000000046
:1028100010B5044C2046FEF7A3FC034A034BC4E961
:10282000242310BD1001002400000840F8600008B7
:10283000F8B52023D0F8905007462B612C6914F08E
:102840002004FBD112204FF0006601F0C9FDD7F83B
:1028500094C04FF001134FF0FF31DCF80800C5F8C9
:102860003448C5F81C3805EB4413844204F10104D4
:10287000C3F80069C3F8006BC3F80819C3F8081B54
:10288000F1D1DCF800301021D7F89020C7F898304B
:102890006B621161146914F01004FBD1122001F075
:1028A0009FFDD5F80028124B22F4FE621149C5F8AD
:1028B0000028AA6913430922AB61C5F81028D7F88C
:1028C0009830C5F81428F9604FF0C0410A4AC5F89D
:1028D000101B03F1100143F48013C5F8002BC5F859
:1028E0001049C5F80029C7F89810AB62F8BD00BFC1
:1028F00010000C00D46000084080001000000000B0
:10290000D0F8902090F88A10D2F8003823F4FE63B3
:1029100043EA0113C2F80038704700BF000000000E
:102920000346D0E924010A68C3F89820FFF740BFA6
:102930005831D0F8903049015B5813F4004004D06E
:1029400013F4001F0CBF022001207047000000009C
:102950004831D0F8903049015B5813F4004004D05E
:1029600013F4001F0CBF022001207047000000007C
:1029700000EB8100C3681B6A19685B6811605360D3
:10298000704700BF000000000000000000000000D1
:1029900000EB8103DA68936910B41C68DC6009B944
:1029A000402C25D8538A1268D0F8900002F0030C0E
:1029B0005A1E2244BCF1010FB2FBF3F202FB03F3F7
:1029C00003F1030323F0030343EAC24300EB411284
:1029D00043F0C043C2F8103B0DD009B200EB4110E8
:1029E00010BCD0F8003B43F00443C0F8003B7047F4
:1029F00040241C60D6E7D0F8083800EB411209B239
:102A000013F4807FD2F8003B14BF43F0805343F0AF
:102A10000053C2F8003BE1E70000000000000000A6
:102A20002DE9F041244F0446D7F8906006EB40139F
:102A3000D3F8085B2807C3F8085B03D5D6F8143829
:102A4000190731D4EA072DD5D6F81438DB0729D574
:102A500007EB8403D9688A6954B9488A5368B3FB81
:102A6000F0F500FB15331BB91068D36898420DD3FD
:102A700001227B89CD68A24023EA02037B818DB1CC
:102A800021462B460C48BDE8F04118471B1A5460FC
:102A90003021136081F3118807482146FFF778FF42
:102AA00084F31188BDE8F08107EB840321463846A2
:102AB000DB685B689847C5E7100100240000000050
:102AC00000EB810310B4DC6862691368D360F3B96A
:102AD000D0F890204FF4002002EB4113C3F8100906
:102AE000236803F00303012B2AD008B202EB401045
:102AF0000123D0F800498B4044F00444C0F8004959
:102B0000D2F8341810BC0B43C2F83438704709B9F6
:102B1000402B26D8B4F810C0D0F890200CF1FF302C
:102B20001844B0FBFCF043EAC04302EB411043F011
:102B30000053C0F81039236803F00303012BD4D1EC
:102B4000D2F8083808B213F4807F02EB4113D3F8AF
:102B5000004914BF44F0805444F00054C3F80049C5
:102B6000C4E740231360D5E7000000000000000028
:102B70002DE9F84FDFF8049104464FEA401BD9F8DD
:102B8000906006EB4013D3F80859E907C3F80859D9
:102B900003D5D6F81038DA070CD42B0608D54FF039
:102BA0000108D6F8343808FA04F813EA080F18D1E7
:102BB000BDE8F88F09EB8003D9684B691868DA68BB
:102BC00090424AD30122B9F808308F68A24023EA24
:102BD0000203A9F80830002FDFD021464846B84745
:102BE000DBE709EB8403DB685E69D6E90075AF4279
:102BF00041D90134D9F890A0B3F81090E4B20AEBAF
:102C00000B0E0AEB0430A7EB050CDEF81839CC45A7
:102C10009BB228BFCC46BCEB830FC9D8B468BCF1CB
:102C2000040F236803600BD9ACF10501234621F0A2
:102C300003010431214453F8042F99420260FAD170
:102C400065446444BD42C6E90154DCD3DAF8343843
:102C500023EA0803CAF83438AAE7121A00271A60D0
:102C60005F60302383F3118821464846FFF728FF31
:102C700087F3118891E7D9F890A0E7E710010024C5
:102C80002DE9F84FB24E4FF04009B24801F028FC50
:102C9000D6F890706EE0290500F18E80AA040CD55C
:102CA000D7F8083813F0060FFB6823F470530CBFF5
:102CB00043F4105343F4A053FB602B070ED5746804
:102CC000E368002B00F076813378052B00F07A81E1
:102CD000FFF746FDE3680BB130469847EC0273D42A
:102CE000A80200F1B4802B03D7F818481AD5E003E6
:102CF00000F13C81A10300F13581620300F12E81D6
:102D0000230300F12081E00200F11981A10200F10A
:102D10001281620200F10B81230200F10481E001C3
:102D200000F1F98069031AD5E20700F13F81A3079A
:102D300000F13881600700F13181210700F12A811B
:102D4000E20600F12381A30600F11C81600600F178
:102D50001581210600F10E81E20500F1E080EB060D
:102D600000F1A2807C4B1D4200F0CE80B9F1010938
:102D700000F0CA807D69BB691D4015F480587D61F3
:102D800040F05F81002D86DAD7F8003E980705D025
:102D9000D7F8003E23F00303C7F8003EFFF7E0FC3E
:102DA000D7F80438304623F00103C7F80438FEF79B
:102DB0001FFA29057FF572AFD6E92401FFF7F8FC69
:102DC0003046FEF7FDF969E70021D6F890B04FF0E4
:102DD000010A0C4608E00134D6F89430E4B29B684E
:102DE0009C4221463FF67CAF0BEB4412D2F80039EF
:102DF00003F44023B3F5802FEDD1D2F80039002B36
:102E0000E9DAD2F8003943F09043C2F80039D2F839
:102E10000039002BFBDB8901D6F8902041F020011E
:102E2000116113699906FCD4122001F0D9FA338993
:102E300006EB84020AFA04F1D26823EA01039268DD
:102E40003381002AC7D0214630469047C3E7D6F8E1
:102E500090A000244FF0010B07E00134D6F8943025
:102E6000E4B29B689C423FF63EAF0AEB4412D2F8B4
:102E7000003B03F44023B3F5802FEED1D2F8003BA2
:102E800006EB84010BFA04F2002BE6DA7389304674
:102E9000D1F80CC0214623EA0203DCF80C20738130
:102EA000002ADAD09047D8E7D6F890100B6A03F4DE
:102EB000F010C3F30A1203F00F03B0F5802F00F0F7
:102EC0008C80B0F5402F7FF44DAF06EB8303DB68B9
:102ED000186A002A3FF446AF01F58054002313F02E
:102EE000030F014601D1D4F80080072B03F1010341
:102EF00004D801F8018B4FEA182808469A42EED10F
:102F0000154B1D427FF432AF124801F001FBBDE8C2
:102F1000F84F02F0CDB80820FFF782FD02E7082045
:102F2000FFF726FE1BE70720FFF77AFDF7E60620EE
:102F3000FFF776FDF0E60520FFF772FDE9E60420D5
:102F4000FFF76EFDE2E60320FFF76AFDDBE600BF58
:102F500010010024C8600008300000040220FFF7C0
:102F60005FFDCDE60120FFF75BFDC6E60020FFF721
:102F700057FDBFE60720FFF7FBFDEDE60620FFF754
:102F8000F7FDE6E60520FFF7F3FDDFE60420FFF797
:102F9000EFFDD8E60320FFF7EBFDD1E60220FFF7B7
:102FA000E7FDCAE60120FFF7E3FDC3E60020FFF7D7
:102FB000DFFDBCE6BB6923F00803BB613378052B5A
:102FC0007FF486AED7F8003E304623F00303C7F8FF
:102FD000003EFEF70DF974687AE6981C06EB800354
:102FE0005B68D3F818C0DCE90043A4EB030EDCF8FF
:102FF0000840D2B101F5805C002313F0030F214695
:1030000001D1DCF800809E4503F1010304D901F8E9
:10301000018B4FEA18280C469A42EED106EB80034A
:103020005B68D3F818C0DCE90134724504D214445B
:103030001A44CCE9012495E674447344CCE9013484
:1030400090E60548FEF79CF8044801F061FABDE8F7
:10305000F84F02F02DB800BF10010024C86000082E
:10306000D0F8903003EB4111D1F8003B43F400134A
:10307000C1F8003B704700BF0000000000000000E6
:10308000D0F8903003EB4111D1F8003943F400132C
:10309000C1F80039704700BF0000000000000000C8
:1030A000D0F8903003EB4111D1F8003B23F400132A
:1030B000C1F8003B704700BF0000000000000000A6
:1030C000D0F8903003EB4111D1F8003923F400130C
:1030D000C1F80039704700BF000000000000000088
:1030E00001F001038A0748BF43F002034A0748BFC3
:1030F00043F008030A0748BF43F00403CA0648BF69
:1031000043F010038A06426B48BF43F020031A4382
:103110004263704700000000000000000000000053
:10312000F8B5302305460F46164683F31188446CE4
:10313000E36BA3B900232365E363E362606B10F4E0
:10314000807008D04FF0FF32A26383F31188012F03
:103150000CD81846F8BD80F311880120F8BD4FF057
:10316000FF31403001F05CFD6C6CE3E76A6C41F2CA
:103170000C119360D160516B11F04503FBD0936348
:1031800011F0050303D1526918463260F8BD284694
:10319000FFF7A6FF0120F8BD0000000000000000BE
:1031A00010B5074C2046FDF71BFF064B00200649D3
:1031B000064AA164E263C4E91003054BE36410BD51
:1031C000C40100240070005200B4C40400000430A4
:1031D00000020430000000000000000000000000B9
:1031E0000D4BD0E9112110B4994212D90B4BC46A8E
:1031F0000B440B4861681B0AA0FB030301EB13138C
:1032000053606420136810BC43F00303136001F0A3
:10321000F7BCC36A5B68F3E7801A0600FF340C0052
:10322000598B4F010000000000000000000000006A
:103230000129164B816C30B4446C17D0144A656870
:10324000914203EA05030ED9124AC56A0A4412489C
:103250006968A0FB020201EB1262134343F480533E
:10326000636030BC7047C26A5268F6E70B4A656813
:10327000914203EA0503F6D9094AC56A0A44064899
:103280006968A0FB020201EB5262E6E700ECFFFF77
:1032900040787D017FF0FA02893BE65580F0FA0222
:1032A000FFE0F50500000000000000000000000045
:1032B0000022436C5A601A60704700BF0000000093
:1032C000426C0129536823F4404307D0022901D0FE
:1032D00011B1704743F400435360704743F4804397
:1032E0005360704700000000000000000000000074
:1032F000406C41F480518260C160436B1B06FCD579
:1033000080238363704700BF0000000000000000BE
:1033100010B541F48851446CA260E160616B11F01A
:103320004502FBD0A26311F0040203D1616910468B
:10333000196010BDFFF7D4FE012010BD0000000091
:1033400010B541F48851446CA260E160616B11F0EA
:103350004502FBD0A26311F0050203D1616910465A
:10336000196010BDFFF7BCFE012010BD0000000079
:1033700010B541F49851446CA260E160616B11F0AA
:103380004502FBD0A26311F03F0209D1216A104629
:103390001960E2695A60A2699A606269DA6010BDD8
:1033A000FFF79EFE012010BD00000000000000009D
:1033B0002DE9F843164698460F4637490546D0E9A9
:1033C00011245368C3F3090301335B00B4FBF3F426
:1033D000A1FB041442F21073A40903FB04F4546229
:1033E000FDF7CEFD00282ED16C6C012248F48853E5
:1033F0008146A76522654FF0FF32E86CA2634FF467
:103400009572E26342F20702A662E262089AA26043
:10341000E360616B11F04503FBD011F0050FA3636E
:1034200029D162691D4B0260134073B1616B0023A7
:103430004FF001092846A1632365E362FFF750FEC0
:103440004846BDE8F8836C6CF0E7302383F31188BD
:103450006B6CDA6BBAB900221A65DA63DA62596BFF
:1034600011F480710BD04FF0FF31996382F3118812
:103470004846BDE8F8832846FFF732FED6E781F3D9
:1034800011886C6CD2E74FF0FF3105F1400001F07C
:10349000C7FB6B6CDFE700BFD34D621008E0FFFD98
:1034A0002DE9F84316469846DFF860C10D4642F212
:1034B00010710746D0E911245368C3F3090301339F
:1034C0005B00B4FBF3F4ACFB04C4A40901FB04F4FB
:1034D0005462FDF755FD814610B14846BDE8F883BA
:1034E0007C6C0123A66523654FF0FF33FE6CA3635C
:1034F0004FF49573E3634FEA4823A3623B6BDB060B
:1035000058BF6D02B8F1010FA56024D941F2121322
:10351000E360616B11F04503FBD011F0050FA3636D
:103520003FD163693A4D33601D40002D3CD142F2DA
:103530009303324641463846E362FFF7F1FD002827
:10354000CBD07C6C3846FE6C616BA1632565E5626F
:10355000FFF7C6FD30E041F21113E360616B11F03B
:103560004503FBD011F0050FA36339D16369284DE2
:1035700033601D40002D36D142F29303324641465E
:103580003846E362FFF7CCFD03460028A5D07A6CED
:1035900038469946516B91631565D562FFF7A0FDDA
:1035A0009BE73846FFF79CFD616B00233846A1631B
:1035B0002365E362FFF794FD002241F20C13A26041
:1035C000E360616B11F04503FBD011F0050FA363BD
:1035D00016D163694FF0010933604846BDE8F883AE
:1035E0003846FFF77DFD616B00234FF00109384637
:1035F000A1632365E362FFF773FD4846BDE8F883E6
:1036000038464FF00109FFF76BFD66E7D34D6210B6
:1036100008E0FFFD000000000000000000000000C6
:103620002DE9F84316469846DFF860C10D4642F290
:1036300010710746D0E911245368C3F3090301331D
:103640005B00B4FBF3F4ACFB04C4A40901FB04F479
:103650005462FDF795FC814610B14846BDE8F883F9
:103660007C6C0123A66523654FF0FF33FE6CA363DA
:103670004FF48D73E3634FEA4823A3623B6BDB0691
:1036800058BF6D02B8F1010FA56024D941F219139A
:10369000E360616B11F04503FBD011F0050FA363EC
:1036A0003FD163693A4D33601D40002D3CD142F259
:1036B0009103324641463846E362FFF731FD002868
:1036C000CBD07C6C3846FE6C616BA1632565E562EE
:1036D000FFF706FD30E041F21813E360616B11F073
:1036E0004503FBD011F0050FA36339D16369284D61
:1036F00033601D40002D36D142F2910332464146DF
:103700003846E362FFF70CFD03460028A5D07A6C2B
:1037100038469946516B91631565D562FFF7E0FC19
:103720009BE73846FFF7DCFC616B00233846A1635A
:103730002365E362FFF7D4FC002241F20C13A26080
:10374000E360616B11F04503FBD011F0050FA3633B
:1037500016D163694FF0010933604846BDE8F8832C
:103760003846FFF7BDFC616B00234FF00109384676
:10377000A1632365E362FFF7B3FC4846BDE8F88325
:1037800038464FF00109FFF7ABFC66E7D34D6210F6
:1037900008E0FFFD00000000000000000000000045
:1037A00012F0030F22D02DE9F0411F46D3B1064697
:1037B00015460C460F4404E0F16BFCF717FEA742D8
:1037C00010D021460123F26B3046FFF769FE4FF41B
:1037D00000720346013428461544002BECD01846ED
:1037E000BDE8F08100231846BDE8F081FFF758BE20
:1037F00012F0030F1FD02DE9F0411F46C3B106465A
:1038000015460C460F4401E0A74211D04FF4007258
:103810002946F06B1544FCF7E9FD21460123F26BC4
:1038200030460134FFF7FCFE0028EDD0BDE8F08102
:103830000020BDE8F081FFF7F3BE00BF00000000EC
:1038400000207047000000000000000000000000A1
:10385000302310B583F311880024436C4030214697
:10386000DC6301F0EDF984F3118810BD0000000065
:103870000022124B0A604A60426910B4134040248F
:1038800042780C6143F440434FF0FF348C618B600D
:1038900042B1836910BC23F4C023CB6040F2011312
:1038A0000B6070478269064B10BC134043F0015314
:1038B000CB6040F201130B60704700BF1F3EFFFF5B
:1038C000FFFFB9DF00000000000000000000000062
:1038D00090F8203010B4002B34D0836AD3E9004133
:1038E0000A6822F00F020A60197A0E23426A03FA6C
:1038F00001F161605468216821F00F012160117AA3
:1039000012688B405360474B98423AD0464B9842DE
:103910004BD0464B98425CD0454B98426DD0454BBE
:10392000984251D1444BD3F89C2042F02002C3F876
:103930009C20D3F89C2022F02002C3F89C20D3F8CE
:103940009C3041E0846A2268136823F01F031360EF
:103950001368D907FCD4227B3D23416A93406468F5
:103960000A682360136823F01F0313601368DB07E2
:10397000FCD40C7B3D234A68A3401360294B98423A
:10398000C4D12D4BC169D3F89820406842F48052CD
:1039900010BCC3F89820D3F8982022F48052C3F8C2
:1039A0009820D3F89830FFF763BF234BD3F89020CB
:1039B00042F48042C3F89020D3F8902022F4804251
:1039C000C3F89020D3F89030C16910BC4068FFF76D
:1039D0004FBF194BC169D3F89020406842F40042B0
:1039E00010BCC3F89020D3F8902022F40042C3F812
:1039F0009020D3F89030FFF73BBF0F4BC169D3F84D
:103A00009820406842F4801210BCC3F89820D3F884
:103A1000982022F48012C3F89820D3F89830FFF74A
:103A200027BF00BF14020024500200248C0200248F
:103A3000C8020024040300240044025800000000CF
:103A400010B5164C164800F04BFDE2695369116938
:103A50000B4093615B0606D4114800F059FDBDE8A8
:103A6000104001F025BB2046FFF732FF63689B68DA
:103A70000BB120469847302383F311886FF0120171
:103A8000084801F0DDF8002383F31188044800F0B2
:103A90003FFDBDE8104001F00BBB00BF1402002445
:103AA000346100081C020024000000000000000037
:103AB00010B5164C164800F013FDE2695369116900
:103AC0000B4093615B0606D4114800F021FDBDE870
:103AD000104001F0EDBA2046FFF7FAFE63689B68DC
:103AE0000BB120469847302383F311886FF0120101
:103AF000084801F0A5F8002383F31188044800F07A
:103B000007FDBDE8104001F0D3BA00BF5002002409
:103B10002861000858020024000000000000000096
:103B200010B5164C164800F0DBFCE26953691169C8
:103B30000B4093615B0606D4114800F0E9FCBDE838
:103B4000104001F0B5BA2046FFF7C2FE63689B68DB
:103B50000BB120469847302383F311886FF0120190
:103B6000084801F06DF8002383F31188044800F041
:103B7000CFFCBDE8104001F09BBA00BF8C020024CE
:103B80001C610008940200240000000000000000F6
:103B900010B5164C164800F0A3FCE2695369116990
:103BA0000B4093615B0606D4114800F0B1FCBDE800
:103BB000104001F07DBA2046FFF78AFE63689B68DB
:103BC0000BB120469847302383F311886FF0120120
:103BD000084801F035F8002383F31188044800F009
:103BE00097FCBDE8104001F063BA00BFC802002492
:103BF00010610008D0020024000000000000000056
:103C000010B5164C164800F06BFCE2695369116957
:103C10000B4093615B0606D4114800F079FCBDE8C7
:103C2000104001F045BA2046FFF752FE63689B68DA
:103C30000BB120469847302383F311886FF01201AF
:103C4000084800F0FDFF002383F31188044800F0CA
:103C50005FFCBDE8104001F02BBA00BF0403002454
:103C6000046100080C0300240000000000000000B4
:103C70002DE9F0412D4D0024DFF8B48028462D4F6A
:103C8000FDF756FA2C4B85F820400A21EB612320E2
:103C90006C622F63294EC5E90A48294DFDF760FF84
:103CA0002846FDF745FA274B85F820400A21EB61AD
:103CB00024206C622F63C5E90A48234DFDF750FFAD
:103CC0002846FDF735FA214B0A213320EB6185F8B0
:103CD00020406C622F63C5E90A48FDF741FF30467A
:103CE000FDF726FA1A4D1B4B0A21552086F8204075
:103CF000F36174623763C6E90A48FDF731FF28466D
:103D0000FDF716FA0123144941F20A0285F8203022
:103D100041F21803E96156206C620A212B63C5E960
:103D20000A42BDE8F041FDF71BBF00BF14020024AA
:103D3000160001004600010000300140C8020024C6
:103D400050020024003800408C020024003C004057
:103D5000040300240050014000140058000000003B
:103D6000124A4FF080430021D2F8E80040F00100F1
:103D700030B4C2F8E80044F61F65D2F810010C4CCC
:103D800040F00100C2F810010120D2F81021E26BCE
:103D90000243E2634FF0FF329D62DA629961596338
:103DA000D96059605861186030BC704700440258AF
:103DB0000010005C00000000000000000000000097
:103DC0004FF0804208B51169D3680B40D9B29B0708
:103DD0006FEA0101116100D408BD302383F311881B
:103DE00000F0F6FA002383F3118808BD00000000FC
:103DF000024A136843F0C00313607047001001408B
:103E0000024A136843F0C00313607047005000403B
:103E100070B5194D82B0194C2846194EFDF740F97E
:103E200005F10C000023102216490095FCF7D8FC80
:103E30001022154905F13000144B0095FCF768FD80
:103E4000134B2046C5E91536FDF72AF904F10C009D
:103E5000002310220F490094FCF7C2FC0E4B1022E5
:103E60000E4904F130000094FCF752FD0C4BC4E9FC
:103E7000153602B070BD00BF40030024A00300242B
:103E800000E1F5050004002420040024F13D0008B1
:103E90000010014010040024013E000830040024FA
:103EA0000050004000000000000000000000000082
:103EB0002DE9F041002936D0037A40F22D16D1E9E0
:103EC00000C2D1E90275012B46EA02064FEA5C0303
:103ED00047F0400745F0010502F4004E02F480610E
:103EE00045D0846D2344446DB3FBFCF3BEF1000F59
:103EF00005D023F0070C03F0070343EA4C03E3600B
:103F00004FF0FF336760A5602660236209B312F0AB
:103F100010224AD0B2F1805F14BFFF233F2380F804
:103F20005C30BDE8F081057A012D17D0836D402407
:103F30002C4903F59643426DA1FB031340F22D116A
:103F40001B0BD3600123546093604FF0FF3311606B
:103F50001362FF2380F85C30BDE8F08140F22D163B
:103F600040278E460A464FF496434FF4164C1E4C9B
:103F7000A0421FD01D4CA042B3D11D4CD4F8E88004
:103F800048F48018C4F8E880D4F8108148F4801808
:103F9000C4F81081D4F81041846D2344446DB3FB00
:103FA000FCF3BEF1000FA4D1A9E77F2380F85C30B9
:103FB000BDE8F0810E4CD4F8F08048F01008C4F849
:103FC000F080D4F8188148F01008C4F81881D4F8AB
:103FD0001841846D2344446DB3FBFCF3BEF1000F24
:103FE00087D18CE7B5814E1B40030024A003002439
:103FF0000044025800000000000000000000000023
:104000002DE9F047456D0646EC6922072C6256D132
:10401000E20548D4A00610D54FF03008002788F3F9
:1040200011886B6A304696F85C101940FDF758F815
:1040300087F31188EC69A306F1D4D5F800A01AF033
:10404000800F1DD021061BD506F1300830274FF018
:10405000000905E0A86289F31188EC6922060FD5F2
:1040600087F311884046FCF793FC0028F2DA082118
:10407000301D00F015FF2AF0800A002383F3118819
:104080001AF0400F0BD0630609D5302383F3118853
:10409000D6E911239A422DD0002383F31188C5F865
:1040A00000A0BDE8F087302383F311884FF48061CE
:1040B000301D00F0F5FE002383F31188AAE7C4F356
:1040C000C001E3074FF030034FEA012148BF41F040
:1040D0002001A70748BF41F04001600748BF41F0F9
:1040E000800183F31188301D00F0DAFE002383F392
:1040F00011888DE7B36B002BCED01021301D2AF034
:10410000400A00F0CDFEC7E70000000000000000FC
:104110006A4A40F2FF700023D2F88810014330B49D
:10412000C2F88810664CD2F88810664D0C4066497B
:10413000C2F88840D2F88840D2F8E0400443C2F880
:10414000E040D2F8084104436048C2F808418024A6
:10415000D2F808214FF4C0424B608D60CB604A61B9
:104160000A225B4D0A625B4A4A625B4A0A605B4A0A
:10417000436082605A4AC36044610262594A4262A3
:10418000594A02605948C1F80438C1F8080858482B
:10419000C1F80C38C1F81438C1F82038C1F8240827
:1041A0005448554AC1F80008402054495360916072
:1041B0005349D3605061116201F1F8415162514994
:1041C000116002F580625049536091600421D36010
:1041D00051614E4911624FF0CC31516201F15E41A3
:1041E000A1F50811A1F6F24111604949C2F8043461
:1041F000C2F80814C2F80C34C2F814044548C2F8D6
:1042000020546FF4D575C2F82404A0F10950424936
:10421000A0F50930284444F6F045C2F8000402F540
:1042200040623E484B6088604FF48060CB604861DC
:104230003B4808623B484862A0F1D550A0F5D41035
:10424000A0F27250086053609560D3605461364CA0
:1042500036481462364D374C536214604FF0FF34C9
:1042600043608560A5F1AB45C360A5F5DD154361ED
:10427000A5F67C750562304D43620560C1F8043CCB
:10428000C1F8083CC1F80C3CC1F8143CC1F8203C12
:10429000C1F8243CC1F8004CC2F8043CC2F8083C08
:1042A000C2F80C3CC2F8143CC2F8203CC2F8243CD2
:1042B000C2F8004C30BCFDF753BD00BF00440258AB
:1042C00000F8FFFF1714FD3F0000025800040258D9
:1042D000CCCCCC5070A70A00D6D7A8EAC04F00FFBC
:1042E00000606600000088CCBF7AFFAA0000FF07CC
:1042F000CCCC0C00FFFFAAF2000C02583FD07FF09C
:10430000CC0C0050EA9F6AAF1FC0FFFFCC0000C07A
:10431000FFDFDFFF55C0CCCC001802583F1FDFFF86
:10432000CC0CCC005C5055C500CCC000002002581D
:10433000CCFF4500AF7BFFFFBBAA71FF0000000070
:104340000120704700000000000000000000000095
:104350000020704700000000000000000000000086
:10436000704700BF000000000000000000000000D7
:1043700030B587B0114D00230122684604242A700D
:10438000C5E9013300F094FC684600F0A1FC6846E2
:1043900000F0A6FC013CF7D1009BAB6000F0B0FD43
:1043A00000F0F6FD00F014FE0549064800F038FB69
:1043B00002232B7084F3118807B030BD000E002457
:1043C00044610008400400240000000000000000D8
:1043D00000F096B90000000000000000000000009E
:1043E000034A516853685B1A9842FBD8704700BF74
:1043F000001000E0000000000000000000000000CD
:10440000024A536B03435363704700BF40040024C8
:1044100038B50C4CD4F88C50FCF75AF9D4F88C30E1
:1044200004F50961084A686050681A6860F31F2241
:1044300043F8102B04F190028B4228BF1346C4F8B6
:104440008C3038BD40040024001000E00000000063
:1044500002460749002342F8081B426000EB0312A2
:104460000133117A802B6FF302011172F6D170477C
:10447000FFFF8000000000000000000000000000BE
:10448000094BB3F88820D20700D5704790F8242054
:1044900010B4D3F88C40D30043F00103C4E9020107
:1044A000237010BCFFF7B4BF4004002400000000DC
:1044B0000A4BB3F88820920700D5704710B491F8E2
:1044C0002420D3F88C40D300896A43F00203C4E966
:1044D0000201237010BCFFF79BBF00BF4004002403
:1044E0000A4AB2F8883010B513F0040400D010BDA9
:1044F000302383F311880321D2F88C30197098602F
:10450000FFF786FF84F3118810BD00BF400400242C
:104510000A4AB2F8883010B513F0040400D010BD78
:10452000302383F311880421D2F88C3019709860FD
:10453000FFF76EFF84F3118810BD00BF4004002414
:10454000F8B51446144D03460E4605F11002022C30
:10455000E9614FF00207846038BF022442602A6993
:104560000260506008192B61FCF7BAF8FCF7B0F84C
:10457000821B0346A24207D2022F00D8F8BD0120B9
:10458000BDE8F840FFF73CBF7C1C301927461E46AB
:10459000FCF7B6F8EAE700BF400400240000000082
:1045A0002DE9F843DFF89C9007460E46FCF790F89B
:1045B0004B46804653F8105F9D4237D0D9F81C40D7
:1045C000AB68041B341928BF3446A34215D89C425B
:1045D00004D92D68E41AAB68A342FAD36B684FF094
:1045E000FF32BC60C7E900531F60AB686F601B1BE4
:1045F000AB60C9F81820BDE8F883022E4FF0020521
:1046000038BF022608EB0600FCF77AF8FCF760F8E2
:10461000A0EB0808464510D9022D03D8D9F8105050
:10462000AB68D4E70120FFF7EBFEF7E7324601461F
:104630003846BDE8F843FFF783BF013580462E4674
:10464000E0E700BF4004002400000000000000007C
:1046500003610023C2604361FFF7A2BF00000000B6
:1046600070B5234C236998420DD00368D0E901212D
:1046700013605A609A680A4400219A604FF0FF3331
:104680000160A36170BD02682346002143F8102F2A
:104690005360016022699A4221D0936881680B447B
:1046A0009360FCF715F8E56923690446421B9B6893
:1046B0009342E7D91D4402262D1AB54238BF35462C
:1046C0006019FCF71DF8FCF703F8041BA5420AD992
:1046D000022ED7D90120BDE87040FFF791BEBDE89A
:1046E0007040FCF705B8013604463546E8E700BFE0
:1046F0004004002400000000000000000000000052
:104700002DE9F84F3C4E00274FF0300906F1100814
:1047100009E087F31188D4E903312046984789F3EB
:1047200011886369ABB93469FBF7D2FFF3690546B9
:10473000A268C11A8A422CD89D18D4E90010F561EC
:1047400001604860276033694345E2D1FBF7D0FF41
:10475000DFE7FBF7BDFF6369A0EB050B82465B4516
:104760002FD3316941453DD08A68934204D9096805
:104770009B1A8A689A42FAD34A68A360C4E9001275
:1047800014608A684C60D21A4FF0FF338A60B361BC
:10479000C9E73169414512D013440227F0611B1A61
:1047A000BB421E46A36038BF3E46A819FBF7A8FFD0
:1047B000FBF78EFF451BAE4210D9022F09D8BDE88A
:1047C000F88F0220FFF71CFE3169414512D05B468D
:1047D000CAE70120BDE8F84FFFF712BE01370546D2
:1047E0003E46E2E72B441A1A51462046BDE8F84FF0
:1047F000FFF7A6BE0022F7E74004002400000000F7
:1048000010B530230C4683F3118891F824300C2B1B
:1048100010D8DFE803F02B0F0F270B070F0B0F0F3C
:104820000F0F0B008A6A936801339360D4E900325A
:1048300013605A604FF0FF312046A162FFF720FE5F
:104840000022A369A16884F824201B689A688A4220
:10485000FBD25A6800212360626014605C6081F3BF
:10486000118810BD8B6A00221A60E3E7002383F3EE
:10487000118810BD000000000000000000000000D2
:1048800010B50446816AFFF7FBFD0022A369A16809
:1048900084F824201B689A688A42FBD25A68204612
:1048A0002360626014605C6010BD00BF0000000007
:1048B00038B50B4B01211C68DD6885F824002046C3
:1048C000226853601A6084F824102946DC60FFF7E0
:1048D000EFFD29462046BDE83840FBF771BD00BF1B
:1048E0004004002400000000000000000000000060
:1048F000F0B54B1C1C4C87B00546E6681FD033460C
:104900001A4A6846FFF7A4FEE768012287F8245098
:10491000394625682B6828465C6085F8242023608A
:10492000E560FFF7C5FD39462846FBF749FD009BCA
:1049300013B16846FFF794FEB06A07B0F0BD276870
:10494000012286F8240031463B6838465C6087F8CF
:1049500024202360E760FFF7ABFD38463146FBF7C4
:104960002FFDB06A07B0F0BD4004002401480008E4
:10497000044B1A68DB6890689B68984294BF0020DB
:1049800001207047400400240000000000000000E7
:1049900038B5134B01211D68DC682A682046536036
:1049A0001A6085F82410A16ADD60FFF769FD002216
:1049B000A369A16884F824201B689A688A42FBD8FE
:1049C0005A68214623602846626014605C60FFF7E5
:1049D0006FFD21462846BDE83840FBF7F1BC00BF1B
:1049E000400400240000000000000000000000005F
:1049F000044B1A68DB6892689B689A4201D9FFF7FA
:104A0000C7BF704740040024000000000000000001
:104A1000FEE700BF000000000000000000000000F2
:104A200070B5214B0025044686B081630E460563B0
:104A3000586000F00DFB04F1100304F12802A5609A
:104A40006563C4E904334FF0FF33C4E90A22C4E9C3
:104A50000635C4E90044FBF73BFE2B46024604F151
:104A60008800C4E90823C4F88450FFF7F1FC04F17E
:104A70003C0180230D4A204600F022F80122034623
:104A8000716803926846E36083F82420084A19623B
:104A90000092084B05950493D6E90312CDE9011263
:104AA00000F076F806B070BD000E002460610008CA
:104AB00058610008114A00080000000000000000D2
:104AC00010B400248B60CA6101F110028C6388610C
:104AD000C1E90F43022401238C8400F1280481F8EA
:104AE0002630C36AC1E904431A6001F12C0401F1C4
:104AF0003003C26208464B63C1E90B4310BC7047E8
:104B000070B5D0E90234456800211D4A4FF0020E0D
:104B100043F8285C4FF0010C05691A4E43F86C5CB1
:104B2000456943F84C6C43F8685C0568A3F13800AC
:104B300003F8231C03F824EC03F822CC43F8404C80
:104B400043F8084CD46A43F82C5CA3F16C0543F895
:104B5000344C43F83C5C02F1280543F8302C43F810
:104B6000385C43E904112060A3F11801A3F11C048F
:104B7000D062A3F1480043F8141C43E9074170BD1B
:104B800040040024D10300080000000000000000E1
:104B900008B5FFF7B5FFBDE80840FFF771BE00BFDD
:104BA00038B5302383F31188124BDC6804F12C05EF
:104BB000E36AA0629D4207D194F8263083B10F20AA
:104BC000BDE83840FFF774BE1A681846E262FFF786
:104BD00057FEE36AAB42F7D194F82630002BEED1B2
:104BE00094F825309B07EAD1D4E9043213605A6067
:104BF000E5E700BF400400240000000000000000C2
:104C000008B50146302383F311880820FFF770FEB2
:104C1000002383F3118808BD00000000000000009D
:104C2000054A0346D26821B1026003209362FFF770
:104C30005FBE4FF0FF3070474004002400000000CA
:104C40000346006820B100221A608162FFF718BE97
:104C5000704700BF000000000000000000000000DE
:104C6000084AD26851B1034610B444681060042069
:104C70005460226010BC5A60FFF73ABE4FF0FF301C
:104C8000704700BF40040024000000000000000046
:104C900003460068834205D002681A60536081624F
:104CA000FFF7EEBD704700BF0000000000000000ED
:104CB00030B40023002400254FF0FF32C0E9044542
:104CC000C0E9002330BCC0E9023370470000000097
:104CD000014B5B6883607047001000E0000000003B
:104CE0000E4A0F4B81685B6810B4946802691B1B05
:104CF000C4685B1A41690134D218026141F10001B4
:104D0000426841619342026888BF43609342C0E9B0
:104D1000023438BF036010BC704700BF000E00248F
:104D2000001000E000000000000000000000000093
:104D30000023C0E900008360704700BF000000004E
:104D400070B52F4B04468068DD6830B3AA6883686D
:104D5000934207D290F824308260062B36D0072B7E
:104D600020D09BB1234603E09968AA68914202D300
:104D70001B689C42F8D15A6806202B606A60156057
:104D80005D60AC62BDE87040FFF792BDD0E90032D3
:104D900013605A60FFF774FDE4E7EB6BC4E902535C
:104DA000EC6370BD866AD0E9003213605A60334606
:104DB00003E099688268914202D31B689E42F8D151
:104DC0005A68C0E9003210605860CBE7866AD0E9C3
:104DD000003213605A60334603E09968826891425A
:104DE00002D31B689E42F8D15A680360426010608B
:104DF0005860B068AA6883689342ABD3B2E700BF3B
:104E0000400400240000000000000000000000003A
:104E100008B5302383F31188FFF792FF002383F353
:104E2000118808BD00000000000000000000000024
:104E3000174A302310B5D46883F311880268C36819
:104E40008242E3631DD00146206C4BB11A68934245
:104E500003D09268904238BF1046DB68002BF5D132
:104E6000A0600868C26B03680B605960C1E9020268
:104E7000C163FFF705FDFFF7BBFD002383F3118836
:104E800010BD00239360002383F3118810BD00BF81
:104E900040040024000000000000000000000000AA
:104EA000F8B50468A04221D007460D46002604E06C
:104EB0000B2A1CD02468A74218D0E3682B43E36078
:104EC00015B123691D42F5D0D4E90103816B90F837
:104ED00024200B430A2A8363EAD1826A1342E9D071
:104EE0008662FFF7CDFC2468A742E6D1F8BD826A4E
:104EF0009A43DFD1F4E700BF00000000000000008B
:104F0000024B0349034AC3E9001270470C0E002408
:104F1000A00E002400000824000000000000000093
:104F2000084B494210B45C68201A08401968821A7C
:104F30008A4204D3A24202D810BC5A6070470020B3
:104F400010BC70470C0E00240000000000000000A0
:104F5000302310B483F311880B4B49425C68201A4C
:104F600008401968821A8A4207D3944205D35A60CE
:104F7000002383F3118810BC70470020002383F3C3
:104F8000118810BC704700BF0C0E00240000000008
:104F9000044B0022044903F10C009A60C3E900129B
:104FA000FFF7C6BE140E0024514F00080000000099
:104FB00010B40024C0E90223C0E9004110BC7047CE
:104FC0000022FFF7ADBF00BF00000000000000009E
:104FD00038B5124C124D2046FFF7AAFE04F110011D
:104FE0002B460422216114216018FFF7E1FF04F130
:104FF000240004F128012B460422C4E909011C21E4
:1050000004F12C00FFF7D4FF04F13C0104F140024D
:1050100004F14403C4E90F12636438BD300E002468
:10502000C14F000800000000000000000000000068
:10503000EFF30983203383F30988002383F3118876
:10504000704700BF000000000000000000000000EA
:105050004FF0300C00B58CF3118862B60E4B4FF652
:10506000FF0E0E49D8680E4A00EA0E0001430D48B3
:10507000D960D3F8FC1041F08071C3F8FC10C2F87D
:10508000B00F2020116841F001011160D87783F83A
:1050900022C05DF804FB00BF00ED00E00003FA054C
:1050A000001000E055CEACC500000000000000007C
:1050B000302383F311880D4B5B6813F4006302D136
:1050C00083F31188704710B5EFF309844FF08073B4
:1050D000203CE36184F30988FFF74AFC10B1044BDC
:1050E000A36110BD034BA36110BD00BF00ED00E044
:1050F000E3030008E60300080000000000000000D1
:105100002DE9F0473C4CFBF7C3FAFFF731F93B4977
:105110002046DFF8ECA0FBF7D3FF4FF4FA60394FDD
:10512000FFF76EFDDFF8E090DFF8E080384D17E024
:10513000FCF706FD012000F02BFB00F0C1FB03464D
:1051400034492046023BDBB2012B45D9FCF7F8FC81
:1051500039462046FCF7F4FC44F62060FFF750FD8A
:1051600051462046FCF7ECFC39462046FCF7E8FCAB
:1051700029492046FCF7E4FC39462046FCF7E0FCD0
:105180004A4626492046FCF7DBFC42462449204695
:10519000FCF7D6FC2A4623492046FCF7D1FC2A46D8
:1051A00021492046FCF7CCFC2A4620492046FCF742
:1051B000C7FC2A461E492046FCF7C2FC1D492A4668
:1051C0002046FCF7BDFC00F063FB06461A4920466A
:1051D000002EADD01949B9E71949FCF7B1FC3146A9
:1051E000304600F07DFB034616492046002BADD02B
:1051F0001549FCF7A5FCABE7400300245863000801
:10520000F06400088C6100080084D71700C2EB0B23
:1052100000E1F505B4620008B8610008DC6100082F
:10522000F061000804620008186200082C6200089F
:105230004062000854620008806200083063000881
:10524000D0620008E86200080C630008000000005B
:105250002DE9F0410E46002514460746D16A4FF06D
:1052600001086B0003F140431A8892B2B2420BD09E
:10527000A26994F820000132A26128B9E361668432
:1052800084F8208084F80C80236922780133012A75
:10529000236102D10DB1ABB243B109B10B786BB947
:1052A0000135BD42DDD10120BDE8F08109B10B78A7
:1052B0005BB90A20FFF7A4FCE16AEEE7237B0BB998
:1052C000022323730020BDE8F081207B0028F9D160
:1052D00002232373BDE8F0810000000000000000FD
:1052E000F8B51546002407460E46D26A630003F15E
:1052F00040431E802B78012B02D10CB1A3B27BB1AD
:105300000AB11378A3B90134A742EFD12A46314636
:105310003846FFF79DFF10B16B6801336B60F8BD35
:105320000AB1137823B90A20FFF76AFCEA6AE7E7B3
:105330002B7B002BF3D102232B73F8BD0000000060
:105340002DE9F04706464FF0000915460F464FF08D
:105350000108D06A08FA09FA0FB96FEA0A0A1FFAB7
:105360008AFA0024630003F14043A3F800A02B78DD
:10537000012B02D10CB1A3B2CBB108B10378F3B9C0
:105380000134A642EED12A4651463046FFF760FF6F
:1053900058B16B68E86A01336B6008B1037873B980
:1053A00009F10109B9F1100FD4D1BDE8F08708B1B6
:1053B000037823B90A20FFF723FCE86ADDE72B7B9B
:1053C000002BF2D102232B73BDE8F0870000000010
:1053D00010B503780446012B02D109B189B251B14D
:1053E000E36A0BB11B780BB9012010BD207B50B9CB
:1053F0000223237310BDC36A0BB11B782BB90A209B
:10540000FFF7FEFBECE7002010BD007B10B9022285
:10541000227310BD084610BD00000000000000000F
:105420004000F8B500F1404700250C46CB6A3E46E7
:10543000AAB232802278012A02D10DB1AAB262B397
:105440000BB11A788ABB01350236B5F5003FEFD1B2
:10545000002501263B88AAB2294620469BB2013589
:105460009A420CD0A36994F820C00133A361BCF127
:10547000000F04D1E761628484F8206026732369F9
:10548000023701332361FFF7A3FF28B1B5F5003FD1
:10549000E0D1636801336360F8BD0BB11B7823B9B9
:1054A0000A20FFF7ADFBE36ACAE7237B002BF3D1A9
:1054B00002232373F8BD00BF0000000000000000BD
:1054C0002DE9F8430446002800F0E3800378002526
:1054D000012B02D92846BDE8F883057380F82050D7
:1054E0004584C0E90455C0E90655FBF7F1F8237877
:1054F00029462246012B65600BBF4FF080774FF4A1
:1055000000274FF000764FF48016A7606761C4E96A
:1055100009003846FFF7E4FEE36A2BB11B7803F07D
:10552000FF05002B40F0A58022464FF6FF7138465C
:10553000FFF7D6FEE36A2BB11B7803F0FF05002BC3
:1055400040F0978022464AF6AA213846FFF7C8FE67
:10555000E36A2BB11B7803F0FF05002B40F0898034
:10556000224645F255513846FFF7BAFEE36A23B1A9
:105570001B7803F0FF05002B7BD122460121384622
:10558000FFF7DEFEE36A23B11B7803F0FF05002B73
:105590006FD1224600213846FFF7D2FEE56A25B1D9
:1055A0002B7803F0FF05002B63D14AF6E1484FEA60
:1055B000D80329466A00204683EA9803013502F1A0
:1055C000404288EA030383EA581303F00103DB0334
:1055D00043EA5808A2F80080FFF7FAFEA8B3BD42DC
:1055E000E5D14FF000094AF6E1454FF00108EB081C
:1055F00049464FEA4902204683EA950309F1010929
:1056000002F140426B4083EA551303F00103DB03D0
:1056100043EA550513889BB29D420BD0A369013321
:10562000A36194F820302BB9E261658484F820806E
:1056300084F80C80236901332361FFF7C9FE20B190
:10564000B945D4D1636801336360E36A1BB11A784A
:1056500002F0FF056AB92278012A1ED0A3691BB1A6
:10566000237B0BB901232373FBF732F80125A062DA
:1056700030E7237B0BB902232373A3691BB1237B80
:105680000BB901232373FBF723F8A0622846BDE87A
:10569000F88305462846BDE8F88307F1404C4FF0F3
:1056A000404545F6A5214AF25A5EA5F800E0ACF85F
:1056B00000102888BCF8001080B289B2884252D00D
:1056C00070450BD0A0690130A06194F8200028B982
:1056D000E561A4F822E084F82020227345F6A52095
:1056E00081420CD0A2690132A26194F8202032B923
:1056F0000122C4F81CC0608484F8202022736268F0
:105700000132626022690232226123B11B7803F008
:10571000FF05002BADD121460020FFF781FEE36A93
:1057200023B11B7803F0FF05002BA2D1B00821465E
:10573000A0F58030FFF774FEE36A23B11B7803F015
:10574000FF05002B95D12146A7F50030FFF768FE35
:10575000E36A23B11B7803F0FF05002B89D10A20EF
:10576000FFF74EFA7AE7A1690131A16194F82010A0
:105770000029C4D122730222E561A4F822E084F852
:105780002020BCE700000000000000000000000036
:10579000F0B536498DB00546354C3648FCF7D0F9A2
:1057A0003548FFF735FB2678A6BB01273248A6709F
:1057B0002780FFF73DFB00F0FBF8002845D09DB3A4
:1057C00030223146684600F03FFA2B48FFF720FBB5
:1057D0002948A770FFF72CFB6846FFF771FE0546C6
:1057E0002548FFF715FB0DF10C0E04F1040CA67013
:1057F000BEE80F00ACE80F009EE80F008CE80F0039
:10580000EDB9032204231C4822706370FFF710FBDC
:105810000DB0F0BD1848FFF70BFB184915480DB047
:10582000BDE8F040FCF78CB91348FFF7F1FA02230A
:10583000114823700DB0BDE8F040FFF7F9BA9DF8AC
:105840000C30002BDDD10222DDE70B48FFF7E0FA38
:105850004FF4827308482380FFF7EAFA08490548A5
:105860000DB0BDE8F040FCF76BB900BF68630008FD
:10587000780E002440030024000000248863000800
:10588000B4630008000000000000000000000000F9
:1058900010B5074C2046FFF7BBFA064B20461C7894
:1058A000003C18BF0124FFF7C3FA204610BD00BF1B
:1058B00000000024780E002400000000000000001A
:1058C00010B5054C2046FFF7A3FA044B20461C7880
:1058D000FFF7AEFA204610BD00000024780E002429
:1058E0002DE9F0432F4D8DB006462F480C46FFF7AB
:1058F0008FFA95F80090B9F1010F04D995F802805C
:10590000B8F1000F07D000272748FFF791FA384673
:105910000DB0BDE8F08301232348AB70FFF788FA90
:1059200030224146684600F08FF968468DF80060E5
:10593000FFF7C6FD07461C48FFF76AFA85F80280A4
:10594000BFB10DF10C0E05F1040C9DF80C80BEE802
:105950000F00ACE80F009EE80F008CE80F00B8F1D4
:10596000000F17D1B9F1030F03D1012E01D102238A
:105970002B8044B10D4DA4460FCDACE80F0095E847
:105980000F008CE80F000848FFF752FA38460DB0B8
:10599000BDE8F0830423012E6B7018BF03232B7026
:1059A000E7E700BF780E0024000000247C0E0024EE
:1059B0008149824870B5FCF7C3F881497F48FCF7FC
:1059C000BFF8804BD3F8D420D10407D4D3F8D42027
:1059D00042F48052C3F8D420D3F8D4307A494FF43B
:1059E00080247648FCF7ACF878497448FCF7A8F8AE
:1059F000774D784B41F6591277492A646F48AB646A
:105A0000FCF79EF80220FFF7FBF874496B48FCF79F
:105A100097F811232B6502E0013C00F09780AB6DF5
:105A20009A06F9D46E494FF480246448FCF788F84C
:105A30000A20FFF7E5F86B496048FCF781F812236C
:105A4000634E2B6502E0013C00F08680B36D9B063F
:105A5000F9D465494FF480245848FCF771F863493C
:105A60005648FCF76DF8F323594D336501E0013CCE
:105A700078D0AB6D9E06FAD45D494FF480244F4830
:105A8000FCF75EF85B494D48FCF75AF85A4B504E0C
:105A90002B6501E0013C6BD0B36D9806FAD45749F1
:105AA0004FF480244548FCF74BF855494348FCF730
:105AB00047F8716D534A40F2F25340480A40524948
:105AC00013437365FCF73CF850493C48404EFCF7E3
:105AD00037F801E0013C51D0B56D15F02005F9D142
