:020000040800F2
:1000000000040020B9030008BB030008BB0300087C
:10001000BB030008BB030008BB030008BB030008C8
:10002000BB030008BB030008BB030008C145000870
:10003000BB030008BB030008BB030008BB030008A8
:10004000BB030008BB030008BB030008BB03000898
:10005000BB030008BB030008BB030008BB03000888
:10006000BB030008BB030008BB030008F11900082C
:10007000311A0008711A0008B11A0008F11A0008B4
:10008000311B0008711B000801170008BB030008A2
:10009000BB030008BB030008BB030008BB03000848
:1000A000BB030008BB030008BB030008BB03000838
:1000B00011130008BB030008BB030008BB030008C2
:1000C000BB0300087120000851220008A12E00087F
:1000D000112F0008B1120008BB030008BB03000881
:1000E000BB030008BB030008BB030008BB030008F8
:1000F000BB030008BB030008BB030008B11B0008DA
:1001000061120008BB030008BB030008812F000830
:10011000BB030008E1120008BB030008BB03000892
:10012000F11B0008311C0008711C0008B11C0008FC
:10013000F11C0008BB030008BB030008BB03000858
:10014000BB030008BB030008BB030008BB03000897
:10015000311D0008711D0008B11D0008BB03000817
:10016000BB030008BB030008BB030008BB03000877
:10017000BB030008BB030008BB030008BB03000867
:10018000BB030008BB030008BB030008BB03000857
:10019000BB030008F12F000861300008BB03000812
:1001A000BB030008BB030008BB030008BB03000837
:1001B000BB030008BB030008BB030008BB03000827
:1001C000BB030008BB030008BB030008BB03000817
:1001D000BB03000871280008BB030008BB0300082C
:1001E000BB030008BB030008BB030008BB030008F7
:1001F000BB030008BB030008BB030008BB030008E7
:10020000BB030008BB030008BB030008BB030008D6
:10021000BB030008BB030008BB030008BB030008C6
:10022000BB030008BB030008BB030008BB030008B6
:10023000BB030008BB030008BB030008BB030008A6
:10024000BB030008B1170008F117000831180008B7
:1002500071180008B1180008F118000831190008D9
:1002600071190008BB030008BB030008BB030008AA
:10027000BB030008BB030008BB030008BB03000866
:10028000BB030008BB030008BB030008BB03000856
:10029000BB030008BB030008BB030008BB03000846
:1002A000BB030008BB030008BB030008BB03000836
:1002B000BB030008BB030008BB030008BB03000826
:1002C000BB030008BB030008BB030008BB03000816
:1002D000BB030008BB030008BB030008BB03000806
:1002E00072B6264880F30888254880F30988254897
:1002F00025490860022080F31488BFF36F8F00F057
:100300000FF903F0A5FA4FF0553020491B4A9142EE
:100310003CBF41F8040BFAE71D49194A91423CBF22
:1003200041F8040BFAE71B491B4A1C4B9A423EBF9B
:1003300051F8040B42F8040BF8E700201849194A59
:1003400091423CBF41F8040BFAE700F039F900F0A4
:1003500027F9154C154DAC4203DA54F8041B8847B5
:10036000F9E704F0BDF9124C124DAC4203DA54F82F
:10037000041B8847F9E700F01BB9000000040020C7
:10038000000800200000000808ED00E00000002048
:1003900000040020D04D00080000002400000024CC
:1003A00000040024A8120024E0020008E002000873
:1003B000E0020008E002000892E700F000F8FEE723
:1003C0002DE9F04FC1F80CD0D0F80CD0BDE8F08F7B
:1003D000002383F311882846A047002003F068FF1C
:1003E000FEE703F06DFE00DFFEE70000844641EA11
:1003F000000313F003036DD1403A41D351F8043B9D
:1004000040F8043B51F8043B40F8043B51F8043BEE
:1004100040F8043B51F8043B40F8043B51F8043BDE
:1004200040F8043B51F8043B40F8043B51F8043BCE
:1004300040F8043B51F8043B40F8043B51F8043BBE
:1004400040F8043B51F8043B40F8043B51F8043BAE
:1004500040F8043B51F8043B40F8043B51F8043B9E
:1004600040F8043B51F8043B40F8043B51F8043B8E
:1004700040F8043B51F8043B40F8043B403ABDD2FD
:10048000303211D351F8043B40F8043B51F8043B9F
:1004900040F8043B51F8043B40F8043B51F8043B5E
:1004A00040F8043B103AEDD20C3205D351F8043B2E
:1004B00040F8043B043AF9D2043208D0D2071CBFFA
:1004C00011F8013B00F8013B01D30B880380604623
:1004D000704700BF082A13D38B078DD010F0030399
:1004E0008AD0C3F10403D21ADB071CBF11F8013B09
:1004F00000F8013B80D331F8023B20F8023B7BE758
:10050000043AD9D3013A11F8013B00F8013BF9D282
:100510000B7803704B7843708B788370604670471C
:1005200010B5BFF34F8FBFF36F8F1C480022C0F888
:100530005022BFF34F8FBFF36F8F436943F40033F3
:100540004361BFF34F8FBFF36F8FC0F88420BFF3B9
:100550004F8FD0F8803043F6E074C3F34E3CC3F3C2
:10056000C90E4FEA4C1C0CEA0401734641EA83723F
:10057000013BC0F860225A1CF8D1ACF1200C1CF1F0
:10058000200FF0D1BFF34F8F436943F480334361B1
:10059000BFF34F8FBFF36F8F10BD00BF00ED00E0C2
:1005A000704700BF000000000000000000000000D5
:1005B000FEE700BF00000000000000000000000097
:1005C000F8B52B4D2B4F2C4905F170042B482C4AC4
:1005D00088420DD2043A034652F8046F43F8046B84
:1005E0008B42F9D34B1E1B1A23F003030433184428
:1005F000B84207D2013F00213F1A27F0030204321C
:1006000004F002F9A54205D0D5E90420D5E9061782
:100610001035DDE71B480023C0F88430BFF34F8F4F
:10062000D0F8805043F6E076C5F34E34C5F3C905E3
:10063000640104EA06012B4641EA8372013BC0F8DB
:100640006C225A1CF8D1203C14F1200FF1D1BFF3D9
:100650004F8FBFF36F8FBFF34F8FBFF36F8F0023A9
:10066000C0F85032BFF34F8FBFF36F8FF8BD00BF9C
:10067000AC480008A8120024A8120024A8120024E4
:10068000D051000800ED00E0000000000000000074
:1006900008B500F065FE01F06BFC00F0E1F900F038
:1006A000F7F900F095FA00F0DBFA00F0F1FA00F04B
:1006B000FFF900F0BDFD03F0EBF9BDE8084000F0E4
:1006C00007B800BF000000000000000000000000AC
:1006D00002F0E6BE00000000000000000000000084
:1006E0004FF08043586A704700000000000000008F
:1006F0004FF080430021022258631961DA6070478D
:100700004FF080430022DA60704700BF0000000015
:100710004FF0804358637047000000000000000065
:10072000F8B51546826804460B46AA4200D2856891
:10073000A1692669761AB54218D30AD82A461846FE
:10074000FFF754FEE268A3682846A2615B1BA36022
:10075000F8BDAF1B32461846FFF748FE3A46304414
:10076000E168FFF743FEE2683A44ECE72A461846A0
:10077000FFF73CFEA2692A44E5E700BF0000000045
:10078000836893422DE9F04104460F4612D28568F2
:10079000D4E90460361AB54212D318D82A4639462D
:1007A000FFF724FEE268A368284662615B1BA36032
:1007B000BDE8F081D4E904601546361AB542ECD2A2
:1007C0002A463946FFF712FE62692A44EBE7A5EB99
:1007D000060832463946FFF709FE4246B919E06875
:1007E000FFF704FEE2684244DDE700BF00000000BE
:1007F00010B40A440024C361019B8460C16010BC32
:1008000002610362C0E90000C0E90511704700BF42
:10081000D0E90532934211D0826810B501325C1CD8
:10082000826044611970D0E904329A4201D3C368EE
:100830004361002103F0A4FD002010BD8268002A5E
:10084000EAD04FF0FF3070470000000000000000C9
:1008500070B5302305460E4683F3118803E003F09C
:1008600077FD002819DBAC6831462846002CF6D00D
:10087000AB68A969013B4A1CAB602B69AA619A422B
:100880000C7801D3EB68AB61EB690BB12846984754
:10089000002383F31188204670BD84F3118870BD56
:1008A0002DE9F04F83B09A46C6693027019287F34D
:1008B0001188CAB183460D46DDF804904FF0000858
:1008C0004A4629465846FFF72BFF0446584694B13E
:1008D00006B1B04788F31188A9EB0409254487F3D2
:1008E0001188B9F1000FEBD10198002383F311882F
:1008F00003B0BDE8F08F514603F02AFD0028DFD099
:10090000019BA3EB0900002383F3118803B0BDE82A
:10091000F08F00BF00000000000000000000000099
:1009200010B4C3618C18019B0461826010BCC1606B
:100930000362C0E90000C0E9051170470000000033
:10094000F8B5302304460F46164683F3118803E0BA
:1009500003F0FEFC002819DBA56831462046002D77
:10096000F6D06269A368511C013B6161A3601770F6
:10097000D4E904329A4201D3E3686361E3690BB1BD
:1009800020469847002080F31188F8BD85F3118830
:10099000F8BD00BF000000000000000000000000E3
:1009A000D0E905239A4210D08268591C013210B553
:1009B000816182601C780369994201D3C3688361B5
:1009C000002103F0DDFC204610BD8268002AEBD038
:1009D0004FF0FF30704700BF000000000000000033
:1009E0002DE9F04F83B09A46C6693027019287F30C
:1009F0001188CAB183460D46DDF804904FF0000817
:100A00004A4629465846FFF7BBFE0446584694B16D
:100A100006B1B04788F31188A9EB0409254487F390
:100A20001188B9F1000FEBD10198002383F31188ED
:100A300003B0BDE8F08F514603F08AFC0028DFD0F8
:100A4000019BA3EB0900002383F3118803B0BDE8E9
:100A5000F08F00BF00000000000000000000000058
:100A600000F0DEBD000000000000000000000000FB
:100A700003460022012118305A611970C3E901228E
:100A8000C3E9032203F0CCBC00000000000000001A
:100A900001F03EBC0000000000000000000000006B
:100AA0000346012100220C3019705A6003F0B8BCD3
:100AB000704700BF000000000000000000000000C0
:100AC00010B53023044683F31188416002F098FB8F
:100AD00002230020237080F3118810BD0000000065
:100AE0004FF0300C08B58CF3118802F011FC002394
:100AF00083F3118808BD00BF000000000000000063
:100B000010B53023044683F3118802F089FC0322D8
:100B10000023227083F3118810BD00BF0000000085
:100B200010B53023044683F3118802F089FC0222B9
:100B30000023227083F3118810BD00BF0000000065
:100B40000C30FFF7ADBE00BF000000000000000049
:100B50004FF0FF330C30FFF7A3BE00BF00000000D2
:100B60003030FFF73DBF00BF000000000000000074
:100B70004FF0FF333030FFF733BF00BF00000000FD
:100B80000C30FFF765BE00BF000000000000000051
:100B90004FF0FF310C30FFF75BBE00BF00000000DC
:100BA0003030FFF7CDBE00BF0000000000000000A5
:100BB0004FF0FF323030FFF7C3BE00BF000000002F
:100BC000012914BF6FF013000020704700000000DF
:100BD00002F0BEBC000000000000000000000000A9
:100BE00003460349012243F8041B02724360704725
:100BF0002C49000800000000000000000000000078
:100C000010B53023044683F3118802F0F1FC02236F
:100C10000020237280F3118810BD00BF0000000087
:100C200038B5436904460D463BB1294604F10C0032
:100C3000FFF7EEFD00280BDB38BD0421084403F06C
:100C4000F7FB294604F10C00FFF7E2FD0028F3DA78
:100C5000201D4FF40061BDE8384003F0E9BB00BF40
:100C600002F036BA000000000000000000000000A2
:100C70000346002201210C301970C3E9012203F060
:100C8000CFBB00BF0000000000000000000000001B
:100C900001F0B6BB000000000000000000000000F2
:100CA00001234022002110B5044600F8303B03F038
:100CB000ABFD0023C4E9013310BD00BF00000000FC
:100CC00070B5022300250446242203702946C0F88B
:100CD00088500C3040F8045C03F096FD204684F800
:100CE000705001F09DFB63681B6823B129462046C4
:100CF000BDE87040184770BD000000000000000013
:100D00000378052B0DD00521426880F88C300170E6
:100D1000136810B504460BB1042198470023A36063
:100D200010BD70470000000000000000000000003F
:100D30000178052900D0704790F88CC0426880F88F
:100D400000C01368002BF6D0184700BF0000000059
:100D500070B590F87030044613B1002380F87030FD
:100D600004F18002204601F0FBFB63689B6853B3EB
:100D70002046984738B3A56F94F88030B4F88620A1
:100D8000AA422CBF2A46A267190600F1DA80002A7F
:100D900000F08D801522302384F8702083F31188B1
:100DA00062892046E36842F001029B696281D4E9CE
:100DB0001D51002419609D6021465C6001F0E0FB3C
:100DC00084F3118870BD94F8803013F060061846E3
:100DD0001CD194F8812003F07F0545EA022540F2FA
:100DE0000232954200F0518140D8B5F5807F00F085
:100DF00008811DD9B5F5817F00F01281B5F5407FDE
:100E000004D194F88230012B00F0D38000212046D9
:100E100001F02EFF0021204601F01AFF63681B68D5
:100E200013B1062120469847062384F8703070BD20
:100E3000012D61D0022D51D194F98430204694F8CF
:100E40008410002B01F00F01C0F2AC8001F068FBB0
:100E5000012800F0AC800228D8D19A490223002250
:100E6000C4E91D13E26794F8803087E7B5F5006F99
:100E700000F0038147D9B5F5106F39D12378042BE1
:100E800000F0A18094F882304BB10421626884F8AC
:100E90008B302170136813B102212046984700233C
:100EA00094F88000C4E91D33E367030663D40B2282
:100EB000302384F8702083F3118822890025E368A9
:100EC000204642F0010229465B6922819D60C3E908
:100ED000005501F0EDFB85F3118870BD002D95D113
:100EE000022204F18801E56761671546A26745E7BC
:100EF00040F60242954289D1022573490022C4E995
:100F00001D15E2673AE7B5F5A06F00F09F80A5F5E3
:100F1000C065012D3FF67AAF61682046B4F8843091
:100F20004D6894F8822094F88310A84700283FF475
:100F30006DAF94F88030D0E90052E667C4E91D2512
:100F40001CE7C2B10922302384F8702083F3118892
:100F500022892046E36842F001025B692281D4E9DC
:100F60001D51002419609D6021465C6001F0A0FBCA
:100F700084F3118870BD1422302384F8702083F329
:100F8000118862890025E368204642F00102294663
:100F90009B6962819D60C3E9005501F0F1FA85F318
:100FA000118870BD01F0CCFA01287FF454AF474995
:100FB00054E7B4F88830E66743F00203C4E91D66DD
:100FC000A4F8883071E7302383F31188A3682022C6
:100FD000314604F1100003F00113A36003F014FC88
:100FE000204601F095FA86F311880321636884F89E
:100FF0008B6021701B68002B3FF444AF204698475C
:1010000040E794F88230012B7FF400AFB4F88830C9
:10101000E66723F00203C4E91D66A4F8883044E7BC
:1010200094F88230002B7FF4F1AE94F8843013F002
:101030000F0106D01E06204639D401F029FE94F88F
:1010400080000023C4E91D33E3672EE7B4F8803045
:10105000B3F5A06FF5D194F88230204684F88A3039
:1010600001F046FA63681B6813B1012120469847D6
:10107000032394F880002370E3E7012204F18B013D
:10108000E6671546C4E91D1278E694F88230002B15
:101090007FF4BCAE94F8843013F00F01D1D01D065C
:1010A000204609D401F0D4FD94F88000C9E701F08E
:1010B000FFFD94F88000C4E701F0DAFD94F88000A9
:1010C000BFE700BF544900085C49000858490008C0
:1010D00038B590F870300446152B27D8DFE803F0B8
:1010E0002726262626262726260B103826262626BD
:1010F000262626262727856FB0F886309D422ED3D8
:101100001422302384F8702083F31188628900252B
:10111000E368204642F0010229469B6962819D6096
:10112000C3E9005501F02CFA85F3118838BD002180
:1011300001F09EFD0021204601F08AFD63681B68D6
:1011400013B1062120469847062384F8703038BD35
:10115000C36F03B19847002384F8703038BDC3686B
:101160001B8AB5FBF3F203FB1255002DC8D13023C7
:1011700083F3118802892946C36842F001025B6942
:1011800002819D60C3E9005501F092FA85F3118850
:101190000A2384F8703038BD000000000000000011
:1011A00038B590F870300446152B21D8DFE803F0ED
:1011B000212020202020212020212121202020202A
:1011C00020202020320B0B22302380F8702083F364
:1011D000118802890025C36842F0010229465B6933
:1011E00002819D60C3E9005501F062FA85F3118820
:1011F00038BD002101F03CFD0021204601F028FD12
:1012000063681B6813B1062120469847062384F8BB
:10121000703038BDC3689B695B68002BE8D1C36F31
:1012200003B19847002384F8703038BD00000000F7
:1012300000F006B800000000000000000000000000
:10124000034B1A781AB90121024A19705A60704783
:101250000004002440410052000000000000000093
:1012600010B5054C204602F0D3FC204602F0E8FC05
:10127000BDE8104003F0E4B9604900080000000038
:101280000A4A09014FEA501C0123C9B200B500F017
:101290001F0E104403FA0EF380F8001302EB8C01CA
:1012A000C1F8803142F82C305DF804FB00E100E029
:1012B00010B5074C204602F0ABFC064802F040FA9D
:1012C000204602F0BDFCBDE8104003F0B9B900BFF4
:1012D000844900085C0700240000000000000000B2
:1012E00010B5074C204602F093FC064802F028FA9D
:1012F000204602F0A5FCBDE8104003F0A1B900BFF4
:1013000078490008BC07002400000000000000002D
:1013100010B5064C204602F07BFC02F0F1F82046A6
:1013200002F08EFCBDE8104003F08AB96C49000859
:1013300008B509217A20FFF7A3FF07211C20FFF73A
:101340009FFF0C212520FFF79BFF0C213520BDE8D6
:101350000840FFF795BF00BF00000000000000003C
:1013600038B5364B00224FF0FF31354CD3F88000B2
:10137000344D60F00040C3F88000D3F8800000F0E6
:101380000040C3F88000D3F88000D3F88400C3F88D
:101390008410D3F88400C3F88420D3F88400D86F75
:1013A0002043D867DC6F28482C40DC67DC6FD3F81B
:1013B00088402043C3F88800D3F88800C0F30A00AF
:1013C000C3F88800D3F88800D3F89000C3F89010D1
:1013D000D3F89000C3F89020D3F89000D3F894008D
:1013E000C3F89410D3F89400C3F89420D3F8940071
:1013F000D3F89800C3F89810D3F89800C3F8982051
:10140000D3F89800D3F88C00C3F88C10D3F88C0074
:10141000C3F88C20D3F88C00D3F89C00C3F89C1040
:10142000D3F89C10C3F89C20D3F89C3000F0C0FA8D
:1014300000F0DEFCBDE83840FFF77ABF00440258F8
:10144000FFEFFF7F0010008000F8FFFF00000000AA
:10145000654B02206549664A10B40124C1F8084171
:10146000D3F8F4100143C3F8F410D3F81C1101436E
:10147000C3F81C11D3F81C31D06053689904FCD513
:101480005C4901235C4C0020116093604FF44043A1
:101490005749D460106193618B699B04FCD50B683C
:1014A000514A43F480730B60136F03F44073B3F538
:1014B000007F04D04FF480310023116713674A493D
:1014C0000B6843F001030B600B685C07FCD500233D
:1014D000454A0B61136913F03803FBD14FF080408C
:1014E000012446491460506045485367D162106139
:1014F00013683D4943F4803313600B689803FCD5AF
:101500000A68394B42F480520A601A689204FCD58A
:1015100000223C483C4944F6F05498625A631963EF
:101520003A49DC633A4899633A495A641864D96283
:1015300019682D4A41F0A8511960136803F0285327
:10154000B3F1285FF9D148244FF4886340204FF469
:1015500080319461D3614FF4E0032F4C10624FF45B
:101560004030D16414652D495365322390650B607A
:101570000B6803F00F03022BFAD11B4A136943F0E7
:1015800003031361136903F03803182BFAD1D2F85F
:10159000DC3010BC43F00053C2F8DC30D2F8043128
:1015A00043F00053C2F80431D2F80431D2F8DC30F1
:1015B00043F08043C2F8DC30D2F8043143F080437A
:1015C000C2F80431D2F80431D2F8DC3043F00043E1
:1015D000C2F8DC30D2F8043143F00043C2F80431E1
:1015E000D2F80431704700BF004402580080005117
:1015F0000048025800C000F0020000010000FF0196
:1016000000881008525090019F0209016112010BDD
:101610001F07050799036B014000001000200052CE
:1016200070B51E4C00261E4D2046FFF721FA1D4ABC
:101630001D4B05211220C4E90A25C4E90C63FFF7FC
:101640001FFE1A4BD3F8D82042F02002C3F8D8204E
:10165000D3F8002142F02002C3F80021D3F8002182
:10166000D3F8802042F02002C3F88020D3F88020F5
:1016700022F02002C3F88020D3F88020AE60D3F897
:10168000D82022F02002C3F8D820D3F8002122F07D
:101690002002C3F80021D3F8003170BD08040024F3
:1016A0000023024000200240162C02000044025891
:1016B000104B98420DD0826A9368590706D59368FB
:1016C00043F0100393609368DB06FCD40023D361DE
:1016D0007047016B0A68136823F01F0313601368D7
:1016E000DB07FCD491F80CC03D234A6803FA0CF3E5
:1016F0001360E0E708040024000000000000000080
:1017000070B5264802F084FA254D264A2E691368E2
:10171000136066B313F0100406D02C78A4F1030410
:10172000B4FA84F464096400180648BF44F0040461
:10173000D90523D59A0544F0080401D544F01004D6
:101740001748FFF7B5FFF3681BB3052221462A703F
:1017500098472B78052B1CD0302383F311884FF04A
:10176000FF31114802F0E4FD002383F311880B4898
:1017700002F066FABDE8704002F062BF9B05DDD45E
:10178000002CDDD1054802F05BFABDE8704002F0A4
:1017900057BF022200232A702B61DDE79049000821
:1017A00008040024002002401C0400240000000063
:1017B0000A4808B502F02CFA094B0A481968426831
:1017C00001F00E0159600AB180689047034802F0A9
:1017D00037FABDE8084002F033BF00BFF049000807
:1017E00000540258400400240000000000000000E3
:1017F0000B4810B502F00CFA0A4B0B481968C26886
:10180000090901F00E010C015C600AB10069904702
:10181000034802F015FABDE8104002F011BF00BF06
:10182000E44900080054025840040024000000006D
:101830000B4810B502F0ECF90A4B0B4819684269E5
:10184000090A01F00E010C025C600AB18069904740
:10185000034802F0F5F9BDE8104002F0F1BE00BF08
:10186000D849000800540258400400240000000039
:101870000B4810B502F0CCF90A4B0B481968C26945
:10188000090B01F00E010C035C600AB1006A90477D
:10189000034802F0D5F9BDE8104002F0D1BE00BF08
:1018A000CC49000800540258400400240000000005
:1018B0000B4810B502F0ACF90A4B0B481968426AA4
:1018C000090C01F00E010C045C600AB1806A9047BB
:1018D000034802F0B5F9BDE8104002F0B1BE00BF08
:1018E000C0490008005402584004002400000000D1
:1018F0000B4810B502F08CF90A4B0B481968C26A04
:10190000090D01F00E010C055C600AB1006B9047F7
:10191000034802F095F9BDE8104002F091BE00BF07
:10192000B44900080054025840040024000000009C
:101930000B4810B502F06CF90A4B0B481968426B62
:10194000090E01F00E010C065C600AB1806B904735
:10195000034802F075F9BDE8104002F071BE00BF07
:10196000A849000800540258400400240000000068
:101970000B4810B502F04CF90A4B0B481968C26BC2
:10198000090F01F00E010C075C600AB1006C904772
:10199000034802F055F9BDE8104002F051BE00BF07
:1019A0009C49000800540258400400240000000034
:1019B0000B4800220B4B0146026003F1A00C0A48C1
:1019C00001E053F8140C143302604A60634541F897
:1019D000082FF6D1054B4FF0FF325A60704700BF19
:1019E00040040024144A00080854025800540258C5
:1019F0000A4808B502F00CF9094B0A481968426810
:101A000001F03D0199600AB180689047034802F0F7
:101A100017F9BDE8084002F013BE00BFF04A000805
:101A200000000240840400240000000000000000C8
:101A30000B4810B502F0ECF80A4B0B481968C26865
:101A4000890901F03D018C019C600AB10069904751
:101A5000034802F0F5F8BDE8104002F0F1BD00BF08
:101A6000E44A000800000240840400240000000052
:101A70000B4810B502F0CCF80A4B0B4819684269C4
:101A8000090C01F03D010C049C600AB1806990478B
:101A9000034802F0D5F8BDE8104002F0D1BD00BF08
:101AA000D84A00080000024084040024000000001E
:101AB0000B4810B502F0ACF80A4B0B481968C26924
:101AC000890D01F03D018C059C600AB1006A9047C8
:101AD000034802F0B5F8BDE8104002F0B1BD00BF08
:101AE000CC4A0008000002408404002400000000EA
:101AF0000A4808B502F08CF8094B0A485968426A4E
:101B000001F03D01D9600AB1806A9047034802F0B4
:101B100097F8BDE8084002F093BD00BFC04A000836
:101B200000000240840400240000000000000000C7
:101B30000B4810B502F06CF80A4B0B485968C26AA2
:101B4000890901F03D018C01DC600AB1006B90470E
:101B5000034802F075F8BDE8104002F071BD00BF07
:101B6000B44A000800000240840400240000000081
:101B70000B4810B502F04CF80A4B0B485968426B01
:101B8000090C01F03D010C04DC600AB1806B904748
:101B9000034802F055F8BDE8104002F051BD00BF07
:101BA000504B0008000002408404002400000000A4
:101BB0000B4810B502F02CF80A4B0B485968C26B61
:101BC000890D01F03D018C05DC600AB1006C904785
:101BD000034802F035F8BDE8104002F031BD00BF07
:101BE000444B000800000240840400240000000070
:101BF0000A4808B502F00CF8094B0A481968426C0B
:101C000001F03D0199600AB1806C9047034802F0F1
:101C100017F8BDE8084002F013BD00BF384B0008BC
:101C200000040240840400240000000000000000C2
:101C30000B4810B501F0ECFF0A4B0B481968C26C59
:101C4000890901F03D018C019C600AB1006D90474B
:101C5000034801F0F5FFBDE8104002F0F1BC00BF01
:101C60002C4B000800040240840400240000000003
:101C70000B4810B501F0CCFF0A4B0B481968426DB8
:101C8000090C01F03D010C049C600AB1806D904785
:101C9000034801F0D5FFBDE8104002F0D1BC00BF01
:101CA000204B0008000402408404002400000000CF
:101CB0000B4810B501F0ACFF0A4B0B481968C26D18
:101CC000890D01F03D018C059C600AB1006E9047C2
:101CD000034801F0B5FFBDE8104002F0B1BC00BF01
:101CE000144B00080004024084040024000000009B
:101CF0000A4808B501F08CFF094B0A485968426E42
:101D000001F03D01D9600AB1806E9047034801F0AF
:101D100097FFBDE8084002F093BC00BF084B0008E5
:101D200000040240840400240000000000000000C1
:101D30000B4810B501F06CFF0A4B0B485968C26E96
:101D4000890901F03D018C01DC600AB1006F904708
:101D5000034801F075FFBDE8104002F071BC00BF00
:101D6000FC4A000800040240840400240000000033
:101D70000B4810B501F04CFF0A4B0B485968426FF5
:101D8000090C01F03D010C04DC600AB1806F904742
:101D9000034801F055FFBDE8104002F051BC00BF00
:101DA000A84A000800040240840400240000000047
:101DB0000B4810B501F02CFF0A4B0B485968C26F55
:101DC000890D01F03D018C05DC6012B1D0F8800076
:101DD0009047034801F034FFBDE8104002F030BCEA
:101DE0009C4A000800040240840400240000000013
:101DF00000220D4830B40D4C13460D4D226001E019
:101E000055F8330004EB830102330260202B4A6053
:101E1000F6D14FF0FF330749074A8B60CB609360E0
:101E2000D36030BC704700BF10000240840400241F
:101E30005C4B00080000024000040240000000006B
:101E4000F8B5122820D8DFE800F00A0A0A0A0A0AC0
:101E50000A0A0A0A0A0A0A0A0A0A6F7479004FF083
:101E6000010C05460CFA00FC374E346814EA0C0FDE
:101E70000DD04FF0010E02E014EA0C0F07D0013034
:101E8000A8420EFA00FCF7D900252846F8BD44EA1E
:101E90000C04346006EBC0062C4CC6E901235FFA43
:101EA0008CF3060104EB001573B1294BD3F8D8006D
:101EB00040F00100C3F8D800D3F8000140F0010061
:101EC000C3F80001D3F800311CF47F4F1CD1A05996
:101ED000036823F01F030360036813F00103FBD1C1
:101EE00034443D26212794F80CC006FA0CF6D4F8A9
:101EF00004C0CCF8006003604761002AC5D0A07B15
:101F0000FFF7BEF92846F8BD114BD3F8D80040F0D2
:101F10000200C3F8D800D3F8000140F00200C3F873
:101F20000001D3F80031D2E74FF0010C0F2500205B
:101F30009AE74FF0010C0725002095E74FF0800C41
:101F40000F25072090E700BF840400245C4B0008A5
:101F500000440258000000000000000000000000E3
:101F600083681960704700BF000000000000000097
:101F7000704700BF000000000000000000000000EB
:101F80002DE9F04F02F00309C2F34114C2F38006B9
:101F9000C2F3C105C2F3C317CE4600224FF00F0BA8
:101FA000A04616E00368072A0AEA030343EA0E0381
:101FB00003604AD8036A23EA040343EA0C0303627A
:101FC000490840D076000132AD004FEA88084FEA58
:101FD0008E0ECB07F4D501244368B9F1020F04FA41
:101FE00002F423EA04034FF0030443EA06034360C8
:101FF0004FEA420304FA03F3846824EA03046FEA15
:10200000030A44EA05048460C46824EA030C02F06D
:1020100007044CEA08034FEA8404C36007FA04FC8F
:102020000BFA04F4BED1072A16D8036A23EA040384
:1020300043EA0C030362036849080AEA030343EA1C
:102040000E030360BED1BDE8F08F436A23EA0403A8
:1020500043EA0C034362B3E7436A23EA040343EA17
:102060000C034362E7E700BF00000000000000002F
:1020700070B5704D7048AB6B9C6901F0C9FDAA6BDF
:1020800004F0FE0314F01001D3614AD120062CD4D1
:10209000610623D52B78032B00F08D80286B016817
:1020A0000B6823F01F030B600B68DB07FCD4047B79
:1020B0003D234168A3400B605368302143F48043C3
:1020C0005360136823F04003136081F311880021EB
:1020D0005A4802F02DF9002383F31188564801F085
:1020E000AFFDBDE8704002F0ABBA2B78032B52D0A5
:1020F0002B6B1B685B68FF2B00F28C801B046868ED
:102100005468806803434E48204003434A480B43C9
:1021100043F48063536001F093FDBDE8704002F02A
:102120008FBA286B01680B6823F01F030B600B68E4
:10213000DC07FCD4047B3D234168A340686B0B6043
:1021400001680B6823F01F030B600C6814F0010496
:10215000FBD141683D23007B83400B605368A96835
:1021600043F4804341F00401A960302153601368B7
:1021700023F04603136081F311886FF001012F48AB
:1021800002F0D6F884F311882B4801F059FDBDE820
:10219000704002F055BA6B6B1B685868FF283ED838
:1021A00000046B6856689C68254B33402343034307
:1021B0000B43536092E7686B01680B6823F01F03C1
:1021C0000B600B6813F00103FBD144683D21007BD9
:1021D00081402160296B0968486800283FF46CAF92
:1021E0004868FF2820D800046C685668A46820431B
:1021F000134C344020430343042043F48063536072
:102200000B6843F001030B605368287043F40053DC
:10221000536063E74FF47F034FF080716FE74FF433
:102220007F004FF08071BCE74FF47F004FF0807368
:10223000DAE700BF08050024684C000824050024E4
:10224000FFFF00FE00000000000000000000000092
:1022500038B52C4C2C48A36B9D6901F0D9FC216B3F
:10226000A36B05F47C52DA610A68136823F01F033C
:1022700013601368DB07FCD4087B3D234A68834066
:10228000616B13600A68136823F01F0313601368FF
:10229000D807FCD4087B3D234A68E90503FA00F31C
:1022A0001360A36844BF43F00103A360AA0502D5ED
:1022B00043F00203A360680519D543F00803E9045D
:1022C000A36002D543F02003A360302383F3118879
:1022D0006FF001010D4802F02BF8002383F3118801
:1022E000094801F0ADFCBDE8384002F0A9B9EA04A4
:1022F000E8D4002BE9D1044801F0A2FCBDE8384045
:1023000002F09EB9080500245C4C00082405002456
:1023100010B50A4C2046FEF7C3FB0023084A0521EE
:102320002120E361A263C4E90C33FEF7A9FF052174
:102330002220BDE81040FEF7A3BF00BF080500241F
:1023400000580040000000000000000000000000F5
:10235000124A0023F0B5D2E924414FF0010E02F1F8
:10236000080C8E685CF8040F03F110020EFA03F1FA
:102370005D1C87690EFA02F227B1D4F81C783A4343
:10238000C4F81C28426922B1D4F81C281143C4F8AF
:102390001C189E422B46E5D1F0BD00BF4405002429
:1023A00070B400224FF0FF348E6800EB421102F14E
:1023B000010CD1F800590B46002D05DAD1F800596F
:1023C00045F08045C1F80059D1F8005B002D05DAD1
:1023D000D1F8005B45F08045C1F8005BB242C3F81C
:1023E00008496246C3F8084BDFD14FF0011370BCB7
:1023F000C0F81C38704700BF00000000000000005B
:1024000010B5044C2046FEF74BFC034A034BC4E9CD
:10241000242310BD4405002400000840A44C0008FB
:10242000F8B52023D0F8905007462B612C6914F0A2
:102430002004FBD112204FF0006601F069FBD7F8B1
:1024400094C04FF001134FF0FF31DCF80800C5F8DD
:102450003448C5F81C3805EB4413844204F10104E8
:10246000C3F80069C3F8006BC3F80819C3F8081B68
:10247000F1D1DCF800301021D7F89020C7F898305F
:102480006B621161146914F01004FBD1122001F089
:102490003FFBD5F80028124B22F4FE621149C5F823
:1024A0000028AA6913430922AB61C5F81028D7F8A0
:1024B0009830C5F81428F9604FF0C0410A4AC5F8B1
:1024C000101B03F1100143F48013C5F8002BC5F86D
:1024D0001049C5F80029C7F89810AB62F8BD00BFD5
:1024E00010000C00804C000840800010000000002C
:1024F000D0F8902090F88A10D2F8003823F4FE63C8
:1025000043EA0113C2F80038704700BF0000000022
:102510000346D0E924010A68C3F89820FFF740BFBA
:102520005831D0F8903049015B5813F4004004D082
:1025300013F4001F0CBF02200120704700000000B0
:102540004831D0F8903049015B5813F4004004D072
:1025500013F4001F0CBF0220012070470000000090
:1025600000EB8100C3681B6A19685B6811605360E7
:10257000704700BF000000000000000000000000E5
:1025800000EB8103DA68936910B41C68DC6009B958
:10259000402C25D8538A1268D0F8900002F0030C22
:1025A0005A1E2244BCF1010FB2FBF3F202FB03F30B
:1025B00003F1030323F0030343EAC24300EB411298
:1025C00043F0C043C2F8103B0DD009B200EB4110FC
:1025D00010BCD0F8003B43F00443C0F8003B704708
:1025E00040241C60D6E7D0F8083800EB411209B24D
:1025F00013F4807FD2F8003B14BF43F0805343F0C4
:102600000053C2F8003BE1E70000000000000000BA
:102610002DE9F041244F0446D7F8906006EB4013B3
:10262000D3F8085B2807C3F8085B03D5D6F814383D
:10263000190731D4EA072DD5D6F81438DB0729D588
:1026400007EB8403D9688A6954B9488A5368B3FB95
:10265000F0F500FB15331BB91068D36898420DD311
:1026600001227B89CD68A24023EA02037B818DB1E0
:1026700021462B460C48BDE8F04118471B1A546010
:102680003021136081F3118807482146FFF778FF56
:1026900084F31188BDE8F08107EB840321463846B6
:1026A000DB685B689847C5E744050024000000002C
:1026B00000EB810310B4DC6862691368D360F3B97E
:1026C000D0F890204FF4002002EB4113C3F810091A
:1026D000236803F00303012B2AD008B202EB401059
:1026E0000123D0F800498B4044F00444C0F800496D
:1026F000D2F8341810BC0B43C2F83438704709B90B
:10270000402B26D8B4F810C0D0F890200CF1FF3040
:102710001844B0FBFCF043EAC04302EB411043F025
:102720000053C0F81039236803F00303012BD4D100
:10273000D2F8083808B213F4807F02EB4113D3F8C3
:10274000004914BF44F0805444F00054C3F80049D9
:10275000C4E740231360D5E700000000000000003C
:102760002DE9F84FDFF8049104464FEA401BD9F8F1
:10277000906006EB4013D3F80859E907C3F80859ED
:1027800003D5D6F81038DA070CD42B0608D54FF04D
:102790000108D6F8343808FA04F813EA080F18D1FB
:1027A000BDE8F88F09EB8003D9684B691868DA68CF
:1027B00090424AD30122B9F808308F68A24023EA38
:1027C0000203A9F80830002FDFD021464846B84759
:1027D000DBE709EB8403DB685E69D6E90075AF428D
:1027E00041D90134D9F890A0B3F81090E4B20AEBC3
:1027F0000B0E0AEB0430A7EB050CDEF81839CC45BC
:102800009BB228BFCC46BCEB830FC9D8B468BCF1DF
:10281000040F236803600BD9ACF10501234621F0B6
:1028200003010431214453F8042F99420260FAD184
:1028300065446444BD42C6E90154DCD3DAF8343857
:1028400023EA0803CAF83438AAE7121A00271A60E4
:102850005F60302383F3118821464846FFF728FF45
:1028600087F3118891E7D9F890A0E7E744050024A1
:102870002DE9F84FB24E4FF04009B24801F0C8F9C7
:10288000D6F890706EE0290500F18E80AA040CD570
:10289000D7F8083813F0060FFB6823F470530CBF09
:1028A00043F4105343F4A053FB602B070ED5746818
:1028B000E368002B00F076813378052B00F07A81F5
:1028C000FFF746FDE3680BB130469847EC0273D43E
:1028D000A80200F1B4802B03D7F818481AD5E003FA
:1028E00000F13C81A10300F13581620300F12E81EA
:1028F000230300F12081E00200F11981A10200F11F
:102900001281620200F10B81230200F10481E001D7
:1029100000F1F98069031AD5E20700F13F81A307AE
:1029200000F13881600700F13181210700F12A812F
:10293000E20600F12381A30600F11C81600600F18C
:102940001581210600F10E81E20500F1E080EB0621
:1029500000F1A2807C4B1D4200F0CE80B9F101094C
:1029600000F0CA807D69BB691D4015F480587D6107
:1029700040F05F81002D86DAD7F8003E980705D039
:10298000D7F8003E23F00303C7F8003EFFF7E0FC52
:10299000D7F80438304623F00103C7F80438FEF7AF
:1029A000C7F929057FF572AFD6E92401FFF7F8FCD6
:1029B0003046FEF7A5F969E70021D6F890B04FF050
:1029C000010A0C4608E00134D6F89430E4B29B6862
:1029D0009C4221463FF67CAF0BEB4412D2F8003903
:1029E00003F44023B3F5802FEDD1D2F80039002B4A
:1029F000E9DAD2F8003943F09043C2F80039D2F84E
:102A00000039002BFBDB8901D6F8902041F0200132
:102A1000116113699906FCD4122001F079F8338909
:102A200006EB84020AFA04F1D26823EA01039268F1
:102A30003381002AC7D0214630469047C3E7D6F8F5
:102A400090A000244FF0010B07E00134D6F8943039
:102A5000E4B29B689C423FF63EAF0AEB4412D2F8C8
:102A6000003B03F44023B3F5802FEED1D2F8003BB6
:102A700006EB84010BFA04F2002BE6DA7389304688
:102A8000D1F80CC0214623EA0203DCF80C20738144
:102A9000002ADAD09047D8E7D6F890100B6A03F4F2
:102AA000F010C3F30A1203F00F03B0F5802F00F00B
:102AB0008C80B0F5402F7FF44DAF06EB8303DB68CD
:102AC000186A002A3FF446AF01F58054002313F042
:102AD000030F014601D1D4F80080072B03F1010355
:102AE00004D801F8018B4FEA182808469A42EED123
:102AF000154B1D427FF432AF124801F0A1F8BDE83A
:102B0000F84F01F09DBD0820FFF782FD02E7082085
:102B1000FFF726FE1BE70720FFF77AFDF7E6062002
:102B2000FFF776FDF0E60520FFF772FDE9E60420E9
:102B3000FFF76EFDE2E60320FFF76AFDDBE600BF6C
:102B400044050024744C0008300000040220FFF704
:102B50005FFDCDE60120FFF75BFDC6E60020FFF735
:102B600057FDBFE60720FFF7FBFDEDE60620FFF768
:102B7000F7FDE6E60520FFF7F3FDDFE60420FFF7AB
:102B8000EFFDD8E60320FFF7EBFDD1E60220FFF7CB
:102B9000E7FDCAE60120FFF7E3FDC3E60020FFF7EB
:102BA000DFFDBCE6BB6923F00803BB613378052B6E
:102BB0007FF486AED7F8003E304623F00303C7F813
:102BC000003EFEF7B5F874687AE6981C06EB8003C1
:102BD0005B68D3F818C0DCE90043A4EB030EDCF813
:102BE0000840D2B101F5805C002313F0030F2146A9
:102BF00001D1DCF800809E4503F1010304D901F8FE
:102C0000018B4FEA18280C469A42EED106EB80035E
:102C10005B68D3F818C0DCE90134724504D214446F
:102C20001A44CCE9012495E674447344CCE9013498
:102C300090E60548FEF744F8044801F001F8BDE8C5
:102C4000F84F01F0FDBC00BF44050024744C00089F
:102C5000D0F8903003EB4111D1F8003B43F400135E
:102C6000C1F8003B704700BF0000000000000000FA
:102C7000D0F8903003EB4111D1F8003943F4001340
:102C8000C1F80039704700BF0000000000000000DC
:102C9000D0F8903003EB4111D1F8003B23F400133E
:102CA000C1F8003B704700BF0000000000000000BA
:102CB000D0F8903003EB4111D1F8003923F4001320
:102CC000C1F80039704700BF00000000000000009C
:102CD0000022124B0A604A60426910B4134040243B
:102CE00042780C6143F440434FF0FF348C618B60B9
:102CF00042B1836910BC23F4C023CB6040F20113BE
:102D00000B6070478269064B10BC134043F00153BF
:102D1000CB6040F201130B60704700BF1F3EFFFF06
:102D2000FFFFB9DF0000000000000000000000000D
:102D300090F8203010B4002B34D0836AD3E90041DE
:102D40000A6822F00F020A60197A0E23426A03FA17
:102D500001F161605468216821F00F012160117A4E
:102D600012688B405360474B98423AD0464B98428A
:102D70004BD0464B98425CD0454B98426DD0454B6A
:102D8000984251D1444BD3F89C2042F02002C3F822
:102D90009C20D3F89C2022F02002C3F89C20D3F87A
:102DA0009C3041E0846A2268136823F01F0313609B
:102DB0001368D907FCD4227B3D23416A93406468A1
:102DC0000A682360136823F01F0313601368DB078E
:102DD000FCD40C7B3D234A68A3401360294B9842E6
:102DE000C4D12D4BC169D3F89820406842F4805279
:102DF00010BCC3F89820D3F8982022F48052C3F86E
:102E00009820D3F89830FFF763BF234BD3F8902076
:102E100042F48042C3F89020D3F8902022F48042FC
:102E2000C3F89020D3F89030C16910BC4068FFF718
:102E30004FBF194BC169D3F89020406842F400425B
:102E400010BCC3F89020D3F8902022F40042C3F8BD
:102E50009020D3F89030FFF73BBF0F4BC169D3F8F8
:102E60009820406842F4801210BCC3F89820D3F830
:102E7000982022F48012C3F89820D3F89830FFF7F6
:102E800027BF00BFF8050024340600247006002484
:102E9000AC060024E80600240044025800000000AC
:102EA00010B5164C164800F0B3FEE269536911697B
:102EB0000B4093615B0606D4114800F0C1FEBDE8EB
:102EC000104001F0BDBB2046FFF732FF63689B68EE
:102ED0000BB120469847302383F311886FF012011D
:102EE000084801F025FA002383F31188044800F014
:102EF000A7FEBDE8104001F0A3BB00BFF805002409
:102F0000E04C000800060024000000000000000063
:102F100010B5164C164800F07BFEE2695369116942
:102F20000B4093615B0606D4114800F089FEBDE8B2
:102F3000104001F085BB2046FFF7FAFE63689B68EE
:102F40000BB120469847302383F311886FF01201AC
:102F5000084801F0EDF9002383F31188044800F0DC
:102F60006FFEBDE8104001F06BBB00BF34060024CB
:102F7000D44C00083C0600240000000000000000C3
:102F800010B5164C164800F043FEE269536911690A
:102F90000B4093615B0606D4114800F051FEBDE87A
:102FA000104001F04DBB2046FFF7C2FE63689B68EE
:102FB0000BB120469847302383F311886FF012013C
:102FC000084801F0B5F9002383F31188044800F0A4
:102FD00037FEBDE8104001F033BB00BF700600248F
:102FE000C84C000878060024000000000000000023
:102FF00010B5164C164800F00BFEE26953691169D2
:103000000B4093615B0606D4114800F019FEBDE841
:10301000104001F015BB2046FFF78AFE63689B68ED
:103020000BB120469847302383F311886FF01201CB
:10303000084801F07DF9002383F31188044800F06B
:10304000FFFDBDE8104001F0FBBA00BFAC06002454
:10305000BC4C0008B4060024000000000000000082
:1030600010B5164C164800F0D3FDE269536911699A
:103070000B4093615B0606D4114800F0E1FDBDE80A
:10308000104001F0DDBA2046FFF752FE63689B68EE
:103090000BB120469847302383F311886FF012015B
:1030A000084801F045F9002383F31188044800F033
:1030B000C7FDBDE8104001F0C3BA00BFE806002418
:1030C000B04C0008F00600240000000000000000E2
:1030D0002DE9F0412D4D0024DFF8B48028462D4F16
:1030E000FDF7C6FD2C4B85F820400A21EB6123201B
:1030F0006C622F63294EC5E90A48294DFEF7C0F8D6
:103100002846FDF7B5FD274B85F820400A21EB61E5
:1031100024206C622F63C5E90A48234DFEF7B0F8FE
:103120002846FDF7A5FD214B0A213320EB6185F8E8
:1031300020406C622F63C5E90A48FEF7A1F83046CB
:10314000FDF796FD1A4D1B4B0A21552086F82040AD
:10315000F36174623763C6E90A48FEF791F82846BE
:10316000FDF786FD0123144941F20A0285F820305B
:1031700041F21803E96156206C620A212B63C5E90C
:103180000A42BDE8F041FEF77BB800BFF805002415
:10319000160001004600010000300140AC0600248A
:1031A000340600240038004070060024003C004033
:1031B000E806002400500140001400580000000000
:1031C00011F00C0F70B50C46054612D1E20605D57C
:1031D0006B68DB6863B1012128469847A30607D5D1
:1031E0006B68DB6823B128460021BDE870401847B2
:1031F00070BD01F06DFAE9E700000000000000007A
:1032000038B503780446012B23D06368E168586918
:103210000A6820F4403022F480320A600A6812F40E
:103220008032FBD1A5680C6824F400340C600C6873
:1032300024F400340C601C692C609C6908604C60AC
:10324000D3E907404FF0FF338C60C8600A618B619F
:1032500038BD294B82689A422FD0284A1368591CDE
:10326000116073B9264BD3F8F02042F40002C3F882
:10327000F020D3F8182142F40002C3F81821D3F843
:10328000183163685B69DA070BD4237C6BBB0820B9
:10329000052123461B4AFEF7D3FD0023C4E9053070
:1032A000B3E7237C23BB092005212346154AFEF7FB
:1032B000C7FD0023C4E90503A7E7134A1368591C97
:1032C000116073B90E4BD3F8F02042F48002C3F8BA
:1032D000F020D3F8182142F48002C3F81821D3F863
:1032E000183163685B69DB0702D410200A21D0E73C
:1032F00010200A21D9E700BF0058014058070024D8
:1033000000440258C13100085407002400000000A6
:103310002DE9F0411F4690463F4B04460E46C762DA
:10332000C0E9091282689A42037C70D0002B0CBF5E
:1033300059215A2163685B69D80731D560690668ED
:10334000336823F01F0333603568EA07FCD4027B3F
:103350003D239340426813601360FEF701FE6369EA
:10336000E2681B681C32A06861689A602A4AC3F848
:103370000C809042496A5F6046D0227C002A14BFCC
:103380004FF480324FF40032114340F21E520A4390
:10339000E2611A601A6842F001021A60BDE8F08129
:1033A000A06905682B6823F01F032B602A68D307E8
:1033B000FCD4027B3D239340426813601360FEF708
:1033C000CFFDA369E2681B681C32A06861689A603F
:1033D000114ADE609042496A5F6012D0227C002A66
:1033E00014BF4FF480324FF40032114340F25E526A
:1033F0000A4322621A601A6842F001021A60BDE8AC
:10340000F0814FF48032F0E74FF48032BCE7002BBC
:103410000CBF572158218DE70058014000000000E3
:10342000C268136823F4403343F400331360136815
:1034300043F4803313607047000000000000000078
:10344000C268136823F4803313601368D903FCD473
:103450001368416923F40033136071B10A6813687B
:1034600023F01F0313601368DB07FCD491F80CC032
:103470003D234A6803FA0CF31360816961B10A685D
:10348000136823F01F0313601368DB07FCD4087B69
:103490003D234A6883401360704700BF000000006E
:1034A000124A4FF080430021D2F8E80040F00100BA
:1034B00030B4C2F8E80044F61F65D2F810010C4C95
:1034C00040F00100C2F810010120D2F81021E26B97
:1034D0000243E2634FF0FF329D62DA629961596301
:1034E000D96059605861186030BC70470044025878
:1034F0000010005C00000000000000000000000060
:103500004FF0804208B51169D3680B40D9B29B07D0
:103510006FEA0101116100D408BD302383F31188E3
:1035200000F0EEFA002383F3118808BD00000000CC
:10353000024A136843F0C003136070470010014053
:10354000024A136843F0C003136070470050004004
:1035500070B5194D82B0194C2846194EFDF740FB45
:1035600005F10C000023102216490095FDF740F9E3
:103570001022154905F13000144B0095FDF7D0F9E4
:10358000134B2046C5E91536FDF72AFB04F10C0064
:10359000002310220F490094FDF72AF90E4B102248
:1035A0000E4904F130000094FDF7BAF90C4BC4E960
:1035B000153602B070BD00BF5C070024BC070024B4
:1035C00000E1F5051C0800243C0800243135000802
:1035D000001001402C080024413500084C0800244C
:1035E000005000400000000000000000000000004B
:1035F0002DE9F041002936D0037A40F22D16D1E9A9
:1036000000C2D1E90275012B46EA02064FEA5C03CB
:1036100047F0400745F0010502F4004E02F48061D6
:1036200045D0846D2344446DB3FBFCF3BEF1000F21
:1036300005D023F0070C03F0070343EA4C03E360D3
:103640004FF0FF336760A5602660236209B312F074
:1036500010224AD0B2F1805F14BFFF233F2380F8CD
:103660005C30BDE8F081057A012D17D0836D4024D0
:103670002C4903F59643426DA1FB031340F22D1133
:103680001B0BD3600123546093604FF0FF33116034
:103690001362FF2380F85C30BDE8F08140F22D1604
:1036A00040278E460A464FF496434FF4164C1E4C64
:1036B000A0421FD01D4CA042B3D11D4CD4F8E880CD
:1036C00048F48018C4F8E880D4F8108148F48018D1
:1036D000C4F81081D4F81041846D2344446DB3FBC9
:1036E000FCF3BEF1000FA4D1A9E77F2380F85C3082
:1036F000BDE8F0810E4CD4F8F08048F01008C4F812
:10370000F080D4F8188148F01008C4F81881D4F873
:103710001841846D2344446DB3FBFCF3BEF1000FEC
:1037200087D18CE7B5814E1B5C070024BC070024C1
:1037300000440258000000000000000000000000EB
:103740002DE9F047456D0646EC6922072C6256D1FB
:10375000E20548D4A00610D54FF03008002788F3C2
:1037600011886B6A304696F85C101940FDF758FADC
:1037700087F31188EC69A306F1D4D5F800A01AF0FC
:10378000800F1DD021061BD506F1300830274FF0E1
:10379000000905E0A86289F31188EC6922060FD5BB
:1037A00087F311884046FDF7FBF80028F2DA08217C
:1037B000301D00F03DFE2AF0800A002383F31188BB
:1037C0001AF0400F0BD0630609D5302383F311881C
:1037D000D6E911239A422DD0002383F31188C5F82E
:1037E00000A0BDE8F087302383F311884FF4806197
:1037F000301D00F01DFE002383F31188AAE7C4F3F7
:10380000C001E3074FF030034FEA012148BF41F008
:103810002001A70748BF41F04001600748BF41F0C1
:10382000800183F31188301D00F002FE002383F332
:1038300011888DE7B36B002BCED01021301D2AF0FC
:10384000400A00F0F5FDC7E700000000000000009E
:103850006F4A40F2FF700023D2F88810014330B461
:10386000C2F888106B4CD2F888106B4D0C406B4935
:10387000C2F88840D2F88840D2F8E0400443C2F849
:10388000E040D2F8084104436548C2F8084180246A
:10389000D2F808214FF4C0424B608D60CB604A6182
:1038A0000A22604D0A62604A4A62604A0A604FF426
:1038B000406242605E4A82604FF4A002C26002F53C
:1038C000B312446102625B4A42625B4A02605B4837
:1038D000C1F80438C1F808084FF48030584AC1F8DC
:1038E0000C084FF40060C1F814084FF00610C1F83E
:1038F0002038C1F824085348C1F800084020524934
:10390000536091601021D16050495061116250495B
:1039100051625049116002F580624F4953609160D5
:103920000421D36051614D4911624FF0CC31516295
:1039300001F15E41A1F50811A1F6F241116048497B
:10394000C2F80434C2F80814C2F80C34C2F81404E3
:103950004448C2F820546FF4D575C2F82404A0F18D
:1039600009504149A0F50930284444F6F045C2F811
:10397000000402F540623D484B6088604FF480606F
:10398000CB6048613A4808623A484862A0F1D55095
:10399000A0F5D410A0F27250086053609560D36017
:1039A0005461354C35481462354D364C53621460C1
:1039B0004FF0FF3443608560A5F1AB45C360A5F5CA
:1039C000DD154361A5F67C7505622F4D43620560E8
:1039D000C1F8043CC1F8083CC1F80C3CC1F8143CE7
:1039E000C1F8203CC1F8243CC1F8004CC2F8043CAA
:1039F000C2F8083CC2F80C3CC2F8143CC2F8203CA7
:103A0000C2F8243CC2F8004C30BCFDF721BD00BF19
:103A10000044025800F8FFFF1714FD3F0000025851
:103A200000040258CCCCCC5070A70A00D6D7A8EA24
:103A3000C04FF0FF004488CCBF7AAFAA0000430714
:103A4000000C0258FFFF7EF23FD07FF0CC06005002
:103A5000CC0C00CCEA9F6AAF1FC0FFFFCC0000C0B7
:103A6000FFDFDFFF55C0CCCC001802583F1FDFFF3F
:103A7000CC0CCC005C5055C500CCC00000200258D6
:103A8000CCFF4500AF7BFFFFBBAA71FF0000000029
:103A9000704700BF000000000000000000000000B0
:103AA00030B587B0114D00230122684604242A70E6
:103AB000C5E9013300F074FC684600F081FC6846FB
:103AC00000F086FC013CF7D1009BAB6000F0E0FC0D
:103AD00000F026FD00F044FD0549064800F028FBF3
:103AE00002232B7084F3118807B030BD201200240C
:103AF000F04C0008600800240000000000000000F6
:103B000000F096B900000000000000000000000076
:103B1000034A516853685B1A9842FBD8704700BF4C
:103B2000001000E0000000000000000000000000A5
:103B3000024A536B03435363704700BF600800247D
:103B400038B50C4CD4F88C50FCF7CAFDD4F88C3046
:103B500004F50961084A686050681A6860F31F221A
:103B600043F8102B04F190028B4228BF1346C4F88F
:103B70008C3038BD60080024001000E00000000018
:103B800002460749002342F8081B426000EB03127B
:103B90000133117A802B6FF302011172F6D1704755
:103BA000FFFF800000000000000000000000000097
:103BB000094BB3F88820D20700D5704790F824202D
:103BC00010B4D3F88C40D30043F00103C4E90201E0
:103BD000237010BCFFF7B4BF600800240000000091
:103BE0000A4BB3F88820920700D5704710B491F8BB
:103BF0002420D3F88C40D300896A43F00203C4E93F
:103C00000201237010BCFFF79BBF00BF60080024B7
:103C10000A4AB2F8883010B513F0040400D010BD81
:103C2000302383F311880321D2F88C301970986007
:103C3000FFF786FF84F3118810BD00BF60080024E1
:103C40000A4AB2F8883010B513F0040400D010BD51
:103C5000302383F311880421D2F88C3019709860D6
:103C6000FFF76EFF84F3118810BD00BF60080024C9
:103C7000F8B51446144D03460E4605F11002022C09
:103C8000E9614FF00207846038BF022442602A696C
:103C90000260506008192B61FCF72AFDFCF720FD3B
:103CA000821B0346A24207D2022F00D8F8BD012092
:103CB000BDE8F840FFF73CBF7C1C301927461E4684
:103CC000FCF726FDEAE700BF6008002400000000C2
:103CD0002DE9F843DFF89C9007460E46FCF700FDFF
:103CE0004B46804653F8105F9D4237D0D9F81C40B0
:103CF000AB68041B341928BF3446A34215D89C4234
:103D000004D92D68E41AAB68A342FAD36B684FF06C
:103D1000FF32BC60C7E900531F60AB686F601B1BBC
:103D2000AB60C9F81820BDE8F883022E4FF00205F9
:103D300038BF022608EB0600FCF7EAFCFCF7D0FCD3
:103D4000A0EB0808464510D9022D03D8D9F8105029
:103D5000AB68D4E70120FFF7EBFEF7E732460146F8
:103D60003846BDE8F843FFF783BF013580462E464D
:103D7000E0E700BF60080024000000000000000031
:103D800003610023C2604361FFF7A2BF000000008F
:103D900070B5234C236998420DD00368D0E9012106
:103DA00013605A609A680A4400219A604FF0FF330A
:103DB0000160A36170BD02682346002143F8102F03
:103DC0005360016022699A4221D0936881680B4454
:103DD0009360FCF785FCE56923690446421B9B68F8
:103DE0009342E7D91D4402262D1AB54238BF354605
:103DF0006019FCF78DFCFCF773FC041BA5420AD983
:103E0000022ED7D90120BDE87040FFF791BEBDE872
:103E10007040FCF775BC013604463546E8E700BF44
:103E20006008002400000000000000000000000006
:103E30002DE9F84F3C4E00274FF0300906F11008ED
:103E400009E087F31188D4E903312046984789F3C4
:103E500011886369ABB93469FCF742FCF369054624
:103E6000A268C11A8A422CD89D18D4E90010F561C5
:103E700001604860276033694345E2D1FCF740FCAC
:103E8000DFE7FCF72DFC6369A0EB050B82465B4581
:103E90002FD3316941453DD08A68934204D90968DE
:103EA0009B1A8A689A42FAD34A68A360C4E900124E
:103EB00014608A684C60D21A4FF0FF338A60B36195
:103EC000C9E73169414512D013440227F0611B1A3A
:103ED000BB421E46A36038BF3E46A819FCF718FC3B
:103EE000FCF7FEFB451BAE4210D9022F09D8BDE8F6
:103EF000F88F0220FFF71CFE3169414512D05B4666
:103F0000CAE70120BDE8F84FFFF712BE01370546AA
:103F10003E46E2E72B441A1A51462046BDE8F84FC8
:103F2000FFF7A6BE0022F7E76008002400000000AB
:103F300010B530230C4683F3118891F824300C2BF4
:103F400010D8DFE803F02B0F0F270B070F0B0F0F15
:103F50000F0F0B008A6A936801339360D4E9003233
:103F600013605A604FF0FF312046A162FFF720FE38
:103F70000022A369A16884F824201B689A688A42F9
:103F8000FBD25A6800212360626014605C6081F398
:103F9000118810BD8B6A00221A60E3E7002383F3C7
:103FA000118810BD000000000000000000000000AB
:103FB00010B50446816AFFF7FBFD0022A369A168E2
:103FC00084F824201B689A688A42FBD25A682046EB
:103FD0002360626014605C6010BD00BF00000000E0
:103FE00038B50B4B01211C68DD6885F8240020469C
:103FF000226853601A6084F824102946DC60FFF7B9
:10400000EFFD29462046BDE83840FCF7D9B900BF8E
:104010006008002400000000000000000000000014
:10402000F0B54B1C1C4C87B00546E6681FD03346E4
:104030001A4A6846FFF7A4FEE768012287F8245071
:10404000394625682B6828465C6085F82420236063
:10405000E560FFF7C5FD39462846FCF7B1F9009B3E
:1040600013B16846FFF794FEB06A07B0F0BD276849
:10407000012286F8240031463B6838465C6087F8A8
:1040800024202360E760FFF7ABFD38463146FCF79C
:1040900097F9B06A07B0F0BD60080024313F00080E
:1040A000044B1A68DB6890689B68984294BF0020B4
:1040B000012070476008002400000000000000009C
:1040C00038B5134B01211D68DC682A68204653600F
:1040D0001A6085F82410A16ADD60FFF769FD0022EF
:1040E000A369A16884F824201B689A688A42FBD8D7
:1040F0005A68214623602846626014605C60FFF7BE
:104100006FFD21462846BDE83840FCF759B900BF8D
:104110006008002400000000000000000000000013
:10412000FEE700BF000000000000000000000000EB
:1041300070B5214B0025044686B081630E460563A9
:10414000586000F04DFA04F1100304F12802A56054
:104150006563C4E904334FF0FF33C4E90A22C4E9BC
:104160000635C4E90044FCF7BBFA2B46024604F1CD
:104170008800C4E90823C4F88450FFF701FD04F166
:104180003C0180230D4A204600F022F8012203461C
:10419000716803926846E36083F82420084A196234
:1041A0000092084B05950493D6E90312CDE901125C
:1041B00000F076F806B070BD201200240C4D000807
:1041C000044D00082141000800000000000000002C
:1041D00010B400248B60CA6101F110028C63886105
:1041E000C1E90F43022401238C8400F1280481F8E3
:1041F0002630C36AC1E904431A6001F12C0401F1BD
:104200003003C26208464B63C1E90B4310BC7047E0
:1042100070B5D0E90234456800211D4A4FF0020E06
:1042200043F8285C4FF0010C05691A4E43F86C5CAA
:10423000456943F84C6C43F8685C0568A3F13800A5
:1042400003F8231C03F824EC03F822CC43F8404C79
:1042500043F8084CD46A43F82C5CA3F16C0543F88E
:10426000344C43F83C5C02F1280543F8302C43F809
:10427000385C43E904112060A3F11801A3F11C0488
:10428000D062A3F1480043F8141C43E9074170BD14
:1042900060080024D10300080000000000000000B6
:1042A00008B5FFF7B5FFBDE80840FFF781BE00BFC6
:1042B00038B5302383F31188124BDC6804F12C05E8
:1042C000E36AA0629D4207D194F8263083B10F20A3
:1042D000BDE83840FFF784BE1A681846E262FFF76F
:1042E00067FEE36AAB42F7D194F82630002BEED19B
:1042F00094F825309B07EAD1D4E9043213605A6060
:10430000E5E700BF60080024000000000000000096
:1043100008B50146302383F311880820FFF780FE9B
:10432000002383F3118808BD000000000000000096
:104330000346006820B100221A608162FFF738BE90
:10434000704700BF000000000000000000000000F7
:10435000084AD26851B1034610B444681060042082
:104360005460226010BC5A60FFF75ABE4FF0FF3015
:10437000704700BF6008002400000000000000003B
:1043800003460068834205D002681A605360816268
:10439000FFF70EBE704700BF0000000000000000E5
:1043A00030B40023002400254FF0FF32C0E904455B
:1043B000C0E9002330BCC0E90233704700000000B0
:1043C000014B5B6883607047001000E00000000054
:1043D0000E4A0F4B81685B6810B4946802691B1B1E
:1043E000C4685B1A41690134D218026141F10001CD
:1043F000426841619342026888BF43609342C0E9CA
:10440000023438BF036010BC704700BF2012002484
:10441000001000E0000000000000000000000000AC
:104420000023C0E900008360704700BF0000000067
:10443000F8B50468A04221D007460D46002604E0E6
:104440000B2A1CD02468A74218D0E3682B43E360F2
:1044500015B123691D42F5D0D4E90103816B90F8B1
:1044600024200B430A2A8363EAD1826A1342E9D0EB
:104470008662FFF79DFD2468A742E6D1F8BD826AF7
:104480009A43DFD1F4E700BF000000000000000005
:10449000024B0349034AC3E9001270472C1200245F
:1044A000A812002400000824000000000000000002
:1044B000084B494210B45C68201A08401968821AF7
:1044C0008A4204D3A24202D810BC5A60704700202E
:1044D00010BC70472C1200240000000000000000F7
:1044E000302310B483F311880B4B49425C68201AC7
:1044F00008401968821A8A4207D3944205D35A6049
:10450000002383F3118810BC70470020002383F33D
:10451000118810BC704700BF2C120024000000005E
:10452000044B0022044903F10C009A60C3E9001215
:10453000FFF776BF34120024E144000800000000B9
:1045400010B40024C0E90223C0E9004110BC704748
:104550000022FFF7ADBF00BF000000000000000018
:1045600038B5124C124D2046FFF75AFF04F11001E6
:104570002B460422216114216018FFF7E1FF04F1AA
:10458000240004F128012B460422C4E909011C215E
:1045900004F12C00FFF7D4FF04F13C0104F14002C8
:1045A00004F14403C4E90F12636438BD50120024BF
:1045B000514500080000000000000000000000005D
:1045C000EFF30983203383F30988002383F31188F1
:1045D000704700BF00000000000000000000000065
:1045E0004FF0300C00B58CF3118862B60E4B4FF6CD
:1045F000FF0E0E49D8680E4A00EA0E0001430D482E
:10460000D960D3F8FC1041F08071C3F8FC10C2F8F7
:10461000B00F2020116841F001011160D87783F8B4
:1046200022C05DF804FB00BF00ED00E00003FA05C6
:10463000001000E055CEACC50000000000000000F6
:10464000302383F311880D4B5B6813F4006302D1B0
:1046500083F31188704710B5EFF309844FF080732E
:10466000203CE36184F30988FFF71AFD10B1044B85
:10467000A36110BD034BA36110BD00BF00ED00E0BE
:10468000E3030008E603000800000000000000004B
:1046900049B10A490A4A0B6801330B60536983F038
:1046A0008003536170470749054A0B6801330B606B
:1046B000536983F480735361704700BF9C120024D8
:1046C000001C0258A412002400000000000000009A
:1046D000024A136801331360704700BF9812002428
:1046E00080B5FBF7D5FF3A4CFFF7DAF939493A487C
:1046F0004FF48075FCF784FA4FF0FF3319223749E5
:104700003748FCF76DF94FF0FF3314223549344830
:10471000FCF766F940F21A5220213348FDF730FCCD
:1047200040F21A5280213048FDF72AFC40F21A521A
:1047300040212D48FDF724FC204601228021FDF771
:104740001FFC204601224FF48071FDF719FC8023E5
:104750004FF48062002163832448658300F054F89D
:10476000234824490446FCF7ABF92B4600221F4995
:104770002046FCF7B5F9204F2046194DFCF7C0F94B
:104780004FF0FF330D221D491548FCF729F94CF273
:104790005030FFF7BDFD2046FCF7C2F9E1684FF04D
:1047A000FF330D224E69284615493E60FCF718F983
:1047B00042F21070FFF7ACFD2046FCF7A1F94FF074
:1047C000FF330F220F492846FCF70AF9DFE700BF45
:1047D000001C0258C04D00085C070024384D00083A
:1047E0008C070024544D00080020025800000024CB
:1047F00024070024984D0008A0120024684D0008EA
:10480000784D0008884D0008830730B548D0541E05
:10481000002A3FD0CAB2034601E0013C3AD303F874
:10482000012B9D07F9D1032C2DD9CDB245EA0525E1
:104830000F2C45EA054536D9A4F1100222F00F0CE1
:1048400003F1200EE6444FEA121C03F1100242E984
:10485000045542E9025510327245F8D10CF10102BB
:1048600014F00C0F03EB021204F00F0C13D0ACF198
:10487000040323F003030433134442F8045B93421C
:10488000FBD10CF003042CB1C9B21C4403F8011B8A
:104890009C42FBD130BD64461346002CF4D1F9E7AD
:0C48A00003461446BFE71A46A446E0E7B2
:1048AC00D0510008A8120024A8120024A812002439
:1048BC00D051000800000030000000300000003033
:1048CC00D051000800000030000000300000003023
:1048DC00D051000800000430000004300000043007
:1048EC00D0510008000000380000003800000038EB
:1048FC00D05100080008002000080020000800200B
:10490C00D051000800000000000000000000000072
:10491C00D05100080000803800008038000080383A
:10492C0000000000710B0008510B0008B10B0008CF
:10493C00910B0008A10B0008810B0008610B00080B
:10494C00410B0008C10B0008000000000100000032
:10495C0000000000566563746F7231303000000047
:10496C00566563746F7242300000000056656374C4
:10497C006F72313134000000566563746F724434C9
:10498C0000000000566563746F7238380000000038
:10499C00566563746F72323630000000566563746E
:1049AC006F72323543000000566563746F72323596
:1049BC0038000000566563746F72323534000000A5
:1049CC00566563746F72323530000000566563743F
:1049DC006F72323443000000566563746F72323468
:1049EC0038000000566563746F7232343400000076
:1049FC000054025808540258000000000058025895
:104A0C0000810000005402581C540258040000009D
:104A1C0004580258018200000054025830540258C5
:104A2C000800000008580258028300000054025885
:104A3C00445402580C0000000C5802580384000027
:104A4C0000540258585402581000000010580258D4
:104A5C0004850000005402586C54025814000000E5
:104A6C00145802580586000000540258805402580D
:104A7C00180000001858025806870000005402580D
:104A8C00945402581C0000001C580258078800005F
:104A9C00566563746F723135380000005665637467
:104AAC006F72313534000000566563746F723830A4
:104ABC0000000000566563746F72374300000000FD
:104ACC00566563746F723738000000005665637466
:104ADC006F72373400000000566563746F723730A4
:104AEC0000000000566563746F72364300000000CE
:104AFC00566563746F72313530000000566563740F
:104B0C006F72313330000000566563746F7231324E
:104B1C0043000000566563746F7231323800000038
:104B2C00566563746F7231323400000056656374DD
:104B3C006F72313230000000566563746F724643F9
:104B4C0000000000566563746F723834000000007A
:104B5C0010000240080002400008024000000B0058
:104B6C0028000240080002400408024006010C0024
:104B7C0040000240080002400808024010020D00EC
:104B8C0058000240080002400C08024016030E00B8
:104B9C00700002400C0002401008024000040F009C
:104BAC00880002400C000240140802400605100068
:104BBC00A00002400C000240180802401006110030
:104BCC00B80002400C0002401C08024016072F00DF
:104BDC00100402400804024020080240000838007B
:104BEC002804024008040240240802400609390047
:104BFC00400402400804024028080240100A3A000F
:104C0C0058040240080402402C080240160B3B00DA
:104C1C00700402400C04024030080240000C3C00BE
:104C2C00880402400C04024034080240060D440083
:104C3C00A00402400C04024038080240100E45004B
:104C4C00B80402400C0402403C080240160F460017
:104C5C00566563746F7243380000000056656374C8
:104C6C006F72433400000000566563746F723144F8
:104C7C003400000000000000510D0008D1100008A5
:104C8C00A111000840004000E0050024E0050024CC
:104C9C0001000000F005002480000000400100002D
:104CAC0008000000566563746F72313938000000DB
:104CBC00566563746F723139340000005665637445
:104CCC006F72313043000000566563746F7244306C
:104CDC0000000000566563746F72434300000000CF
:104CEC0063300000EC4C00080000000000000000E5
:104CFC00F01000242012002469646C650000000090
:104D0C006D61696E002C0538040448080C10141CE5
:104D1C0020242526000000000000240401000400CB
:104D2C0000000000000C0010283034000D0A534124
:104D3C0049204C4C44206272696E672D757020744A
:104D4C006573740D0A00000056657269667920530C
:104D5C00414932412070696E730D0A00534149205C
:104D6C00737461727465640D0A000000534149202C
:104D7C0073746F707065640D0A0000005341492014
:104D8C007265737461727465640D0A00000000240E
:104D9C000000000000010000914600080000000027
:104DAC00E0000800020000003F1F0000800103002B
:104DBC000050000000C201000000000000000000D4
:044DCC0000000000E3
:104DD00000000000000000000000000000000000D3
:104DE00000000000000000000000000000000000C3
:104DF00000000000000000000000000000000000B3
:104E000000000000000000000000000000000000A2
:04000005080003B933
:00000001FF
