:020000040800F2
:1000000000040020B9030008BB030008BB0300087C
:10001000BB030008BB030008BB030008BB030008C8
:10002000BB030008BB030008BB030008314E0008F7
:10003000BB030008BB030008BB030008BB030008A8
:10004000BB030008BB030008BB030008BB03000898
:10005000BB030008BB030008BB030008BB03000888
:10006000BB030008BB030008BB030008BB03000878
:10007000BB030008BB030008BB030008BB03000868
:10008000BB030008BB030008BB030008BB03000858
:10009000BB030008BB030008BB030008BB03000848
:1000A000BB030008BB030008BB030008BB03000838
:1000B00071110008BB030008BB030008BB03000864
:1000C000BB030008BB030008BB030008BB03000818
:1000D000BB030008BB030008BB0300084111000874
:1000E000BB030008BB030008BB030008BB030008F8
:1000F000BB030008BB030008BB030008BB030008E8
:10010000BB03000811110008BB030008BB03000873
:10011000BB030008BB030008BB030008BB030008C7
:10012000BB030008BB030008BB030008BB030008B7
:10013000BB030008BB030008BB030008BB030008A7
:10014000BB030008BB030008BB030008BB03000897
:10015000BB030008BB030008BB030008BB03000887
:10016000BB030008BB030008BB030008BB03000877
:10017000BB030008BB030008BB030008BB03000867
:10018000BB030008BB030008BB030008BB03000857
:10019000BB030008BB030008BB030008BB03000847
:1001A000BB030008BB030008BB030008BB03000837
:1001B000BB030008BB030008BB030008BB03000827
:1001C000BB030008BB030008BB030008BB03000817
:1001D000BB030008BB030008BB030008BB03000807
:1001E000BB030008BB030008BB030008BB030008F7
:1001F000BB030008BB030008BB030008BB030008E7
:10020000BB030008BB030008BB030008BB030008D6
:10021000BB030008BB030008BB030008BB030008C6
:10022000BB030008BB030008BB030008BB030008B6
:10023000BB030008BB030008BB030008BB030008A6
:10024000BB030008BB030008BB030008BB03000896
:10025000BB030008BB030008BB030008BB03000886
:10026000BB030008BB030008BB030008BB03000876
:10027000BB030008BB030008BB030008BB03000866
:10028000BB030008BB030008BB030008BB03000856
:10029000BB030008BB030008BB030008BB03000846
:1002A000BB030008BB030008BB030008BB03000836
:1002B000BB030008BB030008BB030008BB03000826
:1002C000BB030008BB030008BB030008BB03000816
:1002D000BB030008BB030008BB030008BB03000806
:1002E00072B6264880F30888254880F30988254897
:1002F00025490860022080F31488BFF36F8F00F057
:100300000FF901F02DFE4FF0553020491B4A914264
:100310003CBF41F8040BFAE71D49194A91423CBF22
:1003200041F8040BFAE71B491B4A1C4B9A423EBF9B
:1003300051F8040B42F8040BF8E700201849194A59
:1003400091423CBF41F8040BFAE700F039F900F0A4
:1003500027F9154C154DAC4203DA54F8041B8847B5
:10036000F9E70AF0A5FF124C124DAC4203DA54F83B
:10037000041B8847F9E700F01BB9000000040020C7
:10038000000800200000000808ED00E00000002048
:100390000004002058DC000800000024DC000024D9
:1003A000E0000024181F0024E0020008E00200081A
:1003B000E0020008E002000892E700F000F8FEE723
:1003C0002DE9F04FC1F80CD0D0F80CD0BDE8F08F7B
:1003D000002383F311882846A047002002F048FC40
:1003E000FEE702F095FA00DFFEE70000844641EAEE
:1003F000000313F003036DD1403A41D351F8043B9D
:1004000040F8043B51F8043B40F8043B51F8043BEE
:1004100040F8043B51F8043B40F8043B51F8043BDE
:1004200040F8043B51F8043B40F8043B51F8043BCE
:1004300040F8043B51F8043B40F8043B51F8043BBE
:1004400040F8043B51F8043B40F8043B51F8043BAE
:1004500040F8043B51F8043B40F8043B51F8043B9E
:1004600040F8043B51F8043B40F8043B51F8043B8E
:1004700040F8043B51F8043B40F8043B403ABDD2FD
:10048000303211D351F8043B40F8043B51F8043B9F
:1004900040F8043B51F8043B40F8043B51F8043B5E
:1004A00040F8043B103AEDD20C3205D351F8043B2E
:1004B00040F8043B043AF9D2043208D0D2071CBFFA
:1004C00011F8013B00F8013B01D30B880380604623
:1004D000704700BF082A13D38B078DD010F0030399
:1004E0008AD0C3F10403D21ADB071CBF11F8013B09
:1004F00000F8013B80D331F8023B20F8023B7BE758
:10050000043AD9D3013A11F8013B00F8013BF9D282
:100510000B7803704B7843708B788370604670471C
:1005200010B5BFF34F8FBFF36F8F1C480022C0F888
:100530005022BFF34F8FBFF36F8F436943F40033F3
:100540004361BFF34F8FBFF36F8FC0F88420BFF3B9
:100550004F8FD0F8803043F6E074C3F34E3CC3F3C2
:10056000C90E4FEA4C1C0CEA0401734641EA83723F
:10057000013BC0F860225A1CF8D1ACF1200C1CF1F0
:10058000200FF0D1BFF34F8F436943F480334361B1
:10059000BFF34F8FBFF36F8F10BD00BF00ED00E0C2
:1005A000704700BF000000000000000000000000D5
:1005B000FEE700BF00000000000000000000000097
:1005C000F8B52B4D2B4F2C4905F170042B482C4AC4
:1005D00088420DD2043A034652F8046F43F8046B84
:1005E0008B42F9D34B1E1B1A23F003030433184428
:1005F000B84207D2013F00213F1A27F0030204321C
:100600000AF0BAFEA54205D0D5E90420D5E90617BF
:100610001035DDE71B480023C0F88430BFF34F8F4F
:10062000D0F8805043F6E076C5F34E34C5F3C905E3
:10063000640104EA06012B4641EA8372013BC0F8DB
:100640006C225A1CF8D1203C14F1200FF1D1BFF3D9
:100650004F8FBFF36F8FBFF34F8FBFF36F8F0023A9
:10066000C0F85032BFF34F8FBFF36F8FF8BD00BF9C
:10067000A8B40008181F0024181F0024181F002405
:1006800034DD000800ED00E0000000000000000084
:1006900008B500F095FD00F00BFF00F0D9FC00F06C
:1006A00077FC01F065FDBDE8084000F001B800BF2F
:1006B00001F0CEBA000000000000000000000000C1
:1006C0004FF08043586A70470000000000000000AF
:1006D0004FF080430021022258631961DA607047AD
:1006E0004FF080430022DA60704700BF0000000036
:1006F0004FF0804358637047000000000000000086
:10070000F8B51546826804460B46AA4200D28568B1
:10071000A1692669761AB54218D30AD82A4618461E
:10072000FFF764FEE268A3682846A2615B1BA36032
:10073000F8BDAF1B32461846FFF758FE3A46304424
:10074000E168FFF753FEE2683A44ECE72A461846B0
:10075000FFF74CFEA2692A44E5E700BF0000000055
:10076000836893422DE9F04104460F4612D2856812
:10077000D4E90460361AB54212D318D82A4639464D
:10078000FFF734FEE268A368284662615B1BA36042
:10079000BDE8F081D4E904601546361AB542ECD2C2
:1007A0002A463946FFF722FE62692A44EBE7A5EBA9
:1007B000060832463946FFF719FE4246B919E06885
:1007C000FFF714FEE2684244DDE700BF00000000CE
:1007D00010B40A440024C361019B8460C16010BC52
:1007E00002610362C0E90000C0E90511704700BF63
:1007F000D0E90532934211D0826810B501325C1CF9
:10080000826044611970D0E904329A4201D3C3680E
:100810004361002102F03CFB002010BD8268002AE9
:10082000EAD04FF0FF3070470000000000000000E9
:1008300070B5302305460E4683F3118803E002F0BD
:100840000FFB002819DBAC6831462846002CF6D097
:10085000AB68A969013B4A1CAB602B69AA619A424B
:100860000C7801D3EB68AB61EB690BB12846984774
:10087000002383F31188204670BD84F3118870BD76
:100880002DE9F04F83B09A46C6693027019287F36D
:100890001188CAB183460D46DDF804904FF0000878
:1008A0004A4629465846FFF72BFF0446584694B15E
:1008B00006B1B04788F31188A9EB0409254487F3F2
:1008C0001188B9F1000FEBD10198002383F311884F
:1008D00003B0BDE8F08F514602F0C2FA0028DFD025
:1008E000019BA3EB0900002383F3118803B0BDE84B
:1008F000F08F00BF000000000000000000000000BA
:1009000010B4C3618C18019B0461826010BCC1608B
:100910000362C0E90000C0E9051170470000000053
:10092000F8B5302304460F46164683F3118803E0DA
:1009300002F096FA002819DBA56831462046002D02
:10094000F6D06269A368511C013B6161A360177016
:10095000D4E904329A4201D3E3686361E3690BB1DD
:1009600020469847002080F31188F8BD85F3118850
:10097000F8BD00BF00000000000000000000000003
:10098000D0E905239A4210D08268591C013210B573
:10099000816182601C780369994201D3C3688361D5
:1009A000002102F075FA204610BD8268002AEBD0C3
:1009B0004FF0FF30704700BF000000000000000053
:1009C0002DE9F04F83B09A46C6693027019287F32C
:1009D0001188CAB183460D46DDF804904FF0000837
:1009E0004A4629465846FFF7BBFE0446584694B18E
:1009F00006B1B04788F31188A9EB0409254487F3B1
:100A00001188B9F1000FEBD10198002383F311880D
:100A100003B0BDE8F08F514602F022FA0028DFD083
:100A2000019BA3EB0900002383F3118803B0BDE809
:100A3000F08F00BF00000000000000000000000078
:100A400001F01F0C012349090CF1010CB1EB521FFD
:100A500003FA0CF310B503F1FF334FEA521402F01E
:100A60001F0E05D850F82400184020FA0EF010BDD3
:100A700050F8211050F8242003EA0100CEF12001A3
:100A800022FA0EF38840184310BD00BF000000009A
:100A9000C3689B0F08D08368C288180400F47C10D8
:100AA0001043013080027047826840F6FC73416851
:100AB00003EA8200C2F30342C1F3C23340EA9170F9
:100AC000093A02330130984090407047000000001E
:100AD00090F8D63090F8D7101B0490F8D42090F8F6
:100AE000D50003EB0163134403EB0020704700BF04
:100AF0000379052B06D1826A4FF400730020C1E907
:100B00000032704701207047000000000000000024
:100B100070B5124E82B004460D4611E000F000FEA2
:100B200003460A20BBB9019AC2F343213242A1F124
:100B300005020FD104290ED0022A0BD802F030F999
:100B400001AB0D212046A26B002DE7D100F0D0FDB6
:100B50000346E6E70123184602B070BD08E0FFFD3A
:100B600003F1FF3C10B58C44D0F828E00446F4456E
:100B700005D9436B012043F08003636310BD4FF040
:100B8000060C80F804C000F0FBFF0523237110BDA4
:100B900003F1FF3C10B58C44D0F828E00446F4453E
:100BA00005D9436B012043F08003636310BD4FF010
:100BB000070C80F804C001F00BF80523237110BD69
:100BC00038B50579052D01D0012038BD082304462C
:100BD000037101F025F8257138BD00BF0000000049
:100BE00038B5302383F311880379022B10D0042207
:100BF00004460023027183F311880121FFF788FF67
:100C00000546204600F044FD02232846237138BDE6
:100C1000002585F31188284638BD00BF000000007C
:100C200003232DE9F041037184B0044600F0C8FCB1
:100C300000222046114600F04BFD03AB4FF4D57265
:100C40000821204600F06CFDE8B9039B0122C3F3A4
:100C500003232263934209D02046012500F018FDAA
:100C600002232846237104B0BDE8F081024603AB9D
:100C70003721204600F054FD0028EDD1039AA64B01
:100C800013408BB1E8E703AB00223721204600F088
:100C900047FD002835D1039B9F4A1A408ABB114665
:100CA0002046226300F014FD236B03F00F03022B98
:100CB00029D09A4F64259A4ADFF85C82012B18BF2D
:100CC000174610E0039E16EA080FC5D100F010FD8C
:100CD00003466420002BBFD1039B002B28DB013D82
:100CE000BAD002F05DF803AB00223721204600F0B5
:100CF00017FD064603AB3A4629212046002EE1D0D7
:100D0000AAE7022323636425864E06E0039B002B9B
:100D10000EDB013DA0D002F043F803AB32460121C7
:100D2000204600F0E5FC03466420002BEED093E75C
:100D30005A0003D5236B43F01003236304F1080327
:100D400000220221204600F003FD002884D1024643
:100D500004F138030321204600F0E2FC00287FF470
:100D60007BAF04F11806A26B09212046334600F040
:100D7000EFFC00287FF470AF02ABA26B0721204686
:100D800000F0CEFC054600287FF466AF236B03F02D
:100D90000F03022B65D07E227F213046E76BFFF7E1
:100DA0004FFE70B10623402239462046009500F0E0
:100DB000EFFC00287FF450AFBB895BBA9B0700F1C2
:100DC00094800021204600F023FC00212046FFF7FC
:100DD0009FFE054600287FF43FAF236B03F00F030F
:100DE000022B6BD03046FFF753FEA06202AB4FF4EC
:100DF00000721021204600F093FC054600287FF485
:100E00002BAF029B444E33427FF426AF236B13F08B
:100E10000E0F03F00F0233D1E36A1978F9B10129FB
:100E20007FF41AAF204600F03BFC03ABA26B3721E6
:100E3000204600F075FC00287FF40EAF039B334280
:100E40007FF40AAF03AB02220621204600F068FCC3
:100E500000287FF401AF039B33427FF4FDAE0523EE
:100E6000FFE603AB304A0621204600F059FC00287B
:100E7000A7D1039B28491940B1FA81F14909A1E79B
:100E8000022A7FF4E9AEE36A1978012941D00229E8
:100E90003DD00029E3D0254E204600F001FC03ABF5
:100EA00032460621204600F03BFC00287FF4D4AEF9
:100EB000039A194B1340002BD1D0CDE67E227F211F
:100EC0003046FFF7BDFD01288CD9E66B08234FF4AF
:100ED000007220463146009500F05AFC00287FF44D
:100EE000BBAE3046FFF7F4FD7FE7114B4022394699
:100EF00020460093062300F04BFC00287FF4ACAEA4
:100F0000397C01F00F010F3918BF01215AE7094E52
:100F1000C2E7094EC0E700BF08E0FFFD0080FF50B8
:100F2000000010800080FFC00001B9030000B7037B
:100F3000F1FFFF800002B7030001B70300000000CB
:100F400030B5104D83B0044603E0022A16D801F0F4
:100F500027FF01ABA26B0D21204600F0E1FB034609
:100F60000A2043B9019AC2F343212A42A1F10502A2
:100F700004D10429E9D1184603B030BD0123184635
:100F800003B030BD08E0FFFD0000000000000000DD
:100F900000F0F6BA000000000000000000000000B1
:100FA000002304490122016002714363C0E90A334E
:100FB000704700BF28B500080000000000000000D6
:100FC0000C30FFF75DBC00BF000000000000000017
:100FD0004FF0FF330C30FFF753BC00BF00000000A0
:100FE0003030FFF7EDBC00BF000000000000000043
:100FF0004FF0FF333030FFF7E3BC00BF00000000CC
:101000000C30FFF715BC00BF00000000000000001E
:101010004FF0FF310C30FFF70BBC00BF00000000A9
:101020003030FFF77DBC00BF000000000000000072
:101030004FF0FF323030FFF773BC00BF00000000FC
:10104000012914BF6FF0130000207047000000005A
:1010500000F04EBE00000000000000000000000094
:1010600003460349012243F8041B027243607047A0
:101070004CB5000800000000000000000000000067
:1010800010B53023044683F3118800F059FE022383
:101090000020237280F3118810BD00BF0000000003
:1010A00038B5436904460D463BB1294604F10C00AE
:1010B000FFF79EFB00280BDB38BD0421084402F03B
:1010C000E7FA294604F10C00FFF792FB0028F3DA57
:1010D000201D4FF40061BDE8384002F0D9BA00BFCE
:1010E0000A4A09014FEA501C0123C9B200B500F0B9
:1010F0001F0E104403FA0EF380F8001302EB8C016C
:10110000C1F8803142F82C305DF804FB00E100E0CA
:1011100010B5074C204601F053F9064800F088FD51
:10112000204601F065F9BDE8104003F0C1BE00BFE4
:101130008CB50008E0000024000000000000000062
:1011400010B5074C204601F03BF9064800F080FE40
:10115000204601F04DF9BDE8104003F0A9BE00BFE4
:1011600080B50008300100240000000000000000ED
:1011700010B5064C204601F023F900F099FD2046F9
:1011800001F036F9BDE8104003F092BE74B50008D6
:1011900008B509217A20FFF7A3FF09213120FFF7C5
:1011A0009FFF07211C20FFF79BFF0C212720BDE894
:1011B0000840FFF795BF00BF0000000000000000DE
:1011C000344B4FF0FF310022D3F8800060F0004034
:1011D00030B4C3F88000D3F880002F4C00F00040FA
:1011E0002E4DC3F88000D3F88000D3F88400C3F8F4
:1011F0008410D3F88400C3F88420D3F88400D86F17
:101200002043D867DC6F26482C40DC67DC6FD3F8BE
:1012100088402043C3F88800D3F88800C0F30A0050
:10122000C3F88800D3F88800D3F89000C3F8901072
:10123000D3F89000C3F89020D3F89000D3F894002E
:10124000C3F89410D3F89400C3F89420D3F8940012
:10125000D3F89800C3F89810D3F89800C3F89820F2
:10126000D3F89800D3F88C00C3F88C10D3F88C0016
:10127000C3F88C20D3F88C00D3F89C00C3F89C10E2
:10128000D3F89C10C3F89C20D3F89C3030BCFFF7F7
:101290007FBF00BF00440258FFEFFF7F00100080B7
:1012A00000F8FFFF00000000000000000000000048
:1012B0006F4B02206F49704A10B40124C1F80841F5
:1012C000D3F8F4100143C3F8F410D3F81C11014310
:1012D000C3F81C11D3F81C31D06053689C04FCD5B2
:1012E00066490123664C0020116093604FF440432F
:1012F0006149D460106193618B699804FCD50B68D7
:101300005B4A43F480730B60136F03F44073B3F5CF
:10131000807F04D04FF48031002311671367544A53
:10132000136F43F019031367136F9907FCD5136804
:101330004F4943F0010313600B685B07FCD50023A2
:101340004B4A0B61136913F03803FBD14FF0804116
:1013500001244C48146051604B495367D0621161BD
:101360001368434843F4A023136003689C03FCD52F
:1013700003683F4943F4805303600B689804FCD52D
:101380000B683B4A43F080030B601368D905FCD51A
:10139000516F374B41F0010151675A6F9207FCD5ED
:1013A00000223A483A4998623A4C5A633A481963DB
:1013B0003A49DA639C635A641864D96219682C4A02
:1013C00041F0A8511960136803F02853B3F1285F66
:1013D000F9D148244FF488614020002394614FF4F0
:1013E0008014D1614FF0005110623220D1642C4939
:1013F00013655465936508600B6803F00F03022BB7
:10140000FAD11B4A136943F003031361136903F014
:101410003803182BFAD1D2F8DC3010BC43F000535B
:10142000C2F8DC30D2F8043143F00053C2F8043182
:10143000D2F80431D2F8DC3043F08043C2F8DC301B
:10144000D2F8043143F08043C2F80431D2F80431B9
:10145000D2F8DC3043F00043C2F8DC30D2F804317B
:1014600043F00043C2F80431D2F80431704700BFA2
:1014700000440258008000510048025800C000F0AB
:10148000020000010000FF010088100842404000F7
:101490008F030F078F4F07078F0F07075505FF01B2
:1014A00000200052000000000000000000000000CA
:1014B000704700BF000000000000000000000000B6
:1014C00001F001038A0748BF43F002034A0748BFFF
:1014D00043F008030A0748BF43F00403CA0648BFA5
:1014E00043F010038A06426B48BF43F020031A43BF
:1014F0004263704700000000000000000000000090
:10150000F8B5302305460F46164683F31188446C20
:10151000E36BA3B900232365E363E362606B10F41C
:10152000807008D04FF0FF32A26383F31188012F3F
:101530000CD81846F8BD80F311880120F8BD4FF093
:10154000FF31403001F05CFC6C6CE3E76A6C41F207
:101550000C119360D160516B11F04503FBD0936384
:1015600011F0050303D1526918463260F8BD2846D0
:10157000FFF7A6FF0120F8BD0000000000000000FA
:1015800010B5074C2046FFF70BFD064B002006491F
:10159000064AA164E263C4E91003054BE36410BD8D
:1015A000E00000240070005280F0FA0200000430D5
:1015B00000020430000000000000000000000000F5
:1015C0000D4BD0E9112110B4994212D90B4BC46ACA
:1015D0000B440B4861681B0AA0FB030301EB1313C8
:1015E00053606420136810BC43F00303136001F0E0
:1015F000D7BBC36A5B68F3E7801A0600FF340C00B0
:10160000598B4F01000000000000000000000000A6
:101610000129164B816C30B4446C17D0144A6568AC
:10162000914203EA05030ED9124AC56A0A441248D8
:101630006968A0FB020201EB1262134343F480537A
:10164000636030BC7047C26A5268F6E70B4A65684F
:10165000914203EA0503F6D9094AC56A0A440648D5
:101660006968A0FB020201EB5262E6E700ECFFFFB3
:1016700040787D017FF0FA02893BE65580F0FA025E
:10168000FFE0F50500000000000000000000000081
:101690000022436C5A601A60704700BF00000000CF
:1016A000426C0129536823F4404307D0022901D03A
:1016B00011B1704743F400435360704743F48043D3
:1016C00053607047000000000000000000000000B0
:1016D000406C41F480518260C160436B1B06FCD5B5
:1016E00080238363704700BF0000000000000000FB
:1016F00010B541F48851446CA260E160616B11F057
:101700004502FBD0A26311F0040203D161691046C7
:10171000196010BDFFF7D4FE012010BD00000000CD
:1017200010B541F48851446CA260E160616B11F026
:101730004502FBD0A26311F0050203D16169104696
:10174000196010BDFFF7BCFE012010BD00000000B5
:1017500010B541F49851446CA260E160616B11F0E6
:101760004502FBD0A26311F03F0209D1216A104665
:101770001960E2695A60A2699A606269DA6010BD14
:10178000FFF79EFE012010BD0000000000000000D9
:101790002DE9F843164698460F4637490546D0E9E5
:1017A00011245368C3F3090301335B00B4FBF3F462
:1017B000A1FB041442F21073A40903FB04F4546265
:1017C000FFF7BEFB00282ED16C6C012248F4885331
:1017D0008146A76522654FF0FF32E86CA2634FF4A3
:1017E0009572E26342F20702A662E262089AA26080
:1017F000E360616B11F04503FBD011F0050FA363AB
:1018000029D162691D4B0260134073B1616B0023E3
:101810004FF001092846A1632365E362FFF750FEFC
:101820004846BDE8F8836C6CF0E7302383F31188F9
:101830006B6CDA6BBAB900221A65DA63DA62596B3B
:1018400011F480710BD04FF0FF31996382F311884E
:101850004846BDE8F8832846FFF732FED6E781F315
:1018600011886C6CD2E74FF0FF3105F1400001F0B8
:10187000C7FA6B6CDFE700BFD34D621008E0FFFDD5
:101880002DE9F84316469846DFF860C10D4642F24E
:1018900010710746D0E911245368C3F309030133DB
:1018A0005B00B4FBF3F4ACFB04C4A40901FB04F437
:1018B0005462FFF745FB814610B14846BDE8F88306
:1018C0007C6C0123A66523654FF0FF33FE6CA36398
:1018D0004FF49573E3634FEA4823A3623B6BDB0647
:1018E00058BF6D02B8F1010FA56024D941F212135F
:1018F000E360616B11F04503FBD011F0050FA363AA
:101900003FD163693A4D33601D40002D3CD142F216
:101910009303324641463846E362FFF7F1FD002863
:10192000CBD07C6C3846FE6C616BA1632565E562AB
:10193000FFF7C6FD30E041F21113E360616B11F077
:101940004503FBD011F0050FA36339D16369284D1E
:1019500033601D40002D36D142F29303324641469A
:101960003846E362FFF7CCFD03460028A5D07A6C29
:1019700038469946516B91631565D562FFF7A0FD16
:101980009BE73846FFF79CFD616B00233846A16357
:101990002365E362FFF794FD002241F20C13A2607D
:1019A000E360616B11F04503FBD011F0050FA363F9
:1019B00016D163694FF0010933604846BDE8F883EA
:1019C0003846FFF77DFD616B00234FF00109384673
:1019D000A1632365E362FFF773FD4846BDE8F88322
:1019E00038464FF00109FFF76BFD66E7D34D6210F3
:1019F00008E0FFFD00000000000000000000000003
:101A00002DE9F84316469846DFF860C10D4642F2CC
:101A100010710746D0E911245368C3F30903013359
:101A20005B00B4FBF3F4ACFB04C4A40901FB04F4B5
:101A30005462FFF785FA814610B14846BDE8F88345
:101A40007C6C0123A66523654FF0FF33FE6CA36316
:101A50004FF48D73E3634FEA4823A3623B6BDB06CD
:101A600058BF6D02B8F1010FA56024D941F21913D6
:101A7000E360616B11F04503FBD011F0050FA36328
:101A80003FD163693A4D33601D40002D3CD142F295
:101A90009103324641463846E362FFF731FD0028A4
:101AA000CBD07C6C3846FE6C616BA1632565E5622A
:101AB000FFF706FD30E041F21813E360616B11F0AF
:101AC0004503FBD011F0050FA36339D16369284D9D
:101AD00033601D40002D36D142F29103324641461B
:101AE0003846E362FFF70CFD03460028A5D07A6C68
:101AF00038469946516B91631565D562FFF7E0FC56
:101B00009BE73846FFF7DCFC616B00233846A16396
:101B10002365E362FFF7D4FC002241F20C13A260BC
:101B2000E360616B11F04503FBD011F0050FA36377
:101B300016D163694FF0010933604846BDE8F88368
:101B40003846FFF7BDFC616B00234FF001093846B2
:101B5000A1632365E362FFF7B3FC4846BDE8F88361
:101B600038464FF00109FFF7ABFC66E7D34D621032
:101B700008E0FFFD00000000000000000000000081
:101B800012F0030F22D02DE9F0411F46D3B10646D3
:101B900015460C460F4404E0F16BFEF727FCA74204
:101BA00010D021460123F26B3046FFF769FE4FF457
:101BB00000720346013428461544002BECD0184629
:101BC000BDE8F08100231846BDE8F081FFF758BE5C
:101BD00012F0030F1FD02DE9F0411F46C3B1064696
:101BE00015460C460F4401E0A74211D04FF4007295
:101BF0002946F06B1544FEF7F9FB21460123F26BF1
:101C000030460134FFF7FCFE0028EDD0BDE8F0813E
:101C10000020BDE8F081FFF7F3BE00BF0000000028
:101C200000207047000000000000000000000000DD
:101C3000302310B583F311880024436C40302146D3
:101C4000DC6301F0EDF884F3118810BD00000000A2
:101C5000124A4FF080430021D2F8E80040F0010022
:101C600030B4C2F8E80044F61F65D2F810010C4CFD
:101C700040F00100C2F810010120D2F81021E26BFF
:101C80000243E2634FF0FF329D62DA629961596369
:101C9000D96059605861186030BC704700440258E0
:101CA0000010005C000000000000000000000000C8
:101CB0004FF0804208B51169D3680B40D9B29B0739
:101CC0006FEA0101116100D408BD302383F311884C
:101CD00000F0DEFA002383F3118808BD0000000045
:101CE000024A136843F0C003136070470048004085
:101CF00010B50D4C82B02046FFF7B2F904F10C008C
:101D00000023102209490094FEF762FD084B1022BF
:101D1000084904F130000094FEF7F2FD064A074B33
:101D2000C4E9152302B010BD300100249001002445
:101D3000E11C0008A00100240048004000E1F50576
:101D40002DE9F041002936D0037A40F22D16D1E971
:101D500000C2D1E90275012B46EA02064FEA5C0394
:101D600047F0400745F0010502F4004E02F480619F
:101D700045D0846D2344446DB3FBFCF3BEF1000FEA
:101D800005D023F0070C03F0070343EA4C03E3609C
:101D90004FF0FF336760A5602660236209B312F03D
:101DA000102247D0B2F1805F14BFFF233F2380F899
:101DB0005C30BDE8F081057A012D17D0836D402499
:101DC0001F4903F59643426DA1FB031340F22D1109
:101DD0001B0BD3600123546093604FF0FF331160FD
:101DE0001362FF2380F85C30BDE8F08140F22D16CD
:101DF00040278E460A464FF496434FF4164C114C3A
:101E0000A042B6D1104CD4F8E88048F48028C4F839
:101E1000E880D4F8108148F48028C4F81081D4F800
:101E20001041846D2344446DB3FBFCF3BEF1000FFD
:101E3000A7D1ACE77F2380F85C30BDE8F08100BF1C
:101E4000B5814E1B30010024004402580000000000
:101E50002DE9F047456D0646EC6922072C6256D104
:101E6000E20548D4A00610D54FF03008002788F3CB
:101E700011886B6A304696F85C101940FFF710F92C
:101E800087F31188EC69A306F1D4D5F800A01AF005
:101E9000800F1DD021061BD506F1300830274FF0EA
:101EA000000905E0A86289F31188EC6922060FD5C4
:101EB00087F311884046FEF763FD0028F2DA082117
:101EC000301D01F0E5FB2AF0800A002383F311881E
:101ED0001AF0400F0BD0630609D5302383F3118825
:101EE000D6E911239A422DD0002383F31188C5F837
:101EF00000A0BDE8F087302383F311884FF48061A0
:101F0000301D01F0C5FB002383F31188AAE7C4F359
:101F1000C001E3074FF030034FEA012148BF41F011
:101F20002001A70748BF41F04001600748BF41F0CA
:101F3000800183F31188301D01F0AAFB002383F395
:101F400011888DE7B36B002BCED01021301D2AF005
:101F5000400A01F09DFBC7E7000000000000000000
:101F60005C4A40F2FF715C480023DFF870C12DE944
:101F7000F043D2F888404FF05538594D0C43DFF804
:101F800064E1DFF86491C2F88840D2F88840574F86
:101F90002040574C574EC2F88800D2F88800D2F83B
:101FA000E0000843C2F8E000D2F8080108434FF609
:101FB000FF71C2F80801D2F808214F4A6360A5609A
:101FC000E2604E4A616122624D4A4E4862624E4A68
:101FD0004E4D22604E4C4360846004F115644D4ABE
:101FE00004F58A2404F29144C4604BF67E74446183
:101FF0004FF4300403624462474C04604748536026
:1020000090604748474CD06047485161106240F6A5
:102010000820536210604FF47022CEF80430CEF8DE
:102020000820CEF80C904FF07709CEF81410CEF8B7
:102030002030CEF824904FF420293C48CEF8009070
:10204000CCF80430CCF80830CCF80C80CCF8141064
:10205000CCF82030CCF82430CCF800307B60BB606A
:10206000C7F80C8079613B627B623B604FF04C6744
:102070007360B7602E4F2F4AF7604FF6BF777761D6
:102080002D4F336277622D4F37600F266B60AE6045
:102090002B4EEE6069612B626B622B606360A36004
:1020A000C4F80C80616123626362236043608360D3
:1020B000C0F80C8041610362436203605360936027
:1020C000C2F80C805161136253621360BDE8F043A3
:1020D000FFF7EEB80044025800F8FFFF0010025866
:1020E0003CC0FFFF000C02585555505500140258D3
:1020F000000002580018025851550040B00B00B0C3
:102100000AAA0A00000402582880AEAA001C02583D
:10211000C3C0003C00080258814000180C0F000C9E
:102120005150550100200258B000BB000024025855
:10213000550515510028025800B0B0000010800865
:102140005055555500000000000000000000000040
:1021500001207047000000000000000000000000A7
:102160000020704700000000000000000000000098
:10217000704700BF000000000000000000000000E9
:1021800030B587B0114D00230122684604242A701F
:10219000C5E9013300F09CFE684600F0A9FE6846E0
:1021A00000F0AEFE013CF7D1009BAB6001F0C8FD32
:1021B00001F00EFE02F0F4FA0549064800F020FC9A
:1021C00002232B7084F3118807B030BD700B0024FC
:1021D0009CB50008B00100240000000000000000D1
:1021E000C20710B410D5264C2268A2423ED000236C
:1021F00012680133A242FBD15168914233D0496841
:10220000013BA142FBD173BB830712D51C4CA446F2
:102210005CF8102F62452ED000231268013362450E
:10222000FBD1616991421ED04968013B6145FBD1F8
:10223000CBB910F0040014D0114C0020224652F803
:10224000283F934203D01B6801309342FBD1E36ADD
:10225000934203D05B6801389342FBD1003818BF2A
:10226000012010BC7047012010BC70476168A1427A
:10227000CAD00023C3E761696145DAD00023D3E700
:10228000B001002400000000000000000000000079
:1022900000F0A6B9000000000000000000000000EF
:1022A000EFF3118020B9EFF30583302383F3118816
:1022B000704700BF000000000000000000000000A8
:1022C00040B910B5EFF30584C4F308041CB180F3E2
:1022D000118810BD704700F04BFB84F3118810BDCE
:1022E000024A536B03435363704700BFB00100249D
:1022F00038B50C4CD4F88C50FEF7E2F9D4F88C3099
:1023000004F50961084A686050681A6860F31F2282
:1023100043F8102B04F190028B4228BF1346C4F8F7
:102320008C3038BDB0010024001000E00000000037
:1023300002460749002342F8081B426000EB0312E3
:102340000133117A802B6FF302011172F6D17047BD
:10235000FFFF8000000000000000000000000000FF
:10236000094BB3F88820D20700D5704790F8242095
:1023700010B4D3F88C40D30043F00103C4E9020148
:10238000237010BCFFF7B4BFB001002400000000B0
:102390000A4BB3F88820920700D5704710B491F823
:1023A0002420D3F88C40D300896A43F00203C4E9A7
:1023B0000201237010BCFFF79BBF00BFB0010024D7
:1023C0000A4AB2F8883010B513F0040400D010BDEA
:1023D000302383F311880321D2F88C301970986070
:1023E000FFF786FF84F3118810BD00BFB001002401
:1023F0000A4AB2F8883010B513F0040400D010BDBA
:10240000302383F311880421D2F88C30197098603E
:10241000FFF76EFF84F3118810BD00BFB0010024E8
:10242000F8B51446144D03460E4605F11002022C71
:10243000E9614FF00207846038BF022442602A69D4
:102440000260506008192B61FEF742F9FEF738F977
:10245000821B0346A24207D2022F00D8F8BD0120FA
:10246000BDE8F840FFF73CBF7C1C301927461E46EC
:10247000FEF73EF9EAE700BFB001002400000000CB
:102480002DE9F843DFF89C9007460E46FEF718F951
:102490004B46804653F8105F9D4237D0D9F81C4018
:1024A000AB68041B341928BF3446A34215D89C429C
:1024B00004D92D68E41AAB68A342FAD36B684FF0D5
:1024C000FF32BC60C7E900531F60AB686F601B1B25
:1024D000AB60C9F81820BDE8F883022E4FF0020562
:1024E00038BF022608EB0600FEF702F9FEF7E8F80F
:1024F000A0EB0808464510D9022D03D8D9F8105092
:10250000AB68D4E70120FFF7EBFEF7E73246014660
:102510003846BDE8F843FFF783BF013580462E46B5
:10252000E0E700BFB0010024000000000000000050
:1025300003610023C2604361FFF7A2BF00000000F7
:1025400070B5234C236998420DD00368D0E901216E
:1025500013605A609A680A4400219A604FF0FF3372
:102560000160A36170BD02682346002143F8102F6B
:102570005360016022699A4221D0936881680B44BC
:102580009360FEF79DF8E56923690446421B9B684A
:102590009342E7D91D4402262D1AB54238BF35466D
:1025A0006019FEF7A5F8FEF78BF8041BA5420AD9BF
:1025B000022ED7D90120BDE87040FFF791BEBDE8DB
:1025C0007040FEF78DB8013604463546E8E700BF97
:1025D000B001002400000000000000000000000026
:1025E0002DE9F84F3C4E00274FF0300906F1100856
:1025F00009E087F31188D4E903312046984789F32D
:1026000011886369ABB93469FEF75AF8F369054676
:10261000A268C11A8A422CD89D18D4E90010F5612D
:1026200001604860276033694345E2D1FEF758F8FE
:10263000DFE7FEF745F86369A0EB050B82465B45D3
:102640002FD3316941453DD08A68934204D9096846
:102650009B1A8A689A42FAD34A68A360C4E90012B6
:1026600014608A684C60D21A4FF0FF338A60B361FD
:10267000C9E73169414512D013440227F0611B1AA2
:10268000BB421E46A36038BF3E46A819FEF730F88D
:10269000FEF716F8451BAE4210D9022F09D8BDE847
:1026A000F88F0220FFF71CFE3169414512D05B46CE
:1026B000CAE70120BDE8F84FFFF712BE0137054613
:1026C0003E46E2E72B441A1A51462046BDE8F84F31
:1026D000FFF7A6BE0022F7E7B001002400000000CB
:1026E00038B5FDF7EDFF054AD2E90845031B181977
:1026F00045F10001C2E9080138BD00BFB001002466
:1027000010B530230C4683F3118891F824300C2B3C
:1027100010D8DFE803F02B0F0F270B070F0B0F0F5D
:102720000F0F0B008A6A936801339360D4E900327B
:1027300013605A604FF0FF312046A162FFF710FE90
:102740000022A369A16884F824201B689A688A4241
:10275000FBD25A6800212360626014605C6081F3E0
:10276000118810BD8B6A00221A60E3E7002383F30F
:10277000118810BD000000000000000000000000F3
:1027800010B50446816AFFF7EBFD0022A369A1683A
:1027900084F824201B689A688A42FBD25A68204633
:1027A0002360626014605C6010BD00BF0000000028
:1027B00038B50B4B01211C68DD6885F824002046E4
:1027C000226853601A6084F824102946DC60FFF701
:1027D000DFFD29462046BDE83840FDF7F1BD00BFCA
:1027E000B001002400000000000000000000000014
:1027F000F0B54B1C1C4C87B00546E6681FD033462D
:102800001A4A6846FFF794FEE768012287F82450C9
:10281000394625682B6828465C6085F824202360AB
:10282000E560FFF7B5FD39462846FDF7C9FD009B79
:1028300013B16846FFF784FEB06A07B0F0BD2768A1
:10284000012286F8240031463B6838465C6087F8F0
:1028500024202360E760FFF79BFD38463146FDF7F3
:10286000AFFDB06A07B0F0BDB00100240127000839
:1028700070B51C4E05468268F4688162A3689A426E
:102880001FD9A16A2046FFF76BFD0022A369A1684A
:1028900084F824201B689A688A42FBD85A6821462B
:1028A0002846C4E90032146001225C6085F82420C7
:1028B000F560FFF76DFD21462846BDE87040FDF745
:1028C0007FBDFFF74DFD0022AB69A96885F8242084
:1028D0001B689A688A42FBD25A68C5E900321560C3
:1028E0005D6070BDB0010024000000000000000029
:1028F000044B1A68DB6890689B68984294BF00207C
:1029000001207047B001002400000000000000001A
:1029100038B5134B01211D68DC682A6820465360D6
:102920001A6085F82410A16ADD60FFF719FD002206
:10293000A369A16884F824201B689A688A42FBD89E
:102940005A68214623602846626014605C60FFF785
:102950001FFD21462846BDE83840FDF731BD00BFC8
:10296000B001002400000000000000000000000092
:10297000044B1A68DB6892689B689A4201D9FFF79A
:10298000C7BF7047B0010024000000000000000035
:1029900038B5154BDC681D68A268A968914222D33E
:1029A0002A680121204653601A6085F82410A16A24
:1029B000DD60FFF7D5FC0022A369A16884F824201C
:1029C0001B689A688A42FBD25A68214623602846CF
:1029D000626014605C60FFF7DBFC21462846BDE8BE
:1029E0003840FDF7EDBC38BDB00100240000000008
:1029F000FEE700BF00000000000000000000000033
:102A000070B5214B0025044686B081630E460563F0
:102A1000586002F01DFA04F1100304F12802A560C9
:102A20006563C4E904334FF0FF33C4E90A22C4E903
:102A30000635C4E90044FDF743FE2B46024604F187
:102A40008800C4E90823C4F88450FFF771FC04F13E
:102A50003C0180230D4A204600F022F80122034663
:102A6000716803926846E36083F82420084A19627B
:102A70000092084B05950493D6E90312CDE90112A3
:102A800000F076F806B070BD700B0024C0B50008E9
:102A9000B0B50008F12900080000000000000000A7
:102AA00010B400248B60CA6101F110028C6388614C
:102AB000C1E90F43022401238C8400F1280481F82A
:102AC0002630C36AC1E904431A6001F12C0401F104
:102AD0003003C26208464B63C1E90B4310BC704728
:102AE00070B5D0E90234456800211D4A4FF0020E4E
:102AF00043F8285C4FF0010C05691A4E43F86C5CF2
:102B0000456943F84C6C43F8685C0568A3F13800EC
:102B100003F8231C03F824EC03F822CC43F8404CC0
:102B200043F8084CD46A43F82C5CA3F16C0543F8D5
:102B3000344C43F83C5C02F1280543F8302C43F850
:102B4000385C43E904112060A3F11801A3F11C04CF
:102B5000D062A3F1480043F8141C43E9074170BD5B
:102B6000B0010024D10300080000000000000000B4
:102B700008B5FFF7B5FFBDE80840FFF701BE00BF8D
:102B800010B5302383F31188FFF7AAFF0021044614
:102B9000FFF76EFE002383F31188204610BD00BFAF
:102BA00038B5302484F31188483900254418184971
:102BB000A2602264A4F1240244F8041CE260012211
:102BC000049984F8262044F8243C44F8201C02216F
:102BD000104B114AA18404F11001206203F1280076
:102BE000E261DA6A206104F12C006261A361E563AD
:102BF000A563116004F13002D9622946E0622046E3
:102C0000C4E90C22FFF734FE85F31188204638BD55
:102C1000D1030008B0010024B8B50008000000008E
:102C2000302383F3118890F82630013B80F826305A
:102C3000436A03F0FF130F2B03D0002383F31188A3
:102C40007047D0E90432002113605A6081F3118883
:102C500090F8253003F00303012B06D0022B00D09F
:102C60007047016A406C01F02BBA006A01F068B944
:102C700038B5302383F31188124BDC6804F12C053E
:102C8000E36AA0629D4207D194F8263083B10F20F9
:102C9000BDE83840FFF78CBD1A681846E262FFF7BE
:102CA0006FFDE36AAB42F7D194F82630002BEED1EA
:102CB00094F825309B07EAD1D4E9043213605A60B6
:102CC000E5E700BFB00100240000000000000000A4
:102CD00038B51E4B30220446DB6882F3118890F829
:102CE00024200F2A05D0C26A09201A60E362FFF788
:102CF0005FFDA56A002282F31188302383F31188D7
:102D000094F82630013B84F82630636A03F0FF1301
:102D10000F2B03D082F31188284638BDD4E9043143
:102D20000B60596082F3118894F8253003F0030397
:102D3000012B06D0022BEFD1216A606C01F0C0F9A3
:102D4000EAE7206A01F0FCF8E6E700BFB0010024E2
:102D50000A4A3021D26810B581F311889168146C49
:102D6000814201D3A14200D190601064FFF700FEC0
:102D7000002383F31188204610BD00BFB00100245A
:102D8000302383F3118890F82530002243F00403A8
:102D900080F8253082F31188704700BF00000000E2
:102DA00008B50146302383F311880820FFF720FD82
:102DB000002383F3118808BD00000000000000001C
:102DC00010B53023044683F31188FDF779FC211AEE
:102DD00002D00820FFF70CFD002383F3118810BDFB
:102DE00008B5302383F31188FFF7D2FD002383F366
:102DF000118808BD00000000000000000000000075
:102E0000054A0346D26821B1026003209362FFF7AE
:102E1000EFBC4FF0FF307047B0010024000000000D
:102E20000346006820B100221A608162FFF7A8BC47
:102E3000704700BF0000000000000000000000001C
:102E400008B53022034682F31188006818B10022C9
:102E50001A60FFF70DFD002383F3118808BD00BF42
:102E6000084AD26851B1034610B444681060042087
:102E70005460226010BC5A60FFF7BABC4FF0FF30BC
:102E8000704700BFB00100240000000000000000F7
:102E900003460068834205D002681A60536081626D
:102EA000FFF76EBC704700BF00000000000000008C
:102EB00038B504460068A04209D00D460368236077
:102EC0005C608562FFF75CFC2068A042F6D138BDEB
:102ED00030B40023002400254FF0FF32C0E9044540
:102EE000C0E9002330BCC0E9023370470000000095
:102EF000014B5B6883607047001000E00000000039
:102F00000E4A0F4B81685B6810B4946802691B1B02
:102F1000C4685B1A41690134D218026141F10001B1
:102F2000426841619342026888BF43609342C0E9AE
:102F3000023438BF036010BC704700BF700B002420
:102F4000001000E000000000000000000000000091
:102F5000C0E9000081607047000000000000000030
:102F600038B5302383F311880368816083420BD026
:102F7000044615466068436863601C60FFF700FC08
:102F800023688562A342F5D1FFF7F2FC002383F3A7
:102F9000118838BD000000000000000000000000A3
:102FA000302282F311888268013A002A826004DBB1
:102FB0000020002383F311887047094903464268C3
:102FC000052010B5CC68A362C4E9003214605C60CF
:102FD000FFF7EEFBA06A002383F3118810BD00BF4A
:102FE000B00100240000000000000000000000000C
:102FF0008268013A002A826001DB0020704707499D
:1030000003464268052010B5CC68A362C4E90032CB
:1030100014605C60FFF7CCFBA06A10BDB001002417
:1030200010B50346302484F311888468601E00289C
:10303000986004DB0020002383F3118810BD71B178
:10304000094A05205C68D2689362C2E900342260B4
:103050005A60FFF7CDFB002383F3118810BD4FF0BA
:10306000FF309C60E7E700BFB001002400000000D3
:1030700010B484680346601E0028986002DB0020BC
:1030800010BC704759B1084A05205C68D268C2E993
:1030900000349362226010BC5A60FFF7A9BB4FF066
:1030A000FF309C60ECE700BFB0010024000000008E
:1030B000302208B582F3118882680132002A8260CA
:1030C00003DD002383F3118808BD03460068002157
:1030D00002681A605360FFF7CBFB002383F311886B
:1030E00008BD00BF0000000000000000000000005C
:1030F000826803460132002A826000DD7047006862
:10310000002102681A6053608162FFF739BB00BF7B
:1031100070B50C1E12DD0546002601E0013C0DD005
:10312000AB680133002BAB60F8DC286803682B60C8
:103130005D60FFF725FB013C8662F1D170BD00BFE9
:1031400038B530220C4682F3118882680132002A99
:1031500082601BDDA368013B002BA36006DBFFF749
:1031600007FC0020002383F3118838BD0C4A05209A
:103170006368D568C5E900431D606560AC62FFF710
:1031800017FBA86A002383F3118838BD0346006843
:1031900002681A605360FFF7F3FA00238362D9E7ED
:1031A000B00100240000000000000000000000004A
:1031B0000023C0E900008360704700BF00000000EA
:1031C00070B52F4B04468068DD6830B3AA68836809
:1031D000934207D290F824308260062B36D0072B1A
:1031E00020D09BB1234603E09968AA68914202D39C
:1031F0001B689C42F8D15A6806202B606A601560F3
:103200005D60AC62BDE87040FFF7D2BAD0E9003231
:1032100013605A60FFF7B4FAE4E7EB6BC4E90253BA
:10322000EC6370BD866AD0E9003213605A603346A1
:1032300003E099688268914202D31B689E42F8D1EC
:103240005A68C0E9003210605860CBE7866AD0E95E
:10325000003213605A60334603E0996882689142F5
:1032600002D31B689E42F8D15A6803604260106026
:103270005860B068AA6883689342ABD3B2E700BFD6
:10328000B001002400000000000000000000000069
:1032900008B5302383F31188FFF792FF002383F3EF
:1032A000118808BD000000000000000000000000C0
:1032B0003022034682F31188826822B10020002365
:1032C00083F311887047054A0120D268D16BC3E9A6
:1032D0000221D363002383F311887047B0010024D7
:1032E000174A302310B5D46883F311880268C36885
:1032F0008242E3631DD00146206C4BB11A689342B1
:1033000003D09268904238BF1046DB68002BF5D19D
:10331000A0600868C26B03680B605960C1E90202D3
:10332000C163FFF72DFAFFF723FB002383F3118816
:1033300010BD00239360002383F3118810BD00BFEC
:10334000B0010024000000000000000000000000A8
:10335000124B026810B48242DC68C368E36318D081
:103360000146206C4BB11A68934203D09268904298
:1033700038BF1046DB68002BF5D1A060086810BC90
:10338000C26B03680B605960C1E90202C163FFF7B9
:10339000F7B9002310BC9360704700BFB001002450
:1033A000114B70B5DC68E36BEBB100261A68D96885
:1033B00093421046E16311D0D56B116819604B60E0
:1033C000C3E90225D363FFF7DBF9E36B002BEDD1F3
:1033D000236CA360BDE87040FFF7CABA9E600B463D
:1033E000002BE3D1F4E770BDB00100240000000021
:1033F00008B5302383F31188FFF7D2FF002383F34E
:10340000118808BD0000000000000000000000005E
:10341000C0E90000704700BF00000000000000008D
:1034200008B53022034682F311880068834205D034
:10343000026800211A605360FFF71AFA002383F331
:10344000118808BD0000000000000000000000001E
:1034500003460068834206D0026800211A60536068
:103460008162FFF78DB97047000000000000000086
:1034700038B5302383F31188036898420CD0044692
:103480006FF001051A68184622605460FFF778F95A
:1034900023688562A342F5D1FFF76AFA002383F31C
:1034A000118838BD0000000000000000000000008E
:1034B0000F4B70B5DC680546E66B3046FFF748FFFA
:1034C0002B46A56203E09968A268914202D31B686B
:1034D0009D42F8D15A6807202360626014605C60E6
:1034E000FFF766F9A46A3046FFF76AFE204670BD12
:1034F000B0010024000000000000000000000000F7
:1035000008B5302383F31188FFF7D2FF002383F33C
:10351000118808BD0000000000000000000000004D
:10352000F8B5114B05460F46DC68E66B3046FFF7F1
:103530000FFF2B46A56203E0A2689968914202D36F
:103540001B689D42F8D15A683946236007206260A3
:1035500014605C60FFF74CF9431C044602D030460F
:10356000FFF72EFE2046F8BDB00100240000000049
:1035700008B5302383F31188FFF7D2FF002383F3CC
:10358000118808BD000000000000000000000000DD
:1035900010B4302484F31188074CD0F800C0E468DC
:1035A000C1F800C001600020C1E90142C1E9030384
:1035B00080F3118810BC7047B001002400000000A7
:1035C000302383F31188034601E08B4207D01A466B
:1035D0001B689842F9D1002383F3118870471B6858
:1035E0001360002383F31188704700BF00000000C0
:1035F00010B4302383F31188054B0021DA68936BF4
:1036000023EA0004946381F31188184010BC7047CA
:10361000B0010024000000000000000000000000D5
:10362000302383F31188044B0022DB68996B084335
:10363000986382F311887047B001002400000000F5
:1036400008B5302383F31188826B90F8243011433E
:103650000A2B816314D00B2B05D0FFF789F90023C7
:1036600083F3118808BD836A8B43F6D100238362FC
:10367000FFF786F8FFF77CF9002383F3118808BD74
:10368000836A1942E9D000238362FFF779F8F1E7F2
:10369000F8B50468A04221D007460D46002604E094
:1036A0000B2A1CD02468A74218D0E3682B43E360A0
:1036B00015B123691D42F5D0D4E90103816B90F85F
:1036C00024200B430A2A8363EAD1826A1342E9D099
:1036D0008662FFF755F82468A742E6D1F8BD826AF2
:1036E0009A43DFD1F4E700BF0000000000000000B3
:1036F00008B5302383F31188FFF7CAFFFFF738F9C5
:10370000002383F3118808BD0000000000000000C2
:10371000B1B1F8B507460D460024012625FA04F399
:1037200006FA04F22046DB0708D525EA020557F819
:10373000243098470134002DF0D1F8BD0134EDE775
:10374000704700BF00000000000000000000000003
:103750000D4A38B53023D56883F31188AB6B13EA73
:10376000000208D050420021104023EA0003AB635E
:1037700081F3118838BD04460A20AC62FFF718F8BF
:10378000AB6B03EA0402EDE7B00100240000000087
:103790000C4A38B530230446D56883F31188AB6BE7
:1037A000184006D023EA00030022AB6382F311889D
:1037B00038BD0A20AC62FEF7FBFFAB6B03EA0400E6
:1037C000F0E700BFB001002400000000000000008E
:1037D0000B4A38B530230446D56883F31188AB6BA8
:1037E00030EA030204D00B20AC62FEF7E1FFAB6BC2
:1037F00023EA04030022AB6382F31188204638BD1C
:10380000B0010024000000000000000000000000E3
:1038100070B5114D3023EE6883F31188B36B13EA52
:1038200000050ED119B985F31188284670BD0446EC
:103830000A20B462FEF7DCFF0028F4DBB36B03EA76
:103840000405694200220D4023EA0503B36382F3B5
:103850001188284670BD00BFB001002400000000A0
:1038600070B5104D3023EE6883F31188B36B13EA03
:1038700000050ED119B985F31188284670BD04469C
:103880000A20B462FEF7B4FF0028F4DBB36B03EA4E
:10389000040523EA05030022B36382F31188284656
:1038A00070BD00BFB0010024000000000000000057
:1038B00038B5114D30220446ED6882F31188AA6BA9
:1038C00034EA02000BD019B981F31188084638BDDB
:1038D0000B20AC62FEF78CFF002808DBAA6B22EA03
:1038E00004020023AA6383F31188204638BD002018
:1038F00080F3118838BD00BFB00100240000000033
:1039000038B50E4C3022E46882F31188426B00F126
:103910003005A16225606260146090F82420446341
:103920000E2A07D00C20FEF743FFA06A002383F382
:10393000118838BDFEF724FFF4E700BFB001002472
:1039400038B5094BDD682C4654F8300F844206D058
:1039500003680D222B635C6080F8242038BD0E20A4
:10396000FEF726FF286BF3E7B001002400000000FB
:1039700008B5302383F31188FEF77AFF002383F321
:10398000118808BD000000000000000000000000D9
:10399000F0B5174687B008220D461E4600F040FAE3
:1039A0000446C0B10C9B054404930D9BCDE9007007
:1039B00005933023CDE9025683F311886846FFF75B
:1039C0008FF801230021044680F82530FEF750FFD0
:1039D000002383F31188204607B0F0BD00000000EB
:1039E0002DE9F04186B00546884617461E4600F090
:1039F0004FFB0446C8B16A680C9B144405933023FE
:103A00000294CDE90080CDE9037683F311886846FE
:103A1000FFF766F802230021456480F8253004464C
:103A2000FEF726FF002383F31188204606B0BDE889
:103A3000F08100BF00000000000000000000000056
:103A400030B401EB8202002500F1180400F12003DC
:103A50000561057501604260C0E90644C0E90211D4
:103A600030BCC0E9083370470000000000000000CF
:103A700038B53023044683F31188012203680025FA
:103A8000183022756FF001012561C4E90233FFF798
:103A90000FFA6FF0010104F12000FFF709FAFEF7B9
:103AA00067FF85F3118838BD0000000000000000AA
:103AB00038B501220368044600256FF00101183073
:103AC00040F8085C2275C4E90233FFF7F1F904F10C
:103AD00020006FF00101BDE83840FFF7E9B900BFF1
:103AE0002DE9F84304460F46904600F1180909E015
:103AF000D4E900562369721BB3EBA20F0BD1FFF779
:103B0000AFF930B9237D41464846002BF0D06FF025
:103B10000100BDE8F883A168013304F120000A1D0B
:103B2000B242A2600F604FF0000138BFA568236168
:103B3000A560FFF7ADF9FEF71BFF0020BDE8F88395
:103B400008B5302383F31188FFF7CAFF002383F3FE
:103B5000118808BD00000000000000000000000007
:103B6000027DE2B9034670B5D0E900401A69051B31
:103B7000B2EBA50F10D09E680132351D85429D60C5
:103B8000316003F1200038BF9C6800211A619C60FD
:103B9000FFF77EF9002070BD4FF0FF3070BD6FF071
:103BA000010070470000000000000000000000005D
:103BB0002DE9F84304460E46904600F1180909E045
:103BC000D4E9005723697A1BB3EBA20F0BD1FFF79F
:103BD00047F930B9237D41464846002BF0D06FF0BD
:103BE0000100BDE8F883E268013304F12000002100
:103BF000043AAA4238BF3A1FE26016602361FFF719
:103C000047F9FEF7B5FE0020BDE8F883000000008C
:103C100008B5302383F31188FFF7CAFF002383F32D
:103C2000118808BD00000000000000000000000036
:103C3000027DE2B938B5D0E90045034600692A1B88
:103C4000B0EBA20F10D0DA68043AA24200F10104EE
:103C500003F1200038BF2A1FDA60116000211C61C7
:103C6000FFF716F9002038BD4FF0FF3038BD6FF078
:103C7000010070470000000000000000000000008C
:103C8000F8B504460E46154600F1200704E0236906
:103C900053B9FFF7E5F830B9237D29463846002BA4
:103CA000F5D06FF00100F8BDE1680A1D0968E26017
:103CB000316061688A4201D32268E260013B04F10D
:103CC000180000212361FFF7E3F8FEF751FE002002
:103CD000F8BD00BF00000000000000000000000070
:103CE00008B5302383F31188FFF7CAFF002383F35D
:103CF000118808BD00000000000000000000000066
:103D0000027DCAB9026903469AB110B5C468201D84
:103D10002468D8600C605968884201D31968D9605A
:103D2000013A03F1180000211A61FFF7B1F80020F1
:103D300010BD4FF0FF3070476FF00100704700BFBB
:103D4000024B0349034AC3E9001270477C0B00246D
:103D5000181F0024000008240000000000000000DC
:103D6000084B494210B45C68201A08401968821A4E
:103D70008A4204D3A24202D810BC5A607047002085
:103D800010BC70477C0B0024000000000000000005
:103D9000302310B483F311880B4B49425C68201A1E
:103DA00008401968821A8A4207D3944205D35A60A0
:103DB000002383F3118810BC70470020002383F395
:103DC000118810BC704700BF7C0B0024000000006D
:103DD000044B0022044903F10C009A60C3E900126D
:103DE000FFF7E6B9840B0024913D000800000000B5
:103DF000CB1D083A0C3023F00703591A521A10B49D
:103E0000D208002440F8083C40F80C4C40F8044C20
:103E10001C605A6010BCFFF7CBB900BF0000000067
:103E20000028434B2DE9F04F804614BF804698464A
:103E3000082A83B001F1070908F10C0B38BF0822EA
:103E400001914FEAD90958469246FFF721FAD8F86E
:103E50000420E2B108F104010AF10707CAF10006E3
:103E6000D3195568334005F1010C1C4602EBCC0C0C
:103E7000083BACEB040E9C454FEAEE0002D9B9EBCF
:103E8000EE0F1AD9136811461A46002BE8D158468E
:103E9000FFF726FAD8F800405CB151464FEAC90056
:103EA0000822A047044620B1019B40F8088C40F846
:103EB000043C204603B0BDE8F08F9A421CD34D4528
:103EC00030D0136809F1010002F1080442F83030E3
:103ED00002EBC000134600F10802ACEB0202D21064
:103EE00042600860019A5846C3E90082FFF7F8F97A
:103EF000204603B0BDE8F08F02F108014845A3EB6E
:103F000001014FEAE1015160ECD9A0EB090109F18F
:103F10000109013903EBC9004160116843F8391008
:103F20001060DFE71446134654F8082B0A60D9E7FF
:103F3000840B0024000000000000000000000000CE
:103F4000F8B550E90273A0F10804064607333D1D99
:103F50000C37DB0840F8043C3846FFF799F92B464C
:103F6000A3421A6805D39D4203D01346A3421A68A0
:103F7000F9D20AB19442F8D246F8082C56F8042C2B
:103F80001C60013256F8081C04EBC20081420AD0C2
:103F900059684A1C03EBC202944211D03846BDE86E
:103FA000F840FFF79DB9486810440A6846F8040CC9
:103FB000596846F8082C4A1C03EBC2029442EDD122
:103FC00056E902020132186038460A445A60BDE8D8
:103FD000F840FFF785B900BF0000000000000000B6
:103FE0000028174B2DE9F041044614BF04461C4637
:103FF0000F46164604F10C084046FFF749F963687E
:10400000D3B14FF0000CE64665460135D3E90034E4
:10401000A445A64438BFA446002BF6D117B14FEAF9
:10402000CE033B6016B14FEACC0333604046FFF746
:1040300057F92846BDE8F0819C469E461D46EDE7AF
:10404000840B0024000000000000000000000000BD
:1040500010B40024C0E90223C0E9004110BC70473D
:104060008AB14FF0000C00B54FF0300E8EF311887E
:1040700003680B6001608CF311884368013A1944AE
:10408000F4D15DF804FB7047000000000000000060
:1040900008B53022034682F31188006828B102680F
:1040A0001A60002383F3118808BDDA68002AF8D06B
:1040B000D3E901019047002383F3118808BD00BFB5
:1040C000302383F31188026800230A60016083F3C0
:1040D0001188704700000000000000000000000090
:1040E00010B40024C0E90341C0E90524214610BCF6
:1040F000FEF72EBF000000000000000000000000DE
:10410000CAB12DE9F04104460D4616464FF030087D
:10411000002788F31188E36820462B60E560FEF7EE
:10412000E7FFFEF725FC87F311882369013E1D4454
:10413000EFD1BDE8F08170470000000000000000F2
:1041400010B53023044683F31188FEF791FF88B938
:10415000E06828B10368E360002383F3118810BD91
:10416000A369002BF8D0D4E904019847002383F316
:10417000118810BD0020002383F3118810BD00BFFB
:10418000302208B582F31188C2680A60C160FEF768
:10419000AFFFFEF7EDFB002383F3118808BD00BFDE
:1041A00010B5002304460A44203021606260236178
:1041B0002375C4E90211C4E90633FEF7F9FF04F1DF
:1041C0003000FEF7F5FF04F14000BDE81040FEF7B7
:1041D000EFBF00BF00000000000000000000000072
:1041E00070B500F12005044600262846FFF750F878
:1041F000236801222661C4E902332275302383F348
:1042000011886FF0010104F11800FEF709FE6FF04C
:10421000010104F11C00FEF703FEFEF7A9FB86F383
:1042200011882846BDE87040FFF75AB8000000002A
:104230002DE9F04F85B0CDE90132037D2BB14FF070
:104240000008404605B0BDE8F08F00F13003144689
:1042500005460F4618460393FFF71AF8002C43D083
:1042600005F12009DDF8088005F11C0A4846FFF732
:104270000FF82B69A868D5E90046341B361AE41AF2
:10428000444528BF44462344B4422B613AD3A4EBAF
:10429000060B3246394630D9FCF7A8F85A46B91908
:1042A0002868FCF7A3F82A685A444846AA60FFF732
:1042B00017F8002150467CB9302383F31188019907
:1042C00005F11800FEF79CFD84F311880028CDD07D
:1042D000029BA3EB080809E0A8EB04082744FEF7BB
:1042E000AFFDB8F1000FC1D1DDF808800398FEF7EB
:1042F000F7FF404605B0BDE8F08F2246FCF776F8A0
:104300002A68D2E722463946FCF770F8AA682244A8
:10431000CBE700BF0000000000000000000000002C
:104320002DE9F04F85B0CDE90132037D2BB14FF07F
:104330000008404605B0BDE8F08F00F14003154687
:1043400004460F4618460393FEF7A2FF002D42D005
:1043500004F12009DDF8088004F1180A4846FEF748
:1043600097FF6668D4E9031343451D46A6EB010693
:1043700028BF45465B1BB54223613AD3A5EB060B2C
:104380003246384630D9FCF731F85A46B819216818
:10439000FCF72CF822685A444846E260FEF7A0FF7A
:1043A000002150467DB9302383F31188019904F12F
:1043B0001C00FEF725FD85F311880028CED0029B56
:1043C000A3EB080809E0A8EB05082F44FEF738FD29
:1043D000B8F1000FC2D1DDF808800398FEF780FF26
:1043E000404605B0BDE8F08F2A46FBF7FFFF226884
:1043F000D2E72A463846FBF7F9FFE2682A44CBE7C2
:104400002DE9F04706461F4689462430012115460E
:10441000099CDDF82080FEF79BFD394606F130004F
:10442000FEF796FD0A9B05EBC901C6F80090F36301
:1044300006F114090B9B346133640023C6E901576C
:10444000C6E90533C6E90799C5E900550835A9420B
:10445000FAD84FF0010A002504F118000121FEF7F7
:1044600077FDF369013FC4E90239DC60F461C4E916
:104470000455C4E909A54444EED1BDE8F08700BF66
:104480002DE9F84F302306460F46154683F3118871
:10449000036801EB02084168013B03EA080301EBF2
:1044A000C30251F83340A24203D11BE02468A24268
:1044B00018D063699D42F9D123699F42F6D1236ADE
:1044C000002B52DD626A013BD4E9021022F00102A6
:1044D0008160C860C4E90832002383F31188204654
:1044E000BDE8F88F06F130094FF0000B4FF0220ABB
:1044F0000BE08BF311880122336C21463046C4F85F
:1045000024A09847302383F311884846FEF770FDB6
:10451000346AD4E90832D4E90210013B8160C860F2
:1045200022F00101C4E90831D106E2D4930704D591
:10453000D4E900231A60226853600A212761D6E972
:1045400000326162013B656103EA080352F83310EF
:1045500002EBC300C4E900104C6042F83340002372
:1045600083F311882046BDE8F88F04F11800FEF7A8
:104570003FFD002383F311882046BDE8F88F00BF7C
:104580000B6A002B4B6A10B50C462EDB190714D4AE
:104590009A0622D4C26900F11401C4E90221D46050
:1045A000C46103F0120343F0010363623030FEF78D
:1045B0009FFD236A0133236210BDD4E90032016AF2
:1045C00013605A6000F114030022C4E902318C60C8
:1045D00001230462C4E90422E7E7026A00F114013E
:1045E000C4E9021294600462DBE703F01A0301F1EC
:1045F0001800BDE810404B62FEF77ABD00000000D5
:1046000030B44C6AC56B44F008042B464C6230BC95
:10461000184700BF0000000000000000000000007C
:1046200003681A1D02601B68184700BF00000000E5
:1046300003680246191D5868116053F8081B13607F
:10464000084700BF0000000000000000000000005C
:104650000368024610B41C1D586803F10C01146075
:104660001C6811609968234610BC184700000000C0
:104670000368024630B41C1D03F11005D3E90101A3
:1046800014601C681560DA68234630BC184700BF08
:104690000368844630B41C1DDA6803F11405D3E9BD
:1046A0000101CCF800401C68CCF800501B69A446FE
:1046B00030BC604700000000000000000000000067
:1046C0000EB410B585B007AB01AC02A953F8042BAA
:1046D0000394CDE90132FFF713F905B0BDE81040AE
:1046E00003B0704700000000000000000000000060
:1046F00010B5302383F31188FFF722F90023044615
:1047000083F31188836AD3E900209047014620464D
:10471000BDE81040FFF72CB90000000000000000C9
:104720000022FFF71DBB00BF0000000000000000DA
:104730002DE9F0410C680E4605461746A142984601
:1047400003D10EE02468A6420BD004F10800082231
:10475000294606F063FE0028F4D114B10020BDE81C
:10476000F081424639460020FFF75AFB0028F5D079
:1047700000F108012B4613F8012BC3F1080401F8DE
:10478000012BE54201D0002AF5D132680123C0E9AE
:1047900000233060BDE8F081000000000000000050
:1047A00038B5124C124D2046FEF702FD04F11001FF
:1047B0002B460422216114216018FFF749FC04F103
:1047C000240004F128012B460422C4E909011C211C
:1047D00004F12C00FFF73CFC04F13C0104F1400221
:1047E00004F14403C4E90F12636438BDA00B002434
:1047F0002147000800000000000000000000000049
:104800002DE9F0411F4F054688463E463846FEF7E3
:104810003FFD56F8104FB44203D112E02468B44271
:104820000FD004F108000822294606F0F7FD002801
:10483000F4D134B100261348FEF752FD3046BDE8EE
:10484000F0811148FFF724FC06460028F2D000F161
:1048500008012B4613F8012BC3F1080401F8012BC2
:10486000E54201D0002AF5D13A6901230548C6E99D
:1048700000233E61C6F81080FEF732FD3046BDE8E9
:10488000F08100BFA00B0024B40B00240000000046
:10489000124B70B51D4606461846FEF7F9FC55F852
:1048A000104FAC4203D113E02468AC4210D004F1A5
:1048B00008000822314606F0B1FD0028F4D114B1F9
:1048C0006368013363600548FEF70AFD204670BD4A
:1048D00000240248FEF704FD204670BDA00B002412
:1048E00010B504461048FEF7D3FC104A134601E009
:1048F0009C4208D09C461B689342F9D10A48BDE807
:104900001040FEF7EDBC6368013B6360002BF5D1FE
:10491000236821460648CCF80030FFF7D1FB024857
:10492000BDE81040FEF7DCBCA00B0024B00B002457
:10493000B40B002400000000000000000000000094
:1049400038B504460D460B48FEF7A2FC2046082366
:1049500005F110020849FFF7EBFE044620B12A4694
:104960000021103006F008FD0248FEF7B9FC204691
:1049700038BD00BFA00B0024C40B002400000000C1
:10498000124B70B51D4606461846FEF781FC55F8D9
:10499000244FAC4203D113E02468AC4210D004F1A0
:1049A00008000822314606F039FD0028F4D114B180
:1049B0006368013363600548FEF792FC204670BDD2
:1049C00000240248FEF78CFC204670BDA00B00249A
:1049D00010B504460F48FEF75BFC0F4A134601E092
:1049E0009C4208D019461B689342F9D10948BDE89A
:1049F0001040FEF775BC6368013B6360002BF5D186
:104A0000236820460B60FFF79BFA0248BDE8104080
:104A1000FEF766BCA00B0024C40B002400000000BD
:104A20002DE9F041204F054688463E463846FEF7C0
:104A30002FFC56F8284FB44203D112E02468B44248
:104A40000FD004F108000822294606F0E7FC0028F0
:104A5000F4D134B100261448FEF742FC3046BDE8DC
:104A6000F0811248FFF714FB06460028F2D000F14F
:104A700008012B4613F8012BC3F1080401F8012BA0
:104A8000E54201D0002AF5D1BB6A0122414606F178
:104A90001000C6E90032BE62FEF75AFA0248FEF77D
:104AA0001FFC3046BDE8F081A00B0024CC0B002495
:104AB000124B70B51D4606461846FEF7E9FB55F841
:104AC000284FAC4203D113E02468AC4210D004F16B
:104AD00008000822314606F0A1FC0028F4D114B1E8
:104AE0006368013363600548FEF7FAFB204670BD3A
:104AF00000240248FEF7F4FB204670BDA00B002402
:104B000010B504461048FEF7C3FB104A134601E0F7
:104B10009C4208D09C461B689342F9D10A48BDE8E4
:104B20001040FEF7DDBB6368013B6360002BF5D1ED
:104B3000236821460648CCF80030FFF7C1FA024846
:104B4000BDE81040FEF7CCBBA00B0024C80B00242E
:104B5000CC0B00240000000000000000000000005A
:104B600038B50D4604460C48FEF792FB05F10E02DF
:104B70002046082309499200FFF7DAFD044628B1D0
:104B800000F138012A461030FEF75AFF0248FEF7BE
:104B9000A7FB204638BD00BFA00B0024DC0B00247F
:104BA000124B70B51D4606461846FEF771FB55F8C8
:104BB0003C4FAC4203D113E02468AC4210D004F166
:104BC00008000822314606F029FC0028F4D114B16F
:104BD0006368013363600548FEF782FB204670BDC1
:104BE00000240248FEF77CFB204670BDA00B002489
:104BF00010B504460F48FEF74BFB0F4A134601E081
:104C00009C4208D019461B689342F9D10948BDE877
:104C10001040FEF765BB6368013B6360002BF5D174
:104C2000236820460B60FFF78BF90248BDE810406F
:104C3000FEF756BBA00B0024DC0B00240000000094
:104C40002DE9F0411F46054616460C461648FEF76C
:104C50001FFB013C284607EB86057B423C4453354D
:104C600012491C401D403B4606FB0452FFF760FD05
:104C7000804698B1214600F1100405443A4620468A
:104C8000FFF72EFA324629462046FFF739FA324618
:104C900008F1540108F12C00FEF7D2FE0248FEF79D
:104CA0001FFB4046BDE8F081A00B0024E00B002470
:104CB000124B70B51D4606461846FEF7E9FA55F840
:104CC000404FAC4203D113E02468AC4210D004F151
:104CD00008000822314606F0A1FB0028F4D114B1E7
:104CE0006368013363600548FEF7FAFA204670BD39
:104CF00000240248FEF7F4FA204670BDA00B002401
:104D000010B504460F48FEF7C3FA0F4A134601E0F8
:104D10009C4208D019461B689342F9D10948BDE866
:104D20001040FEF7DDBA6368013B6360002BF5D1EC
:104D3000236820460B60FFF703F90248BDE81040E6
:104D4000FEF7CEBAA00B0024E00B00240000000008
:104D500038B504460D460B48FEF79AFA204608235C
:104D600005F160020849FFF7E3FC044628B100F1B1
:104D700060012A461030FFF713FA0248FEF7B0FA36
:104D8000204638BDA00B0024E40B002400000000E6
:104D9000124B70B51D4606461846FEF779FA55F8CF
:104DA000444FAC4203D113E02468AC4210D004F16C
:104DB00008000822314606F031FB0028F4D114B176
:104DC0006368013363600548FEF78AFA204670BDC8
:104DD00000240248FEF784FA204670BDA00B002490
:104DE00010B504460F48FEF753FA0F4A134601E088
:104DF0009C4208D019461B689342F9D10948BDE886
:104E00001040FEF76DBA6368013B6360002BF5D17B
:104E1000236820460B60FFF793F80248BDE8104076
:104E2000FEF75EBAA00B0024E40B00240000000093
:104E3000EFF30983203383F30988002383F3118878
:104E4000704700BF000000000000000000000000EC
:104E50004FF0300C00B58CF3118862B60E4B4FF654
:104E6000FF0E0E49D8680E4A00EA0E0001430D48B5
:104E7000D960D3F8FC1041F08071C3F8FC10C2F87F
:104E8000B00F2020116841F001011160D87783F83C
:104E900022C05DF804FB00BF00ED00E00003FA054E
:104EA000001000E055CEACC500000000000000007E
:104EB000302383F311880D4B5B6813F4006302D138
:104EC00083F31188704710B5EFF309844FF08073B6
:104ED000203CE36184F30988FDF70AFD10B1044B1F
:104EE000A36110BD034BA36110BD00BF00ED00E046
:104EF000E3030008E60300080000000000000000D3
:104F0000044B10B50446586A0368E1B2DB68984761
:104F1000204610BDE80B0024000000000000000047
:104F20002DE9F84F8046754800F0B2FBD8F8001024
:104F3000002900F0DF80724800F0AAFB714800F001
:104F4000A7FB7149714800F0A3FB7149714800F05B
:104F50009FFB7149714800F09BFB6A4800F098FB89
:104F60006F4B70497048C91A704E00F091FB704B3E
:104F700070497148C91A00F08BFB704B7049714839
:104F8000C91A00F085FB704B70497148C91A00F0CE
:104F90007FFB5A4800F07CFBD8F8042000231268FD
:104FA0003371002A00F084809B4699464C243D20B2
:104FB00000F04EF9013CFAD1504D0D2000F048F9B7
:104FC00015F8010F0028F9D1D8F804300BF1010BC6
:104FD000604853F8093059461A6800F059FBD8F870
:104FE000042052F809305B681B68002B59D0A700D9
:104FF0004C252D2000F02CF9013DFAD10D25DFF8CC
:10500000FCA0284600F024F91AF8010F0028F9D175
:10501000D8F8043001340546594653F80930224681
:105020004D485B68DB591B6800F032FB4FF4FA60B7
:10503000FDF7B6FED8F8043053F809305B6853F832
:1050400007A0464B7571F360DAF8043003B1984756
:10505000DAF80C309847DAF8083003B198477379DA
:10506000002B43D0B3683E4A31683E4800F010FB45
:10507000F3683A4A934207D9384D15F8010B00F00E
:10508000E7F8F3689D42F8D3B168374800F000FBB9
:10509000D8F8042052F809305B683B445B68002B69
:1050A000A5D109F1040952F80930002B7FF47EAF35
:1050B0004C242D2000F0CCF8013CFAD10F4C0D20EF
:1050C00000F0C6F814F8010F0028F9D10B4800F0E1
:1050D000DFFA3179254A264B2648002914BF1146AC
:1050E000194600F0D5FA3079BDE8F88F224800F073
:1050F000CFFACDE7214800F0CBFA1FE7A4B70008AC
:10510000FCB500081CB6000824B600083CB6000830
:1051100054B6000894B60008ACB60008D8B600082B
:10512000E0020008A8B40008F0B60008E80B00246C
:10513000A8B4000858DC000810B7000800000024DC
:10514000DC00002430B70008E0000024181F002411
:1051500050B7000870B700088CB70008F80B00249F
:1051600018B60008A8B70008C4B70008ECB50008D6
:10517000F4B50008E8B70008D0B7000808B6000882
:1051800008B100207047034B40F2011201209A80C1
:1051900099607047E80B0024000000000000000048
:1051A00070B40D4D05F11006EC68334605E013F8B8
:1051B00001CB10F8012B944506D19C42F7D800781A
:1051C00010B9EE6070BC704740F201130120A96075
:1051D000AB8070BC704700BFE80B002400000000EB
:1051E00070B505460C461646FBF76AFA641B401B71
:1051F000A04201D2002070BD034B40F201120120F9
:105200009A809E6070BD00BFE80B00240000000083
:10521000044BDA6803F120018A4202D2511CD960A2
:1052200010707047E80B0024000000000000000030
:1052300010B4044B0446044A0846C3E9082410BCD1
:10524000FFF76EBEE80B0024014F000800000000CD
:10525000024B1B6A03B11847704700BFE80B0024DC
:105260002DE9F04F0746044687B017F8010B0028D8
:1052700000F001824FF0000B8C4D89460AE02B6A4A
:1052800003B198470BF1010B3C46274617F8010B79
:1052900000286FD02528F2D163782D2B00F0B18043
:1052A0004FF0000C39782B2900F0A7800026302918
:1052B00000F09F804FF020082A294BD159F8042B89
:1052C000BC1C79782E2900F0A080002001F0DF03BB
:1052D0004C2B53D114F8011B00294BD0A1F14403EE
:1052E000342B00F29C80DFE813F0E3009A009A0070
:1052F0009A009A00E3009A009A009A009A009A0095
:10530000650115019A009A009A009A00BB019A0063
:105310009A0015019A009A009A009A009A009A0041
:105320009A009A009A009A008501E3009A009A0078
:105330009A009A00E3009A009A009A009A009A0054
:10534000650115019A009A0068019A00BB019A0054
:105350009A0015017C1C69B10022A1F1300302EB17
:105360008200DBB2092BADD814F8011B03EB40021D
:105370000029F2D1584607B0BDE8F08FA1F14407EB
:10538000342F4CD8DFE817F094004B004B004B0053
:105390004B0094004B004B004B004B004B001601A0
:1053A000C6004B004B004B004B006C014B004B0008
:1053B000C6004B004B004B004B004B004B004B001A
:1053C0004B004B004B00360194004B004B004B0050
:1053D0004B0094004B004B004B004B004B00160160
:1053E000C6004B004B0019014B006C014B004B00F9
:1053F000C6000137884639785EE77978012601379B
:1054000055E7A71C4FF0010C4CE721780029B1D0DB
:105410002A2937D16178023459F8040B56E7013A4A
:105420008DF80C1022EAE277BCF1000F40F0EF801B
:10543000002A0DF10C0AC7F10007CDF804C000F3F3
:10544000A080019B002B11DB019B56469A442B6ADE
:10545000013613B116F8010C9847AAEB0603002B8E
:10546000F5DA0BF1010B019B5B449B46002F3FF4E7
:105470000CAF3E462B6A404603B19847013EF9D136
:10548000BB4402E701340020A1F1300300EB8007A8
:10549000DBB2092B3FF61AAF14F8011B03EB4700F0
:1054A0000029F1D1584607B0BDE8F08FE80B002481
:1054B00059F8040B0028C0F2AF80002E00F0D8800D
:1054C0002B230DF10D078DF80C3003AB07F10B0109
:1054D0000E4601916C49A1FB00E1C90801EB810A6C
:1054E0008E46A0EB4A0170463031C9B206F8011D64
:1054F0000028EFD10198801B384401E016F8011F05
:1055000007F8011BB842F9D1C01A9A46431E121A75
:1055100001932BE04FF0100E59F8047B0DF11703A7
:1055200000E033465E1E97FBFEF00EFB107A074646
:105530000AF130013929C8BF0AF13701C9B203F8AD
:10554000011C0028EDD10DF117000DF1170E861B7F
:10555000184603AB1F4601E010F8011B864507F80B
:10556000011BF9D1711E921B9A46019122EAE27742
:10557000BCF1000F7FF465AF002AC7F100077FF789
:1055800060AF9AF800002B2818BF2D2802D1B8F17F
:10559000300F58D02A6A3E4600E02A6A404602B1DF
:1055A00090470137F9D1019BABEB060B002BBFF6FF
:1055B0004BAF6AE64FF0080EAEE759F804ABBAF10C
:1055C000000F50D09AF8001070BB81B347F6FE7000
:1055D000514601E0C64205D411F8013FAAEB01068D
:1055E000002BF7D1A1EB0A014FF020084B1E521AF5
:1055F0000193BBE7013A59F8043B4FF0200822EA37
:10560000E2778DF80C30BCF1000F3FF411AF0023AE
:105610000DF10C0A019317E72D2340420DF10D0700
:105620008DF80C3003AB51E709B10138D0D522EA2F
:10563000E277BCF1000F03D1002AC7F100071CDCA0
:105640004FF0200812E72A6A0AF1010A0AB19047CE
:105650002A6A019B0BF1010B3E46013B01939DE73A
:105660004FF00A0E58E7DFF824A00028AED0DCE7A0
:1056700003AB1F462AE783467CE64FF0FF334FF02B
:105680002008019386E700BFCDCCCCCCFCB7000846
:105690000FB400B583B004A951F8040B0191FFF7D2
:1056A000DFFD03B05DF804EB04B0704700000000BC
:1056B00038B5054C04F1140554F8040B08B1FDF796
:1056C0005FFBAC42F8D138BD80140024000000001C
:1056D00070B5074C002604F1140554F8040B18B1FA
:1056E000FDF7F6FA44F8046CAC42F6D170BD00BF89
:1056F00080140024000000000000000000000000F2
:1057000008B50120FDF74CFB302383F31188FAF72D
:10571000D7FF002383F3118808BD00BF00000000FD
:105720002DE9F041C54F4FF00108C54BC54E384635
:10573000C54DC64CC649C3F80080FFF7A9FF20211C
:105740003046FFF7A5FF29462046FFF7A1FFC149D4
:105750003846FFF79DFF42F210713046FFF798FF81
:1057600029462046FFF794FFBB493846FFF790FFD4
:1057700020213046FFF78CFF29462046FFF788FF9F
:10578000B6493846FFF784FF20213046FFF780FFF7
:1057900029462046FFF77CFFB1493846FFF778FFDE
:1057A00002213046FFF774FF29462046FFF770FFBD
:1057B000AC493846FFF76CFF00213046FFF768FF21
:1057C00029462046FFF764FFA7493846FFF760FFE8
:1057D00000213046FFF75CFF29462046FFF758FFBF
:1057E000A2493846FFF754FF00213046FFF750FF2B
:1057F00029462046FFF74CFF9D493846FFF748FFF2
:1058000041463046FFF744FF29462046FFF740FF58
:1058100098493846FFF73CFF41463046FFF738FFCE
:1058200029462046FFF734FF93493846FFF730FFFB
:1058300041463046FFF72CFF29462046FFF728FF58
:105840008E493846FFF724FF41463046FFF720FFD8
:1058500029462046FFF71CFF89493846FFF718FF05
:1058600041463046FFF714FF29462046FFF710FF58
:1058700084493846FFF70CFF00213046FFF708FF48
:1058800029462046FFF704FF7F493846FFF700FF0F
:1058900041463046FFF7FCFE29462046FFF7F8FE5A
:1058A0007A493846FFF7F4FE00213046FFF7F0FE54
:1058B00029462046FFF7ECFE75493846FFF7E8FE1B
:1058C00041463046FFF7E4FE29462046FFF7E0FE5A
:1058D00070493846FFF7DCFE41463046FFF7D8FEF8
:1058E00029462046FFF7D4FE6B493846FFF7D0FE25
:1058F00041463046FFF7CCFE29462046FFF7C8FE5A
:1059000066493846FFF7C4FE41463046FFF7C0FE01
:1059100029462046FFF7BCFE61493846FFF7B8FE2E
:1059200041463046FFF7B4FE29462046FFF7B0FE59
:105930005C493846FFF7ACFE00213046FFF7A8FE71
:1059400029462046FFF7A4FE57493846FFF7A0FE38
:1059500041463046FFF79CFE29462046FFF798FE59
:1059600052493846FFF794FE00213046FFF790FE7B
:1059700029462046FFF78CFE4D493846FFF788FE42
:1059800000213046FFF784FE29462046FFF780FEBF
:1059900048493846FFF77CFE00213046FFF778FE85
:1059A00029462046FFF774FE43493846FFF770FE4C
:1059B00000213046FFF76CFE29462046FFF768FEBF
:1059C0003E493846FFF764FE00213046FFF760FE8F
:1059D00029462046FFF75CFE39493846FFF758FE56
:1059E00080213046FFF754FE29462046FFF750FE3F
:1059F00034493846FFF74CFE00213046FFF748FE99
:105A000029462046FFF744FE2F493846FFF740FE5F
:105A100000213046FFF73CFE29462046FFF738FEBE
:105A20002A493846FFF734FE00213046FFF730FEA2
:105A300029462046BDE8F041FFF72ABE98B8000885
:105A4000E80B00249CB8000818B6000800B600084F
:105A50006CB80008A0B80008CCB80008F8B8000876
:105A600024B9000850B900087CB90008A8B900089A
:105A7000D4B9000800BA00082CBA000858BA0008C7
:105A800084BA0008B0BA0008DCBA000808BB0008F5
:105A900034BB000860BB00088CBB0008B8BB000822
:105AA000E4BB000810BC00083CBC000868BC00084F
:105AB00094BC0008C0BC0008ECBC000818BD00087D
:105AC00044BD000870BD00089CBD0008C8BD0008AA
:105AD0002DE9F041234C4FF00108234B234D204684
