:020000040800F2
:1000000000040020B9030008BB030008BB0300087C
:10001000BB030008BB030008BB030008BB030008C8
:10002000BB030008BB030008BB030008C12A00088B
:10003000BB030008BB030008BB030008BB030008A8
:10004000BB030008BB030008BB030008BB03000898
:10005000BB030008BB030008BB030008BB03000888
:10006000BB030008BB030008BB03000851110008D4
:1000700091110008D1110008111200085112000856
:1000800091120008D1120008A10E0008BB0300085D
:10009000BB030008BB030008BB030008BB03000848
:1000A000BB030008BB030008BB030008BB03000838
:1000B000610C0008BB030008BB030008BB03000879
:1000C000BB030008BB030008BB030008A120000815
:1000D00011210008010C0008BB030008BB03000845
:1000E000BB030008BB030008BB030008BB030008F8
:1000F000BB030008BB030008BB0300081113000882
:10010000BB030008D10B0008BB03000881210008D5
:10011000BB030008310C0008BB030008BB03000848
:100120005113000891130008D1130008111400089E
:1001300051140008BB030008BB030008BB03000800
:10014000BB030008BB030008BB030008BB03000897
:1001500091140008D114000811150008BB03000811
:10016000BB030008BB030008BB030008BB03000877
:10017000BB030008BB030008BB030008BB03000867
:10018000BB030008BB030008BB030008BB03000857
:10019000BB030008F121000861220008BB0300082E
:1001A000BB030008BB030008BB030008BB03000837
:1001B000BB030008BB030008BB030008BB03000827
:1001C000BB030008BB030008BB030008BB03000817
:1001D000BB030008511A0008BB030008BB0300085A
:1001E000BB030008BB030008BB030008BB030008F7
:1001F000BB030008BB030008BB030008BB030008E7
:10020000BB030008BB030008BB030008BB030008D6
:10021000BB030008BB030008BB030008BB030008C6
:10022000BB030008BB030008BB030008BB030008B6
:10023000BB030008BB030008BB030008BB030008A6
:10024000BB030008510F0008910F0008D10F0008F0
:10025000111000085110000891100008D11000087A
:1002600011110008BB030008BB030008BB03000812
:10027000BB030008BB030008BB030008BB03000866
:10028000BB030008BB030008BB030008BB03000856
:10029000BB030008BB030008BB030008BB03000846
:1002A000BB030008BB030008BB030008BB03000836
:1002B000BB030008BB030008BB030008BB03000826
:1002C000BB030008BB030008BB030008BB03000816
:1002D000BB030008BB030008BB030008BB03000806
:1002E00072B6264880F30888254880F30988254897
:1002F00025490860022080F31488BFF36F8F00F057
:1003000077F802F085F84FF0553020491B4A9142AA
:100310003CBF41F8040BFAE71D49194A91423CBF22
:1003200041F8040BFAE71B491B4A1C4B9A423EBF9B
:1003300051F8040B42F8040BF8E700201849194A59
:1003400091423CBF41F8040BFAE700F0A1F800F03D
:100350008FF8154C154DAC4203DA54F8041B88474E
:10036000F9E702F0E5FB124C124DAC4203DA54F807
:10037000041B8847F9E700F083B800000004002060
:10038000000800200000000808ED00E00000002048
:10039000000400202C2E000800000024000000248F
:1003A00000000024800C0024E0020008E0020008A5
:1003B000E0020008E002000892E700F000F8FEE723
:1003C0002DE9F04FC1F80CD0D0F80CD0BDE8F08F7B
:1003D000002383F311882846A047002002F0F0FA9A
:1003E000FEE702F0BDFA00DFFEE7000000000000BB
:1003F00010B5BFF34F8FBFF36F8F1C480022C0F8BA
:100400005022BFF34F8FBFF36F8F436943F4003324
:100410004361BFF34F8FBFF36F8FC0F88420BFF3EA
:100420004F8FD0F8803043F6E074C3F34E3CC3F3F3
:10043000C90E4FEA4C1C0CEA0401734641EA837270
:10044000013BC0F860225A1CF8D1ACF1200C1CF121
:10045000200FF0D1BFF34F8F436943F480334361E2
:10046000BFF34F8FBFF36F8F10BD00BF00ED00E0F3
:10047000704700BF00000000000000000000000006
:10048000FEE700BF000000000000000000000000C8
:10049000F8B52B4D2B4F2C4905F170042B482C4AF5
:1004A00088420DD2043A034652F8046F43F8046BB5
:1004B0008B42F9D34B1E1B1A23F003030433184459
:1004C000B84207D2013F00213F1A27F0030204324D
:1004D00002F030FBA54205D0D5E90420D5E9061786
:1004E0001035DDE71B480023C0F88430BFF34F8F81
:1004F000D0F8805043F6E076C5F34E34C5F3C90515
:10050000640104EA06012B4641EA8372013BC0F80C
:100510006C225A1CF8D1203C14F1200FF1D1BFF30A
:100520004F8FBFF36F8FBFF34F8FBFF36F8F0023DA
:10053000C0F85032BFF34F8FBFF36F8FF8BD00BFCD
:10054000D82B0008800C0024800C0024800C002490
:100550002C2E000800ED00E000000000000000006C
:100560004FF08043586A7047000000000000000010
:100570004FF080430021022258631961DA6070470E
:100580004FF080430022DA60704700BF0000000097
:100590004FF08043586370470000000000000000E7
:1005A000D0E90532934211D0826810B501325C1C4B
:1005B000826044611970D0E904329A4201D3C36861
:1005C0004361002102F03CFA002010BD8268002A3D
:1005D000EAD04FF0FF30704700000000000000003C
:1005E000D0E905239A4210D08268591C013210B517
:1005F000816182601C780369994201D3C368836179
:10060000002102F01DFA204610BD8268002AEBD0BE
:100610004FF0FF30704700BF0000000000000000F6
:1006200038B5436904460D463BB1294604F10C0038
:10063000FFF7B6FF00280BDB38BD0421084402F0A9
:100640000FFA294604F10C00FFF7AAFF0028F3DA9D
:10065000201D4FF40061BDE8384002F001BA00BF30
:1006600070B5022300250446242203702946C0F8F1
:1006700088500C3040F8045C02F05CFA204684F8A4
:10068000705000F0BDFF63681B6823B12946204607
:10069000BDE87040184770BD000000000000000079
:1006A0000378052B0DD00521426880F88C3001704D
:1006B000136810B504460BB1042198470023A360CA
:1006C00010BD7047000000000000000000000000A6
:1006D0000178052900D0704790F88CC0426880F8F6
:1006E00000C01368002BF6D0184700BF00000000C0
:1006F00070B590F87030044613B1002380F8703064
:1007000004F18002204601F01BF863689B6853B334
:100710002046984738B3A56F94F88030B4F8862007
:10072000AA422CBF2A46A267190600F1DA80002AE5
:1007300000F08D801522302384F8702083F3118817
:1007400062892046E36842F001029B696281D4E934
:100750001D51002419609D6021465C6001F000F885
:1007600084F3118870BD94F8803013F06006184649
:100770001CD194F8812003F07F0545EA022540F260
:100780000232954200F0518140D8B5F5807F00F0EB
:1007900008811DD9B5F5817F00F01281B5F5407F44
:1007A00004D194F88230012B00F0D3800021204640
:1007B00001F04EFB0021204601F03AFB63681B6804
:1007C00013B1062120469847062384F8703070BD87
:1007D000012D61D0022D51D194F98430204694F836
:1007E0008410002B01F00F01C0F2AC8000F088FFF4
:1007F000012800F0AC800228D8D19A4902230022B7
:10080000C4E91D13E26794F8803087E7B5F5006FFF
:1008100000F0038147D9B5F5106F39D12378042B47
:1008200000F0A18094F882304BB10421626884F812
:100830008B302170136813B10221204698470023A2
:1008400094F88000C4E91D33E367030663D40B22E8
:10085000302384F8702083F3118822890025E3680F
:10086000204642F0010229465B6922819D60C3E96E
:10087000005501F00DF885F3118870BD002D95D15C
:10088000022204F18801E56761671546A26745E722
:1008900040F60242954289D1022573490022C4E9FB
:1008A0001D15E2673AE7B5F5A06F00F09F80A5F54A
:1008B000C065012D3FF67AAF61682046B4F88430F8
:1008C0004D6894F8822094F88310A84700283FF4DC
:1008D0006DAF94F88030D0E90052E667C4E91D2579
:1008E0001CE7C2B10922302384F8702083F31188F9
:1008F00022892046E36842F001025B692281D4E943
:100900001D51002419609D6021465C6000F0C0FF0D
:1009100084F3118870BD1422302384F8702083F38F
:10092000118862890025E368204642F001022946C9
:100930009B6962819D60C3E9005500F011FF85F35A
:10094000118870BD00F0ECFE01287FF454AF4749D8
:1009500054E7B4F88830E66743F00203C4E91D6643
:10096000A4F8883071E7302383F31188A36820222C
:10097000314604F1100003F00113A36002F0DAF82D
:10098000204600F0B5FE86F311880321636884F8E1
:100990008B6021701B68002B3FF444AF20469847C2
:1009A00040E794F88230012B7FF400AFB4F8883030
:1009B000E66723F00203C4E91D66A4F8883044E723
:1009C00094F88230002B7FF4F1AE94F8843013F069
:1009D0000F0106D01E06204639D401F049FA94F8DA
:1009E00080000023C4E91D33E3672EE7B4F88030AC
:1009F000B3F5A06FF5D194F88230204684F88A30A0
:100A000000F066FE63681B6813B101212046984719
:100A1000032394F880002370E3E7012204F18B01A3
:100A2000E6671546C4E91D1278E694F88230002B7B
:100A30007FF4BCAE94F8843013F00F01D1D01D06C2
:100A4000204609D401F0F4F994F88000C9E701F0D8
:100A50001FFA94F88000C4E701F0FAF994F88000D6
:100A6000BFE700BF582C0008602C00085C2C000871
:100A700038B590F870300446152B27D8DFE803F01E
:100A80002726262626262726260B10382626262623
:100A9000262626262727856FB0F886309D422ED33E
:100AA0001422302384F8702083F311886289002592
:100AB000E368204642F0010229469B6962819D60FD
:100AC000C3E9005500F04CFE85F3118838BD0021C4
:100AD00001F0BEF90021204601F0AAF963681B6805
:100AE00013B1062120469847062384F8703038BD9C
:100AF000C36F03B19847002384F8703038BDC368D2
:100B00001B8AB5FBF3F203FB1255002DC8D130232D
:100B100083F3118802892946C36842F001025B69A8
:100B200002819D60C3E9005500F0B2FE85F3118893
:100B30000A2384F8703038BD000000000000000077
:100B400038B590F870300446152B21D8DFE803F053
:100B50002120202020202120202121212020202090
:100B600020202020320B0B22302380F8702083F3CA
:100B7000118802890025C36842F0010229465B6999
:100B800002819D60C3E9005500F082FE85F3118863
:100B900038BD002101F05CF90021204601F048F940
:100BA00063681B6813B1062120469847062384F822
:100BB000703038BDC3689B695B68002BE8D1C36F98
:100BC00003B19847002384F8703038BD000000005E
:100BD00010B5074C204601F09BFD064801F068F96E
:100BE000204601F0ADFDBDE8104001F079BF00BF27
:100BF000882C0008B4010024000000000000000060
:100C000010B5074C204601F083FD064801F078FB43
:100C1000204601F095FDBDE8104001F061BF00BF26
:100C20007C2C0008300300240000000000000000BD
:100C300010B5074C204601F06BFD064801F060FB43
:100C4000204601F07DFDBDE8104001F049BF00BF26
:100C5000702C000890030024000000000000000039
:100C600010B5064C204601F053FD01F031FB204643
:100C700001F066FDBDE8104001F032BF642C0008B1
:100C8000664B02206649674A10B40124C1F8084146
:100C9000D3F8F4100143C3F8F410D3F81C11014346
:100CA000C3F81C11D3F81C31D06053689904FCD5EB
:100CB0005D4901235D4C0020116093604FF4404377
:100CC0005849D460106193618B699B04FCD50B6813
:100CD000524A43F480730B60136F03F44073B3F50F
:100CE000007F04D04FF480310023116713674B4914
:100CF0000B6843F001030B600B685C07FCD5002315
:100D0000464A0B61136913F03803FBD14FF0804062
:100D1000012447491460506046485367D16210610E
:100D200013683E4943F4A02313600B689803FCD575
:100D30000A683A4B42F480520A601A689204FCD561
:100D400000223D483D4944F6F05498625A631963C5
:100D5000A1F5FE21DC633E393948996339495A646B
:100D60001864D96219682D4A41F0A85119601368B6
:100D700003F02853B3F1285FF9D148244FF4886376
:100D800040204FF0005194614FF40154D3614FF46F
:100D9000E00310624FF48030D16414652A49536532
:100DA000322390650B600B6803F00F03022BFAD11E
:100DB0001A4A136943F003031361136903F03803FC
:100DC000182BFAD1D2F8DC3010BC43F00053C2F833
:100DD000DC30D2F8043143F00053C2F80431D2F8C9
:100DE0000431D2F8DC3043F08043C2F8DC30D2F872
:100DF000043143F08043C2F80431D2F80431D2F810
:100E0000DC3043F00043C2F8DC30D2F8043143F068
:100E10000043C2F80431D2F804317047004402584C
:100E2000008000510048025800C000F0020000019C
:100E30000000FF0100881008525090019F02090134
:100E40001F07050799034B01002000520000000016
:100E5000104B98420DD0826A9368590706D5936863
:100E600043F0100393609368DB06FCD40023D36146
:100E70007047016B0A68136823F01F03136013683F
:100E8000DB07FCD491F80CC03D234A6803FA0CF34D
:100E90001360E0E7000000240000000000000000F4
:100EA00070B5264801F034FC254D264A2E6913689A
:100EB000136066B313F0100406D02C78A4F1030479
:100EC000B4FA84F464096400180648BF44F00404CA
:100ED000D90523D59A0544F0080401D544F010043F
:100EE0001748FFF7B5FFF3681BB3052221462A70A8
:100EF00098472B78052B1CD0302383F311884FF0B3
:100F0000FF31114801F08CFD002383F311880B4859
:100F100001F016FCBDE8704001F0E2BD9B05DDD498
:100F2000002CDDD1054801F00BFCBDE8704001F05C
:100F3000D7BD022200232A702B61DDE7942C000824
:100F400000000024002002401400002400000000E3
:100F50000A4808B501F0DCFB094B0A4819684268E9
:100F600001F00E0159600AB180689047034801F012
:100F7000E7FBBDE8084001F0B3BD00BFF42C00085A
:100F80000054025838000024000000000000000057
:100F90000B4810B501F0BCFB0A4B0B481968C2683E
:100FA000090901F00E010C015C600AB1006990476B
:100FB000034801F0C5FBBDE8104001F091BD00BF42
:100FC000E82C0008005402583800002400000000FB
:100FD0000B4810B501F09CFB0A4B0B48196842699D
:100FE000090A01F00E010C025C600AB180699047A9
:100FF000034801F0A5FBBDE8104001F071BD00BF42
:10100000DC2C0008005402583800002400000000C6
:101010000B4810B501F07CFB0A4B0B481968C269FC
:10102000090B01F00E010C035C600AB1006A9047E5
:10103000034801F085FBBDE8104001F051BD00BF41
:10104000D02C000800540258380000240000000092
:101050000B4810B501F05CFB0A4B0B481968426A5B
:10106000090C01F00E010C045C600AB1806A904723
:10107000034801F065FBBDE8104001F031BD00BF41
:10108000C42C00080054025838000024000000005E
:101090000B4810B501F03CFB0A4B0B481968C26ABB
:1010A000090D01F00E010C055C600AB1006B904760
:1010B000034801F045FBBDE8104001F011BD00BF41
:1010C000B82C00080054025838000024000000002A
:1010D0000B4810B501F01CFB0A4B0B481968426B1A
:1010E000090E01F00E010C065C600AB1806B90479E
:1010F000034801F025FBBDE8104001F0F1BC00BF42
:10110000AC2C0008005402583800002400000000F5
:101110000B4810B501F0FCFA0A4B0B481968C26B7A
:10112000090F01F00E010C075C600AB1006C9047DA
:10113000034801F005FBBDE8104001F0D1BC00BF41
:10114000A02C0008005402583800002400000000C1
:101150000A4808B501F0DCFA094B0A4819684268E8
:1011600001F03D0199600AB180689047034801F0A1
:10117000E7FABDE8084001F0B3BC00BF542D0008F9
:10118000000002407C00002400000000000000007D
:101190000B4810B501F0BCFA0A4B0B481968C2683D
:1011A000890901F03D018C019C600AB100699047FA
:1011B000034801F0C5FABDE8104001F091BC00BF42
:1011C000482D0008000002407C00002400000000C0
:1011D0000B4810B501F09CFA0A4B0B48196842699C
:1011E000090C01F03D010C049C600AB18069904734
:1011F000034801F0A5FABDE8104001F071BC00BF42
:101200003C2D0008000002407C000024000000008B
:101210000B4810B501F07CFA0A4B0B481968C269FB
:10122000890D01F03D018C059C600AB1006A904770
:10123000034801F085FABDE8104001F051BC00BF41
:10124000302D0008000002407C0000240000000057
:101250000A4808B501F05CFA094B0A485968426A25
:1012600001F03D01D9600AB1806A9047034801F05E
:1012700067FABDE8084001F033BC00BF242D000828
:10128000000002407C00002400000000000000007C
:101290000B4810B501F03CFA0A4B0B485968C26A7A
:1012A000890901F03D018C01DC600AB1006B9047B7
:1012B000034801F045FABDE8104001F011BC00BF41
:1012C000182D0008000002407C00002400000000EF
:1012D0000B4810B501F01CFA0A4B0B485968426BD9
:1012E000090C01F03D010C04DC600AB1806B9047F1
:1012F000034801F025FABDE8104001F0F1BB00BF42
:10130000B42D0008000002407C0000240000000012
:101310000B4810B501F0FCF90A4B0B485968C26B39
:10132000890D01F03D018C05DC600AB1006C90472D
:10133000034801F005FABDE8104001F0D1BB00BF41
:10134000A82D0008000002407C00002400000000DE
:101350000A4808B501F0DCF9094B0A481968426CE3
:1013600001F03D0199600AB1806C9047034801F09B
:10137000E7F9BDE8084001F0B3BB00BF9C2D0008B1
:10138000000402407C000024000000000000000077
:101390000B4810B501F0BCF90A4B0B481968C26C38
:1013A000890901F03D018C019C600AB1006D9047F4
:1013B000034801F0C5F9BDE8104001F091BB00BF42
:1013C000902D0008000402407C0000240000000072
:1013D0000B4810B501F09CF90A4B0B481968426D97
:1013E000090C01F03D010C049C600AB1806D90472E
:1013F000034801F0A5F9BDE8104001F071BB00BF42
:10140000842D0008000402407C000024000000003D
:101410000B4810B501F07CF90A4B0B481968C26DF6
:10142000890D01F03D018C059C600AB1006E90476A
:10143000034801F085F9BDE8104001F051BB00BF41
:10144000782D0008000402407C0000240000000009
:101450000A4808B501F05CF9094B0A485968426E20
:1014600001F03D01D9600AB1806E9047034801F058
:1014700067F9BDE8084001F033BB00BF6C2D0008E0
:10148000000402407C000024000000000000000076
:101490000B4810B501F03CF90A4B0B485968C26E75
:1014A000890901F03D018C01DC600AB1006F9047B1
:1014B000034801F045F9BDE8104001F011BB00BF41
:1014C000602D0008000402407C00002400000000A1
:1014D0000B4810B501F01CF90A4B0B485968426FD4
:1014E000090C01F03D010C04DC600AB1806F9047EB
:1014F000034801F025F9BDE8104001F0F1BA00BF42
:101500000C2D0008000402407C00002400000000B4
:101510000B4810B501F0FCF80A4B0B485968C26F34
:10152000890D01F03D018C05DC6012B1D0F880001E
:101530009047034801F004F9BDE8104001F0D0BA2B
:10154000002D0008000402407C0000240000000080
:10155000124A0023F0B5D2E924414FF0010E02F106
:10156000080C8E685CF8040F03F110020EFA03F108
:101570005D1C87690EFA02F227B1D4F81C783A4351
:10158000C4F81C28426922B1D4F81C281143C4F8BD
:101590001C189E422B46E5D1F0BD00BF000100247F
:1015A00070B400224FF0FF348E6800EB421102F15C
:1015B000010CD1F800590B46002D05DAD1F800597D
:1015C00045F08045C1F80059D1F8005B002D05DADF
:1015D000D1F8005B45F08045C1F8005BB242C3F82A
:1015E00008496246C3F8084BDFD14FF0011370BCC5
:1015F000C0F81C38704700BF000000000000000069
:10160000F8B52023D0F8905007462B612C6914F0D0
:101610002004FBD112204FF0006601F011F8D7F83A
:1016200094C04FF001134FF0FF31DCF80800C5F80B
:101630003448C5F81C3805EB4413844204F1010416
:10164000C3F80069C3F8006BC3F80819C3F8081B96
:10165000F1D1DCF800301021D7F89020C7F898308D
:101660006B621161146914F01004FBD1122000F0B8
:10167000E7FFD5F80028124B22F4FE621149C5F8A5
:101680000028AA6913430922AB61C5F81028D7F8CE
:101690009830C5F81428F9604FF0C0410A4AC5F8DF
:1016A000101B03F1100143F48013C5F8002BC5F89B
:1016B0001049C5F80029C7F89810AB62F8BD00BF03
:1016C00010000C00CC2D000840800010000000002D
:1016D000D0F8902090F88A10D2F8003823F4FE63F6
:1016E00043EA0113C2F80038704700BF0000000051
:1016F0000346D0E924010A68C3F89820FFF750BFD9
:101700005831D0F8903049015B5813F4004004D0B0
:1017100013F4001F0CBF02200120704700000000DE
:101720004831D0F8903049015B5813F4004004D0A0
:1017300013F4001F0CBF02200120704700000000BE
:1017400000EB8100C3681B6A19685B681160536015
:10175000704700BF00000000000000000000000013
:1017600000EB8103DA68936910B41C68DC6009B986
:10177000402C25D8538A1268D0F8900002F0030C50
:101780005A1E2244BCF1010FB2FBF3F202FB03F339
:1017900003F1030323F0030343EAC24300EB4112C6
:1017A00043F0C043C2F8103B0DD009B200EB41102A
:1017B00010BCD0F8003B43F00443C0F8003B704736
:1017C00040241C60D6E7D0F8083800EB411209B27B
:1017D00013F4807FD2F8003B14BF43F0805343F0F2
:1017E0000053C2F8003BE1E70000000000000000E9
:1017F0002DE9F041244F0446D7F8906006EB4013E2
:10180000D3F8085B2807C3F8085B03D5D6F814386B
:10181000190731D4EA072DD5D6F81438DB0729D5B6
:1018200007EB8403D9688A6954B9488A5368B3FBC3
:10183000F0F500FB15331BB91068D36898420DD33F
:1018400001227B89CD68A24023EA02037B818DB10E
:1018500021462B460C48BDE8F04118471B1A54603E
:101860003021136081F3118807482146FFF778FF84
:1018700084F31188BDE8F08107EB840321463846E4
:10188000DB685B689847C5E70001002400000000A2
:1018900000EB810310B4DC6862691368D360F3B9AC
:1018A000D0F890204FF4002002EB4113C3F8100948
:1018B000236803F00303012B2AD008B202EB401087
:1018C0000123D0F800498B4044F00444C0F800499B
:1018D000D2F8341810BC0B43C2F83438704709B939
:1018E000402B26D8B4F810C0D0F890200CF1FF306F
:1018F0001844B0FBFCF043EAC04302EB411043F054
:101900000053C0F81039236803F00303012BD4D12E
:10191000D2F8083808B213F4807F02EB4113D3F8F1
:10192000004914BF44F0805444F00054C3F8004907
:10193000C4E740231360D5E700000000000000006A
:101940002DE9F84FDFF8049104464FEA401BD9F81F
:10195000906006EB4013D3F80859E907C3F808591B
:1019600003D5D6F81038DA070CD42B0608D54FF07B
:101970000108D6F8343808FA04F813EA080F18D129
:10198000BDE8F88F09EB8003D9684B691868DA68FD
:1019900090424AD30122B9F808308F68A24023EA66
:1019A0000203A9F80830002FDFD021464846B84787
:1019B000DBE709EB8403DB685E69D6E90075AF42BB
:1019C00041D90134D9F890A0B3F81090E4B20AEBF1
:1019D0000B0E0AEB0430A7EB050CDEF81839CC45EA
:1019E0009BB228BFCC46BCEB830FC9D8B468BCF10E
:1019F000040F236803600BD9ACF10501234621F0E5
:101A000003010431214453F8042F99420260FAD1B2
:101A100065446444BD42C6E90154DCD3DAF8343885
:101A200023EA0803CAF83438AAE7121A00271A6012
:101A30005F60302383F3118821464846FFF728FF73
:101A400087F3118891E7D9F890A0E7E70001002417
:101A50002DE9F84FB24E4FF04009B24800F058FE61
:101A6000D6F890706EE0290500F18E80AA040CD59E
:101A7000D7F8083813F0060FFB6823F470530CBF37
:101A800043F4105343F4A053FB602B070ED5746846
:101A9000E368002B00F076813378052B00F07A8123
:101AA000FFF756FDE3680BB130469847EC0273D45C
:101AB000A80200F1B4802B03D7F818481AD5E00328
:101AC00000F13C81A10300F13581620300F12E8118
:101AD000230300F12081E00200F11981A10200F14D
:101AE0001281620200F10B81230200F10481E00106
:101AF00000F1F98069031AD5E20700F13F81A307DD
:101B000000F13881600700F13181210700F12A815D
:101B1000E20600F12381A30600F11C81600600F1BA
:101B20001581210600F10E81E20500F1E080EB064F
:101B300000F1A2807C4B1D4200F0CE80B9F101097A
:101B400000F0CA807D69BB691D4015F480587D6135
:101B500040F05F81002D86DAD7F8003E980705D067
:101B6000D7F8003E23F00303C7F8003EFFF7F0FC70
:101B7000D7F80438304623F00103C7F80438FEF7DD
:101B8000A7FD29057FF572AFD6E92401FFF708FD0F
:101B90003046FEF785FD69E70021D6F890B04FF09A
:101BA000010A0C4608E00134D6F89430E4B29B6890
:101BB0009C4221463FF67CAF0BEB4412D2F8003931
:101BC00003F44023B3F5802FEDD1D2F80039002B78
:101BD000E9DAD2F8003943F09043C2F80039D2F87C
:101BE0000039002BFBDB8901D6F8902041F0200161
:101BF000116113699906FCD4122000F021FD33898C
:101C000006EB84020AFA04F1D26823EA010392681F
:101C10003381002AC7D0214630469047C3E7D6F823
:101C200090A000244FF0010B07E00134D6F8943067
:101C3000E4B29B689C423FF63EAF0AEB4412D2F8F6
:101C4000003B03F44023B3F5802FEED1D2F8003BE4
:101C500006EB84010BFA04F2002BE6DA73893046B6
:101C6000D1F80CC0214623EA0203DCF80C20738172
:101C7000002ADAD09047D8E7D6F890100B6A03F420
:101C8000F010C3F30A1203F00F03B0F5802F00F039
:101C90008C80B0F5402F7FF44DAF06EB8303DB68FB
:101CA000186A002A3FF446AF01F58054002313F070
:101CB000030F014601D1D4F80080072B03F1010383
:101CC00004D801F8018B4FEA182808469A42EED151
:101CD000154B1D427FF432AF124800F031FDBDE8D4
:101CE000F84F00F0FDBE0820FFF782FD02E7082054
:101CF000FFF726FE1BE70720FFF77AFDF7E6062031
:101D0000FFF776FDF0E60520FFF772FDE9E6042017
:101D1000FFF76EFDE2E60320FFF76AFDDBE600BF9A
:101D200000010024C02D0008300000040220FFF74D
:101D30005FFDCDE60120FFF75BFDC6E60020FFF763
:101D400057FDBFE60720FFF7FBFDEDE60620FFF796
:101D5000F7FDE6E60520FFF7F3FDDFE60420FFF7D9
:101D6000EFFDD8E60320FFF7EBFDD1E60220FFF7F9
:101D7000E7FDCAE60120FFF7E3FDC3E60020FFF719
:101D8000DFFDBCE6BB6923F00803BB613378052B9C
:101D90007FF486AED7F8003E304623F00303C7F841
:101DA000003EFEF795FC74687AE6981C06EB80030B
:101DB0005B68D3F818C0DCE90043A4EB030EDCF841
:101DC0000840D2B101F5805C002313F0030F2146D7
:101DD00001D1DCF800809E4503F1010304D901F82C
:101DE000018B4FEA18280C469A42EED106EB80038D
:101DF0005B68D3F818C0DCE90134724504D214449E
:101E00001A44CCE9012495E674447344CCE90134C6
:101E100090E60548FEF724FC044800F091FCBDE87C
:101E2000F84F00F05DBE00BF00010024C02D000887
:101E3000D0F8903003EB4111D1F8003B43F400138C
:101E4000C1F8003B704700BF000000000000000028
:101E5000D0F8903003EB4111D1F8003943F400136E
:101E6000C1F80039704700BF00000000000000000A
:101E7000D0F8903003EB4111D1F8003B23F400136C
:101E8000C1F8003B704700BF0000000000000000E8
:101E9000D0F8903003EB4111D1F8003923F400134E
:101EA000C1F80039704700BF0000000000000000CA
:101EB000302310B583F311880024436C4030214651
:101EC000DC6300F0ADFD84F3118810BD000000005C
:101ED0000022124B0A604A60426910B41340402449
:101EE00042780C6143F440434FF0FF348C618B60C7
:101EF00042B1836910BC23F4C023CB6040F20113CC
:101F00000B6070478269064B10BC134043F00153CD
:101F1000CB6040F201130B60704700BF1F3EFFFF14
:101F2000FFFFB9DF0000000000000000000000001B
:101F300090F8203010B4002B34D0836AD3E90041EC
:101F40000A6822F00F020A60197A0E23426A03FA25
:101F500001F161605468216821F00F012160117A5C
:101F600012688B405360474B98423AD0464B984298
:101F70004BD0464B98425CD0454B98426DD0454B78
:101F8000984251D1444BD3F89C2042F02002C3F830
:101F90009C20D3F89C2022F02002C3F89C20D3F888
:101FA0009C3041E0846A2268136823F01F031360A9
:101FB0001368D907FCD4227B3D23416A93406468AF
:101FC0000A682360136823F01F0313601368DB079C
:101FD000FCD40C7B3D234A68A3401360294B9842F4
:101FE000C4D12D4BC169D3F89820406842F4805287
:101FF00010BCC3F89820D3F8982022F48052C3F87C
:102000009820D3F89830FFF763BF234BD3F8902084
:1020100042F48042C3F89020D3F8902022F480420A
:10202000C3F89020D3F89030C16910BC4068FFF726
:102030004FBF194BC169D3F89020406842F4004269
:1020400010BCC3F89020D3F8902022F40042C3F8CB
:102050009020D3F89030FFF73BBF0F4BC169D3F806
:102060009820406842F4801210BCC3F89820D3F83E
:10207000982022F48012C3F89820D3F89830FFF704
:1020800027BF00BF04020024400200247C02002479
:10209000B8020024F40200240044025800000000AA
:1020A00010B5164C164800F033FBE269536911690C
:1020B0000B4093615B0606D4114800F041FBBDE87C
:1020C000104000F00DBD2046FFF732FF63689B68AB
:1020D0000BB120469847302383F311886FF012012B
:1020E000084800F09DFC002383F31188044800F0A9
:1020F00027FBBDE8104000F0F3BC00BF0402002441
:10210000202E00080C020024000000000000000047
:1021100010B5164C164800F0FBFAE26953691169D4
:102120000B4093615B0606D4114800F009FBBDE843
:10213000104000F0D5BC2046FFF7FAFE63689B68AC
:102140000BB120469847302383F311886FF01201BA
:10215000084800F065FC002383F31188044800F070
:10216000EFFABDE8104000F0BBBC00BF4002002405
:10217000142E0008480200240000000000000000A7
:1021800010B5164C164800F0C3FAE269536911699C
:102190000B4093615B0606D4114800F0D1FABDE80C
:1021A000104000F09DBC2046FFF7C2FE63689B68AC
:1021B0000BB120469847302383F311886FF012014A
:1021C000084800F02DFC002383F31188044800F038
:1021D000B7FABDE8104000F083BC00BF7C020024C9
:1021E000082E000884020024000000000000000007
:1021F00010B5164C164800F08BFAE2695369116964
:102200000B4093615B0606D4114800F099FABDE8D3
:10221000104000F065BC2046FFF78AFE63689B68AB
:102220000BB120469847302383F311886FF01201D9
:10223000084800F0F5FB002383F31188044800F000
:102240007FFABDE8104000F04BBC00BFB80200248C
:10225000FC2D0008C0020024000000000000000067
:1022600010B5164C164800F053FAE269536911692B
:102270000B4093615B0606D4114800F061FABDE89B
:10228000104000F02DBC2046FFF752FE63689B68AB
:102290000BB120469847302383F311886FF0120169
:1022A000084800F0BDFB002383F31188044800F0C8
:1022B00047FABDE8104000F013BC00BFF402002450
:1022C000F02D0008FC0200240000000000000000C7
:1022D0004FF0804208B51169D3680B40D9B29B0713
:1022E0006FEA0101116100D408BD302383F3118826
:1022F00000F09EF9002383F3118808BD0000000060
:102300002DE9F047456D0646EC6922072C6256D14F
:10231000E20548D4A00610D54FF03008002788F316
:1023200011886B6A304696F85C101940FEF778F910
:1023300087F31188EC69A306F1D4D5F800A01AF050
:10234000800F1DD021061BD506F1300830274FF035
:10235000000905E0A86289F31188EC6922060FD50F
:1023600087F311884046FEF73BF90028F2DA08218E
:10237000301D00F075FB2AF0800A002383F31188DA
:102380001AF0400F0BD0630609D5302383F3118870
:10239000D6E911239A422DD0002383F31188C5F882
:1023A00000A0BDE8F087302383F311884FF48061EB
:1023B000301D00F055FB002383F31188AAE7C4F316
:1023C000C001E3074FF030034FEA012148BF41F05D
:1023D0002001A70748BF41F04001600748BF41F016
:1023E000800183F31188301D00F03AFB002383F352
:1023F00011888DE7B36B002BCED01021301D2AF051
:10240000400A00F02DFBC7E70000000000000000BC
:10241000664A40F2FF700023D2F88810014370B47E
:10242000C2F88810624CD2F88810624D0C406249A4
:10243000624EC2F88840D2F88840D2F8E0400443A7
:10244000C2F8E040D2F8084104435D48C2F80841B0
:102450004FF4C044D2F808214B608D60CB604C61D2
:102460000A24584A0C62584C584D4C62584C0C6027
:1024700001F54061574C436084608024C36044612F
:10248000554C0462554C4462554C04604020554CF8
:1024900053609460544CD360536113625462534C44
:1024A000146002F50062524C4B608C60514CCB6062
:1024B00048610C6204F1F8444C624F4C0C604F4C84
:1024C000536094600424D36054614D4C14624FF007
:1024D000CC34546204F15E44A4F50814A4F6F2442A
:1024E0001460C1F80438C1F808586FF4D575C1F804
:1024F0000C38C1F814084348434CC1F8200800F1D7
:10250000F840A0F67740C1F82408A0F10950A0F5E2
:10251000093028444FF0FF35C1F800083B49C2F8A4
:102520000438C2F808184FF48061C2F80C38C2F8B9
:10253000141837493748C2F820183749C2F8241808
:10254000A1F1D551A1F5D411A1F27251C2F8001830
:102550004FF443626360A260E360636126626FF4DC
:102560008266636226602D4C43608460A4F1AB44B4
:10257000C360A4F5DD1443612949A4F67C74294A9B
:102580000462294C436204604B608B60CB604B61FA
:102590000B624B620D6053609360D36053611362B2
:1025A0005362156070BCFEF76BBB00BF004402585D
:1025B00000F8FFFF1714FD3F00000258000CC00098
:1025C000000402580008025870A70A00FFDFDFFF6E
:1025D000D6D7A8EAC04F00FF00606600000088CC94
:1025E000BF7AFFAA0000FF07CCCC0C00FFFFAAF2C5
:1025F0003FD07FF0CC0C0050EA9F6AAF1FC0FFFFB6
:10260000CC0000C0CCCCCC50001C02583F1FDFFFD8
:10261000CC0CCC00002002585C5055C5CCFF4500C6
:102620000024025800280258BBAA71FF00000000D5
:1026300000F0CEB800000000000000000000000024
:10264000034A516853685B1A9842FBD8704700BF31
:10265000001000E00000000000000000000000008A
:10266000024A536B03435363704700BFF0030024D7
:1026700038B50C4CD4F88C50FDF772FFD4F88C3080
:1026800004F50961084A686050681A6860F31F22FF
:1026900043F8102B04F190028B4228BF1346C4F874
:1026A0008C3038BDF0030024001000E00000000072
:1026B000094BB3F88820D20700D5704790F8242042
:1026C00010B4D3F88C40D30043F00103C4E90201F5
:1026D000237010BCFFF7CCBFF00300240000000003
:1026E0000A4BB3F88820920700D5704710B491F8D0
:1026F0002420D3F88C40D300896A43F00203C4E954
:102700000201237010BCFFF7B3BF00BFF003002429
:102710000A4AB2F8883010B513F0040400D010BD96
:10272000302383F311880321D2F88C30197098601C
:10273000FFF79EFF84F3118810BD00BFF003002453
:102740000A4AB2F8883010B513F0040400D010BD66
:10275000302383F311880421D2F88C3019709860EB
:10276000FFF786FF84F3118810BD00BFF00300243B
:10277000F8B51446144D03460E4605F11002022C1E
:10278000E9614FF00207846038BF022442602A6981
:102790000260506008192B61FDF7EAFEFDF7E0FECC
:1027A000821B0346A24207D2022F00D8F8BD0120A7
:1027B000BDE8F840FFF754BF7C1C301927461E4681
:1027C000FDF7E6FEEAE700BFF0030024000000008A
:1027D0002DE9F84F3C4E00274FF0300906F1100864
:1027E00009E087F31188D4E903312046984789F33B
:1027F00011886369ABB93469FDF7B2FEF369054628
:10280000A268C11A8A422CD89D18D4E90010F5613B
:1028100001604860276033694345E2D1FDF7B0FEAF
:10282000DFE7FDF79DFE6369A0EB050B82465B4584
:102830002FD3316941453DD08A68934204D9096854
:102840009B1A8A689A42FAD34A68A360C4E90012C4
:1028500014608A684C60D21A4FF0FF338A60B3610B
:10286000C9E73169414512D013440227F0611B1AB0
:10287000BB421E46A36038BF3E46A819FDF788FE3E
:10288000FDF76EFE451BAE4210D9022F09D8BDE8F8
:10289000F88F0220FFF7E4FE3169414512D05B4614
:1028A000CAE70120BDE8F84FFFF7DABE0137054659
:1028B0003E46E2E72B441A1A51462046BDE8F84F3F
:1028C000FFF756BF0022F7E7F003002400000000E6
:1028D00010B50446816AFFF7EBFE0022A369A168E8
:1028E00084F824201B689A688A42FBD25A682046E2
:1028F0002360626014605C6010BD00BF00000000D7
:1029000038B50B4B01211C68DD6885F82400204692
:10291000226853601A6084F824102946DC60FFF7AF
:10292000DFFE29462046BDE83840FDF749BD00BF1F
:10293000F003002400000000000000000000000080
:10294000044B1A68DB6890689B68984294BF00202B
:1029500001207047F0030024000000000000000088
:1029600038B5134B01211D68DC682A682046536086
:102970001A6085F82410A16ADD60FFF799FE002235
:10298000A369A16884F824201B689A688A42FBD84E
:102990005A68214623602846626014605C60FFF735
:1029A0009FFE21462846BDE83840FDF709BD00BF1F
:1029B000F003002400000000000000000000000000
:1029C00038B5302383F31188124BDC6804F12C05F1
:1029D000E36AA0629D4207D194F8263083B10F20AC
:1029E000BDE83840FFF78CBF1A681846E262FFF76F
:1029F0006FFFE36AAB42F7D194F82630002BEED19B
:102A000094F825309B07EAD1D4E9043213605A6068
:102A1000E5E700BFF0030024000000000000000014
:102A20000346006820B100221A608162FFF750BFA0
:102A3000704700BF00000000000000000000000020
:102A400003460068834205D002681A6053608162C1
:102A5000FFF73EBF704700BF00000000000000000D
:102A6000F8B50468A04221D007460D46002604E0D0
:102A70000B2A1CD02468A74218D0E3682B43E360DC
:102A800015B123691D42F5D0D4E90103816B90F89B
:102A900024200B430A2A8363EAD1826A1342E9D0D5
:102AA0008662FFF715FF2468A742E6D1F8BD826A67
:102AB0009A43DFD1F4E700BF0000000000000000EF
:102AC000EFF30983203383F30988002383F311880C
:102AD000704700BF00000000000000000000000080
:102AE000302383F311880D4B5B6813F4006302D12C
:102AF00083F31188704710B5EFF309844FF08073AA
:102B0000203CE36184F30988FFF71AFF10B1044BFE
:102B1000A36110BD034BA36110BD00BF00ED00E039
:102B2000E3030008E60300080000000000000000C6
:102B300000207047830730B548D0541E002A3FD08C
:102B4000CAB2034601E0013C3AD303F8012B9D07CA
:102B5000F9D1032C2DD9CDB245EA05250F2C45EA34
:102B6000054536D9A4F1100222F00F0C03F1200E16
:102B7000E6444FEA121C03F1100242E9045542E90F
:102B8000025510327245F8D10CF1010214F00C0F0D
:102B900003EB021204F00F0C13D0ACF1040323F08A
:102BA00003030433134442F8045B9342FBD10CF05B
:102BB00003042CB1C9B21C4403F8011B9C42FBD195
:102BC00030BD64461346002CF4D1F9E703461446A1
:082BD000BFE71A46A446E0E746
:102BD8002C2E0008800C0024800C0024800C00247B
:102BE8002C2E0008000000300000003000000030EB
:102BF8002C2E0008000000300000003000000030DB
:102C08002C2E0008000004300000043000000430BE
:102C18002C2E0008000000380000003800000038A2
:102C28002C2E0008000800200008002000080020C2
:102C38002C2E00080000000000000000000000002A
:102C48002C2E0008000080380000803800008038F2
:102C580000000000010000000000000056656374D9
:102C68006F72423000000000566563746F72313134
:102C780034000000566563746F724434000000002D
:102C8800566563746F7231303400000056656374A2
:102C98006F72383800000000566563746F72323600
:102CA80030000000566563746F72323543000000CF
:102CB800566563746F723235380000005665637468
:102CC8006F72323534000000566563746F723235A6
:102CD80030000000566563746F72323443000000A0
:102CE800566563746F723234380000005665637439
:102CF8006F72323434000000566563746F72313578
:102D080038000000566563746F7231353400000076
:102D1800566563746F72383000000000566563743E
:102D28006F72374300000000566563746F7237385E
:102D380000000000566563746F72373400000000AD
:102D4800566563746F72373000000000566563740F
:102D58006F72364300000000566563746F72313538
:102D680030000000566563746F7231333000000024
:102D7800566563746F7231324300000056656374A0
:102D88006F72313238000000566563746F723132E9
:102D980034000000566563746F72313230000000F1
:102DA800566563746F72464300000000566563748D
:102DB8006F72383400000000566563746F723144D6
:102DC8003400000000000000F1060008710A000845
:102DD800410B0008400040009C0100249C01002495
:102DE80001000000AC010024566563746F7231392C
:102DF80038000000566563746F7231393400000082
:102E0800566563746F723130430000005665637411
:102E18006F72443000000000566563746F7243435C
:042E280000000000A6
:04000005080003B933
:00000001FF
