:020000040800F2
:1000000000040020B9030008BB030008BB0300087C
:10001000BB030008BB030008BB030008BB030008C8
:10002000BB030008BB030008BB030008314A0008FB
:10003000BB030008BB030008BB030008BB030008A8
:10004000BB030008BB030008BB030008BB03000898
:10005000BB030008BB030008BB030008BB03000888
:10006000BB030008BB030008BB030008711E0008A7
:10007000B11E0008F11E0008311F0008711F0008A2
:10008000B11F0008F11F0008811B0008BB03000816
:10009000BB030008BB030008BB030008BB03000848
:1000A000BB030008BB030008BB030008BB03000838
:1000B00091170008BB030008BB030008BB0300083E
:1000C000BB030008BB030008BB030008A1360008FF
:1000D0001137000831170008BB030008BB030008F4
:1000E000BB030008BB030008BB030008BB030008F8
:1000F000BB030008BB030008BB0300083120000855
:10010000BB03000801170008BB0300088137000883
:10011000BB03000861170008BB030008BB0300080D
:1001200071200008B1200008F120000831210008EA
:1001300071210008BB030008BB030008BB030008D3
:10014000BB030008BB030008BB030008BB03000897
:10015000B1210008F121000831220008BB0300088A
:10016000BB030008BB030008BB030008BB03000877
:10017000BB030008BB030008BB030008BB03000867
:10018000BB030008BB030008BB030008BB03000857
:10019000BB030008F137000861380008BB03000802
:1001A000BB030008BB030008BB030008BB03000837
:1001B000BB030008BB030008BB030008BB03000827
:1001C000BB030008BB030008BB030008BB03000817
:1001D000BB030008E1280008BB030008BB030008BC
:1001E000BB030008BB030008BB030008BB030008F7
:1001F000BB030008BB030008BB030008BB030008E7
:10020000BB030008BB030008BB030008BB030008D6
:10021000BB030008BB030008BB030008BB030008C6
:10022000BB030008BB030008BB030008BB030008B6
:10023000BB030008BB030008BB030008BB030008A6
:10024000BB030008311C0008711C0008B11C000829
:10025000F11C0008311D0008711D0008B11D0008C7
:10026000F11D0008BB030008BB030008BB03000826
:10027000BB030008BB030008BB030008BB03000866
:10028000BB030008BB030008BB030008BB03000856
:10029000BB030008BB030008BB030008BB03000846
:1002A000BB030008BB030008BB030008BB03000836
:1002B000BB030008BB030008BB030008BB03000826
:1002C000BB030008BB030008BB030008BB03000816
:1002D000BB030008BB030008BB030008BB03000806
:1002E00072B6264880F30888254880F30988254897
:1002F00025490860022080F31488BFF36F8F00F057
:100300000FF903F08DFC4FF0553020491B4A914204
:100310003CBF41F8040BFAE71D49194A91423CBF22
:1003200041F8040BFAE71B491B4A1C4B9A423EBF9B
:1003300051F8040B42F8040BF8E700201849194A59
:1003400091423CBF41F8040BFAE700F039F900F0A4
:1003500027F9154C154DAC4203DA54F8041B8847B5
:10036000F9E704F0CDFB124C124DAC4203DA54F81D
:10037000041B8847F9E700F01BB9000000040020C7
:10038000000800200000000808ED00E00000002048
:100390000004002070500008000000240000002429
:1003A00000000024680E0024E0020008E0020008BB
:1003B000E0020008E002000892E700F000F8FEE723
:1003C0002DE9F04FC1F80CD0D0F80CD0BDE8F08F7B
:1003D000002383F311882846A047002004F090F9F9
:1003E000FEE704F095F800DFFEE70000844641EAEE
:1003F000000313F003036DD1403A41D351F8043B9D
:1004000040F8043B51F8043B40F8043B51F8043BEE
:1004100040F8043B51F8043B40F8043B51F8043BDE
:1004200040F8043B51F8043B40F8043B51F8043BCE
:1004300040F8043B51F8043B40F8043B51F8043BBE
:1004400040F8043B51F8043B40F8043B51F8043BAE
:1004500040F8043B51F8043B40F8043B51F8043B9E
:1004600040F8043B51F8043B40F8043B51F8043B8E
:1004700040F8043B51F8043B40F8043B403ABDD2FD
:10048000303211D351F8043B40F8043B51F8043B9F
:1004900040F8043B51F8043B40F8043B51F8043B5E
:1004A00040F8043B103AEDD20C3205D351F8043B2E
:1004B00040F8043B043AF9D2043208D0D2071CBFFA
:1004C00011F8013B00F8013B01D30B880380604623
:1004D000704700BF082A13D38B078DD010F0030399
:1004E0008AD0C3F10403D21ADB071CBF11F8013B09
:1004F00000F8013B80D331F8023B20F8023B7BE758
:10050000043AD9D3013A11F8013B00F8013BF9D282
:100510000B7803704B7843708B788370604670471C
:1005200010B5BFF34F8FBFF36F8F1C480022C0F888
:100530005022BFF34F8FBFF36F8F436943F40033F3
:100540004361BFF34F8FBFF36F8FC0F88420BFF3B9
:100550004F8FD0F8803043F6E074C3F34E3CC3F3C2
:10056000C90E4FEA4C1C0CEA0401734641EA83723F
:10057000013BC0F860225A1CF8D1ACF1200C1CF1F0
:10058000200FF0D1BFF34F8F436943F480334361B1
:10059000BFF34F8FBFF36F8F10BD00BF00ED00E0C2
:1005A000704700BF000000000000000000000000D5
:1005B000FEE700BF00000000000000000000000097
:1005C000F8B52B4D2B4F2C4905F170042B482C4AC4
:1005D00088420DD2043A034652F8046F43F8046B84
:1005E0008B42F9D34B1E1B1A23F003030433184428
:1005F000B84207D2013F00213F1A27F0030204321C
:1006000004F098FAA54205D0D5E90420D5E90617EB
:100610001035DDE71B480023C0F88430BFF34F8F4F
:10062000D0F8805043F6E076C5F34E34C5F3C905E3
:10063000640104EA06012B4641EA8372013BC0F8DB
:100640006C225A1CF8D1203C14F1200FF1D1BFF3D9
:100650004F8FBFF36F8FBFF34F8FBFF36F8F0023A9
:10066000C0F85032BFF34F8FBFF36F8FF8BD00BF9C
:10067000D84B0008680E0024680E0024680E002481
:100680007050000800ED00E00000000000000000D5
:1006900008B501F0A5F801F013FE00F031FA00F002
:1006A000F7FC00F095FC00F02BFD00F041FD03F09D
:1006B000D7FBBDE8084000F003B800BF0000000011
:1006C00003F07EB900000000000000000000000000
:1006D0004FF08043586A704700000000000000009F
:1006E0004FF080430021022258631961DA6070479D
:1006F0004FF080430022DA60704700BF0000000026
:100700004FF0804358637047000000000000000075
:10071000F8B51546826804460B46AA4200D28568A1
:10072000A1692669761AB54218D30AD82A4618460E
:10073000FFF75CFEE268A3682846A2615B1BA3602A
:10074000F8BDAF1B32461846FFF750FE3A4630441C
:10075000E168FFF74BFEE2683A44ECE72A461846A8
:10076000FFF744FEA2692A44E5E700BF000000004D
:10077000836893422DE9F04104460F4612D2856802
:10078000D4E90460361AB54212D318D82A4639463D
:10079000FFF72CFEE268A368284662615B1BA3603A
:1007A000BDE8F081D4E904601546361AB542ECD2B2
:1007B0002A463946FFF71AFE62692A44EBE7A5EBA1
:1007C000060832463946FFF711FE4246B919E0687D
:1007D000FFF70CFEE2684244DDE700BF00000000C6
:1007E00010B40A440024C361019B8460C16010BC42
:1007F00002610362C0E90000C0E90511704700BF53
:10080000D0E90532934211D0826810B501325C1CE8
:10081000826044611970D0E904329A4201D3C368FE
:100820004361002103F0E4FF002010BD8268002A2C
:10083000EAD04FF0FF3070470000000000000000D9
:1008400070B5302305460E4683F3118803E003F0AC
:10085000B7FF002819DBAC6831462846002CF6D0DB
:10086000AB68A969013B4A1CAB602B69AA619A423B
:100870000C7801D3EB68AB61EB690BB12846984764
:10088000002383F31188204670BD84F3118870BD66
:100890002DE9F04F83B09A46C6693027019287F35D
:1008A0001188CAB183460D46DDF804904FF0000868
:1008B0004A4629465846FFF72BFF0446584694B14E
:1008C00006B1B04788F31188A9EB0409254487F3E2
:1008D0001188B9F1000FEBD10198002383F311883F
:1008E00003B0BDE8F08F514603F06AFF0028DFD067
:1008F000019BA3EB0900002383F3118803B0BDE83B
:10090000F08F00BF000000000000000000000000A9
:1009100010B4C3618C18019B0461826010BCC1607B
:100920000362C0E90000C0E9051170470000000043
:10093000F8B5302304460F46164683F3118803E0CA
:1009400003F03EFF002819DBA56831462046002D44
:10095000F6D06269A368511C013B6161A360177006
:10096000D4E904329A4201D3E3686361E3690BB1CD
:1009700020469847002080F31188F8BD85F3118840
:10098000F8BD00BF000000000000000000000000F3
:10099000D0E905239A4210D08268591C013210B563
:1009A000816182601C780369994201D3C3688361C5
:1009B000002103F01DFF204610BD8268002AEBD005
:1009C0004FF0FF30704700BF000000000000000043
:1009D0002DE9F04F83B09A46C6693027019287F31C
:1009E0001188CAB183460D46DDF804904FF0000827
:1009F0004A4629465846FFF7BBFE0446584694B17E
:100A000006B1B04788F31188A9EB0409254487F3A0
:100A10001188B9F1000FEBD10198002383F31188FD
:100A200003B0BDE8F08F514603F0CAFE0028DFD0C6
:100A3000019BA3EB0900002383F3118803B0BDE8F9
:100A4000F08F00BF00000000000000000000000068
:100A500001F01F0C012349090CF1010CB1EB521FED
:100A600003FA0CF310B503F1FF334FEA521402F00E
:100A70001F0E05D850F82400184020FA0EF010BDC3
:100A800050F8211050F8242003EA0100CEF1200193
:100A900022FA0EF38840184310BD00BF000000008A
:100AA000C3689B0F08D08368C288180400F47C10C8
:100AB0001043013080027047826840F6FC73416841
:100AC00003EA8200C2F30342C1F3C23340EA9170E9
:100AD000093A02330130984090407047000000000E
:100AE00090F8D63090F8D7101B0490F8D42090F8E6
:100AF000D50003EB0163134403EB0020704700BFF4
:100B000000F0CEBF00000000000000000000000068
:100B100003460022012118305A611970C3E90122ED
:100B2000C3E9032203F0B4BE00000000000000008F
:100B30000379052B06D1826A4FF400730020C1E9C6
:100B400000327047012070470000000000000000E4
:100B500070B5124E82B004460D4611E002F020FA44
:100B600003460A20BBB9019AC2F343213242A1F1E4
:100B700005020FD104290ED0022A0BD803F0F0FD94
:100B800001AB0D212046A26B002DE7D102F0F0F958
:100B90000346E6E70123184602B070BD08E0FFFDFA
:100BA00003F1FF3C10B58C44D0F828E00446F4452E
:100BB00005D9436B012043F08003636310BD4FF000
:100BC000060C80F804C002F01BFC0523237110BD45
:100BD00003F1FF3C10B58C44D0F828E00446F445FE
:100BE00005D9436B012043F08003636310BD4FF0D0
:100BF000070C80F804C002F02BFC0523237110BD04
:100C000038B50579052D01D0012038BD08230446EB
:100C1000037102F045FC257138BD00BF00000000E3
:100C200038B5302383F311880379022B10D00422C6
:100C300004460023027183F311880121FFF788FF26
:100C40000546204602F064F902232846237138BD88
:100C5000002585F31188284638BD00BF000000003C
:100C600003232DE9F041037184B0044602F0E8F853
:100C700000222046114602F06BF903AB4FF4D57207
:100C80000821204602F08CF9E8B9039B0122C3F346
:100C900003232263934209D02046012502F038F94C
:100CA00002232846237104B0BDE8F081024603AB5D
:100CB0003721204602F074F90028EDD1039AA64BA3
:100CC00013408BB1E8E703AB00223721204602F046
:100CD00067F9002835D1039B9F4A1A408ABB114609
:100CE0002046226302F034F9236B03F00F03022B3A
:100CF00029D09A4F64259A4ADFF85C82012B18BFED
:100D0000174610E0039E16EA080FC5D102F030F92D
:100D100003466420002BBFD1039B002B28DB013D41
:100D2000BAD003F01DFD03AB00223721204602F0AC
:100D300037F9064603AB3A4629212046002EE1D07A
:100D4000AAE7022323636425864E06E0039B002B5B
:100D50000EDB013DA0D003F003FD03AB32460121C1
:100D6000204602F005F903466420002BEED093E7FD
:100D70005A0003D5236B43F01003236304F10803E7
:100D800000220221204602F023F9002884D10246E5
:100D900004F138030321204602F002F900287FF411
:100DA0007BAF04F11806A26B09212046334602F0FE
:100DB0000FF900287FF470AF02ABA26B0721204629
:100DC00002F0EEF8054600287FF466AF236B03F0CF
:100DD0000F03022B65D07E227F213046E76BFFF7A1
:100DE00037FE70B10623402239462046009502F0B6
:100DF0000FF900287FF450AFBB895BBA9B0700F165
:100E000094800021204602F043F800212046FFF79D
:100E10009FFE054600287FF43FAF236B03F00F03CE
:100E2000022B6BD03046FFF73BFEA06202AB4FF4C3
:100E300000721021204602F0B3F8054600287FF426
:100E40002BAF029B444E33427FF426AF236B13F04B
:100E50000E0F03F00F0233D1E36A1978F9B10129BB
:100E60007FF41AAF204602F05BF803ABA26B372188
:100E7000204602F095F800287FF40EAF039B334222
:100E80007FF40AAF03AB02220621204602F088F865
:100E900000287FF401AF039B33427FF4FDAE0523AE
:100EA000FFE603AB304A0621204602F079F800281D
:100EB000A7D1039B28491940B1FA81F14909A1E75B
:100EC000022A7FF4E9AEE36A1978012941D00229A8
:100ED0003DD00029E3D0254E204602F021F803AB97
:100EE00032460621204602F05BF800287FF4D4AE9B
:100EF000039A194B1340002BD1D0CDE67E227F21DF
:100F00003046FFF7A5FD01288CD9E66B08234FF486
:100F1000007220463146009502F07AF800287FF4EE
:100F2000BBAE3046FFF7DCFD7FE7114B4022394670
:100F300020460093062302F06BF800287FF4ACAE45
:100F4000397C01F00F010F3918BF01215AE7094E12
:100F5000C2E7094EC0E700BF08E0FFFD0080FF5078
:100F6000000010800080FFC00001B9030000B7033B
:100F7000F1FFFF800002B7030001B703000000008B
:100F800030B5104D83B0044603E0022A16D803F0B2
:100F9000E7FB01ABA26B0D21204602F001F80346EE
:100FA0000A2043B9019AC2F343212A42A1F1050262
:100FB00004D10429E9D1184603B030BD01231846F5
:100FC00003B030BD08E0FFFD00000000000000009D
:100FD00001F016BF0000000000000000000000004B
:100FE000002304490122016002714363C0E90A330E
:100FF000704700BF584C00080000000000000000CF
:101000000C30FFF745BC00BF0000000000000000EE
:101010004FF0FF330C30FFF73BBC00BF0000000077
:101020003030FFF7D5BC00BF00000000000000001A
:101030004FF0FF333030FFF7CBBC00BF00000000A3
:101040000C30FFF7FDBB00BF0000000000000000F7
:101050004FF0FF310C30FFF7F3BB00BF0000000082
:101060003030FFF765BC00BF00000000000000004A
:101070004FF0FF323030FFF75BBC00BF00000000D4
:10108000012914BF6FF0130000207047000000001A
:1010900002F0EEBC000000000000000000000000B4
:1010A00003460349012243F8041B02724360704760
:1010B0007C4C000800000000000000000000000060
:1010C00038B5436904460D463BB1294604F10C008E
:1010D000FFF796FB00280BDB38BD0421084403F022
:1010E000DFFB294604F10C00FFF78AFB0028F3DA46
:1010F000201D4FF40061BDE8384003F0D1BB00BFB4
:1011000002F0E6BB0000000000000000000000004C
:101110000346002201210C301970C3E9012203F0BB
:10112000B7BB00BF0000000000000000000000008E
:1011300001F09EB900000000000000000000000067
:1011400001234022002110B5044600F8303B03F093
:10115000F1FC0023C4E9013310BD00BF0000000012
:1011600070B5022300250446242203702946C0F8E6
:1011700088500C3040F8045C03F0DCFC204684F816
:10118000705001F085F963681B6823B12946204639
:10119000BDE87040184770BD00000000000000006E
:1011A0000378052B0DD00521426880F88C30017042
:1011B000136810B504460BB1042198470023A360BF
:1011C00010BD70470000000000000000000000009B
:1011D0000178052900D0704790F88CC0426880F8EB
:1011E00000C01368002BF6D0184700BF00000000B5
:1011F00070B590F87030044613B1002380F8703059
:1012000004F18002204601F0E3F963689B6853B360
:101210002046984738B3A56F94F88030B4F88620FC
:10122000AA422CBF2A46A267190600F1DA80002ADA
:1012300000F08D801522302384F8702083F311880C
:1012400062892046E36842F001029B696281D4E929
:101250001D51002419609D6021465C6001F0C8F9B1
:1012600084F3118870BD94F8803013F0600618463E
:101270001CD194F8812003F07F0545EA022540F255
:101280000232954200F0518140D8B5F5807F00F0E0
:1012900008811DD9B5F5817F00F01281B5F5407F39
:1012A00004D194F88230012B00F0D3800021204635
:1012B00001F016FD0021204601F002FD63681B6865
:1012C00013B1062120469847062384F8703070BD7C
:1012D000012D61D0022D51D194F98430204694F82B
:1012E0008410002B01F00F01C0F2AC8001F050F926
:1012F000012800F0AC800228D8D19A4902230022AC
:10130000C4E91D13E26794F8803087E7B5F5006FF4
:1013100000F0038147D9B5F5106F39D12378042B3C
:1013200000F0A18094F882304BB10421626884F807
:101330008B302170136813B1022120469847002397
:1013400094F88000C4E91D33E367030663D40B22DD
:10135000302384F8702083F3118822890025E36804
:10136000204642F0010229465B6922819D60C3E963
:10137000005501F0D5F985F3118870BD002D95D188
:10138000022204F18801E56761671546A26745E717
:1013900040F60242954289D1022573490022C4E9F0
:1013A0001D15E2673AE7B5F5A06F00F09F80A5F53F
:1013B000C065012D3FF67AAF61682046B4F88430ED
:1013C0004D6894F8822094F88310A84700283FF4D1
:1013D0006DAF94F88030D0E90052E667C4E91D256E
:1013E0001CE7C2B10922302384F8702083F31188EE
:1013F00022892046E36842F001025B692281D4E938
:101400001D51002419609D6021465C6001F088F93F
:1014100084F3118870BD1422302384F8702083F384
:10142000118862890025E368204642F001022946BE
:101430009B6962819D60C3E9005501F0D9F885F38D
:10144000118870BD01F0B4F801287FF454AF47490A
:1014500054E7B4F88830E66743F00203C4E91D6638
:10146000A4F8883071E7302383F31188A368202221
:10147000314604F1100003F00113A36003F05AFB9E
:10148000204601F07DF886F311880321636884F813
:101490008B6021701B68002B3FF444AF20469847B7
:1014A00040E794F88230012B7FF400AFB4F8883025
:1014B000E66723F00203C4E91D66A4F8883044E718
:1014C00094F88230002B7FF4F1AE94F8843013F05E
:1014D0000F0106D01E06204639D401F011FC94F805
:1014E00080000023C4E91D33E3672EE7B4F88030A1
:1014F000B3F5A06FF5D194F88230204684F88A3095
:1015000001F02EF863681B6813B10121204698474B
:10151000032394F880002370E3E7012204F18B0198
:10152000E6671546C4E91D1278E694F88230002B70
:101530007FF4BCAE94F8843013F00F01D1D01D06B7
:10154000204609D401F0BCFB94F88000C9E701F003
:10155000E7FB94F88000C4E701F0C2FB94F8800038
:10156000BFE700BFA44C0008AC4C0008A84C000822
:1015700038B590F870300446152B27D8DFE803F013
:101580002726262626262726260B10382626262618
:10159000262626262727856FB0F886309D422ED333
:1015A0001422302384F8702083F311886289002587
:1015B000E368204642F0010229469B6962819D60F2
:1015C000C3E9005501F014F885F3118838BD0021F6
:1015D00001F086FB0021204601F072FB63681B6866
:1015E00013B1062120469847062384F8703038BD91
:1015F000C36F03B19847002384F8703038BDC368C7
:101600001B8AB5FBF3F203FB1255002DC8D1302322
:1016100083F3118802892946C36842F001025B699D
:1016200002819D60C3E9005501F07AF885F31188C5
:101630000A2384F8703038BD00000000000000006C
:1016400038B590F870300446152B21D8DFE803F048
:101650002120202020202120202121212020202085
:1016600020202020320B0B22302380F8702083F3BF
:10167000118802890025C36842F0010229465B698E
:1016800002819D60C3E9005501F04AF885F3118895
:1016900038BD002101F024FB0021204601F010FBA1
:1016A00063681B6813B1062120469847062384F817
:1016B000703038BDC3689B695B68002BE8D1C36F8D
:1016C00003B19847002384F8703038BD0000000053
:1016D0000A4A09014FEA501C0123C9B200B500F0C3
:1016E0001F0E104403FA0EF380F8001302EB8C0176
:1016F000C1F8803142F82C305DF804FB00E100E0D5
:1017000010B5074C204602F0ABFC064801F0D0FEB5
:10171000204602F0BDFCBDE8104003F0C9B900BF8F
:10172000D44C0008B40100240000000000000000B8
:1017300010B5074C204602F093FC064802F0E8F989
:10174000204602F0A5FCBDE8104003F0B1B900BF8F
:10175000C84C000830030024000000000000000016
:1017600010B5074C204602F07BFC064802F0D0F989
:10177000204602F08DFCBDE8104003F099B900BF8F
:10178000BC4C000890030024000000000000000092
:1017900010B5064C204602F063FC02F041F92046E9
:1017A00002F076FCBDE8104003F082B9B04C0008AE
:1017B00008B509217A20FFF78BFF09213120FFF7B7
:1017C00087FF07211C20FFF783FF0C212520FFF74F
:1017D0007FFF0C213520BDE80840FFF779BF00BF2F
:1017E00038B5364B00224FF0FF31354CD3F880002E
:1017F000344D60F00040C3F88000D3F8800000F062
:101800000040C3F88000D3F88000D3F88400C3F808
:101810008410D3F88400C3F88420D3F88400D86FF0
:101820002043D867DC6F28482C40DC67DC6FD3F896
:1018300088402043C3F88800D3F88800C0F30A002A
:10184000C3F88800D3F88800D3F89000C3F890104C
:10185000D3F89000C3F89020D3F89000D3F8940008
:10186000C3F89410D3F89400C3F89420D3F89400EC
:10187000D3F89800C3F89810D3F89800C3F89820CC
:10188000D3F89800D3F88C00C3F88C10D3F88C00F0
:10189000C3F88C20D3F88C00D3F89C00C3F89C10BC
:1018A000D3F89C10C3F89C20D3F89C3000F0C0FA09
:1018B00000F0DEFCBDE83840FFF77ABF0044025874
:1018C000FFEFFF7F0010008000F8FFFF0000000026
:1018D000664B02206649674A10B40124C1F80841EA
:1018E000D3F8F4100143C3F8F410D3F81C110143EA
:1018F000C3F81C11D3F81C31D06053689904FCD58F
:101900005D4901235D4C0020116093604FF440431A
:101910005849D460106193618B699B04FCD50B68B6
:10192000524A43F480730B60136F03F44073B3F5B2
:10193000007F04D04FF480310023116713674B49B7
:101940000B6843F001030B600B685C07FCD50023B8
:10195000464A0B61136913F03803FBD14FF0804006
:10196000012447491460506046485367D1621061B2
:1019700013683E4943F4A02313600B689803FCD519
:101980000A683A4B42F480520A601A689204FCD505
:1019900000223D483D4944F6F05498625A63196369
:1019A000A1F5FE21DC633E393948996339495A640F
:1019B0001864D96219682D4A41F0A851196013685A
:1019C00003F02853B3F1285FF9D148244FF488631A
:1019D00040204FF0005194614FF40154D3614FF413
:1019E000E00310624FF48030D16414652A495365D6
:1019F000322390650B600B6803F00F03022BFAD1C2
:101A00001A4A136943F003031361136903F038039F
:101A1000182BFAD1D2F8DC3010BC43F00053C2F8D6
:101A2000DC30D2F8043143F00053C2F80431D2F86C
:101A30000431D2F8DC3043F08043C2F8DC30D2F815
:101A4000043143F08043C2F80431D2F80431D2F8B3
:101A5000DC3043F00043C2F8DC30D2F8043143F00C
:101A60000043C2F80431D2F80431704700440258F0
:101A7000008000510048025800C000F00200000140
:101A80000000FF0100881008525090019F020901D8
:101A90001F07050799034B010020005200000000BA
:101AA00070B51E4C00261E4D2046FFF731F81D4A2A
:101AB0001D4B05211220C4E90A25C4E90C63FFF778
:101AC00007FE1A4BD3F8D82042F02002C3F8D820E2
:101AD000D3F8002142F02002C3F80021D3F80021FE
:101AE000D3F8802042F02002C3F88020D3F8802071
:101AF00022F02002C3F88020D3F88020AE60D3F813
:101B0000D82022F02002C3F8D820D3F8002122F0F8
:101B10002002C3F80021D3F8003170BD000000247A
:101B20000023024000200240162C0200004402580C
:101B3000104B98420DD0826A9368590706D5936876
:101B400043F0100393609368DB06FCD40023D36159
:101B50007047016B0A68136823F01F031360136852
:101B6000DB07FCD491F80CC03D234A6803FA0CF360
:101B70001360E0E700000024000000000000000007
:101B800070B5264802F06CFA254D264A2E69136876
:101B9000136066B313F0100406D02C78A4F103048C
:101BA000B4FA84F464096400180648BF44F00404DD
:101BB000D90523D59A0544F0080401D544F0100452
:101BC0001748FFF7B5FFF3681BB3052221462A70BB
:101BD00098472B78052B1CD0302383F311884FF0C6
:101BE000FF31114802F0DCFD002383F311880B481C
:101BF00002F04EFABDE8704002F05ABF9B05DDD4FA
:101C0000002CDDD1054802F043FABDE8704002F037
:101C10004FBF022200232A702B61DDE7E04C000851
:101C200000000024002002401400002400000000F6
:101C30000A4808B502F014FA094B0A4819684268C4
:101C400001F00E0159600AB180689047034802F024
:101C50001FFABDE8084002F02BBF00BF404D00084E
:101C6000005402583800002400000000000000006A
:101C70000B4810B502F0F4F90A4B0B481968C2681A
:101C8000090901F00E010C015C600AB1006990477E
:101C9000034802F0FDF9BDE8104002F009BF00BFA3
:101CA000344D0008005402583800002400000000A1
:101CB0000B4810B502F0D4F90A4B0B481968426979
:101CC000090A01F00E010C025C600AB180699047BC
:101CD000034802F0DDF9BDE8104002F0E9BE00BFA4
:101CE000284D00080054025838000024000000006D
:101CF0000B4810B502F0B4F90A4B0B481968C269D9
:101D0000090B01F00E010C035C600AB1006A9047F8
:101D1000034802F0BDF9BDE8104002F0C9BE00BFA3
:101D20001C4D000800540258380000240000000038
:101D30000B4810B502F094F90A4B0B481968426A37
:101D4000090C01F00E010C045C600AB1806A904736
:101D5000034802F09DF9BDE8104002F0A9BE00BFA3
:101D6000104D000800540258380000240000000004
:101D70000B4810B502F074F90A4B0B481968C26A97
:101D8000090D01F00E010C055C600AB1006B904773
:101D9000034802F07DF9BDE8104002F089BE00BFA3
:101DA000044D0008005402583800002400000000D0
:101DB0000B4810B502F054F90A4B0B481968426BF6
:101DC000090E01F00E010C065C600AB1806B9047B1
:101DD000034802F05DF9BDE8104002F069BE00BFA3
:101DE000F84C00080054025838000024000000009D
:101DF0000B4810B502F034F90A4B0B481968C26B56
:101E0000090F01F00E010C075C600AB1006C9047ED
:101E1000034802F03DF9BDE8104002F049BE00BFA2
:101E2000EC4C000800540258380000240000000068
:101E30000B4800220B4B0146026003F1A00C0A483C
:101E400001E053F8140C143302604A60634541F812
:101E5000082FF6D1054B4FF0FF325A60704700BF94
:101E600038000024644D00080854025800540258F9
:101E70000A4808B502F0F4F8094B0A4819684268A4
:101E800001F03D0199600AB180689047034802F073
:101E9000FFF8BDE8084002F00BBE00BF404E00084E
:101EA000000002407C000024000000000000000050
:101EB0000B4810B502F0D4F80A4B0B481968C268F9
:101EC000890901F03D018C019C600AB100699047CD
:101ED000034802F0DDF8BDE8104002F0E9BD00BFA4
:101EE000344E0008000002407C0000240000000086
:101EF0000B4810B502F0B4F80A4B0B481968426958
:101F0000090C01F03D010C049C600AB18069904706
:101F1000034802F0BDF8BDE8104002F0C9BD00BFA3
:101F2000284E0008000002407C0000240000000051
:101F30000B4810B502F094F80A4B0B481968C269B7
:101F4000890D01F03D018C059C600AB1006A904743
:101F5000034802F09DF8BDE8104002F0A9BD00BFA3
:101F60001C4E0008000002407C000024000000001D
:101F70000A4808B502F074F8094B0A485968426AE1
:101F800001F03D01D9600AB1806A9047034802F030
:101F90007FF8BDE8084002F08BBD00BF104E00087E
:101FA000000002407C00002400000000000000004F
:101FB0000B4810B502F054F80A4B0B485968C26A36
:101FC000890901F03D018C01DC600AB1006B90478A
:101FD000034802F05DF8BDE8104002F069BD00BFA3
:101FE000044E0008000002407C00002400000000B5
:101FF0000B4810B502F034F80A4B0B485968426B95
:10200000090C01F03D010C04DC600AB1806B9047C3
:10201000034802F03DF8BDE8104002F049BD00BFA2
:10202000A04E0008000002407C00002400000000D8
:102030000B4810B502F014F80A4B0B485968C26BF4
:10204000890D01F03D018C05DC600AB1006C904700
:10205000034802F01DF8BDE8104002F029BD00BFA2
:10206000944E0008000002407C00002400000000A4
:102070000A4808B501F0F4FF094B0A481968426C98
:1020800001F03D0199600AB1806C9047034801F06E
:10209000FFFFBDE8084002F00BBD00BF884E0008FE
:1020A000000402407C00002400000000000000004A
:1020B0000B4810B501F0D4FF0A4B0B481968C26CED
:1020C000890901F03D018C019C600AB1006D9047C7
:1020D000034801F0DDFFBDE8104002F0E9BC00BF9D
:1020E0007C4E0008000402407C0000240000000038
:1020F0000B4810B501F0B4FF0A4B0B481968426D4C
:10210000090C01F03D010C049C600AB1806D904700
:10211000034801F0BDFFBDE8104002F0C9BC00BF9C
:10212000704E0008000402407C0000240000000003
:102130000B4810B501F094FF0A4B0B481968C26DAB
:10214000890D01F03D018C059C600AB1006E90473D
:10215000034801F09DFFBDE8104002F0A9BC00BF9C
:10216000644E0008000402407C00002400000000CF
:102170000A4808B501F074FF094B0A485968426ED5
:1021800001F03D01D9600AB1806E9047034801F02B
:102190007FFFBDE8084002F08BBC00BF584E00082E
:1021A000000402407C000024000000000000000049
:1021B0000B4810B501F054FF0A4B0B485968C26E2A
:1021C000890901F03D018C01DC600AB1006F904784
:1021D000034801F05DFFBDE8104002F069BC00BF9C
:1021E0004C4E0008000402407C0000240000000067
:1021F0000B4810B501F034FF0A4B0B485968426F89
:10220000090C01F03D010C04DC600AB1806F9047BD
:10221000034801F03DFFBDE8104002F049BC00BF9B
:10222000F84D0008000402407C000024000000007B
:102230000B4810B501F014FF0A4B0B485968C26FE8
:10224000890D01F03D018C05DC6012B1D0F88000F1
:102250009047034801F01CFFBDE8104002F028BC85
:10226000EC4D0008000402407C0000240000000047
:1022700000220D4830B40D4C13460D4D226001E094
:1022800055F8330004EB830102330260202B4A60CF
:10229000F6D14FF0FF330749074A8B60CB6093605C
:1022A000D36030BC704700BF100002407C000024A7
:1022B000AC4E000800000240000402400000000094
:1022C000704700BF00000000000000000000000098
:1022D0002DE9F04F02F00309C2F34114C2F3800666
:1022E000C2F3C105C2F3C317CE4600224FF00F0B55
:1022F000A04616E00368072A0AEA030343EA0E032E
:1023000003604AD8036A23EA040343EA0C03036226
:10231000490840D076000132AD004FEA88084FEA04
:102320008E0ECB07F4D501244368B9F1020F04FAED
:1023300002F423EA04034FF0030443EA0603436074
:102340004FEA420304FA03F3846824EA03046FEAC1
:10235000030A44EA05048460C46824EA030C02F01A
:1023600007044CEA08034FEA8404C36007FA04FC3C
:102370000BFA04F4BED1072A16D8036A23EA040331
:1023800043EA0C030362036849080AEA030343EAC9
:102390000E030360BED1BDE8F08F436A23EA040355
:1023A00043EA0C034362B3E7436A23EA040343EAC4
:1023B0000C034362E7E700BF0000000000000000DC
:1023C000124A0023F0B5D2E924414FF0010E02F188
:1023D000080C8E685CF8040F03F110020EFA03F18A
:1023E0005D1C87690EFA02F227B1D4F81C783A43D3
:1023F000C4F81C28426922B1D4F81C281143C4F83F
:102400001C189E422B46E5D1F0BD00BF0001002400
:1024100070B400224FF0FF348E6800EB421102F1DD
:10242000010CD1F800590B46002D05DAD1F80059FE
:1024300045F08045C1F80059D1F8005B002D05DA60
:10244000D1F8005B45F08045C1F8005BB242C3F8AB
:1024500008496246C3F8084BDFD14FF0011370BC46
:10246000C0F81C38704700BF0000000000000000EA
:1024700010B5044C2046FEF763FE034A034BC4E943
:10248000242310BD0001002400000840DC4F000898
:10249000F8B52023D0F8905007462B612C6914F032
:1024A0002004FBD112204FF0006601F059FDD7F84F
:1024B00094C04FF001134FF0FF31DCF80800C5F86D
:1024C0003448C5F81C3805EB4413844204F1010478
:1024D000C3F80069C3F8006BC3F80819C3F8081BF8
:1024E000F1D1DCF800301021D7F89020C7F89830EF
:1024F0006B621161146914F01004FBD1122001F019
:102500002FFDD5F80028124B22F4FE621149C5F8C0
:102510000028AA6913430922AB61C5F81028D7F82F
:102520009830C5F81428F9604FF0C0410A4AC5F840
:10253000101B03F1100143F48013C5F8002BC5F8FC
:102540001049C5F80029C7F89810AB62F8BD00BF64
:1025500010000C00B84F0008408000100000000080
:10256000D0F8902090F88A10D2F8003823F4FE6357
:1025700043EA0113C2F80038704700BF00000000B2
:102580000346D0E924010A68C3F89820FFF740BF4A
:102590005831D0F8903049015B5813F4004004D012
:1025A00013F4001F0CBF0220012070470000000040
:1025B0004831D0F8903049015B5813F4004004D002
:1025C00013F4001F0CBF0220012070470000000020
:1025D00000EB8100C3681B6A19685B681160536077
:1025E000704700BF00000000000000000000000075
:1025F00000EB8103DA68936910B41C68DC6009B9E8
:10260000402C25D8538A1268D0F8900002F0030CB1
:102610005A1E2244BCF1010FB2FBF3F202FB03F39A
:1026200003F1030323F0030343EAC24300EB411227
:1026300043F0C043C2F8103B0DD009B200EB41108B
:1026400010BCD0F8003B43F00443C0F8003B704797
:1026500040241C60D6E7D0F8083800EB411209B2DC
:1026600013F4807FD2F8003B14BF43F0805343F053
:102670000053C2F8003BE1E700000000000000004A
:102680002DE9F041244F0446D7F8906006EB401343
:10269000D3F8085B2807C3F8085B03D5D6F81438CD
:1026A000190731D4EA072DD5D6F81438DB0729D518
:1026B00007EB8403D9688A6954B9488A5368B3FB25
:1026C000F0F500FB15331BB91068D36898420DD3A1
:1026D00001227B89CD68A24023EA02037B818DB170
:1026E00021462B460C48BDE8F04118471B1A5460A0
:1026F0003021136081F3118807482146FFF778FFE6
:1027000084F31188BDE8F08107EB84032146384645
:10271000DB685B689847C5E7000100240000000003
:1027200000EB810310B4DC6862691368D360F3B90D
:10273000D0F890204FF4002002EB4113C3F81009A9
:10274000236803F00303012B2AD008B202EB4010E8
:102750000123D0F800498B4044F00444C0F80049FC
:10276000D2F8341810BC0B43C2F83438704709B99A
:10277000402B26D8B4F810C0D0F890200CF1FF30D0
:102780001844B0FBFCF043EAC04302EB411043F0B5
:102790000053C0F81039236803F00303012BD4D190
:1027A000D2F8083808B213F4807F02EB4113D3F853
:1027B000004914BF44F0805444F00054C3F8004969
:1027C000C4E740231360D5E70000000000000000CC
:1027D0002DE9F84FDFF8049104464FEA401BD9F881
:1027E000906006EB4013D3F80859E907C3F808597D
:1027F00003D5D6F81038DA070CD42B0608D54FF0DD
:102800000108D6F8343808FA04F813EA080F18D18A
:10281000BDE8F88F09EB8003D9684B691868DA685E
:1028200090424AD30122B9F808308F68A24023EAC7
:102830000203A9F80830002FDFD021464846B847E8
:10284000DBE709EB8403DB685E69D6E90075AF421C
:1028500041D90134D9F890A0B3F81090E4B20AEB52
:102860000B0E0AEB0430A7EB050CDEF81839CC454B
:102870009BB228BFCC46BCEB830FC9D8B468BCF16F
:10288000040F236803600BD9ACF10501234621F046
:1028900003010431214453F8042F99420260FAD114
:1028A00065446444BD42C6E90154DCD3DAF83438E7
:1028B00023EA0803CAF83438AAE7121A00271A6074
:1028C0005F60302383F3118821464846FFF728FFD5
:1028D00087F3118891E7D9F890A0E7E70001002479
:1028E0002DE9F84FB24E4FF04009B24801F0B8FB65
:1028F000D6F890706EE0290500F18E80AA040CD500
:10290000D7F8083813F0060FFB6823F470530CBF98
:1029100043F4105343F4A053FB602B070ED57468A7
:10292000E368002B00F076813378052B00F07A8184
:10293000FFF746FDE3680BB130469847EC0273D4CD
:10294000A80200F1B4802B03D7F818481AD5E00389
:1029500000F13C81A10300F13581620300F12E8179
:10296000230300F12081E00200F11981A10200F1AE
:102970001281620200F10B81230200F10481E00167
:1029800000F1F98069031AD5E20700F13F81A3073E
:1029900000F13881600700F13181210700F12A81BF
:1029A000E20600F12381A30600F11C81600600F11C
:1029B0001581210600F10E81E20500F1E080EB06B1
:1029C00000F1A2807C4B1D4200F0CE80B9F10109DC
:1029D00000F0CA807D69BB691D4015F480587D6197
:1029E00040F05F81002D86DAD7F8003E980705D0C9
:1029F000D7F8003E23F00303C7F8003EFFF7E0FCE2
:102A0000D7F80438304623F00103C7F80438FEF73E
:102A1000DFFB29057FF572AFD6E92401FFF7F8FC4B
:102A20003046FEF7BDFB69E70021D6F890B04FF0C5
:102A3000010A0C4608E00134D6F89430E4B29B68F1
:102A40009C4221463FF67CAF0BEB4412D2F8003992
:102A500003F44023B3F5802FEDD1D2F80039002BD9
:102A6000E9DAD2F8003943F09043C2F80039D2F8DD
:102A70000039002BFBDB8901D6F8902041F02001C2
:102A8000116113699906FCD4122001F069FA3389A7
:102A900006EB84020AFA04F1D26823EA0103926881
:102AA0003381002AC7D0214630469047C3E7D6F885
:102AB00090A000244FF0010B07E00134D6F89430C9
:102AC000E4B29B689C423FF63EAF0AEB4412D2F858
:102AD000003B03F44023B3F5802FEED1D2F8003B46
:102AE00006EB84010BFA04F2002BE6DA7389304618
:102AF000D1F80CC0214623EA0203DCF80C207381D4
:102B0000002ADAD09047D8E7D6F890100B6A03F481
:102B1000F010C3F30A1203F00F03B0F5802F00F09A
:102B20008C80B0F5402F7FF44DAF06EB8303DB685C
:102B3000186A002A3FF446AF01F58054002313F0D1
:102B4000030F014601D1D4F80080072B03F10103E4
:102B500004D801F8018B4FEA182808469A42EED1B2
:102B6000154B1D427FF432AF124801F091FABDE8D7
:102B7000F84F01F09DBF0820FFF782FD02E7082013
:102B8000FFF726FE1BE70720FFF77AFDF7E6062092
:102B9000FFF776FDF0E60520FFF772FDE9E6042079
:102BA000FFF76EFDE2E60320FFF76AFDDBE600BFFC
:102BB00000010024AC4F0008300000040220FFF7A1
:102BC0005FFDCDE60120FFF75BFDC6E60020FFF7C5
:102BD00057FDBFE60720FFF7FBFDEDE60620FFF7F8
:102BE000F7FDE6E60520FFF7F3FDDFE60420FFF73B
:102BF000EFFDD8E60320FFF7EBFDD1E60220FFF75B
:102C0000E7FDCAE60120FFF7E3FDC3E60020FFF77A
:102C1000DFFDBCE6BB6923F00803BB613378052BFD
:102C20007FF486AED7F8003E304623F00303C7F8A2
:102C3000003EFEF7CDFA74687AE6981C06EB800336
:102C40005B68D3F818C0DCE90043A4EB030EDCF8A2
:102C50000840D2B101F5805C002313F0030F214638
:102C600001D1DCF800809E4503F1010304D901F88D
:102C7000018B4FEA18280C469A42EED106EB8003EE
:102C80005B68D3F818C0DCE90134724504D21444FF
:102C90001A44CCE9012495E674447344CCE9013428
:102CA00090E60548FEF75CFA044801F0F1F9BDE84A
:102CB000F84F01F0FDBE00BF00010024AC4F00083A
:102CC000D0F8903003EB4111D1F8003B43F40013EE
:102CD000C1F8003B704700BF00000000000000008A
:102CE000D0F8903003EB4111D1F8003943F40013D0
:102CF000C1F80039704700BF00000000000000006C
:102D0000D0F8903003EB4111D1F8003B23F40013CD
:102D1000C1F8003B704700BF000000000000000049
:102D2000D0F8903003EB4111D1F8003923F40013AF
:102D3000C1F80039704700BF00000000000000002B
:102D400001F001038A0748BF43F002034A0748BF66
:102D500043F008030A0748BF43F00403CA0648BF0C
:102D600043F010038A06426B48BF43F020031A4326
:102D700042637047000000000000000000000000F7
:102D8000F8B5302305460F46164683F31188446C88
:102D9000E36BA3B900232365E363E362606B10F484
:102DA000807008D04FF0FF32A26383F31188012FA7
:102DB0000CD81846F8BD80F311880120F8BD4FF0FB
:102DC000FF31403001F0DCFC6C6CE3E76A6C41F2EF
:102DD0000C119360D160516B11F04503FBD09363EC
:102DE00011F0050303D1526918463260F8BD284638
:102DF000FFF7A6FF0120F8BD000000000000000062
:102E000010B5074C2046FEF7EBF8064B00200649AC
:102E1000064AA164E263C4E91003054BE36410BDF4
:102E2000B40100240070005200B4C4040000043057
:102E3000000204300000000000000000000000005C
:102E40000D4BD0E9112110B4994212D90B4BC46A31
:102E50000B440B4861681B0AA0FB030301EB13132F
:102E600053606420136810BC43F00303136001F047
:102E700077BCC36A5B68F3E7801A0600FF340C0076
:102E8000598B4F010000000000000000000000000E
:102E90000129164B816C30B4446C17D0144A656814
:102EA000914203EA05030ED9124AC56A0A44124840
:102EB0006968A0FB020201EB1262134343F48053E2
:102EC000636030BC7047C26A5268F6E70B4A6568B7
:102ED000914203EA0503F6D9094AC56A0A4406483D
:102EE0006968A0FB020201EB5262E6E700ECFFFF1B
:102EF00040787D017FF0FA02893BE65580F0FA02C6
:102F0000FFE0F505000000000000000000000000E8
:102F10000022436C5A601A60704700BF0000000036
:102F2000426C0129536823F4404307D0022901D0A1
:102F300011B1704743F400435360704743F480433A
:102F40005360704700000000000000000000000017
:102F5000406C41F480518260C160436B1B06FCD51C
:102F600080238363704700BF000000000000000062
:102F700010B541F48851446CA260E160616B11F0BE
:102F80004502FBD0A26311F0040203D1616910462F
:102F9000196010BDFFF7D4FE012010BD0000000035
:102FA00010B541F48851446CA260E160616B11F08E
:102FB0004502FBD0A26311F0050203D161691046FE
:102FC000196010BDFFF7BCFE012010BD000000001D
:102FD00010B541F49851446CA260E160616B11F04E
:102FE0004502FBD0A26311F03F0209D1216A1046CD
:102FF0001960E2695A60A2699A606269DA6010BD7C
:10300000FFF79EFE012010BD000000000000000040
:103010002DE9F843164698460F4637490546D0E94C
:1030200011245368C3F3090301335B00B4FBF3F4C9
:10303000A1FB041442F21073A40903FB04F45462CC
:10304000FDF79EFF00282ED16C6C012248F48853B6
:103050008146A76522654FF0FF32E86CA2634FF40A
:103060009572E26342F20702A662E262089AA260E7
:10307000E360616B11F04503FBD011F0050FA36312
:1030800029D162691D4B0260134073B1616B00234B
:103090004FF001092846A1632365E362FFF750FE64
:1030A0004846BDE8F8836C6CF0E7302383F3118861
:1030B0006B6CDA6BBAB900221A65DA63DA62596BA3
:1030C00011F480710BD04FF0FF31996382F31188B6
:1030D0004846BDE8F8832846FFF732FED6E781F37D
:1030E00011886C6CD2E74FF0FF3105F1400001F020
:1030F00047FB6B6CDFE700BFD34D621008E0FFFDBC
:103100002DE9F84316469846DFF860C10D4642F2B5
:1031100010710746D0E911245368C3F30903013342
:103120005B00B4FBF3F4ACFB04C4A40901FB04F49E
:103130005462FDF725FF814610B14846BDE8F8838B
:103140007C6C0123A66523654FF0FF33FE6CA363FF
:103150004FF49573E3634FEA4823A3623B6BDB06AE
:1031600058BF6D02B8F1010FA56024D941F21213C6
:10317000E360616B11F04503FBD011F0050FA36311
:103180003FD163693A4D33601D40002D3CD142F27E
:103190009303324641463846E362FFF7F1FD0028CB
:1031A000CBD07C6C3846FE6C616BA1632565E56213
:1031B000FFF7C6FD30E041F21113E360616B11F0DF
:1031C0004503FBD011F0050FA36339D16369284D86
:1031D00033601D40002D36D142F293033246414602
:1031E0003846E362FFF7CCFD03460028A5D07A6C91
:1031F00038469946516B91631565D562FFF7A0FD7E
:103200009BE73846FFF79CFD616B00233846A163BE
:103210002365E362FFF794FD002241F20C13A260E4
:10322000E360616B11F04503FBD011F0050FA36360
:1032300016D163694FF0010933604846BDE8F88351
:103240003846FFF77DFD616B00234FF001093846DA
:10325000A1632365E362FFF773FD4846BDE8F88389
:1032600038464FF00109FFF76BFD66E7D34D62105A
:1032700008E0FFFD0000000000000000000000006A
:103280002DE9F84316469846DFF860C10D4642F234
:1032900010710746D0E911245368C3F309030133C1
:1032A0005B00B4FBF3F4ACFB04C4A40901FB04F41D
:1032B0005462FDF765FE814610B14846BDE8F883CB
:1032C0007C6C0123A66523654FF0FF33FE6CA3637E
:1032D0004FF48D73E3634FEA4823A3623B6BDB0635
:1032E00058BF6D02B8F1010FA56024D941F219133E
:1032F000E360616B11F04503FBD011F0050FA36390
:103300003FD163693A4D33601D40002D3CD142F2FC
:103310009103324641463846E362FFF731FD00280B
:10332000CBD07C6C3846FE6C616BA1632565E56291
:10333000FFF706FD30E041F21813E360616B11F016
:103340004503FBD011F0050FA36339D16369284D04
:1033500033601D40002D36D142F291033246414682
:103360003846E362FFF70CFD03460028A5D07A6CCF
:1033700038469946516B91631565D562FFF7E0FCBD
:103380009BE73846FFF7DCFC616B00233846A163FE
:103390002365E362FFF7D4FC002241F20C13A26024
:1033A000E360616B11F04503FBD011F0050FA363DF
:1033B00016D163694FF0010933604846BDE8F883D0
:1033C0003846FFF7BDFC616B00234FF0010938461A
:1033D000A1632365E362FFF7B3FC4846BDE8F883C9
:1033E00038464FF00109FFF7ABFC66E7D34D62109A
:1033F00008E0FFFD000000000000000000000000E9
:1034000012F0030F22D02DE9F0411F46D3B106463A
:1034100015460C460F4404E0F16BFCF7E7FFA742AA
:1034200010D021460123F26B3046FFF769FE4FF4BE
:1034300000720346013428461544002BECD0184690
:10344000BDE8F08100231846BDE8F081FFF758BEC3
:1034500012F0030F1FD02DE9F0411F46C3B10646FD
:1034600015460C460F4401E0A74211D04FF40072FC
:103470002946F06B1544FCF7B9FF21460123F26B96
:1034800030460134FFF7FCFE0028EDD0BDE8F081A6
:103490000020BDE8F081FFF7F3BE00BF0000000090
:1034A0000020704700000000000000000000000045
:1034B000302310B583F311880024436C403021463B
:1034C000DC6301F06DF984F3118810BD0000000089
:1034D0000022124B0A604A60426910B41340402433
:1034E00042780C6143F440434FF0FF348C618B60B1
:1034F00042B1836910BC23F4C023CB6040F20113B6
:103500000B6070478269064B10BC134043F00153B7
:10351000CB6040F201130B60704700BF1F3EFFFFFE
:10352000FFFFB9DF00000000000000000000000005
:1035300090F8203010B4002B34D0836AD3E90041D6
:103540000A6822F00F020A60197A0E23426A03FA0F
:1035500001F161605468216821F00F012160117A46
:1035600012688B405360474B98423AD0464B984282
:103570004BD0464B98425CD0454B98426DD0454B62
:10358000984251D1444BD3F89C2042F02002C3F81A
:103590009C20D3F89C2022F02002C3F89C20D3F872
:1035A0009C3041E0846A2268136823F01F03136093
:1035B0001368D907FCD4227B3D23416A9340646899
:1035C0000A682360136823F01F0313601368DB0786
:1035D000FCD40C7B3D234A68A3401360294B9842DE
:1035E000C4D12D4BC169D3F89820406842F4805271
:1035F00010BCC3F89820D3F8982022F48052C3F866
:103600009820D3F89830FFF763BF234BD3F890206E
:1036100042F48042C3F89020D3F8902022F48042F4
:10362000C3F89020D3F89030C16910BC4068FFF710
:103630004FBF194BC169D3F89020406842F4004253
:1036400010BCC3F89020D3F8902022F40042C3F8B5
:103650009020D3F89030FFF73BBF0F4BC169D3F8F0
:103660009820406842F4801210BCC3F89820D3F828
:10367000982022F48012C3F89820D3F89830FFF7EE
:1036800027BF00BF04020024400200247C02002463
:10369000B8020024F4020024004402580000000094
:1036A00010B5164C164800F0DBFCE269536911694D
:1036B0000B4093615B0606D4114800F0E9FCBDE8BD
:1036C000104001F0F5B92046FFF732FF63689B68B0
:1036D0000BB120469847302383F311886FF0120115
:1036E000084801F05DF8002383F31188044800F0D6
:1036F000CFFCBDE8104001F0DBB900BF040200249C
:10370000185000080C020024000000000000000017
:1037100010B5164C164800F0A3FCE2695369116914
:103720000B4093615B0606D4114800F0B1FCBDE884
:10373000104001F0BDB92046FFF7FAFE63689B68B0
:103740000BB120469847302383F311886FF01201A4
:10375000084801F025F8002383F31188044800F09D
:1037600097FCBDE8104001F0A3B900BF400200245F
:103770000C50000848020024000000000000000077
:1037800010B5164C164800F06BFCE26953691169DC
:103790000B4093615B0606D4114800F079FCBDE84C
:1037A000104001F085B92046FFF7C2FE63689B68B0
:1037B0000BB120469847302383F311886FF0120134
:1037C000084800F0EDFF002383F31188044800F05F
:1037D0005FFCBDE8104001F06BB900BF7C02002423
:1037E00000500008840200240000000000000000D7
:1037F00010B5164C164800F033FCE26953691169A4
:103800000B4093615B0606D4114800F041FCBDE813
:10381000104001F04DB92046FFF78AFE63689B68AF
:103820000BB120469847302383F311886FF01201C3
:10383000084800F0B5FF002383F31188044800F026
:1038400027FCBDE8104001F033B900BFB8020024E6
:10385000F44F0008C0020024000000000000000037
:1038600010B5164C164800F0FBFBE269536911696C
:103870000B4093615B0606D4114800F009FCBDE8DB
:10388000104001F015B92046FFF752FE63689B68AF
:103890000BB120469847302383F311886FF0120153
:1038A000084800F07DFF002383F31188044800F0EE
:1038B000EFFBBDE8104001F0FBB800BFF4020024AC
:1038C000E84F0008FC020024000000000000000097
:1038D0002DE9F0412D4D0024DFF8B48028462D4F0E
:1038E000FDF716FC2C4B85F820400A21EB612320C4
:1038F0006C622F63294EC5E90A48294DFDF7E8FEA1
:103900002846FDF705FC274B85F820400A21EB618E
:1039100024206C622F63C5E90A48234DFDF7D8FEC9
:103920002846FDF7F5FB214B0A213320EB6185F892
:1039300020406C622F63C5E90A48FDF7C9FE304696
:10394000FDF7E6FB1A4D1B4B0A21552086F8204057
:10395000F36174623763C6E90A48FDF7B9FE284689
:10396000FDF7D6FB0123144941F20A0285F8203005
:1039700041F21803E96156206C620A212B63C5E904
:103980000A42BDE8F041FDF7A3BE00BF04020024D7
:10399000160001004600010000300140B80200247A
:1039A00040020024003800407C020024003C00401B
:1039B000F4020024005001400014005800000000F0
:1039C000124A4FF080430021D2F8E80040F0010095
:1039D00030B4C2F8E80044F61F65D2F810010C4C70
:1039E00040F00100C2F810010120D2F81021E26B72
:1039F0000243E2634FF0FF329D62DA6299615963DC
:103A0000D96059605861186030BC70470044025852
:103A10000010005C0000000000000000000000003A
:103A20004FF0804208B51169D3680B40D9B29B07AB
:103A30006FEA0101116100D408BD302383F31188BE
:103A400000F086FA002383F3118808BD000000000F
:103A5000024A136843F0C00313607047001001402E
:103A6000024A136843F0C0031360704700500040DF
:103A700070B5194D82B0194C2846194EFDF710FB50
:103A800005F10C000023102216490095FCF7A8FE52
:103A90001022154905F13000144B0095FCF738FF52
:103AA000134B2046C5E91536FDF7FAFA04F10C0070
:103AB000002310220F490094FCF792FE0E4B1022B7
:103AC0000E4904F130000094FCF722FF0C4BC4E9CE
:103AD000153602B070BD00BF3003002490030024EF
:103AE00000E1F505F003002410040024513A000819
:103AF0000010014000040024613A00082004002462
:103B00000050004000000000000000000000000025
:103B10002DE9F047456D0646EC6922072C6256D127
:103B2000E20548D4A00610D54FF03008002788F3EE
:103B300011886B6A304696F85C101940FDF7C0FAA0
:103B400087F31188EC69A306F1D4D5F800A01AF028
:103B5000800F1DD021061BD506F1300830274FF00D
:103B6000000905E0A86289F31188EC6922060FD5E7
:103B700087F311884046FCF70BFF0028F2DA082192
:103B8000301D00F08DFE2AF0800A002383F3118897
:103B90001AF0400F0BD0630609D5302383F3118848
:103BA000D6E911239A422DD0002383F31188C5F85A
:103BB00000A0BDE8F087302383F311884FF48061C3
:103BC000301D00F06DFE002383F31188AAE7C4F3D3
:103BD000C001E3074FF030034FEA012148BF41F035
:103BE0002001A70748BF41F04001600748BF41F0EE
:103BF000800183F31188301D00F052FE002383F30F
:103C000011888DE7B36B002BCED01021301D2AF028
:103C1000400A00F045FEC7E7000000000000000079
:103C2000654A40F2FF700023D2F88810014370B457
:103C3000C2F88810614CD2F88810614D0C4061497F
:103C4000614EC2F88840D2F88840D2F8E040044380
:103C5000C2F8E040D2F8084104435C48C2F8084189
:103C60004FF4C044D2F808214B608D60CB604C61AA
:103C70000A24574A0C62574C574D4C62574C0C6003
:103C800001F54061564C436084608024C360446108
:103C9000544C0462544C4462544C04604020544CD4
:103CA00053609460534CD360536113625462524C1E
:103CB000146002F50062514C4B608C60504CCB603C
:103CC00048610C6204F1F8444C624E4C0C604E4C5E
:103CD000536094600424D36054614C4C14624FF0E0
:103CE000CC34546204F15E44A4F50814A4F6F24402
:103CF0001460C1F80438C1F808586FF4D575C1F8DC
:103D00000C38C1F814084248424CC1F8200800F1B0
:103D1000F840A0F67740C1F82408A0F10950A0F5BA
:103D2000093028444FF0FF35C1F800083A49C2F87D
:103D30000438C2F808184FF48061C2F80C38C2F891
:103D4000141836493648C2F820183649C2F82418E3
:103D5000A1F1D551A1F5D411A1F27251C2F8001808
:103D600044F6F0426360A260E360636126622E4E17
:103D7000636226602D4C43608460A4F1AB44C36051
:103D8000A4F5DD1443612A49A4F67C74294A04622F
:103D9000294C436204604B608B60CB604B610B62CB
:103DA0004B620D6053609360D36053611362536242
:103DB000156070BCFDF78CBD0044025800F8FFFF91
:103DC0001714FD3F0000025800CCC0000004025848
:103DD0000008025870A70A00FFDFDFFFD6D7A8EA65
:103DE000C04F00FF00606600000088CCBF7AFFAAC9
:103DF0000000FF07CCCC0C00FFFFAAF23FD07FF001
:103E0000CC0C0050EA9F6AAF1FC0FFFFCC0000C07F
:103E1000CCCCCC50001C02583F1FDFFFCC0CCC0098
:103E2000002002585C5055C5AF7BFFFFCCFF45001A
:103E30000024025800280258BBAA71FF00000000AD
:103E4000012070470000000000000000000000009A
:103E5000002070470000000000000000000000008B
:103E60001C4B42F2D9501C49D3F8D42042F4805262
:103E700010B5C3F8D420D3F8FC20184C42F480527B
:103E8000C3F8FC201122D3F8FC302064A164226521
:103E9000A36D13F0060FFBD149F6404000F060F827
:103EA00012230E4A2365936D13F0060FFBD140F2E7
:103EB00013130A4913658B6D13F0060FFBD1084BE2
:103EC000064A0B65936D13F0060FFBD140F2F253D7
:103ED000536510BD00440258715411010041005255
:103EE000146004000000000000000000000000005A
:103EF00030B587B0114D00230122684604242A7092
:103F0000C5E9013300F084FC684600F091FC684686
:103F100000F096FC013CF7D1009BAB6000F0F0FC98
:103F200000F036FD00F054FD0549064800F028FB7E
:103F300002232B7084F3118807B030BDF00D0024EC
:103F40002850000830040024000000000000000099
:103F500000F096B900000000000000000000000022
:103F6000034A516853685B1A9842FBD8704700BFF8
:103F7000001000E000000000000000000000000051
:103F8000024A536B03435363704700BF300400245D
:103F900038B50C4CD4F88C50FCF79AFBD4F88C3024
:103FA00004F50961084A686050681A6860F31F22C6
:103FB00043F8102B04F190028B4228BF1346C4F83B
:103FC0008C3038BD30040024001000E000000000F8
:103FD00002460749002342F8081B426000EB031227
:103FE0000133117A802B6FF302011172F6D1704701
:103FF000FFFF800000000000000000000000000043
:10400000094BB3F88820D20700D5704790F82420D8
:1040100010B4D3F88C40D30043F00103C4E902018B
:10402000237010BCFFF7B4BF300400240000000070
:104030000A4BB3F88820920700D5704710B491F866
:104040002420D3F88C40D300896A43F00203C4E9EA
:104050000201237010BCFFF79BBF00BF3004002497
:104060000A4AB2F8883010B513F0040400D010BD2D
:10407000302383F311880321D2F88C3019709860B3
:10408000FFF786FF84F3118810BD00BF30040024C1
:104090000A4AB2F8883010B513F0040400D010BDFD
:1040A000302383F311880421D2F88C301970986082
:1040B000FFF76EFF84F3118810BD00BF30040024A9
:1040C000F8B51446144D03460E4605F11002022CB5
:1040D000E9614FF00207846038BF022442602A6918
:1040E0000260506008192B61FCF7FAFAFCF7F0FA4D
:1040F000821B0346A24207D2022F00D8F8BD01203E
:10410000BDE8F840FFF73CBF7C1C301927461E462F
:10411000FCF7F6FAEAE700BF3004002400000000D4
:104120002DE9F843DFF89C9007460E46FCF7D0FADD
:104130004B46804653F8105F9D4237D0D9F81C405B
:10414000AB68041B341928BF3446A34215D89C42DF
:1041500004D92D68E41AAB68A342FAD36B684FF018
:10416000FF32BC60C7E900531F60AB686F601B1B68
:10417000AB60C9F81820BDE8F883022E4FF00205A5
:1041800038BF022608EB0600FCF7BAFAFCF7A0FAE3
:10419000A0EB0808464510D9022D03D8D9F81050D5
:1041A000AB68D4E70120FFF7EBFEF7E732460146A4
:1041B0003846BDE8F843FFF783BF013580462E46F9
:1041C000E0E700BF30040024000000000000000011
:1041D00003610023C2604361FFF7A2BF000000003B
:1041E00070B5234C236998420DD00368D0E90121B2
:1041F00013605A609A680A4400219A604FF0FF33B6
:104200000160A36170BD02682346002143F8102FAE
:104210005360016022699A4221D0936881680B44FF
:104220009360FCF755FAE56923690446421B9B68D5
:104230009342E7D91D4402262D1AB54238BF3546B0
:104240006019FCF75DFAFCF743FA041BA5420AD992
:10425000022ED7D90120BDE87040FFF791BEBDE81E
:104260007040FCF745BA013604463546E8E700BF22
:1042700030040024000000000000000000000000E6
:104280002DE9F84F3C4E00274FF0300906F1100899
:1042900009E087F31188D4E903312046984789F370
:1042A00011886369ABB93469FCF712FAF369054602
:1042B000A268C11A8A422CD89D18D4E90010F56171
:1042C00001604860276033694345E2D1FCF710FA8A
:1042D000DFE7FCF7FDF96369A0EB050B82465B4560
:1042E0002FD3316941453DD08A68934204D909688A
:1042F0009B1A8A689A42FAD34A68A360C4E90012FA
:1043000014608A684C60D21A4FF0FF338A60B36140
:10431000C9E73169414512D013440227F0611B1AE5
:10432000BB421E46A36038BF3E46A819FCF7E8F919
:10433000FCF7CEF9451BAE4210D9022F09D8BDE8D3
:10434000F88F0220FFF71CFE3169414512D05B4611
:10435000CAE70120BDE8F84FFFF712BE0137054656
:104360003E46E2E72B441A1A51462046BDE8F84F74
:10437000FFF7A6BE0022F7E730040024000000008B
:1043800010B530230C4683F3118891F824300C2BA0
:1043900010D8DFE803F02B0F0F270B070F0B0F0FC1
:1043A0000F0F0B008A6A936801339360D4E90032DF
:1043B00013605A604FF0FF312046A162FFF720FEE4
:1043C0000022A369A16884F824201B689A688A42A5
:1043D000FBD25A6800212360626014605C6081F344
:1043E000118810BD8B6A00221A60E3E7002383F373
:1043F000118810BD00000000000000000000000057
:1044000010B50446816AFFF7FBFD0022A369A1688D
:1044100084F824201B689A688A42FBD25A68204696
:104420002360626014605C6010BD00BF000000008B
:1044300038B50B4B01211C68DD6885F82400204647
:10444000226853601A6084F824102946DC60FFF764
:10445000EFFD29462046BDE83840FBF7B1BF00BF5D
:1044600030040024000000000000000000000000F4
:10447000F0B54B1C1C4C87B00546E6681FD0334690
:104480001A4A6846FFF7A4FEE768012287F824501D
:10449000394625682B6828465C6085F8242023600F
:1044A000E560FFF7C5FD39462846FBF789FF009B0D
:1044B00013B16846FFF794FEB06A07B0F0BD2768F5
:1044C000012286F8240031463B6838465C6087F854
:1044D00024202360E760FFF7ABFD38463146FBF749
:1044E0006FFFB06A07B0F0BD3004002481430008BC
:1044F000044B1A68DB6890689B68984294BF002060
:10450000012070473004002400000000000000007B
:1045100038B5134B01211D68DC682A6820465360BA
:104520001A6085F82410A16ADD60FFF769FD00229A
:10453000A369A16884F824201B689A688A42FBD882
:104540005A68214623602846626014605C60FFF769
:104550006FFD21462846BDE83840FBF731BF00BF5C
:1045600030040024000000000000000000000000F3
:10457000FEE700BF00000000000000000000000097
:1045800070B5214B0025044686B081630E46056355
:10459000586000F05DFA04F1100304F12802A560F0
:1045A0006563C4E904334FF0FF33C4E90A22C4E968
:1045B0000635C4E90044FCF78BF82B46024604F1AB
:1045C0008800C4E90823C4F88450FFF701FD04F112
:1045D0003C0180230D4A204600F022F801220346C8
:1045E000716803926846E36083F82420084A1962E0
:1045F0000092084B05950493D6E90312CDE9011208
:1046000000F076F806B070BDF00D002444500008AC
:104610003C50000871450008000000000000000048
:1046200010B400248B60CA6101F110028C638861B0
:10463000C1E90F43022401238C8400F1280481F88E
:104640002630C36AC1E904431A6001F12C0401F168
:104650003003C26208464B63C1E90B4310BC70478C
:1046600070B5D0E90234456800211D4A4FF0020EB2
:1046700043F8285C4FF0010C05691A4E43F86C5C56
:10468000456943F84C6C43F8685C0568A3F1380051
:1046900003F8231C03F824EC03F822CC43F8404C25
:1046A00043F8084CD46A43F82C5CA3F16C0543F83A
:1046B000344C43F83C5C02F1280543F8302C43F8B5
:1046C000385C43E904112060A3F11801A3F11C0434
:1046D000D062A3F1480043F8141C43E9074170BDC0
:1046E00030040024D1030008000000000000000096
:1046F00008B5FFF7B5FFBDE80840FFF781BE00BF72
:1047000038B5302383F31188124BDC6804F12C0593
:10471000E36AA0629D4207D194F8263083B10F204E
:10472000BDE83840FFF784BE1A681846E262FFF71A
:1047300067FEE36AAB42F7D194F82630002BEED146
:1047400094F825309B07EAD1D4E9043213605A600B
:10475000E5E700BF30040024000000000000000076
:1047600008B50146302383F311880820FFF780FE47
:10477000002383F3118808BD000000000000000042
:10478000054A0346D26821B1026003209362FFF715
:104790006FBE4FF0FF30704730040024000000006F
:1047A0000346006820B100221A608162FFF728BE2C
:1047B000704700BF00000000000000000000000083
:1047C000084AD26851B1034610B44468106004200E
:1047D0005460226010BC5A60FFF74ABE4FF0FF30B1
:1047E000704700BF300400240000000000000000FB
:1047F00003460068834205D002681A6053608162F4
:10480000FFF7FEBD704700BF000000000000000081
:1048100030B40023002400254FF0FF32C0E90445E6
:10482000C0E9002330BCC0E902337047000000003B
:10483000014B5B6883607047001000E000000000DF
:104840000E4A0F4B81685B6810B4946802691B1BA9
:10485000C4685B1A41690134D218026141F1000158
:10486000426841619342026888BF43609342C0E955
:10487000023438BF036010BC704700BFF00D002445
:10488000001000E000000000000000000000000038
:104890000023C0E900008360704700BF00000000F3
:1048A000F8B50468A04221D007460D46002604E072
:1048B0000B2A1CD02468A74218D0E3682B43E3607E
:1048C00015B123691D42F5D0D4E90103816B90F83D
:1048D00024200B430A2A8363EAD1826A1342E9D077
:1048E0008662FFF78DFD2468A742E6D1F8BD826A93
:1048F0009A43DFD1F4E700BF000000000000000091
:10490000024B0349034AC3E900127047FC0D00241F
:10491000680E0024000008240000000000000000D1
:10492000084B494210B45C68201A08401968821A82
:104930008A4204D3A24202D810BC5A6070470020B9
:1049400010BC7047FC0D00240000000000000000B7
:10495000302310B483F311880B4B49425C68201A52
:1049600008401968821A8A4207D3944205D35A60D4
:10497000002383F3118810BC70470020002383F3C9
:10498000118810BC704700BFFC0D0024000000001F
:10499000044B0022044903F10C009A60C3E90012A1
:1049A000FFF776BF040E0024514900080000000004
:1049B00010B40024C0E90223C0E9004110BC7047D4
:1049C0000022FFF7ADBF00BF0000000000000000A4
:1049D00038B5124C124D2046FFF75AFF04F1100172
:1049E0002B460422216114216018FFF7E1FF04F136
:1049F000240004F128012B460422C4E909011C21EA
:104A000004F12C00FFF7D4FF04F13C0104F1400253
:104A100004F14403C4E90F12636438BD200E00247E
:104A2000C149000800000000000000000000000074
:104A3000EFF30983203383F30988002383F311887C
:104A4000704700BF000000000000000000000000F0
:104A50004FF0300C00B58CF3118862B60E4B4FF658
:104A6000FF0E0E49D8680E4A00EA0E0001430D48B9
:104A7000D960D3F8FC1041F08071C3F8FC10C2F883
:104A8000B00F2020116841F001011160D87783F840
:104A900022C05DF804FB00BF00ED00E00003FA0552
:104AA000001000E055CEACC5000000000000000082
:104AB000302383F311880D4B5B6813F4006302D13C
:104AC00083F31188704710B5EFF309844FF08073BA
:104AD000203CE36184F30988FFF70AFD10B1044B21
:104AE000A36110BD034BA36110BD00BF00ED00E04A
:104AF000E3030008E60300080000000000000000D7
:104B000080250B4C08B5FBF7C3FD2E46FFF7F0F9E7
:104B1000012229462046FDF7DBFB42F21070668336
:104B2000FFF71EFE42F210702583FFF719FEF4E72F
:104B3000001C0258830730B548D0541E002A3FD0CD
:104B4000CAB2034601E0013C3AD303F8012B9D07AA
:104B5000F9D1032C2DD9CDB245EA05250F2C45EA14
:104B6000054536D9A4F1100222F00F0C03F1200EF6
:104B7000E6444FEA121C03F1100242E9045542E9EF
:104B8000025510327245F8D10CF1010214F00C0FED
:104B900003EB021204F00F0C13D0ACF1040323F06A
:104BA00003030433134442F8045B9342FBD10CF03B
:104BB00003042CB1C9B21C4403F8011B9C42FBD175
:104BC00030BD64461346002CF4D1F9E70346144681
:084BD000BFE71A46A446E0E726
:104BD80070500008680E0024680E0024680E002437
:104BE8007050000800000030000000300000003065
:104BF8007050000800000030000000300000003055
:104C08007050000804020430040204300402043026
:104C1800705000080000003800000038000000381C
:104C2800705000080008002000080020000800203C
:104C380070500008000000000000000000000000A4
:104C4800705000080000803800008038000080386C
:104C580000000000413E0008513E0008610C0008B9
:104C6800210C0008A10B0008D10B0008010C00085A
:104C7800310B000800000000311000081110000876
:104C88007110000851100008611000084110000858
:104C98002110000801100008811000080000000021
:104CA8000100000000000000566563746F72423016
:104CB80000000000566563746F72313134000000E3
:104CC800566563746F72443400000000566563745F
:104CD8006F72313034000000566563746F72383873
:104CE80000000000566563746F72323630000000B1
:104CF800566563746F7232354300000056656374FD
:104D08006F72323538000000566563746F72323541
:104D180034000000566563746F723235300000004D
:104D2800566563746F7232344300000056656374CD
:104D38006F72323438000000566563746F72323413
:104D480034000000005402580854025800000000C3
:104D58000058025800810000005402581C540258A0
:104D68000400000004580258018200000054025850
:104D78003054025808000000085802580283000006
:104D880000540258445402580C0000000C580258B1
:104D980003840000005402585854025810000000C0
:104DA8001058025804850000005402586C540258E8
:104DB80014000000145802580586000000540258D8
:104DC800805402581800000018580258068700003E
:104DD80000540258945402581C0000001C580258F1
:104DE80007880000566563746F723135380000001B
:104DF800566563746F72313534000000566563740C
:104E08006F72383000000000566563746F72374364
:104E180000000000566563746F72373800000000A8
:104E2800566563746F72373400000000566563740A
:104E38006F72373000000000566563746F72364336
:104E480000000000566563746F7231353000000051
:104E5800566563746F7231333000000056656374B1
:104E68006F72313243000000566563746F723132DD
:104E780038000000566563746F72313234000000E8
:104E8800566563746F723132300000005665637482
:104E98006F72464300000000566563746F723834C1
:104EA8000000000010000240080002400008024014
:104EB80000000B00280002400800024004080240DD
:104EC80006010C00400002400800024008080240A9
:104ED80010020D0058000240080002400C08024071
:104EE80016030E00700002400C0002401008024039
:104EF80000040F00880002400C0002401408024021
:104F080006051000A00002400C00024018080240EC
:104F180010061100B80002400C0002401C080240B4
:104F280016072F001004024008040240200802401F
:104F380000083800280402400804024024080240FF
:104F480006093900400402400804024028080240CB
:104F5800100A3A0058040240080402402C08024093
:104F6800160B3B00700402400C040240300802405B
:104F7800000C3C00880402400C0402403408024043
:104F8800060D4400A00402400C0402403808024008
:104F9800100E4500B80402400C0402403C080240D0
:104FA800160F4600566563746F7231443400000072
:104FB80000000000F11100087115000841160008F2
:104FC800400040009C0100249C01002401000000D6
:104FD800AC0100248000000040010000080000002F
:104FE800566563746F723139380000005665637412
:104FF8006F72313934000000566563746F72313056
:1050080043000000566563746F724430000000006E
:10501800566563746F7243430000000063300000FC
:10502800245000080000000000000000C00C00240C
:10503800F00D002469646C65000000006D61696E04
:10504800002C0538040448080C10141C20242526BC
:10505800000000000000240401000400000000001B
:08506800000C00102830340098
:04000005080003B933
:00000001FF
