:020000040800F2
:1000000000040020B9030008BB030008BB0300087C
:10001000BB030008BB030008BB030008BB030008C8
:10002000BB030008BB030008BB03000851430008E2
:10003000BB030008BB030008BB030008BB030008A8
:10004000BB030008BB030008BB030008BB03000898
:10005000BB030008BB030008BB030008BB03000888
:10006000BB030008BB030008BB030008111A00080B
:10007000511A0008911A0008D11A0008111B000833
:10008000511B0008911B000821170008BB03000842
:10009000BB030008BB030008BB030008BB03000848
:1000A000BB030008BB030008BB030008BB03000838
:1000B00031130008BB030008BB030008BB030008A2
:1000C000BB030008BB030008BB030008F12B0008BA
:1000D000612C0008D1120008BB030008BB03000814
:1000E000BB030008BB030008BB030008BB030008F8
:1000F000BB030008BB030008BB030008D11B0008BA
:1001000081120008BB030008BB030008D12C0008C3
:10011000BB03000801130008BB030008BB03000871
:10012000111C0008511C0008911C0008D11C00087B
:10013000111D0008BB030008BB030008BB03000837
:10014000BB030008BB030008BB030008BB03000897
:10015000511D0008911D0008D11D0008BB030008B7
:10016000BB030008BB030008BB030008BB03000877
:10017000BB030008BB030008BB030008BB03000867
:10018000BB030008BB030008BB030008BB03000857
:10019000BB030008412D0008B12D0008BB03000877
:1001A000BB030008BB030008BB030008BB03000837
:1001B000BB030008BB030008BB030008BB03000827
:1001C000BB030008BB030008BB030008BB03000817
:1001D000BB030008C1250008BB030008BB030008DF
:1001E000BB030008BB030008BB030008BB030008F7
:1001F000BB030008BB030008BB030008BB030008E7
:10020000BB030008BB030008BB030008BB030008D6
:10021000BB030008BB030008BB030008BB030008C6
:10022000BB030008BB030008BB030008BB030008B6
:10023000BB030008BB030008BB030008BB030008A6
:10024000BB030008D1170008111800085118000856
:1002500091180008D1180008111900085119000858
:1002600091190008BB030008BB030008BB0300088A
:10027000BB030008BB030008BB030008BB03000866
:10028000BB030008BB030008BB030008BB03000856
:10029000BB030008BB030008BB030008BB03000846
:1002A000BB030008BB030008BB030008BB03000836
:1002B000BB030008BB030008BB030008BB03000826
:1002C000BB030008BB030008BB030008BB03000816
:1002D000BB030008BB030008BB030008BB03000806
:1002E00072B6264880F30888254880F30988254897
:1002F00025490860022080F31488BFF36F8F00F057
:100300000FF902F0DDFF4FF0553020491B4A9142B2
:100310003CBF41F8040BFAE71D49194A91423CBF22
:1003200041F8040BFAE71B491B4A1C4B9A423EBF9B
:1003300051F8040B42F8040BF8E700201849194A59
:1003400091423CBF41F8040BFAE700F039F900F0A4
:1003500027F9154C154DAC4203DA54F8041B8847B5
:10036000F9E704F05DF8124C124DAC4203DA54F890
:10037000041B8847F9E700F01BB9000000040020C7
:10038000000800200000000808ED00E00000002048
:1003900000040020FC530008000000240400002496
:1003A0002000002448180024E0020008E0020008B1
:1003B000E0020008E002000892E700F000F8FEE723
:1003C0002DE9F04FC1F80CD0D0F80CD0BDE8F08F7B
:1003D000002383F311882846A047002003F030FD56
:1003E000FEE703F0E5FB00DFFEE70000844641EA9C
:1003F000000313F003036DD1403A41D351F8043B9D
:1004000040F8043B51F8043B40F8043B51F8043BEE
:1004100040F8043B51F8043B40F8043B51F8043BDE
:1004200040F8043B51F8043B40F8043B51F8043BCE
:1004300040F8043B51F8043B40F8043B51F8043BBE
:1004400040F8043B51F8043B40F8043B51F8043BAE
:1004500040F8043B51F8043B40F8043B51F8043B9E
:1004600040F8043B51F8043B40F8043B51F8043B8E
:1004700040F8043B51F8043B40F8043B403ABDD2FD
:10048000303211D351F8043B40F8043B51F8043B9F
:1004900040F8043B51F8043B40F8043B51F8043B5E
:1004A00040F8043B103AEDD20C3205D351F8043B2E
:1004B00040F8043B043AF9D2043208D0D2071CBFFA
:1004C00011F8013B00F8013B01D30B880380604623
:1004D000704700BF082A13D38B078DD010F0030399
:1004E0008AD0C3F10403D21ADB071CBF11F8013B09
:1004F00000F8013B80D331F8023B20F8023B7BE758
:10050000043AD9D3013A11F8013B00F8013BF9D282
:100510000B7803704B7843708B788370604670471C
:1005200010B5BFF34F8FBFF36F8F1C480022C0F888
:100530005022BFF34F8FBFF36F8F436943F40033F3
:100540004361BFF34F8FBFF36F8FC0F88420BFF3B9
:100550004F8FD0F8803043F6E074C3F34E3CC3F3C2
:10056000C90E4FEA4C1C0CEA0401734641EA83723F
:10057000013BC0F860225A1CF8D1ACF1200C1CF1F0
:10058000200FF0D1BFF34F8F436943F480334361B1
:10059000BFF34F8FBFF36F8F10BD00BF00ED00E0C2
:1005A000704700BF000000000000000000000000D5
:1005B000FEE700BF00000000000000000000000097
:1005C000F8B52B4D2B4F2C4905F170042B482C4AC4
:1005D00088420DD2043A034652F8046F43F8046B84
:1005E0008B42F9D34B1E1B1A23F003030433184428
:1005F000B84207D2013F00213F1A27F0030204321C
:1006000004F0D0FBA54205D0D5E90420D5E90617B2
:100610001035DDE71B480023C0F88430BFF34F8F4F
:10062000D0F8805043F6E076C5F34E34C5F3C905E3
:10063000640104EA06012B4641EA8372013BC0F8DB
:100640006C225A1CF8D1203C14F1200FF1D1BFF3D9
:100650004F8FBFF36F8FBFF34F8FBFF36F8F0023A9
:10066000C0F85032BFF34F8FBFF36F8FF8BD00BF9C
:10067000484E000848180024481800244818002450
:100680000054000800ED00E0000000000000000041
:1006900008B500F075FE01F0E3FB00F0D9F900F0B9
:1006A0003FFA00F085FA00F09BFA00F0E9F900F05B
:1006B000CFFD02F025FFBDE8084000F001B800BF03
:1006C00002F026BC00000000000000000000000056
:1006D0004FF08043586A704700000000000000009F
:1006E0004FF080430021022258631961DA6070479D
:1006F0004FF080430022DA60704700BF0000000026
:100700004FF0804358637047000000000000000075
:10071000F8B51546826804460B46AA4200D28568A1
:10072000A1692669761AB54218D30AD82A4618460E
:10073000FFF75CFEE268A3682846A2615B1BA3602A
:10074000F8BDAF1B32461846FFF750FE3A4630441C
:10075000E168FFF74BFEE2683A44ECE72A461846A8
:10076000FFF744FEA2692A44E5E700BF000000004D
:10077000836893422DE9F04104460F4612D2856802
:10078000D4E90460361AB54212D318D82A4639463D
:10079000FFF72CFEE268A368284662615B1BA3603A
:1007A000BDE8F081D4E904601546361AB542ECD2B2
:1007B0002A463946FFF71AFE62692A44EBE7A5EBA1
:1007C000060832463946FFF711FE4246B919E0687D
:1007D000FFF70CFEE2684244DDE700BF00000000C6
:1007E00010B40A440024C361019B8460C16010BC42
:1007F00002610362C0E90000C0E90511704700BF53
:10080000D0E90532934211D0826810B501325C1CE8
:10081000826044611970D0E904329A4201D3C368FE
:100820004361002103F074FB002010BD8268002AA0
:10083000EAD04FF0FF3070470000000000000000D9
:1008400070B5302305460E4683F3118803E003F0AC
:1008500047FB002819DBAC6831462846002CF6D04F
:10086000AB68A969013B4A1CAB602B69AA619A423B
:100870000C7801D3EB68AB61EB690BB12846984764
:10088000002383F31188204670BD84F3118870BD66
:100890002DE9F04F83B09A46C6693027019287F35D
:1008A0001188CAB183460D46DDF804904FF0000868
:1008B0004A4629465846FFF72BFF0446584694B14E
:1008C00006B1B04788F31188A9EB0409254487F3E2
:1008D0001188B9F1000FEBD10198002383F311883F
:1008E00003B0BDE8F08F514603F0FAFA0028DFD0DC
:1008F000019BA3EB0900002383F3118803B0BDE83B
:10090000F08F00BF000000000000000000000000A9
:1009100010B4C3618C18019B0461826010BCC1607B
:100920000362C0E90000C0E9051170470000000043
:10093000F8B5302304460F46164683F3118803E0CA
:1009400003F0CEFA002819DBA56831462046002DB9
:10095000F6D06269A368511C013B6161A360177006
:10096000D4E904329A4201D3E3686361E3690BB1CD
:1009700020469847002080F31188F8BD85F3118840
:10098000F8BD00BF000000000000000000000000F3
:10099000D0E905239A4210D08268591C013210B563
:1009A000816182601C780369994201D3C3688361C5
:1009B000002103F0ADFA204610BD8268002AEBD07A
:1009C0004FF0FF30704700BF000000000000000043
:1009D0002DE9F04F83B09A46C6693027019287F31C
:1009E0001188CAB183460D46DDF804904FF0000827
:1009F0004A4629465846FFF7BBFE0446584694B17E
:100A000006B1B04788F31188A9EB0409254487F3A0
:100A10001188B9F1000FEBD10198002383F31188FD
:100A200003B0BDE8F08F514603F05AFA0028DFD03A
:100A3000019BA3EB0900002383F3118803B0BDE8F9
:100A4000F08F00BF00000000000000000000000068
:100A500000F0F6BD000000000000000000000000F3
:100A600003460022012118305A611970C3E901229E
:100A7000C3E9032203F0DCBA00000000000000001C
:100A8000704700BF000000000000000000000000F0
:100A90000C30FFF7FDBE00BF0000000000000000AA
:100AA0004FF0FF330C30FFF7F3BE00BF0000000033
:100AB0003030FFF78DBF00BF0000000000000000D5
:100AC0004FF0FF333030FFF783BF00BF000000005E
:100AD0000C30FFF7B5BE00BF0000000000000000B2
:100AE0004FF0FF310C30FFF7ABBE00BF000000003D
:100AF0003030FFF71DBF00BF000000000000000005
:100B00004FF0FF323030FFF713BF00BF000000008E
:100B1000012914BF6FF0130000207047000000008F
:100B200002F04EBA000000000000000000000000CB
:100B300003460349012243F8041B027243607047D5
:100B4000C84E000800000000000000000000000087
:100B500010B53023044683F3118802F081FA022392
:100B60000020237280F3118810BD00BF0000000038
:100B700038B5436904460D463BB1294604F10C00E3
:100B8000FFF73EFE00280BDB38BD0421084403F0CC
:100B900057FA294604F10C00FFF732FE0028F3DA79
:100BA000201D4FF40061BDE8384003F049BA00BF92
:100BB00002F036B900000000000000000000000054
:100BC0000346002201210C301970C3E9012203F011
:100BD0002FBA00BF0000000000000000000000006D
:100BE00001F09EB9000000000000000000000000BD
:100BF00001234022002110B5044600F8303B04F0E8
:100C0000D1F80023C4E9013310BD00BF000000008B
:100C100010B5302204460B4682F31188242263600B
:100C200000210C3004F0BEF8204601F089F90223BF
:100C30000020237080F3118810BD00BF0000000069
:100C400000EB810C5369CCF80C204BB14FF0000C39
:100C5000C3F800C0C3F804C0C3F808C0C3F80CC090
:100C6000936923B100221A605A609A60DA6001F039
:100C700057BA00BF000000000000000000000000A4
:100C800030B500EB810C0124DCF80C508C40B0F83E
:100C90000AC0AD6944EA0C0CA0F80AC0AA600022A0
:100CA000C5E90032BDE8304001F012BB0000000091
:100CB00030B500EB810C0124DCF80C508C40B0F80E
:100CC00008C06D6944EA0C0CA0F808C0AA600022B4
:100CD000C5E90032BDE8304001F092BB00000000E1
:100CE00070B5022300250446242203702946C0F86B
:100CF00088500C3040F8045C04F054F8204684F826
:100D0000705001F095F963681B6823B129462046AD
:100D1000BDE87040184770BD0000000000000000F2
:100D20000378052B0DD00521426880F88C300170C6
:100D3000136810B504460BB1042198470023A36043
:100D400010BD70470000000000000000000000001F
:100D50000178052900D0704790F88CC0426880F86F
:100D600000C01368002BF6D0184700BF0000000039
:100D700070B590F87030044613B1002380F87030DD
:100D800004F18002204601F093FA63689B6853B334
:100D90002046984738B3A56F94F88030B4F8862081
:100DA000AA422CBF2A46A267190600F1DA80002A5F
:100DB00000F08D801522302384F8702083F3118891
:100DC00062892046E36842F001029B696281D4E9AE
:100DD0001D51002419609D6021465C6001F078FA85
:100DE00084F3118870BD94F8803013F060061846C3
:100DF0001CD194F8812003F07F0545EA022540F2DA
:100E00000232954200F0518140D8B5F5807F00F064
:100E100008811DD9B5F5817F00F01281B5F5407FBD
:100E200004D194F88230012B00F0D38000212046B9
:100E300001F0C6FD0021204601F0B2FD63681B6889
:100E400013B1062120469847062384F8703070BD00
:100E5000012D61D0022D51D194F98430204694F8AF
:100E60008410002B01F00F01C0F2AC8001F000FAF9
:100E7000012800F0AC800228D8D19A490223002230
:100E8000C4E91D13E26794F8803087E7B5F5006F79
:100E900000F0038147D9B5F5106F39D12378042BC1
:100EA00000F0A18094F882304BB10421626884F88C
:100EB0008B302170136813B102212046984700231C
:100EC00094F88000C4E91D33E367030663D40B2262
:100ED000302384F8702083F3118822890025E36889
:100EE000204642F0010229465B6922819D60C3E9E8
:100EF000005501F085FA85F3118870BD002D95D15C
:100F0000022204F18801E56761671546A26745E79B
:100F100040F60242954289D1022573490022C4E974
:100F20001D15E2673AE7B5F5A06F00F09F80A5F5C3
:100F3000C065012D3FF67AAF61682046B4F8843071
:100F40004D6894F8822094F88310A84700283FF455
:100F50006DAF94F88030D0E90052E667C4E91D25F2
:100F60001CE7C2B10922302384F8702083F3118872
:100F700022892046E36842F001025B692281D4E9BC
:100F80001D51002419609D6021465C6001F038FA13
:100F900084F3118870BD1422302384F8702083F309
:100FA000118862890025E368204642F00102294643
:100FB0009B6962819D60C3E9005501F089F985F361
:100FC000118870BD01F064F901287FF454AF4749DE
:100FD00054E7B4F88830E66743F00203C4E91D66BD
:100FE000A4F8883071E7302383F31188A3682022A6
:100FF000314604F1100003F00113A36003F0D2FEA8
:10100000204601F02DF986F311880321636884F8E6
:101010008B6021701B68002B3FF444AF204698473B
:1010200040E794F88230012B7FF400AFB4F88830A9
:10103000E66723F00203C4E91D66A4F8883044E79C
:1010400094F88230002B7FF4F1AE94F8843013F0E2
:101050000F0106D01E06204639D401F0C1FC94F8D9
:1010600080000023C4E91D33E3672EE7B4F8803025
:10107000B3F5A06FF5D194F88230204684F88A3019
:1010800001F03EF863681B6813B1012120469847C0
:10109000032394F880002370E3E7012204F18B011D
:1010A000E6671546C4E91D1278E694F88230002BF5
:1010B0007FF4BCAE94F8843013F00F01D1D01D063C
:1010C000204609D401F06CFC94F88000C9E701F0D7
:1010D00097FC94F88000C4E701F072FC94F880005B
:1010E000BFE700BFF04E0008F84E0008F44E0008BD
:1010F00038B590F870300446152B27D8DFE803F098
:101100002726262626262726260B1038262626269C
:10111000262626262727856FB0F886309D422ED3B7
:101120001422302384F8702083F31188628900250B
:10113000E368204642F0010229469B6962819D6076
:10114000C3E9005501F0C4F885F3118838BD0021CA
:1011500001F036FC0021204601F022FC63681B6888
:1011600013B1062120469847062384F8703038BD15
:10117000C36F03B19847002384F8703038BDC3684B
:101180001B8AB5FBF3F203FB1255002DC8D13023A7
:1011900083F3118802892946C36842F001025B6922
:1011A00002819D60C3E9005501F02AF985F3118899
:1011B0000A2384F8703038BD0000000000000000F1
:1011C00038B590F870300446152B21D8DFE803F0CD
:1011D000212020202020212020212121202020200A
:1011E00020202020320B0B22302380F8702083F344
:1011F000118802890025C36842F0010229465B6913
:1012000002819D60C3E9005501F0FAF885F3118869
:1012100038BD002101F0D4FB0021204601F0C0FBC5
:1012200063681B6813B1062120469847062384F89B
:10123000703038BDC3689B695B68002BE8D1C36F11
:1012400003B19847002384F8703038BD00000000D7
:1012500000F006B8000000000000000000000000E0
:10126000034B1A781AB90121024A19705A60704763
:101270002000002440410052000000000000000057
:1012800010B5054C204602F0FBF9204602F010FA9A
:10129000BDE8104003F09CB8FC4E000800000000C0
:1012A0000A4A09014FEA501C0123C9B200B500F0F7
:1012B0001F0E104403FA0EF380F8001302EB8C01AA
:1012C000C1F8803142F82C305DF804FB00E100E009
:1012D00010B5074C204602F0D3F9064801F068FF2C
:1012E000204602F0E5F9BDE8104003F071B800BFF8
:1012F000204F000808030024000000000000000048
:1013000010B5074C204602F0BBF9064801F050FF2B
:10131000204602F0CDF9BDE8104003F059B800BFF7
:10132000144F0008680300240000000000000000C3
:1013300010B5064C204602F0A3F901F019FE204634
:1013400002F0B6F9BDE8104003F042B8084F0008BB
:1013500008B509217A20FFF7A3FF07211C20FFF71A
:101360009FFF0C212520FFF79BFF0C213520BDE8B6
:101370000840FFF795BF00BF00000000000000001C
:1013800038B5364B00224FF0FF31354CD3F8800092
:10139000344D60F00040C3F88000D3F8800000F0C6
:1013A0000040C3F88000D3F88000D3F88400C3F86D
:1013B0008410D3F88400C3F88420D3F88400D86F55
:1013C0002043D867DC6F28482C40DC67DC6FD3F8FB
:1013D00088402043C3F88800D3F88800C0F30A008F
:1013E000C3F88800D3F88800D3F89000C3F89010B1
:1013F000D3F89000C3F89020D3F89000D3F894006D
:10140000C3F89410D3F89400C3F89420D3F8940050
:10141000D3F89800C3F89810D3F89800C3F8982030
:10142000D3F89800D3F88C00C3F88C10D3F88C0054
:10143000C3F88C20D3F88C00D3F89C00C3F89C1020
:10144000D3F89C10C3F89C20D3F89C3000F0C0FA6D
:1014500000F0DEFCBDE83840FFF77ABF00440258D8
:10146000FFEFFF7F0010008000F8FFFF000000008A
:10147000654B02206549664A10B40124C1F8084151
:10148000D3F8F4100143C3F8F410D3F81C1101434E
:10149000C3F81C11D3F81C31D06053689904FCD5F3
:1014A0005C4901235C4C0020116093604FF4404381
:1014B0005749D460106193618B699B04FCD50B681C
:1014C000514A43F480730B60136F03F44073B3F518
:1014D000007F04D04FF480310023116713674A491D
:1014E0000B6843F001030B600B685C07FCD500231D
:1014F000454A0B61136913F03803FBD14FF080406C
:10150000012446491460506045485367D162106118
:1015100013683D4943F4803313600B689803FCD58E
:101520000A68394B42F480520A601A689204FCD56A
:1015300000223C483C4944F6F05498625A631963CF
:101540003A49DC633A4899633A495A641864D96263
:1015500019682D4A41F0A8511960136803F0285307
:10156000B3F1285FF9D148244FF4886340204FF449
:10157000803194614FF08054D3614FF4E0031062E6
:101580004FF44030D16414652B4953653223906584
:101590000B600B6803F00F03022BFAD11A4A136990
:1015A00043F003031361136903F03803182BFAD1D6
:1015B000D2F8DC3010BC43F00053C2F8DC30D2F873
:1015C000043143F00053C2F80431D2F80431D2F8A8
:1015D000DC3043F08043C2F8DC30D2F8043143F011
:1015E0008043C2F80431D2F80431D2F8DC3043F041
:1015F0000043C2F8DC30D2F8043143F00043C2F8B3
:101600000431D2F804317047004402580080005180
:101610000048025800C000F0020000010000FF0175
:1016200000881008525090019F0209016112010BBD
:101630001F07050799036B010020005200000000FE
:1016400070B51E4C00261E4D2046FFF709FA1D4AB4
:101650001D4B05211220C4E90A25C4E90C63FFF7DC
:101660001FFE1A4BD3F8D82042F02002C3F8D8202E
:10167000D3F8002142F02002C3F80021D3F8002162
:10168000D3F8802042F02002C3F88020D3F88020D5
:1016900022F02002C3F88020D3F88020AE60D3F877
:1016A000D82022F02002C3F8D820D3F8002122F05D
:1016B0002002C3F80021D3F8003170BD28000024B7
:1016C0000023024000200240162C02000044025871
:1016D000104B98420DD0826A9368590706D59368DB
:1016E00043F0100393609368DB06FCD40023D361BE
:1016F0007047016B0A68136823F01F0313601368B7
:10170000DB07FCD491F80CC03D234A6803FA0CF3C4
:101710001360E0E728000024000000000000000043
:1017200070B5264801F0ACFF254D264A2E69136896
:10173000136066B313F0100406D02C78A4F10304F0
:10174000B4FA84F464096400180648BF44F0040441
:10175000D90523D59A0544F0080401D544F01004B6
:101760001748FFF7B5FFF3681BB3052221462A701F
:1017700098472B78052B1CD0302383F311884FF02A
:10178000FF31114802F09CFB002383F311880B48C2
:1017900001F08EFFBDE8704002F01ABE9B05DDD45B
:1017A000002CDDD1054801F083FFBDE8704002F058
:1017B0000FBE022200232A702B61DDE72C4F0008A8
:1017C00028000024002002403C000024000000000B
:1017D0000A4808B501F054FF094B0A4819684268E5
:1017E00001F00E0159600AB180689047034801F08A
:1017F0005FFFBDE8084002F0EBBD00BF8C4F000862
:1018000000540258600000240000000000000000A6
:101810000B4810B501F034FF0A4B0B481968C26839
:10182000090901F00E010C015C600AB100699047E2
:10183000034801F03DFFBDE8104002F0C9BD00BF04
:10184000804F00080054025860000024000000008F
:101850000B4810B501F014FF0A4B0B481968426998
:10186000090A01F00E010C025C600AB18069904720
:10187000034801F01DFFBDE8104002F0A9BD00BF04
:10188000744F00080054025860000024000000005B
:101890000B4810B501F0F4FE0A4B0B481968C269F9
:1018A000090B01F00E010C035C600AB1006A90475D
:1018B000034801F0FDFEBDE8104002F089BD00BF05
:1018C000684F000800540258600000240000000027
:1018D0000B4810B501F0D4FE0A4B0B481968426A58
:1018E000090C01F00E010C045C600AB1806A90479B
:1018F000034801F0DDFEBDE8104002F069BD00BF05
:101900005C4F0008005402586000002400000000F2
:101910000B4810B501F0B4FE0A4B0B481968C26AB7
:10192000090D01F00E010C055C600AB1006B9047D7
:10193000034801F0BDFEBDE8104002F049BD00BF04
:10194000504F0008005402586000002400000000BE
:101950000B4810B501F094FE0A4B0B481968426B16
:10196000090E01F00E010C065C600AB1806B904715
:10197000034801F09DFEBDE8104002F029BD00BF04
:10198000444F00080054025860000024000000008A
:101990000B4810B501F074FE0A4B0B481968C26B76
:1019A000090F01F00E010C075C600AB1006C904752
:1019B000034801F07DFEBDE8104002F009BD00BF04
:1019C000384F000800540258600000240000000056
:1019D0000B4800220B4B0146026003F1A00C0A48A1
:1019E00001E053F8140C143302604A60634541F877
:1019F000082FF6D1054B4FF0FF325A60704700BFF9
:101A000060000024B04F00080854025800540258E7
:101A10000A4808B501F034FE094B0A4819684268C3
:101A200001F03D0199600AB180689047034801F0D8
:101A30003FFEBDE8084002F0CBBC00BF8C50000860
:101A400000000240A400002400000000000000008C
:101A50000B4810B501F014FE0A4B0B481968C26818
:101A6000890901F03D018C019C600AB10069904731
:101A7000034801F01DFEBDE8104002F0A9BC00BF04
:101A80008050000800000240A40000240000000074
:101A90000B4810B501F0F4FD0A4B0B481968426978
:101AA000090C01F03D010C049C600AB1806990476B
:101AB000034801F0FDFDBDE8104002F089BC00BF05
:101AC0007450000800000240A40000240000000040
:101AD0000B4810B501F0D4FD0A4B0B481968C269D8
:101AE000890D01F03D018C059C600AB1006A9047A8
:101AF000034801F0DDFDBDE8104002F069BC00BF05
:101B00006850000800000240A4000024000000000B
:101B10000A4808B501F0B4FD094B0A485968426A01
:101B200001F03D01D9600AB1806A9047034801F095
:101B3000BFFDBDE8084002F04BBC00BF5C50000890
:101B400000000240A400002400000000000000008B
:101B50000B4810B501F094FD0A4B0B485968C26A56
:101B6000890901F03D018C01DC600AB1006B9047EE
:101B7000034801F09DFDBDE8104002F029BC00BF04
:101B80005050000800000240A400002400000000A3
:101B90000B4810B501F074FD0A4B0B485968426BB5
:101BA000090C01F03D010C04DC600AB1806B904728
:101BB000034801F07DFDBDE8104002F009BC00BF04
:101BC000EC50000800000240A400002400000000C7
:101BD0000B4810B501F054FD0A4B0B485968C26B15
:101BE000890D01F03D018C05DC600AB1006C904765
:101BF000034801F05DFDBDE8104002F0E9BB00BF05
:101C0000E050000800000240A40000240000000092
:101C10000A4808B501F034FD094B0A481968426CBE
:101C200001F03D0199600AB1806C9047034801F0D2
:101C30003FFDBDE8084002F0CBBB00BFD450000818
:101C400000040240A4000024000000000000000086
:101C50000B4810B501F014FD0A4B0B481968C26C13
:101C6000890901F03D018C019C600AB1006D90472B
:101C7000034801F01DFDBDE8104002F0A9BB00BF04
:101C8000C850000800040240A40000240000000026
:101C90000B4810B501F0F4FC0A4B0B481968426D73
:101CA000090C01F03D010C049C600AB1806D904765
:101CB000034801F0FDFCBDE8104002F089BB00BF05
:101CC000BC50000800040240A400002400000000F2
:101CD0000B4810B501F0D4FC0A4B0B481968C26DD3
:101CE000890D01F03D018C059C600AB1006E9047A2
:101CF000034801F0DDFCBDE8104002F069BB00BF05
:101D0000B050000800040240A400002400000000BD
:101D10000A4808B501F0B4FC094B0A485968426EFC
:101D200001F03D01D9600AB1806E9047034801F08F
:101D3000BFFCBDE8084002F04BBB00BFA450000848
:101D400000040240A4000024000000000000000085
:101D50000B4810B501F094FC0A4B0B485968C26E51
:101D6000890901F03D018C01DC600AB1006F9047E8
:101D7000034801F09DFCBDE8104002F029BB00BF04
:101D80009850000800040240A40000240000000055
:101D90000B4810B501F074FC0A4B0B485968426FB0
:101DA000090C01F03D010C04DC600AB1806F904722
:101DB000034801F07DFCBDE8104002F009BB00BF04
:101DC0004450000800040240A40000240000000069
:101DD0000B4810B501F054FC0A4B0B485968C26F10
:101DE000890D01F03D018C05DC6012B1D0F8800056
:101DF0009047034801F05CFCBDE8104002F0E8BAEF
:101E00003850000800040240A40000240000000034
:101E100000220D4830B40D4C13460D4D226001E0F8
:101E200055F8330004EB830102330260202B4A6033
:101E3000F6D14FF0FF330749074A8B60CB609360C0
:101E4000D36030BC704700BF10000240A4000024E3
:101E5000F8500008000002400004024000000000AA
:101E6000704700BF000000000000000000000000FC
:101E7000124A0023F0B5D2E924414FF0010E02F1DD
:101E8000080C8E685CF8040F03F110020EFA03F1DF
:101E90005D1C87690EFA02F227B1D4F81C783A4328
:101EA000C4F81C28426922B1D4F81C281143C4F894
:101EB0001C189E422B46E5D1F0BD00BF280100242E
:101EC00070B400224FF0FF348E6800EB421102F133
:101ED000010CD1F800590B46002D05DAD1F8005954
:101EE00045F08045C1F80059D1F8005B002D05DAB6
:101EF000D1F8005B45F08045C1F8005BB242C3F801
:101F000008496246C3F8084BDFD14FF0011370BC9B
:101F1000C0F81C38704700BF00000000000000003F
:101F200010B5044C2046FEF763FE034A034BC4E998
:101F3000242310BD28010024000008402852000876
:101F40000378012B00D07047324B984270B505469C
:101F5000D0F8906035D03446C0230022C6F8002E59
:101F600033604FF40413B3632369002BFCDA0123BD
:101F70000C20236101F004FB2369DB07FCD4122051
:101F800001F0FEFA2369002BFCDA0024D5E92401D4
:101F9000B460FFF795FF6B68C6F81048DB68C6F8B9
:101FA0001448C6F81C484BB11B4BB3614FF0FF33CC
:101FB0007361B36843F00103B36070BD174BB36145
:101FC000F4E7174B0E216520D3F8D82042F00062C9
:101FD000C3F8D820D3F8002142F00062C3F80021F2
:101FE000D3F80021D3F8802042F00062C3F88020AB
:101FF000D3F8802022F00062C3F88020D3F880302C
:10200000FFF74EF9074A084BD5F89040F260C6F842
:102010000038A1E728010024083C30C0003C30C053
:102020000044025840140040030020020000000059
:10203000F8B52023D0F8905007462B612C6914F096
:102040002004FBD112204FF0006601F099FAD7F876
:1020500094C04FF001134FF0FF31DCF80800C5F8D1
:102060003448C5F81C3805EB4413844204F10104DC
:10207000C3F80069C3F8006BC3F80819C3F8081B5C
:10208000F1D1DCF800301021D7F89020C7F8983053
:102090006B621161146914F01004FBD1122001F07D
:1020A0006FFAD5F80028124B22F4FE621149C5F8E8
:1020B0000028AA6913430922AB61C5F81028D7F894
:1020C0009830C5F81428F9604FF0C0410A4AC5F8A5
:1020D000101B03F1100143F48013C5F8002BC5F861
:1020E0001049C5F80029C7F89810AB62F8BD00BFC9
:1020F00010000C0004520008408000100000000096
:10210000D0F8902090F88A10D2F8003823F4FE63BB
:1021100043EA0113C2F80038704700BF0000000016
:1021200000EB8103DB681A6802F003022DE9F0413D
:102130000D460FFA81F8511ED0F89040464F0646E2
:1021400002294FF0000198BF07EB824704EB4512CC
:10215000C2F8101B69019A69002A47D0588A05F114
:10216000580238435201A05005F11000012282406C
:10217000D4F81C080243C4F81C2862180021C2F8D5
:1021800010195A69002A45D0998B05F13F001A8A27
:10219000012904EB80004FEA9203D6F8982088BF0B
:1021A0004B43A90103EB020C41F0200142EA034238
:1021B000C6F898C04260216123699A06FCD406EBF8
:1021C0008806122001F0DCF905F14802F36852019B
:1021D0001B8A43EA85533B43A3500123D4F81C28B0
:1021E000AB401343C4F81C38BDE8F08104EB48123F
:1021F00005F1100C012000FA0CF0D2F800CB2CF401
:10220000004CC2F800CBD4F81C2822EA0002C4F823
:102210001C28B2E705F13F03104A04EB83035A6020
:10222000AB0143F02003236123699B06FCD404EB3C
:102230004818122001F0A4F90122D8F80039AA4068
:1022400023F40043C8F80039D4F81C3823EA020309
:10225000C4F81C38BDE8F0810080001000040002C2
:102260000346D0E924010A68C3F89820FFF728BE86
:102270005831D0F8903049015B5813F4004004D035
:1022800013F4001F0CBF0220012070470000000063
:102290004831D0F8903049015B5813F4004004D025
:1022A00013F4001F0CBF0220012070470000000043
:1022B00000EB8100C3681B6A19685B68116053609A
:1022C000704700BF00000000000000000000000098
:1022D00000EB8103DA68936910B41C68DC6009B90B
:1022E000402C25D8538A1268D0F8900002F0030CD5
:1022F0005A1E2244BCF1010FB2FBF3F202FB03F3BE
:1023000003F1030323F0030343EAC24300EB41124A
:1023100043F0C043C2F8103B0DD009B200EB4110AE
:1023200010BCD0F8003B43F00443C0F8003B7047BA
:1023300040241C60D6E7D0F8083800EB411209B2FF
:1023400013F4807FD2F8003B14BF43F0805343F076
:102350000053C2F8003BE1E700000000000000006D
:102360002DE9F041244F0446D7F8906006EB401366
:10237000D3F8085B2807C3F8085B03D5D6F81438F0
:10238000190731D4EA072DD5D6F81438DB0729D53B
:1023900007EB8403D9688A6954B9488A5368B3FB48
:1023A000F0F500FB15331BB91068D36898420DD3C4
:1023B00001227B89CD68A24023EA02037B818DB193
:1023C00021462B460C48BDE8F04118471B1A5460C3
:1023D0003021136081F3118807482146FFF778FF09
:1023E00084F31188BDE8F08107EB84032146384669
:1023F000DB685B689847C5E72801002400000000FF
:1024000000EB810310B4DC6862691368D360F3B930
:10241000D0F890204FF4002002EB4113C3F81009CC
:10242000236803F00303012B2AD008B202EB40100B
:102430000123D0F800498B4044F00444C0F800491F
:10244000D2F8341810BC0B43C2F83438704709B9BD
:10245000402B26D8B4F810C0D0F890200CF1FF30F3
:102460001844B0FBFCF043EAC04302EB411043F0D8
:102470000053C0F81039236803F00303012BD4D1B3
:10248000D2F8083808B213F4807F02EB4113D3F876
:10249000004914BF44F0805444F00054C3F800498C
:1024A000C4E740231360D5E70000000000000000EF
:1024B0002DE9F84FDFF8049104464FEA401BD9F8A4
:1024C000906006EB4013D3F80859E907C3F80859A0
:1024D00003D5D6F81038DA070CD42B0608D54FF000
:1024E0000108D6F8343808FA04F813EA080F18D1AE
:1024F000BDE8F88F09EB8003D9684B691868DA6882
:1025000090424AD30122B9F808308F68A24023EAEA
:102510000203A9F80830002FDFD021464846B8470B
:10252000DBE709EB8403DB685E69D6E90075AF423F
:1025300041D90134D9F890A0B3F81090E4B20AEB75
:102540000B0E0AEB0430A7EB050CDEF81839CC456E
:102550009BB228BFCC46BCEB830FC9D8B468BCF192
:10256000040F236803600BD9ACF10501234621F069
:1025700003010431214453F8042F99420260FAD137
:1025800065446444BD42C6E90154DCD3DAF834380A
:1025900023EA0803CAF83438AAE7121A00271A6097
:1025A0005F60302383F3118821464846FFF728FFF8
:1025B00087F3118891E7D9F890A0E7E72801002474
:1025C0002DE9F84FB24E4FF04009B24801F058F8EB
:1025D000D6F890706EE0290500F18E80AA040CD523
:1025E000D7F8083813F0060FFB6823F470530CBFBC
:1025F00043F4105343F4A053FB602B070ED57468CB
:10260000E368002B00F076813378052B00F07A81A7
:10261000FFF72EFCE3680BB130469847EC0273D409
:10262000A80200F1B4802B03D7F818481AD5E003AC
:1026300000F13C81A10300F13581620300F12E819C
:10264000230300F12081E00200F11981A10200F1D1
:102650001281620200F10B81230200F10481E0018A
:1026600000F1F98069031AD5E20700F13F81A30761
:1026700000F13881600700F13181210700F12A81E2
:10268000E20600F12381A30600F11C81600600F13F
:102690001581210600F10E81E20500F1E080EB06D4
:1026A00000F1A2807C4B1D4200F0CE80B9F10109FF
:1026B00000F0CA807D69BB691D4015F480587D61BA
:1026C00040F05F81002D86DAD7F8003E980705D0EC
:1026D000D7F8003E23F00303C7F8003EFFF7C8FB1E
:1026E000D7F80438304623F00103C7F80438FEF762
:1026F0002FFB29057FF572AFD6E92401FFF7E0FB38
:102700003046FEF70DFB69E70021D6F890B04FF098
:10271000010A0C4608E00134D6F89430E4B29B6814
:102720009C4221463FF67CAF0BEB4412D2F80039B5
:1027300003F44023B3F5802FEDD1D2F80039002BFC
:10274000E9DAD2F8003943F09043C2F80039D2F800
:102750000039002BFBDB8901D6F8902041F02001E5
:10276000116113699906FCD4122000F009FF338926
:1027700006EB84020AFA04F1D26823EA01039268A4
:102780003381002AC7D0214630469047C3E7D6F8A8
:1027900090A000244FF0010B07E00134D6F89430EC
:1027A000E4B29B689C423FF63EAF0AEB4412D2F87B
:1027B000003B03F44023B3F5802FEED1D2F8003B69
:1027C00006EB84010BFA04F2002BE6DA738930463B
:1027D000D1F80CC0214623EA0203DCF80C207381F7
:1027E000002ADAD09047D8E7D6F890100B6A03F4A5
:1027F000F010C3F30A1203F00F03B0F5802F00F0BE
:102800008C80B0F5402F7FF44DAF06EB8303DB687F
:10281000186A002A3FF446AF01F58054002313F0F4
:10282000030F014601D1D4F80080072B03F1010307
:1028300004D801F8018B4FEA182808469A42EED1D5
:10284000154B1D427FF432AF124800F031FFBDE856
:10285000F84F01F0BDBD0820FFF782FD02E7082018
:10286000FFF726FE1BE70720FFF77AFDF7E60620B5
:10287000FFF776FDF0E60520FFF772FDE9E604209C
:10288000FFF76EFDE2E60320FFF76AFDDBE600BF1F
:1028900028010024F8510008300000040220FFF74E
:1028A0005FFDCDE60120FFF75BFDC6E60020FFF7E8
:1028B00057FDBFE60720FFF7FBFDEDE60620FFF71B
:1028C000F7FDE6E60520FFF7F3FDDFE60420FFF75E
:1028D000EFFDD8E60320FFF7EBFDD1E60220FFF77E
:1028E000E7FDCAE60120FFF7E3FDC3E60020FFF79E
:1028F000DFFDBCE6BB6923F00803BB613378052B21
:102900007FF486AED7F8003E304623F00303C7F8C5
:10291000003EFEF71DFA74687AE6981C06EB800309
:102920005B68D3F818C0DCE90043A4EB030EDCF8C5
:102930000840D2B101F5805C002313F0030F21465B
:1029400001D1DCF800809E4503F1010304D901F8B0
:10295000018B4FEA18280C469A42EED106EB800311
:102960005B68D3F818C0DCE90134724504D2144422
:102970001A44CCE9012495E674447344CCE901344B
:1029800090E60548FEF7ACF9044800F091FEBDE87A
:10299000F84F01F01DBD00BF28010024F8510008C8
:1029A000D0F8903003EB4111D1F8003B43F4001311
:1029B000C1F8003B704700BF0000000000000000AD
:1029C000D0F8903003EB4111D1F8003943F40013F3
:1029D000C1F80039704700BF00000000000000008F
:1029E000D0F8903003EB4111D1F8003B23F40013F1
:1029F000C1F8003B704700BF00000000000000006D
:102A0000D0F8903003EB4111D1F8003923F40013D2
:102A1000C1F80039704700BF00000000000000004E
:102A20000022124B0A604A60426910B413404024ED
:102A300042780C6143F440434FF0FF348C618B606B
:102A400042B1836910BC23F4C023CB6040F2011370
:102A50000B6070478269064B10BC134043F0015372
:102A6000CB6040F201130B60704700BF1F3EFFFFB9
:102A7000FFFFB9DF000000000000000000000000C0
:102A800090F8203010B4002B34D0836AD3E9004191
:102A90000A6822F00F020A60197A0E23426A03FACA
:102AA00001F161605468216821F00F012160117A01
:102AB00012688B405360474B98423AD0464B98423D
:102AC0004BD0464B98425CD0454B98426DD0454B1D
:102AD000984251D1444BD3F89C2042F02002C3F8D5
:102AE0009C20D3F89C2022F02002C3F89C20D3F82D
:102AF0009C3041E0846A2268136823F01F0313604E
:102B00001368D907FCD4227B3D23416A9340646853
:102B10000A682360136823F01F0313601368DB0740
:102B2000FCD40C7B3D234A68A3401360294B984298
:102B3000C4D12D4BC169D3F89820406842F480522B
:102B400010BCC3F89820D3F8982022F48052C3F820
:102B50009820D3F89830FFF763BF234BD3F8902029
:102B600042F48042C3F89020D3F8902022F48042AF
:102B7000C3F89020D3F89030C16910BC4068FFF7CB
:102B80004FBF194BC169D3F89020406842F400420E
:102B900010BCC3F89020D3F8902022F40042C3F870
:102BA0009020D3F89030FFF73BBF0F4BC169D3F8AB
:102BB0009820406842F4801210BCC3F89820D3F8E3
:102BC000982022F48012C3F89820D3F89830FFF7A9
:102BD00027BF00BFDC010024180200245402002497
:102BE00090020024CC02002400440258000000009F
:102BF00010B5164C164800F043FDE269536911699F
:102C00000B4093615B0606D4114800F051FDBDE80E
:102C1000104001F0DDBB2046FFF732FF63689B6880
:102C20000BB120469847302383F311886FF01201CF
:102C3000084801F045F9002383F31188044800F0A7
:102C400037FDBDE8104001F0C3BB00BFDC0100242C
:102C500064520008E40100240000000000000000AD
:102C600010B5164C164800F00BFDE2695369116966
:102C70000B4093615B0606D4114800F019FDBDE8D6
:102C8000104001F0A5BB2046FFF7FAFE63689B6881
:102C90000BB120469847302383F311886FF012015F
:102CA000084801F00DF9002383F31188044800F06F
:102CB000FFFCBDE8104001F08BBB00BF18020024F0
:102CC000585200082002002400000000000000000C
:102CD00010B5164C164800F0D3FCE269536911692F
:102CE0000B4093615B0606D4114800F0E1FCBDE89F
:102CF000104001F06DBB2046FFF7C2FE63689B6881
:102D00000BB120469847302383F311886FF01201EE
:102D1000084801F0D5F8002383F31188044800F037
:102D2000C7FCBDE8104001F053BB00BF54020024B3
:102D30004C5200085C02002400000000000000006B
:102D400010B5164C164800F09BFCE26953691169F6
:102D50000B4093615B0606D4114800F0A9FCBDE866
:102D6000104001F035BB2046FFF78AFE63689B6880
:102D70000BB120469847302383F311886FF012017E
:102D8000084801F09DF8002383F31188044800F0FF
:102D90008FFCBDE8104001F01BBB00BF9002002477
:102DA00040520008980200240000000000000000CB
:102DB00010B5164C164800F063FCE26953691169BE
:102DC0000B4093615B0606D4114800F071FCBDE82E
:102DD000104001F0FDBA2046FFF752FE63689B6881
:102DE0000BB120469847302383F311886FF012010E
:102DF000084801F065F8002383F31188044800F0C7
:102E000057FCBDE8104001F0E3BA00BFCC0200243B
:102E100034520008D402002400000000000000002A
:102E20002DE9F0412D4D0024DFF8B48028462D4FC8
:102E3000FDF7C6FE2C4B85F820400A21EB612320CC
:102E40006C622F63294EC5E90A48294DFEF728FA1E
:102E50002846FDF7B5FE274B85F820400A21EB6197
:102E600024206C622F63C5E90A48234DFEF718FA47
:102E70002846FDF7A5FE214B0A213320EB6185F89A
:102E800020406C622F63C5E90A48FEF709FA304614
:102E9000FDF796FE1A4D1B4B0A21552086F820405F
:102EA000F36174623763C6E90A48FEF7F9F9284608
:102EB000FDF786FE0123144941F20A0285F820300D
:102EC00041F21803E96156206C620A212B63C5E9BF
:102ED0000A42BDE8F041FEF7E3B900BFDC0100247F
:102EE000160001004600010000300140900200245D
:102EF000180200240038004054020024003C004026
:102F0000CC020024005001400014005800000000D2
:102F1000124A4FF080430021D2F8E80040F001004F
:102F200030B4C2F8E80044F61F65D2F810010C4C2A
:102F300040F00100C2F810010120D2F81021E26B2C
:102F40000243E2634FF0FF329D62DA629961596396
:102F5000D96059605861186030BC7047004402580D
:102F60000010005C000000000000000000000000F5
:102F70004FF0804208B51169D3680B40D9B29B0766
:102F80006FEA0101116100D408BD302383F3118879
:102F900000F0EEFA002383F3118808BD0000000062
:102FA000024A136843F0C0031360704700100140E9
:102FB000024A136843F0C00313607047005000409A
:102FC00070B5194D82B0194C2846194EFDF7B0FD69
:102FD00005F10C000023102216490095FDF700FCB6
:102FE0001022154905F13000144B0095FDF790FCB7
:102FF000134B2046C5E91536FDF79AFD04F10C0088
:10300000002310220F490094FDF7EAFB0E4B10221B
:103010000E4904F130000094FDF77AFC0C4BC4E932
:10302000153602B070BD00BF0803002468030024F9
:1030300000E1F505C8030024E8030024A12F0008DF
:1030400000100140D8030024B12F0008F803002429
:1030500000500040000000000000000000000000E0
:103060002DE9F041002936D0037A40F22D16D1E93E
:1030700000C2D1E90275012B46EA02064FEA5C0361
:1030800047F0400745F0010502F4004E02F480616C
:1030900045D0846D2344446DB3FBFCF3BEF1000FB7
:1030A00005D023F0070C03F0070343EA4C03E36069
:1030B0004FF0FF336760A5602660236209B312F00A
:1030C00010224AD0B2F1805F14BFFF233F2380F863
:1030D0005C30BDE8F081057A012D17D0836D402466
:1030E0002C4903F59643426DA1FB031340F22D11C9
:1030F0001B0BD3600123546093604FF0FF331160CA
:103100001362FF2380F85C30BDE8F08140F22D1699
:1031100040278E460A464FF496434FF4164C1E4CF9
:10312000A0421FD01D4CA042B3D11D4CD4F8E88062
:1031300048F48018C4F8E880D4F8108148F4801866
:10314000C4F81081D4F81041846D2344446DB3FB5E
:10315000FCF3BEF1000FA4D1A9E77F2380F85C3017
:10316000BDE8F0810E4CD4F8F08048F01008C4F8A7
:10317000F080D4F8188148F01008C4F81881D4F809
:103180001841846D2344446DB3FBFCF3BEF1000F82
:1031900087D18CE7B5814E1B080300246803002407
:1031A0000044025800000000000000000000000081
:1031B0002DE9F047456D0646EC6922072C6256D191
:1031C000E20548D4A00610D54FF03008002788F358
:1031D00011886B6A304696F85C101940FDF7C8FC00
:1031E00087F31188EC69A306F1D4D5F800A01AF092
:1031F000800F1DD021061BD506F1300830274FF077
:10320000000905E0A86289F31188EC6922060FD550
:1032100087F311884046FDF7BBFB0028F2DA08214E
:10322000301D00F00DFF2AF0800A002383F311887F
:103230001AF0400F0BD0630609D5302383F31188B1
:10324000D6E911239A422DD0002383F31188C5F8C3
:1032500000A0BDE8F087302383F311884FF480612C
:10326000301D00F0EDFE002383F31188AAE7C4F3BC
:10327000C001E3074FF030034FEA012148BF41F09E
:103280002001A70748BF41F04001600748BF41F057
:10329000800183F31188301D00F0D2FE002383F3F8
:1032A00011888DE7B36B002BCED01021301D2AF092
:1032B000400A00F0C5FEC7E7000000000000000063
:1032C0006C4A40F2FF700023D2F88810014330B4FA
:1032D000C2F88810684CD2F88810684D0C406849D4
:1032E000C2F88840D2F88840D2F8E0400443C2F8DF
:1032F000E040D2F8084104436248C2F80841802403
:10330000D2F808214FF4C0424B608D60CB604A6117
:103310000A225D4D0A625D4A4A625D4A0A605D4A60
:10332000436082605C4AC360446102625B4A4262FD
:103330005B4A02605B48C1F80438C1F808084FF4E2
:103340008030594AC1F80C084FF40060C1F81408E5
:103350004FF00610C1F82038C1F824085348C1F8CE
:10336000000840205249536091601021D1605149BA
:1033700050611162504951625049116002F58062FA
:103380004F49536091600421D36051614D491162EE
:103390004FF0CC31516201F15E41A1F50811A1F667
:1033A000F24111604849C2F80434C2F80814C2F866
:1033B0000C34C2F814044548C2F820546FF4D57593
:1033C000C2F82404A0F109504149A0F5093028446D
:1033D00044F6F045C2F8000402F540623D484B60F7
:1033E00088604FF48060CB6048613B4808623B488E
:1033F0004862A0F1D550A0F5D410A0F27250086038
:1034000053609560D3605461354C36481462364D34
:10341000364C536214604FF0FF3443608560A5F171
:10342000AB45C360A5F5DD154361A5F67C75056266
:103430002F4D43620560C1F8043CC1F8083CC1F857
:103440000C3CC1F8143CC1F8203CC1F8243CC1F844
:10345000004CC2F8043CC2F8083CC2F80C3CC2F86C
:10346000143CC2F8203CC2F8243CC2F8004C30BCEA
:10347000FDF7FEBF0044025800F8FFFF1714FD3FA0
:103480000000025800040258CCCCCC5070A70A00AF
:10349000D6D7A8EAC04F00FF00606600000088CCC5
:1034A000BF7AFFAA00004307000C0258FFFF7EF21C
:1034B0003FD07FF0CC060050CC0C00CCEA9F6AAF26
:1034C0001FC0FFFFCC0000C0FFDFDFFF55C0CCCC2A
:1034D000001802583F1FDFFFCC0CCC005C5055C5D4
:1034E00000CCC00000200258CCFF4500AF7BFFFF9E
:1034F000BBAA71FF000000000000000000000000F7
:10350000704700BF00000000000000000000000045
:1035100030B587B0114D00230122684604242A707B
:10352000C5E9013300F004FD684600F011FD68466E
:1035300000F016FD013CF7D1009BAB6000F070FE7F
:1035400000F0B6FE00F0D4FE0549064800F078FB16
:1035500002232B7084F3118807B030BDC80D0024FE
:10356000745200080804002400000000000000005D
:1035700000F096B90000000000000000000000000C
:10358000034A516853685B1A9842FBD8704700BFE2
:10359000001000E00000000000000000000000003B
:1035A000024A536B03435363704700BF080400246F
:1035B00038B50C4CD4F88C50FDF78AF8D4F88C3020
:1035C00004F50961084A686050681A6860F31F22B0
:1035D00043F8102B04F190028B4228BF1346C4F825
:1035E0008C3038BD08040024001000E0000000000A
:1035F00002460749002342F8081B426000EB031211
:103600000133117A802B6FF302011172F6D17047EA
:10361000FFFF80000000000000000000000000002C
:10362000094BB3F88820D20700D5704790F82420C2
:1036300010B4D3F88C40D30043F00103C4E9020175
:10364000237010BCFFF7B4BF080400240000000082
:103650000A4BB3F88820920700D5704710B491F850
:103660002420D3F88C40D300896A43F00203C4E9D4
:103670000201237010BCFFF79BBF00BF08040024A9
:103680000A4AB2F8883010B513F0040400D010BD17
:10369000302383F311880321D2F88C30197098609D
:1036A000FFF786FF84F3118810BD00BF08040024D3
:1036B0000A4AB2F8883010B513F0040400D010BDE7
:1036C000302383F311880421D2F88C30197098606C
:1036D000FFF76EFF84F3118810BD00BF08040024BB
:1036E000F8B51446144D03460E4605F11002022C9F
:1036F000E9614FF00207846038BF022442602A6902
:103700000260506008192B61FCF7EAFFFCF7E0FF4C
:10371000821B0346A24207D2022F00D8F8BD012027
:10372000BDE8F840FFF73CBF7C1C301927461E4619
:10373000FCF7E6FFEAE700BF0804002400000000F1
:103740002DE9F843DFF89C9007460E46FCF7C0FFD2
:103750004B46804653F8105F9D4237D0D9F81C4045
:10376000AB68041B341928BF3446A34215D89C42C9
:1037700004D92D68E41AAB68A342FAD36B684FF002
:10378000FF32BC60C7E900531F60AB686F601B1B52
:10379000AB60C9F81820BDE8F883022E4FF002058F
:1037A00038BF022608EB0600FCF7AAFFFCF790FFE3
:1037B000A0EB0808464510D9022D03D8D9F81050BF
:1037C000AB68D4E70120FFF7EBFEF7E7324601468E
:1037D0003846BDE8F843FFF783BF013580462E46E3
:1037E000E0E700BF08040024000000000000000023
:1037F00003610023C2604361FFF7A2BF0000000025
:1038000070B5234C236998420DD00368D0E901219B
:1038100013605A609A680A4400219A604FF0FF339F
:103820000160A36170BD02682346002143F8102F98
:103830005360016022699A4221D0936881680B44E9
:103840009360FCF745FFE56923690446421B9B68CA
:103850009342E7D91D4402262D1AB54238BF35469A
:103860006019FCF74DFFFCF733FF041BA5420AD992
:10387000022ED7D90120BDE87040FFF791BEBDE808
:103880007040FCF735BF013604463546E8E700BF17
:1038900008040024000000000000000000000000F8
:1038A0002DE9F84F3C4E00274FF0300906F1100883
:1038B00009E087F31188D4E903312046984789F35A
:1038C00011886369ABB93469FCF702FFF3690546F7
:1038D000A268C11A8A422CD89D18D4E90010F5615B
:1038E00001604860276033694345E2D1FCF700FF7F
:1038F000DFE7FCF7EDFE6369A0EB050B82465B4555
:103900002FD3316941453DD08A68934204D9096873
:103910009B1A8A689A42FAD34A68A360C4E90012E3
:1039200014608A684C60D21A4FF0FF338A60B3612A
:10393000C9E73169414512D013440227F0611B1ACF
:10394000BB421E46A36038BF3E46A819FCF7D8FE0E
:10395000FCF7BEFE451BAE4210D9022F09D8BDE8C8
:10396000F88F0220FFF71CFE3169414512D05B46FB
:10397000CAE70120BDE8F84FFFF712BE0137054640
:103980003E46E2E72B441A1A51462046BDE8F84F5E
:10399000FFF7A6BE0022F7E708040024000000009D
:1039A00010B530230C4683F3118891F824300C2B8A
:1039B00010D8DFE803F02B0F0F270B070F0B0F0FAB
:1039C0000F0F0B008A6A936801339360D4E90032C9
:1039D00013605A604FF0FF312046A162FFF720FECE
:1039E0000022A369A16884F824201B689A688A428F
:1039F000FBD25A6800212360626014605C6081F32E
:103A0000118810BD8B6A00221A60E3E7002383F35C
:103A1000118810BD00000000000000000000000040
:103A200010B50446816AFFF7FBFD0022A369A16877
:103A300084F824201B689A688A42FBD25A68204680
:103A40002360626014605C6010BD00BF0000000075
:103A500038B50B4B01211C68DD6885F82400204631
:103A6000226853601A6084F824102946DC60FFF74E
:103A7000EFFD29462046BDE83840FCF7A1BC00BF59
:103A80000804002400000000000000000000000006
:103A9000F0B54B1C1C4C87B00546E6681FD033467A
:103AA0001A4A6846FFF7A4FEE768012287F8245007
:103AB000394625682B6828465C6085F824202360F9
:103AC000E560FFF7C5FD39462846FCF779FC009B09
:103AD00013B16846FFF794FEB06A07B0F0BD2768DF
:103AE000012286F8240031463B6838465C6087F83E
:103AF00024202360E760FFF7ABFD38463146FCF732
:103B00005FFCB06A07B0F0BD08040024A1390008CA
:103B100070B51C4E05468268F4688162A3689A42BB
:103B20001FD9A16A2046FFF77BFD0022A369A16887
:103B300084F824201B689A688A42FBD85A68214678
:103B40002846C4E90032146001225C6085F8242014
:103B5000F560FFF77DFD21462846BDE87040FCF783
:103B60002FBCFFF75DFD0022AB69A96885F8242012
:103B70001B689A688A42FBD25A68C5E90032156010
:103B80005D6070BD0804002400000000000000001B
:103B9000044B1A68DB6890689B68984294BF0020C9
:103BA000012070470804002400000000000000000D
:103BB00038B5134B01211D68DC682A682046536024
:103BC0001A6085F82410A16ADD60FFF729FD002244
:103BD000A369A16884F824201B689A688A42FBD8EC
:103BE0005A68214623602846626014605C60FFF7D3
:103BF0002FFD21462846BDE83840FCF7E1BB00BF59
:103C00000804002400000000000000000000000084
:103C1000044B1A68DB6892689B689A4201D9FFF7E7
:103C2000C7BF704708040024000000000000000027
:103C3000FEE700BF000000000000000000000000E0
:103C400070B5214B0025044686B081630E4605639E
:103C5000586000F08DFB04F1100304F12802A56008
:103C60006563C4E904334FF0FF33C4E90A22C4E9B1
:103C70000635C4E90044FCF72BFD2B46024604F14F
:103C80008800C4E90823C4F88450FFF7B1FC04F1AC
:103C90003C0180230D4A204600F022F80122034611
:103CA000716803926846E36083F82420084A196229
:103CB0000092084B05950493D6E90312CDE9011251
:103CC00000F076F806B070BDC80D002498520008C8
:103CD00088520008313C000800000000000000008D
:103CE00010B400248B60CA6101F110028C638861FA
:103CF000C1E90F43022401238C8400F1280481F8D8
:103D00002630C36AC1E904431A6001F12C0401F1B1
:103D10003003C26208464B63C1E90B4310BC7047D5
:103D200070B5D0E90234456800211D4A4FF0020EFB
:103D300043F8285C4FF0010C05691A4E43F86C5C9F
:103D4000456943F84C6C43F8685C0568A3F138009A
:103D500003F8231C03F824EC03F822CC43F8404C6E
:103D600043F8084CD46A43F82C5CA3F16C0543F883
:103D7000344C43F83C5C02F1280543F8302C43F8FE
:103D8000385C43E904112060A3F11801A3F11C047D
:103D9000D062A3F1480043F8141C43E9074170BD09
:103DA00008040024D1030008000000000000000007
:103DB00008B5FFF7B5FFBDE80840FFF731BE00BF0B
:103DC00038B5302484F3118848390025441818493F
:103DD000A2602264A4F1240244F8041CE2600122DF
:103DE000049984F8262044F8243C44F8201C02213D
:103DF000104B114AA18404F11001206203F1280044
:103E0000E261DA6A206104F12C006261A361E5637A
:103E1000A563116004F13002D9622946E0622046B0
:103E2000C4E90C22FFF774FE85F31188204638BDE3
:103E3000D10300080804002490520008000000008C
:103E400038B5302383F31188124BDC6804F12C055C
:103E5000E36AA0629D4207D194F8263083B10F2017
:103E6000BDE83840FFF7F4BD1A681846E262FFF774
:103E7000D7FDE36AAB42F7D194F82630002BEED1A0
:103E800094F825309B07EAD1D4E9043213605A60D4
:103E9000E5E700BF08040024000000000000000067
:103EA00008B50146302383F311880820FFF7F0FDA1
:103EB000002383F3118808BD00000000000000000B
:103EC0000346006820B100221A608162FFF7A8BD96
:103ED000704700BF0000000000000000000000006C
:103EE000084AD26851B1034610B4446810600420F7
:103EF0005460226010BC5A60FFF7CABD4FF0FF301B
:103F0000704700BF0804002400000000000000000B
:103F100003460068834205D002681A6053608162DC
:103F2000FFF77EBD704700BF0000000000000000EA
:103F300030B40023002400254FF0FF32C0E90445CF
:103F4000C0E9002330BCC0E9023370470000000024
:103F5000014B5B6883607047001000E000000000C8
:103F60000E4A0F4B81685B6810B4946802691B1B92
:103F7000C4685B1A41690134D218026141F1000141
:103F8000426841619342026888BF43609342C0E93E
:103F9000023438BF036010BC704700BFC80D002456
:103FA000001000E000000000000000000000000021
:103FB000C0E90000816070470000000000000000C0
:103FC00010B50346302484F311888468601E0028ED
:103FD000986004DB0020002383F3118810BD71B1C9
:103FE000094A05205C68D2689362C2E90034226005
:103FF0005A60FFF74DFD002383F3118810BD4FF089
:10400000FF309C60E7E700BF0804002400000000C8
:10401000826803460132002A826000DD7047006832
:10402000002102681A6053608162FFF7F9BC00BF8B
:104030000023C0E900008360704700BF000000005B
:10404000F8B50468A04221D007460D46002604E0DA
:104050000B2A1CD02468A74218D0E3682B43E360E6
:1040600015B123691D42F5D0D4E90103816B90F8A5
:1040700024200B430A2A8363EAD1826A1342E9D0DF
:104080008662FFF7CDFC2468A742E6D1F8BD826ABC
:104090009A43DFD1F4E700BF0000000000000000F9
:1040A00030B401EB8202002500F1180400F1200376
:1040B0000561057501604260C0E90644C0E902116E
:1040C00030BCC0E908337047000000000000000069
:1040D0002DE9F84304460F46904600F1180909E01F
:1040E000D4E900562369721BB3EBA20F0BD1FFF783
:1040F000F7FE30B9237D41464846002BF0D06FF0E3
:104100000100BDE8F883A168013304F120000A1D15
:10411000B242A2600F604FF0000138BFA568236172
:10412000A560FFF7F5FEFFF773FD0020BDE8F883FB
:1041300008B5302383F31188FFF7CAFF002383F308
:10414000118808BD00000000000000000000000011
:10415000027DE2B9034670B5D0E900401A69051B3B
:10416000B2EBA50F10D09E680132351D85429D60CF
:10417000316003F1200038BF9C6800211A619C6007
:10418000FFF7C6FE002070BD4FF0FF3070BD6FF02E
:104190000100704700000000000000000000000067
:1041A000F8B504460E46154600F1200704E02369E1
:1041B00053B9FFF795FE30B9237D29463846002BC9
:1041C000F5D06FF00100F8BDE1680A1D0968E260F2
:1041D000316061688A4201D32268E260013B04F1E8
:1041E000180000212361FFF793FEFFF711FD002067
:1041F000F8BD00BF0000000000000000000000004B
:1042000008B5302383F31188FFF7CAFF002383F337
:10421000118808BD00000000000000000000000040
:10422000024B0349034AC3E900127047D40D00242E
:1042300048180024000008240000000000000000CE
:10424000084B494210B45C68201A08401968821A69
:104250008A4204D3A24202D810BC5A6070470020A0
:1042600010BC7047D40D00240000000000000000C6
:10427000302310B483F311880B4B49425C68201A39
:1042800008401968821A8A4207D3944205D35A60BB
:10429000002383F3118810BC70470020002383F3B0
:1042A000118810BC704700BFD40D0024000000002E
:1042B000044B0022044903F10C009A60C3E9001288
:1042C000FFF7B6BEDC0D00247142000800000000BC
:1042D00010B40024C0E90223C0E9004110BC7047BB
:1042E0000022FFF7ADBF00BF00000000000000008B
:1042F00038B5124C124D2046FFF79AFE04F110011A
:104300002B460422216114216018FFF7E1FF04F11C
:10431000240004F128012B460422C4E909011C21D0
:1043200004F12C00FFF7D4FF04F13C0104F140023A
:1043300004F14403C4E90F12636438BDF80D00248E
:10434000E142000800000000000000000000000042
:10435000EFF30983203383F30988002383F3118863
:10436000704700BF000000000000000000000000D7
:104370004FF0300C00B58CF3118862B60E4B4FF63F
:10438000FF0E0E49D8680E4A00EA0E0001430D48A0
:10439000D960D3F8FC1041F08071C3F8FC10C2F86A
:1043A000B00F2020116841F001011160D87783F827
:1043B00022C05DF804FB00BF00ED00E00003FA0539
:1043C000001000E055CEACC5000000000000000069
:1043D000302383F311880D4B5B6813F4006302D123
:1043E00083F31188704710B5EFF309844FF08073A1
:1043F000203CE36184F30988FFF7CAFB10B1044B4A
:10440000A36110BD034BA36110BD00BF00ED00E030
:10441000E3030008E60300080000000000000000BD
:1044200008B5FCF735F9FFF773F800F0E9FB00F089
:104430002FFB01E0FFF734FD00F002FC034664208F
:10444000002BF7D064233C220021022000F080FBE7
:1044500042F21070FFF724FD00233C22022019468F
:1044600000F096FB42F21070FFF71AFDEAE700BF7A
:1044700030B5044683B00D4600221C482146FFF7A4
:1044800057FEF0B12DB91A4A53690133536103B095
:1044900030BD002201A91548FFF7B2FE50B9302304
:1044A00083F31188134A13880BB1013B1380002357
:1044B00083F31188002221460C48FFF739FE0028BB
:1044C000E1D1302383F311880A4A1388FF2B07D8E0
:1044D0000949013308889BB29842138038BF0B808A
:1044E000002383F3118803B030BD00BF700E002499
:1044F000540E0024981200249A1200240000000098
:1045000030B5002383B00278019302F0F003802BD2
:104510002BD0902B15D0A02B17D0B02B4AD0E02B4E
:1045200055D0C02B3FD1012900F08F800C2143785A
:104530008DF805208DF804108DF80630019800BA2A
:104540002CE0032938D1092412E0032934D10A24AC
:10455000417883788DF805208DF804408DF8061099
:104560008DF80730019800BA18E0032924D10824F7
:10457000417883788DF8044030248DF805208DF83B
:1045800006108DF8073084F31188674B00211B78E3
:10459000DBB281F311887BBB019800BA0021FFF7E1
:1045A00067FF03B030BDD02B15D1012900F09080FA
:1045B0000D21BCE7032935D0012994BF0023012335
:1045C000F32A42D1002B40D04FF202320CE00329F3
:1045D000F2D10E24BCE7012994BF00230123F12A64
:1045E00022D10BB34FF202124378ADF804208DF8BC
:1045F0000630019800BAD1E74C48FFF7E1FC0546C8
:104600000028C9D184F311880423022148480DEB06
:104610000302FCF74DFB85F31188464A136801330A
:104620001360BEE70B2493E7F22AC9D10229C7D948
:1046300042784FF203218378ADF804108DF80620FC
:104640008DF80730019800BAA8E7F62A05D14FF295
:104650000F633948ADF80430A0E70F23F72A8DF82F
:1046600005208DF8043010D9F82A38D0931DDBB21C
:10467000022B13D9FD2A94BF0021012171B9120424
:1046800042F07060FFF7F4FE8BE7012925D04378F4
:1046900003298DF8063020D1837861E7302484F334
:1046A0001188214B00211B78DBB281F311882BB1DB
:1046B0001E48FFF785FC05460028A3D01D4A0121AE
:1046C0000198136900BA0B441361FFF7D1FE68E744
:1046D0000F238DF805208DF80430002340E73025A6
:1046E00085F31188104B00211B78DBB281F3118810
:1046F00023B10E48FFF764FC044628B1019800215D
:1047000000BAFFF7B5FE4CE785F3118804230221B8
:1047100007480DEB0302FCF7CBFA84F31188054A36
:104720001368013313603CE744180024D8140024B4
:1047300028010024540E00240000F60F00000000A1
:10474000022870B50C46154609D0032802D001286E
:104750000BD070BD4FF0FF330748FCF739F92946FD
:104760002046BDE87040FFF7CBBE4FF0FF33024854
:10477000BDE87040FCF72CB998030024000000004D
:10478000704700BF000000000000000000000000B3
:10479000834B844ADB682DE9F04F4FF0000993B05A
:1047A000814EDFF808A2824DDFF80882DA6110241A
:1047B00000270DE043F204031A4240F08C800F28DA
:1047C00000F09180EB68013C03F10103EB6035D010
:1047D000002269464046FFF713FD78BB302383F380
:1047E000118833880BB1013B338087F31188009B1C
:1047F000012144F6087CC3F30360C3F3074EC3F3FF
:10480000072B01FA00F212EA0C0FD3D003218DF826
:1048100004E08DF805B08DF806308DF8071001A87A
:10482000FFF7AEFF9AF8003003F0FD03012B6BD0C9
:10483000AB68013C03F10103AB60C9D10A2201A9B5
:104840005D48FFF7DDFC002867D1302383F3118832
:104850005A4A13880BB1013B1380002484F311885A
:10486000019B09F1480109F14B0209F1040969446E
:1048700018166A44B9F1400F01F8400C4FEA234082
:1048800001F83F0C4FEA232001F83E0C02F8403CAF
:104890008DD14FF0300B8BF31188494B1B78DBB275
:1048A00084F31188002B51D014214648FFF788FB70
:1048B000074600285DD18BF3118802214B4602AADE
:1048C0004148FCF7F5F987F31188404AB946536827
:1048D000013353606BE702218DF804E08DF805B0D9
:1048E0008DF807109BE70EF10803DBB2072B3FF6AC
:1048F00069AFDD2222FA03F3DB077FF563AF8DF8A2
:1049000004E08DF807108AE74FF0FF339DF8072089
:1049100001A92F48FCF75CF88AE7B9F1000F3FF4D2
:1049200046AF0A212B48FFF74BFB302787F311884E
:10493000234B00241B78DBB284F3118863B923492D
:104940008A6902EB990299468A6130E71F4A9946C3
:104950009369103393612AE714211A48FFF730FB5B
:10496000834660B1194A936903EB9903A1469361A9
:104970001DE7164AA14693691033936117E787F341
:10498000118802214B4602AA0F48FCF791F98BF3DC
:1049900011880E4AD94653680133536007E700BFB8
:1049A00008040024C4520008C81400240000002495
:1049B000440E0024A0120024700E0024981200243B
:1049C00044180024D814002428010024540E002484
:1049D00098030024CC140024000000000000000014
:1049E000002845D0032943D9890830232DE9F04711
:1049F00083F31188DFF87CA0DAF80030A3B3044613
:104A000000EB8105DFF870901C4E1D4FDFF87480BD
:104A100009E03B6804340133A5423B60736803F14D
:104A2000010373601FD0B9F800307F2BF1D82168E3
:104A3000504609BAFFF78CFB0028EAD1B9F80030DC
:104A40007F2B03F101039BB207D8B8F80020A9F827
:104A500000309A4238BFA8F800303368043401337C
:104A6000A5423360DFD1002383F31188BDE8F087CE
:104A7000704700BFA0120024C8140024440E002474
:104A80009C120024CA140024000000000000000052
:104A900010B5302382B083F311881B4B1C7824B1EE
:104AA000002383F3118802B010BD01221A7084F331
:104AB000118816491648FCF74BF8164B164A17484A
:104AC00017491C80174B14804FF4807204800C80AF
:104AD000154816491C60FFF7E3FA8022144815496F
:104AE000FFF7DEFA21461448FFF762FA2146134821
:104AF000FFF75EFA124B81224FF43C71009411488B
:104B0000FFF75EF902B010BD400E0024D05200083D
:104B1000680300249A12002498120024C814002468
:104B2000CA1400249C120024700E0024980E002445
:104B3000A0120024C8120024D8140024CC1400248D
:104B400091470008E8140024000000000000000065
:104B500000B513F07F0383B001F00F0102F07F0C6A
:104B60008DF806304FF003020CBF61F07F0361F057
:104B70006F0301A98DF805C08DF80430FFF7E0FD43
:104B800003B05DF804FB00BF00000000000000005F
:104B900001F00F0102F07F0203F07F03022861F0B1
:104BA0007F0110B582B08DF805208DF806308DF8A4
:104BB000041006D00328044612D0012807D002B002
:104BC00010BD032101A8FFF79BFC02B010BD4FF000
:104BD000FF33032201A90948FBF7FAFE02B010BD1A
:104BE00002464FF0FF3301A90448FBF7F1FE2146CE
:104BF00001A8FFF785FC02B010BD00BF9803002498
:104C000010B50D4C43F69820D4F89020D2F8043813
:104C100043F00203C2F80438FFF742F9074920467F
:104C2000FBF7F6FFD4F89020D2F8043823F0020303
:104C3000C2F8043810BD00BF28010024EC5300085E
:104C4000014B1878704700BF441800240000000092
:104C5000022906D0032906D00129074818BF0020E1
:104C6000704706487047032A03D8054800EBC20086
:104C700070470020704700BF3C530008E052000816
:104C8000CC530008000000000000000000000000FD
:104C900003488368002B00DD7047FFF7B9B900BFF8
:104CA000CC14002400000000000000000000000000
:104CB00003488368002B00DD7047FFF7A9B900BFE8
:104CC000D8140024000000000000000000000000D4
:104CD000022938B50C460FD00BD9CC1E012C07D8B1
:104CE000302383F31188154A0023137083F311884E
:104CF00038BD0029F4D038BD0546302383F3118830
:104D00000F4A0121FBF79CFF0E4A21462846FBF77C
:104D100097FF40230C4A01212846FBF7B1FF0B48BF
:104D2000064A012183681170002B03DD002383F301
:104D3000118838BDFFF76CF9F8E700BF441800246C
:104D4000585300087C53000800180024D81400248D
:104D5000104B19684B1E3F2B70B50BD804460E48FC
:104D6000FFF73EFE402320460B4A0121BDE870407C
:104D7000FBF786BF094D4023094C2968064A0131DB
:104D800029606168013161600121BDE87040FBF775
:104D900077BF00BFD8170024001800244018002453
:104DA000440E0024830730B548D0541E002A3FD05B
:104DB000CAB2034601E0013C3AD303F8012B9D0738
:104DC000F9D1032C2DD9CDB245EA05250F2C45EAA2
:104DD000054536D9A4F1100222F00F0C03F1200E84
:104DE000E6444FEA121C03F1100242E9045542E97D
:104DF000025510327245F8D10CF1010214F00C0F7B
:104E000003EB021204F00F0C13D0ACF1040323F0F7
:104E100003030433134442F8045B9342FBD10CF0C8
:104E200003042CB1C9B21C4403F8011B9C42FBD102
:104E300030BD64461346002CF4D1F9E7034614460E
:084E4000BFE71A46A446E0E7B3
:104E48000054000848180024481800244818002472
:104E5800005400080000003000000030000000305E
:104E6800005400080000003000000030000000304E
:104E78000054000800000430000004300000043032
:104E88000054000800000038000000380000003816
:104E98000054000800080020000800200008002036
:104EA800005400080000000000000000000000009E
:104EB8000054000800008038000080380000803866
:104EC80000000000C10A0008A10A0008010B000840
:104ED800E10A0008F10A0008D10A0008B10A00082E
:104EE800910A0008110B00080000000001000000F2
:104EF80000000000566563746F72313030000000A6
:104F0800566563746F724230000000005665637422
:104F18006F72313134000000566563746F72443427
:104F280000000000566563746F7238380000000096
:104F3800566563746F7232363000000056656374CC
:104F48006F72323543000000566563746F723235F4
:104F580038000000566563746F7232353400000003
:104F6800566563746F72323530000000566563749D
:104F78006F72323443000000566563746F723234C6
:104F880038000000566563746F72323434000000D4
:104F980000540258085402580000000000580258F3
:104FA80000810000005402581C54025804000000FC
:104FB8000458025801820000005402583054025824
:104FC80008000000085802580283000000540258E4
:104FD800445402580C0000000C5802580384000086
:104FE8000054025858540258100000001058025833
:104FF80004850000005402586C5402581400000044
:10500800145802580586000000540258805402586B
:10501800180000001858025806870000005402586B
:10502800945402581C0000001C58025807880000BD
:10503800566563746F7231353800000056656374C5
:105048006F72313534000000566563746F72383002
:1050580000000000566563746F723743000000005B
:10506800566563746F7237380000000056656374C4
:105078006F72373400000000566563746F72373002
:1050880000000000566563746F723643000000002C
:10509800566563746F72313530000000566563746D
:1050A8006F72313330000000566563746F723132AD
:1050B80043000000566563746F7231323800000097
:1050C800566563746F72313234000000566563743C
:1050D8006F72313230000000566563746F72464358
:1050E80000000000566563746F72383400000000D9
:1050F80010000240080002400008024000000B00B7
:1051080028000240080002400408024006010C0082
:1051180040000240080002400808024010020D004A
:1051280058000240080002400C08024016030E0016
:10513800700002400C0002401008024000040F00FA
:10514800880002400C0002401408024006051000C6
:10515800A00002400C00024018080240100611008E
:10516800B80002400C0002401C08024016072F003D
:1051780010040240080402402008024000083800D9
:1051880028040240080402402408024006093900A5
:10519800400402400804024028080240100A3A006D
:1051A80058040240080402402C080240160B3B0039
:1051B800700402400C04024030080240000C3C001D
:1051C800880402400C04024034080240060D4400E2
:1051D800A00402400C04024038080240100E4500AA
:1051E800B80402400C0402403C080240160F460076
:1051F800566563746F72314434000000000000008B
:10520800710D0008F1100008C111000840004000AD
:10521800C4010024C401002401000000D4010024BA
:10522800800000004001000008000000566563741B
:105238006F72313938000000566563746F72313906
:1052480034000000566563746F723130430000000B
:10525800566563746F7244300000000056656374CD
:105268006F72434300000000633000007052000872
:105278000000000000000000980C0024C80D002465
:1052880069646C65000000006E6F6E616D650000FA
:105298006D61696E002C0538040448080C10141C54
:1052A800202425260000000000002404010004003A
:1052B80000000000000C0010283034004D4944491B
:1052C8005F5553425F545800127A000000000000F6
:1052D800000000000000000052000000E852000832
:1052E8000902520002010080320904000000010195
:1052F800000009240100010900010109040100025C
:105308000103000007240100012000062402010116
:1053180001092403010201010100070501024000FF
:10532800000525010101070582024000000525014D
:10533800010200001200000044530008120100029C
:1053480000000040830440570001010203010000EF
:10535800020000000000000000000000514D00089D
:105368000000400000000000D817002401000000E1
:10537800000000000200000000000000B14C00081E
:105388000000000040000000E817002400000000B2
:10539800010000000000000004030904100343009A
:1053A80068006900620069004F0053000C03420066
:1053B8007200690063006B000A033000300030009F
:1053C8003100000004000000A05300081000000095
:1053D800A45300080C000000B45300080A000000A1
:1053E800C0530008D14C0008514C000800000000D0
:0453F800914C0008CC
:0453FC0003000000AA
:04000005080003B933
:00000001FF
