:020000040800F2
:1000000000040020B9030008BB030008BB0300087C
:10001000BB030008BB030008BB030008BB030008C8
:10002000BB030008BB030008BB030008856B000886
:10003000BB030008BB030008BB030008BB030008A8
:10004000BB030008BB030008BB030008BB03000898
:10005000BB030008BB030008BB030008BB03000888
:10006000BB030008BB030008BB030008B12A00085B
:10007000012B0008552B0008A92B0008FD2B0008B8
:100080004D2C0008A12C0008BD290008BB03000866
:10009000BB030008BB030008BB030008BB03000848
:1000A000BB030008BB030008BB030008BB03000838
:1000B000351F0008BB030008711F0008BB030008C0
:1000C000BB0300080D34000851340008BB030008CE
:1000D0007D490008211E0008BB030008BB0300087F
:1000E000BB030008BB030008BB030008BB030008F8
:1000F000BB030008BB030008BB030008F52C000885
:10010000C11C0008BB030008BB030008BB030008B8
:10011000BB0300087D1E0008BB030008BB030008EA
:10012000492D0008992D0008ED2D0008412E0008EA
:10013000952E0008BB030008BB030008BB030008A2
:10014000BB030008BB030008BB030008BB03000897
:10015000E52E0008392F00088D2F0008B51E000875
:10016000BB030008BB030008BB030008BB03000877
:10017000BB030008BB030008BB030008BB03000867
:10018000BB030008BB030008BB030008BB03000857
:10019000BB030008BB030008BB030008BB03000847
:1001A000BB030008BB030008BB030008BB03000837
:1001B000BB030008BB030008BB030008BB03000827
:1001C000BB030008BB030008BB030008BB03000817
:1001D000BB0300080D410008BB030008BB03000877
:1001E000BB030008BB030008BB030008BB030008F7
:1001F000BB030008BB030008BB030008BB030008E7
:10020000BB030008BB030008BB030008BB030008D6
:10021000BB030008BB030008BB030008BB030008C6
:10022000BB030008BB030008BB030008BB030008B6
:10023000BB030008BB030008BB030008BB030008A6
:10024000BB030008BB030008BB030008BB03000896
:10025000BB030008BB030008BB030008BB03000886
:10026000BB030008BB030008BB030008BB03000876
:10027000BB030008BB030008BB030008BB03000866
:10028000BB030008BB030008BB030008BB03000856
:10029000BB030008BB030008BB030008BB03000846
:1002A000BB030008BB030008BB030008BB03000836
:1002B000BB030008BB030008BB030008BB03000826
:1002C000BB030008BB030008BB030008BB03000816
:1002D000BB030008BB030008BB030008BB03000806
:1002E00072B6264880F30888254880F30988254897
:1002F00025490860022080F31488BFF36F8F00F057
:10030000C9F905F017F84FF0553020491B4A9142C2
:100310003CBF41F8040BFAE71D49194A91423CBF22
:1003200041F8040BFAE71B491B4A1C4B9A423EBF9B
:1003300051F8040B42F8040BF8E700201849194A59
:1003400091423CBF41F8040BFAE700F0B5F900F028
:10035000A9F9154C154DAC4203DA54F8041B884733
:10036000F9E706F0A5FC124C124DAC4203DA54F842
:10037000041B8847F9E700F09BB900000004002047
:10038000000800200000000808ED00E00000002048
:1003900000040020B87100080000002400000024C0
:1003A00000000024B40D0024E0020008E002000870
:1003B000E0020008E002000892E700F000F8FEE723
:1003C0002DE9F04FC1F80CD0D0F80CD0BDE8F08F7B
:1003D000002383F311882846A047002006F0E0F8A8
:1003E000FEE705F075FE00DFFEE70000844641EA07
:1003F000000313F003036DD1403A41D351F8043B9D
:1004000040F8043B51F8043B40F8043B51F8043BEE
:1004100040F8043B51F8043B40F8043B51F8043BDE
:1004200040F8043B51F8043B40F8043B51F8043BCE
:1004300040F8043B51F8043B40F8043B51F8043BBE
:1004400040F8043B51F8043B40F8043B51F8043BAE
:1004500040F8043B51F8043B40F8043B51F8043B9E
:1004600040F8043B51F8043B40F8043B51F8043B8E
:1004700040F8043B51F8043B40F8043B403ABDD2FD
:10048000303211D351F8043B40F8043B51F8043B9F
:1004900040F8043B51F8043B40F8043B51F8043B5E
:1004A00040F8043B103AEDD20C3205D351F8043B2E
:1004B00040F8043B043AF9D2043208D0D2071CBFFA
:1004C00011F8013B00F8013B01D30B880380604623
:1004D000704700BF082A13D38B078DD010F0030399
:1004E0008AD0C3F10403D21ADB071CBF11F8013B09
:1004F00000F8013B80D331F8023B20F8023B7BE758
:10050000043AD9D3013A11F8013B00F8013BF9D282
:100510000B7803704B7843708B788370604670471C
:1005200080B400AFBFF34F8F00BFBFF36F8F00BF2A
:100530000C4B0022C3F85022BFF34F8F00BFBFF314
:100540006F8F00BF074B5B69064A43F4003353616A
:10055000BFF34F8F00BFBFF36F8F00BF00BFBD461B
:1005600080BC704700ED00E080B400AFBFF34F8F58
:1005700000BFBFF36F8F00BF064B0022C3F85022AD
:10058000BFF34F8F00BFBFF36F8F00BF00BFBD46EB
:1005900080BC704700ED00E080B485B000AF1F4B19
:1005A0000022C3F88420BFF34F8F00BF1B4BD3F84A
:1005B00080307B607B685B0BC3F30E03FB607B6862
:1005C000DB08C3F30903BB60FB685A0143F6E07321
:1005D0001340BA68920711491343C1F86032BB68EF
:1005E0005A1EBA60002BEFD1FB685A1EFA60002B2E
:1005F000E5D1BFF34F8F00BF084B5B69074A43F457
:1006000080335361BFF34F8F00BFBFF36F8F00BFC5
:1006100000BF1437BD4680BC704700BF00ED00E04E
:1006200080B485B000AF1A4B0022C3F88420BFF31A
:100630004F8F00BF164BD3F880307B607B685B0B1D
:10064000C3F30E03FB607B68DB08C3F30903BB60E5
:10065000FB685A0143F6E0731340BA6892070C49ED
:100660001343C1F86C32BB685A1EBA60002BEFD13D
:10067000FB685A1EFA60002BE5D1BFF34F8F00BF15
:10068000BFF36F8F00BF00BF1437BD4680BC7047FB
:1006900000ED00E080B500AFFFF742FFFFF77CFF01
:1006A00000BF80BD80B400AF00BFBD4680BC7047B6
:1006B00080B400AFFEE7000080B584B000AF194BF6
:1006C000FB60FB681B68BB60FB685B687B6009E0E4
:1006D000BB681A687B681A607B6804337B60BB6800
:1006E0000433BB60FB689B687A689A42F0D305E0EC
:1006F0007B6800221A607B6804337B60FB68DB68E0
:100700007A689A42F4D3FB681033FB60FB68064AB0
:100710009342D6D3FFF784FFFFF726FF00BF1037C1
:10072000BD4680BDFC6C00087C6D000880B400AF45
:1007300000BFBD4680BC704780B500AFFFF7F6FF35
:1007400001F0A8FE02F088FC00F064FB00F087FBDB
:1007500000F0A5FB00F0BBFC00F01DFD00F0A2FFC7
:1007600001F094FA04F0EEFD00F037F800BF80BD10
:1007700080B400AF4FF080435B6A1846BD4680BC32
:10078000704780B483B000AF78604FF080427B68E0
:1007900053634FF0804300221A614FF080430222DE
:1007A000DA6000BF0C37BD4680BC704780B400AF34
:1007B0004FF080430022DA6000BFBD4680BC704726
:1007C00080B483B000AF78604FF080427B685363A1
:1007D00000BF0C37BD4680BC704780B500AF04F049
:1007E00063F900BF80BD80B500AFFFF7C1FF0346CE
:1007F000184680BD80B582B000AF78607868FFF79A
:10080000C0FF00BF0837BD4680BD80B500AFFFF711
:10081000CDFF00BF80BD80B582B000AF7860786842
:10082000FFF7CEFF00BF0837BD4680BD80B483B060
:1008300000AF78607B687A681A607B687A685A6073
:1008400000BF0C37BD4680BC704780B483B000AF9A
:1008500030237B607B6883F3118800BF00BF00BF3B
:100860000C37BD4680BC704780B483B000AF002316
:100870007B607B6883F3118800BF00BF00BF0C372B
:10088000BD4680BC704780B582B000AF78607B68A1
:100890001846FFF7CBFF00BF0837BD4680BD80B5C7
:1008A00000AFFFF7D2FF00BF80BD80B500AFFFF7FC
:1008B000DBFF00BF80BD80B582B000AF7860786894
:1008C000FFF7E1FF00BF0837BD4680BD80B582B0AD
:1008D00000AF786039603968786805F0D4FE034667
:1008E00018460837BD4680BD80B582B000AF78603D
:1008F00039603968786805F0E7FE00BF0837BD4603
:1009000080BD80B586B000AFF860B9607A60FB68E2
:100910009B687A689A4202D9FB689B687B60FB6897
:100920001A69FB689B69D31A7B617A687B699A4272
:100930000DD2FB689B697A681946B868FFF756FDC7
:10094000FB689A697B681A44FB689A612BE07A68B5
:100950007B699A421CD9FB689B697A691946B86819
:10096000FFF744FDBA687B691344BB607A687B6912
:10097000D31A3B61FB68DB683A691946B868FFF730
:1009800035FDFB68DA683B691A44FB689A610AE046
:10099000FB689B697A681946B868FFF727FDFB6812
:1009A000DA68FB689A61FB689A687B68D21AFB6810
:1009B0009A607B6818461837BD4680BD80B586B002
:1009C00000AFF860B9607A60FB689B687A689A4209
:1009D00002D9FB689B687B60FB681A69FB685B69EE
:1009E000D31A7B617A687B699A420DD2FB685B6996
:1009F0007A68B9681846FFF7F9FCFB685A697B68A2
:100A00001A44FB685A612BE07A687B699A421CD9C8
:100A1000FB685B697A69B9681846FFF7E7FCBA6852
:100A20007B691344BB607A687B69D31A3B61FB68BE
:100A3000DB683A69B9681846FFF7D8FCFB68DA68E2
:100A40003B691A44FB685A610AE0FB685B697A6893
:100A5000B9681846FFF7CAFCFB68DA68FB685A6198
:100A6000FB689A687B68D21AFB689A607B681846B4
:100A70001837BD4680BD80B584B000AFF860B9605E
:100A80007A603B60FB681846FFF715FFFB680022A1
:100A90009A60FB68BA68DA60FB68BA689A61FB68BA
:100AA000BA685A61BA687B681A44FB681A61FB68C5
:100AB0003A68DA61FB68BA691A6200BF1037BD464E
:100AC00080BD80B582B000AF78600B46FB707B685C
:100AD0005A697B689B699A4205D17B689B68002BA9
:100AE00001D0012300E0002303F00103DBB283F017
:100AF0000103DBB2002B1CD07B689B685A1C7B680F
:100B00009A607B685B69591C7A685161FA781A703F
:100B10007B685A697B681B699A4203D37B68DA68F1
:100B20007B685A617B6800211846FFF7DDFE0023D1
:100B300001E04FF0FF3318460837BD4680BD80B551
:100B400084B000AF78603960FFF7A9FE0CE07B68E5
:100B500039681846FFF7BAFEB860BB68002B03DAA5
:100B6000FFF7A3FEBB6824E07B689B68002BEED0F8
:100B70007B689B685A1E7B689A607B689B69591CDE
:100B80007A6891611B78FB737B689A697B681B6943
:100B90009A4203D37B68DA687B689A617B68DB6979
:100BA000002B03D07B68DB6978689847FFF77DFEF0
:100BB000FB7B18461037BD4680BD80B588B000AFBE
:100BC000F860B9607A603B60FB68DB69FB617B6859
:100BD000BB61FFF764FE24E07A68B968F868FFF744
:100BE00090FE78617B69002B09D1FB683968184653
:100BF000FFF76CFE38613B69002B12D014E0FB69F3
:100C0000002B02D0FB69F8689847FFF74EFE7A6820
:100C10007B69D31A7B60BA687B691344BB60FFF7BA
:100C20003EFE7B68002BD7D1FFF73FFEBA697B6899
:100C3000D31A18462037BD4680BD80B584B000AFBA
:100C4000F860B9607A603B60FB681846FFF733FED6
:100C5000FB687A689A60FB68BA68DA60FB68BA6811
:100C60009A61FB68BA685A61BA687B681A44FB6883
:100C70001A61FB683A68DA61FB68BA691A6200BFF8
:100C80001037BD4680BD80B586B000AFF8600B461A
:100C90007A60FB72FFF703FE0CE0FB687968184688
:100CA000FFF714FE78617B69002B03DAFFF7FDFD87
:100CB0007B6924E0FB689B68002BEED0FB689B6897
:100CC0005A1EFB689A60FB685B69591CFA6851619F
:100CD000FA7A1A70FB685A69FB681B699A4203D357
:100CE000FB68DA68FB685A61FB68DB69002B03D09C
:100CF000FB68DB69F8689847FFF7D7FD00231846C3
:100D00001837BD4680BD80B584B000AF78607B6881
:100D10005A697B689B699A4205D17B689B68002B66
:100D200001D0012300E0002303F00103DBB283F0D4
:100D30000103DBB2002B1CD07B689B685A1C7B68CC
:100D40009A607B689B69591C7A6891611B78FB7378
:100D50007B689A697B681B699A4203D37B68DA686F
:100D60007B689A617B6800211846FFF7BDFDFB7B1D
:100D700001E04FF0FF3318461037BD4680BD80B507
:100D800088B000AFF860B9607A603B60FB68DB69EF
:100D9000FB617B68BB61FFF782FD24E07A68B9687C
:100DA000F868FFF70BFE78617B69002B09D1FB68BF
:100DB00039681846FFF78AFD38613B69002B12D06D
:100DC00014E0FB69002B02D0FB69F8689847FFF735
:100DD0006CFD7A687B69D31A7B60BA687B691344BF
:100DE000BB60FFF75CFD7B68002BD7D1FFF75DFD93
:100DF000BA697B68D31A18462037BD4680BD80B5D6
:100E000082B000AF7860786805F0FFFC00BF08375B
:100E1000BD4680BD80B500AF01F0F0FD00BF80BDD4
:100E200080B582B000AF78607B6801221A707B6861
:100E300000225A607B6800229A607B680022DA6098
:100E40007B6800221A617B6800225A617B68183334
:100E50001846FFF7D4FF00BF0837BD4680BD80B5F8
:100E600000AF03F075FE00BF80BD80B483B000AF5B
:100E700078607B6801221A707B6800225A6000BF8C
:100E80000C37BD4680BC704780B582B000AF78603B
:100E9000786805F0BAFC00BF0837BD4680BD80B554
:100EA00000AF02F0F7FA00BF80BD80B582B000AF9E
:100EB00078607B6801221A707B6800225A607B6828
:100EC0000C331846FFF7E0FF00BF0837BD4680BD72
:100ED00080B483B000AF30237B607B6883F31188DC
:100EE00000BF00BF00BF0C37BD4680BC704780B458
:100EF00083B000AF00237B607B6883F3118800BF61
:100F000000BF00BF0C37BD4680BC704780B483B0C3
:100F100000AF78607B687A681A6000BF0C37BD4606
:100F200080BC704780B500AFFFF7D2FF00BF80BD27
:100F300080B500AFFFF7DBFF00BF80BD80B582B09A
:100F400000AF78607868FFF7E1FF00BF0837BD4663
:100F500080BD80B582B000AF78603960396878684C
:100F600005F091FC00BF0837BD4680BD80B584B058
:100F700000AFF860B9607A60FB6803F130004FF0B1
:100F8000FF337A68B968FFF7FAFE03461846103750
:100F9000BD4680BD80B584B000AFF860B9607A60AE
:100FA000FB6803F10C004FF0FF337A68B968FFF774
:100FB00004FE034618461037BD4680BD80B582B09A
:100FC00000AF78600B46FB707B683033F9784FF0E8
:100FD000FF321846FFF757FE034618460837BD464E
:100FE00080BD80B582B000AF78607B680C334FF075
:100FF000FF311846FFF7A3FD034618460837BD46E4
:1010000080BD80B584B000AFF8600B467A60FB729B
:10101000FB683033F97A7A681846FFF734FE0346E6
:1010200018461037BD4680BD80B582B000AF7860ED
:1010300039607B680C3339681846FFF780FD03463A
:1010400018460837BD4680BD80B584B000AFF86053
:10105000B9607A603B60FB6803F130003B687A68F6
:10106000B968FFF78CFE034618461037BD4680BDB1
:1010700080B584B000AFF860B9607A603B60FB680F
:1010800003F10C003B687A68B968FFF796FD0346E8
:1010900018461037BD4680BD80B487B000AFF860F9
:1010A000B9607A60FB687B61BB68002B03D0BB68CA
:1010B000012B03D105E06FF0130303E06FF013037E
:1010C00000E0002318461C37BD4680BC704780B541
:1010D00000AF03F001FF00BF80BD000080B582B00B
:1010E00000AF78607B68074A1A607B680433184653
:1010F000FFF724FF7B6801221A7200BF0837BD4644
:1011000080BD00BF7C6D000880B584B000AF786002
:101110003960FFF707FF3968786803F05BFF7B6889
:1011200002221A720023FB60FFF702FFFB681846D9
:101130001037BD4680BD80B582B000AF78600B46E9
:10114000FB707B685B69002B05D17B68043304214D
:101150001846FFF7FEFE7B680C33FA7811461846F6
:10116000FFF7AFFC0346002B06DA7B6804334FF42D
:1011700000611846FFF7EDFE00BF0837BD4680BD91
:1011800080B582B000AF7860786805F03EFB00BFA4
:101190000837BD4680BD80B500AF03F003FC00BF3B
:1011A00080BD80B582B000AF78607B6801221A7084
:1011B0007B6800225A607B6800229A607B680C334F
:1011C0001846FFF7DDFF00BF0837BD4680BD80B47D
:1011D00083B000AF30237B607B6883F3118800BF4E
:1011E00000BF00BF00BF0C37BD4680BC704780B455
:1011F00083B000AF00237B607B6883F3118800BF5E
:1012000000BF00BF00BF0C37BD4680BC704780B533
:1012100000AFFFF7DCFF00BF80BD80B500AFFFF778
:10122000E6FF00BF80BD80B485B000AF78607B680A
:101230005A1C7A601B78FB817B681B781B021AB2F0
:10124000B7F90E3013431BB2FB81FB8918461437E4
:10125000BD4680BC704780B582B000AF78607B68C7
:1012600093F882207B6883F88A20786803F014F86A
:101270007B685B681B68002B05D07B685B681B681C
:101280000121786898477B6803221A7000BF0837ED
:10129000BD4680BDF0B585B000AF78607B6893F83F
:1012A000803003F07F027B6893F881301B02134388
:1012B00040F60242934200F0208140F602429342FF
:1012C00000F2E481B3F5106F00F0D680B3F5106F33
:1012D00000F2DC81B3F5006F00F0C180B3F5006F60
:1012E00000F2D48140F20162934200F2CF81B3F563
:1012F000C06F80F08E80B3F5A06F72D0B3F5A06F91
:1013000000F2C48140F20232934200F08B8140F23D
:101310000232934200F2BA81B3F5407F46D0B3F572
:10132000407F00F2B381B3F5817F00F04781B3F5D0
:10133000817F00F2AB81B3F5807F1CD0B3F5807F55
:1013400000F2A481022B00F0E380022B00F29E81C8
:10135000002B03D0012B00F0D08097E17B6803F1D4
:1013600088027B685A677B6802229A677B68002242
:10137000DA6701238BE17B6893F88230012B13D16C
:101380007B68B3F8883023F002039AB27B68A3F835
:1013900088207B6800225A677B6800229A677B68F6
:1013A0000022DA67012372E1002370E17B6893F881
:1013B0008230012B13D17B68B3F8883043F00203ED
:1013C0009AB27B68A3F888207B6800225A677B6802
:1013D00000229A677B680022DA67012357E1002325
:1013E00055E17B6893F88030002B07D17B6893F838
:1013F0008130052B02D17868FFF72DFF7B68002232
:101400005A677B6800229A677B680022DA670123AB
:101410003DE17B685B685C687B6893F883507B6820
:1014200093F882607B6884331846FFF7FCFE03461E
:10143000324629467868A047F860FB68002B01D146
:10144000002324E1FB685A687B685A67FB681A68C6
:101450007B689A677B680022DA67012317E17B6863
:1014600003F18B027B685A677B6801229A677B686D
:101470000022DA6701230AE17B681B78042B18D16C
:10148000FFF7C5FE786800F03DF9FFF7C6FE7B6800
:10149000002283F88B207B6803221A707B685B68CC
:1014A0001B68002B05D07B685B681B68032178688C
:1014B00098477B6893F88230002B13D07B6893F8B1
:1014C00082207B6883F88B207B6804221A707B68FB
:1014D0005B681B68002B05D07B685B681B6802217A
:1014E000786898477B6800225A677B6800229A6771
:1014F0007B680022DA670123C9E07B68664A5A6785
:101500007B6802229A677B680022DA670123BEE0CB
:101510007B6893F884305BB2002B27DA7B6893F802
:10152000843003F00F03DBB21946786802F0FFFE47
:101530000346012B02D0022B0BD015E07B68574AE3
:101540005A677B6802229A677B680022DA67012368
:101550009DE07B68524A5A677B6802229A677B68E3
:101560000022DA67012392E0002390E07B6893F881
:10157000843003F00F03DBB21946786802F0B4FE42
:101580000346012B02D0022B0BD015E07B68434AA7
:101590005A677B6802229A677B680022DA67012318
:1015A00075E07B683E4A5A677B6802229A677B68CF
:1015B0000022DA6701236AE0002368E07B6893F881
:1015C0008230002B01D0002361E07B6893F88430E7
:1015D00003F00F03002B1AD07B6893F884305BB2C2
:1015E000002B0ADA7B6893F8843003F00F03DBB238
:1015F0001946786803F07AF809E07B6893F884303C
:1016000003F00F03DBB21946786803F052F87B68E9
:1016100000225A677B6800229A677B680022DA679B
:10162000012334E07B6893F88230002B01D0002343
:101630002DE07B6893F8843003F00F03002B1AD061
:101640007B6893F884305BB2002B0ADA7B6893F8EE
:10165000843003F00F03DBB21946786803F00CF80E
:1016600009E07B6893F8843003F00F03DBB219467E
:10167000786802F0E4FF7B6800225A677B680022EA
:101680009A677B680022DA67012300E0002318468E
:101690001437BD46F0BD00BFA46D0008AC6D000856
:1016A000A86D000880B500AF02F044FD00BF80BD0A
:1016B00080B485B000AF78607B6801221A707B68C7
:1016C00000225A600023FB600EE07B68FA680C324F
:1016D000002143F822107B68FA681432002143F895
:1016E0002210FB680133FB60FB68072BEDD97B6898
:1016F00000221A817B6800225A8100BF1437BD4640
:1017000080BC704780B584B000AF78607B681B896F
:1017100003F001039AB27B681A817B685B8903F04E
:1017200001039AB27B685A810123FB6009E07A6861
:10173000FB6802339B00134400225A60FB680133AC
:10174000FB60FB68082BF2D9786802F0BFFD00BF90
:101750001037BD4680BD80B586B000AFF8607A60B6
:101760003B600B46FB72FB685A89FB7A012101FA48
:1017700003F39BB213439AB2FB685A81FB7AFA686F
:1017800002339B0013445B689B697B617B697A68C9
:101790009A607B693A681A607B6900225A60FB7A1A
:1017A0001946F86802F0FDFD00BF1837BD4680BD40
:1017B00080B586B000AFF8607A603B600B46FB7284
:1017C000FB681A89FB7A012101FA03F39BB21343E8
:1017D0009AB2FB681A81FB7AFA6802339B001344C1
:1017E0005B685B697B617B697A689A607B693A6850
:1017F0001A607B6900225A60FB7A1946F86802F089
:101800006FFE00BF1837BD4680BD80B584B000AF05
:1018100078607B6802221A707B680022A3F8882017
:101820007B68002283F88A207B68002283F88B2063
:101830007B6800221A817B6800225A810023FB60AA
:1018400009E07A68FB6802339B00134400225A6067
:10185000FB680133FB60FB68082BF2D97B68002230
:1018600083F87020786802F07BFC7B685B681B68FB
:10187000002B05D07B685B681B680021786898475F
:1018800000BF1037BD4680BD80B582B000AF786024
:101890007B681B78052B18D07B681A787B6883F8E7
:1018A0008C207B6805221A707B685B681B68002BA4
:1018B00005D07B685B681B680421786898477B6863
:1018C00000221A817B6800225A8100BF0837BD467A
:1018D00080BD80B582B000AF78607B681B78052B37
:1018E0000FD17B6893F88C207B681A707B685B68EB
:1018F0001B68002B05D07B685B681B680521786836
:10190000984700BF0837BD4680BD80B584B000AFA2
:1019100078600B46FB707B6893F87030002B03D027
:101920007B68002283F870207B6803F18002FB78DB
:101930001946786802F01EFD7B685B689B68002B87
:101940000AD07B685B689B6878689847034683F099
:101950000103DBB2002B27D07B6893F8803003F0C3
:101960006003002B08D17868FFF794FC034683F0EE
:101970000103DBB2002B17D00021786802F07CFE57
:101980000021786802F05BFE7B685B681B68002BB7
:1019900005D07B685B681B680621786898477B6880
:1019A000062283F870205BE07B6886331846FFF7D9
:1019B0003AFC0346FB607B689B6FFA689A4202D24E
:1019C0007B68FA689A677B6893F880305BB2002B7B
:1019D00023DA7B689B6F002B10D07B68092283F889
:1019E0007020FFF714FC7B685A6F7B689B6F0021A7
:1019F0007868FFF7DDFEFFF710FC31E07B6814220A
:101A000083F87020FFF703FC002300220021786890
:101A1000FFF7A1FEFFF701FC22E07B689B6F002B24
:101A200010D07B68152283F87020FFF7F0FB7B68ED
:101A30005A6F7B689B6F00217868FFF78CFEFFF779
:101A4000ECFB0DE07B680B2283F87020FFF7DFFBD7
:101A50000023002200217868FFF7AAFEFFF7DDFBD4
:101A60001037BD4680BD000080B584B000AF7860FF
:101A70000B46FB707B6893F87030152B00F28B805F
:101A800001A252F823F000BF671B0008971B000853
:101A9000971B0008971B0008971B0008971B00085E
:101AA000671B0008971B0008971B0008E11A000835
:101AB0002F1B00084D1B0008971B0008971B0008F0
:101AC000971B0008971B0008971B0008971B00082E
:101AD000971B0008971B0008671B0008671B00087E
:101AE0007B6886331846FFF79EFB0346FB607B68E6
:101AF0009B6FFA689A421AD97B689B6F7A68D268A2
:101B0000128AB3FBF2F101FB02F29B1A002B0ED1F9
:101B1000FFF77DFB0023002200217868FFF748FED5
:101B2000FFF77BFB7B680A2283F8702033E07B6839
:101B3000142283F87020FFF76AFB002300220021A3
:101B40007868FFF708FEFFF768FB24E07B68DB6F2F
:101B5000002B03D07B68DB6F786898477B68002296
:101B600083F8702017E00021786802F085FD0021DD
:101B7000786802F064FD7B685B681B68002B05D009
:101B80007B685B681B680621786898477B6806223B
:101B900083F8702000BF1037BD4680BD80B582B08D
:101BA00000AF78600B46FB707B6893F87030152BA4
:101BB00069D801A252F823F0551C0008871C0008C0
:101BC000871C0008871C0008871C0008871C000869
:101BD000551C0008871C0008871C0008551C0008BD
:101BE000551C0008551C0008871C0008871C0008AD
:101BF000871C0008871C0008871C0008871C000839
:101C0000871C0008871C00082F1C0008111C0008F6
:101C10007B680B2283F87020FFF7F9FA002300227B
:101C200000217868FFF7C4FDFFF7F7FA2BE07B6827
:101C3000DB689B695B68002B24D17B68DB6F002B22
:101C400003D07B68DB6F786898477B68002283F855
:101C5000702018E00021786802F00EFD00217868FD
:101C600002F0EDFC7B685B681B68002B05D07B688D
:101C70005B681B680621786898477B68062283F8B2
:101C8000702000E000BF0837BD4680BD80B500AFC2
:101C900000F002F800BF80BD80B400AF064B1B7897
:101CA000002B05D1044B01221A70034B034A5A60E2
:101CB00000BFBD4680BC7047000000244041005278
:101CC00080B500AF044803F0D7FC034803F00EFDD5
:101CD00004F0AAFF00BF80BDB06D000880B483B0DF
:101CE00000AF786039603B68DBB2124A1B01D9B2A1
:101CF0007B68134403F540730A461A707B6803F04F
:101D00001F020C497B685B09012000FA02F2603374
:101D100041F823207B6803F01F0206497B685B09BA
:101D2000012000FA02F241F8232000BF0C37BD4623
:101D300080BC704700E100E080B400AF00BFBD464A
:101D400080BC704780B400AF00BFBD4680BC704708
:101D500080B400AF00BFBD4680BC704780B400AF08
:101D600000BFBD4680BC704780B400AF00BFBD4619
:101D700080BC704780B400AF00BFBD4680BC7047D8
:101D800080B400AF00BFBD4680BC704780B400AFD8
:101D900000BFBD4680BC704780B400AF00BFBD46E9
:101DA00080BC704780B400AF00BFBD4680BC7047A8
:101DB00080B400AF00BFBD4680BC704780B400AFA8
:101DC00000BFBD4680BC704780B400AF00BFBD46B9
:101DD00080BC704780B400AF00BFBD4680BC704778
:101DE00080B400AF00BFBD4680BC704780B400AF78
:101DF00000BFBD4680BC704780B400AF00BFBD4689
:101E000080BC704780B400AF00BFBD4680BC704747
:101E100080B500AF0C212520FFF760FF00BF80BD1B
:101E200080B500AF064803F027FC064803F00AF926
:101E3000034803F05BFC04F0F7FE00BF80BD00BF69
:101E4000BC6D0008FC01002480B400AF00BFBD469B
:101E500080BC704780B400AF00BFBD4680BC7047F7
:101E600080B400AF00BFBD4680BC704780B500AFF6
:101E70000C213520FFF732FF00BF80BD80B500AFD9
:101E8000064803F0F9FB064803F0DCF8034803F0CA
:101E90002DFC04F0C9FE00BF80BD00BFC86D000866
:101EA0005C02002480B500AF0C214720FFF716FF2D
:101EB00000BF80BD80B500AF064803F0DDFB0648DB
:101EC00003F0C0F8034803F011FC04F0ADFE00BFBE
:101ED00080BD00BFD46D0008BC02002480B400AFF8
:101EE00000BFBD4680BC704780B400AF00BFBD4698
:101EF00080BC704780B400AF00BFBD4680BC704757
:101F000080B400AF00BFBD4680BC704780B400AF56
:101F100000BFBD4680BC704780B400AF00BFBD4667
:101F200080BC704780B500AF07211C20FFF7D6FEAC
:101F300000BF80BD80B500AF054803F09DFB02F0F7
:101F4000E5FD034803F0D2FB04F06EFE00BF80BD48
:101F5000E06D000880B400AF00BFBD4680BC704794
:101F600080B500AF07211E20FFF7B8FE00BF80BD7F
:101F700080B500AF064803F07FFB064802F00FFE75
:101F8000034803F0B3FB04F04FFE00BF80BD00BF69
:101F9000EC6D0008EC01002480B400AF00BFBD462A
:101FA00080BC704780B400AF00BFBD4680BC7047A6
:101FB00080B400AF00BFBD4680BC704780B400AFA6
:101FC00000BFBD4680BC704780B400AF00BFBD46B7
:101FD00080BC704780B400AF00BFBD4680BC704776
:101FE00080B400AF00BFBD4680BC704780B500AF75
:101FF000FFF7A2FEFFF7A6FEFFF7AAFEFFF7AEFE71
:10200000FFF7B2FEFFF7B6FEFFF7BAFEFFF7BEFE20
:10201000FFF7C2FEFFF7C6FEFFF7CAFEFFF7CEFED0
:10202000FFF7D2FEFFF7D6FEFFF7DAFE09217A208E
:10203000FFF754FEFFF7DAFEFFF7DEFEFFF7E2FEE2
:10204000FFF76AFFFFF76EFFFFF784FFFFF788FFD8
:10205000FFF7A2FFFFF7A6FFFFF7AAFFFFF7AEFF0C
:10206000FFF7B2FFFFF7B6FFFFF7BAFFFFF7D0FEAB
:10207000FFF7EAFEFFF7EEFEFFF7F2FEFFF7F6FED0
:10208000FFF710FFFFF72AFFFFF72EFFFFF732FFE2
:10209000FFF736FFFFF73AFF00BF80BD80B485B081
:1020A00000AF1A4B0022C3F88420BFF34F8F00BF4C
:1020B000164BD3F880307B607B685B0BC3F30E0359
:1020C000FB607B68DB08C3F30903BB60FB685A0154
:1020D00043F6E0731340BA6892070C491343C1F802
:1020E0007432BB685A1EBA60002BEFD1FB685A1ECF
:1020F000FA60002BE5D1BFF34F8F00BFBFF36F8FA6
:1021000000BF00BF1437BD4680BC704700ED00E043
:1021100080B483B000AF78600C4BD3F890200B49AB
:102120007B681343C1F89030084BD3F890207B684C
:10213000DB4306491340C1F89030044BD3F890308C
:1021400000BF0C37BD4680BC704700BF004402583A
:1021500080B483B000AF78600C4BD3F894200B4967
:102160007B681343C1F89430084BD3F894207B6804
:10217000DB4306491340C1F89430044BD3F8943044
:1021800000BF0C37BD4680BC704700BF00440258FA
:1021900080B483B000AF78600C4BD3F898200B4923
:1021A0007B681343C1F89830084BD3F898207B68BC
:1021B000DB4306491340C1F89830044BD3F89830FC
:1021C00000BF0C37BD4680BC704700BF00440258BA
:1021D00080B483B000AF78600C4BD3F88C200B49EF
:1021E0007B681343C1F88C30084BD3F88C207B6894
:1021F000DB4306491340C1F88C30044BD3F88C30D4
:1022000000BF0C37BD4680BC704700BF0044025879
:1022100080B483B000AF78600C4BD3F89C200B499E
:102220007B681343C1F89C30084BD3F89C207B6833
:10223000DB4306491340C1F89C30044BD3F89C3073
:1022400000BF0C37BD4680BC704700BF0044025839
:1022500080B483B000AF78600C4BD3F880200B497A
:102260007B681343C1F88030084BD3F880207B682B
:10227000DB4306491340C1F88030044BD3F880306B
:1022800000BF0C37BD4680BC704700BF00440258F9
:1022900080B483B000AF78600C4BD3F884200B4936
:1022A0007B681343C1F88430084BD3F884207B68E3
:1022B000DB4306491340C1F88430044BD3F8843023
:1022C00000BF0C37BD4680BC704700BF00440258B9
:1022D00080B483B000AF7860094BDA6F08497B683F
:1022E0001343CB67064BDA6F7B68DB43044913402B
:1022F000CB67034BDB6F00BF0C37BD4680BC70471C
:102300000044025880B483B000AF78600C4BD3F81F
:1023100088200B497B681343C1F88830084BD3F8F9
:1023200088207B68DB4306491340C1F88830044BA2
:10233000D3F8883000BF0C37BD4680BC704700BF63
:102340000044025880B483B000AF78600B46FB7045
:10235000124BD3F8F42011497B681343C1F8F430D1
:10236000FB78002B08D00D4BD3F81C210B497B6860
:102370001343C1F81C3108E0084BD3F81C217B68DB
:10238000DB4306491340C1F81C31044BD3F81C3120
:1023900000BF0C37BD4680BC704700BF00440258E8
:1023A00080B483B000AF78600B46FB70124BD3F85B
:1023B000DC2011497B681343C1F8DC30FB78002B2B
:1023C00008D00D4BD3F804210B497B681343C1F8A7
:1023D000043108E0084BD3F804217B68DB4306494D
:1023E0001340C1F80431044BD3F8043100BF0C375B
:1023F000BD4680BC704700BF0044025880B400AFA7
:102400000B4B1B680A4A43F480731360094B1B6F24
:1024100003F44073B3F5007F06D0064B4FF48032CF
:102420001A67044B00221A6700BFBD4680BC704784
:10243000004802580044025880B400AF124B0222F8
:10244000DA6000BF104B5B6803F40053002BF9D037
:102450000D4B0E4A1A600C4B01229A600A4B0C4A33
:10246000DA60094B00221A61074B4FF440429A612F
:1024700000BF054B9B6903F40053002BF9D000BF4C
:1024800000BFBD4680BC70470048025800C000F045
:102490000200000180B500AF6FF00040FFF7D8FEEA
:1024A0004FF0FF30FFF7F4FE1A48FFF711FF1A480C
:1024B000FFF728FF4FF0FF30FFF72AFE4FF0FF3005
:1024C000FFF746FE4FF0FF30FFF762FE4FF0FF30A0
:1024D000FFF77EFE4FF0FF30FFF79AFE00F082FD1F
:1024E000FFF784FD0D4B06229A600C4B4FF0105203
:1024F000DA600A4B0A4A1A61084B05225A60094BF6
:102500005B6A084A43F480335362FFF7C7FD00BF9C
:1025100080BD00BFFFEFFF7F00F8FFFF90ED00E000
:102520001B000C0300ED00E080B584B000AF7A4BD7
:1025300001221A6001210220FFF704FFFFF77CFF50
:10254000FFF75CFF754B1B68744A43F0010313608F
:1025500000BF724B1B6803F00403002BF9D06F4BD4
:1025600000221A6100BF6D4B1B6903F03803002B7A
:10257000F9D16A4B01221A60684B4FF080425A60D1
:10258000664B00225A67654B654ADA62654BFB6011
:10259000FB6843F40043FB60604AFB6813615F4BD8
:1025A0001B685E4A43F48033136000BF5B4B1B68BB
:1025B00003F40033002BF9D0584B1B68574A43F4FF
:1025C0008053136000BF554B1B6803F40053002B6E
:1025D000F9D00023BB6000237B6000233B604F4B9E
:1025E000514A9A6240F255733B604C4B00225A6349
:1025F0004A4B4E4A1A63BB6843F08073BB607B68EA
:1026000043F000737B603B6843F480333B603B687E
:1026100043F400333B60414B4CF29022DA633F4B72
:10262000434A9A63BB6843F08063BB607B6843F0B6
:1026300000637B603B6843F400233B603B6843F4EA
:1026400000133B60354B00225A64344B394A1A64FC
:10265000BB6843F08053BB607B6843F000537B60F2
:102660003B6843F480033B603B6843F080733B600E
:102670002A4A3B68D362294B1A682849BB6813432E
:102680000B6000BF254B1A687B6813407A689A423A
:10269000F8D1224B48229A61204B4FF48862DA61CC
:1026A0001E4B40221A621D4B4FF48032DA641B4BE2
:1026B000214A1A65194B4FF4E0025A65174B4FF443
:1026C00080329A651D4B32221A6000BF1B4B1B687B
:1026D00003F00F03022BF9D1104B1B690F4A43F093
:1026E0000303136100BF0D4B1B6903F03803182B64
:1026F000F9D101214FF00050FFF752FE01214FF0B8
:102700008040FFF74DFE01214FF00040FFF748FEEB
:1027100000BF1037BD4680BD0881005100440258FB
:102720000000FF0100081008424040008F0309012B
:10273000F412010B8F06050F40000010002000521C
:1027400080B483B000AF30237B607B6883F3118853
:1027500000BF00BF00BF00BF0C37BD4680BC704744
:1027600080B483B000AF00237B607B6883F3118863
:1027700000BF00BF00BF00BF0C37BD4680BC704724
:1027800080B500AFFFF7DCFF00BF80BD80B500AFB4
:10279000FFF7E6FF00BF80BD80B582B000AF786074
:1027A00039603968786803F055FF00BF0837BD46C7
:1027B00080BD000080B483B000AF78600C4BD3F8CC
:1027C00080200B497B681343C1F88030084BD3F855
:1027D00080207B68DB4306491340C1F88030044BFE
:1027E000D3F8803000BF0C37BD4680BC704700BFB7
:1027F0000044025880B483B000AF78600B46FB7091
:10280000124BD3F8D82011497B681343C1F8D83054
:10281000FB78002B08D00D4BD3F800210B497B68C7
:102820001343C1F8003108E0084BD3F800217B685E
:10283000DB4306491340C1F80031044BD3F80031A3
:1028400000BF0C37BD4680BC704700BF0044025833
:1028500080B483B000AF78600C4BD3F8D8207B688D
:10286000DB430A491340C1F8D830084BD3F80021A4
:102870007B68DB4305491340C1F80031034BD3F8B3
:10288000003100BF0C37BD4680BC70470044025881
:1028900080B582B000AF78607868FFF78BFF00BF2B
:1028A0000837BD4680BD80B483B000AF78607B68D8
:1028B0009B6A9B6803F00403002B0FD07B689B6A24
:1028C0009A687B689B6A42F010029A6000BF7B683E
:1028D0009B6A9B6803F01003002BF8D17B689B6A0E
:1028E0000022DA6100BF0C37BD4680BC704780B55E
:1028F00084B000AF786039607B681B69002B59D0C9
:102900000023FB603B6803F01003002B07D07B68BB
:102910001B78032B03D1FB6843F00203FB603B6889
:1029200003F08003002B03D0FB6843F00403FB603B
:102930003B6803F48073002B03D0FB6843F008036B
:10294000FB603B6803F40073002B03D0FB6843F08B
:102950001003FB60FB68002B2CD0786800F07AF83D
:102960007B681B69DB68002B13D07B6805221A701B
:102970007B681B69DB68F968786898477B681B7817
:10298000052B0CD17B6802221A707B6800221A6129
:1029900005E07B6802221A707B6800221A61FFF74B
:1029A000EFFE7B6814334FF0FF311846FFF7F4FE5B
:1029B000FFF7ECFE00BF1037BD4680BD80B582B08A
:1029C00000AF0B4802F058FE0A4B1B687B60094AB7
:1029D0007B68136079680848FFF789FF044802F0B4
:1029E00085FE04F021F900BF0837BD4680BD00BF59
:1029F000F86D0008002002400800002480B500AFF8
:102A00001048FEF70DFA0F4B0F4ADA620D4B0F4AD2
:102A10009A620C4B00221A630A4B0D4A5A63052135
:102A20001220FFF75BF901212020FFF7E3FE2020B1
:102A3000FFF72EFF044B00229A602020FFF708FFCB
:102A400000BF80BD08000024002302400020024097
:102A5000162C020080B582B000AF78607B68134A04
:102A600093421BD17B681B6B1B681A687B681B6BCE
:102A70001B6822F01F021A607B681B6B1B681B68B7
:102A800003F00103002BF7D17B681B6B1B7B1946FE
:102A90007B681B6B5B683D228A401A607868FFF791
:102AA00002FF00BF0837BD4680BD00BF08000024FC
:102AB00080B582B000AF0F4802F0DEFD0E4B1B6800
:102AC00003F03D037B600C4A7B6893600B4B5B68B3
:102AD000002B06D0094B5B68084A9268796810465B
:102AE0009847044802F002FE04F09EF800BF083741
:102AF000BD4680BD046F0008000002404000002475
:102B000080B582B000AF104802F0B6FD0F4B1B68D5
:102B10009B0903F03D037B600C4A7B689B0193603B
:102B20000B4BDB68002B06D0094BDB68084A1269A7
:102B3000796810469847044802F0D8FD04F074F80C
:102B400000BF0837BD4680BD106F0008000002407E
:102B50004000002480B582B000AF104802F08CFD28
:102B60000F4B1B681B0C03F03D037B600C4A7B681A
:102B70001B0493600B4B5B69002B06D0094B5B6910
:102B8000084A9269796810469847044802F0AEFDF9
:102B900004F04AF800BF0837BD4680BD1C6F00082E
:102BA000000002404000002480B582B000AF104811
:102BB00002F062FD0F4B1B689B0D03F03D037B6031
:102BC0000C4A7B689B0593600B4BDB69002B06D09E
:102BD000094BDB69084A126A79681046984704482D
:102BE00002F084FD04F020F800BF0837BD4680BD28
:102BF000286F0008000002404000002480B582B029
:102C000000AF0F4802F038FD0E4B5B6803F03D0348
:102C10007B600C4A7B68D3600B4B5B6A002B06D051
:102C2000094B5B6A084A926A7968104698470448DB
:102C300002F05CFD03F0F8FF00BF0837BD4680BD21
:102C4000346F0008000002404000002480B582B0CC
:102C500000AF104802F010FD0F4B5B689B0903F0BA
:102C60003D037B600C4A7B689B01D3600B4BDB6AA6
:102C7000002B06D0094BDB6A084A126B79681046B4
:102C80009847044802F032FD03F0CEFF00BF08373A
:102C9000BD4680BD406F0008000002404000002497
:102CA00080B582B000AF104802F0E6FC0F4B5B68C5
:102CB0001B0C03F03D037B600C4A7B681B04D36054
:102CC0000B4B5B6B002B06D0094B5B6B084A926B7E
:102CD000796810469847044802F008FD03F0A4FF05
:102CE00000BF0837BD4680BD4C6F000800000240A1
:102CF0004000002480B582B000AF104802F0BCFC58
:102D00000F4B5B689B0D03F03D037B600C4A7B68B7
:102D10009B05D3600B4BDB6B002B06D0094BDB6BA9
:102D2000084A126C796810469847044802F0DEFCA5
:102D300003F07AFF00BF0837BD4680BD586F00081A
:102D4000000002404000002480B582B000AF0F4870
:102D500002F092FC0E4B1B6803F03D037B600C4AB3
:102D60007B6893600B4B5B6C002B06D0094B5B6C54
:102D7000084A926C796810469847044802F0B6FCFD
:102D800003F052FF00BF0837BD4680BD646F0008E6
:102D9000000402404000002480B582B000AF10481B
:102DA00002F06AFC0F4B1B689B0903F03D037B603C
:102DB0000C4A7B689B0193600B4BDB6C002B06D0AD
:102DC000094BDB6C084A126D796810469847044835
:102DD00002F08CFC03F028FF00BF0837BD4680BD21
:102DE000706F0008000402404000002480B582B0EB
:102DF00000AF104802F040FC0F4B1B681B0C03F0A7
:102E00003D037B600C4A7B681B0493600B4B5B6D3E
:102E1000002B06D0094B5B6D084A926D796810460D
:102E20009847044802F062FC03F0FEFE00BF08373A
:102E3000BD4680BD7C6F00080004024040000024B5
:102E400080B582B000AF104802F016FC0F4B1B6833
:102E50009B0D03F03D037B600C4A7B689B059360F0
:102E60000B4BDB6D002B06D0094BDB6D084A126E55
:102E7000796810469847044802F038FC03F0D4FE05
:102E800000BF0837BD4680BD886F000800040240BF
:102E90004000002480B582B000AF0F4802F0ECFB88
:102EA0000E4B5B6803F03D037B600C4A7B68D3608C
:102EB0000B4B5B6E002B06D0094B5B6E084A926E83
:102EC000796810469847044802F010FC03F0ACFE05
:102ED00000BF0837BD4680BD946F00080004024063
:102EE0004000002480B582B000AF104802F0C4FB5F
:102EF0000F4B5B689B0903F03D037B600C4A7B68CA
:102F00009B01D3600B4BDB6E002B06D0094BDB6EB5
:102F1000084A126F796810469847044802F0E6FBA9
:102F200003F082FE00BF0837BD4680BDA06F0008D9
:102F3000000402404000002480B582B000AF104879
:102F400002F09AFB0F4B5B681B0C03F03D037B60A8
:102F50000C4A7B681B04D3600B4B5B6F002B06D0C5
:102F6000094B5B6F084A926F79681046984704488E
:102F700002F0BCFB03F058FE00BF0837BD4680BD21
:102F8000AC6F0008000402404000002480B582B00D
:102F900000AF114802F070FB104B5B689B0D03F013
:102FA0003D037B600D4A7B689B05D3600C4BDB6F58
:102FB000002B07D00A4BDB6F094AD2F880207968D2
:102FC00010469847044802F091FB03F02DFE00BF25
:102FD0000837BD4680BD00BFB86F0008000402403E
:102FE0004000002480B483B000AF174B00221A6069
:102FF00000237B600FE0154A7B681B0113441B68AC
:1030000000221A60104A7B68DB00134400225A60D9
:103010007B6801337B607B680F2BECD90C4B4FF046
:10302000FF329A600A4B4FF0FF32DA60094B4FF0E3
:10303000FF329A60074B4FF0FF32DA6000BF0C3767
:10304000BD4680BC704700BF40000024046E0008ED
:10305000000002400004024080B400AF00BFBD4643
:1030600080BC704780B483B000AF30237B607B6846
:1030700083F3118800BF00BF00BF00BF0C37BD46FF
:1030800080BC704780B483B000AF00237B607B6856
:1030900083F3118800BF00BF00BF00BF0C37BD46DF
:1030A00080BC704780B500AFFFF7DCFF00BF80BD7C
:1030B00080B500AFFFF7E6FF00BF80BD80B582B0EE
:1030C00000AF786039603968786803F0C3FA00BFF0
:1030D0000837BD4680BD80B483B000AF78607B68A0
:1030E0001B6B1B685B6818460C37BD4680BC70477D
:1030F00080B483B000AF78607B685B6B1B685B68F3
:1031000018460C37BD4680BC704780B483B000AF12
:1031100078607B681B6B1B681A687B681B6B1B687D
:1031200042F001021A6000BF0C37BD4680BC7047F8
:1031300080B483B000AF78607B681B6B1B681A6833
:103140007B681B6B1B6822F01F021A607B681B6B7D
:103150001B681B6803F00103002BF7D17B681B6B16
:103160001B7B19467B681B6B5B683D228A401A609B
:1031700000BF0C37BD4680BC704780B483B000AF41
:1031800078607B685B6B1B681A687B685B6B1B688D
:1031900022F01F021A607B685B6B1B681B6803F0E0
:1031A0000103002BF7D17B685B6B1B7B19467B68A7
:1031B0005B6B5B683D228A401A6000BF0C37BD46DE
:1031C00080BC704780B586B000AF78607B689B6B31
:1031D000FB607868FFF77FFF38613B69FF2B05D9FB
:1031E000FF233B614FF080737B6101E000237B6133
:1031F000FB685A68094B13407A68526892681A4310
:103200003B691B041A437B69134343F48062FB68E8
:103210005A6000BF1837BD4680BD00BFFFFF00FEEB
:1032200080B586B000AF78607B689B6BFB60786888
:10323000FFF75EFF38613B69FF2B05D9FF233B6138
:103240004FF080737B6101E000237B61FB685A686B
:10325000084B13407A68526892681A433B691B0412
:103260001A437B691A43FB685A6000BF1837BD4692
:1032700080BD00BFFFFF00FE80B584B000AF786066
:1032800039607B689B6BFB603B6803F01003002B8D
:1032900023D07868FFF74CFF7868FFF76EFF7B68F4
:1032A0009B6843F004027B689A60FB685B6843F4A8
:1032B0008042FB685A60FB681B6823F04602FB688B
:1032C0001A60FFF7EFFE7B681C336FF001011846B0
:1032D000FFF7F4FEFFF7ECFE4BE03B6803F08003E2
:1032E000002B0BD07B681B78032B03D17868FFF78A
:1032F00097FF3EE07868FFF765FF3AE03B6803F030
:103300004003002B35D07B681B78032B18D17868DD
:10331000FFF733FF7868FFF7DEFE0346002B12D07D
:103320007868FFF74FFF7868FFF7EFFEFB685B6890
:1033300043F40052FB685A607B6804221A7018E05C
:103340007868FFF7F5FEFB685B6843F48042FB6832
:103350005A60FB681B6823F04002FB681A60FFF7A5
:10336000A1FE7B681C3300211846FFF7A7FEFFF77C
:103370009FFE1037BD4680BD80B582B000AF78603B
:1033800039607868FFF7D4FE7868FFF7F6FE3B688F
:1033900003F48073002B05D07B689B6843F0010227
:1033A0007B689A603B6803F40073002B05D07B6850
:1033B0009B6843F002027B689A603B6803F4806379
:1033C000002B05D07B689B6843F008027B689A60FD
:1033D0003B6803F48053002B05D07B689B6843F067
:1033E00020027B689A607B689B68002B0AD0FFF7FD
:1033F00059FE7B681C336FF001011846FFF75EFE33
:10340000FFF756FE00BF0837BD4680BD80B582B0CD
:1034100000AF0D4B9B6B9B697B600C4802F02CF955
:10342000094B9B6B7A6802F0FE02DA617968064804
:10343000FFF722FF054802F059F903F0F5FB00BF42
:103440000837BD4680BD00BFC4000024C46F00081B
:1034500080B582B000AF0D4B9B6B9B697B600C48C5
:1034600002F00AF9094B9B6B7A6802F47C52DA612C
:1034700079680648FFF780FF054802F037F903F046
:10348000D3FB00BF0837BD4680BD00BFC400002489
:10349000D06F000880B500AF0C48FDF706FD0B4B60
:1034A0000022DA61094B0A4A9A63084B00221A6328
:1034B000064B00225A6305212120FEF70FFC05214F
:1034C0002220FEF70BFC00BF80BD00BFC40000241B
:1034D0000058004080B483B000AF30237B607B682D
:1034E00083F3118800BF00BF00BF00BF0C37BD468B
:1034F00080BC704780B483B000AF00237B607B68E2
:1035000083F3118800BF00BF00BF00BF0C37BD466A
:1035100080BC704780B500AFFFF7DCFF00BF80BD07
:1035200080B500AFFFF7E6FF00BF80BD80B582B079
:1035300000AF7860786801F095FF00BF0837BD469E
:1035400080BD80B485B000AF78607B68D3F89030E0
:10355000BB600023FB6040E0BA68FB6848335B0156
:1035600013441B68002B0DDABA68FB6848335B0113
:1035700013441B6843F08042B968FB6848335B0121
:103580000B441A60BA68FB6858335B0113441B682C
:10359000002B0DDABA68FB6858335B0113441B68D3
:1035A00043F08042B968FB6858335B010B441A60F2
:1035B000BA68FB685B01134403F608134FF0FF324F
:1035C0001A60BA68FB685B01134403F608334FF0D6
:1035D000FF321A60FB680133FB607B68D3F89430DC
:1035E0009B68FA689A42B7D9BB684FF00112C3F8DA
:1035F0001C2800BF1437BD4680BC704780B485B01E
:1036000000AF78607B68D3F89030BB600023FB602C
:103610002BE07A68FB6802339B0013445B689B696C
:10362000002B0BD0BB68D3F81C28FB68103301219A
:1036300001FA03F31A43BB68C3F81C287A68FB68D5
:1036400002339B0013445B685B69002B0AD0BB68A4
:10365000D3F81C280121FB6801FA03F31A43BB6865
:10366000C3F81C28FB680133FB607B68D3F89430F7
:103670009B68FA689A42CCD900BF00BF1437BD4698
:1036800080BC704780B584B000AF78607B68D3F8A9
:103690009030FB60FB6810221A6100BFFB681B6959
:1036A00003F01003002BF9D11220FFF73FFF00BFFA
:1036B0001037BD4680BD80B584B000AF78603960FA
:1036C0007B68D3F89030FB603B689B0143F020029D
:1036D000FB681A6100BFFB681B6903F02003002B25
:1036E000F9D11220FFF722FF00BF1037BD4680BD81
:1036F00080B483B000AF78607B68D3F894301A68E8
:103700007B68C3F8982000BF0C37BD4680BC70476B
:1037100080B485B000AF786039607B68D3F89830AA
:10372000FB607B68D3F898203B681A447B68C3F839
:103730009820FB6818461437BD4680BC704780B49B
:1037400085B000AFF860B9607A60BB681A68FB6842
:103750001A607B68042B06D97B68043B7B60BB68DE
:103760000433BB60F1E700BF00BF1437BD4680BC27
:10377000704780B487B000AFF860B9607A603B6092
:1037800000237B6100233B6117E03B6903F00303E7
:10379000002B02D1FB681B687B613A693B689A4247
:1037A00008D2BB685A1CBA607A69D2B21A707B69B7
:1037B0001B0A7B613B6901333B613A697B689A4232
:1037C000E3D300BF00BF1C37BD4680BC704780B547
:1037D00086B000AF78607B68D3F890301B6A7B615D
:1037E0007B691B09C3F30A033B617B6903F00F0389
:1037F000FB607B6903F4F013B3F5402F1BD0B3F5E6
:10380000402F00F29A80B3F5002F00F09880B3F5B6
:10381000002F00F29280B3F5C02F00F09280B3F534
:10382000C02F00F28A80B3F5003F00F08C80B3F522
:10383000802F11D081E07B68D3F8903003F5805061
:103840007A68FB6802339B0013445B68196A08239B
:103850003A69FFF78EFF77E07A68FB6802339B00D6
:1038600013445B689B691A687968FB6802339B00A4
:103870000B445B689B695B68D31ABB607B68D3F8B9
:10388000903003F580507A68FB6802339B00134444
:103890005B689B699968BB683A69FFF76AFF3A6998
:1038A000BB689A4224D27A68FB6802339B001344B7
:1038B0005B689B6999687A68FB6802339B001344D4
:1038C0005B689B693A690A449A607A68FB680233CC
:1038D0009B0013445B689B6959687A68FB680233F4
:1038E0009B0013445B689B693A690A445A602BE069
:1038F0007A68FB6802339B0013445B689B69996894
:103900007A68FB6802339B0013445B689B69BA6862
:103910000A449A607A68FB6802339B0013445B6830
:103920009B6959687A68FB6802339B0013445B68A3
:103930009B69BA680A445A6006E000BF04E000BF11
:1039400002E000BF00E000BF00BF1837BD4680BDE9
:1039500080B584B000AF78600B46FB70FB787A6866
:1039600002339B0013445B685B695A68FB78796893
:1039700002339B000B445B685B691B689A4211D35E
:103980007B68D3F89030D3F83418FB78012202FA20
:1039900003F3DA437B68D3F890300A40C3F8342845
:1039A00001236CE0FB787A6802339B0013445B6868
:1039B0005B691A68FB78796802339B000B445B688B
:1039C0005B695B68D31AFB60FB787A6802339B0003
:1039D00013445B681B8A1A46FB68934207D9FB783D
:1039E0007A6802339B0013445B681B8AFB607B6828
:1039F000D3F89020FB785B01134403F618131B687F
:103A00009BB29B00FA689A4201D9002337E07B6899
:103A1000D3F89020FB7801331B03D018FB787A6829
:103A200002339B0013445B685B699B68FA68194624
:103A3000FFF785FEFB787A6802339B0013445B68CE
:103A40005B699968FB787A6802339B0013445B6872
:103A50005B69FA680A449A60FB787A6802339B00D3
:103A600013445B685B695968FB787A6802339B0092
:103A700013445B685B69FA680A445A606EE718464B
:103A80001037BD4680BD80B586B000AF78600B466C
:103A9000FB707B68D3F890307B61FB787A695B01BF
:103AA000134403F608131B683B61FB787A695B01DA
:103AB000134403F608133A691A603B6903F00103E3
:103AC000002B4BD07B69D3F8103803F00103002B97
:103AD00044D0FB787A6802339B0013445B685B69CF
:103AE000FB60FB681A68FB68DB689A4213D2FB68CC
:103AF000DA68FB681B68D21AFB681A60FB68002250
:103B00005A60FFF707FDFB781946786800F0E8FC7B
:103B1000FFF706FD22E07B681B891AB2FB780121C2
:103B200001FA03F31BB2DB431BB213401BB29AB280
:103B30007B681A81FB787A6802339B0013445B68C8
:103B40009B68002B0AD0FB787A6802339B001344F1
:103B50005B689B68FA781146786898473B6903F080
:103B60008003002B0ED07B69D3F83428FB78012129
:103B700001FA03F31340002B04D0FB781946786850
:103B8000FFF7E6FE00BF1837BD4680BD80B586B0A2
:103B900000AF78600B46FB707B68D3F890307B6198
:103BA000FB787A695B01134403F608331B683B61B9
:103BB000FB787A695B01134403F608333A691A60AB
:103BC0003B6903F00803002B11D07B69D3F814384C
:103BD00003F00803002B0AD0FB787A6802339B00BD
:103BE00013445B685B68FA781146786898473B69CC
:103BF00003F00103002B5ED07B69D3F8143803F087
:103C00000103002B57D0FB787A6802339B001344E2
:103C10005B689B69FB60FB78002B29D1FB685A68C5
:103C2000FB78796802339B000B445B685B8AB2FBCC
:103C3000F3F101FB03F3D31A002B19D1FB681A68C7
:103C4000FB68DB689A4213D2FB68DA68FB681B6882
:103C5000D21AFB681A60FB6800225A60FFF75AFC10
:103C6000FB781946786800F09CFBFFF759FC22E0CE
:103C70007B685B891AB2FB78012101FA03F31BB25E
:103C8000DB431BB213401BB29AB27B685A81FB78AC
:103C90007A6802339B0013445B68DB68002B0AD010
:103CA000FB787A6802339B0013445B68DB68FA7820
:103CB0001146786898471837BD4680BD80B584B0F6
:103CC00000AF78607B68D3F89030BB600023FB7353
:103CD00054E0FB7BBA6848335B0113441B6803F470
:103CE0004023B3F5802F46D1FB7BBA6848335B0194
:103CF00013441B68002B3EDAFB7BBA6848335B0138
:103D000013441A68FB7B42F09042B96848335B0168
:103D10000B441A6000BFFB7BBA6848335B01134455
:103D20001B68002BF7DBFB7B19467868FFF7C3FCA9
:103D30007B681B891AB2FB7B012101FA03F31BB2DA
:103D4000DB431BB213401BB29AB27B681A81FB7B28
:103D50007A6802339B0013445B689B68002B0AD08F
:103D6000FB7B7A6802339B0013445B689B68FA7B99
:103D7000114678689847FB7B0133FB73FA7B7B68BD
:103D8000D3F894309B689A42A3D900BF00BF103784
:103D9000BD4680BD80B584B000AF78607B68D3F845
:103DA0009030BB600023FB7338E0FB7BBA6858336C
:103DB0005B0113441B6803F44023B3F5802F2AD121
:103DC000FB7BBA6858335B0113441B68002B22DA73
:103DD0007B685B891AB2FB7B012101FA03F31BB2FA
:103DE000DB431BB213401BB29AB27B685A81FB7B48
:103DF0007A6802339B0013445B68DB68002B0AD0AF
:103E0000FB7B7A6802339B0013445B68DB68FA7BB8
:103E1000114678689847FB7B0133FB73FA7B7B681C
:103E2000D3F894309B689A42BFD900BF00BF1037C7
:103E3000BD4680BD80B586B000AF78607B68D3F8A2
:103E400090303B6140237B613B695B69FB603B6970
:103E50009B69FA681340FB603B69FA685A61FB682A
:103E600003F48053002B03D07868FDF7CEFC47E1C4
:103E7000FB68002B1CDA3B69D3F8003E03F0030318
:103E8000002B07D03B69D3F8003E23F003023B69C7
:103E9000C3F8002E7868FFF7B1FB3B69D3F804380C
:103EA00023F001023B69C3F804287868FDF711FD8F
:103EB000FB6803F40063002B05D07868FFF741FB33
:103EC0007868FDF7E1FCFB6803F40053002B17D082
:103ED0003B69D3F8083803F00603002B08D13B698F
:103EE000DB6823F4705343F410523B69DA6007E057
:103EF0003B69DB6823F4705343F4A0523B69DA60FA
:103F0000FB6803F00803002B26D07B685B68DB6846
:103F1000002B05D13B699B6923F008023B699A613C
:103F20007B681B78052B0AD13B69D3F8003E23F050
:103F300003023B69C3F8002E7868FDF7CAFC786875
:103F4000FFF75CFB7B685B68DB68002B04D07B6859
:103F50005B68DB6878689847FB6803F48013002B84
:103F600002D07868FFF7AAFEFB6803F40013002B69
:103F700002D07868FFF70EFF3B69D3F81838BB60B2
:103F8000FB6803F40023002B50D0BB6803F480339C
:103F9000002B03D000217868FFF7F8FDBB6803F41D
:103FA0000033002B03D001217868FFF7EFFDBB68D9
:103FB00003F48023002B03D002217868FFF7E6FD8D
:103FC000BB6803F40023002B03D003217868FFF7BC
:103FD000DDFDBB6803F48013002B03D00421786857
:103FE000FFF7D4FDBB6803F40013002B03D00521B9
:103FF0007868FFF7CBFDBB6803F48003002B03D088
:1040000006217868FFF7C2FDBB6803F40003002BAC
:1040100003D007217868FFF7B9FDBB6803F0807310
:10402000002B03D008217868FFF7B0FDFB6803F48C
:104030008023002B50D0BB6803F00103002B03D07A
:1040400000217868FFF71FFDBB6803F00203002B17
:1040500003D001217868FFF716FDBB6803F0040365
:10406000002B03D002217868FFF70DFDBB6803F039
:104070000803002B03D003217868FFF704FDBB6819
:1040800003F01003002B03D004217868FFF7FBFC3A
:10409000BB6803F02003002B03D005217868FFF7ED
:1040A000F2FCBB6803F04003002B03D006217868C4
:1040B000FFF7E9FCBB6803F08003002B03D0072166
:1040C0007868FFF7E0FCBB6803F48073002B03D033
:1040D00008217868FFF7D7FCFB6803F01003002B7A
:1040E00002D07868FFF773FBFA68074B1340002B88
:1040F00006D07B69013B7B617B69002B00D0A3E686
:104100001837BD4680BD00BF3000000480B500AF49
:10411000064801F0B1FA0648FFF78CFE034801F0AB
:10412000E5FA02F081FD00BF80BD00BF0C70000801
:104130000001002480B500AF0648FDF7B9FA054B31
:10414000054AC3F89020034B044AC3F8942000BFEB
:1041500080BD00BF0001002400000840007000087E
:1041600090B585B000AF78607B68D3F89030BB60C5
:1041700000217868FFF79FFABB680022C3F8342853
:10418000BB684FF00112C3F81C280023FB6024E039
:10419000BA68FB6848335B0113444FF000621A6051
:1041A000BA68FB6858335B0113444FF000621A6031
:1041B000BA68FB685B01134403F608134FF0FF3243
:1041C0001A60BA68FB685B01134403F608334FF0CA
:1041D000FF321A60FB680133FB607B68D3F89430D0
:1041E0009B68FA689A42D3D97868FFF781FA7B68AE
:1041F000D3F894301A68BB685A627868FFF742FABD
:10420000BB68D3F8003823F4FE62BB68C3F800280B
:10421000BB689A691D4B1343BA689361BB68092256
:10422000C3F81028BB680922C3F814287B68184A11
:10423000DA60BB684FF0C042C3F8102B40231A4627
:10424000144B1343BA68C2F8003BBB680022C3F8A2
:10425000102940231A460F4B1343BA68C2F800399D
:1042600040239B089BB21B041C4640239B089BB227
:1042700019467868FFF74CFA034644EA0302BB6824
:104280009A6200BF1437BD4690BD00BF10000C00FD
:10429000DC6F00080080001080B485B000AF78604B
:1042A0007B68D3F89030FB60FB68D3F8003823F4C8
:1042B000FE637A6892F88A2012011A43FB68C3F8F9
:1042C000002800BF1437BD4680BC704780B582B05F
:1042D00000AF78607868FFF70BFA7868FFF731F97C
:1042E00000BF0837BD4680BD80B485B000AF7860A0
:1042F0000B46FB707B68D3F89020FB7858335B014A
:1043000013441B68FB60FB6803F40043002B01D1DE
:10431000002307E0FB6803F40013002B01D0012306
:1043200000E0022318461437BD4680BC704780B4B5
:1043300085B000AF78600B46FB707B68D3F89020A7
:10434000FB7848335B0113441B68FB60FB6803F494
:104350000043002B01D1002307E0FB6803F40013A6
:10436000002B01D0012300E0022318461437BD467C
:1043700080BC704780B584B000AFF8600B467A60AF
:10438000FB72FB7AFA6802339B0013445B681B6A7A
:10439000082219467868FCF729F800BF1037BD4697
:1043A00080BD80B487B000AF78600B46FB70FB78AF
:1043B0007A6802339B0013445B689B697B617B696D
:1043C0001A687B69DA60FB78002B06D17B691B6871
:1043D000402B02D97B6940221A607B691A68FB78FE
:1043E000796802339B000B445B685B8A13445A1E56
:1043F000FB78796802339B000B445B685B8AB2FBF5
:10440000F3F33B61FB787A6802339B0013445B68EB
:104410005B8A1A463B6902FB03F3033323F0030371
:10442000FB603B69DA04FB681A437B68D3F89010A1
:10443000FB7842F0C0425B010B4403F531631A6024
:10444000FB787A6802339B0013445B681B6803F0B7
:104450000303012B2DD17B68D3F89030D3F80838B3
:1044600003F48073002B12D07B68D3F89020FB7884
:1044700058335B0113441A687B68D3F89010FB78BB
:1044800042F0805258335B010B441A6011E07B68A4
:10449000D3F89020FB7858335B0113441A687B688B
:1044A000D3F89010FB7842F0005258335B010B4474
:1044B0001A607B68D3F89020FB7858335B01134473
:1044C0001A687B68D3F89010FB7842F004425833A6
:1044D0005B010B441A6000BF1C37BD4680BC7047AF
:1044E00080B485B000AF78600B46FB70FB787A68CB
:1044F00002339B0013445B685B69FB60FB681A68CE
:10450000FB68DA60FB681B68002B0BD17B68D3F873
:104510009020FB785B01134403F511634FF40022F4
:104520001A602EE0FB78002B06D1FB681B68402B3D
:1045300002D9FB6840221A60FB681A68FB78796828
:1045400002339B000B445B681B8A13445A1EFB78A2
:10455000796802339B000B445B681B8AB2FBF3F360
:10456000BB60BB68DA04FB681B681A437B68D3F83E
:104570009010FB7842F000525B010B4403F511638D
:104580001A60FB787A6802339B0013445B681B68EF
:1045900003F00303012B2DD17B68D3F89030D3F8BF
:1045A000083803F48073002B12D07B68D3F8902076
:1045B000FB7848335B0113441A687B68D3F890108A
:1045C000FB7842F0805248335B010B441A6011E0E3
:1045D0007B68D3F89020FB7848335B0113441A685A
:1045E0007B68D3F89010FB7842F0005248335B01AF
:1045F0000B441A607B68D3F89020FB7848335B014A
:1046000013441A687B68D3F89010FB7842F0044298
:1046100048335B010B441A607B68D3F89030D3F8C1
:104620003418FB7801229A407B68D3F890300A4313
:10463000C3F8342800BF1437BD4680BC704780B42F
:1046400083B000AF78600B46FB707B68D3F8902096
:10465000FB7858335B0113441A687B68D3F89010D9
:10466000FB7842F4001258335B010B441A6000BF20
:104670000C37BD4680BC704780B483B000AF786013
:104680000B46FB707B68D3F89020FB7848335B01C6
:1046900013441A687B68D3F89010FB7842F4001238
:1046A00048335B010B441A6000BF0C37BD4680BC29
:1046B000704780B483B000AF78600B46FB707B68B6
:1046C000D3F89020FB7858335B0113441A687B6859
:1046D000D3F89010FB7822F4001258335B010B449E
:1046E0001A6000BF0C37BD4680BC704780B483B0F1
:1046F00000AF78600B46FB707B68D3F89020FB78A6
:1047000048335B0113441A687B68D3F89010FB7838
:1047100022F4001248335B010B441A6000BF0C37CF
:10472000BD4680BC704780B483B000AF30237B604F
:104730007B6883F3118800BF00BF00BF00BF0C3748
:10474000BD4680BC704780B483B000AF00237B605F
:104750007B6883F3118800BF00BF00BF00BF0C3728
:10476000BD4680BC704780B500AFFFF7DCFF00BFDF
:1047700080BD80B500AFFFF7E6FF00BF80BD80B50C
:1047800082B000AF786039603968786801F062FF04
:1047900000BF0837BD4680BD80B483B000AF7860ED
:1047A0000C4BD3F890200B497B681343C1F8903031
:1047B000084BD3F890207B68DB4306491340C1F8CF
:1047C0009030044BD3F8903000BF0C37BD4680BC0E
:1047D000704700BF0044025880B582B000AF7860D7
:1047E0007868FFF7D9FF00BF0837BD4680BD0000DD
:1047F00080B483B000AF78607B68DB6900221A6008
:104800007B68DB6900225A607B68DB6940221A61A1
:104810007B68DB694FF0FF329A617B685B685A699D
:10482000144B13407A68D26943F4404393607B6829
:104830005B685B78002B08D07B685B689A697B6853
:10484000DB6922F4C022DA6009E07B685B689A6960
:10485000094B13407A68D26943F00153D3607B68F7
:10486000DB6940F201121A6000BF0C37BD4680BC04
:10487000704700BF1F3EFFFFFFFFB9DF80B582B06A
:1048800000AF78607B685B6A1B681A687B685B6A4C
:104890001B6822F01F021A607B685B6A1B681B683A
:1048A00003F00103002BF7D17B685B6A1B7B194681
:1048B0007B685B6A5B683D228A401A607B681B6A82
:1048C0001B681A687B681B6A1B6822F01F021A604B
:1048D0007B681B6A1B681B6803F00103002BF7D180
:1048E0007B681B6A1B7B19467B681B6A5B683D22E1
:1048F0008A401A607B68074A934203D14FF4804094
:10490000FFF76AFF7868FFF773FF00BF0837BD46FF
:1049100080BD00BFB401002480B584B000AF7860D2
:104920007B68DB695A697B68DB691B691340FB6044
:104930007B68DB69FA689A61FB6803F04003002B2F
:1049400017D07868FFF79AFF7B685B689B68002B3D
:1049500004D07B685B689B6878689847FFF703FF23
:104960007B6808336FF012011846FFF708FFFFF766
:1049700000FF00BF1037BD4680BD000080B500AF0E
:10498000064800F079FE0648FFF7C6FF034800F02E
:10499000ADFE02F049F900BF80BD00BF18700008ED
:1049A000B401002480B500AF0B48FCF7FAFB0A4BBA
:1049B0000A4ADA61084B00221A62074B00225A6247
:1049C000054B074A9A62044B064ADA620A21242000
:1049D000FDF784F900BF80BDB40100240038004019
:1049E000160001004600010080B483B000AF302300
:1049F0007B607B6883F3118800BF00BF00BF00BFEE
:104A00000C37BD4680BC704780B483B000AF002334
:104A10007B607B6883F3118800BF00BF00BF00BFCD
:104A20000C37BD4680BC704780B500AFFFF7DCFF98
:104A300000BF80BD80B500AFFFF7E6FF00BF80BDBF
:104A400080B500AF00F0F2FC00BF80BD80B483B041
:104A500000AF78600B46FB70124BD3F8E820114989
:104A60007B681343C1F8E830FB78002B08D00D4B6E
:104A7000D3F810210B497B681343C1F8103108E0CB
:104A8000084BD3F810217B68DB4306491340C1F87B
:104A90001031044BD3F8103100BF0C37BD4680BC39
:104AA000704700BF0044025880B500AF01210120CB
:104AB000FFF7CCFF144BDB6B134A43F00103D363C6
:104AC0004FF0804344F61F629A624FF080434FF0EC
:104AD000FF32DA624FF0804300229A614FF0804348
:104AE00000225A634FF080430022DA604FF0804387
:104AF00000225A604FF0804301225A614FF08043F8
:104B000001221A6000BF80BD0010005C80B582B039
:104B100000AF4FF080437B607B681B693B607B6824
:104B2000DB68DBB23A6813403B603B68DA437B6882
:104B30001A613B6803F00203002B05D0FFF774FFF6
:104B4000FFF77EFFFFF776FF00BF0837BD4680BD49
:104B500080B500AF034B044ADA600248FCF785F9E0
:104B600000BF80BDEC0100240008004080B483B089
:104B700000AF78607B68DB6800221A607B68DB68C6
:104B800000221A617B68DB68DA687B68DB6822F0E8
:104B9000FF02DA6000BF0C37BD4680BC704780B5AD
:104BA00084B000AF78607B68DB681B69FB607B6862
:104BB000DB68DB68DBB2FA681340FB607B68DB68AC
:104BC000FA68D2431A61FB6803F00103002B13D08B
:104BD0007B681B78042B05D17B6802221A707868E9
:104BE000FFF7C4FF7B685B685B68002B04D07B68C1
:104BF0005B685B687868984700BF1037BD4680BD2A
:104C000080B483B000AF30237B607B6883F311886E
:104C100000BF00BF00BF00BF0C37BD4680BC70475F
:104C200080B483B000AF00237B607B6883F311887E
:104C300000BF00BF00BF00BF0C37BD4680BC70473F
:104C400080B500AFFFF7DCFF00BF80BD80B500AFCF
:104C5000FFF7E6FF00BF80BD80B582B000AF78608F
:104C600039603968786801F00EFE00BF0837BD462C
:104C700080BD000080B483B000AF78600B46FB704D
:104C8000124BD3F8E82011497B681343C1F8E83090
:104C9000FB78002B08D00D4BD3F810210B497B6813
:104CA0001343C1F8103108E0084BD3F810217B689A
:104CB000DB4306491340C1F81031044BD3F81031DF
:104CC00000BF0C37BD4680BC704700BF004402588F
:104CD00080B483B000AF78600B46FB70124BD3F802
:104CE000F02011497B681343C1F8F030FB78002BAA
:104CF00008D00D4BD3F818210B497B681343C1F83A
:104D0000183108E0084BD3F818217B68DB430649CB
:104D10001340C1F81831044BD3F8183100BF0C37D9
:104D2000BD4680BC704700BF0044025880B487B0C5
:104D300000AF786039607B685B6D3B617B689B6D21
:104D4000FB603B681B685A08FB681A443B681B6899
:104D5000B2FBF3F37B613B685B6803F40043002B19
:104D600008D07B6923F007035A007B6903F007032F
:104D700013437B613B697A69DA603B689B6843F067
:104D800040023B695A603B68DB6843F001023B69C3
:104D90009A603B685A6840F22D1313433A691360D6
:104DA0003B694FF0FF321A623B685B6803F4806333
:104DB000002B18D03B685B6803F01023002B03D056
:104DC000B3F1805F05D009E07B687F2283F85C2027
:104DD0000EE07B683F2283F85C2009E07B68FF22BD
:104DE00083F85C2004E07B68FF2283F85C20FFE707
:104DF00000BF1C37BD4680BC704780B584B000AF93
:104E0000786039600023FB603B6803F00803002BE7
:104E100003D0FB6843F48073FB603B6803F001033D
:104E2000002B03D0FB6843F02003FB603B6803F0DA
:104E30000203002B03D0FB6843F04003FB603B6898
:104E400003F00403002B03D0FB6843F08003FB60F6
:104E5000FFF7F6FE7B680433F9681846FFF7FCFE9F
:104E6000FFF7F4FE00BF1037BD4680BD80B483B0AD
:104E700000AF7860054B1B68044A43F0C003136021
:104E800000BF0C37BD4680BC704700BF001001401A
:104E900080B483B000AF7860054B1B68044A43F0D0
:104EA000C003136000BF0C37BD4680BC704700BF15
:104EB0000050004080B483B000AF7860054B1B68A1
:104EC000044A43F0C003136000BF0C37BD4680BCEA
:104ED000704700BF0014014080B582B002AF274880
:104EE000FCF7FCF8254B00930023102224492548A9
:104EF000FBF7C1FD214B0093234B1022234924488B
:104F0000FBF79BFE1D4B234A5A651C4B224A9A65B0
:104F10002248FCF7E3F8214B00930023102220499C
:104F20002048FBF7A8FD1D4B00931F4B10221F4983
:104F30001F48FBF782FE194B1E4A5A65174B164A4B
:104F40009A651D48FCF7CAF81B4B009300231022FA
:104F50001A491B48FBF78FFD174B0093194B102282
:104F600019491A48FBF769FE134B194A5A65124B47
:104F7000094A9A6500BFBD4680BD00BFFC01002400
:104F80001C030024080200246D4E00082C0300249A
:104F90002C0200240010014000E1F5055C02002411
:104FA0003C03002468020024914E00084C030024B6
:104FB0008C02002400500040BC0200245C0300244A
:104FC000C8020024B54E00086C030024EC02002443
:104FD0000014014080B582B000AF786039603B6852
:104FE000002B01D1134B3B607B681B7A012B18D13E
:104FF0007B68114A934203D101211020FFF768FE1C
:105000007B680E4A934204D101214FF48010FFF7D0
:1050100031FE7B680A4A934203D101212020FFF729
:1050200057FE39687868FFF781FE00BF0837BD4634
:1050300080BD00BF24700008FC0100245C02002435
:10504000BC02002480B586B000AF78607B685B6DE1
:10505000FB60FB68DB693B61FB683A691A623B698C
:1050600003F00F03002B03D039697868FFF7C5FE02
:105070003B6903F48073002B1ED0FFF7E1FD7B68D2
:1050800004334FF480611846FFF7E6FDFFF7DEFDBD
:1050900012E0FFF7D5FDFB685B6ADAB27B6893F834
:1050A0005C301340DBB219467868FCF744F8FFF730
:1050B000CDFDFB68DB693B613B6903F02003002BFE
:1050C000E7D1FB681B687B617B6903F08003002BE1
:1050D00025D01FE0FFF7B4FD7B6830331846FBF79F
:1050E00012FEB860BB68002B0CDA7B680433082121
:1050F0001846FFF7B1FD7B6923F080037B61FFF762
:10510000A5FD0CE0BA68FB689A62FFF79FFDFB689B
:10511000DB693B613B6903F08003002BDAD17B69DB
:1051200003F04003002B24D03B6903F04003002B25
:105130001FD0FFF785FD7B685A6C7B689B6C9A4299
:1051400005D17B689B6B002B01D0012300E000237D
:1051500003F00103DBB2002B09D07B68043310217C
:105160001846FFF779FD7B6923F040037B61FFF769
:105170006DFDFB687A691A6000BF1837BD4680BDB7
:1051800080B483B000AF78600C4BD3F888200B4913
:105190007B681343C1F88830084BD3F888207B68BC
:1051A000DB4306491340C1F88830044BD3F88830FC
:1051B00000BF0C37BD4680BC704700BF004402589A
:1051C00080B483B000AF78600B46FB70124BD3F80D
:1051D000E02011497B681343C1F8E030FB78002BD5
:1051E00008D00D4BD3F808210B497B681343C1F855
:1051F000083108E0084BD3F808217B68DB430649F7
:105200001340C1F80831044BD3F8083100BF0C3704
:10521000BD4680BC704700BF0044025880B483B0D4
:1052200000AF786039603B685A687B685A603B68B9
:105230009A687B689A603B68DA687B68DA603B68EA
:105240001A697B685A613B685A697B681A623B68D5
:105250009A697B685A623B681A687B681A6000BF6B
:105260000C37BD4680BC704780B500AF40F2FF7080
:10527000FFF786FF012140F2FF70FFF7A1FF1749FA
:105280001748FFF7CBFF17491748FFF7C7FF174924
:105290001748FFF7C3FF17491748FFF7BFFF174924
:1052A0001748FFF7BBFF17491748FFF7B7FF174924
:1052B0001748FFF7B3FF17491748FFF7AFFF174924
:1052C0001748FFF7ABFF17491748FFF7A7FF174924
:1052D0001748FFF7A3FF00BF80BD00BF3470000870
:1052E0000000025850700008000402586C7000085A
:1052F0000008025888700008000C0258A4700008CA
:1053000000100258C070000800140258DC70000839
:1053100000180258F8700008001C025814710008A8
:105320000020025830710008002402584C71000817
:105330000028025880B500AFFFF796FFFDF7F4F89C
:1053400000BF80BD80B400AF00BFBD4680BC7047C9
:1053500080B58AB000AF78607B6800221A6007F1E0
:105360000803184601F001FA04237B6207F10803E1
:10537000184601F017FA07F10803184601F022FA5F
:105380007B6A013B7B627B6A002BEFD1BA687B684A
:105390001A6000BF2837BD4680BD80B483B000AF1F
:1053A00000237B607B6883F3118800BF00BF00BFD0
:1053B0000C37BD4680BC704780B500AF01F0AEFA37
:1053C00001F000FB01F058FB00BF80BD80B582B04A
:1053D00000AF124B01221A7000237B6008E00F4AD5
:1053E0007B689B00134400225A607B6801337B601A
:1053F0007B68002BF3D00A48FFF7AAFFFFF7DCFF1A
:105400000849094800F00EFF044B02221A70FFF70A
:10541000C4FF00BF0837BD4680BD00BF7C03002429
:1054200084030024687100088803002480B500AF5D
:1054300000F0F0FB00BF80BD80B485B000AFF86025
:10544000B9607A60FA68BB68D21A7968BB68CB1A0F
:105450009A4234BF01230023DBB218461437BD46FD
:1054600080BC704780B584B000AF78600B4B5B6840
:10547000FB60FA687B681344BB6000BF074B5B6846
:10548000BA68F9681846FFF7D7FF0346002BF5D135
:1054900000BF00BF1037BD4680BD00BF001000E058
:1054A00080B483B000AF7860054B5A6B7B681343C0
:1054B000034A536300BF0C37BD4680BC704700BF32
:1054C0008803002480B500AFFBF78DF9034618462A
:1054D00080BD80B500AFFFF7F5FF0346184680BDDD
:1054E00090B583B000AF78607B68D3F88C40FFF74D
:1054F000F0FF03466360124B5B687A68D2F88C2039
:1055000023F07F41136861F31F2313607B68D3F896
:105510008C3003F110027B68C3F88C207B68D3F8D1
:105520008C207B6803F509639A4205D37B6803F1FD
:1055300090027B68C3F88C2000BF0C37BD4690BD3D
:10554000001000E080B485B000AF78607B684FF653
:10555000FF721A807B6880225A807B6803F1080200
:105560007B685A600023FB600CE07A68FB681B01D3
:10557000134403F1080213786FF302031370FB68FE
:105580000133FB60FB687F2BEFD900BF00BF1437EE
:10559000BD4680BC7047000080B584B000AF786025
:1055A0003960184BFB60FB68B3F8883003F00103E7
:1055B000002B22D1FB68D3F88C201378012161F3F2
:1055C000020313707B6893F82410FB68D3F88C20D7
:1055D0000B4603F01F03D9B2137861F3C7031370AE
:1055E000FB68D3F88C307A689A60FB68D3F88C300B
:1055F0003A68DA60F868FFF773FF00BF1037BD46FE
:1056000080BD00BF8803002480B584B000AF7860FF
:105610003960184BFB60FB68B3F8883003F0020375
:10562000002B23D1FB68D3F88C201378022161F37F
:10563000020313703B6893F82410FB68D3F88C20A6
:105640000B4603F01F03D9B2137861F3C70313703D
:10565000FB68D3F88C307A689A60FB68D3F88C309A
:105660003A68926ADA60F868FFF73AFF00BF1037CD
:10567000BD4680BD8803002480B586B000AF786049
:10568000194B7B617B69B3F8883003F00403002B6E
:1056900026D13023FB60FB6883F3118800BF00BF75
:1056A00000BF7B69D3F88C201378032161F30203D8
:1056B00013707B69D3F88C2013786FF3C7031370D2
:1056C0007B69D3F88C307A689A607869FFF708FFB5
:1056D00000233B613B6983F3118800BF00BF00BF1B
:1056E00000BF1837BD4680BD8803002480B586B052
:1056F00000AF7860194B7B617B69B3F8883003F0A9
:105700000403002B26D13023FB60FB6883F3118850
:1057100000BF00BF00BF7B69D3F88C201378042141
:1057200061F3020313707B69D3F88C2013786FF355
:10573000C70313707B69D3F88C307A689A607869F4
:10574000FFF7CEFE00233B613B6983F3118800BF66
:1057500000BF00BF00BF1837BD4680BD88030024CE
:1057600080B483B000AF786039607A683B681344D6
:1057700018460C37BD4680BC704780B483B000AF7C
:10578000786039603A687B68D31A18460C37BD4692
:1057900080BC704780B483B000AF78607B681B68C2
:1057A0007A689A420CBF01230023DBB218460C37FB
:1057B000BD4680BC704780B483B000AF786039606C
:1057C0007B681B683A689A420CBF01230023DBB256
:1057D00018460C37BD4680BC704780B485B000AF1A
:1057E000F860B9607A60BB687A689A60BB68FA68EA
:1057F0005A60BB685B681A68BB681A60BB681B6844
:10580000BA685A60FB68BA681A6000BF1437BD46B0
:1058100080BC704780B485B000AFF860B9607A6032
:10582000BB687A689A60BB68FA681A60BB681B68D4
:105830005A68BB685A60BB685B68BA681A60FB68E4
:10584000BA685A6000BF1437BD4680BC704780B547
:1058500086B000AFF860B9607A60FB681B687B6156
:1058600007E07B699B687A68D31A7B607B691B6859
:105870007B617B699B687A689A428CBF0123002315
:10588000DBB2002BEDD17A68B9687869FFF7C2FF07
:105890007B699A687B68D21A7B699A60FB684FF0D3
:1058A000FF329A6000BF1837BD4680BD80B485B016
:1058B00000AF78607B681B68FB60FB681A687B68D8
:1058C0001A607B681B687A685A60FB681846143750
:1058D000BD4680BC704780B483B000AF78607B6801
:1058E0005B687A6812681A607B681B687A6852681D
:1058F0005A607B6818460C37BD4680BC704780B53F
:1059000082B000AF78607868FAF774FF00BF08379C
:10591000BD4680BD80B500AFFAF777FF00BF80BD00
:1059200080B582B000AF78607868FAF774FF00BF86
:105930000837BD4680BD80B500AFFAF754FF034677
:10594000184680BD80B483B000AF30237B607B6895
:1059500083F3118800BF00BF00BF00BF0C37BD46F6
:1059600080BC704780B483B000AF00237B607B684D
:1059700083F3118800BF00BF00BF00BF0C37BD46D6
:1059800080BC704780B500AFFFF7D5FF03461846CF
:1059900080BD80B586B000AF7860396002237B613E
:1059A0003A687B699A4201D27B693B6039687868C2
:1059B000FFF7D6FE03461846FFF7B2FFFFF7E2FFF8
:1059C000386139697868FFF7D8FEF860FA683B6893
:1059D0009A4234BF01230023DBB2002B07D17B693D
:1059E00001337B613B697B607B693B60DEE700BF25
:1059F0007B69022B02D90120FFF752FD00BF183747
:105A0000BD4680BD80B586B000AFF860B9607A60F1
:105A10003B60FB687A68DA60FB68B9683A681846E8
:105A2000FFF7DBFE02237B613A687B699A4201D271
:105A30007B693B60FB68DB6839681846FFF790FEBE
:105A400003461846FFF75BFFFFF79CFF3861396993
:105A50007868FFF792FE02463B6893428CBF0123B1
:105A60000023DBB2002B0FD17B6901337B617969A5
:105A70007868FFF775FE03461846FFF751FF3B694C
:105A80007B607B693B60DFE700BF7B69022B02D94B
:105A90000120FFF705FD00BF1837BD4680BD80B56A
:105AA00088B000AFF860B9607A60FFF76BFFB8614B
:105AB000FB681846FFF76EFE0346002B06D07B6896
:105AC000BA69B968F868FFF79DFF20E0FB68DB68FA
:105AD000B9691846FFF751FE78617A697B6813440B
