:020000040800F2
:1000000000040020D9030008DB030008DB0300081C
:10001000DB030008DB030008DB030008DB03000848
:10002000DB030008DB030008DB030008F191000894
:10003000DB030008DB030008DB030008DB03000828
:10004000DB030008DB030008DB030008DB03000818
:10005000DB030008DB030008DB030008DB03000808
:10006000DB030008DB030008DB0300089D420008F7
:10007000ED4200084143000895430008E9430008A9
:10008000394400088D440008D1370008DB0300081C
:10009000DB030008DB030008DB030008DB030008C8
:1000A000DB030008DB030008DB030008DB030008B8
:1000B000212B0008DB030008DB030008DB0300083A
:1000C000DB030008154F0008594F0008296C000891
:1000D000516C0008392A0008DB030008DB03000824
:1000E000DB030008DB030008DB030008DB03000878
:1000F000DB030008DB030008DB030008E144000821
:1001000085280008DB030008DB030008796C000881
:10011000DB030008952A0008DB030008DB03000866
:100120003545000885450008D94500082D460008DA
:1001300081460008DB030008DB030008DB0300083E
:10014000DB030008DB030008DB030008DB03000817
:10015000D14600082547000879470008DB0300085E
:10016000DB030008DB030008DB030008DB030008F7
:10017000DB030008DB030008DB030008DB030008E7
:10018000DB030008DB030008DB030008DB030008D7
:10019000DB030008A16C0008C96C0008DB03000841
:1001A000DB030008DB030008DB030008DB030008B7
:1001B000DB030008DB030008DB030008DB030008A7
:1001C000DB030008DB030008DB030008DB03000897
:1001D000DB030008155C0008DB030008DB030008F4
:1001E000DB030008DB030008DB030008DB03000877
:1001F000DB030008DB030008DB030008DB03000867
:10020000DB030008DB030008DB030008DB03000856
:10021000DB030008DB030008DB030008DB03000846
:10022000DB030008DB030008DB030008DB03000836
:10023000DB030008DB030008DB03000811380008BB
:10024000DB030008853D0008D53D0008293E000875
:100250007D3E0008D13E0008253F0008793F000898
:10026000CD3F0008DB030008DB030008DB030008C8
:10027000DB030008DB030008DB030008DB030008E6
:10028000DB030008DB030008DB030008DB030008D6
:10029000DB030008DB030008DB030008DB030008C6
:1002A000DB030008DB030008DB030008DB030008B6
:1002B000DB030008DB030008DB030008DB030008A6
:1002C000DB030008DB030008DB030008DB03000896
:1002D000DB030008DB030008DB030008DB03000886
:1003000072B6264880F30888254880F30988254876
:1003100025490860022080F31488BFF36F8F00F036
:100320002BFF07F0BBFA4FF0553020491B4A914292
:100330003CBF41F8040BFAE71D49194A91423CBF02
:1003400041F8040BFAE71B491B4A1C4B9A423EBF7B
:1003500051F8040B42F8040BF8E700201849194A39
:1003600091423CBF41F8040BFAE700F017FF00F0A0
:100370000BFF154C154DAC4203DA54F8041B8847AB
:10038000F9E709F05BF8124C124DAC4203DA54F86D
:10039000041B8847F9E700F0FDBE000000040020C0
:1003A000000800200000000808ED00E00000002028
:1003B00000040020E407010800000024AC0600242B
:1003C000B0060024DC1A0024E0020008E002000865
:1003D000E0020008E002000892E700F000F8FEE703
:1003E0002DE9F04FC1F80CD0D0F80CD0BDE8F08F5B
:1003F000002383F311882846A047002008F0C4FB9F
:10040000FEE708F059F900DFFEE70000844641EA04
:10041000000313F003036DD1403A41D351F8043B7C
:1004200040F8043B51F8043B40F8043B51F8043BCE
:1004300040F8043B51F8043B40F8043B51F8043BBE
:1004400040F8043B51F8043B40F8043B51F8043BAE
:1004500040F8043B51F8043B40F8043B51F8043B9E
:1004600040F8043B51F8043B40F8043B51F8043B8E
:1004700040F8043B51F8043B40F8043B51F8043B7E
:1004800040F8043B51F8043B40F8043B51F8043B6E
:1004900040F8043B51F8043B40F8043B403ABDD2DD
:1004A000303211D351F8043B40F8043B51F8043B7F
:1004B00040F8043B51F8043B40F8043B51F8043B3E
:1004C00040F8043B103AEDD20C3205D351F8043B0E
:1004D00040F8043B043AF9D2043208D0D2071CBFDA
:1004E00011F8013B00F8013B01D30B880380604603
:1004F000704700BF082A13D38B078DD010F0030379
:100500008AD0C3F10403D21ADB071CBF11F8013BE8
:1005100000F8013B80D331F8023B20F8023B7BE737
:10052000043AD9D3013A11F8013B00F8013BF9D262
:100530000B7803704B7843708B78837060467047FC
:1005400001F0FF01102A2BDB10F0070F08D010F884
:10055000013B013A8B422DD010F0070F42B3F6D188
:10056000F0B441EA012141EA014122F007047FF0A1
:1005700000070023F0E80256083C85EA010586EAF8
:10058000010685FA47F5A3FA87F586FA47F6A5FA34
:1005900087F68EB9EED1F0BC01F0FF0102F0070240
:1005A00032B110F8013B013A83EA010313B1F8D1EB
:1005B0000020704701387047002D06BF35460338CC
:1005C000073815F0010F07D1013015F4807F02BF05
:1005D000013015F4C03F0130F0BC0138704700BF56
:1005E000000000000000000000000000000000000B
:1005F00000000000000000000000000000000000FB
:1006000090F800F06DE9024520F007016FF0000C52
:1006100010F0070491F820F040F049804FF00004FA
:100620006FF00700D1E9002391F840F000F10800D5
:1006300082FA4CF2A4FA8CF283FA4CF3A2FA8CF30D
:100640004BBBD1E9022382FA4CF200F10800A4FA74
:100650008CF283FA4CF3A2FA8CF3E3B9D1E90423C8
:1006600082FA4CF200F10800A4FA8CF283FA4CF3FF
:10067000A2FA8CF37BB9D1E9062301F1200182FAB9
:100680004CF200F10800A4FA8CF283FA4CF3A2FABF
:100690008CF3002BC6D0002A04BF04301A4612BACD
:1006A000B2FA82F2FDE8024500EBD2007047D1E9D0
:1006B000002304F00305C4F100004FEAC50514F05F
:1006C000040F91F840F00CFA05F562EA05021CBF30
:1006D00063EA050362464FF00004A9E781F0004198
:1006E00002E000BF83F0004330B54FEA41044FEA17
:1006F000430594EA050F08BF90EA020F1FBF54EAB2
:10070000000C55EA020C7FEA645C7FEA655C00F04D
:10071000E2804FEA5454D4EB5555B8BF6D420CDD1E
:100720002C4480EA020281EA030382EA000083EAA1
:10073000010180EA020281EA0303362D88BF30BD41
:1007400011F0004F4FEA01314FF4801C4CEA113197
:1007500002D0404261EB410113F0004F4FEA0333F6
:100760004CEA133302D0524263EB430394EA050F81
:1007700000F0A780A4F10104D5F1200E0DDB02FAF0
:100780000EFC22FA05F2801841F1000103FA0EF284
:10079000801843FA05F359410EE0A5F120050EF14A
:1007A000200E012A03FA0EFC28BF4CF0020C43FA7B
:1007B00005F3C01851EBE37101F0004507D54FF088
:1007C000000EDCF1000C7EEB00006EEB0101B1F5D8
:1007D000801F1BD3B1F5001F0CD349085FEA30001E
:1007E0004FEA3C0C04F101044FEA445212F5800F29
:1007F00080F09A80BCF1004F08BF5FEA500C50F1C6
:10080000000041EB045141EA050130BD5FEA4C0CA8
:10081000404141EB0101013C28BFB1F5801FE9D205
:1008200091F0000F04BF01460020B1FA81F308BF28
:100830002033A3F10B03B3F120020CDA0C3208DDF4
:1008400002F1140CC2F10C0201FA0CF021FA02F1CF
:100850000CE002F11402D8BFC2F1200C01FA02F13F
:1008600020FA0CFCDCBF41EA0C019040E41AA2BF64
:1008700001EB0451294330BD6FEA04041F3C1CDA2C
:100880000C340EDC04F11404C4F1200220FA04F04C
:1008900001FA02F340EA030021FA04F345EA0301F6
:1008A00030BDC4F10C04C4F1200220FA02F001FAB8
:1008B00004F340EA0300294630BD21FA04F029463A
:1008C00030BD94F0000F83F4801306BF81F48011D3
:1008D0000134013D4EE77FEA645C18BF7FEA655C46
:1008E00029D094EA050F08BF90EA020F05D054EA18
:1008F000000C04BF1946104630BD91EA030F1EBF1D
:100900000021002030BD5FEA545C05D14000494120
:1009100028BF41F0004130BD14F580043CBF01F513
:10092000801130BD01F0004545F0FE4141F47001F9
:100930004FF0000030BD7FEA645C1ABF19461046D4
:100940007FEA655C1CBF0B46024650EA013406BFD5
:1009500052EA033591EA030F41F4002130BD00BF94
:1009600090F0000F04BF0021704730B54FF4806451
:1009700004F132044FF000054FF0000150E700BFD2
:1009800090F0000F04BF0021704730B54FF4806431
:1009900004F1320410F0004548BF40424FF000011E
:1009A0003EE700BF42004FEAE2014FEA31014FEA61
:1009B00002701FBF12F07F4393F07F4F81F06051B0
:1009C000704732F07F4208BF704793F07F4F04BFFB
:1009D00041F40021704730B54FF4607401F00045D8
:1009E00021F000411CE700BF50EA010208BF704738
:1009F00030B54FF000050AE050EA010208BF704729
:100A000030B511F0004502D5404261EB41014FF491
:100A1000806404F132045FEA915C3FF4D8AE4FF099
:100A200003025FEADC0C18BF03325FEADC0C18BF7C
:100A3000033202EBDC02C2F1200300FA03FC20FACD
:100A400002F001FA03FE40EA0E0021FA02F114441A
:100A5000BDE600BF70B54FF0FF0C4CF4E06C1CEA33
:100A600011541DBF1CEA135594EA0C0F95EA0C0FA4
:100A700000F0DEF82C4481EA030621EA4C5123EA17
:100A80004C5350EA013518BF52EA033541F4801146
:100A900043F4801338D0A0FB02CE4FF00005E1FBF9
:100AA00002E506F00042E0FB03E54FF00006E1FB43
:100AB00003569CF0000F18BF4EF0010EA4F1FF0486
:100AC000B6F5007F64F5407404D25FEA4E0E6D41C6
:100AD00046EB060642EAC62141EA55514FEAC520D7
:100AE00040EA5E504FEACE2EB4F1FD0C88BFBCF553
:100AF000E06F1ED8BEF1004F08BF5FEA500E50F104
:100B0000000041EB045170BD06F0004646EA0101C9
:100B100040EA020081EA0301B4EB5C04C2BFD4EBFB
:100B20000C0541EA045170BD41F480114FF0000EF4
:100B3000013C00F3AB8014F1360FDEBF002001F062
:100B4000004170BDC4F10004203C35DA0C341BDCDC
:100B500004F11404C4F1200500FA05F320FA04F0AE
:100B600001FA05F240EA020001F0004221F00041E2
:100B700010EBD37021FA04F642EB06015EEA430E55
:100B800008BF20EAD37070BDC4F10C04C4F1200585
:100B900000FA04F320FA05F001FA04F240EA020038
:100BA00001F0004110EBD37041F100015EEA430E09
:100BB00008BF20EAD37070BDC4F1200500FA05F229
:100BC0004EEA020E20FA04F301FA05F243EA0203A8
:100BD00021FA04F001F0004121FA04F220EA0200B7
:100BE00000EBD3705EEA430E08BF20EAD37070BDFD
:100BF00094F0000F0FD101F00046400041EB0101DD
:100C000011F4801F08BF013CF7D041EA060195F0BE
:100C1000000F18BF704703F00046520043EB030378
:100C200013F4801F08BF013DF7D043EA0603704765
:100C300094EA0C0F0CEA135518BF95EA0C0F0CD070
:100C400050EA410618BF52EA4306D1D181EA0301B6
:100C500001F000414FF0000070BD50EA410606BFB0
:100C60001046194652EA430619D094EA0C0F02D1F5
:100C700050EA013613D195EA0C0F05D152EA03363A
:100C80001CBF104619460AD181EA030101F0004158
:100C900041F0FE4141F470014FF0000070BD41F0A1
:100CA000FE4141F4780170BD70B54FF0FF0C4CF47B
:100CB000E06C1CEA11541DBF1CEA135594EA0C0F9A
:100CC00095EA0C0F00F0A7F8A4EB050481EA030EE7
:100CD00052EA03354FEA013100F088804FEA0333CE
:100CE0004FF0805545EA131343EA12634FEA02229C
:100CF00045EA111545EA10654FEA00260EF000415D
:100D00009D4208BF964244F1FD0404F5407402D2AE
:100D10005B084FEA3202B61A65EB03055B084FEA3F
:100D200032024FF480104FF4002CB6EB020E75EB3C
:100D3000030E22BFB61A754640EA0C005B084FEA64
:100D40003202B6EB020E75EB030E22BFB61A7546E1
:100D500040EA5C005B084FEA3202B6EB020E75EB2C
:100D6000030E22BFB61A754640EA9C005B084FEAA4
:100D70003202B6EB020E75EB030E22BFB61A7546B1
:100D800040EADC0055EA060E18D04FEA051545EAA0
:100D900016754FEA06164FEAC30343EA52734FEA49
:100DA000C2025FEA1C1CC0D111F4801F0BD141EAC2
:100DB00000014FF000004FF0004CB6E711F4801F27
:100DC00004BF01430020B4F1FD0C88BFBCF5E06F07
:100DD0003FF6AFAEB5EB030C04BFB6EB020C5FEA17
:100DE000500C50F1000041EB045170BD0EF0004E6C
:100DF0004EEA113114EB5C04C2BFD4EB0C0541EA9E
:100E0000045170BD41F480114FF0000E013C90E69A
:100E100045EA060E8DE60CEA135594EA0C0F08BF5E
:100E200095EA0C0F3FF43BAF94EA0C0F0AD150EA5D
:100E300001347FF434AF95EA0C0F7FF425AF1046F0
:100E400019462CE795EA0C0F06D152EA03353FF418
:100E5000FDAE1046194622E750EA410618BF52EA95
:100E600043067FF4C5AE50EA41047FF40DAF52EA69
:100E700043057FF4EBAE12E74FF0FF3C06E000BF06
:100E80004FF0010C02E000BF4FF0010C4DF804CD13
:100E90004FEA410C7FEA6C5C4FEA430C18BF7FEAD3
:100EA0006C5C1BD001B050EA410C0CBF52EA430C01
:100EB00091EA030F02BF90EA020F0020704710F181
:100EC000000F91EA030F58BF994208BF90422CBF10
:100ED000D8176FEAE37040F0010070474FEA410C09
:100EE0007FEA6C5C02D150EA013C07D14FEA430C27
:100EF0007FEA6C5CD6D152EA033CD3D05DF8040B98
:100F0000704700BF8446104662468C4619466346C9
:100F100000E000BF01B5FFF7B7FF002848BF10F1A0
:100F2000000F01BD4DF808EDFFF7F4FF0CBF0120E5
:100F300000205DF808FB00BF4DF808EDFFF7EAFF61
:100F400034BF012000205DF808FB00BF4DF808ED1C
:100F5000FFF7E0FF94BF012000205DF808FB00BF11
:100F60004DF808EDFFF7CEFF94BF012000205DF89B
:100F700008FB00BF4DF808EDFFF7C4FF34BF0120A8
:100F800000205DF808FB00BF4FEA410C7FEA6C5C73
:100F900002D150EA013C0AD14FEA430C7FEA6C5C73
:100FA00002D152EA033C02D14FF0000070474FF0EB
:100FB000010070474FEA410212F5001215D211D517
:100FC0006FF47873B3EB625212D94FEAC12343F046
:100FD000004343EA505311F0004F23FA02F018BFC8
:100FE000404270474FF00000704750EA013005D191
:100FF00011F0004008BF6FF0004070474FF0000054
:10100000704700BF80B400AFBFF34F8F00BFBFF386
:101010006F8F00BF0C4B0022C3F85022BFF34F8FDD
:1010200000BFBFF36F8F00BF074B5B69064A43F4F5
:1010300000335361BFF34F8F00BFBFF36F8F00BF0B
:1010400000BFBD4680BC704700ED00E080B400AF3B
:10105000BFF34F8F00BFBFF36F8F00BF064B00225F
:10106000C3F85022BFF34F8F00BFBFF36F8F00BF95
:1010700000BFBD4680BC704700ED00E080B485B085
:1010800000AF1F4B0022C3F88420BFF34F8F00BF77
:101090001B4BD3F880307B607B685B0BC3F30E0384
:1010A000FB607B68DB08C3F30903BB60FB685A0184
:1010B00043F6E0731340BA68920711491343C1F82D
:1010C0006032BB685A1EBA60002BEFD1FB685A1E13
:1010D000FA60002BE5D1BFF34F8F00BF084B5B696F
:1010E000074A43F480335361BFF34F8F00BFBFF310
:1010F0006F8F00BF00BF1437BD4680BC704700BF74
:1011000000ED00E080B485B000AF1A4B0022C3F8B8
:101110008420BFF34F8F00BF164BD3F880307B6025
:101120007B685B0BC3F30E03FB607B68DB08C3F3D8
:101130000903BB60FB685A0143F6E0731340BA68C9
:1011400092070C491343C1F86C32BB685A1EBA604F
:10115000002BEFD1FB685A1EFA60002BE5D1BFF3DC
:101160004F8F00BFBFF36F8F00BF00BF1437BD4666
:1011700080BC704700ED00E080B500AFFFF742FF94
:10118000FFF77CFF00BF80BD80B400AF00BFBD464D
:1011900080BC704780B400AFFEE7000080B584B02B
:1011A00000AF194BFB60FB681B68BB60FB685B68AA
:1011B0007B6009E0BB681A687B681A607B6804334F
:1011C0007B60BB680433BB60FB689B687A689A42AB
:1011D000F0D305E07B6800221A607B6804337B60F3
:1011E000FB68DB687A689A42F4D3FB681033FB60D3
:1011F000FB68064A9342D6D3FFF784FFFFF726FF2A
:1012000000BF1037BD4680BDCCFB00084CFC000879
:1012100080B400AF00BFBD4680BC704780B500AF52
:10122000FFF7F6FF01F0DCFE03F0E0FB00F08EFBC1
:1012300000F00AFC00F0FCFC00F070FD01F014F876
:1012400000F01BFC01F004FB06F030FB00F037F867
:1012500000BF80BD80B400AF4FF080435B6A18468A
:10126000BD4680BC704780B483B000AF78604FF05B
:1012700080427B6853634FF0804300221A614FF035
:1012800080430222DA6000BF0C37BD4680BC704745
:1012900080B400AF4FF080430022DA6000BFBD464B
:1012A00080BC704780B483B000AF78604FF080425C
:1012B0007B68536300BF0C37BD4680BC704780B568
:1012C00000AF06F033F800BF80BD80B500AFFFF778
:1012D000C1FF0346184680BD80B582B000AF78607C
:1012E0007868FFF7C0FF00BF0837BD4680BD80B5F6
:1012F00000AFFFF7CDFF00BF80BD80B582B000AF6B
:1013000078607868FFF7CEFF00BF0837BD4680BD24
:1013100080B483B000AF78607B687A681A607B68BD
:101320007A685A6000BF0C37BD4680BC704780B4F5
:1013300083B000AF30237B607B6883F3118800BFEC
:1013400000BF00BF0C37BD4680BC704780B483B07F
:1013500000AF00237B607B6883F3118800BF00BF70
:1013600000BF0C37BD4680BC704780B582B000AF6F
:1013700078607B681846FFF7CBFF00BF0837BD4693
:1013800080BD80B500AFFFF7D2FF00BF80BD80B544
:1013900000AFFFF7DBFF00BF80BD80B582B000AFBC
:1013A00078607868FFF7E1FF00BF0837BD4680BD71
:1013B00080B582B000AF786039603968786807F02E
:1013C00056FC034618460837BD4680BD80B582B03E
:1013D00000AF786039603968786807F069FC00BF51
:1013E0000837BD4680BD80B586B000AFF860B960F3
:1013F0007A60FB689B687A689A4202D9FB689B68AE
:101400007B60FB681A69FB689B69D31A7B617A6809
:101410007B699A420DD2FB689B697A681946B86865
:10142000FEF7F4FFFB689A697B681A44FB689A61CF
:101430002BE07A687B699A421CD9FB689B697A69C0
:101440001946B868FEF7E2FFBA687B691344BB60CF
:101450007A687B69D31A3B61FB68DB683A69194695
:10146000B868FEF7D3FFFB68DA683B691A44FB688B
:101470009A610AE0FB689B697A681946B868FEF7CA
:10148000C5FFFB68DA68FB689A61FB689A687B684D
:10149000D21AFB689A607B6818461837BD4680BD33
:1014A00080B586B000AFF860B9607A60FB689B6871
:1014B0007A689A4202D9FB689B687B60FB681A696C
:1014C000FB685B69D31A7B617A687B699A420DD2AB
:1014D000FB685B697A68B9681846FEF797FFFB6896
:1014E0005A697B681A44FB685A612BE07A687B6909
:1014F0009A421CD9FB685B697A69B9681846FEF79D
:1015000085FFBA687B691344BB607A687B69D31A2C
:101510003B61FB68DB683A69B9681846FEF776FFFD
:10152000FB68DA683B691A44FB685A610AE0FB68A9
:101530005B697A68B9681846FEF768FFFB68DA6885
:10154000FB685A61FB689A687B68D21AFB689A60EC
:101550007B6818461837BD4680BD80B584B000AFA3
:10156000F860B9607A603B60FB681846FFF715FFCA
:10157000FB6800229A60FB68BA68DA60FB68BA68A8
:101580009A61FB68BA685A61BA687B681A44FB685A
:101590001A61FB683A68DA61FB68BA691A6200BFCF
:1015A0001037BD4680BD80B582B000AF78600B4675
:1015B000FB707B685A697B689B699A4205D17B689E
:1015C0009B68002B01D0012300E0002303F00103FE
:1015D000DBB283F00103DBB2002B1CD07B689B687D
:1015E0005A1C7B689A607B685B69591C7A685161F8
:1015F000FA781A707B685A697B681B699A4203D330
:101600007B68DA687B685A617B6800211846FFF7BF
:10161000DDFE002301E04FF0FF3318460837BD46DA
:1016200080BD80B584B000AF78603960FFF7A9FE57
:101630000CE07B6839681846FFF7BAFEB860BB68F3
:10164000002B03DAFFF7A3FEBB6824E07B689B68EE
:10165000002BEED07B689B685A1E7B689A607B6883
:101660009B69591C7A6891611B78FB737B689A6946
:101670007B681B699A4203D37B68DA687B689A614E
:101680007B68DB69002B03D07B68DB69786898474F
:10169000FFF77DFEFB7B18461037BD4680BD80B549
:1016A00088B000AFF860B9607A603B60FB68DB69C6
:1016B000FB617B68BB61FFF764FE24E07A68B96870
:1016C000F868FFF790FE78617B69002B09D1FB6811
:1016D00039681846FFF76CFE38613B69002B12D061
:1016E00014E0FB69002B02D0FB69F8689847FFF70C
:1016F0004EFE7A687B69D31A7B60BA687B691344B3
:10170000BB60FFF73EFE7B68002BD7D1FFF73FFEA3
:10171000BA697B68D31A18462037BD4680BD80B5AC
:1017200084B000AFF860B9607A603B60FB6818462F
:10173000FFF733FEFB687A689A60FB68BA68DA6084
:10174000FB68BA689A61FB68BA685A61BA687B68D4
:101750001A44FB681A61FB683A68DA61FB68BA6987
:101760001A6200BF1037BD4680BD80B586B000AF9D
:10177000F8600B467A60FB72FFF703FE0CE0FB6833
:1017800079681846FFF714FE78617B69002B03DA4D
:10179000FFF7FDFD7B6924E0FB689B68002BEED022
:1017A000FB689B685A1EFB689A60FB685B69591C62
:1017B000FA685161FA7A1A70FB685A69FB681B690A
:1017C0009A4203D3FB68DA68FB685A61FB68DB69FD
:1017D000002B03D0FB68DB69F8689847FFF7D7FD5B
:1017E000002318461837BD4680BD80B584B000AFD1
:1017F00078607B685A697B689B699A4205D17B68EF
:101800009B68002B01D0012300E0002303F00103BB
:10181000DBB283F00103DBB2002B1CD07B689B683A
:101820005A1C7B689A607B689B69591C7A68916135
:101830001B78FB737B689A697B681B699A4203D3A8
:101840007B68DA687B689A617B6800211846FFF73D
:10185000BDFDFB7B01E04FF0FF3318461037BD465E
:1018600080BD80B588B000AFF860B9607A603B6039
:10187000FB68DB69FB617B68BB61FFF782FD24E0ED
:101880007A68B968F868FFF70BFE78617B69002B0E
:1018900009D1FB6839681846FFF78AFD38613B6952
:1018A000002B12D014E0FB69002B02D0FB69F86812
:1018B0009847FFF76CFD7A687B69D31A7B60BA683A
:1018C0007B691344BB60FFF75CFD7B68002BD7D1BD
:1018D000FFF75DFDBA697B68D31A18462037BD460D
:1018E00080BD80B483B000AF30237B607B6883F31E
:1018F000118800BF00BF00BF0C37BD4680BC7047D9
:1019000080B483B000AF00237B607B6883F31188D1
:1019100000BF00BF00BF0C37BD4680BC704780B51C
:1019200000AFFFF7DEFF00BF80BD80B500AFFFF75F
:10193000E7FF00BF80BD80B582B000AF78607868F7
:1019400007F057FA00BF0837BD4680BD80B500AF2D
:1019500001F07EFF00BF80BD80B582B000AF78602F
:101960007B6801221A707B6800225A607B68002223
:101970009A607B680022DA607B6800221A617B68CB
:1019800000225A617B6818331846FFF7D4FF00BF66
:101990000837BD4680BD80B584B000AF786039603F
:1019A000FFF7BDFF7B683A685A60786801F0A6FFD0
:1019B000F860FB68002B03D17B6802221A7002E0FA
:1019C0007B6801221A70FFF7B0FFFB6818461037DA
:1019D000BD4680BD80B584B000AFF860B9607A6064
:1019E0003B60FFF79CFF3B687A68B968F86800F0D5
:1019F00006F8FFF79AFF00BF1037BD4680BD80B5DF
:101A000084B000AFF860B9607A603B60FB687A68C8
:101A10009A60FB683A68DA60FB68BA681A61FB682A
:101A200003221A70F86802F005F800BF1037BD46AF
:101A300080BD80B582B000AF7860786807F0D9F9D2
:101A400000BF0837BD4680BD80B500AF03F0A6FAE1
:101A500000BF80BD80B582B000AF78607B68012296
:101A60001A707B6800225A607B680C331846FFF7B7
:101A7000E0FF00BF0837BD4680BD80B400AF00BFA7
:101A8000BD4680BC704780B483B000AF78607B688F
:101A90007A681A6000BF0C37BD4680BC704780B5BD
:101AA00082B000AF78607868FFF7EDFF00BF0837BD
:101AB000BD4680BD80B582B000AF786039603968BE
:101AC000786807F0D4F900BF0837BD4680BD80B5FF
:101AD00084B000AFF860B9607A60FB6803F1300051
:101AE0004FF0FF337A68B968FFF7BBFE034618462C
:101AF0001037BD4680BD80B584B000AFF860B960D6
:101B00007A60FB6803F10C004FF0FF337A68B96824
:101B1000FFF7C5FD034618461037BD4680BD80B5AA
:101B200082B000AF78600B46FB707B683033F97889
:101B30004FF0FF321846FFF718FE034618460837E5
:101B4000BD4680BD80B582B000AF78607B680C3345
:101B50004FF0FF311846FFF764FD0346184608377B
:101B6000BD4680BD80B584B000AFF8600B467A609A
:101B7000FB72FB683033F97A7A681846FFF7F5FD97
:101B8000034618461037BD4680BD80B582B000AF11
:101B9000786039607B680C3339681846FFF741FD7F
:101BA000034618460837BD4680BD80B584B000AFF7
:101BB000F860B9607A603B60FB6803F130003B6815
:101BC0007A68B968FFF74DFE034618461037BD46E0
:101BD00080BD80B584B000AFF860B9607A603B60CA
:101BE000FB6803F10C003B687A68B968FFF757FDA2
:101BF000034618461037BD4680BD80B487B000AF9D
:101C0000F860B9607A60FB687B61BB68002B03D029
:101C1000BB68012B03D105E06FF0130303E06FF005
:101C2000130300E0002318461C37BD4680BC7047F4
:101C300080B500AF05F064FC00BF80BD80B582B008
:101C400000AF78607B68074A1A607B6804331846E7
:101C5000FFF725FF7B6801221A7200BF0837BD46D7
:101C600080BD00BF4CFC000880B582B000AF78603A
:101C70000B46FB707B685B69002B05D17B680433E6
:101C800004211846FFF716FF7B680C33FA781146DB
:101C90001846FFF788FC0346002B06DA7B680433FE
:101CA0004FF400611846FFF705FF00BF0837BD4637
:101CB00080BD80B483B000AF30237B607B6883F34A
:101CC000118800BF00BF00BF0C37BD4680BC704705
:101CD00080B483B000AF00237B607B6883F31188FE
:101CE00000BF00BF00BF0C37BD4680BC704780B549
:101CF00000AFFFF7DEFF00BF80BD80B500AFFFF78C
:101D0000E7FF00BF80BD80B582B000AF7860786823
:101D100007F06FF800BF0837BD4680BD80B500AF43
:101D200004F0E6FF00BF80BD80B582B000AF7860F0
:101D30007B6801221A707B6800225A607B6800224F
:101D40009A607B680C331846FFF7DDFF00BF083749
:101D5000BD4680BD80B584B000AF78603960FFF7C4
:101D6000C6FF7B683A685A60786805F061F8F860E9
:101D7000FB68002B03D17B6802221A7002E07B68AB
:101D800001221A70FFF7B9FFFB6818461037BD46ED
:101D900080BD80B483B000AF30237B607B6883F369
:101DA000118800BF00BF00BF00BF0C37BD4680BC1C
:101DB000704780B483B000AF00237B607B6883F3FF
:101DC000118800BF00BF00BF00BF0C37BD4680BCFC
:101DD000704780B500AFFFF7DCFF00BF80BD80B566
:101DE00000AFFFF7E6FF00BF80BD80B485B000AF55
:101DF00078607B685A1C7A601B78FB817B681B7853
:101E00001B021AB2B7F90E3013431BB2FB81FB89D8
:101E100018461437BD4680BC704780B582B000AF0D
:101E200078607B6893F882207B6883F88A207868E2
:101E300003F0B6FF7B685B681B68002B05D07B68EE
:101E40005B681B680121786898477B6803221A70D9
:101E500000BF0837BD4680BDF0B585B000AF7860E3
:101E60007B6893F8803003F07F027B6893F88130C1
:101E70001B02134340F60242934200F0208140F6D9
:101E80000242934200F2E481B3F5106F00F0D68075
:101E9000B3F5106F00F2DC81B3F5006F00F0C18084
:101EA000B3F5006F00F2D48140F20162934200F278
:101EB000CF81B3F5C06F80F08E80B3F5A06F72D084
:101EC000B3F5A06F00F2C48140F20232934200F0F9
:101ED0008B8140F20232934200F2BA81B3F5407F27
:101EE00046D0B3F5407F00F2B381B3F5817F00F0B7
:101EF0004781B3F5817F00F2AB81B3F5807F1CD0C1
:101F0000B3F5807F00F2A481022B00F0E380022B66
:101F100000F29E81002B03D0012B00F0D08097E1CE
:101F20007B6803F188027B685A677B6802229A67A4
:101F30007B680022DA6701238BE17B6893F88230AB
:101F4000012B13D17B68B3F8883023F002039AB2D7
:101F50007B68A3F888207B6800225A677B68002290
:101F60009A677B680022DA67012372E1002370E13F
:101F70007B6893F88230012B13D17B68B3F88830EB
:101F800043F002039AB27B68A3F888207B680022A2
:101F90005A677B6800229A677B680022DA67012310
:101FA00057E1002355E17B6893F88030002B07D17F
:101FB0007B6893F88130052B02D17868FFF72DFFFD
:101FC0007B6800225A677B6800229A677B68002240
:101FD000DA6701233DE17B685B685C687B6893F8A6
:101FE00083507B6893F882607B6884331846FFF7E0
:101FF000FCFE0346324629467868A047F860FB6835
:10200000002B01D1002324E1FB685A687B685A67E2
:10201000FB681A687B689A677B680022DA6701238D
:1020200017E17B6803F18B027B685A677B680122AA
:102030009A677B680022DA6701230AE17B681B78D4
:10204000042B18D1FFF7C5FE786800F03DF9FFF7C3
:10205000C6FE7B68002283F88B207B6803221A70FF
:102060007B685B681B68002B05D07B685B681B681E
:102070000321786898477B6893F88230002B13D04F
:102080007B6893F882207B6883F88B207B6804222E
:102090001A707B685B681B68002B05D07B685B68E7
:1020A0001B680221786898477B6800225A677B6822
:1020B00000229A677B680022DA670123C9E07B6807
:1020C000664A5A677B6802229A677B680022DA6751
:1020D0000123BEE07B6893F884305BB2002B27DAE3
:1020E0007B6893F8843003F00F03DBB219467868FD
:1020F00003F0A1FE0346012B02D0022B0BD015E00A
:102100007B68574A5A677B6802229A677B6800227D
:10211000DA6701239DE07B68524A5A677B68022296
:102120009A677B680022DA67012392E0002390E03F
:102130007B6893F8843003F00F03DBB219467868AC
:1021400003F056FE0346012B02D0022B0BD015E004
:102150007B68434A5A677B6802229A677B68002241
:10216000DA67012375E07B683E4A5A677B68022282
:102170009A677B680022DA6701236AE0002368E03F
:102180007B6893F88230002B01D0002361E07B68EC
:1021900093F8843003F00F03002B1AD07B6893F878
:1021A00084305BB2002B0ADA7B6893F8843003F04A
:1021B0000F03DBB21946786804F01CF809E07B686D
:1021C00093F8843003F00F03DBB21946786803F00C
:1021D000F4FF7B6800225A677B6800229A677B685D
:1021E0000022DA67012334E07B6893F88230002B09
:1021F00001D000232DE07B6893F8843003F00F03B7
:10220000002B1AD07B6893F884305BB2002B0ADA7B
:102210007B6893F8843003F00F03DBB219467868CB
:1022200003F0AEFF09E07B6893F8843003F00F03FE
:10223000DBB21946786803F086FF7B6800225A6794
:102240007B6800229A677B680022DA67012300E03E
:10225000002318461437BD46F0BD00BF74FC0008CB
:102260007CFC000878FC000880B500AF03F0E6FCB9
:1022700000BF80BD80B485B000AF78607B6801226C
:102280001A707B6800225A600023FB600EE07B68B6
:10229000FA680C32002143F822107B68FA68143285
:1022A000002143F82210FB680133FB60FB68072B19
:1022B000EDD97B6800221A817B6800225A8100BF19
:1022C0001437BD4680BC704780B584B000AF7860DD
:1022D0007B681B8903F001039AB27B681A817B68D3
:1022E0005B8903F001039AB27B685A810123FB608A
:1022F00009E07A68FB6802339B00134400225A60AD
:10230000FB680133FB60FB68082BF2D9786803F0A7
:1023100061FD00BF1037BD4680BD80B586B000AFFF
:10232000F8607A603B600B46FB72FB685A89FB7A67
:10233000012101FA03F39BB213439AB2FB685A815D
:10234000FB7AFA6802339B0013445B689B697B61EC
:102350007B697A689A607B693A681A607B690022B7
:102360005A60FB7A1946F86803F09FFD00BF1837E2
:10237000BD4680BD80B586B000AFF8607A603B6036
:102380000B46FB72FB681A89FB7A012101FA03F301
:102390009BB213439AB2FB681A81FB7AFA68023344
:1023A0009B0013445B685B697B617B697A689A6018
:1023B0007B693A681A607B6900225A60FB7A194689
:1023C000F86803F011FE00BF1837BD4680BD80B528
:1023D00084B000AF78607B6802221A707B680022AC
:1023E000A3F888207B68002283F88A207B6800227B
:1023F00083F88B207B6800221A817B6800225A8137
:102400000023FB6009E07A68FB6802339B001344F9
:1024100000225A60FB680133FB60FB68082BF2D98D
:102420007B68002283F87020786803F01DFC7B68CD
:102430005B681B68002B05D07B685B681B6800210C
:102440007868984700BF1037BD4680BD80B582B020
:1024500000AF78607B681B78052B18D07B681A78F2
:102460007B6883F88C207B6805221A707B685B6828
:102470001B68002B05D07B685B681B6804217868AB
:1024800098477B6800221A817B6800225A8100BF2E
:102490000837BD4680BD80B582B000AF78607B68EC
:1024A0001B78052B0FD17B6893F88C207B681A7002
:1024B0007B685B681B68002B05D07B685B681B68CA
:1024C00005217868984700BF0837BD4680BD80B5B4
:1024D00084B000AF78600B46FB707B6893F8703077
:1024E000002B03D07B68002283F870207B6803F107
:1024F0008002FB781946786803F0C0FC7B685B6853
:102500009B68002B0AD07B685B689B68786898475B
:10251000034683F00103DBB2002B27D07B6893F8DE
:10252000803003F06003002B08D17868FFF794FC3B
:10253000034683F00103DBB2002B17D0002178683B
:1025400003F01EFE0021786803F0FDFD7B685B68E8
:102550001B68002B05D07B685B681B6806217868C8
:1025600098477B68062283F870205BE07B6886339F
:102570001846FFF73AFC0346FB607B689B6FFA68DE
:102580009A4202D27B68FA689A677B6893F8803037
:102590005BB2002B23DA7B689B6F002B10D07B682B
:1025A000092283F87020FFF714FC7B685A6F7B6860
:1025B0009B6F00217868FFF7DDFEFFF710FC31E02C
:1025C0007B68142283F87020FFF703FC00230022AD
:1025D00000217868FFF7A1FEFFF701FC22E07B688D
:1025E0009B6F002B10D07B68152283F87020FFF7BB
:1025F000F0FB7B685A6F7B689B6F00217868FFF760
:102600008CFEFFF7ECFB0DE07B680B2283F870205B
:10261000FFF7DFFB0023002200217868FFF7AAFE06
:10262000FFF7DDFB1037BD4680BD000080B584B0EC
:1026300000AF78600B46FB707B6893F87030152B09
:1026400000F28B8001A252F823F000BF2B27000874
:102650005B2700085B2700085B2700085B27000852
:102660005B2700082B2700085B2700085B27000872
:10267000A5260008F3260008112700085B2700089C
:102680005B2700085B2700085B2700085B27000822
:102690005B2700085B2700085B2700082B27000842
:1026A0002B2700087B6886331846FFF79EFB0346FE
:1026B000FB607B689B6FFA689A421AD97B689B6FB4
:1026C0007A68D268128AB3FBF2F101FB02F29B1A1C
:1026D000002B0ED1FFF77DFB00230022002178683C
:1026E000FFF748FEFFF77BFB7B680A2283F8702028
:1026F00033E07B68142283F87020FFF76AFB002325
:10270000002200217868FFF708FEFFF768FB24E04D
:102710007B68DB6F002B03D07B68DB6F78689847A2
:102720007B68002283F8702017E00021786803F0AE
:1027300027FD0021786803F006FD7B685B681B6855
:10274000002B05D07B685B681B680621786898477A
:102750007B68062283F8702000BF1037BD4680BD1D
:1027600080B582B000AF78600B46FB707B6893F851
:102770007030152B69D801A252F823F019280008EF
:102780004B2800084B2800084B2800084B2800085D
:102790004B280008192800084B2800084B2800087F
:1027A0001928000819280008192800084B280008D3
:1027B0004B2800084B2800084B2800084B2800082D
:1027C0004B2800084B2800084B280008F327000876
:1027D000D52700087B680B2283F87020FFF7F9FAF1
:1027E0000023002200217868FFF7C4FDFFF7F7FA05
:1027F0002BE07B68DB689B695B68002B24D17B68DE
:10280000DB6F002B03D07B68DB6F786898477B68B1
:10281000002283F8702018E00021786803F0B0FCF3
:102820000021786803F08FFC7B685B681B68002BD5
:1028300005D07B685B681B680621786898477B68D1
:10284000062283F8702000E000BF0837BD4680BD37
:1028500080B500AF00F002F800BF80BD80B400AFCB
:10286000064B1B78002B05D1044B01221A70034B39
:10287000034A5A6000BFBD4680BC7047B0060024C2
:102880004041005280B500AF044805F0BFF903484D
:1028900005F0F6F906F0FEFC00BF80BD80FC0008E4
:1028A00080B483B000AF786039603B68DBB2124A15
:1028B0001B01D9B27B68134403F540730A461A70B2
:1028C0007B6803F01F020C497B685B09012000FA5A
:1028D00002F2603341F823207B6803F01F020649AF
:1028E0007B685B09012000FA02F241F8232000BF57
:1028F0000C37BD4680BC704700E100E080B483B077
:1029000000AF78607B6803F01F0210497B685B09A9
:10291000012000FA02F2203341F823207B6803F003
:102920001F020A497B685B09012000FA02F260334A
:1029300041F82320054A7B68134403F540730022C5
:102940001A7000BF0C37BD4680BC704700E100E044
:1029500080B400AF00BFBD4680BC704780B400AFFC
:1029600000BFBD4680BC704780B400AF00BFBD460D
:1029700080BC704780B400AF00BFBD4680BC7047CC
:1029800080B400AF00BFBD4680BC704780B400AFCC
:1029900000BFBD4680BC704780B400AF00BFBD46DD
:1029A00080BC704780B400AF00BFBD4680BC70479C
:1029B00080B400AF00BFBD4680BC704780B400AF9C
:1029C00000BFBD4680BC704780B400AF00BFBD46AD
:1029D00080BC704780B400AF00BFBD4680BC70476C
:1029E00080B400AF00BFBD4680BC704780B400AF6C
:1029F00000BFBD4680BC704780B400AF00BFBD467D
:102A000080BC704780B400AF00BFBD4680BC70473B
:102A100080B400AF00BFBD4680BC704780B400AF3B
:102A200000BFBD4680BC704780B500AF0C2125209B
:102A3000FFF736FF00BF80BD80B500AF064805F048
:102A4000E5F8064804F0B2FD034805F019F906F070
:102A500021FC00BF80BD00BF8CFC00080C0A0024D4
:102A600080B400AF00BFBD4680BC704780B400AFEB
:102A700000BFBD4680BC704780B400AF00BFBD46FC
:102A800080BC704780B500AF0C213520FFF708FFF0
:102A900000BF80BD80B500AF064805F0B7F8064816
:102AA00004F084FD034805F0EBF806F0F3FB00BFEB
:102AB00080BD00BF98FC00086C0A002480B400AF01
:102AC00000BFBD4680BC704780B400AF00BFBD46AC
:102AD00080BC704780B400AF00BFBD4680BC70476B
:102AE00080B400AF00BFBD4680BC704780B400AF6B
:102AF00000BFBD4680BC704780B400AF00BFBD467C
:102B000080BC704780B400AF00BFBD4680BC70473A
:102B100080B500AF07211C20FFF7C2FE00BF80BDBB
:102B200080B500AF054805F071F804F031FC0348AA
:102B300005F0A6F806F0AEFB00BF80BDA4FC0008BF
:102B400080B400AF00BFBD4680BC704780B400AF0A
:102B500000BFBD4680BC704780B400AF00BFBD461B
:102B600080BC704780B400AF00BFBD4680BC7047DA
:102B700080B400AF00BFBD4680BC704780B400AFDA
:102B800000BFBD4680BC704780B400AF00BFBD46EB
:102B900080BC704780B400AF00BFBD4680BC7047AA
:102BA00080B400AF00BFBD4680BC704780B500AFA9
:102BB000FFF7CEFEFFF7D2FEFFF7D6FEFFF7DAFEF5
:102BC000FFF7DEFEFFF7E2FEFFF7E6FEFFF7EAFEA5
:102BD000FFF7EEFEFFF7F2FEFFF7F6FEFFF7FAFE55
:102BE000FFF7FEFEFFF702FFFFF706FF09217A203D
:102BF000FFF756FEFFF706FFFFF70AFFFFF70EFF8E
:102C0000FFF780FFFFF784FFFFF79AFFFFF79EFFB4
:102C1000FFF7A2FFFFF7A6FFFFF7AAFFFFF7AEFF40
:102C2000FFF7B2FFFFF7B6FFFFF7BAFFFFF7FCFEB3
:102C3000FFF716FFFFF71AFFFFF71EFFFFF722FF50
:102C4000FFF73CFFFFF740FFFFF744FFFFF748FFA8
:102C5000FFF74CFFFFF750FF00BF80BD80B483B08B
:102C600000AF78600C4BD3F890200B497B6813437E
:102C7000C1F89030084BD3F890207B68DB430649BD
:102C80001340C1F89030044BD3F8903000BF0C379C
:102C9000BD4680BC704700BF0044025880B483B07A
:102CA00000AF78600C4BD3F894200B497B6813433A
:102CB000C1F89430084BD3F894207B68DB43064975
:102CC0001340C1F89430044BD3F8943000BF0C3754
:102CD000BD4680BC704700BF0044025880B483B03A
:102CE00000AF78600C4BD3F898200B497B681343F6
:102CF000C1F89830084BD3F898207B68DB4306492D
:102D00001340C1F89830044BD3F8983000BF0C370B
:102D1000BD4680BC704700BF0044025880B483B0F9
:102D200000AF78600C4BD3F88C200B497B681343C1
:102D3000C1F88C30084BD3F88C207B68DB43064904
:102D40001340C1F88C30044BD3F88C3000BF0C37E3
:102D5000BD4680BC704700BF0044025880B483B0B9
:102D600000AF78600C4BD3F89C200B497B68134371
:102D7000C1F89C30084BD3F89C207B68DB430649A4
:102D80001340C1F89C30044BD3F89C3000BF0C3783
:102D9000BD4680BC704700BF0044025880B483B079
:102DA00000AF78600C4BD3F880200B497B6813434D
:102DB000C1F88030084BD3F880207B68DB4306499C
:102DC0001340C1F88030044BD3F8803000BF0C377B
:102DD000BD4680BC704700BF0044025880B483B039
:102DE00000AF78600C4BD3F884200B497B68134309
:102DF000C1F88430084BD3F884207B68DB43064954
:102E00001340C1F88430044BD3F8843000BF0C3732
:102E1000BD4680BC704700BF0044025880B483B0F8
:102E200000AF7860094BDA6F08497B681343CB67C2
:102E3000064BDA6F7B68DB4304491340CB67034BD7
:102E4000DB6F00BF0C37BD4680BC704700440258A2
:102E500080B483B000AF78600C4BD3F888200B4966
:102E60007B681343C1F88830084BD3F888207B680F
:102E7000DB4306491340C1F88830044BD3F888304F
:102E800000BF0C37BD4680BC704700BF00440258ED
:102E900080B483B000AF78600B46FB70124BD3F860
:102EA000F42011497B681343C1F8F430FB78002B00
:102EB00008D00D4BD3F81C210B497B681343C1F894
:102EC0001C3108E0084BD3F81C217B68DB43064922
:102ED0001340C1F81C31044BD3F81C3100BF0C3730
:102EE000BD4680BC704700BF0044025880B483B028
:102EF00000AF78600B46FB70124BD3F8DC20114911
:102F00007B681343C1F8DC30FB78002B08D00D4BF5
:102F1000D3F804210B497B681343C1F8043108E05E
:102F2000084BD3F804217B68DB4306491340C1F802
:102F30000431044BD3F8043100BF0C37BD4680BCCC
:102F4000704700BF0044025880B400AF0B4B1B68B1
:102F50000A4A43F480731360094B1B6F03F44073F8
:102F6000B3F5007F06D0064B4FF480321A67044B4E
:102F700000221A6700BFBD4680BC70470048025857
:102F80000044025880B400AF124B0222DA6000BF46
:102F9000104B5B6803F40053002BF9D00D4B0E4A25
:102FA0001A600C4B01229A600A4B0C4ADA60094BFA
:102FB00000221A61074B4FF440429A6100BF054B53
:102FC0009B6903F40053002BF9D000BF00BFBD463E
:102FD00080BC70470048025800C000F002000001A9
:102FE00080B500AF6FF00040FFF7D8FE4FF0FF3024
:102FF000FFF7F4FE1048FFF711FF1048FFF728FF16
:103000004FF0FF30FFF72AFE4FF0FF30FFF746FE8C
:103010004FF0FF30FFF762FE4FF0FF30FFF77EFE0C
:103020004FF0FF30FFF79AFE00F0FAFF01F0D0FBFF
:10303000FFF7BCFD00BF80BDFFEFFF7F00F8FFFF83
:1030400080B584B000AF7A4B01221A6001210220C2
:10305000FFF71EFFFFF796FFFFF776FF754B1B6824
:10306000744A43F00103136000BF724B1B6803F006
:103070000403002BF9D06F4B00221A6100BF6D4B87
:103080001B6903F03803002BF9D16A4B01221A6047
:10309000684B4FF080425A60664B00225A67654B7E
:1030A000654ADA62654BFB60FB6843F40043FB60F2
:1030B000604AFB6813615F4B1B685E4A43F48033D0
:1030C000136000BF5B4B1B6803F40033002BF9D087
:1030D000584B1B68574A43F48053136000BF554B4D
:1030E0001B6803F40053002BF9D00023BB600023BE
:1030F0007B6000233B604F4B514A9A6240F255730C
:103100003B604C4B00225A634A4B4E4A1A63BB68E1
:1031100043F08073BB607B6843F000737B603B6867
:1031200043F480333B603B6843F400333B60414BE6
:103130004CF29022DA633F4B434A9A63BB6843F0F8
:103140008063BB607B6843F000637B603B6843F453
:1031500000233B603B6843F400133B60354B002287
:103160005A64344B394A1A64BB6843F08053BB60DD
:103170007B6843F000537B603B6843F480033B6013
:103180003B6843F080733B602A4A3B68D362294B1B
:103190001A682849BB6813430B6000BF254B1A68A7
:1031A0007B6813407A689A42F8D1224B48229A6190
:1031B000204B4FF48862DA611E4B40221A621D4B8D
:1031C0004FF48032DA641B4B214A1A65194B4FF4D5
:1031D000E0025A65174B4FF480329A651D4B32223C
:1031E0001A6000BF1B4B1B6803F00F03022BF9D1C1
:1031F000104B1B690F4A43F00303136100BF0D4BD3
:103200001B6903F03803182BF9D101214FF000504E
:10321000FFF76CFE01214FF08040FFF767FE0121B0
:103220004FF00040FFF762FE00BF1037BD4680BD83
:1032300008810051004402580000FF0100081008F6
:10324000424040008F030901F412010B8F0605076D
:10325000400000100020005280B483B000AF302343
:103260007B607B6883F3118800BF00BF00BF00BF95
:103270000C37BD4680BC704780B483B000AF0023DC
:103280007B607B6883F3118800BF00BF00BF00BF75
:103290000C37BD4680BC704780B500AFFFF7DCFF40
:1032A00000BF80BD80B500AFFFF7E6FF00BF80BD67
:1032B00080B582B000AF7860786804F09DFB00BFF5
:1032C0000837BD4680BD80B582B000AF78603960F8
:1032D0003968786805F0B2FC00BF0837BD4680BD8C
:1032E00080B483B000AF78600C4BD3F880200B49DA
:1032F0007B681343C1F88030084BD3F880207B688B
:10330000DB4306491340C1F88030044BD3F88030CA
:1033100000BF0C37BD4680BC704700BF0044025858
:1033200080B483B000AF78600C4BD3F888200B4991
:103330007B681343C1F88830084BD3F888207B683A
:10334000DB4306491340C1F88830044BD3F888307A
:1033500000BF0C37BD4680BC704700BF0044025818
:1033600080B483B000AF78600B46FB70124BD3F88B
:10337000D82011497B681343C1F8D830FB78002B63
:1033800008D00D4BD3F800210B497B681343C1F8DB
:10339000003108E0084BD3F800217B68DB43064985
:1033A0001340C1F80031044BD3F8003100BF0C3793
:1033B000BD4680BC704700BF0044025880B483B053
:1033C00000AF78600C4BD3F8D8207B68DB430A4908
:1033D0001340C1F8D830084BD3F800217B68DB4399
:1033E00005491340C1F80031034BD3F8003100BF49
:1033F0000C37BD4680BC70470044025880B582B08F
:1034000000AF78607868FFF76BFF00BF0837BD46F4
:1034100080BD000080B483B000AF78600B46FB70C5
:10342000124BD3F8E02011497B681343C1F8E03018
:10343000FB78002B08D00D4BD3F808210B497B6893
:103440001343C1F8083108E0084BD3F808217B6822
:10345000DB4306491340C1F80831044BD3F8083167
:1034600000BF0C37BD4680BC704700BF0044025807
:1034700080B483B000AF78600C4BD3F8E0207B6859
:10348000DB430A491340C1F8E030084BD3F8082168
:103490007B68DB4305491340C1F80831034BD3F87F
:1034A000083100BF0C37BD4680BC7047004402584D
:1034B00080B582B000AF78607868FFF731FF00BF59
:1034C0000837BD4680BD80B582B000AF78607B68AC
:1034D0009B6A4FF080529A604FF47A60FFF7E8FEE3
:1034E00000BF0837BD4680BD80B483B000AF7860B0
:1034F0007B689B6A01221A607B689B6A9A687B687A
:103500009B6A42F001029A6000BF7B689B6A1B685D
:1035100003F00103002BF8D000BF00BF0C37BD46FD
:1035200080BC704780B483B000AF78607B689B6AD2
:1035300099687B689A6A114B0B4093607B689B6A21
:1035400099687B685B685A680D4B13407A68926A89
:103550000B4393607B689B6A9A687B689B6A42F026
:1035600000429A6000BF7B689B6A9B68002BFADB75
:1035700000BF00BF0C37BD4680BC7047FFFFFEBFD9
:103580000000014080B483B000AF78607B689B6A24
:103590009B6803F00403002B0FD07B689B6A9A683A
:1035A0007B689B6A42F010029A6000BF7B689B6A4E
:1035B0009B6803F01003002BF8D17B689B6A002204
:1035C000DA6100BF0C37BD4680BC704780B582B061
:1035D00000AF786039603B6803F00C03002B2DD0FE
:1035E000786800F031FB7B681B69DB68002B13D027
:1035F0007B6805221A707B681B69DB68012178688B
:1036000098477B681B78052B0CD17B6802221A70C7
:103610007B6800221A6105E07B6802221A707B68D1
:1036200000221A61FFF738FE7B6814334FF0FF3138
:103630001846FFF748FEFFF735FE5DE07B681B6923
:10364000002B59D03B6803F02003002B45D07B684A
:103650001B691B78002B14D07B681B699B68002BAF
:103660004AD07B6804221A707B681B699B68786863
:1036700098477B681B78042B3ED17B6803221A7025
:103680003AE0786800F0E0FA7B681B699B68002BE1
:1036900012D07B6804221A707B681B699B6878686B
:1036A00098477B681B78042B0CD17B6802221A7028
:1036B0007B6800221A6105E07B6802221A707B6831
:1036C00000221A61FFF7E8FD7B68143300211846D9
:1036D000FFF7F9FDFFF7E6FD0EE03B6803F010038E
:1036E000002B09D07B681B699B68002B04D07B688A
:1036F0001B699B687868984700BF0837BD4680BD46
:1037000080B584B000AF786039607B681B69002B9E
:1037100059D00023FB603B6803F01003002B07D057
:103720007B681B78032B03D1FB6843F00203FB602B
:103730003B6803F08003002B03D0FB6843F00403D5
:10374000FB603B6803F48073002B03D0FB6843F0FD
:103750000803FB603B6803F40073002B03D0FB6895
:1037600043F01003FB60FB68002B2CD0786800F05E
:103770006BFA7B681B69DB68002B13D07B68052222
:103780001A707B681B69DB68F968786898477B6802
:103790001B78052B0CD17B6802221A707B680022F3
:1037A0001A6105E07B6802221A707B6800221A61A8
:1037B000FFF772FD7B6814334FF0FF311846FFF7B7
:1037C00082FDFFF76FFD00BF1037BD4680BD0000D2
:1037D00080B582B000AF0B4804F018FA0A4B1B68A2
:1037E0007B60094A7B68136079680848FFF788FFA7
:1037F000044804F045FA05F04DFD00BF0837BD460A
:1038000080BD00BFB8FC000800200240B8060024BC
:1038100080B582B000AF0B4804F0F8F90A4B1B6882
:103820007B60094A7B68136079680848FFF768FF86
:10383000044804F025FA05F02DFD00BF0837BD4609
:1038400080BD00BFC4FC000800600258F0060024E0
:1038500080B500AF2248FEF77FF8214B214ADA629B
:103860001F4B214A9A621E4B00221A631C4B1F4AAF
:103870005A6305211220FFF713F81D48FEF76CF874
:103880001B4B1C4ADA621A4B1B4A9A62184B0022E5
:103890001A63174B154A5A6305217F20FFF700F87A
:1038A00001212020FFF75CFD2020FFF7A7FD0D4B35
:1038B00000229A602020FFF781FD01214FF08070E7
:1038C000FFF7A8FD4FF08070FFF7F2FD094B0022D3
:1038D0009A604FF08070FFF7CBFD00BF80BD00BF46
:1038E000B80600240023024000200240162C0200EB
:1038F000F0060024006302580060025880B582B0D0
:1039000000AF78607B685B68002B02D17B68454A1A
:103910005A607B681B78012B7FD17B68424A9342B7
:1039200028D17B68414A0521102000F08BFF024618
:103930007B681A637B681B6B002B02D16FF010034E
:103940006CE001212020FFF70BFD7B681B6B092138
:10395000184601F03DF87B689B6A03F140027B68E2
:103960001B6B1B689A607B685A687B689B6A12684D
:10397000C3F8C0207B682E4A93422DD17B682B4A26
:103980000521102000F05EFF02467B681A637B6809
:103990001B6B002B02D16FF010033FE001214FF0B1
:1039A0008070FFF737FD4FF08070FFF781FD7B6877
:1039B0001B6B7321184601F00BF87B689B6A03F1BF
:1039C00040027B681B6B1B689A607B685A687B6847
:1039D0009B6A1268C3F8C0207868FFF774FD7868A6
:1039E000FFF7A0FD7B68104A934207D17B689B6A72
:1039F0009A687B689B6A42F480729A607B680C4A82
:103A0000934207D17B689B6A9A687B689B6A42F401
:103A100080729A607868FFF767FD002318460837C0
:103A2000BD4680BDB0FC0008B8060024CD350008B6
:103A3000F006002480B487B000AF786000233B61BB
:103A40007B681B69FB607B687D4A93423CD17B6845
:103A50005B6B7B61FB681B78002B11D07B6943F4A7
:103A600080737B61FB681B6943F003033B617B68E8
:103A7000DB68012B09D97B6943F008037B6104E013
:103A8000FB681B6943F001033B617B689A687B68B4
:103A90001B6B1B68DA60FB685A687B68D9687B68B7
:103AA0001B6B1B6801FB02F25A607B681B6B1B6877
:103AB0007A691A607B681B6B1B681A687B681B6BD2
:103AC0001B6842F001021A607B685E4A93423CD157
:103AD0007B685B6B7B61FB681B78002B11D07B697B
:103AE00043F480737B61FB681B6943F003033B6114
:103AF0007B68DB68012B09D97B6943F008037B6194
:103B000004E0FB681B6943F001033B617B689A6832
:103B10007B681B6B1B68DA60FB685A687B68D96836
:103B20007B681B6B1B6801FB02F25A607B681B6B96
:103B30001B687A691A607B681B6B1B681A687B6854
:103B40001B6B1B6842F001021A607B689A6A7B68F3
:103B50009B6A12681A60FB68DB68002B04D07B68E4
:103B60009B6A4FF464725A607B689B6AFA68526978
:103B70001A617B689B6AFA68D269DA617B689B6A22
:103B8000FA68126A1A627B689B6AFA68526A5A6219
:103B90007B689B6AFA68926AC3F8B0207B689B6A6C
:103BA000FA68D26AC3F8B4207B689B6AFA68126B21
:103BB000C3F8B8207B689B6AFA68526BC3F8BC20D4
:103BC0007B689B6AFA68926BC3F8A0207B689B6A4B
:103BD000FA68D26BC3F8A4207B689B6AFA68126CFF
:103BE0005A617B689B6AFA68526C9A61FB68996CAF
:103BF000FB685B685A1E7B689B6A0A431A637B6892
:103C00009B6AFA68D26C5A637B689B6AFA68126D89
:103C10009A637B689B6AFA68526DDA637B689B6A79
:103C20003A69DA607B689B6A9A687B689B6A42F0B3
:103C300004029A6000BF1C37BD4680BC704700BFBD
:103C4000B8060024F006002480B582B000AF78608A
:103C50007B68234A93421BD17B681B6B1B681A68E5
:103C60007B681B6B1B6822F01F021A607B681B6B52
:103C70001B681B6803F00103002BF7D17B681B6BEB
:103C80001B7B19467B681B6B5B683D228A401A6070
:103C90007B68144A93421BD17B681B6B1B681A68B4
:103CA0007B681B6B1B6822F01F021A607B681B6B12
:103CB0001B681B6803F00103002BF7D17B681B6BAB
:103CC0001B7B19467B681B6B5B683D228A401A6030
:103CD0007868FFF757FC00BF0837BD4680BD00BFBE
:103CE000B8060024F006002480B483B000AF7860EA
:103CF0000B46FB70124BD3F8E02011497B6813434D
:103D0000C1F8E030FB78002B08D00D4BD3F8082128
:103D10000B497B681343C1F8083108E0084BD3F81E
:103D200008217B68DB4306491340C1F80831044B86
:103D3000D3F8083100BF0C37BD4680BC704700BFC8
:103D40000044025880B483B000AF78600C4BD3F8C5
:103D5000E0207B68DB430A491340C1F8E030084BA0
:103D6000D3F808217B68DB4305491340C1F80831CB
:103D7000034BD3F8083100BF0C37BD4680BC7047F9
:103D80000044025880B582B000AF0F4803F03EFFF8
:103D90000E4B1B6803F00E037B600C4A7B6853607C
:103DA0000B4B5B68002B06D0094B5B68084A926896
:103DB000796810469847044803F062FF05F06AFAF4
:103DC00000BF0837BD4680BD70FD00080054025892
:103DD0002807002480B582B000AF104803F016FF1A
:103DE0000F4B1B681B0903F00E037B600C4A7B68BA
:103DF0001B0153600B4BDB68002B06D0094BDB68C3
:103E0000084A1269796810469847044803F038FF59
:103E100005F040FA00BF0837BD4680BD7CFD0008B4
:103E2000005402582807002480B582B000AF104823
:103E300003F0ECFE0F4B1B681B0A03F00E037B60C4
:103E40000C4A7B681B0253600B4B5B69002B06D04E
:103E5000094B5B69084A926979681046984704489B
:103E600003F00EFF05F016FA00BF0837BD4680BD0F
:103E700088FD0008005402582807002480B582B04D
:103E800000AF104803F0C2FE0F4B1B681B0B03F082
:103E90000E037B600C4A7B681B0353600B4BDB6992
:103EA000002B06D0094BDB69084A126A7968104674
:103EB0009847044803F0E4FE05F0ECF900BF08372A
:103EC000BD4680BD94FD0008005402582807002418
:103ED00080B582B000AF104803F098FE0F4B1B680E
:103EE0001B0C03F00E037B600C4A7B681B045360C1
:103EF0000B4B5B6A002B06D0094B5B6A084A926A3F
:103F0000796810469847044803F0BAFE05F0C2F9F4
:103F100000BF0837BD4680BDA0FD00080054025810
:103F20002807002480B582B000AF104803F06EFE71
:103F30000F4B1B681B0D03F00E037B600C4A7B6864
:103F40001B0553600B4BDB6A002B06D0094BDB6A69
:103F5000084A126B796810469847044803F090FEAF
:103F600005F098F900BF0837BD4680BDACFD0008DC
:103F7000005402582807002480B582B000AF1048D2
:103F800003F044FE0F4B1B681B0E03F00E037B6017
:103F90000C4A7B681B0653600B4B5B6B002B06D0F7
:103FA000094B5B6B084A926B796810469847044846
:103FB00003F066FE05F06EF900BF0837BD4680BD10
:103FC000B8FD0008005402582807002480B582B0CC
:103FD00000AF104803F01AFE0F4B1B681B0F03F0D5
:103FE0000E037B600C4A7B681B0753600B4BDB6B3B
:103FF000002B06D0094BDB6B084A126C796810461F
:104000009847044803F03CFE05F044F900BF083728
:10401000BD4680BDC4FD0008005402582807002496
:1040200080B483B000AF164B00221A6000237B607F
:1040300019E014497A6813469B0013449B000B4413
:1040400004331B6800221A600D4A7B68DB001344AE
:1040500000225A600A4A7B68DB00134400229A60FF
:104060007B6801337B607B68072BE2D9064B4FF0FE
:10407000FF325A6000BF0C37BD4680BC704700BF9E
:1040800028070024D0FC00080054025880B58AB0EC
:1040900000AFF860B9607A603B60FB68072B04D81A
:1040A000FB683B62FB68FB6109E0FB68082B04D1FD
:1040B00000233B620723FB6101E0002357E03B6ADA
:1040C0007B624FE001227B6A02FA03F3BB612A4B59
:1040D0001A68BB691340002B41D17A6A13469B00D2
:1040E00013449B00254A13447B61234A7B6ADB000F
:1040F00013447A685A60204A7B6ADB0013443A68AA
:104100009A601D4B1A68BB6913431B4A1360BB6955
:10411000DBB2002B04D001214FF40010FFF7E4FDC7
:104120007B68002B05D07B695B7CB9681846FEF77D
:10413000B7FB7B695B681A687B695B6822F00F02DA
:104140001A607B691B7A19467B691B680E228A40BC
:104150005A607B695B6800221A607B6907E07B6AB2
:1041600001337B627A6AFB699A42ABD90023184615
:104170002837BD4680BD00BF28070024D0FC0008BA
:1041800080B582B000AF78607B685B7C1846FEF734
:10419000B5FB134B1A687B681B7C194601238B40C7
:1041A000DB4313400E4A13607B681B7C0C4ADB0028
:1041B000134400225A607B681B7C094ADB001344CD
:1041C00000229A60064B1B68DBB2002B03D14FF430
:1041D0000010FFF7B7FD00BF0837BD4680BD00BF28
:1041E0002807002480B483B000AF786039607B6812
:1041F000DB683A681A6000BF0C37BD4680BC704768
:1042000080B483B000AF78600B46FB70124BD3F8DC
:10421000D82011497B681343C1F8D830FB78002BB4
:1042200008D00D4BD3F800210B497B681343C1F82C
:10423000003108E0084BD3F800217B68DB430649D6
:104240001340C1F80031044BD3F8003100BF0C37E4
:10425000BD4680BC704700BF0044025880B483B0A4
:1042600000AF78600C4BD3F8D8207B68DB430A4959
:104270001340C1F8D830084BD3F800217B68DB43EA
:1042800005491340C1F80031034BD3F8003100BF9A
:104290000C37BD4680BC70470044025880B582B0E0
:1042A00000AF0F4803F0B2FC0E4B1B6803F03D0358
:1042B0007B600C4A7B6893600B4B5B68002B06D0DD
:1042C000094B5B68084A9268796810469847044829
:1042D00003F0D6FC04F0DEFF00BF0837BD4680BD0A
:1042E000D0FE0008000002406C07002480B582B0B8
:1042F00000AF104803F08AFC0F4B1B689B0903F0CA
:104300003D037B600C4A7B689B0193600B4BDB6831
:10431000002B06D0094BDB68084A12697968104601
:104320009847044803F0ACFC04F0B4FF00BF083722
:10433000BD4680BDDCFE0008000002406C07002482
:1043400080B582B000AF104803F060FC0F4B1B68D3
:104350001B0C03F03D037B600C4A7B681B049360DD
:104360000B4B5B69002B06D0094B5B69084A9269CD
:10437000796810469847044803F082FC04F08AFFED
:1043800000BF0837BD4680BDE8FE000800000240BF
:104390006C07002480B582B000AF104803F036FCF3
:1043A0000F4B1B689B0D03F03D037B600C4A7B6841
:1043B0009B0593600B4BDB69002B06D0094BDB6937
:1043C000084A126A796810469847044803F058FC76
:1043D00004F060FF00BF0837BD4680BDF4FE000852
:1043E000000002406C07002480B582B000AF0F4887
:1043F00003F00CFC0E4B5B6803F03D037B600C4A42
:104400007B68D3600B4B5B6A002B06D0094B5B6A61
:10441000084A926A796810469847044803F030FCCD
:1044200004F038FF00BF0837BD4680BD00FF00081C
:10443000000002406C07002480B582B000AF104835
:1044400003F0E4FB0F4B5B689B0903F03D037B60CB
:104450000C4A7B689B01D3600B4BDB6A002B06D0B8
:10446000094BDB6A084A126B796810469847044882
:1044700003F006FC04F00EFF00BF0837BD4680BD08
:104480000CFF0008000002406C07002480B582B0D9
:1044900000AF104803F0BAFB0F4B5B681B0C03F036
:1044A0003D037B600C4A7B681B04D3600B4B5B6B4A
:1044B000002B06D0094B5B6B084A926B796810465B
:1044C0009847044803F0DCFB04F0E4FE00BF083723
:1044D000BD4680BD18FF0008000002406C070024A4
:1044E00080B582B000AF104803F090FB0F4B5B68C3
:1044F0009B0D03F03D037B600C4A7B689B05D360FA
:104500000B4BDB6B002B06D0094BDB6B084A126CA4
:10451000796810469847044803F0B2FB04F0BAFEED
:1045200000BF0837BD4680BD24FF000800000240E0
:104530006C07002480B582B000AF0F4803F066FB23
:104540000E4B1B6803F03D037B600C4A7B68936055
:104550000B4B5B6C002B06D0094B5B6C084A926CD2
:10456000796810469847044803F08AFB04F092FEED
:1045700000BF0837BD4680BD30FF00080004024080
:104580006C07002480B582B000AF104803F03EFBFA
:104590000F4B1B689B0903F03D037B600C4A7B6853
:1045A0009B0193600B4BDB6C002B06D0094BDB6C43
:1045B000084A126D796810469847044803F060FB7A
:1045C00004F068FE00BF0837BD4680BD3CFF000810
:1045D000000402406C07002480B582B000AF104890
:1045E00003F014FB0F4B1B681B0C03F03D037B60B7
:1045F0000C4A7B681B0493600B4B5B6D002B06D051
:10460000094B5B6D084A926D7968104698470448DB
:1046100003F036FB04F03EFE00BF0837BD4680BD08
:1046200048FF0008000402406C07002480B582B0F7
:1046300000AF104803F0EAFA0F4B1B689B0D03F024
:104640003D037B600C4A7B689B0593600B4BDB6DE5
:10465000002B06D0094BDB6D084A126E79681046B4
:104660009847044803F00CFB04F014FE00BF083721
:10467000BD4680BD54FF0008000402406C070024C2
:1046800080B582B000AF0F4803F0C0FA0E4B5B68F4
:1046900003F03D037B600C4A7B68D3600B4B5B6E81
:1046A000002B06D0094B5B6E084A926E7968104663
:1046B0009847044803F0E4FA04F0ECFD00BF083723
:1046C000BD4680BD60FF0008000402406C07002466
:1046D00080B582B000AF104803F098FA0F4B5B68CA
:1046E0009B0903F03D037B600C4A7B689B01D36010
:1046F0000B4BDB6E002B06D0094BDB6E084A126FAA
:10470000796810469847044803F0BAFA04F0C2FDED
:1047100000BF0837BD4680BD6CFF000800040240A2
:104720006C07002480B582B000AF104803F06EFA29
:104730000F4B5B681B0C03F03D037B600C4A7B68EE
:104740001B04D3600B4B5B6F002B06D0094B5B6FD8
:10475000084A926F796810469847044803F090FA27
:1047600004F098FD00BF0837BD4680BD78FF000803
:10477000000402406C07002480B582B000AF1148ED
:1047800003F044FA104B5B689B0D03F03D037B6024
:104790000D4A7B689B05D3600C4BDB6F002B07D069
:1047A0000A4BDB6F094AD2F8802079681046984797
:1047B000044803F065FA04F06DFD00BF0837BD46FC
:1047C00080BD00BF84FF0008000402406C07002485
:1047D00080B483B000AF174B00221A6000237B60C7
:1047E0000FE0154A7B681B0113441B6800221A6006
:1047F000104A7B68DB00134400225A607B68013357
:104800007B607B680F2BECD90C4B4FF0FF329A602A
:104810000A4B4FF0FF32DA60094B4FF0FF329A60DB
:10482000074B4FF0FF32DA6000BF0C37BD4680BC4B
:10483000704700BF6C070024D0FD00080000024054
:104840000004024080B58AB000AFF860B9607A60B9
:104850003B60FB680F2B04D8FB683B62FB68FB6185
:1048600019E0FB68102B04D100233B620F23FB618E
:1048700011E0FB68112B04D100233B620723FB618D
:1048800009E0FB68122B04D107233B620F23FB6175
:1048900001E0002367E03B6A7B625FE001227B6A04
:1048A00002FA03F3BB61324B1A68BB691340002B59
:1048B00051D17B6A1B012F4A13447B612C4A7B6ACE
:1048C000DB0013447A685A60294A7B6ADB00134490
:1048D0003A689A60264B1A68BB691343244A1360EE
:1048E000BB69DBB2002B03D001210120FFF788FC5C
:1048F000BB6903F47F43002B03D001210220FFF7A3
:104900007FFC7B691B681A687B691B6822F01F02A9
:104910001A607B691B681B6803F00103002BF8D148
:104920007B691B7B19467B695B683D228A401A6064
:104930007B691B6800221A607B691B6821225A610F
:104940007B68002B05D07B699B7BB9681846FDF717
:10495000A7FF7B6907E07B6A01337B627A6AFB69A8
:104960009A429BD9002318462837BD4680BD00BF18
:104970006C070024D0FD000880B582B000AF7860DD
:104980007B689B7B1846FDF7B9FF104B1A687B6864
:104990005B7B194601238B40DB4313400B4A1360BA
:1049A0000A4B1B68DBB2002B02D10120FFF756FC3B
:1049B000064B1B6803F47F43002B02D10220FFF754
:1049C0004DFC00BF0837BD4680BD00BF6C0700240A
:1049D00080B483B000AF786039607B689B683A68C8
:1049E0001A6000BF0C37BD4680BC704780B400AF72
:1049F00000BFBD4680BC704780B48FB000AFF86088
:104A0000B9607A607B6803F003037B637B689B0873
:104A100003F001033B637B68DB0803F00303FB62E5
:104A20007B685B0903F00303BB627B68DB0903F06F
:104A30000F033B6200237B62BB6803F00103002B82
:104A400079D07B6A03F007039B003A6A02FA03F30A
:104A5000FB6101227B6A02FA03F3BB617B6A5B00A4
:104A6000032202FA03F37B617B6A03F007039B00D6
:104A70000F2202FA03F33B61FB685A68BB69DB4310
:104A80001A403B6B1A43FB685A60FB689A687B6963
:104A9000DB431A40FB6A1A43FB689A60FB68DA68DA
:104AA0007B69DB431A40BB6A1A43FB68DA607B68A8
:104AB00003F00303022B1FD17B6A072B09D8FB6885
:104AC0001A6A3B69DB431A40FB691A43FB681A62A6
:104AD00008E0FB685A6A3B69DB431A40FB691A43EA
:104AE000FB685A62FB681A687B69DB431A407B6B80
:104AF0001A43FB681A601EE0FB681A687B69DB4397
:104B00001A407B6B1A43FB681A607B6A072B09D833
:104B1000FB681A6A3B69DB431A40FB691A43FB686E
:104B20001A6208E0FB685A6A3B69DB431A40FB697A
:104B30001A43FB685A62BB685B08BB60BB68002B0A
:104B40000FD03B6B5B003B63FB6A9B00FB62BB6A65
:104B50009B00BB627B6B9B007B637B6A01337B6248
:104B60006AE700BF3C37BD4680BC704780B483B065
:104B700000AF30237B607B6883F3118800BF00BFE8
:104B800000BF00BF0C37BD4680BC704780B483B007
:104B900000AF00237B607B6883F3118800BF00BFF8
:104BA00000BF00BF0C37BD4680BC704780B500AF6A
:104BB000FFF7DCFF00BF80BD80B500AFFFF7E6FF69
:104BC00000BF80BD80B582B000AF786039603968C1
:104BD000786804F033F800BF0837BD4680BD80B464
:104BE00083B000AF78607B681B6B1B685B681846FE
:104BF0000C37BD4680BC704780B483B000AF78608E
:104C00007B685B6B1B685B6818460C37BD4680BCD5
:104C1000704780B483B000AF78607B681B6B1B6803
:104C20001A687B681B6B1B6842F001021A6000BFA8
:104C30000C37BD4680BC704780B483B000AF78604D
:104C40007B681B6B1B681A687B681B6B1B6822F0F8
:104C50001F021A607B681B6B1B681B6803F0010353
:104C6000002BF7D17B681B6B1B7B19467B681B6B8A
:104C70005B683D228A401A6000BF0C37BD4680BC8D
:104C8000704780B483B000AF78607B685B6B1B6853
:104C90001A687B685B6B1B6822F01F021A607B68D6
:104CA0005B6B1B681B6803F00103002BF7D17B686B
:104CB0005B6B1B7B19467B685B6B5B683D228A40A4
:104CC0001A6000BF0C37BD4680BC704780B586B007
:104CD00000AF78607B689B6BFB607868FFF77FFFB5
:104CE00038613B69FF2B05D9FF233B614FF080738F
:104CF0007B6101E000237B61FB685A68094B13402C
:104D00007A68526892681A433B691B041A437B69AC
:104D1000134343F48062FB685A6000BF1837BD46F6
:104D200080BD00BFFFFF00FE80B586B000AF786099
:104D30007B689B6BFB607868FFF75EFF38613B69BF
:104D4000FF2B05D9FF233B614FF080737B6101E0AE
:104D500000237B61FB685A68084B13407A685268ED
:104D600092681A433B691B041A437B691A43FB6828
:104D70005A6000BF1837BD4680BD00BFFFFF00FE70
:104D800080B584B000AF786039607B689B6BFB6056
:104D90003B6803F01003002B23D07868FFF74CFF2B
:104DA0007868FFF76EFF7B689B6843F004027B68BE
:104DB0009A60FB685B6843F48042FB685A60FB685A
:104DC0001B6823F04602FB681A60FFF7EFFE7B6862
:104DD0001C336FF001011846FFF7F4FEFFF7ECFEFD
:104DE0004BE03B6803F08003002B0BD07B681B7803
:104DF000032B03D17868FFF797FF3EE07868FFF751
:104E000065FF3AE03B6803F04003002B35D07B6838
:104E10001B78032B18D17868FFF733FF7868FFF70A
:104E2000DEFE0346002B12D07868FFF74FFF78684C
:104E3000FFF7EFFEFB685B6843F40052FB685A60C3
:104E40007B6804221A7018E07868FFF7F5FEFB68AB
:104E50005B6843F48042FB685A60FB681B6823F080
:104E60004002FB681A60FFF7A1FE7B681C3300213B
:104E70001846FFF7A7FEFFF79FFE1037BD4680BD1F
:104E800080B582B000AF786039607868FFF7D4FEF3
:104E90007868FFF7F6FE3B6803F48073002B05D0BB
:104EA0007B689B6843F001027B689A603B6803F46F
:104EB0000073002B05D07B689B6843F002027B687F
:104EC0009A603B6803F48063002B05D07B689B6885
:104ED00043F008027B689A603B6803F48053002B20
:104EE00005D07B689B6843F020027B689A607B68F2
:104EF0009B68002B0AD0FFF759FE7B681C336FF0CC
:104F000001011846FFF75EFEFFF756FE00BF0837A7
:104F1000BD4680BD80B582B000AF0D4B9B6B9B69D9
:104F20007B600C4802F072FE094B9B6B7A6802F0C2
:104F3000FE02DA6179680648FFF722FF054802F0B1
:104F40009FFE04F0A7F900BF0837BD4680BD00BF33
:104F5000F007002490FF000880B582B000AF0D4B31
:104F60009B6B9B697B600C4802F050FE094B9B6B6E
:104F70007A6802F47C52DA6179680648FFF780FFAC
:104F8000054802F07DFE04F085F900BF0837BD46F4
:104F900080BD00BFF00700249CFF000880B500AF73
:104FA0000C48FCF757FD0B4B0022DA61094B0A4A0B
:104FB0009A63084B00221A63064B00225A630521AC
:104FC0002120FDF76DFC05212220FDF769FC00BFC3
:104FD00080BD00BFF00700240058004080B483B0BB
:104FE00000AF30237B607B6883F3118800BF00BF74
:104FF00000BF00BF0C37BD4680BC704780B483B093
:1050000000AF00237B607B6883F3118800BF00BF83
:1050100000BF00BF0C37BD4680BC704780B500AFF5
:10502000FFF7DCFF00BF80BD80B500AFFFF7E6FFF4
:1050300000BF80BD80B582B000AF7860786802F0B4
:10504000DBFC00BF0837BD4680BD80B485B000AF33
:1050500078607B68D3F89030BB600023FB6040E051
:10506000BA68FB6848335B0113441B68002B0DDAF8
:10507000BA68FB6848335B0113441B6843F0804205
:10508000B968FB6848335B010B441A60BA68FB6877
:1050900058335B0113441B68002B0DDABA68FB68B8
:1050A00058335B0113441B6843F08042B968FB68C6
:1050B00058335B010B441A60BA68FB685B01134408
:1050C00003F608134FF0FF321A60BA68FB685B0101
:1050D000134403F608334FF0FF321A60FB680133C4
:1050E000FB607B68D3F894309B68FA689A42B7D922
:1050F000BB684FF00112C3F81C2800BF1437BD462F
:1051000080BC704780B485B000AF78607B68D3F80E
:105110009030BB600023FB602BE07A68FB680233B1
:105120009B0013445B689B69002B0BD0BB68D3F8D2
:105130001C28FB681033012101FA03F31A43BB68F2
:10514000C3F81C287A68FB6802339B0013445B6831
:105150005B69002B0AD0BB68D3F81C280121FB68CF
:1051600001FA03F31A43BB68C3F81C28FB68013338
:10517000FB607B68D3F894309B68FA689A42CCD97C
:1051800000BF00BF1437BD4680BC704780B584B0F7
:1051900000AF78607B68D3F89030FB60FB6810222A
:1051A0001A6100BFFB681B6903F01003002BF9D1E3
:1051B0001220FFF73FFF00BF1037BD4680BD80B50E
:1051C00084B000AF786039607B68D3F89030FB60C2
:1051D0003B689B0143F02002FB681A6100BFFB683B
:1051E0001B6903F02003002BF9D11220FFF722FFE7
:1051F00000BF1037BD4680BD80B483B000AF78607B
:105200007B68D3F894301A687B68C3F8982000BF95
:105210000C37BD4680BC704780B485B000AF786065
:1052200039607B68D3F89830FB607B68D3F89820AE
:105230003B681A447B68C3F89820FB68184614370B
:10524000BD4680BC704780B485B000AFF860B960DF
:105250007A60BB681A68FB681A607B68042B06D901
:105260007B68043B7B60BB680433BB60F1E700BF35
:1052700000BF1437BD4680BC704780B487B000AF14
:10528000F860B9607A603B6000237B6100233B617A
:1052900017E03B6903F00303002B02D1FB681B6896
:1052A0007B613A693B689A4208D2BB685A1CBA6073
:1052B0007A69D2B21A707B691B0A7B613B69013340
:1052C0003B613A697B689A42E3D300BF00BF1C3759
:1052D000BD4680BC704780B586B000AF78607B6803
:1052E000D3F890301B6A7B617B691B09C3F30A0307
:1052F0003B617B6903F00F03FB607B6903F4F013F0
:10530000B3F5402F1BD0B3F5402F00F29A80B3F5D0
:10531000002F00F09880B3F5002F00F29280B3F5D3
:10532000C02F00F09280B3F5C02F00F28A80B3F551
:10533000003F00F08C80B3F5802F11D081E07B68B6
:10534000D3F8903003F580507A68FB6802339B00F5
:1053500013445B68196A08233A69FFF78EFF77E008
:105360007A68FB6802339B0013445B689B691A6888
:105370007968FB6802339B000B445B689B695B6840
:10538000D31ABB607B68D3F8903003F580507A68FD
:10539000FB6802339B0013445B689B699968BB6898
:1053A0003A69FFF76AFF3A69BB689A4224D27A6881
:1053B000FB6802339B0013445B689B6999687A68B9
:1053C000FB6802339B0013445B689B693A690A449B
:1053D0009A607A68FB6802339B0013445B689B69A0
:1053E00059687A68FB6802339B0013445B689B69C9
:1053F0003A690A445A602BE07A68FB6802339B00E2
:1054000013445B689B6999687A68FB6802339B0068
:1054100013445B689B69BA680A449A607A68FB68BF
:1054200002339B0013445B689B6959687A68FB6888
:1054300002339B0013445B689B69BA680A445A6054
:1054400006E000BF04E000BF02E000BF00E000BFD4
:1054500000BF1837BD4680BD80B584B000AF78600E
:105460000B46FB70FB787A6802339B0013445B6841
:105470005B695A68FB78796802339B000B445B6870
:105480005B691B689A4211D37B68D3F89030D3F8DC
:105490003418FB78012202FA03F3DA437B68D3F86D
:1054A00090300A40C3F8342801236CE0FB787A6816
:1054B00002339B0013445B685B691A68FB78796868
:1054C00002339B000B445B685B695B68D31AFB602B
:1054D000FB787A6802339B0013445B681B8A1A4688
:1054E000FB68934207D9FB787A6802339B00134428
:1054F0005B681B8AFB607B68D3F89020FB785B01BC
:10550000134403F618131B689BB29B00FA689A4277
:1055100001D9002337E07B68D3F89020FB78013372
:105520001B03D018FB787A6802339B0013445B6836
:105530005B699B68FA681946FFF785FEFB787A6815
:1055400002339B0013445B685B699968FB787A6857
:1055500002339B0013445B685B69FA680A449A60F3
:10556000FB787A6802339B0013445B685B69596877
:10557000FB787A6802339B0013445B685B69FA68C6
:105580000A445A606EE718461037BD4680BD80B5A4
:1055900086B000AF78600B46FB707B68D3F8903024
:1055A0007B61FB787A695B01134403F608131B687F
:1055B0003B61FB787A695B01134403F608133A698F
:1055C0001A603B6903F00103002B4BD07B69D3F8D1
:1055D000103803F00103002B44D0FB787A680233C3
:1055E0009B0013445B685B69FB60FB681A68FB689F
:1055F000DB689A4213D2FB68DA68FB681B68D21A30
:10560000FB681A60FB6800225A60FFF707FDFB7811
:105610001946786800F0E8FCFFF706FD22E07B6899
:105620001B891AB2FB78012101FA03F31BB2DB4399
:105630001BB213401BB29AB27B681A81FB787A685E
:1056400002339B0013445B689B68002B0AD0FB78F5
:105650007A6802339B0013445B689B68FA781146B2
:10566000786898473B6903F08003002B0ED07B6974
:10567000D3F83428FB78012101FA03F31340002BFF
:1056800004D0FB7819467868FFF7E6FE00BF1837AC
:10569000BD4680BD80B586B000AF78600B46FB701C
:1056A0007B68D3F890307B61FB787A695B011344A7
:1056B00003F608331B683B61FB787A695B0113448E
:1056C00003F608333A691A603B6903F00803002BBC
:1056D00011D07B69D3F8143803F00803002B0AD0EB
:1056E000FB787A6802339B0013445B685B68FA7846
:1056F0001146786898473B6903F00103002B5ED0A0
:105700007B69D3F8143803F00103002B57D0FB78E2
:105710007A6802339B0013445B689B69FB60FB78EB
:10572000002B29D1FB685A68FB78796802339B000B
:105730000B445B685B8AB2FBF3F101FB03F3D31A02
:10574000002B19D1FB681A68FB68DB689A4213D2F8
:10575000FB68DA68FB681B68D21AFB681A60FB6892
:1057600000225A60FFF75AFCFB781946786800F06F
:105770009CFBFFF759FC22E07B685B891AB2FB783F
:10578000012101FA03F31BB2DB431BB213401BB22E
:105790009AB27B685A81FB787A6802339B00134483
:1057A0005B68DB68002B0AD0FB787A6802339B00C9
:1057B00013445B68DB68FA781146786898471837B5
:1057C000BD4680BD80B584B000AF78607B68D3F8FB
:1057D0009030BB600023FB7354E0FB7BBA68483316
:1057E0005B0113441B6803F44023B3F5802F46D1BB
:1057F000FB7BBA6848335B0113441B68002B3EDA1D
:10580000FB7BBA6848335B0113441A68FB7B42F0A8
:105810009042B96848335B010B441A6000BFFB7BC0
:10582000BA6848335B0113441B68002BF7DBFB7B32
:1058300019467868FFF7C3FC7B681B891AB2FB7BAB
:10584000012101FA03F31BB2DB431BB213401BB26D
:105850009AB27B681A81FB7B7A6802339B001344FF
:105860005B689B68002B0AD0FB7B7A6802339B0045
:1058700013445B689B68FA7B114678689847FB7B0A
:105880000133FB73FA7B7B68D3F894309B689A42B0
:10589000A3D900BF00BF1037BD4680BD80B584B01E
:1058A00000AF78607B68D3F89030BB600023FB7357
:1058B00038E0FB7BBA6858335B0113441B6803F480
:1058C0004023B3F5802F2AD1FB7BBA6858335B01A4
:1058D00013441B68002B22DA7B685B891AB2FB7BBE
:1058E000012101FA03F31BB2DB431BB213401BB2CD
:1058F0009AB27B685A81FB7B7A6802339B0013441F
:105900005B68DB68002B0AD0FB7B7A6802339B0064
:1059100013445B68DB68FA7B114678689847FB7B29
:105920000133FB73FA7B7B68D3F894309B689A420F
:10593000BFD900BF00BF1037BD4680BD80B586B05F
:1059400000AF78607B68D3F890303B6140237B6187
:105950003B695B69FB603B699B69FA681340FB60CC
:105960003B69FA685A61FB6803F48053002B03D04B
:105970007868FCF72CFD47E1FB68002B1CDA3B69DB
:10598000D3F8003E03F00303002B07D03B69D3F8A4
:10599000003E23F003023B69C3F8002E7868FFF74E
:1059A000B1FB3B69D3F8043823F001023B69C3F82B
:1059B00004287868FCF76FFDFB6803F40063002B94
:1059C00005D07868FFF741FB7868FCF73FFDFB687E
:1059D00003F40053002B17D03B69D3F8083803F0C9
:1059E0000603002B08D13B69DB6823F4705343F4B2
:1059F00010523B69DA6007E03B69DB6823F47053BF
:105A000043F4A0523B69DA60FB6803F00803002B03
:105A100026D07B685B68DB68002B05D13B699B69FE
:105A200023F008023B699A617B681B78052B0AD139
:105A30003B69D3F8003E23F003023B69C3F8002E14
:105A40007868FCF728FD7868FFF75CFB7B685B688B
:105A5000DB68002B04D07B685B68DB68786898475C
:105A6000FB6803F48013002B02D07868FFF7AAFECE
:105A7000FB6803F40013002B02D07868FFF70EFFD9
:105A80003B69D3F81838BB60FB6803F40023002B94
:105A900050D0BB6803F48033002B03D0002178681A
:105AA000FFF7F8FDBB6803F40033002B03D001219E
:105AB0007868FFF7EFFDBB6803F48023002B03D069
:105AC00002217868FFF7E6FDBB6803F40023002B92
:105AD00003D003217868FFF7DDFDBB6803F4801372
:105AE000002B03D004217868FFF7D4FDBB6803F4D2
:105AF0000013002B03D005217868FFF7CBFDBB68AE
